{
	"docs.chain.link/samples/APIRequests/ATestnetConsumer1.sol": {
		"ATestnetConsumer": {
			"abi": [
				{
					"inputs": [],
					"stateMutability": "nonpayable",
					"type": "constructor"
				},
				{
					"anonymous": false,
					"inputs": [
						{
							"indexed": true,
							"internalType": "bytes32",
							"name": "id",
							"type": "bytes32"
						}
					],
					"name": "ChainlinkCancelled",
					"type": "event"
				},
				{
					"anonymous": false,
					"inputs": [
						{
							"indexed": true,
							"internalType": "bytes32",
							"name": "id",
							"type": "bytes32"
						}
					],
					"name": "ChainlinkFulfilled",
					"type": "event"
				},
				{
					"anonymous": false,
					"inputs": [
						{
							"indexed": true,
							"internalType": "bytes32",
							"name": "id",
							"type": "bytes32"
						}
					],
					"name": "ChainlinkRequested",
					"type": "event"
				},
				{
					"anonymous": false,
					"inputs": [
						{
							"indexed": true,
							"internalType": "address",
							"name": "from",
							"type": "address"
						},
						{
							"indexed": true,
							"internalType": "address",
							"name": "to",
							"type": "address"
						}
					],
					"name": "OwnershipTransferRequested",
					"type": "event"
				},
				{
					"anonymous": false,
					"inputs": [
						{
							"indexed": true,
							"internalType": "address",
							"name": "from",
							"type": "address"
						},
						{
							"indexed": true,
							"internalType": "address",
							"name": "to",
							"type": "address"
						}
					],
					"name": "OwnershipTransferred",
					"type": "event"
				},
				{
					"anonymous": false,
					"inputs": [
						{
							"indexed": true,
							"internalType": "bytes32",
							"name": "requestId",
							"type": "bytes32"
						},
						{
							"indexed": true,
							"internalType": "uint256",
							"name": "price",
							"type": "uint256"
						}
					],
					"name": "RequestEthereumPriceFulfilled",
					"type": "event"
				},
				{
					"inputs": [],
					"name": "acceptOwnership",
					"outputs": [],
					"stateMutability": "nonpayable",
					"type": "function"
				},
				{
					"inputs": [
						{
							"internalType": "bytes32",
							"name": "_requestId",
							"type": "bytes32"
						},
						{
							"internalType": "uint256",
							"name": "_payment",
							"type": "uint256"
						},
						{
							"internalType": "bytes4",
							"name": "_callbackFunctionId",
							"type": "bytes4"
						},
						{
							"internalType": "uint256",
							"name": "_expiration",
							"type": "uint256"
						}
					],
					"name": "cancelRequest",
					"outputs": [],
					"stateMutability": "nonpayable",
					"type": "function"
				},
				{
					"inputs": [],
					"name": "currentPrice",
					"outputs": [
						{
							"internalType": "uint256",
							"name": "",
							"type": "uint256"
						}
					],
					"stateMutability": "view",
					"type": "function"
				},
				{
					"inputs": [
						{
							"internalType": "bytes32",
							"name": "_requestId",
							"type": "bytes32"
						},
						{
							"internalType": "uint256",
							"name": "_price",
							"type": "uint256"
						}
					],
					"name": "fulfillEthereumPrice",
					"outputs": [],
					"stateMutability": "nonpayable",
					"type": "function"
				},
				{
					"inputs": [],
					"name": "getChainlinkToken",
					"outputs": [
						{
							"internalType": "address",
							"name": "",
							"type": "address"
						}
					],
					"stateMutability": "view",
					"type": "function"
				},
				{
					"inputs": [],
					"name": "owner",
					"outputs": [
						{
							"internalType": "address",
							"name": "",
							"type": "address"
						}
					],
					"stateMutability": "view",
					"type": "function"
				},
				{
					"inputs": [
						{
							"internalType": "address",
							"name": "_oracle",
							"type": "address"
						},
						{
							"internalType": "string",
							"name": "_jobId",
							"type": "string"
						}
					],
					"name": "requestEthereumPrice",
					"outputs": [],
					"stateMutability": "nonpayable",
					"type": "function"
				},
				{
					"inputs": [
						{
							"internalType": "address",
							"name": "to",
							"type": "address"
						}
					],
					"name": "transferOwnership",
					"outputs": [],
					"stateMutability": "nonpayable",
					"type": "function"
				},
				{
					"inputs": [],
					"name": "withdrawLink",
					"outputs": [],
					"stateMutability": "nonpayable",
					"type": "function"
				}
			],
			"devdoc": {
				"kind": "dev",
				"methods": {
					"constructor": {
						"details": "LINK address in Sepolia network: 0x779877A7B0D9E8603169DdbD7836e478b4624789Check https://docs.chain.link/docs/link-token-contracts/ for LINK address for the right network"
					}
				},
				"version": 1
			},
			"evm": {
				"assembly": "    /* \"docs.chain.link/samples/APIRequests/ATestnetConsumer1.sol\":478:3078  contract ATestnetConsumer is ChainlinkClient, ConfirmedOwner {... */\n  mstore(0x40, 0x80)\n    /* \"@chainlink/contracts@1.2.0/src/v0.8/ChainlinkClient.sol\":1482:1483  1 */\n  0x01\n    /* \"@chainlink/contracts@1.2.0/src/v0.8/ChainlinkClient.sol\":1449:1483  uint256 private s_requestCount = 1 */\n  0x04\n  sstore\n    /* \"docs.chain.link/samples/APIRequests/ATestnetConsumer1.sol\":1056:1176  constructor() ConfirmedOwner(msg.sender) {... */\n  callvalue\n  dup1\n  iszero\n  tag_1\n  jumpi\n  0x00\n  dup1\n  revert\ntag_1:\n  pop\n    /* \"docs.chain.link/samples/APIRequests/ATestnetConsumer1.sol\":1085:1095  msg.sender */\n  caller\n    /* \"@chainlink/contracts@1.2.0/src/v0.8/shared/access/ConfirmedOwner.sol\":355:363  newOwner */\n  dup1\n    /* \"@chainlink/contracts@1.2.0/src/v0.8/shared/access/ConfirmedOwner.sol\":373:374  0 */\n  0x00\n    /* \"@chainlink/contracts@1.2.0/src/v0.8/shared/access/ConfirmedOwnerWithProposal.sol\":618:619  0 */\n  dup1\n    /* \"@chainlink/contracts@1.2.0/src/v0.8/shared/access/ConfirmedOwnerWithProposal.sol\":598:620  newOwner != address(0) */\n  0xffffffffffffffffffffffffffffffffffffffff\n  and\n    /* \"@chainlink/contracts@1.2.0/src/v0.8/shared/access/ConfirmedOwnerWithProposal.sol\":598:606  newOwner */\n  dup3\n    /* \"@chainlink/contracts@1.2.0/src/v0.8/shared/access/ConfirmedOwnerWithProposal.sol\":598:620  newOwner != address(0) */\n  0xffffffffffffffffffffffffffffffffffffffff\n  and\n  sub\n    /* \"@chainlink/contracts@1.2.0/src/v0.8/shared/access/ConfirmedOwnerWithProposal.sol\":590:649  require(newOwner != address(0), \"Cannot set owner to zero\") */\n  tag_6\n  jumpi\n  mload(0x40)\n  0x08c379a000000000000000000000000000000000000000000000000000000000\n  dup2\n  mstore\n  0x04\n  add\n  tag_7\n  swap1\n  tag_8\n  jump\t// in\ntag_7:\n  mload(0x40)\n  dup1\n  swap2\n  sub\n  swap1\n  revert\ntag_6:\n    /* \"@chainlink/contracts@1.2.0/src/v0.8/shared/access/ConfirmedOwnerWithProposal.sol\":666:674  newOwner */\n  dup2\n    /* \"@chainlink/contracts@1.2.0/src/v0.8/shared/access/ConfirmedOwnerWithProposal.sol\":656:663  s_owner */\n  0x06\n  0x00\n    /* \"@chainlink/contracts@1.2.0/src/v0.8/shared/access/ConfirmedOwnerWithProposal.sol\":656:674  s_owner = newOwner */\n  0x0100\n  exp\n  dup2\n  sload\n  dup2\n  0xffffffffffffffffffffffffffffffffffffffff\n  mul\n  not\n  and\n  swap1\n  dup4\n  0xffffffffffffffffffffffffffffffffffffffff\n  and\n  mul\n  or\n  swap1\n  sstore\n  pop\n    /* \"@chainlink/contracts@1.2.0/src/v0.8/shared/access/ConfirmedOwnerWithProposal.sol\":708:709  0 */\n  0x00\n    /* \"@chainlink/contracts@1.2.0/src/v0.8/shared/access/ConfirmedOwnerWithProposal.sol\":684:710  pendingOwner != address(0) */\n  0xffffffffffffffffffffffffffffffffffffffff\n  and\n    /* \"@chainlink/contracts@1.2.0/src/v0.8/shared/access/ConfirmedOwnerWithProposal.sol\":684:696  pendingOwner */\n  dup2\n    /* \"@chainlink/contracts@1.2.0/src/v0.8/shared/access/ConfirmedOwnerWithProposal.sol\":684:710  pendingOwner != address(0) */\n  0xffffffffffffffffffffffffffffffffffffffff\n  and\n  eq\n    /* \"@chainlink/contracts@1.2.0/src/v0.8/shared/access/ConfirmedOwnerWithProposal.sol\":680:759  if (pendingOwner != address(0)) {... */\n  tag_9\n  jumpi\n    /* \"@chainlink/contracts@1.2.0/src/v0.8/shared/access/ConfirmedOwnerWithProposal.sol\":720:752  _transferOwnership(pendingOwner) */\n  tag_10\n    /* \"@chainlink/contracts@1.2.0/src/v0.8/shared/access/ConfirmedOwnerWithProposal.sol\":739:751  pendingOwner */\n  dup2\n    /* \"@chainlink/contracts@1.2.0/src/v0.8/shared/access/ConfirmedOwnerWithProposal.sol\":720:738  _transferOwnership */\n  shl(0x20, tag_11)\n    /* \"@chainlink/contracts@1.2.0/src/v0.8/shared/access/ConfirmedOwnerWithProposal.sol\":720:752  _transferOwnership(pendingOwner) */\n  0x20\n  shr\n  jump\t// in\ntag_10:\n    /* \"@chainlink/contracts@1.2.0/src/v0.8/shared/access/ConfirmedOwnerWithProposal.sol\":680:759  if (pendingOwner != address(0)) {... */\ntag_9:\n    /* \"@chainlink/contracts@1.2.0/src/v0.8/shared/access/ConfirmedOwnerWithProposal.sol\":481:763  constructor(address newOwner, address pendingOwner) {... */\n  pop\n  pop\n    /* \"@chainlink/contracts@1.2.0/src/v0.8/shared/access/ConfirmedOwner.sol\":298:379  constructor(address newOwner) ConfirmedOwnerWithProposal(newOwner, address(0)) {} */\n  pop\n    /* \"docs.chain.link/samples/APIRequests/ATestnetConsumer1.sol\":1107:1169  _setChainlinkToken(0x0b9d5D9136855f6FEc3c0993feE6E9CE8a297846) */\n  tag_14\n    /* \"docs.chain.link/samples/APIRequests/ATestnetConsumer1.sol\":1126:1168  0x0b9d5D9136855f6FEc3c0993feE6E9CE8a297846 */\n  0x0b9d5d9136855f6fec3c0993fee6e9ce8a297846\n    /* \"docs.chain.link/samples/APIRequests/ATestnetConsumer1.sol\":1107:1125  _setChainlinkToken */\n  shl(0x20, tag_15)\n    /* \"docs.chain.link/samples/APIRequests/ATestnetConsumer1.sol\":1107:1169  _setChainlinkToken(0x0b9d5D9136855f6FEc3c0993feE6E9CE8a297846) */\n  0x20\n  shr\n  jump\t// in\ntag_14:\n    /* \"docs.chain.link/samples/APIRequests/ATestnetConsumer1.sol\":478:3078  contract ATestnetConsumer is ChainlinkClient, ConfirmedOwner {... */\n  jump(tag_16)\n    /* \"@chainlink/contracts@1.2.0/src/v0.8/shared/access/ConfirmedOwnerWithProposal.sol\":1536:1775  function _transferOwnership(address to) private {... */\ntag_11:\n    /* \"@chainlink/contracts@1.2.0/src/v0.8/shared/access/ConfirmedOwnerWithProposal.sol\":1655:1665  msg.sender */\n  caller\n    /* \"@chainlink/contracts@1.2.0/src/v0.8/shared/access/ConfirmedOwnerWithProposal.sol\":1649:1665  to != msg.sender */\n  0xffffffffffffffffffffffffffffffffffffffff\n  and\n    /* \"@chainlink/contracts@1.2.0/src/v0.8/shared/access/ConfirmedOwnerWithProposal.sol\":1649:1651  to */\n  dup2\n    /* \"@chainlink/contracts@1.2.0/src/v0.8/shared/access/ConfirmedOwnerWithProposal.sol\":1649:1665  to != msg.sender */\n  0xffffffffffffffffffffffffffffffffffffffff\n  and\n  sub\n    /* \"@chainlink/contracts@1.2.0/src/v0.8/shared/access/ConfirmedOwnerWithProposal.sol\":1641:1693  require(to != msg.sender, \"Cannot transfer to self\") */\n  tag_18\n  jumpi\n  mload(0x40)\n  0x08c379a000000000000000000000000000000000000000000000000000000000\n  dup2\n  mstore\n  0x04\n  add\n  tag_19\n  swap1\n  tag_20\n  jump\t// in\ntag_19:\n  mload(0x40)\n  dup1\n  swap2\n  sub\n  swap1\n  revert\ntag_18:\n    /* \"@chainlink/contracts@1.2.0/src/v0.8/shared/access/ConfirmedOwnerWithProposal.sol\":1717:1719  to */\n  dup1\n    /* \"@chainlink/contracts@1.2.0/src/v0.8/shared/access/ConfirmedOwnerWithProposal.sol\":1700:1714  s_pendingOwner */\n  0x07\n  0x00\n    /* \"@chainlink/contracts@1.2.0/src/v0.8/shared/access/ConfirmedOwnerWithProposal.sol\":1700:1719  s_pendingOwner = to */\n  0x0100\n  exp\n  dup2\n  sload\n  dup2\n  0xffffffffffffffffffffffffffffffffffffffff\n  mul\n  not\n  and\n  swap1\n  dup4\n  0xffffffffffffffffffffffffffffffffffffffff\n  and\n  mul\n  or\n  swap1\n  sstore\n  pop\n    /* \"@chainlink/contracts@1.2.0/src/v0.8/shared/access/ConfirmedOwnerWithProposal.sol\":1767:1769  to */\n  dup1\n    /* \"@chainlink/contracts@1.2.0/src/v0.8/shared/access/ConfirmedOwnerWithProposal.sol\":1731:1770  OwnershipTransferRequested(s_owner, to) */\n  0xffffffffffffffffffffffffffffffffffffffff\n  and\n    /* \"@chainlink/contracts@1.2.0/src/v0.8/shared/access/ConfirmedOwnerWithProposal.sol\":1758:1765  s_owner */\n  0x06\n  0x00\n  swap1\n  sload\n  swap1\n  0x0100\n  exp\n  swap1\n  div\n  0xffffffffffffffffffffffffffffffffffffffff\n  and\n    /* \"@chainlink/contracts@1.2.0/src/v0.8/shared/access/ConfirmedOwnerWithProposal.sol\":1731:1770  OwnershipTransferRequested(s_owner, to) */\n  0xffffffffffffffffffffffffffffffffffffffff\n  and\n  0xed8889f560326eb138920d842192f0eb3dd22b4f139c87a2c57538e05bae1278\n  mload(0x40)\n  mload(0x40)\n  dup1\n  swap2\n  sub\n  swap1\n  log3\n    /* \"@chainlink/contracts@1.2.0/src/v0.8/shared/access/ConfirmedOwnerWithProposal.sol\":1536:1775  function _transferOwnership(address to) private {... */\n  pop\n  jump\t// out\n    /* \"@chainlink/contracts@1.2.0/src/v0.8/ChainlinkClient.sol\":8849:8958  function _setChainlinkToken(address linkAddress) internal {... */\ntag_15:\n    /* \"@chainlink/contracts@1.2.0/src/v0.8/ChainlinkClient.sol\":8941:8952  linkAddress */\n  dup1\n    /* \"@chainlink/contracts@1.2.0/src/v0.8/ChainlinkClient.sol\":8913:8919  s_link */\n  0x02\n  0x00\n    /* \"@chainlink/contracts@1.2.0/src/v0.8/ChainlinkClient.sol\":8913:8953  s_link = LinkTokenInterface(linkAddress) */\n  0x0100\n  exp\n  dup2\n  sload\n  dup2\n  0xffffffffffffffffffffffffffffffffffffffff\n  mul\n  not\n  and\n  swap1\n  dup4\n  0xffffffffffffffffffffffffffffffffffffffff\n  and\n  mul\n  or\n  swap1\n  sstore\n  pop\n    /* \"@chainlink/contracts@1.2.0/src/v0.8/ChainlinkClient.sol\":8849:8958  function _setChainlinkToken(address linkAddress) internal {... */\n  pop\n  jump\t// out\n    /* \"#utility.yul\":7:176   */\ntag_22:\n    /* \"#utility.yul\":91:102   */\n  0x00\n    /* \"#utility.yul\":125:131   */\n  dup3\n    /* \"#utility.yul\":120:123   */\n  dup3\n    /* \"#utility.yul\":113:132   */\n  mstore\n    /* \"#utility.yul\":165:169   */\n  0x20\n    /* \"#utility.yul\":160:163   */\n  dup3\n    /* \"#utility.yul\":156:170   */\n  add\n    /* \"#utility.yul\":141:170   */\n  swap1\n  pop\n    /* \"#utility.yul\":7:176   */\n  swap3\n  swap2\n  pop\n  pop\n  jump\t// out\n    /* \"#utility.yul\":182:356   */\ntag_23:\n    /* \"#utility.yul\":322:348   */\n  0x43616e6e6f7420736574206f776e657220746f207a65726f0000000000000000\n    /* \"#utility.yul\":318:319   */\n  0x00\n    /* \"#utility.yul\":310:316   */\n  dup3\n    /* \"#utility.yul\":306:320   */\n  add\n    /* \"#utility.yul\":299:349   */\n  mstore\n    /* \"#utility.yul\":182:356   */\n  pop\n  jump\t// out\n    /* \"#utility.yul\":362:728   */\ntag_24:\n    /* \"#utility.yul\":504:507   */\n  0x00\n    /* \"#utility.yul\":525:592   */\n  tag_31\n    /* \"#utility.yul\":589:591   */\n  0x18\n    /* \"#utility.yul\":584:587   */\n  dup4\n    /* \"#utility.yul\":525:592   */\n  tag_22\n  jump\t// in\ntag_31:\n    /* \"#utility.yul\":518:592   */\n  swap2\n  pop\n    /* \"#utility.yul\":601:694   */\n  tag_32\n    /* \"#utility.yul\":690:693   */\n  dup3\n    /* \"#utility.yul\":601:694   */\n  tag_23\n  jump\t// in\ntag_32:\n    /* \"#utility.yul\":719:721   */\n  0x20\n    /* \"#utility.yul\":714:717   */\n  dup3\n    /* \"#utility.yul\":710:722   */\n  add\n    /* \"#utility.yul\":703:722   */\n  swap1\n  pop\n    /* \"#utility.yul\":362:728   */\n  swap2\n  swap1\n  pop\n  jump\t// out\n    /* \"#utility.yul\":734:1153   */\ntag_8:\n    /* \"#utility.yul\":900:904   */\n  0x00\n    /* \"#utility.yul\":938:940   */\n  0x20\n    /* \"#utility.yul\":927:936   */\n  dup3\n    /* \"#utility.yul\":923:941   */\n  add\n    /* \"#utility.yul\":915:941   */\n  swap1\n  pop\n    /* \"#utility.yul\":987:996   */\n  dup2\n    /* \"#utility.yul\":981:985   */\n  dup2\n    /* \"#utility.yul\":977:997   */\n  sub\n    /* \"#utility.yul\":973:974   */\n  0x00\n    /* \"#utility.yul\":962:971   */\n  dup4\n    /* \"#utility.yul\":958:975   */\n  add\n    /* \"#utility.yul\":951:998   */\n  mstore\n    /* \"#utility.yul\":1015:1146   */\n  tag_34\n    /* \"#utility.yul\":1141:1145   */\n  dup2\n    /* \"#utility.yul\":1015:1146   */\n  tag_24\n  jump\t// in\ntag_34:\n    /* \"#utility.yul\":1007:1146   */\n  swap1\n  pop\n    /* \"#utility.yul\":734:1153   */\n  swap2\n  swap1\n  pop\n  jump\t// out\n    /* \"#utility.yul\":1159:1332   */\ntag_25:\n    /* \"#utility.yul\":1299:1324   */\n  0x43616e6e6f74207472616e7366657220746f2073656c66000000000000000000\n    /* \"#utility.yul\":1295:1296   */\n  0x00\n    /* \"#utility.yul\":1287:1293   */\n  dup3\n    /* \"#utility.yul\":1283:1297   */\n  add\n    /* \"#utility.yul\":1276:1325   */\n  mstore\n    /* \"#utility.yul\":1159:1332   */\n  pop\n  jump\t// out\n    /* \"#utility.yul\":1338:1704   */\ntag_26:\n    /* \"#utility.yul\":1480:1483   */\n  0x00\n    /* \"#utility.yul\":1501:1568   */\n  tag_37\n    /* \"#utility.yul\":1565:1567   */\n  0x17\n    /* \"#utility.yul\":1560:1563   */\n  dup4\n    /* \"#utility.yul\":1501:1568   */\n  tag_22\n  jump\t// in\ntag_37:\n    /* \"#utility.yul\":1494:1568   */\n  swap2\n  pop\n    /* \"#utility.yul\":1577:1670   */\n  tag_38\n    /* \"#utility.yul\":1666:1669   */\n  dup3\n    /* \"#utility.yul\":1577:1670   */\n  tag_25\n  jump\t// in\ntag_38:\n    /* \"#utility.yul\":1695:1697   */\n  0x20\n    /* \"#utility.yul\":1690:1693   */\n  dup3\n    /* \"#utility.yul\":1686:1698   */\n  add\n    /* \"#utility.yul\":1679:1698   */\n  swap1\n  pop\n    /* \"#utility.yul\":1338:1704   */\n  swap2\n  swap1\n  pop\n  jump\t// out\n    /* \"#utility.yul\":1710:2129   */\ntag_20:\n    /* \"#utility.yul\":1876:1880   */\n  0x00\n    /* \"#utility.yul\":1914:1916   */\n  0x20\n    /* \"#utility.yul\":1903:1912   */\n  dup3\n    /* \"#utility.yul\":1899:1917   */\n  add\n    /* \"#utility.yul\":1891:1917   */\n  swap1\n  pop\n    /* \"#utility.yul\":1963:1972   */\n  dup2\n    /* \"#utility.yul\":1957:1961   */\n  dup2\n    /* \"#utility.yul\":1953:1973   */\n  sub\n    /* \"#utility.yul\":1949:1950   */\n  0x00\n    /* \"#utility.yul\":1938:1947   */\n  dup4\n    /* \"#utility.yul\":1934:1951   */\n  add\n    /* \"#utility.yul\":1927:1974   */\n  mstore\n    /* \"#utility.yul\":1991:2122   */\n  tag_40\n    /* \"#utility.yul\":2117:2121   */\n  dup2\n    /* \"#utility.yul\":1991:2122   */\n  tag_26\n  jump\t// in\ntag_40:\n    /* \"#utility.yul\":1983:2122   */\n  swap1\n  pop\n    /* \"#utility.yul\":1710:2129   */\n  swap2\n  swap1\n  pop\n  jump\t// out\n    /* \"docs.chain.link/samples/APIRequests/ATestnetConsumer1.sol\":478:3078  contract ATestnetConsumer is ChainlinkClient, ConfirmedOwner {... */\ntag_16:\n  dataSize(sub_0)\n  dup1\n  dataOffset(sub_0)\n  0x00\n  codecopy\n  0x00\n  return\nstop\n\nsub_0: assembly {\n        /* \"docs.chain.link/samples/APIRequests/ATestnetConsumer1.sol\":478:3078  contract ATestnetConsumer is ChainlinkClient, ConfirmedOwner {... */\n      mstore(0x40, 0x80)\n      callvalue\n      dup1\n      iszero\n      tag_1\n      jumpi\n      0x00\n      dup1\n      revert\n    tag_1:\n      pop\n      jumpi(tag_2, lt(calldatasize, 0x04))\n      shr(0xe0, calldataload(0x00))\n      dup1\n      0x92cdaaf3\n      gt\n      tag_12\n      jumpi\n      dup1\n      0x92cdaaf3\n      eq\n      tag_7\n      jumpi\n      dup1\n      0x9d1b464a\n      eq\n      tag_8\n      jumpi\n      dup1\n      0xab643c10\n      eq\n      tag_9\n      jumpi\n      dup1\n      0xec65d0f8\n      eq\n      tag_10\n      jumpi\n      dup1\n      0xf2fde38b\n      eq\n      tag_11\n      jumpi\n      jump(tag_2)\n    tag_12:\n      dup1\n      0x165d35e1\n      eq\n      tag_3\n      jumpi\n      dup1\n      0x79ba5097\n      eq\n      tag_4\n      jumpi\n      dup1\n      0x8da5cb5b\n      eq\n      tag_5\n      jumpi\n      dup1\n      0x8dc654a2\n      eq\n      tag_6\n      jumpi\n    tag_2:\n      0x00\n      dup1\n      revert\n        /* \"docs.chain.link/samples/APIRequests/ATestnetConsumer1.sol\":1998:2105  function getChainlinkToken() public view returns (address) {... */\n    tag_3:\n      tag_13\n      tag_14\n      jump\t// in\n    tag_13:\n      mload(0x40)\n      tag_15\n      swap2\n      swap1\n      tag_16\n      jump\t// in\n    tag_15:\n      mload(0x40)\n      dup1\n      swap2\n      sub\n      swap1\n      return\n        /* \"@chainlink/contracts@1.2.0/src/v0.8/shared/access/ConfirmedOwnerWithProposal.sol\":1026:1342  function acceptOwnership() external override {... */\n    tag_4:\n      tag_17\n      tag_18\n      jump\t// in\n    tag_17:\n      stop\n        /* \"@chainlink/contracts@1.2.0/src/v0.8/shared/access/ConfirmedOwnerWithProposal.sol\":1382:1463  function owner() public view override returns (address) {... */\n    tag_5:\n      tag_19\n      tag_20\n      jump\t// in\n    tag_19:\n      mload(0x40)\n      tag_21\n      swap2\n      swap1\n      tag_16\n      jump\t// in\n    tag_21:\n      mload(0x40)\n      dup1\n      swap2\n      sub\n      swap1\n      return\n        /* \"docs.chain.link/samples/APIRequests/ATestnetConsumer1.sol\":2111:2370  function withdrawLink() public onlyOwner {... */\n    tag_6:\n      tag_22\n      tag_23\n      jump\t// in\n    tag_22:\n      stop\n        /* \"docs.chain.link/samples/APIRequests/ATestnetConsumer1.sol\":1756:1992  function fulfillEthereumPrice(... */\n    tag_7:\n      tag_24\n      0x04\n      dup1\n      calldatasize\n      sub\n      dup2\n      add\n      swap1\n      tag_25\n      swap2\n      swap1\n      tag_26\n      jump\t// in\n    tag_25:\n      tag_27\n      jump\t// in\n    tag_24:\n      stop\n        /* \"docs.chain.link/samples/APIRequests/ATestnetConsumer1.sol\":681:708  uint256 public currentPrice */\n    tag_8:\n      tag_28\n      tag_29\n      jump\t// in\n    tag_28:\n      mload(0x40)\n      tag_30\n      swap2\n      swap1\n      tag_31\n      jump\t// in\n    tag_30:\n      mload(0x40)\n      dup1\n      swap2\n      sub\n      swap1\n      return\n        /* \"docs.chain.link/samples/APIRequests/ATestnetConsumer1.sol\":1182:1750  function requestEthereumPrice(... */\n    tag_9:\n      tag_32\n      0x04\n      dup1\n      calldatasize\n      sub\n      dup2\n      add\n      swap1\n      tag_33\n      swap2\n      swap1\n      tag_34\n      jump\t// in\n    tag_33:\n      tag_35\n      jump\t// in\n    tag_32:\n      stop\n        /* \"docs.chain.link/samples/APIRequests/ATestnetConsumer1.sol\":2376:2695  function cancelRequest(... */\n    tag_10:\n      tag_36\n      0x04\n      dup1\n      calldatasize\n      sub\n      dup2\n      add\n      swap1\n      tag_37\n      swap2\n      swap1\n      tag_38\n      jump\t// in\n    tag_37:\n      tag_39\n      jump\t// in\n    tag_36:\n      stop\n        /* \"@chainlink/contracts@1.2.0/src/v0.8/shared/access/ConfirmedOwnerWithProposal.sol\":847:945  function transferOwnership(address to) public override onlyOwner {... */\n    tag_11:\n      tag_40\n      0x04\n      dup1\n      calldatasize\n      sub\n      dup2\n      add\n      swap1\n      tag_41\n      swap2\n      swap1\n      tag_42\n      jump\t// in\n    tag_41:\n      tag_43\n      jump\t// in\n    tag_40:\n      stop\n        /* \"docs.chain.link/samples/APIRequests/ATestnetConsumer1.sol\":1998:2105  function getChainlinkToken() public view returns (address) {... */\n    tag_14:\n        /* \"docs.chain.link/samples/APIRequests/ATestnetConsumer1.sol\":2048:2055  address */\n      0x00\n        /* \"docs.chain.link/samples/APIRequests/ATestnetConsumer1.sol\":2074:2098  _chainlinkTokenAddress() */\n      tag_45\n        /* \"docs.chain.link/samples/APIRequests/ATestnetConsumer1.sol\":2074:2096  _chainlinkTokenAddress */\n      tag_46\n        /* \"docs.chain.link/samples/APIRequests/ATestnetConsumer1.sol\":2074:2098  _chainlinkTokenAddress() */\n      jump\t// in\n    tag_45:\n        /* \"docs.chain.link/samples/APIRequests/ATestnetConsumer1.sol\":2067:2098  return _chainlinkTokenAddress() */\n      swap1\n      pop\n        /* \"docs.chain.link/samples/APIRequests/ATestnetConsumer1.sol\":1998:2105  function getChainlinkToken() public view returns (address) {... */\n      swap1\n      jump\t// out\n        /* \"@chainlink/contracts@1.2.0/src/v0.8/shared/access/ConfirmedOwnerWithProposal.sol\":1026:1342  function acceptOwnership() external override {... */\n    tag_18:\n        /* \"@chainlink/contracts@1.2.0/src/v0.8/shared/access/ConfirmedOwnerWithProposal.sol\":1150:1164  s_pendingOwner */\n      0x07\n      0x00\n      swap1\n      sload\n      swap1\n      0x0100\n      exp\n      swap1\n      div\n      0xffffffffffffffffffffffffffffffffffffffff\n      and\n        /* \"@chainlink/contracts@1.2.0/src/v0.8/shared/access/ConfirmedOwnerWithProposal.sol\":1136:1164  msg.sender == s_pendingOwner */\n      0xffffffffffffffffffffffffffffffffffffffff\n      and\n        /* \"@chainlink/contracts@1.2.0/src/v0.8/shared/access/ConfirmedOwnerWithProposal.sol\":1136:1146  msg.sender */\n      caller\n        /* \"@chainlink/contracts@1.2.0/src/v0.8/shared/access/ConfirmedOwnerWithProposal.sol\":1136:1164  msg.sender == s_pendingOwner */\n      0xffffffffffffffffffffffffffffffffffffffff\n      and\n      eq\n        /* \"@chainlink/contracts@1.2.0/src/v0.8/shared/access/ConfirmedOwnerWithProposal.sol\":1128:1191  require(msg.sender == s_pendingOwner, \"Must be proposed owner\") */\n      tag_48\n      jumpi\n      mload(0x40)\n      0x08c379a000000000000000000000000000000000000000000000000000000000\n      dup2\n      mstore\n      0x04\n      add\n      tag_49\n      swap1\n      tag_50\n      jump\t// in\n    tag_49:\n      mload(0x40)\n      dup1\n      swap2\n      sub\n      swap1\n      revert\n    tag_48:\n        /* \"@chainlink/contracts@1.2.0/src/v0.8/shared/access/ConfirmedOwnerWithProposal.sol\":1198:1214  address oldOwner */\n      0x00\n        /* \"@chainlink/contracts@1.2.0/src/v0.8/shared/access/ConfirmedOwnerWithProposal.sol\":1217:1224  s_owner */\n      0x06\n      0x00\n      swap1\n      sload\n      swap1\n      0x0100\n      exp\n      swap1\n      div\n      0xffffffffffffffffffffffffffffffffffffffff\n      and\n        /* \"@chainlink/contracts@1.2.0/src/v0.8/shared/access/ConfirmedOwnerWithProposal.sol\":1198:1224  address oldOwner = s_owner */\n      swap1\n      pop\n        /* \"@chainlink/contracts@1.2.0/src/v0.8/shared/access/ConfirmedOwnerWithProposal.sol\":1240:1250  msg.sender */\n      caller\n        /* \"@chainlink/contracts@1.2.0/src/v0.8/shared/access/ConfirmedOwnerWithProposal.sol\":1230:1237  s_owner */\n      0x06\n      0x00\n        /* \"@chainlink/contracts@1.2.0/src/v0.8/shared/access/ConfirmedOwnerWithProposal.sol\":1230:1250  s_owner = msg.sender */\n      0x0100\n      exp\n      dup2\n      sload\n      dup2\n      0xffffffffffffffffffffffffffffffffffffffff\n      mul\n      not\n      and\n      swap1\n      dup4\n      0xffffffffffffffffffffffffffffffffffffffff\n      and\n      mul\n      or\n      swap1\n      sstore\n      pop\n        /* \"@chainlink/contracts@1.2.0/src/v0.8/shared/access/ConfirmedOwnerWithProposal.sol\":1281:1282  0 */\n      0x00\n        /* \"@chainlink/contracts@1.2.0/src/v0.8/shared/access/ConfirmedOwnerWithProposal.sol\":1256:1270  s_pendingOwner */\n      0x07\n      0x00\n        /* \"@chainlink/contracts@1.2.0/src/v0.8/shared/access/ConfirmedOwnerWithProposal.sol\":1256:1283  s_pendingOwner = address(0) */\n      0x0100\n      exp\n      dup2\n      sload\n      dup2\n      0xffffffffffffffffffffffffffffffffffffffff\n      mul\n      not\n      and\n      swap1\n      dup4\n      0xffffffffffffffffffffffffffffffffffffffff\n      and\n      mul\n      or\n      swap1\n      sstore\n      pop\n        /* \"@chainlink/contracts@1.2.0/src/v0.8/shared/access/ConfirmedOwnerWithProposal.sol\":1326:1336  msg.sender */\n      caller\n        /* \"@chainlink/contracts@1.2.0/src/v0.8/shared/access/ConfirmedOwnerWithProposal.sol\":1295:1337  OwnershipTransferred(oldOwner, msg.sender) */\n      0xffffffffffffffffffffffffffffffffffffffff\n      and\n        /* \"@chainlink/contracts@1.2.0/src/v0.8/shared/access/ConfirmedOwnerWithProposal.sol\":1316:1324  oldOwner */\n      dup2\n        /* \"@chainlink/contracts@1.2.0/src/v0.8/shared/access/ConfirmedOwnerWithProposal.sol\":1295:1337  OwnershipTransferred(oldOwner, msg.sender) */\n      0xffffffffffffffffffffffffffffffffffffffff\n      and\n      0x8be0079c531659141344cd1fd0a4f28419497f9722a3daafe3b4186f6b6457e0\n      mload(0x40)\n      mload(0x40)\n      dup1\n      swap2\n      sub\n      swap1\n      log3\n        /* \"@chainlink/contracts@1.2.0/src/v0.8/shared/access/ConfirmedOwnerWithProposal.sol\":1071:1342  {... */\n      pop\n        /* \"@chainlink/contracts@1.2.0/src/v0.8/shared/access/ConfirmedOwnerWithProposal.sol\":1026:1342  function acceptOwnership() external override {... */\n      jump\t// out\n        /* \"@chainlink/contracts@1.2.0/src/v0.8/shared/access/ConfirmedOwnerWithProposal.sol\":1382:1463  function owner() public view override returns (address) {... */\n    tag_20:\n        /* \"@chainlink/contracts@1.2.0/src/v0.8/shared/access/ConfirmedOwnerWithProposal.sol\":1429:1436  address */\n      0x00\n        /* \"@chainlink/contracts@1.2.0/src/v0.8/shared/access/ConfirmedOwnerWithProposal.sol\":1451:1458  s_owner */\n      0x06\n      0x00\n      swap1\n      sload\n      swap1\n      0x0100\n      exp\n      swap1\n      div\n      0xffffffffffffffffffffffffffffffffffffffff\n      and\n        /* \"@chainlink/contracts@1.2.0/src/v0.8/shared/access/ConfirmedOwnerWithProposal.sol\":1444:1458  return s_owner */\n      swap1\n      pop\n        /* \"@chainlink/contracts@1.2.0/src/v0.8/shared/access/ConfirmedOwnerWithProposal.sol\":1382:1463  function owner() public view override returns (address) {... */\n      swap1\n      jump\t// out\n        /* \"docs.chain.link/samples/APIRequests/ATestnetConsumer1.sol\":2111:2370  function withdrawLink() public onlyOwner {... */\n    tag_23:\n        /* \"@chainlink/contracts@1.2.0/src/v0.8/shared/access/ConfirmedOwnerWithProposal.sol\":2075:2095  _validateOwnership() */\n      tag_53\n        /* \"@chainlink/contracts@1.2.0/src/v0.8/shared/access/ConfirmedOwnerWithProposal.sol\":2075:2093  _validateOwnership */\n      tag_54\n        /* \"@chainlink/contracts@1.2.0/src/v0.8/shared/access/ConfirmedOwnerWithProposal.sol\":2075:2095  _validateOwnership() */\n      jump\t// in\n    tag_53:\n        /* \"docs.chain.link/samples/APIRequests/ATestnetConsumer1.sol\":2162:2185  LinkTokenInterface link */\n      0x00\n        /* \"docs.chain.link/samples/APIRequests/ATestnetConsumer1.sol\":2207:2231  _chainlinkTokenAddress() */\n      tag_56\n        /* \"docs.chain.link/samples/APIRequests/ATestnetConsumer1.sol\":2207:2229  _chainlinkTokenAddress */\n      tag_46\n        /* \"docs.chain.link/samples/APIRequests/ATestnetConsumer1.sol\":2207:2231  _chainlinkTokenAddress() */\n      jump\t// in\n    tag_56:\n        /* \"docs.chain.link/samples/APIRequests/ATestnetConsumer1.sol\":2162:2232  LinkTokenInterface link = LinkTokenInterface(_chainlinkTokenAddress()) */\n      swap1\n      pop\n        /* \"docs.chain.link/samples/APIRequests/ATestnetConsumer1.sol\":2263:2267  link */\n      dup1\n        /* \"docs.chain.link/samples/APIRequests/ATestnetConsumer1.sol\":2263:2276  link.transfer */\n      0xffffffffffffffffffffffffffffffffffffffff\n      and\n      0xa9059cbb\n        /* \"docs.chain.link/samples/APIRequests/ATestnetConsumer1.sol\":2277:2287  msg.sender */\n      caller\n        /* \"docs.chain.link/samples/APIRequests/ATestnetConsumer1.sol\":2289:2293  link */\n      dup4\n        /* \"docs.chain.link/samples/APIRequests/ATestnetConsumer1.sol\":2289:2303  link.balanceOf */\n      0xffffffffffffffffffffffffffffffffffffffff\n      and\n      0x70a08231\n        /* \"docs.chain.link/samples/APIRequests/ATestnetConsumer1.sol\":2312:2316  this */\n      address\n        /* \"docs.chain.link/samples/APIRequests/ATestnetConsumer1.sol\":2289:2318  link.balanceOf(address(this)) */\n      mload(0x40)\n      dup3\n      0xffffffff\n      and\n      0xe0\n      shl\n      dup2\n      mstore\n      0x04\n      add\n      tag_57\n      swap2\n      swap1\n      tag_16\n      jump\t// in\n    tag_57:\n      0x20\n      mload(0x40)\n      dup1\n      dup4\n      sub\n      dup2\n      dup7\n      gas\n      staticcall\n      iszero\n      dup1\n      iszero\n      tag_59\n      jumpi\n      returndatasize\n      0x00\n      dup1\n      returndatacopy\n      revert(0x00, returndatasize)\n    tag_59:\n      pop\n      pop\n      pop\n      pop\n      mload(0x40)\n      returndatasize\n      not(0x1f)\n      0x1f\n      dup3\n      add\n      and\n      dup3\n      add\n      dup1\n      0x40\n      mstore\n      pop\n      dup2\n      add\n      swap1\n      tag_60\n      swap2\n      swap1\n      tag_61\n      jump\t// in\n    tag_60:\n        /* \"docs.chain.link/samples/APIRequests/ATestnetConsumer1.sol\":2263:2319  link.transfer(msg.sender, link.balanceOf(address(this))) */\n      mload(0x40)\n      dup4\n      0xffffffff\n      and\n      0xe0\n      shl\n      dup2\n      mstore\n      0x04\n      add\n      tag_62\n      swap3\n      swap2\n      swap1\n      tag_63\n      jump\t// in\n    tag_62:\n      0x20\n      mload(0x40)\n      dup1\n      dup4\n      sub\n      dup2\n      0x00\n      dup8\n      gas\n      call\n      iszero\n      dup1\n      iszero\n      tag_65\n      jumpi\n      returndatasize\n      0x00\n      dup1\n      returndatacopy\n      revert(0x00, returndatasize)\n    tag_65:\n      pop\n      pop\n      pop\n      pop\n      mload(0x40)\n      returndatasize\n      not(0x1f)\n      0x1f\n      dup3\n      add\n      and\n      dup3\n      add\n      dup1\n      0x40\n      mstore\n      pop\n      dup2\n      add\n      swap1\n      tag_66\n      swap2\n      swap1\n      tag_67\n      jump\t// in\n    tag_66:\n        /* \"docs.chain.link/samples/APIRequests/ATestnetConsumer1.sol\":2242:2363  require(... */\n      tag_68\n      jumpi\n      mload(0x40)\n      0x08c379a000000000000000000000000000000000000000000000000000000000\n      dup2\n      mstore\n      0x04\n      add\n      tag_69\n      swap1\n      tag_70\n      jump\t// in\n    tag_69:\n      mload(0x40)\n      dup1\n      swap2\n      sub\n      swap1\n      revert\n    tag_68:\n        /* \"docs.chain.link/samples/APIRequests/ATestnetConsumer1.sol\":2152:2370  {... */\n      pop\n        /* \"docs.chain.link/samples/APIRequests/ATestnetConsumer1.sol\":2111:2370  function withdrawLink() public onlyOwner {... */\n      jump\t// out\n        /* \"docs.chain.link/samples/APIRequests/ATestnetConsumer1.sol\":1756:1992  function fulfillEthereumPrice(... */\n    tag_27:\n        /* \"docs.chain.link/samples/APIRequests/ATestnetConsumer1.sol\":1878:1888  _requestId */\n      dup2\n        /* \"@chainlink/contracts@1.2.0/src/v0.8/ChainlinkClient.sol\":11913:11930  s_pendingRequests */\n      0x05\n        /* \"@chainlink/contracts@1.2.0/src/v0.8/ChainlinkClient.sol\":11913:11941  s_pendingRequests[requestId] */\n      0x00\n        /* \"@chainlink/contracts@1.2.0/src/v0.8/ChainlinkClient.sol\":11931:11940  requestId */\n      dup3\n        /* \"@chainlink/contracts@1.2.0/src/v0.8/ChainlinkClient.sol\":11913:11941  s_pendingRequests[requestId] */\n      dup2\n      mstore\n      0x20\n      add\n      swap1\n      dup2\n      mstore\n      0x20\n      add\n      0x00\n      keccak256\n      0x00\n      swap1\n      sload\n      swap1\n      0x0100\n      exp\n      swap1\n      div\n      0xffffffffffffffffffffffffffffffffffffffff\n      and\n        /* \"@chainlink/contracts@1.2.0/src/v0.8/ChainlinkClient.sol\":11899:11941  msg.sender == s_pendingRequests[requestId] */\n      0xffffffffffffffffffffffffffffffffffffffff\n      and\n        /* \"@chainlink/contracts@1.2.0/src/v0.8/ChainlinkClient.sol\":11899:11909  msg.sender */\n      caller\n        /* \"@chainlink/contracts@1.2.0/src/v0.8/ChainlinkClient.sol\":11899:11941  msg.sender == s_pendingRequests[requestId] */\n      0xffffffffffffffffffffffffffffffffffffffff\n      and\n      eq\n        /* \"@chainlink/contracts@1.2.0/src/v0.8/ChainlinkClient.sol\":11891:11986  require(msg.sender == s_pendingRequests[requestId], \"Source must be the oracle of the request\") */\n      tag_72\n      jumpi\n      mload(0x40)\n      0x08c379a000000000000000000000000000000000000000000000000000000000\n      dup2\n      mstore\n      0x04\n      add\n      tag_73\n      swap1\n      tag_74\n      jump\t// in\n    tag_73:\n      mload(0x40)\n      dup1\n      swap2\n      sub\n      swap1\n      revert\n    tag_72:\n        /* \"@chainlink/contracts@1.2.0/src/v0.8/ChainlinkClient.sol\":11999:12016  s_pendingRequests */\n      0x05\n        /* \"@chainlink/contracts@1.2.0/src/v0.8/ChainlinkClient.sol\":11999:12027  s_pendingRequests[requestId] */\n      0x00\n        /* \"@chainlink/contracts@1.2.0/src/v0.8/ChainlinkClient.sol\":12017:12026  requestId */\n      dup3\n        /* \"@chainlink/contracts@1.2.0/src/v0.8/ChainlinkClient.sol\":11999:12027  s_pendingRequests[requestId] */\n      dup2\n      mstore\n      0x20\n      add\n      swap1\n      dup2\n      mstore\n      0x20\n      add\n      0x00\n      keccak256\n      0x00\n        /* \"@chainlink/contracts@1.2.0/src/v0.8/ChainlinkClient.sol\":11992:12027  delete s_pendingRequests[requestId] */\n      0x0100\n      exp\n      dup2\n      sload\n      swap1\n      0xffffffffffffffffffffffffffffffffffffffff\n      mul\n      not\n      and\n      swap1\n      sstore\n        /* \"@chainlink/contracts@1.2.0/src/v0.8/ChainlinkClient.sol\":12057:12066  requestId */\n      dup1\n        /* \"@chainlink/contracts@1.2.0/src/v0.8/ChainlinkClient.sol\":12038:12067  ChainlinkFulfilled(requestId) */\n      0x7cc135e0cebb02c3480ae5d74d377283180a2601f8f644edf7987b009316c63a\n      mload(0x40)\n      mload(0x40)\n      dup1\n      swap2\n      sub\n      swap1\n      log2\n        /* \"docs.chain.link/samples/APIRequests/ATestnetConsumer1.sol\":1947:1953  _price */\n      dup2\n        /* \"docs.chain.link/samples/APIRequests/ATestnetConsumer1.sol\":1935:1945  _requestId */\n      dup4\n        /* \"docs.chain.link/samples/APIRequests/ATestnetConsumer1.sol\":1905:1954  RequestEthereumPriceFulfilled(_requestId, _price) */\n      0x794eb9e29f6750ede99e05248d997a9ab9fa23c4a7eaff8afa729080eb7c6428\n      mload(0x40)\n      mload(0x40)\n      dup1\n      swap2\n      sub\n      swap1\n      log3\n        /* \"docs.chain.link/samples/APIRequests/ATestnetConsumer1.sol\":1979:1985  _price */\n      dup2\n        /* \"docs.chain.link/samples/APIRequests/ATestnetConsumer1.sol\":1964:1976  currentPrice */\n      0x08\n        /* \"docs.chain.link/samples/APIRequests/ATestnetConsumer1.sol\":1964:1985  currentPrice = _price */\n      dup2\n      swap1\n      sstore\n      pop\n        /* \"docs.chain.link/samples/APIRequests/ATestnetConsumer1.sol\":1756:1992  function fulfillEthereumPrice(... */\n      pop\n      pop\n      pop\n      jump\t// out\n        /* \"docs.chain.link/samples/APIRequests/ATestnetConsumer1.sol\":681:708  uint256 public currentPrice */\n    tag_29:\n      sload(0x08)\n      dup2\n      jump\t// out\n        /* \"docs.chain.link/samples/APIRequests/ATestnetConsumer1.sol\":1182:1750  function requestEthereumPrice(... */\n    tag_35:\n        /* \"@chainlink/contracts@1.2.0/src/v0.8/shared/access/ConfirmedOwnerWithProposal.sol\":2075:2095  _validateOwnership() */\n      tag_77\n        /* \"@chainlink/contracts@1.2.0/src/v0.8/shared/access/ConfirmedOwnerWithProposal.sol\":2075:2093  _validateOwnership */\n      tag_54\n        /* \"@chainlink/contracts@1.2.0/src/v0.8/shared/access/ConfirmedOwnerWithProposal.sol\":2075:2095  _validateOwnership() */\n      jump\t// in\n    tag_77:\n        /* \"docs.chain.link/samples/APIRequests/ATestnetConsumer1.sol\":1300:1328  Chainlink.Request memory req */\n      0x00\n        /* \"docs.chain.link/samples/APIRequests/ATestnetConsumer1.sol\":1331:1475  _buildChainlinkRequest(... */\n      tag_79\n        /* \"docs.chain.link/samples/APIRequests/ATestnetConsumer1.sol\":1367:1390  stringToBytes32(_jobId) */\n      tag_80\n        /* \"docs.chain.link/samples/APIRequests/ATestnetConsumer1.sol\":1383:1389  _jobId */\n      dup4\n        /* \"docs.chain.link/samples/APIRequests/ATestnetConsumer1.sol\":1367:1382  stringToBytes32 */\n      tag_81\n        /* \"docs.chain.link/samples/APIRequests/ATestnetConsumer1.sol\":1367:1390  stringToBytes32(_jobId) */\n      jump\t// in\n    tag_80:\n        /* \"docs.chain.link/samples/APIRequests/ATestnetConsumer1.sol\":1412:1416  this */\n      address\n        /* \"docs.chain.link/samples/APIRequests/ATestnetConsumer1.sol\":1431:1465  this.fulfillEthereumPrice.selector */\n      shl(0xe0, 0x92cdaaf3)\n        /* \"docs.chain.link/samples/APIRequests/ATestnetConsumer1.sol\":1331:1353  _buildChainlinkRequest */\n      tag_82\n        /* \"docs.chain.link/samples/APIRequests/ATestnetConsumer1.sol\":1331:1475  _buildChainlinkRequest(... */\n      jump\t// in\n    tag_79:\n        /* \"docs.chain.link/samples/APIRequests/ATestnetConsumer1.sol\":1300:1475  Chainlink.Request memory req = _buildChainlinkRequest(... */\n      swap1\n      pop\n        /* \"docs.chain.link/samples/APIRequests/ATestnetConsumer1.sol\":1485:1590  req._add(... */\n      tag_83\n      mload(0x40)\n      dup1\n      0x40\n      add\n      0x40\n      mstore\n      dup1\n      0x03\n      dup2\n      mstore\n      0x20\n      add\n      0x6765740000000000000000000000000000000000000000000000000000000000\n      dup2\n      mstore\n      pop\n      mload(0x40)\n      dup1\n      0x60\n      add\n      0x40\n      mstore\n      dup1\n      0x34\n      dup2\n      mstore\n      0x20\n      add\n      data_e40f56f7fa1aa05a509887d91f86ee0b3ba47821e3c25328913bff9d8f16041c\n      0x34\n      swap2\n      codecopy\n        /* \"docs.chain.link/samples/APIRequests/ATestnetConsumer1.sol\":1485:1488  req */\n      dup4\n        /* \"docs.chain.link/samples/APIRequests/ATestnetConsumer1.sol\":1485:1493  req._add */\n      tag_84\n      swap1\n        /* \"docs.chain.link/samples/APIRequests/ATestnetConsumer1.sol\":1485:1590  req._add(... */\n      swap3\n      swap2\n      swap1\n      0xffffffff\n      and\n      jump\t// in\n    tag_83:\n        /* \"docs.chain.link/samples/APIRequests/ATestnetConsumer1.sol\":1600:1647  req._add(\"path\", \"0,odpt:trainInformationText\") */\n      tag_85\n      mload(0x40)\n      dup1\n      0x40\n      add\n      0x40\n      mstore\n      dup1\n      0x04\n      dup2\n      mstore\n      0x20\n      add\n      0x7061746800000000000000000000000000000000000000000000000000000000\n      dup2\n      mstore\n      pop\n      mload(0x40)\n      dup1\n      0x40\n      add\n      0x40\n      mstore\n      dup1\n      0x1b\n      dup2\n      mstore\n      0x20\n      add\n      0x302c6f6470743a747261696e496e666f726d6174696f6e546578740000000000\n      dup2\n      mstore\n      pop\n        /* \"docs.chain.link/samples/APIRequests/ATestnetConsumer1.sol\":1600:1603  req */\n      dup4\n        /* \"docs.chain.link/samples/APIRequests/ATestnetConsumer1.sol\":1600:1608  req._add */\n      tag_84\n      swap1\n        /* \"docs.chain.link/samples/APIRequests/ATestnetConsumer1.sol\":1600:1647  req._add(\"path\", \"0,odpt:trainInformationText\") */\n      swap3\n      swap2\n      swap1\n      0xffffffff\n      and\n      jump\t// in\n    tag_85:\n        /* \"docs.chain.link/samples/APIRequests/ATestnetConsumer1.sol\":1657:1680  req._addInt(\"times\", 1) */\n      tag_86\n      mload(0x40)\n      dup1\n      0x40\n      add\n      0x40\n      mstore\n      dup1\n      0x05\n      dup2\n      mstore\n      0x20\n      add\n      0x74696d6573000000000000000000000000000000000000000000000000000000\n      dup2\n      mstore\n      pop\n        /* \"docs.chain.link/samples/APIRequests/ATestnetConsumer1.sol\":1678:1679  1 */\n      0x01\n        /* \"docs.chain.link/samples/APIRequests/ATestnetConsumer1.sol\":1657:1660  req */\n      dup4\n        /* \"docs.chain.link/samples/APIRequests/ATestnetConsumer1.sol\":1657:1668  req._addInt */\n      tag_87\n      swap1\n        /* \"docs.chain.link/samples/APIRequests/ATestnetConsumer1.sol\":1657:1680  req._addInt(\"times\", 1) */\n      swap3\n      swap2\n      swap1\n      0xffffffff\n      and\n      jump\t// in\n    tag_86:\n        /* \"docs.chain.link/samples/APIRequests/ATestnetConsumer1.sol\":1690:1743  _sendChainlinkRequestTo(_oracle, req, ORACLE_PAYMENT) */\n      tag_88\n        /* \"docs.chain.link/samples/APIRequests/ATestnetConsumer1.sol\":1714:1721  _oracle */\n      dup4\n        /* \"docs.chain.link/samples/APIRequests/ATestnetConsumer1.sol\":1723:1726  req */\n      dup3\n        /* \"docs.chain.link/samples/APIRequests/ATestnetConsumer1.sol\":657:659  10 */\n      0x0a\n        /* \"@chainlink/contracts@1.2.0/src/v0.8/ChainlinkClient.sol\":864:872  10 ** 18 */\n      0x0de0b6b3a7640000\n        /* \"docs.chain.link/samples/APIRequests/ATestnetConsumer1.sol\":632:633  1 */\n      0x01\n        /* \"docs.chain.link/samples/APIRequests/ATestnetConsumer1.sol\":632:653  1 * LINK_DIVISIBILITY */\n      tag_89\n      swap2\n      swap1\n      tag_90\n      jump\t// in\n    tag_89:\n        /* \"docs.chain.link/samples/APIRequests/ATestnetConsumer1.sol\":631:659  (1 * LINK_DIVISIBILITY) / 10 */\n      tag_91\n      swap2\n      swap1\n      tag_92\n      jump\t// in\n    tag_91:\n        /* \"docs.chain.link/samples/APIRequests/ATestnetConsumer1.sol\":1690:1713  _sendChainlinkRequestTo */\n      tag_93\n        /* \"docs.chain.link/samples/APIRequests/ATestnetConsumer1.sol\":1690:1743  _sendChainlinkRequestTo(_oracle, req, ORACLE_PAYMENT) */\n      jump\t// in\n    tag_88:\n      pop\n        /* \"docs.chain.link/samples/APIRequests/ATestnetConsumer1.sol\":1290:1750  {... */\n      pop\n        /* \"docs.chain.link/samples/APIRequests/ATestnetConsumer1.sol\":1182:1750  function requestEthereumPrice(... */\n      pop\n      pop\n      jump\t// out\n        /* \"docs.chain.link/samples/APIRequests/ATestnetConsumer1.sol\":2376:2695  function cancelRequest(... */\n    tag_39:\n        /* \"@chainlink/contracts@1.2.0/src/v0.8/shared/access/ConfirmedOwnerWithProposal.sol\":2075:2095  _validateOwnership() */\n      tag_95\n        /* \"@chainlink/contracts@1.2.0/src/v0.8/shared/access/ConfirmedOwnerWithProposal.sol\":2075:2093  _validateOwnership */\n      tag_54\n        /* \"@chainlink/contracts@1.2.0/src/v0.8/shared/access/ConfirmedOwnerWithProposal.sol\":2075:2095  _validateOwnership() */\n      jump\t// in\n    tag_95:\n        /* \"docs.chain.link/samples/APIRequests/ATestnetConsumer1.sol\":2551:2688  _cancelChainlinkRequest(... */\n      tag_97\n        /* \"docs.chain.link/samples/APIRequests/ATestnetConsumer1.sol\":2588:2598  _requestId */\n      dup5\n        /* \"docs.chain.link/samples/APIRequests/ATestnetConsumer1.sol\":2612:2620  _payment */\n      dup5\n        /* \"docs.chain.link/samples/APIRequests/ATestnetConsumer1.sol\":2634:2653  _callbackFunctionId */\n      dup5\n        /* \"docs.chain.link/samples/APIRequests/ATestnetConsumer1.sol\":2667:2678  _expiration */\n      dup5\n        /* \"docs.chain.link/samples/APIRequests/ATestnetConsumer1.sol\":2551:2574  _cancelChainlinkRequest */\n      tag_98\n        /* \"docs.chain.link/samples/APIRequests/ATestnetConsumer1.sol\":2551:2688  _cancelChainlinkRequest(... */\n      jump\t// in\n    tag_97:\n        /* \"docs.chain.link/samples/APIRequests/ATestnetConsumer1.sol\":2376:2695  function cancelRequest(... */\n      pop\n      pop\n      pop\n      pop\n      jump\t// out\n        /* \"@chainlink/contracts@1.2.0/src/v0.8/shared/access/ConfirmedOwnerWithProposal.sol\":847:945  function transferOwnership(address to) public override onlyOwner {... */\n    tag_43:\n        /* \"@chainlink/contracts@1.2.0/src/v0.8/shared/access/ConfirmedOwnerWithProposal.sol\":2075:2095  _validateOwnership() */\n      tag_100\n        /* \"@chainlink/contracts@1.2.0/src/v0.8/shared/access/ConfirmedOwnerWithProposal.sol\":2075:2093  _validateOwnership */\n      tag_54\n        /* \"@chainlink/contracts@1.2.0/src/v0.8/shared/access/ConfirmedOwnerWithProposal.sol\":2075:2095  _validateOwnership() */\n      jump\t// in\n    tag_100:\n        /* \"@chainlink/contracts@1.2.0/src/v0.8/shared/access/ConfirmedOwnerWithProposal.sol\":918:940  _transferOwnership(to) */\n      tag_102\n        /* \"@chainlink/contracts@1.2.0/src/v0.8/shared/access/ConfirmedOwnerWithProposal.sol\":937:939  to */\n      dup2\n        /* \"@chainlink/contracts@1.2.0/src/v0.8/shared/access/ConfirmedOwnerWithProposal.sol\":918:936  _transferOwnership */\n      tag_103\n        /* \"@chainlink/contracts@1.2.0/src/v0.8/shared/access/ConfirmedOwnerWithProposal.sol\":918:940  _transferOwnership(to) */\n      jump\t// in\n    tag_102:\n        /* \"@chainlink/contracts@1.2.0/src/v0.8/shared/access/ConfirmedOwnerWithProposal.sol\":847:945  function transferOwnership(address to) public override onlyOwner {... */\n      pop\n      jump\t// out\n        /* \"@chainlink/contracts@1.2.0/src/v0.8/ChainlinkClient.sol\":9325:9424  function _chainlinkTokenAddress() internal view returns (address) {... */\n    tag_46:\n        /* \"@chainlink/contracts@1.2.0/src/v0.8/ChainlinkClient.sol\":9382:9389  address */\n      0x00\n        /* \"@chainlink/contracts@1.2.0/src/v0.8/ChainlinkClient.sol\":9412:9418  s_link */\n      0x02\n      0x00\n      swap1\n      sload\n      swap1\n      0x0100\n      exp\n      swap1\n      div\n      0xffffffffffffffffffffffffffffffffffffffff\n      and\n        /* \"@chainlink/contracts@1.2.0/src/v0.8/ChainlinkClient.sol\":9397:9419  return address(s_link) */\n      swap1\n      pop\n        /* \"@chainlink/contracts@1.2.0/src/v0.8/ChainlinkClient.sol\":9325:9424  function _chainlinkTokenAddress() internal view returns (address) {... */\n      swap1\n      jump\t// out\n        /* \"@chainlink/contracts@1.2.0/src/v0.8/shared/access/ConfirmedOwnerWithProposal.sol\":1809:1971  function _validateOwnership() internal view {... */\n    tag_54:\n        /* \"@chainlink/contracts@1.2.0/src/v0.8/shared/access/ConfirmedOwnerWithProposal.sol\":1932:1939  s_owner */\n      0x06\n      0x00\n      swap1\n      sload\n      swap1\n      0x0100\n      exp\n      swap1\n      div\n      0xffffffffffffffffffffffffffffffffffffffff\n      and\n        /* \"@chainlink/contracts@1.2.0/src/v0.8/shared/access/ConfirmedOwnerWithProposal.sol\":1918:1939  msg.sender == s_owner */\n      0xffffffffffffffffffffffffffffffffffffffff\n      and\n        /* \"@chainlink/contracts@1.2.0/src/v0.8/shared/access/ConfirmedOwnerWithProposal.sol\":1918:1928  msg.sender */\n      caller\n        /* \"@chainlink/contracts@1.2.0/src/v0.8/shared/access/ConfirmedOwnerWithProposal.sol\":1918:1939  msg.sender == s_owner */\n      0xffffffffffffffffffffffffffffffffffffffff\n      and\n      eq\n        /* \"@chainlink/contracts@1.2.0/src/v0.8/shared/access/ConfirmedOwnerWithProposal.sol\":1910:1966  require(msg.sender == s_owner, \"Only callable by owner\") */\n      tag_106\n      jumpi\n      mload(0x40)\n      0x08c379a000000000000000000000000000000000000000000000000000000000\n      dup2\n      mstore\n      0x04\n      add\n      tag_107\n      swap1\n      tag_108\n      jump\t// in\n    tag_107:\n      mload(0x40)\n      dup1\n      swap2\n      sub\n      swap1\n      revert\n    tag_106:\n        /* \"@chainlink/contracts@1.2.0/src/v0.8/shared/access/ConfirmedOwnerWithProposal.sol\":1809:1971  function _validateOwnership() internal view {... */\n      jump\t// out\n        /* \"docs.chain.link/samples/APIRequests/ATestnetConsumer1.sol\":2701:3076  function stringToBytes32(... */\n    tag_81:\n        /* \"docs.chain.link/samples/APIRequests/ATestnetConsumer1.sol\":2784:2798  bytes32 result */\n      0x00\n        /* \"docs.chain.link/samples/APIRequests/ATestnetConsumer1.sol\":2810:2842  bytes memory tempEmptyStringTest */\n      dup1\n        /* \"docs.chain.link/samples/APIRequests/ATestnetConsumer1.sol\":2851:2857  source */\n      dup3\n        /* \"docs.chain.link/samples/APIRequests/ATestnetConsumer1.sol\":2810:2858  bytes memory tempEmptyStringTest = bytes(source) */\n      swap1\n      pop\n        /* \"docs.chain.link/samples/APIRequests/ATestnetConsumer1.sol\":2902:2903  0 */\n      0x00\n        /* \"docs.chain.link/samples/APIRequests/ATestnetConsumer1.sol\":2872:2891  tempEmptyStringTest */\n      dup2\n        /* \"docs.chain.link/samples/APIRequests/ATestnetConsumer1.sol\":2872:2898  tempEmptyStringTest.length */\n      mload\n        /* \"docs.chain.link/samples/APIRequests/ATestnetConsumer1.sol\":2872:2903  tempEmptyStringTest.length == 0 */\n      sub\n        /* \"docs.chain.link/samples/APIRequests/ATestnetConsumer1.sol\":2868:2940  if (tempEmptyStringTest.length == 0) {... */\n      tag_110\n      jumpi\n        /* \"docs.chain.link/samples/APIRequests/ATestnetConsumer1.sol\":2926:2929  0x0 */\n      0x00\n        /* \"docs.chain.link/samples/APIRequests/ATestnetConsumer1.sol\":2919:2929  return 0x0 */\n      dup1\n      shl\n      swap2\n      pop\n      pop\n      jump(tag_109)\n        /* \"docs.chain.link/samples/APIRequests/ATestnetConsumer1.sol\":2868:2940  if (tempEmptyStringTest.length == 0) {... */\n    tag_110:\n        /* \"docs.chain.link/samples/APIRequests/ATestnetConsumer1.sol\":3056:3058  32 */\n      0x20\n        /* \"docs.chain.link/samples/APIRequests/ATestnetConsumer1.sol\":3048:3054  source */\n      dup4\n        /* \"docs.chain.link/samples/APIRequests/ATestnetConsumer1.sol\":3044:3059  add(source, 32) */\n      add\n        /* \"docs.chain.link/samples/APIRequests/ATestnetConsumer1.sol\":3038:3060  mload(add(source, 32)) */\n      mload\n        /* \"docs.chain.link/samples/APIRequests/ATestnetConsumer1.sol\":3028:3060  result := mload(add(source, 32)) */\n      swap2\n      pop\n        /* \"docs.chain.link/samples/APIRequests/ATestnetConsumer1.sol\":2959:3070  {... */\n      pop\n        /* \"docs.chain.link/samples/APIRequests/ATestnetConsumer1.sol\":2701:3076  function stringToBytes32(... */\n    tag_109:\n      swap2\n      swap1\n      pop\n      jump\t// out\n        /* \"@chainlink/contracts@1.2.0/src/v0.8/ChainlinkClient.sol\":2041:2326  function _buildChainlinkRequest(... */\n    tag_82:\n        /* \"@chainlink/contracts@1.2.0/src/v0.8/ChainlinkClient.sol\":2184:2208  Chainlink.Request memory */\n      tag_111\n      tag_112\n      jump\t// in\n    tag_111:\n        /* \"@chainlink/contracts@1.2.0/src/v0.8/ChainlinkClient.sol\":2216:2244  Chainlink.Request memory req */\n      tag_114\n      tag_112\n      jump\t// in\n    tag_114:\n        /* \"@chainlink/contracts@1.2.0/src/v0.8/ChainlinkClient.sol\":2257:2321  req._initialize(specId, callbackAddr, callbackFunctionSignature) */\n      tag_115\n        /* \"@chainlink/contracts@1.2.0/src/v0.8/ChainlinkClient.sol\":2273:2279  specId */\n      dup6\n        /* \"@chainlink/contracts@1.2.0/src/v0.8/ChainlinkClient.sol\":2281:2293  callbackAddr */\n      dup6\n        /* \"@chainlink/contracts@1.2.0/src/v0.8/ChainlinkClient.sol\":2295:2320  callbackFunctionSignature */\n      dup6\n        /* \"@chainlink/contracts@1.2.0/src/v0.8/ChainlinkClient.sol\":2257:2260  req */\n      dup5\n        /* \"@chainlink/contracts@1.2.0/src/v0.8/ChainlinkClient.sol\":2257:2272  req._initialize */\n      tag_116\n      swap1\n        /* \"@chainlink/contracts@1.2.0/src/v0.8/ChainlinkClient.sol\":2257:2321  req._initialize(specId, callbackAddr, callbackFunctionSignature) */\n      swap4\n      swap3\n      swap2\n      swap1\n      0xffffffff\n      and\n      jump\t// in\n    tag_115:\n        /* \"@chainlink/contracts@1.2.0/src/v0.8/ChainlinkClient.sol\":2250:2321  return req._initialize(specId, callbackAddr, callbackFunctionSignature) */\n      swap2\n      pop\n      pop\n        /* \"@chainlink/contracts@1.2.0/src/v0.8/ChainlinkClient.sol\":2041:2326  function _buildChainlinkRequest(... */\n      swap4\n      swap3\n      pop\n      pop\n      pop\n      jump\t// out\n        /* \"@chainlink/contracts@1.2.0/src/v0.8/Chainlink.sol\":1994:2154  function _add(Request memory self, string memory key, string memory value) internal pure {... */\n    tag_84:\n        /* \"@chainlink/contracts@1.2.0/src/v0.8/Chainlink.sol\":2089:2115  self.buf.encodeString(key) */\n      tag_118\n        /* \"@chainlink/contracts@1.2.0/src/v0.8/Chainlink.sol\":2111:2114  key */\n      dup3\n        /* \"@chainlink/contracts@1.2.0/src/v0.8/Chainlink.sol\":2089:2093  self */\n      dup5\n        /* \"@chainlink/contracts@1.2.0/src/v0.8/Chainlink.sol\":2089:2097  self.buf */\n      0x80\n      add\n      mload\n        /* \"@chainlink/contracts@1.2.0/src/v0.8/Chainlink.sol\":2089:2110  self.buf.encodeString */\n      tag_119\n      swap1\n        /* \"@chainlink/contracts@1.2.0/src/v0.8/Chainlink.sol\":2089:2115  self.buf.encodeString(key) */\n      swap2\n      swap1\n      0xffffffff\n      and\n      jump\t// in\n    tag_118:\n        /* \"@chainlink/contracts@1.2.0/src/v0.8/Chainlink.sol\":2121:2149  self.buf.encodeString(value) */\n      tag_120\n        /* \"@chainlink/contracts@1.2.0/src/v0.8/Chainlink.sol\":2143:2148  value */\n      dup2\n        /* \"@chainlink/contracts@1.2.0/src/v0.8/Chainlink.sol\":2121:2125  self */\n      dup5\n        /* \"@chainlink/contracts@1.2.0/src/v0.8/Chainlink.sol\":2121:2129  self.buf */\n      0x80\n      add\n      mload\n        /* \"@chainlink/contracts@1.2.0/src/v0.8/Chainlink.sol\":2121:2142  self.buf.encodeString */\n      tag_119\n      swap1\n        /* \"@chainlink/contracts@1.2.0/src/v0.8/Chainlink.sol\":2121:2149  self.buf.encodeString(value) */\n      swap2\n      swap1\n      0xffffffff\n      and\n      jump\t// in\n    tag_120:\n        /* \"@chainlink/contracts@1.2.0/src/v0.8/Chainlink.sol\":1994:2154  function _add(Request memory self, string memory key, string memory value) internal pure {... */\n      pop\n      pop\n      pop\n      jump\t// out\n        /* \"@chainlink/contracts@1.2.0/src/v0.8/Chainlink.sol\":2725:2878  function _addInt(Request memory self, string memory key, int256 value) internal pure {... */\n    tag_87:\n        /* \"@chainlink/contracts@1.2.0/src/v0.8/Chainlink.sol\":2816:2842  self.buf.encodeString(key) */\n      tag_122\n        /* \"@chainlink/contracts@1.2.0/src/v0.8/Chainlink.sol\":2838:2841  key */\n      dup3\n        /* \"@chainlink/contracts@1.2.0/src/v0.8/Chainlink.sol\":2816:2820  self */\n      dup5\n        /* \"@chainlink/contracts@1.2.0/src/v0.8/Chainlink.sol\":2816:2824  self.buf */\n      0x80\n      add\n      mload\n        /* \"@chainlink/contracts@1.2.0/src/v0.8/Chainlink.sol\":2816:2837  self.buf.encodeString */\n      tag_119\n      swap1\n        /* \"@chainlink/contracts@1.2.0/src/v0.8/Chainlink.sol\":2816:2842  self.buf.encodeString(key) */\n      swap2\n      swap1\n      0xffffffff\n      and\n      jump\t// in\n    tag_122:\n        /* \"@chainlink/contracts@1.2.0/src/v0.8/Chainlink.sol\":2848:2873  self.buf.encodeInt(value) */\n      tag_123\n        /* \"@chainlink/contracts@1.2.0/src/v0.8/Chainlink.sol\":2867:2872  value */\n      dup2\n        /* \"@chainlink/contracts@1.2.0/src/v0.8/Chainlink.sol\":2848:2852  self */\n      dup5\n        /* \"@chainlink/contracts@1.2.0/src/v0.8/Chainlink.sol\":2848:2856  self.buf */\n      0x80\n      add\n      mload\n        /* \"@chainlink/contracts@1.2.0/src/v0.8/Chainlink.sol\":2848:2866  self.buf.encodeInt */\n      tag_124\n      swap1\n        /* \"@chainlink/contracts@1.2.0/src/v0.8/Chainlink.sol\":2848:2873  self.buf.encodeInt(value) */\n      swap2\n      swap1\n      0xffffffff\n      and\n      jump\t// in\n    tag_123:\n        /* \"@chainlink/contracts@1.2.0/src/v0.8/Chainlink.sol\":2725:2878  function _addInt(Request memory self, string memory key, int256 value) internal pure {... */\n      pop\n      pop\n      pop\n      jump\t// out\n        /* \"@chainlink/contracts@1.2.0/src/v0.8/ChainlinkClient.sol\":3882:4639  function _sendChainlinkRequestTo(... */\n    tag_93:\n        /* \"@chainlink/contracts@1.2.0/src/v0.8/ChainlinkClient.sol\":4019:4036  bytes32 requestId */\n      0x00\n        /* \"@chainlink/contracts@1.2.0/src/v0.8/ChainlinkClient.sol\":4044:4057  uint256 nonce */\n      dup1\n        /* \"@chainlink/contracts@1.2.0/src/v0.8/ChainlinkClient.sol\":4060:4074  s_requestCount */\n      sload(0x04)\n        /* \"@chainlink/contracts@1.2.0/src/v0.8/ChainlinkClient.sol\":4044:4074  uint256 nonce = s_requestCount */\n      swap1\n      pop\n        /* \"@chainlink/contracts@1.2.0/src/v0.8/ChainlinkClient.sol\":4105:4106  1 */\n      0x01\n        /* \"@chainlink/contracts@1.2.0/src/v0.8/ChainlinkClient.sol\":4097:4102  nonce */\n      dup2\n        /* \"@chainlink/contracts@1.2.0/src/v0.8/ChainlinkClient.sol\":4097:4106  nonce + 1 */\n      tag_126\n      swap2\n      swap1\n      tag_127\n      jump\t// in\n    tag_126:\n        /* \"@chainlink/contracts@1.2.0/src/v0.8/ChainlinkClient.sol\":4080:4094  s_requestCount */\n      0x04\n        /* \"@chainlink/contracts@1.2.0/src/v0.8/ChainlinkClient.sol\":4080:4106  s_requestCount = nonce + 1 */\n      dup2\n      swap1\n      sstore\n      pop\n        /* \"@chainlink/contracts@1.2.0/src/v0.8/ChainlinkClient.sol\":4112:4139  bytes memory encodedRequest */\n      0x00\n        /* \"@chainlink/contracts@1.2.0/src/v0.8/ChainlinkClient.sol\":4172:4220  ChainlinkRequestInterface.oracleRequest.selector */\n      shl(0xe0, 0x40429946)\n        /* \"@chainlink/contracts@1.2.0/src/v0.8/ChainlinkClient.sol\":975:976  0 */\n      0x00\n        /* \"@chainlink/contracts@1.2.0/src/v0.8/ChainlinkClient.sol\":919:920  0 */\n      dup1\n        /* \"@chainlink/contracts@1.2.0/src/v0.8/ChainlinkClient.sol\":4441:4444  req */\n      dup8\n        /* \"@chainlink/contracts@1.2.0/src/v0.8/ChainlinkClient.sol\":4441:4447  req.id */\n      0x00\n      add\n      mload\n        /* \"@chainlink/contracts@1.2.0/src/v0.8/ChainlinkClient.sol\":4463:4467  this */\n      address\n        /* \"@chainlink/contracts@1.2.0/src/v0.8/ChainlinkClient.sol\":4476:4479  req */\n      dup10\n        /* \"@chainlink/contracts@1.2.0/src/v0.8/ChainlinkClient.sol\":4476:4498  req.callbackFunctionId */\n      0x40\n      add\n      mload\n        /* \"@chainlink/contracts@1.2.0/src/v0.8/ChainlinkClient.sol\":4506:4511  nonce */\n      dup8\n        /* \"@chainlink/contracts@1.2.0/src/v0.8/ChainlinkClient.sol\":1028:1029  1 */\n      0x01\n        /* \"@chainlink/contracts@1.2.0/src/v0.8/ChainlinkClient.sol\":4546:4549  req */\n      dup13\n        /* \"@chainlink/contracts@1.2.0/src/v0.8/ChainlinkClient.sol\":4546:4553  req.buf */\n      0x80\n      add\n      mload\n        /* \"@chainlink/contracts@1.2.0/src/v0.8/ChainlinkClient.sol\":4546:4557  req.buf.buf */\n      0x00\n      add\n      mload\n        /* \"@chainlink/contracts@1.2.0/src/v0.8/ChainlinkClient.sol\":4142:4563  abi.encodeWithSelector(... */\n      add(0x24, mload(0x40))\n      tag_128\n      swap9\n      swap8\n      swap7\n      swap6\n      swap5\n      swap4\n      swap3\n      swap2\n      swap1\n      tag_129\n      jump\t// in\n    tag_128:\n      mload(0x40)\n      0x20\n      dup2\n      dup4\n      sub\n      sub\n      dup2\n      mstore\n      swap1\n      0x40\n      mstore\n      swap1\n      not(0xffffffffffffffffffffffffffffffffffffffffffffffffffffffff)\n      and\n      0x20\n      dup3\n      add\n      dup1\n      mload\n      0xffffffffffffffffffffffffffffffffffffffffffffffffffffffff\n      dup4\n      dup2\n      dup4\n      and\n      or\n      dup4\n      mstore\n      pop\n      pop\n      pop\n      pop\n        /* \"@chainlink/contracts@1.2.0/src/v0.8/ChainlinkClient.sol\":4112:4563  bytes memory encodedRequest = abi.encodeWithSelector(... */\n      swap1\n      pop\n        /* \"@chainlink/contracts@1.2.0/src/v0.8/ChainlinkClient.sol\":4576:4634  _rawRequest(oracleAddress, nonce, payment, encodedRequest) */\n      tag_130\n        /* \"@chainlink/contracts@1.2.0/src/v0.8/ChainlinkClient.sol\":4588:4601  oracleAddress */\n      dup7\n        /* \"@chainlink/contracts@1.2.0/src/v0.8/ChainlinkClient.sol\":4603:4608  nonce */\n      dup4\n        /* \"@chainlink/contracts@1.2.0/src/v0.8/ChainlinkClient.sol\":4610:4617  payment */\n      dup7\n        /* \"@chainlink/contracts@1.2.0/src/v0.8/ChainlinkClient.sol\":4619:4633  encodedRequest */\n      dup5\n        /* \"@chainlink/contracts@1.2.0/src/v0.8/ChainlinkClient.sol\":4576:4587  _rawRequest */\n      tag_131\n        /* \"@chainlink/contracts@1.2.0/src/v0.8/ChainlinkClient.sol\":4576:4634  _rawRequest(oracleAddress, nonce, payment, encodedRequest) */\n      jump\t// in\n    tag_130:\n        /* \"@chainlink/contracts@1.2.0/src/v0.8/ChainlinkClient.sol\":4569:4634  return _rawRequest(oracleAddress, nonce, payment, encodedRequest) */\n      swap3\n      pop\n      pop\n      pop\n        /* \"@chainlink/contracts@1.2.0/src/v0.8/ChainlinkClient.sol\":3882:4639  function _sendChainlinkRequestTo(... */\n      swap4\n      swap3\n      pop\n      pop\n      pop\n      jump\t// out\n        /* \"@chainlink/contracts@1.2.0/src/v0.8/ChainlinkClient.sol\":7796:8185  function _cancelChainlinkRequest(... */\n    tag_98:\n        /* \"@chainlink/contracts@1.2.0/src/v0.8/ChainlinkClient.sol\":7941:7968  OperatorInterface requested */\n      0x00\n        /* \"@chainlink/contracts@1.2.0/src/v0.8/ChainlinkClient.sol\":7989:8006  s_pendingRequests */\n      0x05\n        /* \"@chainlink/contracts@1.2.0/src/v0.8/ChainlinkClient.sol\":7989:8017  s_pendingRequests[requestId] */\n      0x00\n        /* \"@chainlink/contracts@1.2.0/src/v0.8/ChainlinkClient.sol\":8007:8016  requestId */\n      dup7\n        /* \"@chainlink/contracts@1.2.0/src/v0.8/ChainlinkClient.sol\":7989:8017  s_pendingRequests[requestId] */\n      dup2\n      mstore\n      0x20\n      add\n      swap1\n      dup2\n      mstore\n      0x20\n      add\n      0x00\n      keccak256\n      0x00\n      swap1\n      sload\n      swap1\n      0x0100\n      exp\n      swap1\n      div\n      0xffffffffffffffffffffffffffffffffffffffff\n      and\n        /* \"@chainlink/contracts@1.2.0/src/v0.8/ChainlinkClient.sol\":7941:8018  OperatorInterface requested = OperatorInterface(s_pendingRequests[requestId]) */\n      swap1\n      pop\n        /* \"@chainlink/contracts@1.2.0/src/v0.8/ChainlinkClient.sol\":8031:8048  s_pendingRequests */\n      0x05\n        /* \"@chainlink/contracts@1.2.0/src/v0.8/ChainlinkClient.sol\":8031:8059  s_pendingRequests[requestId] */\n      0x00\n        /* \"@chainlink/contracts@1.2.0/src/v0.8/ChainlinkClient.sol\":8049:8058  requestId */\n      dup7\n        /* \"@chainlink/contracts@1.2.0/src/v0.8/ChainlinkClient.sol\":8031:8059  s_pendingRequests[requestId] */\n      dup2\n      mstore\n      0x20\n      add\n      swap1\n      dup2\n      mstore\n      0x20\n      add\n      0x00\n      keccak256\n      0x00\n        /* \"@chainlink/contracts@1.2.0/src/v0.8/ChainlinkClient.sol\":8024:8059  delete s_pendingRequests[requestId] */\n      0x0100\n      exp\n      dup2\n      sload\n      swap1\n      0xffffffffffffffffffffffffffffffffffffffff\n      mul\n      not\n      and\n      swap1\n      sstore\n        /* \"@chainlink/contracts@1.2.0/src/v0.8/ChainlinkClient.sol\":8089:8098  requestId */\n      dup5\n        /* \"@chainlink/contracts@1.2.0/src/v0.8/ChainlinkClient.sol\":8070:8099  ChainlinkCancelled(requestId) */\n      0xe1fe3afa0f7f761ff0a8b89086790efd5140d2907ebd5b7ff6bfcb5e075fd4c5\n      mload(0x40)\n      mload(0x40)\n      dup1\n      swap2\n      sub\n      swap1\n      log2\n        /* \"@chainlink/contracts@1.2.0/src/v0.8/ChainlinkClient.sol\":8105:8114  requested */\n      dup1\n        /* \"@chainlink/contracts@1.2.0/src/v0.8/ChainlinkClient.sol\":8105:8134  requested.cancelOracleRequest */\n      0xffffffffffffffffffffffffffffffffffffffff\n      and\n      0x6ee4d553\n        /* \"@chainlink/contracts@1.2.0/src/v0.8/ChainlinkClient.sol\":8135:8144  requestId */\n      dup7\n        /* \"@chainlink/contracts@1.2.0/src/v0.8/ChainlinkClient.sol\":8146:8153  payment */\n      dup7\n        /* \"@chainlink/contracts@1.2.0/src/v0.8/ChainlinkClient.sol\":8155:8167  callbackFunc */\n      dup7\n        /* \"@chainlink/contracts@1.2.0/src/v0.8/ChainlinkClient.sol\":8169:8179  expiration */\n      dup7\n        /* \"@chainlink/contracts@1.2.0/src/v0.8/ChainlinkClient.sol\":8105:8180  requested.cancelOracleRequest(requestId, payment, callbackFunc, expiration) */\n      mload(0x40)\n      dup6\n      0xffffffff\n      and\n      0xe0\n      shl\n      dup2\n      mstore\n      0x04\n      add\n      tag_133\n      swap5\n      swap4\n      swap3\n      swap2\n      swap1\n      tag_134\n      jump\t// in\n    tag_133:\n      0x00\n      mload(0x40)\n      dup1\n      dup4\n      sub\n      dup2\n      0x00\n      dup8\n      dup1\n      extcodesize\n      iszero\n      dup1\n      iszero\n      tag_135\n      jumpi\n      0x00\n      dup1\n      revert\n    tag_135:\n      pop\n      gas\n      call\n      iszero\n      dup1\n      iszero\n      tag_137\n      jumpi\n      returndatasize\n      0x00\n      dup1\n      returndatacopy\n      revert(0x00, returndatasize)\n    tag_137:\n      pop\n      pop\n      pop\n      pop\n        /* \"@chainlink/contracts@1.2.0/src/v0.8/ChainlinkClient.sol\":7935:8185  {... */\n      pop\n        /* \"@chainlink/contracts@1.2.0/src/v0.8/ChainlinkClient.sol\":7796:8185  function _cancelChainlinkRequest(... */\n      pop\n      pop\n      pop\n      pop\n      jump\t// out\n        /* \"@chainlink/contracts@1.2.0/src/v0.8/shared/access/ConfirmedOwnerWithProposal.sol\":1536:1775  function _transferOwnership(address to) private {... */\n    tag_103:\n        /* \"@chainlink/contracts@1.2.0/src/v0.8/shared/access/ConfirmedOwnerWithProposal.sol\":1655:1665  msg.sender */\n      caller\n        /* \"@chainlink/contracts@1.2.0/src/v0.8/shared/access/ConfirmedOwnerWithProposal.sol\":1649:1665  to != msg.sender */\n      0xffffffffffffffffffffffffffffffffffffffff\n      and\n        /* \"@chainlink/contracts@1.2.0/src/v0.8/shared/access/ConfirmedOwnerWithProposal.sol\":1649:1651  to */\n      dup2\n        /* \"@chainlink/contracts@1.2.0/src/v0.8/shared/access/ConfirmedOwnerWithProposal.sol\":1649:1665  to != msg.sender */\n      0xffffffffffffffffffffffffffffffffffffffff\n      and\n      sub\n        /* \"@chainlink/contracts@1.2.0/src/v0.8/shared/access/ConfirmedOwnerWithProposal.sol\":1641:1693  require(to != msg.sender, \"Cannot transfer to self\") */\n      tag_139\n      jumpi\n      mload(0x40)\n      0x08c379a000000000000000000000000000000000000000000000000000000000\n      dup2\n      mstore\n      0x04\n      add\n      tag_140\n      swap1\n      tag_141\n      jump\t// in\n    tag_140:\n      mload(0x40)\n      dup1\n      swap2\n      sub\n      swap1\n      revert\n    tag_139:\n        /* \"@chainlink/contracts@1.2.0/src/v0.8/shared/access/ConfirmedOwnerWithProposal.sol\":1717:1719  to */\n      dup1\n        /* \"@chainlink/contracts@1.2.0/src/v0.8/shared/access/ConfirmedOwnerWithProposal.sol\":1700:1714  s_pendingOwner */\n      0x07\n      0x00\n        /* \"@chainlink/contracts@1.2.0/src/v0.8/shared/access/ConfirmedOwnerWithProposal.sol\":1700:1719  s_pendingOwner = to */\n      0x0100\n      exp\n      dup2\n      sload\n      dup2\n      0xffffffffffffffffffffffffffffffffffffffff\n      mul\n      not\n      and\n      swap1\n      dup4\n      0xffffffffffffffffffffffffffffffffffffffff\n      and\n      mul\n      or\n      swap1\n      sstore\n      pop\n        /* \"@chainlink/contracts@1.2.0/src/v0.8/shared/access/ConfirmedOwnerWithProposal.sol\":1767:1769  to */\n      dup1\n        /* \"@chainlink/contracts@1.2.0/src/v0.8/shared/access/ConfirmedOwnerWithProposal.sol\":1731:1770  OwnershipTransferRequested(s_owner, to) */\n      0xffffffffffffffffffffffffffffffffffffffff\n      and\n        /* \"@chainlink/contracts@1.2.0/src/v0.8/shared/access/ConfirmedOwnerWithProposal.sol\":1758:1765  s_owner */\n      0x06\n      0x00\n      swap1\n      sload\n      swap1\n      0x0100\n      exp\n      swap1\n      div\n      0xffffffffffffffffffffffffffffffffffffffff\n      and\n        /* \"@chainlink/contracts@1.2.0/src/v0.8/shared/access/ConfirmedOwnerWithProposal.sol\":1731:1770  OwnershipTransferRequested(s_owner, to) */\n      0xffffffffffffffffffffffffffffffffffffffff\n      and\n      0xed8889f560326eb138920d842192f0eb3dd22b4f139c87a2c57538e05bae1278\n      mload(0x40)\n      mload(0x40)\n      dup1\n      swap2\n      sub\n      swap1\n      log3\n        /* \"@chainlink/contracts@1.2.0/src/v0.8/shared/access/ConfirmedOwnerWithProposal.sol\":1536:1775  function _transferOwnership(address to) private {... */\n      pop\n      jump\t// out\n        /* \"@chainlink/contracts@1.2.0/src/v0.8/Chainlink.sol\":1028:1380  function _initialize(... */\n    tag_116:\n        /* \"@chainlink/contracts@1.2.0/src/v0.8/Chainlink.sol\":1171:1195  Chainlink.Request memory */\n      tag_142\n      tag_112\n      jump\t// in\n    tag_142:\n        /* \"@chainlink/contracts@1.2.0/src/v0.8/Chainlink.sol\":1203:1252  BufferChainlink.init(self.buf, defaultBufferSize) */\n      tag_144\n        /* \"@chainlink/contracts@1.2.0/src/v0.8/Chainlink.sol\":1224:1228  self */\n      dup6\n        /* \"@chainlink/contracts@1.2.0/src/v0.8/Chainlink.sol\":1224:1232  self.buf */\n      0x80\n      add\n      mload\n        /* \"@chainlink/contracts@1.2.0/src/v0.8/Chainlink.sol\":447:450  256 */\n      0x0100\n        /* \"@chainlink/contracts@1.2.0/src/v0.8/Chainlink.sol\":1203:1223  BufferChainlink.init */\n      tag_145\n        /* \"@chainlink/contracts@1.2.0/src/v0.8/Chainlink.sol\":1203:1252  BufferChainlink.init(self.buf, defaultBufferSize) */\n      jump\t// in\n    tag_144:\n      pop\n        /* \"@chainlink/contracts@1.2.0/src/v0.8/Chainlink.sol\":1268:1273  jobId */\n      dup4\n        /* \"@chainlink/contracts@1.2.0/src/v0.8/Chainlink.sol\":1258:1262  self */\n      dup6\n        /* \"@chainlink/contracts@1.2.0/src/v0.8/Chainlink.sol\":1258:1265  self.id */\n      0x00\n      add\n        /* \"@chainlink/contracts@1.2.0/src/v0.8/Chainlink.sol\":1258:1273  self.id = jobId */\n      dup2\n      dup2\n      mstore\n      pop\n      pop\n        /* \"@chainlink/contracts@1.2.0/src/v0.8/Chainlink.sol\":1302:1314  callbackAddr */\n      dup3\n        /* \"@chainlink/contracts@1.2.0/src/v0.8/Chainlink.sol\":1279:1283  self */\n      dup6\n        /* \"@chainlink/contracts@1.2.0/src/v0.8/Chainlink.sol\":1279:1299  self.callbackAddress */\n      0x20\n      add\n        /* \"@chainlink/contracts@1.2.0/src/v0.8/Chainlink.sol\":1279:1314  self.callbackAddress = callbackAddr */\n      swap1\n      0xffffffffffffffffffffffffffffffffffffffff\n      and\n      swap1\n      dup2\n      0xffffffffffffffffffffffffffffffffffffffff\n      and\n      dup2\n      mstore\n      pop\n      pop\n        /* \"@chainlink/contracts@1.2.0/src/v0.8/Chainlink.sol\":1346:1358  callbackFunc */\n      dup2\n        /* \"@chainlink/contracts@1.2.0/src/v0.8/Chainlink.sol\":1320:1324  self */\n      dup6\n        /* \"@chainlink/contracts@1.2.0/src/v0.8/Chainlink.sol\":1320:1343  self.callbackFunctionId */\n      0x40\n      add\n        /* \"@chainlink/contracts@1.2.0/src/v0.8/Chainlink.sol\":1320:1358  self.callbackFunctionId = callbackFunc */\n      swap1\n      not(0xffffffffffffffffffffffffffffffffffffffffffffffffffffffff)\n      and\n      swap1\n      dup2\n      not(0xffffffffffffffffffffffffffffffffffffffffffffffffffffffff)\n      and\n      dup2\n      mstore\n      pop\n      pop\n        /* \"@chainlink/contracts@1.2.0/src/v0.8/Chainlink.sol\":1371:1375  self */\n      dup5\n        /* \"@chainlink/contracts@1.2.0/src/v0.8/Chainlink.sol\":1364:1375  return self */\n      swap1\n      pop\n        /* \"@chainlink/contracts@1.2.0/src/v0.8/Chainlink.sol\":1028:1380  function _initialize(... */\n      swap5\n      swap4\n      pop\n      pop\n      pop\n      pop\n      jump\t// out\n        /* \"@chainlink/contracts@1.2.0/src/v0.8/vendor/CBORChainlink.sol\":2777:2981  function encodeString(BufferChainlink.buffer memory buf, string memory value) internal pure {... */\n    tag_119:\n        /* \"@chainlink/contracts@1.2.0/src/v0.8/vendor/CBORChainlink.sol\":2875:2946  encodeFixedNumeric(buf, MAJOR_TYPE_STRING, uint64(bytes(value).length)) */\n      tag_147\n        /* \"@chainlink/contracts@1.2.0/src/v0.8/vendor/CBORChainlink.sol\":2894:2897  buf */\n      dup3\n        /* \"@chainlink/contracts@1.2.0/src/v0.8/vendor/CBORChainlink.sol\":383:384  3 */\n      0x03\n        /* \"@chainlink/contracts@1.2.0/src/v0.8/vendor/CBORChainlink.sol\":2931:2936  value */\n      dup4\n        /* \"@chainlink/contracts@1.2.0/src/v0.8/vendor/CBORChainlink.sol\":2925:2944  bytes(value).length */\n      mload\n        /* \"@chainlink/contracts@1.2.0/src/v0.8/vendor/CBORChainlink.sol\":2875:2893  encodeFixedNumeric */\n      tag_148\n        /* \"@chainlink/contracts@1.2.0/src/v0.8/vendor/CBORChainlink.sol\":2875:2946  encodeFixedNumeric(buf, MAJOR_TYPE_STRING, uint64(bytes(value).length)) */\n      jump\t// in\n    tag_147:\n        /* \"@chainlink/contracts@1.2.0/src/v0.8/vendor/CBORChainlink.sol\":2952:2976  buf.append(bytes(value)) */\n      tag_149\n        /* \"@chainlink/contracts@1.2.0/src/v0.8/vendor/CBORChainlink.sol\":2969:2974  value */\n      dup2\n        /* \"@chainlink/contracts@1.2.0/src/v0.8/vendor/CBORChainlink.sol\":2952:2955  buf */\n      dup4\n        /* \"@chainlink/contracts@1.2.0/src/v0.8/vendor/CBORChainlink.sol\":2952:2962  buf.append */\n      tag_150\n      swap1\n        /* \"@chainlink/contracts@1.2.0/src/v0.8/vendor/CBORChainlink.sol\":2952:2976  buf.append(bytes(value)) */\n      swap2\n      swap1\n      0xffffffff\n      and\n      jump\t// in\n    tag_149:\n      pop\n        /* \"@chainlink/contracts@1.2.0/src/v0.8/vendor/CBORChainlink.sol\":2777:2981  function encodeString(BufferChainlink.buffer memory buf, string memory value) internal pure {... */\n      pop\n      pop\n      jump\t// out\n        /* \"@chainlink/contracts@1.2.0/src/v0.8/vendor/CBORChainlink.sol\":1704:2150  function encodeInt(BufferChainlink.buffer memory buf, int value) internal pure {... */\n    tag_124:\n        /* \"@chainlink/contracts@1.2.0/src/v0.8/vendor/CBORChainlink.sol\":1800:1820  -0x10000000000000000 */\n      0xffffffffffffffffffffffffffffffffffffffffffffffff0000000000000000\n        /* \"@chainlink/contracts@1.2.0/src/v0.8/vendor/CBORChainlink.sol\":1792:1797  value */\n      dup2\n        /* \"@chainlink/contracts@1.2.0/src/v0.8/vendor/CBORChainlink.sol\":1792:1820  value < -0x10000000000000000 */\n      slt\n        /* \"@chainlink/contracts@1.2.0/src/v0.8/vendor/CBORChainlink.sol\":1789:2146  if(value < -0x10000000000000000) {... */\n      iszero\n      tag_152\n      jumpi\n        /* \"@chainlink/contracts@1.2.0/src/v0.8/vendor/CBORChainlink.sol\":1830:1860  encodeSignedBigNum(buf, value) */\n      tag_153\n        /* \"@chainlink/contracts@1.2.0/src/v0.8/vendor/CBORChainlink.sol\":1849:1852  buf */\n      dup3\n        /* \"@chainlink/contracts@1.2.0/src/v0.8/vendor/CBORChainlink.sol\":1854:1859  value */\n      dup3\n        /* \"@chainlink/contracts@1.2.0/src/v0.8/vendor/CBORChainlink.sol\":1830:1848  encodeSignedBigNum */\n      tag_154\n        /* \"@chainlink/contracts@1.2.0/src/v0.8/vendor/CBORChainlink.sol\":1830:1860  encodeSignedBigNum(buf, value) */\n      jump\t// in\n    tag_153:\n        /* \"@chainlink/contracts@1.2.0/src/v0.8/vendor/CBORChainlink.sol\":1789:2146  if(value < -0x10000000000000000) {... */\n      jump(tag_155)\n    tag_152:\n        /* \"@chainlink/contracts@1.2.0/src/v0.8/vendor/CBORChainlink.sol\":1884:1902  0xFFFFFFFFFFFFFFFF */\n      0xffffffffffffffff\n        /* \"@chainlink/contracts@1.2.0/src/v0.8/vendor/CBORChainlink.sol\":1876:1881  value */\n      dup2\n        /* \"@chainlink/contracts@1.2.0/src/v0.8/vendor/CBORChainlink.sol\":1876:1902  value > 0xFFFFFFFFFFFFFFFF */\n      sgt\n        /* \"@chainlink/contracts@1.2.0/src/v0.8/vendor/CBORChainlink.sol\":1873:2146  if(value > 0xFFFFFFFFFFFFFFFF) {... */\n      iszero\n      tag_156\n      jumpi\n        /* \"@chainlink/contracts@1.2.0/src/v0.8/vendor/CBORChainlink.sol\":1912:1942  encodeBigNum(buf, uint(value)) */\n      tag_157\n        /* \"@chainlink/contracts@1.2.0/src/v0.8/vendor/CBORChainlink.sol\":1925:1928  buf */\n      dup3\n        /* \"@chainlink/contracts@1.2.0/src/v0.8/vendor/CBORChainlink.sol\":1935:1940  value */\n      dup3\n        /* \"@chainlink/contracts@1.2.0/src/v0.8/vendor/CBORChainlink.sol\":1912:1924  encodeBigNum */\n      tag_158\n        /* \"@chainlink/contracts@1.2.0/src/v0.8/vendor/CBORChainlink.sol\":1912:1942  encodeBigNum(buf, uint(value)) */\n      jump\t// in\n    tag_157:\n        /* \"@chainlink/contracts@1.2.0/src/v0.8/vendor/CBORChainlink.sol\":1873:2146  if(value > 0xFFFFFFFFFFFFFFFF) {... */\n      jump(tag_159)\n    tag_156:\n        /* \"@chainlink/contracts@1.2.0/src/v0.8/vendor/CBORChainlink.sol\":1967:1968  0 */\n      0x00\n        /* \"@chainlink/contracts@1.2.0/src/v0.8/vendor/CBORChainlink.sol\":1958:1963  value */\n      dup2\n        /* \"@chainlink/contracts@1.2.0/src/v0.8/vendor/CBORChainlink.sol\":1958:1968  value >= 0 */\n      slt\n        /* \"@chainlink/contracts@1.2.0/src/v0.8/vendor/CBORChainlink.sol\":1955:2146  if(value >= 0) {... */\n      tag_160\n      jumpi\n        /* \"@chainlink/contracts@1.2.0/src/v0.8/vendor/CBORChainlink.sol\":1978:2041  encodeFixedNumeric(buf, MAJOR_TYPE_INT, uint64(uint256(value))) */\n      tag_161\n        /* \"@chainlink/contracts@1.2.0/src/v0.8/vendor/CBORChainlink.sol\":1997:2000  buf */\n      dup3\n        /* \"@chainlink/contracts@1.2.0/src/v0.8/vendor/CBORChainlink.sol\":234:235  0 */\n      0x00\n        /* \"@chainlink/contracts@1.2.0/src/v0.8/vendor/CBORChainlink.sol\":2033:2038  value */\n      dup4\n        /* \"@chainlink/contracts@1.2.0/src/v0.8/vendor/CBORChainlink.sol\":1978:1996  encodeFixedNumeric */\n      tag_148\n        /* \"@chainlink/contracts@1.2.0/src/v0.8/vendor/CBORChainlink.sol\":1978:2041  encodeFixedNumeric(buf, MAJOR_TYPE_INT, uint64(uint256(value))) */\n      jump\t// in\n    tag_161:\n        /* \"@chainlink/contracts@1.2.0/src/v0.8/vendor/CBORChainlink.sol\":1955:2146  if(value >= 0) {... */\n      jump(tag_162)\n    tag_160:\n        /* \"@chainlink/contracts@1.2.0/src/v0.8/vendor/CBORChainlink.sol\":2062:2139  encodeFixedNumeric(buf, MAJOR_TYPE_NEGATIVE_INT, uint64(uint256(-1 - value))) */\n      tag_163\n        /* \"@chainlink/contracts@1.2.0/src/v0.8/vendor/CBORChainlink.sol\":2081:2084  buf */\n      dup3\n        /* \"@chainlink/contracts@1.2.0/src/v0.8/vendor/CBORChainlink.sol\":288:289  1 */\n      0x01\n        /* \"@chainlink/contracts@1.2.0/src/v0.8/vendor/CBORChainlink.sol\":2131:2136  value */\n      dup4\n        /* \"@chainlink/contracts@1.2.0/src/v0.8/vendor/CBORChainlink.sol\":2126:2128  -1 */\n      0xffffffffffffffffffffffffffffffffffffffffffffffffffffffffffffffff\n        /* \"@chainlink/contracts@1.2.0/src/v0.8/vendor/CBORChainlink.sol\":2126:2136  -1 - value */\n      tag_164\n      swap2\n      swap1\n      tag_165\n      jump\t// in\n    tag_164:\n        /* \"@chainlink/contracts@1.2.0/src/v0.8/vendor/CBORChainlink.sol\":2062:2080  encodeFixedNumeric */\n      tag_148\n        /* \"@chainlink/contracts@1.2.0/src/v0.8/vendor/CBORChainlink.sol\":2062:2139  encodeFixedNumeric(buf, MAJOR_TYPE_NEGATIVE_INT, uint64(uint256(-1 - value))) */\n      jump\t// in\n    tag_163:\n        /* \"@chainlink/contracts@1.2.0/src/v0.8/vendor/CBORChainlink.sol\":1955:2146  if(value >= 0) {... */\n    tag_162:\n        /* \"@chainlink/contracts@1.2.0/src/v0.8/vendor/CBORChainlink.sol\":1873:2146  if(value > 0xFFFFFFFFFFFFFFFF) {... */\n    tag_159:\n        /* \"@chainlink/contracts@1.2.0/src/v0.8/vendor/CBORChainlink.sol\":1789:2146  if(value < -0x10000000000000000) {... */\n    tag_155:\n        /* \"@chainlink/contracts@1.2.0/src/v0.8/vendor/CBORChainlink.sol\":1704:2150  function encodeInt(BufferChainlink.buffer memory buf, int value) internal pure {... */\n      pop\n      pop\n      jump\t// out\n        /* \"@chainlink/contracts@1.2.0/src/v0.8/ChainlinkClient.sol\":6828:7280  function _rawRequest(... */\n    tag_131:\n        /* \"@chainlink/contracts@1.2.0/src/v0.8/ChainlinkClient.sol\":6970:6987  bytes32 requestId */\n      0x00\n        /* \"@chainlink/contracts@1.2.0/src/v0.8/ChainlinkClient.sol\":7034:7038  this */\n      address\n        /* \"@chainlink/contracts@1.2.0/src/v0.8/ChainlinkClient.sol\":7040:7045  nonce */\n      dup5\n        /* \"@chainlink/contracts@1.2.0/src/v0.8/ChainlinkClient.sol\":7017:7046  abi.encodePacked(this, nonce) */\n      add(0x20, mload(0x40))\n      tag_167\n      swap3\n      swap2\n      swap1\n      tag_168\n      jump\t// in\n    tag_167:\n      mload(0x40)\n      0x20\n      dup2\n      dup4\n      sub\n      sub\n      dup2\n      mstore\n      swap1\n      0x40\n      mstore\n        /* \"@chainlink/contracts@1.2.0/src/v0.8/ChainlinkClient.sol\":7007:7047  keccak256(abi.encodePacked(this, nonce)) */\n      dup1\n      mload\n      swap1\n      0x20\n      add\n      keccak256\n        /* \"@chainlink/contracts@1.2.0/src/v0.8/ChainlinkClient.sol\":6995:7047  requestId = keccak256(abi.encodePacked(this, nonce)) */\n      swap1\n      pop\n        /* \"@chainlink/contracts@1.2.0/src/v0.8/ChainlinkClient.sol\":7084:7097  oracleAddress */\n      dup5\n        /* \"@chainlink/contracts@1.2.0/src/v0.8/ChainlinkClient.sol\":7053:7070  s_pendingRequests */\n      0x05\n        /* \"@chainlink/contracts@1.2.0/src/v0.8/ChainlinkClient.sol\":7053:7081  s_pendingRequests[requestId] */\n      0x00\n        /* \"@chainlink/contracts@1.2.0/src/v0.8/ChainlinkClient.sol\":7071:7080  requestId */\n      dup4\n        /* \"@chainlink/contracts@1.2.0/src/v0.8/ChainlinkClient.sol\":7053:7081  s_pendingRequests[requestId] */\n      dup2\n      mstore\n      0x20\n      add\n      swap1\n      dup2\n      mstore\n      0x20\n      add\n      0x00\n      keccak256\n      0x00\n        /* \"@chainlink/contracts@1.2.0/src/v0.8/ChainlinkClient.sol\":7053:7097  s_pendingRequests[requestId] = oracleAddress */\n      0x0100\n      exp\n      dup2\n      sload\n      dup2\n      0xffffffffffffffffffffffffffffffffffffffff\n      mul\n      not\n      and\n      swap1\n      dup4\n      0xffffffffffffffffffffffffffffffffffffffff\n      and\n      mul\n      or\n      swap1\n      sstore\n      pop\n        /* \"@chainlink/contracts@1.2.0/src/v0.8/ChainlinkClient.sol\":7127:7136  requestId */\n      dup1\n        /* \"@chainlink/contracts@1.2.0/src/v0.8/ChainlinkClient.sol\":7108:7137  ChainlinkRequested(requestId) */\n      0xb5e6e01e79f91267dc17b4e6314d5d4d03593d2ceee0fbb452b750bd70ea5af9\n      mload(0x40)\n      mload(0x40)\n      dup1\n      swap2\n      sub\n      swap1\n      log2\n        /* \"@chainlink/contracts@1.2.0/src/v0.8/ChainlinkClient.sol\":7151:7157  s_link */\n      0x02\n      0x00\n      swap1\n      sload\n      swap1\n      0x0100\n      exp\n      swap1\n      div\n      0xffffffffffffffffffffffffffffffffffffffff\n      and\n        /* \"@chainlink/contracts@1.2.0/src/v0.8/ChainlinkClient.sol\":7151:7173  s_link.transferAndCall */\n      0xffffffffffffffffffffffffffffffffffffffff\n      and\n      0x4000aea0\n        /* \"@chainlink/contracts@1.2.0/src/v0.8/ChainlinkClient.sol\":7174:7187  oracleAddress */\n      dup7\n        /* \"@chainlink/contracts@1.2.0/src/v0.8/ChainlinkClient.sol\":7189:7196  payment */\n      dup6\n        /* \"@chainlink/contracts@1.2.0/src/v0.8/ChainlinkClient.sol\":7198:7212  encodedRequest */\n      dup6\n        /* \"@chainlink/contracts@1.2.0/src/v0.8/ChainlinkClient.sol\":7151:7213  s_link.transferAndCall(oracleAddress, payment, encodedRequest) */\n      mload(0x40)\n      dup5\n      0xffffffff\n      and\n      0xe0\n      shl\n      dup2\n      mstore\n      0x04\n      add\n      tag_169\n      swap4\n      swap3\n      swap2\n      swap1\n      tag_170\n      jump\t// in\n    tag_169:\n      0x20\n      mload(0x40)\n      dup1\n      dup4\n      sub\n      dup2\n      0x00\n      dup8\n      gas\n      call\n      iszero\n      dup1\n      iszero\n      tag_172\n      jumpi\n      returndatasize\n      0x00\n      dup1\n      returndatacopy\n      revert(0x00, returndatasize)\n    tag_172:\n      pop\n      pop\n      pop\n      pop\n      mload(0x40)\n      returndatasize\n      not(0x1f)\n      0x1f\n      dup3\n      add\n      and\n      dup3\n      add\n      dup1\n      0x40\n      mstore\n      pop\n      dup2\n      add\n      swap1\n      tag_173\n      swap2\n      swap1\n      tag_67\n      jump\t// in\n    tag_173:\n        /* \"@chainlink/contracts@1.2.0/src/v0.8/ChainlinkClient.sol\":7143:7253  require(s_link.transferAndCall(oracleAddress, payment, encodedRequest), \"unable to transferAndCall to oracle\") */\n      tag_174\n      jumpi\n      mload(0x40)\n      0x08c379a000000000000000000000000000000000000000000000000000000000\n      dup2\n      mstore\n      0x04\n      add\n      tag_175\n      swap1\n      tag_176\n      jump\t// in\n    tag_175:\n      mload(0x40)\n      dup1\n      swap2\n      sub\n      swap1\n      revert\n    tag_174:\n        /* \"@chainlink/contracts@1.2.0/src/v0.8/ChainlinkClient.sol\":6828:7280  function _rawRequest(... */\n      swap5\n      swap4\n      pop\n      pop\n      pop\n      pop\n      jump\t// out\n        /* \"@chainlink/contracts@1.2.0/src/v0.8/vendor/BufferChainlink.sol\":1001:1400  function init(buffer memory buf, uint256 capacity) internal pure returns (buffer memory) {... */\n    tag_145:\n        /* \"@chainlink/contracts@1.2.0/src/v0.8/vendor/BufferChainlink.sol\":1075:1088  buffer memory */\n      tag_177\n      tag_178\n      jump\t// in\n    tag_177:\n        /* \"@chainlink/contracts@1.2.0/src/v0.8/vendor/BufferChainlink.sol\":1117:1118  0 */\n      0x00\n        /* \"@chainlink/contracts@1.2.0/src/v0.8/vendor/BufferChainlink.sol\":1111:1113  32 */\n      0x20\n        /* \"@chainlink/contracts@1.2.0/src/v0.8/vendor/BufferChainlink.sol\":1100:1108  capacity */\n      dup4\n        /* \"@chainlink/contracts@1.2.0/src/v0.8/vendor/BufferChainlink.sol\":1100:1113  capacity % 32 */\n      tag_180\n      swap2\n      swap1\n      tag_181\n      jump\t// in\n    tag_180:\n        /* \"@chainlink/contracts@1.2.0/src/v0.8/vendor/BufferChainlink.sol\":1100:1118  capacity % 32 != 0 */\n      eq\n        /* \"@chainlink/contracts@1.2.0/src/v0.8/vendor/BufferChainlink.sol\":1096:1167  if (capacity % 32 != 0) {... */\n      tag_182\n      jumpi\n        /* \"@chainlink/contracts@1.2.0/src/v0.8/vendor/BufferChainlink.sol\":1157:1159  32 */\n      0x20\n        /* \"@chainlink/contracts@1.2.0/src/v0.8/vendor/BufferChainlink.sol\":1146:1154  capacity */\n      dup3\n        /* \"@chainlink/contracts@1.2.0/src/v0.8/vendor/BufferChainlink.sol\":1146:1159  capacity % 32 */\n      tag_183\n      swap2\n      swap1\n      tag_181\n      jump\t// in\n    tag_183:\n        /* \"@chainlink/contracts@1.2.0/src/v0.8/vendor/BufferChainlink.sol\":1140:1142  32 */\n      0x20\n        /* \"@chainlink/contracts@1.2.0/src/v0.8/vendor/BufferChainlink.sol\":1140:1160  32 - (capacity % 32) */\n      tag_184\n      swap2\n      swap1\n      tag_185\n      jump\t// in\n    tag_184:\n        /* \"@chainlink/contracts@1.2.0/src/v0.8/vendor/BufferChainlink.sol\":1128:1160  capacity += 32 - (capacity % 32) */\n      dup3\n      tag_186\n      swap2\n      swap1\n      tag_127\n      jump\t// in\n    tag_186:\n      swap2\n      pop\n        /* \"@chainlink/contracts@1.2.0/src/v0.8/vendor/BufferChainlink.sol\":1096:1167  if (capacity % 32 != 0) {... */\n    tag_182:\n        /* \"@chainlink/contracts@1.2.0/src/v0.8/vendor/BufferChainlink.sol\":1229:1237  capacity */\n      dup2\n        /* \"@chainlink/contracts@1.2.0/src/v0.8/vendor/BufferChainlink.sol\":1214:1217  buf */\n      dup4\n        /* \"@chainlink/contracts@1.2.0/src/v0.8/vendor/BufferChainlink.sol\":1214:1226  buf.capacity */\n      0x20\n      add\n        /* \"@chainlink/contracts@1.2.0/src/v0.8/vendor/BufferChainlink.sol\":1214:1237  buf.capacity = capacity */\n      dup2\n      dup2\n      mstore\n      pop\n      pop\n        /* \"@chainlink/contracts@1.2.0/src/v0.8/vendor/BufferChainlink.sol\":1277:1281  0x40 */\n      0x40\n        /* \"@chainlink/contracts@1.2.0/src/v0.8/vendor/BufferChainlink.sol\":1271:1282  mload(0x40) */\n      mload\n        /* \"@chainlink/contracts@1.2.0/src/v0.8/vendor/BufferChainlink.sol\":1301:1304  ptr */\n      dup1\n        /* \"@chainlink/contracts@1.2.0/src/v0.8/vendor/BufferChainlink.sol\":1296:1299  buf */\n      dup5\n        /* \"@chainlink/contracts@1.2.0/src/v0.8/vendor/BufferChainlink.sol\":1289:1305  mstore(buf, ptr) */\n      mstore\n        /* \"@chainlink/contracts@1.2.0/src/v0.8/vendor/BufferChainlink.sol\":1324:1325  0 */\n      0x00\n        /* \"@chainlink/contracts@1.2.0/src/v0.8/vendor/BufferChainlink.sol\":1319:1322  ptr */\n      dup2\n        /* \"@chainlink/contracts@1.2.0/src/v0.8/vendor/BufferChainlink.sol\":1312:1326  mstore(ptr, 0) */\n      mstore\n        /* \"@chainlink/contracts@1.2.0/src/v0.8/vendor/BufferChainlink.sol\":1363:1371  capacity */\n      dup3\n        /* \"@chainlink/contracts@1.2.0/src/v0.8/vendor/BufferChainlink.sol\":1358:1361  ptr */\n      dup2\n        /* \"@chainlink/contracts@1.2.0/src/v0.8/vendor/BufferChainlink.sol\":1354:1372  add(ptr, capacity) */\n      add\n        /* \"@chainlink/contracts@1.2.0/src/v0.8/vendor/BufferChainlink.sol\":1350:1352  32 */\n      0x20\n        /* \"@chainlink/contracts@1.2.0/src/v0.8/vendor/BufferChainlink.sol\":1346:1373  add(32, add(ptr, capacity)) */\n      add\n        /* \"@chainlink/contracts@1.2.0/src/v0.8/vendor/BufferChainlink.sol\":1340:1344  0x40 */\n      0x40\n        /* \"@chainlink/contracts@1.2.0/src/v0.8/vendor/BufferChainlink.sol\":1333:1374  mstore(0x40, add(32, add(ptr, capacity))) */\n      mstore\n        /* \"@chainlink/contracts@1.2.0/src/v0.8/vendor/BufferChainlink.sol\":1252:1380  {... */\n      pop\n        /* \"@chainlink/contracts@1.2.0/src/v0.8/vendor/BufferChainlink.sol\":1392:1395  buf */\n      dup3\n        /* \"@chainlink/contracts@1.2.0/src/v0.8/vendor/BufferChainlink.sol\":1385:1395  return buf */\n      swap1\n      pop\n        /* \"@chainlink/contracts@1.2.0/src/v0.8/vendor/BufferChainlink.sol\":1001:1400  function init(buffer memory buf, uint256 capacity) internal pure returns (buffer memory) {... */\n      swap3\n      swap2\n      pop\n      pop\n      jump\t// out\n        /* \"@chainlink/contracts@1.2.0/src/v0.8/vendor/CBORChainlink.sol\":682:1307  function encodeFixedNumeric(BufferChainlink.buffer memory buf, uint8 major, uint64 value) private pure {... */\n    tag_148:\n        /* \"@chainlink/contracts@1.2.0/src/v0.8/vendor/CBORChainlink.sol\":803:805  23 */\n      0x17\n        /* \"@chainlink/contracts@1.2.0/src/v0.8/vendor/CBORChainlink.sol\":794:799  value */\n      dup2\n        /* \"@chainlink/contracts@1.2.0/src/v0.8/vendor/CBORChainlink.sol\":794:805  value <= 23 */\n      0xffffffffffffffff\n      and\n      gt\n        /* \"@chainlink/contracts@1.2.0/src/v0.8/vendor/CBORChainlink.sol\":791:1303  if(value <= 23) {... */\n      tag_188\n      jumpi\n        /* \"@chainlink/contracts@1.2.0/src/v0.8/vendor/CBORChainlink.sol\":815:859  buf.appendUint8(uint8((major << 5) | value)) */\n      tag_189\n        /* \"@chainlink/contracts@1.2.0/src/v0.8/vendor/CBORChainlink.sol\":852:857  value */\n      dup2\n        /* \"@chainlink/contracts@1.2.0/src/v0.8/vendor/CBORChainlink.sol\":847:848  5 */\n      0x05\n        /* \"@chainlink/contracts@1.2.0/src/v0.8/vendor/CBORChainlink.sol\":838:843  major */\n      dup5\n        /* \"@chainlink/contracts@1.2.0/src/v0.8/vendor/CBORChainlink.sol\":838:848  major << 5 */\n      0xff\n      and\n      swap1\n      shl\n        /* \"@chainlink/contracts@1.2.0/src/v0.8/vendor/CBORChainlink.sol\":837:857  (major << 5) | value */\n      0xff\n      and\n      or\n        /* \"@chainlink/contracts@1.2.0/src/v0.8/vendor/CBORChainlink.sol\":815:818  buf */\n      dup5\n        /* \"@chainlink/contracts@1.2.0/src/v0.8/vendor/CBORChainlink.sol\":815:830  buf.appendUint8 */\n      tag_190\n      swap1\n        /* \"@chainlink/contracts@1.2.0/src/v0.8/vendor/CBORChainlink.sol\":815:859  buf.appendUint8(uint8((major << 5) | value)) */\n      swap2\n      swap1\n      0xffffffff\n      and\n      jump\t// in\n    tag_189:\n      pop\n        /* \"@chainlink/contracts@1.2.0/src/v0.8/vendor/CBORChainlink.sol\":791:1303  if(value <= 23) {... */\n      jump(tag_191)\n    tag_188:\n        /* \"@chainlink/contracts@1.2.0/src/v0.8/vendor/CBORChainlink.sol\":885:889  0xFF */\n      0xff\n        /* \"@chainlink/contracts@1.2.0/src/v0.8/vendor/CBORChainlink.sol\":876:881  value */\n      dup2\n        /* \"@chainlink/contracts@1.2.0/src/v0.8/vendor/CBORChainlink.sol\":876:889  value <= 0xFF */\n      0xffffffffffffffff\n      and\n      gt\n        /* \"@chainlink/contracts@1.2.0/src/v0.8/vendor/CBORChainlink.sol\":872:1303  if (value <= 0xFF) {... */\n      tag_192\n      jumpi\n        /* \"@chainlink/contracts@1.2.0/src/v0.8/vendor/CBORChainlink.sol\":899:940  buf.appendUint8(uint8((major << 5) | 24)) */\n      tag_193\n        /* \"@chainlink/contracts@1.2.0/src/v0.8/vendor/CBORChainlink.sol\":936:938  24 */\n      0x18\n        /* \"@chainlink/contracts@1.2.0/src/v0.8/vendor/CBORChainlink.sol\":931:932  5 */\n      0x05\n        /* \"@chainlink/contracts@1.2.0/src/v0.8/vendor/CBORChainlink.sol\":922:927  major */\n      dup5\n        /* \"@chainlink/contracts@1.2.0/src/v0.8/vendor/CBORChainlink.sol\":922:932  major << 5 */\n      0xff\n      and\n      swap1\n      shl\n        /* \"@chainlink/contracts@1.2.0/src/v0.8/vendor/CBORChainlink.sol\":921:938  (major << 5) | 24 */\n      or\n        /* \"@chainlink/contracts@1.2.0/src/v0.8/vendor/CBORChainlink.sol\":899:902  buf */\n      dup5\n        /* \"@chainlink/contracts@1.2.0/src/v0.8/vendor/CBORChainlink.sol\":899:914  buf.appendUint8 */\n      tag_190\n      swap1\n        /* \"@chainlink/contracts@1.2.0/src/v0.8/vendor/CBORChainlink.sol\":899:940  buf.appendUint8(uint8((major << 5) | 24)) */\n      swap2\n      swap1\n      0xffffffff\n      and\n      jump\t// in\n    tag_193:\n      pop\n        /* \"@chainlink/contracts@1.2.0/src/v0.8/vendor/CBORChainlink.sol\":948:971  buf.appendInt(value, 1) */\n      tag_194\n        /* \"@chainlink/contracts@1.2.0/src/v0.8/vendor/CBORChainlink.sol\":962:967  value */\n      dup2\n        /* \"@chainlink/contracts@1.2.0/src/v0.8/vendor/CBORChainlink.sol\":948:971  buf.appendInt(value, 1) */\n      0xffffffffffffffff\n      and\n        /* \"@chainlink/contracts@1.2.0/src/v0.8/vendor/CBORChainlink.sol\":969:970  1 */\n      0x01\n        /* \"@chainlink/contracts@1.2.0/src/v0.8/vendor/CBORChainlink.sol\":948:951  buf */\n      dup6\n        /* \"@chainlink/contracts@1.2.0/src/v0.8/vendor/CBORChainlink.sol\":948:961  buf.appendInt */\n      tag_195\n      swap1\n        /* \"@chainlink/contracts@1.2.0/src/v0.8/vendor/CBORChainlink.sol\":948:971  buf.appendInt(value, 1) */\n      swap3\n      swap2\n      swap1\n      0xffffffff\n      and\n      jump\t// in\n    tag_194:\n      pop\n        /* \"@chainlink/contracts@1.2.0/src/v0.8/vendor/CBORChainlink.sol\":872:1303  if (value <= 0xFF) {... */\n      jump(tag_196)\n    tag_192:\n        /* \"@chainlink/contracts@1.2.0/src/v0.8/vendor/CBORChainlink.sol\":997:1003  0xFFFF */\n      0xffff\n        /* \"@chainlink/contracts@1.2.0/src/v0.8/vendor/CBORChainlink.sol\":988:993  value */\n      dup2\n        /* \"@chainlink/contracts@1.2.0/src/v0.8/vendor/CBORChainlink.sol\":988:1003  value <= 0xFFFF */\n      0xffffffffffffffff\n      and\n      gt\n        /* \"@chainlink/contracts@1.2.0/src/v0.8/vendor/CBORChainlink.sol\":984:1303  if (value <= 0xFFFF) {... */\n      tag_197\n      jumpi\n        /* \"@chainlink/contracts@1.2.0/src/v0.8/vendor/CBORChainlink.sol\":1013:1054  buf.appendUint8(uint8((major << 5) | 25)) */\n      tag_198\n        /* \"@chainlink/contracts@1.2.0/src/v0.8/vendor/CBORChainlink.sol\":1050:1052  25 */\n      0x19\n        /* \"@chainlink/contracts@1.2.0/src/v0.8/vendor/CBORChainlink.sol\":1045:1046  5 */\n      0x05\n        /* \"@chainlink/contracts@1.2.0/src/v0.8/vendor/CBORChainlink.sol\":1036:1041  major */\n      dup5\n        /* \"@chainlink/contracts@1.2.0/src/v0.8/vendor/CBORChainlink.sol\":1036:1046  major << 5 */\n      0xff\n      and\n      swap1\n      shl\n        /* \"@chainlink/contracts@1.2.0/src/v0.8/vendor/CBORChainlink.sol\":1035:1052  (major << 5) | 25 */\n      or\n        /* \"@chainlink/contracts@1.2.0/src/v0.8/vendor/CBORChainlink.sol\":1013:1016  buf */\n      dup5\n        /* \"@chainlink/contracts@1.2.0/src/v0.8/vendor/CBORChainlink.sol\":1013:1028  buf.appendUint8 */\n      tag_190\n      swap1\n        /* \"@chainlink/contracts@1.2.0/src/v0.8/vendor/CBORChainlink.sol\":1013:1054  buf.appendUint8(uint8((major << 5) | 25)) */\n      swap2\n      swap1\n      0xffffffff\n      and\n      jump\t// in\n    tag_198:\n      pop\n        /* \"@chainlink/contracts@1.2.0/src/v0.8/vendor/CBORChainlink.sol\":1062:1085  buf.appendInt(value, 2) */\n      tag_199\n        /* \"@chainlink/contracts@1.2.0/src/v0.8/vendor/CBORChainlink.sol\":1076:1081  value */\n      dup2\n        /* \"@chainlink/contracts@1.2.0/src/v0.8/vendor/CBORChainlink.sol\":1062:1085  buf.appendInt(value, 2) */\n      0xffffffffffffffff\n      and\n        /* \"@chainlink/contracts@1.2.0/src/v0.8/vendor/CBORChainlink.sol\":1083:1084  2 */\n      0x02\n        /* \"@chainlink/contracts@1.2.0/src/v0.8/vendor/CBORChainlink.sol\":1062:1065  buf */\n      dup6\n        /* \"@chainlink/contracts@1.2.0/src/v0.8/vendor/CBORChainlink.sol\":1062:1075  buf.appendInt */\n      tag_195\n      swap1\n        /* \"@chainlink/contracts@1.2.0/src/v0.8/vendor/CBORChainlink.sol\":1062:1085  buf.appendInt(value, 2) */\n      swap3\n      swap2\n      swap1\n      0xffffffff\n      and\n      jump\t// in\n    tag_199:\n      pop\n        /* \"@chainlink/contracts@1.2.0/src/v0.8/vendor/CBORChainlink.sol\":984:1303  if (value <= 0xFFFF) {... */\n      jump(tag_200)\n    tag_197:\n        /* \"@chainlink/contracts@1.2.0/src/v0.8/vendor/CBORChainlink.sol\":1111:1121  0xFFFFFFFF */\n      0xffffffff\n        /* \"@chainlink/contracts@1.2.0/src/v0.8/vendor/CBORChainlink.sol\":1102:1107  value */\n      dup2\n        /* \"@chainlink/contracts@1.2.0/src/v0.8/vendor/CBORChainlink.sol\":1102:1121  value <= 0xFFFFFFFF */\n      0xffffffffffffffff\n      and\n      gt\n        /* \"@chainlink/contracts@1.2.0/src/v0.8/vendor/CBORChainlink.sol\":1098:1303  if (value <= 0xFFFFFFFF) {... */\n      tag_201\n      jumpi\n        /* \"@chainlink/contracts@1.2.0/src/v0.8/vendor/CBORChainlink.sol\":1131:1172  buf.appendUint8(uint8((major << 5) | 26)) */\n      tag_202\n        /* \"@chainlink/contracts@1.2.0/src/v0.8/vendor/CBORChainlink.sol\":1168:1170  26 */\n      0x1a\n        /* \"@chainlink/contracts@1.2.0/src/v0.8/vendor/CBORChainlink.sol\":1163:1164  5 */\n      0x05\n        /* \"@chainlink/contracts@1.2.0/src/v0.8/vendor/CBORChainlink.sol\":1154:1159  major */\n      dup5\n        /* \"@chainlink/contracts@1.2.0/src/v0.8/vendor/CBORChainlink.sol\":1154:1164  major << 5 */\n      0xff\n      and\n      swap1\n      shl\n        /* \"@chainlink/contracts@1.2.0/src/v0.8/vendor/CBORChainlink.sol\":1153:1170  (major << 5) | 26 */\n      or\n        /* \"@chainlink/contracts@1.2.0/src/v0.8/vendor/CBORChainlink.sol\":1131:1134  buf */\n      dup5\n        /* \"@chainlink/contracts@1.2.0/src/v0.8/vendor/CBORChainlink.sol\":1131:1146  buf.appendUint8 */\n      tag_190\n      swap1\n        /* \"@chainlink/contracts@1.2.0/src/v0.8/vendor/CBORChainlink.sol\":1131:1172  buf.appendUint8(uint8((major << 5) | 26)) */\n      swap2\n      swap1\n      0xffffffff\n      and\n      jump\t// in\n    tag_202:\n      pop\n        /* \"@chainlink/contracts@1.2.0/src/v0.8/vendor/CBORChainlink.sol\":1180:1203  buf.appendInt(value, 4) */\n      tag_203\n        /* \"@chainlink/contracts@1.2.0/src/v0.8/vendor/CBORChainlink.sol\":1194:1199  value */\n      dup2\n        /* \"@chainlink/contracts@1.2.0/src/v0.8/vendor/CBORChainlink.sol\":1180:1203  buf.appendInt(value, 4) */\n      0xffffffffffffffff\n      and\n        /* \"@chainlink/contracts@1.2.0/src/v0.8/vendor/CBORChainlink.sol\":1201:1202  4 */\n      0x04\n        /* \"@chainlink/contracts@1.2.0/src/v0.8/vendor/CBORChainlink.sol\":1180:1183  buf */\n      dup6\n        /* \"@chainlink/contracts@1.2.0/src/v0.8/vendor/CBORChainlink.sol\":1180:1193  buf.appendInt */\n      tag_195\n      swap1\n        /* \"@chainlink/contracts@1.2.0/src/v0.8/vendor/CBORChainlink.sol\":1180:1203  buf.appendInt(value, 4) */\n      swap3\n      swap2\n      swap1\n      0xffffffff\n      and\n      jump\t// in\n    tag_203:\n      pop\n        /* \"@chainlink/contracts@1.2.0/src/v0.8/vendor/CBORChainlink.sol\":1098:1303  if (value <= 0xFFFFFFFF) {... */\n      jump(tag_204)\n    tag_201:\n        /* \"@chainlink/contracts@1.2.0/src/v0.8/vendor/CBORChainlink.sol\":1224:1265  buf.appendUint8(uint8((major << 5) | 27)) */\n      tag_205\n        /* \"@chainlink/contracts@1.2.0/src/v0.8/vendor/CBORChainlink.sol\":1261:1263  27 */\n      0x1b\n        /* \"@chainlink/contracts@1.2.0/src/v0.8/vendor/CBORChainlink.sol\":1256:1257  5 */\n      0x05\n        /* \"@chainlink/contracts@1.2.0/src/v0.8/vendor/CBORChainlink.sol\":1247:1252  major */\n      dup5\n        /* \"@chainlink/contracts@1.2.0/src/v0.8/vendor/CBORChainlink.sol\":1247:1257  major << 5 */\n      0xff\n      and\n      swap1\n      shl\n        /* \"@chainlink/contracts@1.2.0/src/v0.8/vendor/CBORChainlink.sol\":1246:1263  (major << 5) | 27 */\n      or\n        /* \"@chainlink/contracts@1.2.0/src/v0.8/vendor/CBORChainlink.sol\":1224:1227  buf */\n      dup5\n        /* \"@chainlink/contracts@1.2.0/src/v0.8/vendor/CBORChainlink.sol\":1224:1239  buf.appendUint8 */\n      tag_190\n      swap1\n        /* \"@chainlink/contracts@1.2.0/src/v0.8/vendor/CBORChainlink.sol\":1224:1265  buf.appendUint8(uint8((major << 5) | 27)) */\n      swap2\n      swap1\n      0xffffffff\n      and\n      jump\t// in\n    tag_205:\n      pop\n        /* \"@chainlink/contracts@1.2.0/src/v0.8/vendor/CBORChainlink.sol\":1273:1296  buf.appendInt(value, 8) */\n      tag_206\n        /* \"@chainlink/contracts@1.2.0/src/v0.8/vendor/CBORChainlink.sol\":1287:1292  value */\n      dup2\n        /* \"@chainlink/contracts@1.2.0/src/v0.8/vendor/CBORChainlink.sol\":1273:1296  buf.appendInt(value, 8) */\n      0xffffffffffffffff\n      and\n        /* \"@chainlink/contracts@1.2.0/src/v0.8/vendor/CBORChainlink.sol\":1294:1295  8 */\n      0x08\n        /* \"@chainlink/contracts@1.2.0/src/v0.8/vendor/CBORChainlink.sol\":1273:1276  buf */\n      dup6\n        /* \"@chainlink/contracts@1.2.0/src/v0.8/vendor/CBORChainlink.sol\":1273:1286  buf.appendInt */\n      tag_195\n      swap1\n        /* \"@chainlink/contracts@1.2.0/src/v0.8/vendor/CBORChainlink.sol\":1273:1296  buf.appendInt(value, 8) */\n      swap3\n      swap2\n      swap1\n      0xffffffff\n      and\n      jump\t// in\n    tag_206:\n      pop\n        /* \"@chainlink/contracts@1.2.0/src/v0.8/vendor/CBORChainlink.sol\":1098:1303  if (value <= 0xFFFFFFFF) {... */\n    tag_204:\n        /* \"@chainlink/contracts@1.2.0/src/v0.8/vendor/CBORChainlink.sol\":984:1303  if (value <= 0xFFFF) {... */\n    tag_200:\n        /* \"@chainlink/contracts@1.2.0/src/v0.8/vendor/CBORChainlink.sol\":872:1303  if (value <= 0xFF) {... */\n    tag_196:\n        /* \"@chainlink/contracts@1.2.0/src/v0.8/vendor/CBORChainlink.sol\":791:1303  if(value <= 23) {... */\n    tag_191:\n        /* \"@chainlink/contracts@1.2.0/src/v0.8/vendor/CBORChainlink.sol\":682:1307  function encodeFixedNumeric(BufferChainlink.buffer memory buf, uint8 major, uint64 value) private pure {... */\n      pop\n      pop\n      pop\n      jump\t// out\n        /* \"@chainlink/contracts@1.2.0/src/v0.8/vendor/BufferChainlink.sol\":4692:4847  function append(buffer memory buf, bytes memory data) internal pure returns (buffer memory) {... */\n    tag_150:\n        /* \"@chainlink/contracts@1.2.0/src/v0.8/vendor/BufferChainlink.sol\":4769:4782  buffer memory */\n      tag_207\n      tag_178\n      jump\t// in\n    tag_207:\n        /* \"@chainlink/contracts@1.2.0/src/v0.8/vendor/BufferChainlink.sol\":4797:4842  write(buf, buf.buf.length, data, data.length) */\n      tag_209\n        /* \"@chainlink/contracts@1.2.0/src/v0.8/vendor/BufferChainlink.sol\":4803:4806  buf */\n      dup4\n        /* \"@chainlink/contracts@1.2.0/src/v0.8/vendor/BufferChainlink.sol\":4808:4811  buf */\n      dup5\n        /* \"@chainlink/contracts@1.2.0/src/v0.8/vendor/BufferChainlink.sol\":4808:4815  buf.buf */\n      0x00\n      add\n      mload\n        /* \"@chainlink/contracts@1.2.0/src/v0.8/vendor/BufferChainlink.sol\":4808:4822  buf.buf.length */\n      mload\n        /* \"@chainlink/contracts@1.2.0/src/v0.8/vendor/BufferChainlink.sol\":4824:4828  data */\n      dup5\n        /* \"@chainlink/contracts@1.2.0/src/v0.8/vendor/BufferChainlink.sol\":4830:4834  data */\n      dup6\n        /* \"@chainlink/contracts@1.2.0/src/v0.8/vendor/BufferChainlink.sol\":4830:4841  data.length */\n      mload\n        /* \"@chainlink/contracts@1.2.0/src/v0.8/vendor/BufferChainlink.sol\":4797:4802  write */\n      tag_210\n        /* \"@chainlink/contracts@1.2.0/src/v0.8/vendor/BufferChainlink.sol\":4797:4842  write(buf, buf.buf.length, data, data.length) */\n      jump\t// in\n    tag_209:\n        /* \"@chainlink/contracts@1.2.0/src/v0.8/vendor/BufferChainlink.sol\":4790:4842  return write(buf, buf.buf.length, data, data.length) */\n      swap1\n      pop\n        /* \"@chainlink/contracts@1.2.0/src/v0.8/vendor/BufferChainlink.sol\":4692:4847  function append(buffer memory buf, bytes memory data) internal pure returns (buffer memory) {... */\n      swap3\n      swap2\n      pop\n      pop\n      jump\t// out\n        /* \"@chainlink/contracts@1.2.0/src/v0.8/vendor/CBORChainlink.sol\":2547:2773  function encodeSignedBigNum(BufferChainlink.buffer memory buf, int input) internal pure {... */\n    tag_154:\n        /* \"@chainlink/contracts@1.2.0/src/v0.8/vendor/CBORChainlink.sol\":2641:2713  buf.appendUint8(uint8((MAJOR_TYPE_TAG << 5) | TAG_TYPE_NEGATIVE_BIGNUM)) */\n      tag_212\n        /* \"@chainlink/contracts@1.2.0/src/v0.8/vendor/CBORChainlink.sol\":676:677  3 */\n      0x03\n        /* \"@chainlink/contracts@1.2.0/src/v0.8/vendor/CBORChainlink.sol\":2682:2683  5 */\n      0x05\n        /* \"@chainlink/contracts@1.2.0/src/v0.8/vendor/CBORChainlink.sol\":520:521  6 */\n      0x06\n        /* \"@chainlink/contracts@1.2.0/src/v0.8/vendor/CBORChainlink.sol\":2664:2683  MAJOR_TYPE_TAG << 5 */\n      0xff\n      and\n      swap1\n      shl\n        /* \"@chainlink/contracts@1.2.0/src/v0.8/vendor/CBORChainlink.sol\":2663:2711  (MAJOR_TYPE_TAG << 5) | TAG_TYPE_NEGATIVE_BIGNUM */\n      or\n        /* \"@chainlink/contracts@1.2.0/src/v0.8/vendor/CBORChainlink.sol\":2641:2644  buf */\n      dup4\n        /* \"@chainlink/contracts@1.2.0/src/v0.8/vendor/CBORChainlink.sol\":2641:2656  buf.appendUint8 */\n      tag_190\n      swap1\n        /* \"@chainlink/contracts@1.2.0/src/v0.8/vendor/CBORChainlink.sol\":2641:2713  buf.appendUint8(uint8((MAJOR_TYPE_TAG << 5) | TAG_TYPE_NEGATIVE_BIGNUM)) */\n      swap2\n      swap1\n      0xffffffff\n      and\n      jump\t// in\n    tag_212:\n      pop\n        /* \"@chainlink/contracts@1.2.0/src/v0.8/vendor/CBORChainlink.sol\":2719:2768  encodeBytes(buf, abi.encode(uint256(-1 - input))) */\n      tag_213\n        /* \"@chainlink/contracts@1.2.0/src/v0.8/vendor/CBORChainlink.sol\":2731:2734  buf */\n      dup3\n        /* \"@chainlink/contracts@1.2.0/src/v0.8/vendor/CBORChainlink.sol\":2760:2765  input */\n      dup3\n        /* \"@chainlink/contracts@1.2.0/src/v0.8/vendor/CBORChainlink.sol\":2755:2757  -1 */\n      0xffffffffffffffffffffffffffffffffffffffffffffffffffffffffffffffff\n        /* \"@chainlink/contracts@1.2.0/src/v0.8/vendor/CBORChainlink.sol\":2755:2765  -1 - input */\n      tag_214\n      swap2\n      swap1\n      tag_165\n      jump\t// in\n    tag_214:\n        /* \"@chainlink/contracts@1.2.0/src/v0.8/vendor/CBORChainlink.sol\":2736:2767  abi.encode(uint256(-1 - input)) */\n      add(0x20, mload(0x40))\n      tag_215\n      swap2\n      swap1\n      tag_31\n      jump\t// in\n    tag_215:\n      mload(0x40)\n      0x20\n      dup2\n      dup4\n      sub\n      sub\n      dup2\n      mstore\n      swap1\n      0x40\n      mstore\n        /* \"@chainlink/contracts@1.2.0/src/v0.8/vendor/CBORChainlink.sol\":2719:2730  encodeBytes */\n      tag_216\n        /* \"@chainlink/contracts@1.2.0/src/v0.8/vendor/CBORChainlink.sol\":2719:2768  encodeBytes(buf, abi.encode(uint256(-1 - input))) */\n      jump\t// in\n    tag_213:\n        /* \"@chainlink/contracts@1.2.0/src/v0.8/vendor/CBORChainlink.sol\":2547:2773  function encodeSignedBigNum(BufferChainlink.buffer memory buf, int input) internal pure {... */\n      pop\n      pop\n      jump\t// out\n        /* \"@chainlink/contracts@1.2.0/src/v0.8/vendor/CBORChainlink.sol\":2345:2543  function encodeBigNum(BufferChainlink.buffer memory buf, uint value) internal pure {... */\n    tag_158:\n        /* \"@chainlink/contracts@1.2.0/src/v0.8/vendor/CBORChainlink.sol\":2434:2497  buf.appendUint8(uint8((MAJOR_TYPE_TAG << 5) | TAG_TYPE_BIGNUM)) */\n      tag_218\n        /* \"@chainlink/contracts@1.2.0/src/v0.8/vendor/CBORChainlink.sol\":621:622  2 */\n      0x02\n        /* \"@chainlink/contracts@1.2.0/src/v0.8/vendor/CBORChainlink.sol\":2475:2476  5 */\n      0x05\n        /* \"@chainlink/contracts@1.2.0/src/v0.8/vendor/CBORChainlink.sol\":520:521  6 */\n      0x06\n        /* \"@chainlink/contracts@1.2.0/src/v0.8/vendor/CBORChainlink.sol\":2457:2476  MAJOR_TYPE_TAG << 5 */\n      0xff\n      and\n      swap1\n      shl\n        /* \"@chainlink/contracts@1.2.0/src/v0.8/vendor/CBORChainlink.sol\":2456:2495  (MAJOR_TYPE_TAG << 5) | TAG_TYPE_BIGNUM */\n      or\n        /* \"@chainlink/contracts@1.2.0/src/v0.8/vendor/CBORChainlink.sol\":2434:2437  buf */\n      dup4\n        /* \"@chainlink/contracts@1.2.0/src/v0.8/vendor/CBORChainlink.sol\":2434:2449  buf.appendUint8 */\n      tag_190\n      swap1\n        /* \"@chainlink/contracts@1.2.0/src/v0.8/vendor/CBORChainlink.sol\":2434:2497  buf.appendUint8(uint8((MAJOR_TYPE_TAG << 5) | TAG_TYPE_BIGNUM)) */\n      swap2\n      swap1\n      0xffffffff\n      and\n      jump\t// in\n    tag_218:\n      pop\n        /* \"@chainlink/contracts@1.2.0/src/v0.8/vendor/CBORChainlink.sol\":2503:2538  encodeBytes(buf, abi.encode(value)) */\n      tag_219\n        /* \"@chainlink/contracts@1.2.0/src/v0.8/vendor/CBORChainlink.sol\":2515:2518  buf */\n      dup3\n        /* \"@chainlink/contracts@1.2.0/src/v0.8/vendor/CBORChainlink.sol\":2531:2536  value */\n      dup3\n        /* \"@chainlink/contracts@1.2.0/src/v0.8/vendor/CBORChainlink.sol\":2520:2537  abi.encode(value) */\n      add(0x20, mload(0x40))\n      tag_220\n      swap2\n      swap1\n      tag_31\n      jump\t// in\n    tag_220:\n      mload(0x40)\n      0x20\n      dup2\n      dup4\n      sub\n      sub\n      dup2\n      mstore\n      swap1\n      0x40\n      mstore\n        /* \"@chainlink/contracts@1.2.0/src/v0.8/vendor/CBORChainlink.sol\":2503:2514  encodeBytes */\n      tag_216\n        /* \"@chainlink/contracts@1.2.0/src/v0.8/vendor/CBORChainlink.sol\":2503:2538  encodeBytes(buf, abi.encode(value)) */\n      jump\t// in\n    tag_219:\n        /* \"@chainlink/contracts@1.2.0/src/v0.8/vendor/CBORChainlink.sol\":2345:2543  function encodeBigNum(BufferChainlink.buffer memory buf, uint value) internal pure {... */\n      pop\n      pop\n      jump\t// out\n        /* \"@chainlink/contracts@1.2.0/src/v0.8/vendor/BufferChainlink.sol\":6040:6185  function appendUint8(buffer memory buf, uint8 data) internal pure returns (buffer memory) {... */\n    tag_190:\n        /* \"@chainlink/contracts@1.2.0/src/v0.8/vendor/BufferChainlink.sol\":6115:6128  buffer memory */\n      tag_221\n      tag_178\n      jump\t// in\n    tag_221:\n        /* \"@chainlink/contracts@1.2.0/src/v0.8/vendor/BufferChainlink.sol\":6143:6180  writeUint8(buf, buf.buf.length, data) */\n      tag_223\n        /* \"@chainlink/contracts@1.2.0/src/v0.8/vendor/BufferChainlink.sol\":6154:6157  buf */\n      dup4\n        /* \"@chainlink/contracts@1.2.0/src/v0.8/vendor/BufferChainlink.sol\":6159:6162  buf */\n      dup5\n        /* \"@chainlink/contracts@1.2.0/src/v0.8/vendor/BufferChainlink.sol\":6159:6166  buf.buf */\n      0x00\n      add\n      mload\n        /* \"@chainlink/contracts@1.2.0/src/v0.8/vendor/BufferChainlink.sol\":6159:6173  buf.buf.length */\n      mload\n        /* \"@chainlink/contracts@1.2.0/src/v0.8/vendor/BufferChainlink.sol\":6175:6179  data */\n      dup5\n        /* \"@chainlink/contracts@1.2.0/src/v0.8/vendor/BufferChainlink.sol\":6143:6153  writeUint8 */\n      tag_224\n        /* \"@chainlink/contracts@1.2.0/src/v0.8/vendor/BufferChainlink.sol\":6143:6180  writeUint8(buf, buf.buf.length, data) */\n      jump\t// in\n    tag_223:\n        /* \"@chainlink/contracts@1.2.0/src/v0.8/vendor/BufferChainlink.sol\":6136:6180  return writeUint8(buf, buf.buf.length, data) */\n      swap1\n      pop\n        /* \"@chainlink/contracts@1.2.0/src/v0.8/vendor/BufferChainlink.sol\":6040:6185  function appendUint8(buffer memory buf, uint8 data) internal pure returns (buffer memory) {... */\n      swap3\n      swap2\n      pop\n      pop\n      jump\t// out\n        /* \"@chainlink/contracts@1.2.0/src/v0.8/vendor/BufferChainlink.sol\":9894:10071  function appendInt(... */\n    tag_195:\n        /* \"@chainlink/contracts@1.2.0/src/v0.8/vendor/BufferChainlink.sol\":9998:10011  buffer memory */\n      tag_225\n      tag_178\n      jump\t// in\n    tag_225:\n        /* \"@chainlink/contracts@1.2.0/src/v0.8/vendor/BufferChainlink.sol\":10026:10066  writeInt(buf, buf.buf.length, data, len) */\n      tag_227\n        /* \"@chainlink/contracts@1.2.0/src/v0.8/vendor/BufferChainlink.sol\":10035:10038  buf */\n      dup5\n        /* \"@chainlink/contracts@1.2.0/src/v0.8/vendor/BufferChainlink.sol\":10040:10043  buf */\n      dup6\n        /* \"@chainlink/contracts@1.2.0/src/v0.8/vendor/BufferChainlink.sol\":10040:10047  buf.buf */\n      0x00\n      add\n      mload\n        /* \"@chainlink/contracts@1.2.0/src/v0.8/vendor/BufferChainlink.sol\":10040:10054  buf.buf.length */\n      mload\n        /* \"@chainlink/contracts@1.2.0/src/v0.8/vendor/BufferChainlink.sol\":10056:10060  data */\n      dup6\n        /* \"@chainlink/contracts@1.2.0/src/v0.8/vendor/BufferChainlink.sol\":10062:10065  len */\n      dup6\n        /* \"@chainlink/contracts@1.2.0/src/v0.8/vendor/BufferChainlink.sol\":10026:10034  writeInt */\n      tag_228\n        /* \"@chainlink/contracts@1.2.0/src/v0.8/vendor/BufferChainlink.sol\":10026:10066  writeInt(buf, buf.buf.length, data, len) */\n      jump\t// in\n    tag_227:\n        /* \"@chainlink/contracts@1.2.0/src/v0.8/vendor/BufferChainlink.sol\":10019:10066  return writeInt(buf, buf.buf.length, data, len) */\n      swap1\n      pop\n        /* \"@chainlink/contracts@1.2.0/src/v0.8/vendor/BufferChainlink.sol\":9894:10071  function appendInt(... */\n      swap4\n      swap3\n      pop\n      pop\n      pop\n      jump\t// out\n        /* \"@chainlink/contracts@1.2.0/src/v0.8/vendor/BufferChainlink.sol\":2745:3955  function write(... */\n    tag_210:\n        /* \"@chainlink/contracts@1.2.0/src/v0.8/vendor/BufferChainlink.sol\":2867:2880  buffer memory */\n      tag_229\n      tag_178\n      jump\t// in\n    tag_229:\n        /* \"@chainlink/contracts@1.2.0/src/v0.8/vendor/BufferChainlink.sol\":2903:2907  data */\n      dup3\n        /* \"@chainlink/contracts@1.2.0/src/v0.8/vendor/BufferChainlink.sol\":2903:2914  data.length */\n      mload\n        /* \"@chainlink/contracts@1.2.0/src/v0.8/vendor/BufferChainlink.sol\":2896:2899  len */\n      dup3\n        /* \"@chainlink/contracts@1.2.0/src/v0.8/vendor/BufferChainlink.sol\":2896:2914  len <= data.length */\n      gt\n      iszero\n        /* \"@chainlink/contracts@1.2.0/src/v0.8/vendor/BufferChainlink.sol\":2888:2915  require(len <= data.length) */\n      tag_231\n      jumpi\n      0x00\n      dup1\n      revert\n    tag_231:\n        /* \"@chainlink/contracts@1.2.0/src/v0.8/vendor/BufferChainlink.sol\":2938:2941  buf */\n      dup5\n        /* \"@chainlink/contracts@1.2.0/src/v0.8/vendor/BufferChainlink.sol\":2938:2950  buf.capacity */\n      0x20\n      add\n      mload\n        /* \"@chainlink/contracts@1.2.0/src/v0.8/vendor/BufferChainlink.sol\":2932:2935  len */\n      dup3\n        /* \"@chainlink/contracts@1.2.0/src/v0.8/vendor/BufferChainlink.sol\":2926:2929  off */\n      dup6\n        /* \"@chainlink/contracts@1.2.0/src/v0.8/vendor/BufferChainlink.sol\":2926:2935  off + len */\n      tag_232\n      swap2\n      swap1\n      tag_127\n      jump\t// in\n    tag_232:\n        /* \"@chainlink/contracts@1.2.0/src/v0.8/vendor/BufferChainlink.sol\":2926:2950  off + len > buf.capacity */\n      gt\n        /* \"@chainlink/contracts@1.2.0/src/v0.8/vendor/BufferChainlink.sol\":2922:3012  if (off + len > buf.capacity) {... */\n      iszero\n      tag_233\n      jumpi\n        /* \"@chainlink/contracts@1.2.0/src/v0.8/vendor/BufferChainlink.sol\":2960:3005  resize(buf, max(buf.capacity, len + off) * 2) */\n      tag_234\n        /* \"@chainlink/contracts@1.2.0/src/v0.8/vendor/BufferChainlink.sol\":2967:2970  buf */\n      dup6\n        /* \"@chainlink/contracts@1.2.0/src/v0.8/vendor/BufferChainlink.sol\":3003:3004  2 */\n      0x02\n        /* \"@chainlink/contracts@1.2.0/src/v0.8/vendor/BufferChainlink.sol\":2972:3000  max(buf.capacity, len + off) */\n      tag_235\n        /* \"@chainlink/contracts@1.2.0/src/v0.8/vendor/BufferChainlink.sol\":2976:2979  buf */\n      dup9\n        /* \"@chainlink/contracts@1.2.0/src/v0.8/vendor/BufferChainlink.sol\":2976:2988  buf.capacity */\n      0x20\n      add\n      mload\n        /* \"@chainlink/contracts@1.2.0/src/v0.8/vendor/BufferChainlink.sol\":2996:2999  off */\n      dup9\n        /* \"@chainlink/contracts@1.2.0/src/v0.8/vendor/BufferChainlink.sol\":2990:2993  len */\n      dup8\n        /* \"@chainlink/contracts@1.2.0/src/v0.8/vendor/BufferChainlink.sol\":2990:2999  len + off */\n      tag_236\n      swap2\n      swap1\n      tag_127\n      jump\t// in\n    tag_236:\n        /* \"@chainlink/contracts@1.2.0/src/v0.8/vendor/BufferChainlink.sol\":2972:2975  max */\n      tag_237\n        /* \"@chainlink/contracts@1.2.0/src/v0.8/vendor/BufferChainlink.sol\":2972:3000  max(buf.capacity, len + off) */\n      jump\t// in\n    tag_235:\n        /* \"@chainlink/contracts@1.2.0/src/v0.8/vendor/BufferChainlink.sol\":2972:3004  max(buf.capacity, len + off) * 2 */\n      tag_238\n      swap2\n      swap1\n      tag_90\n      jump\t// in\n    tag_238:\n        /* \"@chainlink/contracts@1.2.0/src/v0.8/vendor/BufferChainlink.sol\":2960:2966  resize */\n      tag_239\n        /* \"@chainlink/contracts@1.2.0/src/v0.8/vendor/BufferChainlink.sol\":2960:3005  resize(buf, max(buf.capacity, len + off) * 2) */\n      jump\t// in\n    tag_234:\n        /* \"@chainlink/contracts@1.2.0/src/v0.8/vendor/BufferChainlink.sol\":2922:3012  if (off + len > buf.capacity) {... */\n    tag_233:\n        /* \"@chainlink/contracts@1.2.0/src/v0.8/vendor/BufferChainlink.sol\":3018:3030  uint256 dest */\n      0x00\n        /* \"@chainlink/contracts@1.2.0/src/v0.8/vendor/BufferChainlink.sol\":3036:3047  uint256 src */\n      dup1\n        /* \"@chainlink/contracts@1.2.0/src/v0.8/vendor/BufferChainlink.sol\":3133:3136  buf */\n      dup7\n        /* \"@chainlink/contracts@1.2.0/src/v0.8/vendor/BufferChainlink.sol\":3127:3137  mload(buf) */\n      mload\n        /* \"@chainlink/contracts@1.2.0/src/v0.8/vendor/BufferChainlink.sol\":3204:3210  bufptr */\n      dup1\n        /* \"@chainlink/contracts@1.2.0/src/v0.8/vendor/BufferChainlink.sol\":3198:3211  mload(bufptr) */\n      mload\n        /* \"@chainlink/contracts@1.2.0/src/v0.8/vendor/BufferChainlink.sol\":3320:3323  off */\n      dup8\n        /* \"@chainlink/contracts@1.2.0/src/v0.8/vendor/BufferChainlink.sol\":3315:3317  32 */\n      0x20\n        /* \"@chainlink/contracts@1.2.0/src/v0.8/vendor/BufferChainlink.sol\":3307:3313  bufptr */\n      dup4\n        /* \"@chainlink/contracts@1.2.0/src/v0.8/vendor/BufferChainlink.sol\":3303:3318  add(bufptr, 32) */\n      add\n        /* \"@chainlink/contracts@1.2.0/src/v0.8/vendor/BufferChainlink.sol\":3299:3324  add(add(bufptr, 32), off) */\n      add\n        /* \"@chainlink/contracts@1.2.0/src/v0.8/vendor/BufferChainlink.sol\":3291:3324  dest := add(add(bufptr, 32), off) */\n      swap4\n      pop\n        /* \"@chainlink/contracts@1.2.0/src/v0.8/vendor/BufferChainlink.sol\":3404:3410  buflen */\n      dup1\n        /* \"@chainlink/contracts@1.2.0/src/v0.8/vendor/BufferChainlink.sol\":3398:3401  off */\n      dup9\n        /* \"@chainlink/contracts@1.2.0/src/v0.8/vendor/BufferChainlink.sol\":3393:3396  len */\n      dup8\n        /* \"@chainlink/contracts@1.2.0/src/v0.8/vendor/BufferChainlink.sol\":3389:3402  add(len, off) */\n      add\n        /* \"@chainlink/contracts@1.2.0/src/v0.8/vendor/BufferChainlink.sol\":3386:3411  gt(add(len, off), buflen) */\n      gt\n        /* \"@chainlink/contracts@1.2.0/src/v0.8/vendor/BufferChainlink.sol\":3383:3459  if gt(add(len, off), buflen) {... */\n      iszero\n      tag_240\n      jumpi\n        /* \"@chainlink/contracts@1.2.0/src/v0.8/vendor/BufferChainlink.sol\":3446:3449  off */\n      dup8\n        /* \"@chainlink/contracts@1.2.0/src/v0.8/vendor/BufferChainlink.sol\":3441:3444  len */\n      dup7\n        /* \"@chainlink/contracts@1.2.0/src/v0.8/vendor/BufferChainlink.sol\":3437:3450  add(len, off) */\n      add\n        /* \"@chainlink/contracts@1.2.0/src/v0.8/vendor/BufferChainlink.sol\":3429:3435  bufptr */\n      dup3\n        /* \"@chainlink/contracts@1.2.0/src/v0.8/vendor/BufferChainlink.sol\":3422:3451  mstore(bufptr, add(len, off)) */\n      mstore\n        /* \"@chainlink/contracts@1.2.0/src/v0.8/vendor/BufferChainlink.sol\":3383:3459  if gt(add(len, off), buflen) {... */\n    tag_240:\n        /* \"@chainlink/contracts@1.2.0/src/v0.8/vendor/BufferChainlink.sol\":3483:3485  32 */\n      0x20\n        /* \"@chainlink/contracts@1.2.0/src/v0.8/vendor/BufferChainlink.sol\":3477:3481  data */\n      dup8\n        /* \"@chainlink/contracts@1.2.0/src/v0.8/vendor/BufferChainlink.sol\":3473:3486  add(data, 32) */\n      add\n        /* \"@chainlink/contracts@1.2.0/src/v0.8/vendor/BufferChainlink.sol\":3466:3486  src := add(data, 32) */\n      swap3\n      pop\n        /* \"@chainlink/contracts@1.2.0/src/v0.8/vendor/BufferChainlink.sol\":3062:3492  {... */\n      pop\n      pop\n        /* \"@chainlink/contracts@1.2.0/src/v0.8/vendor/BufferChainlink.sol\":3544:3673  for (; len >= 32; len -= 32) {... */\n    tag_241:\n        /* \"@chainlink/contracts@1.2.0/src/v0.8/vendor/BufferChainlink.sol\":3558:3560  32 */\n      0x20\n        /* \"@chainlink/contracts@1.2.0/src/v0.8/vendor/BufferChainlink.sol\":3551:3554  len */\n      dup5\n        /* \"@chainlink/contracts@1.2.0/src/v0.8/vendor/BufferChainlink.sol\":3551:3560  len >= 32 */\n      lt\n        /* \"@chainlink/contracts@1.2.0/src/v0.8/vendor/BufferChainlink.sol\":3544:3673  for (; len >= 32; len -= 32) {... */\n      tag_242\n      jumpi\n        /* \"@chainlink/contracts@1.2.0/src/v0.8/vendor/BufferChainlink.sol\":3619:3622  src */\n      dup1\n        /* \"@chainlink/contracts@1.2.0/src/v0.8/vendor/BufferChainlink.sol\":3613:3623  mload(src) */\n      mload\n        /* \"@chainlink/contracts@1.2.0/src/v0.8/vendor/BufferChainlink.sol\":3607:3611  dest */\n      dup3\n        /* \"@chainlink/contracts@1.2.0/src/v0.8/vendor/BufferChainlink.sol\":3600:3624  mstore(dest, mload(src)) */\n      mstore\n        /* \"@chainlink/contracts@1.2.0/src/v0.8/vendor/BufferChainlink.sol\":3647:3649  32 */\n      0x20\n        /* \"@chainlink/contracts@1.2.0/src/v0.8/vendor/BufferChainlink.sol\":3639:3649  dest += 32 */\n      dup3\n      tag_244\n      swap2\n      swap1\n      tag_127\n      jump\t// in\n    tag_244:\n      swap2\n      pop\n        /* \"@chainlink/contracts@1.2.0/src/v0.8/vendor/BufferChainlink.sol\":3664:3666  32 */\n      0x20\n        /* \"@chainlink/contracts@1.2.0/src/v0.8/vendor/BufferChainlink.sol\":3657:3666  src += 32 */\n      dup2\n      tag_245\n      swap2\n      swap1\n      tag_127\n      jump\t// in\n    tag_245:\n      swap1\n      pop\n        /* \"@chainlink/contracts@1.2.0/src/v0.8/vendor/BufferChainlink.sol\":3569:3571  32 */\n      0x20\n        /* \"@chainlink/contracts@1.2.0/src/v0.8/vendor/BufferChainlink.sol\":3562:3571  len -= 32 */\n      dup5\n      tag_246\n      swap2\n      swap1\n      tag_185\n      jump\t// in\n    tag_246:\n      swap4\n      pop\n        /* \"@chainlink/contracts@1.2.0/src/v0.8/vendor/BufferChainlink.sol\":3544:3673  for (; len >= 32; len -= 32) {... */\n      jump(tag_241)\n    tag_242:\n        /* \"@chainlink/contracts@1.2.0/src/v0.8/vendor/BufferChainlink.sol\":3725:3737  uint256 mask */\n      0x00\n        /* \"@chainlink/contracts@1.2.0/src/v0.8/vendor/BufferChainlink.sol\":3760:3761  1 */\n      0x01\n        /* \"@chainlink/contracts@1.2.0/src/v0.8/vendor/BufferChainlink.sol\":3752:3755  len */\n      dup6\n        /* \"@chainlink/contracts@1.2.0/src/v0.8/vendor/BufferChainlink.sol\":3747:3749  32 */\n      0x20\n        /* \"@chainlink/contracts@1.2.0/src/v0.8/vendor/BufferChainlink.sol\":3747:3755  32 - len */\n      sub\n        /* \"@chainlink/contracts@1.2.0/src/v0.8/vendor/BufferChainlink.sol\":3741:3744  256 */\n      0x0100\n        /* \"@chainlink/contracts@1.2.0/src/v0.8/vendor/BufferChainlink.sol\":3741:3756  256**(32 - len) */\n      exp\n        /* \"@chainlink/contracts@1.2.0/src/v0.8/vendor/BufferChainlink.sol\":3740:3761  (256**(32 - len)) - 1 */\n      sub\n        /* \"@chainlink/contracts@1.2.0/src/v0.8/vendor/BufferChainlink.sol\":3725:3761  uint256 mask = (256**(32 - len)) - 1 */\n      swap1\n      pop\n        /* \"@chainlink/contracts@1.2.0/src/v0.8/vendor/BufferChainlink.sol\":3823:3827  mask */\n      dup1\n        /* \"@chainlink/contracts@1.2.0/src/v0.8/vendor/BufferChainlink.sol\":3819:3828  not(mask) */\n      not\n        /* \"@chainlink/contracts@1.2.0/src/v0.8/vendor/BufferChainlink.sol\":3813:3816  src */\n      dup3\n        /* \"@chainlink/contracts@1.2.0/src/v0.8/vendor/BufferChainlink.sol\":3807:3817  mload(src) */\n      mload\n        /* \"@chainlink/contracts@1.2.0/src/v0.8/vendor/BufferChainlink.sol\":3803:3829  and(mload(src), not(mask)) */\n      and\n        /* \"@chainlink/contracts@1.2.0/src/v0.8/vendor/BufferChainlink.sol\":3871:3875  mask */\n      dup2\n        /* \"@chainlink/contracts@1.2.0/src/v0.8/vendor/BufferChainlink.sol\":3864:3868  dest */\n      dup5\n        /* \"@chainlink/contracts@1.2.0/src/v0.8/vendor/BufferChainlink.sol\":3858:3869  mload(dest) */\n      mload\n        /* \"@chainlink/contracts@1.2.0/src/v0.8/vendor/BufferChainlink.sol\":3854:3876  and(mload(dest), mask) */\n      and\n        /* \"@chainlink/contracts@1.2.0/src/v0.8/vendor/BufferChainlink.sol\":3911:3918  srcpart */\n      dup2\n        /* \"@chainlink/contracts@1.2.0/src/v0.8/vendor/BufferChainlink.sol\":3901:3909  destpart */\n      dup2\n        /* \"@chainlink/contracts@1.2.0/src/v0.8/vendor/BufferChainlink.sol\":3898:3919  or(destpart, srcpart) */\n      or\n        /* \"@chainlink/contracts@1.2.0/src/v0.8/vendor/BufferChainlink.sol\":3892:3896  dest */\n      dup6\n        /* \"@chainlink/contracts@1.2.0/src/v0.8/vendor/BufferChainlink.sol\":3885:3920  mstore(dest, or(destpart, srcpart)) */\n      mstore\n        /* \"@chainlink/contracts@1.2.0/src/v0.8/vendor/BufferChainlink.sol\":3778:3928  {... */\n      pop\n      pop\n      pop\n        /* \"@chainlink/contracts@1.2.0/src/v0.8/vendor/BufferChainlink.sol\":3947:3950  buf */\n      dup7\n        /* \"@chainlink/contracts@1.2.0/src/v0.8/vendor/BufferChainlink.sol\":3940:3950  return buf */\n      swap3\n      pop\n      pop\n      pop\n        /* \"@chainlink/contracts@1.2.0/src/v0.8/vendor/BufferChainlink.sol\":2745:3955  function write(... */\n      swap5\n      swap4\n      pop\n      pop\n      pop\n      pop\n      jump\t// out\n        /* \"@chainlink/contracts@1.2.0/src/v0.8/vendor/CBORChainlink.sol\":2154:2341  function encodeBytes(BufferChainlink.buffer memory buf, bytes memory value) internal pure {... */\n    tag_216:\n        /* \"@chainlink/contracts@1.2.0/src/v0.8/vendor/CBORChainlink.sol\":2250:2313  encodeFixedNumeric(buf, MAJOR_TYPE_BYTES, uint64(value.length)) */\n      tag_248\n        /* \"@chainlink/contracts@1.2.0/src/v0.8/vendor/CBORChainlink.sol\":2269:2272  buf */\n      dup3\n        /* \"@chainlink/contracts@1.2.0/src/v0.8/vendor/CBORChainlink.sol\":335:336  2 */\n      0x02\n        /* \"@chainlink/contracts@1.2.0/src/v0.8/vendor/CBORChainlink.sol\":2299:2304  value */\n      dup4\n        /* \"@chainlink/contracts@1.2.0/src/v0.8/vendor/CBORChainlink.sol\":2299:2311  value.length */\n      mload\n        /* \"@chainlink/contracts@1.2.0/src/v0.8/vendor/CBORChainlink.sol\":2250:2268  encodeFixedNumeric */\n      tag_148\n        /* \"@chainlink/contracts@1.2.0/src/v0.8/vendor/CBORChainlink.sol\":2250:2313  encodeFixedNumeric(buf, MAJOR_TYPE_BYTES, uint64(value.length)) */\n      jump\t// in\n    tag_248:\n        /* \"@chainlink/contracts@1.2.0/src/v0.8/vendor/CBORChainlink.sol\":2319:2336  buf.append(value) */\n      tag_249\n        /* \"@chainlink/contracts@1.2.0/src/v0.8/vendor/CBORChainlink.sol\":2330:2335  value */\n      dup2\n        /* \"@chainlink/contracts@1.2.0/src/v0.8/vendor/CBORChainlink.sol\":2319:2322  buf */\n      dup4\n        /* \"@chainlink/contracts@1.2.0/src/v0.8/vendor/CBORChainlink.sol\":2319:2329  buf.append */\n      tag_150\n      swap1\n        /* \"@chainlink/contracts@1.2.0/src/v0.8/vendor/CBORChainlink.sol\":2319:2336  buf.append(value) */\n      swap2\n      swap1\n      0xffffffff\n      and\n      jump\t// in\n    tag_249:\n      pop\n        /* \"@chainlink/contracts@1.2.0/src/v0.8/vendor/CBORChainlink.sol\":2154:2341  function encodeBytes(BufferChainlink.buffer memory buf, bytes memory value) internal pure {... */\n      pop\n      pop\n      jump\t// out\n        /* \"@chainlink/contracts@1.2.0/src/v0.8/vendor/BufferChainlink.sol\":5148:5787  function writeUint8(... */\n    tag_224:\n        /* \"@chainlink/contracts@1.2.0/src/v0.8/vendor/BufferChainlink.sol\":5251:5264  buffer memory */\n      tag_250\n      tag_178\n      jump\t// in\n    tag_250:\n        /* \"@chainlink/contracts@1.2.0/src/v0.8/vendor/BufferChainlink.sol\":5283:5286  buf */\n      dup4\n        /* \"@chainlink/contracts@1.2.0/src/v0.8/vendor/BufferChainlink.sol\":5283:5295  buf.capacity */\n      0x20\n      add\n      mload\n        /* \"@chainlink/contracts@1.2.0/src/v0.8/vendor/BufferChainlink.sol\":5276:5279  off */\n      dup4\n        /* \"@chainlink/contracts@1.2.0/src/v0.8/vendor/BufferChainlink.sol\":5276:5295  off >= buf.capacity */\n      lt\n        /* \"@chainlink/contracts@1.2.0/src/v0.8/vendor/BufferChainlink.sol\":5272:5341  if (off >= buf.capacity) {... */\n      tag_252\n      jumpi\n        /* \"@chainlink/contracts@1.2.0/src/v0.8/vendor/BufferChainlink.sol\":5305:5334  resize(buf, buf.capacity * 2) */\n      tag_253\n        /* \"@chainlink/contracts@1.2.0/src/v0.8/vendor/BufferChainlink.sol\":5312:5315  buf */\n      dup5\n        /* \"@chainlink/contracts@1.2.0/src/v0.8/vendor/BufferChainlink.sol\":5332:5333  2 */\n      0x02\n        /* \"@chainlink/contracts@1.2.0/src/v0.8/vendor/BufferChainlink.sol\":5317:5320  buf */\n      dup7\n        /* \"@chainlink/contracts@1.2.0/src/v0.8/vendor/BufferChainlink.sol\":5317:5329  buf.capacity */\n      0x20\n      add\n      mload\n        /* \"@chainlink/contracts@1.2.0/src/v0.8/vendor/BufferChainlink.sol\":5317:5333  buf.capacity * 2 */\n      tag_254\n      swap2\n      swap1\n      tag_90\n      jump\t// in\n    tag_254:\n        /* \"@chainlink/contracts@1.2.0/src/v0.8/vendor/BufferChainlink.sol\":5305:5311  resize */\n      tag_239\n        /* \"@chainlink/contracts@1.2.0/src/v0.8/vendor/BufferChainlink.sol\":5305:5334  resize(buf, buf.capacity * 2) */\n      jump\t// in\n    tag_253:\n        /* \"@chainlink/contracts@1.2.0/src/v0.8/vendor/BufferChainlink.sol\":5272:5341  if (off >= buf.capacity) {... */\n    tag_252:\n        /* \"@chainlink/contracts@1.2.0/src/v0.8/vendor/BufferChainlink.sol\":5427:5430  buf */\n      dup4\n        /* \"@chainlink/contracts@1.2.0/src/v0.8/vendor/BufferChainlink.sol\":5421:5431  mload(buf) */\n      mload\n        /* \"@chainlink/contracts@1.2.0/src/v0.8/vendor/BufferChainlink.sol\":5498:5504  bufptr */\n      dup1\n        /* \"@chainlink/contracts@1.2.0/src/v0.8/vendor/BufferChainlink.sol\":5492:5505  mload(bufptr) */\n      mload\n        /* \"@chainlink/contracts@1.2.0/src/v0.8/vendor/BufferChainlink.sol\":5610:5612  32 */\n      0x20\n        /* \"@chainlink/contracts@1.2.0/src/v0.8/vendor/BufferChainlink.sol\":5604:5607  off */\n      dup6\n        /* \"@chainlink/contracts@1.2.0/src/v0.8/vendor/BufferChainlink.sol\":5596:5602  bufptr */\n      dup4\n        /* \"@chainlink/contracts@1.2.0/src/v0.8/vendor/BufferChainlink.sol\":5592:5608  add(bufptr, off) */\n      add\n        /* \"@chainlink/contracts@1.2.0/src/v0.8/vendor/BufferChainlink.sol\":5588:5613  add(add(bufptr, off), 32) */\n      add\n        /* \"@chainlink/contracts@1.2.0/src/v0.8/vendor/BufferChainlink.sol\":5634:5638  data */\n      dup5\n        /* \"@chainlink/contracts@1.2.0/src/v0.8/vendor/BufferChainlink.sol\":5628:5632  dest */\n      dup2\n        /* \"@chainlink/contracts@1.2.0/src/v0.8/vendor/BufferChainlink.sol\":5620:5639  mstore8(dest, data) */\n      mstore8\n        /* \"@chainlink/contracts@1.2.0/src/v0.8/vendor/BufferChainlink.sol\":5705:5711  buflen */\n      dup2\n        /* \"@chainlink/contracts@1.2.0/src/v0.8/vendor/BufferChainlink.sol\":5700:5703  off */\n      dup7\n        /* \"@chainlink/contracts@1.2.0/src/v0.8/vendor/BufferChainlink.sol\":5697:5712  eq(off, buflen) */\n      sub\n        /* \"@chainlink/contracts@1.2.0/src/v0.8/vendor/BufferChainlink.sol\":5694:5761  if eq(off, buflen) {... */\n      tag_255\n      jumpi\n        /* \"@chainlink/contracts@1.2.0/src/v0.8/vendor/BufferChainlink.sol\":5750:5751  1 */\n      0x01\n        /* \"@chainlink/contracts@1.2.0/src/v0.8/vendor/BufferChainlink.sol\":5742:5748  buflen */\n      dup3\n        /* \"@chainlink/contracts@1.2.0/src/v0.8/vendor/BufferChainlink.sol\":5738:5752  add(buflen, 1) */\n      add\n        /* \"@chainlink/contracts@1.2.0/src/v0.8/vendor/BufferChainlink.sol\":5730:5736  bufptr */\n      dup4\n        /* \"@chainlink/contracts@1.2.0/src/v0.8/vendor/BufferChainlink.sol\":5723:5753  mstore(bufptr, add(buflen, 1)) */\n      mstore\n        /* \"@chainlink/contracts@1.2.0/src/v0.8/vendor/BufferChainlink.sol\":5694:5761  if eq(off, buflen) {... */\n    tag_255:\n        /* \"@chainlink/contracts@1.2.0/src/v0.8/vendor/BufferChainlink.sol\":5356:5767  {... */\n      pop\n      pop\n      pop\n        /* \"@chainlink/contracts@1.2.0/src/v0.8/vendor/BufferChainlink.sol\":5779:5782  buf */\n      dup4\n        /* \"@chainlink/contracts@1.2.0/src/v0.8/vendor/BufferChainlink.sol\":5772:5782  return buf */\n      swap1\n      pop\n        /* \"@chainlink/contracts@1.2.0/src/v0.8/vendor/BufferChainlink.sol\":5148:5787  function writeUint8(... */\n      swap4\n      swap3\n      pop\n      pop\n      pop\n      jump\t// out\n        /* \"@chainlink/contracts@1.2.0/src/v0.8/vendor/BufferChainlink.sol\":8974:9649  function writeInt(... */\n    tag_228:\n        /* \"@chainlink/contracts@1.2.0/src/v0.8/vendor/BufferChainlink.sol\":9093:9106  buffer memory */\n      tag_256\n      tag_178\n      jump\t// in\n    tag_256:\n        /* \"@chainlink/contracts@1.2.0/src/v0.8/vendor/BufferChainlink.sol\":9130:9133  buf */\n      dup5\n        /* \"@chainlink/contracts@1.2.0/src/v0.8/vendor/BufferChainlink.sol\":9130:9142  buf.capacity */\n      0x20\n      add\n      mload\n        /* \"@chainlink/contracts@1.2.0/src/v0.8/vendor/BufferChainlink.sol\":9124:9127  off */\n      dup5\n        /* \"@chainlink/contracts@1.2.0/src/v0.8/vendor/BufferChainlink.sol\":9118:9121  len */\n      dup4\n        /* \"@chainlink/contracts@1.2.0/src/v0.8/vendor/BufferChainlink.sol\":9118:9127  len + off */\n      tag_258\n      swap2\n      swap1\n      tag_127\n      jump\t// in\n    tag_258:\n        /* \"@chainlink/contracts@1.2.0/src/v0.8/vendor/BufferChainlink.sol\":9118:9142  len + off > buf.capacity */\n      gt\n        /* \"@chainlink/contracts@1.2.0/src/v0.8/vendor/BufferChainlink.sol\":9114:9187  if (len + off > buf.capacity) {... */\n      iszero\n      tag_259\n      jumpi\n        /* \"@chainlink/contracts@1.2.0/src/v0.8/vendor/BufferChainlink.sol\":9152:9180  resize(buf, (len + off) * 2) */\n      tag_260\n        /* \"@chainlink/contracts@1.2.0/src/v0.8/vendor/BufferChainlink.sol\":9159:9162  buf */\n      dup6\n        /* \"@chainlink/contracts@1.2.0/src/v0.8/vendor/BufferChainlink.sol\":9178:9179  2 */\n      0x02\n        /* \"@chainlink/contracts@1.2.0/src/v0.8/vendor/BufferChainlink.sol\":9171:9174  off */\n      dup7\n        /* \"@chainlink/contracts@1.2.0/src/v0.8/vendor/BufferChainlink.sol\":9165:9168  len */\n      dup6\n        /* \"@chainlink/contracts@1.2.0/src/v0.8/vendor/BufferChainlink.sol\":9165:9174  len + off */\n      tag_261\n      swap2\n      swap1\n      tag_127\n      jump\t// in\n    tag_261:\n        /* \"@chainlink/contracts@1.2.0/src/v0.8/vendor/BufferChainlink.sol\":9164:9179  (len + off) * 2 */\n      tag_262\n      swap2\n      swap1\n      tag_90\n      jump\t// in\n    tag_262:\n        /* \"@chainlink/contracts@1.2.0/src/v0.8/vendor/BufferChainlink.sol\":9152:9158  resize */\n      tag_239\n        /* \"@chainlink/contracts@1.2.0/src/v0.8/vendor/BufferChainlink.sol\":9152:9180  resize(buf, (len + off) * 2) */\n      jump\t// in\n    tag_260:\n        /* \"@chainlink/contracts@1.2.0/src/v0.8/vendor/BufferChainlink.sol\":9114:9187  if (len + off > buf.capacity) {... */\n    tag_259:\n        /* \"@chainlink/contracts@1.2.0/src/v0.8/vendor/BufferChainlink.sol\":9193:9205  uint256 mask */\n      0x00\n        /* \"@chainlink/contracts@1.2.0/src/v0.8/vendor/BufferChainlink.sol\":9221:9222  1 */\n      0x01\n        /* \"@chainlink/contracts@1.2.0/src/v0.8/vendor/BufferChainlink.sol\":9214:9217  len */\n      dup4\n        /* \"@chainlink/contracts@1.2.0/src/v0.8/vendor/BufferChainlink.sol\":9209:9212  256 */\n      0x0100\n        /* \"@chainlink/contracts@1.2.0/src/v0.8/vendor/BufferChainlink.sol\":9209:9217  256**len */\n      tag_263\n      swap2\n      swap1\n      tag_264\n      jump\t// in\n    tag_263:\n        /* \"@chainlink/contracts@1.2.0/src/v0.8/vendor/BufferChainlink.sol\":9208:9222  (256**len) - 1 */\n      tag_265\n      swap2\n      swap1\n      tag_185\n      jump\t// in\n    tag_265:\n        /* \"@chainlink/contracts@1.2.0/src/v0.8/vendor/BufferChainlink.sol\":9193:9222  uint256 mask = (256**len) - 1 */\n      swap1\n      pop\n        /* \"@chainlink/contracts@1.2.0/src/v0.8/vendor/BufferChainlink.sol\":9308:9311  buf */\n      dup6\n        /* \"@chainlink/contracts@1.2.0/src/v0.8/vendor/BufferChainlink.sol\":9302:9312  mload(buf) */\n      mload\n        /* \"@chainlink/contracts@1.2.0/src/v0.8/vendor/BufferChainlink.sol\":9423:9426  len */\n      dup4\n        /* \"@chainlink/contracts@1.2.0/src/v0.8/vendor/BufferChainlink.sol\":9417:9420  off */\n      dup7\n        /* \"@chainlink/contracts@1.2.0/src/v0.8/vendor/BufferChainlink.sol\":9409:9415  bufptr */\n      dup3\n        /* \"@chainlink/contracts@1.2.0/src/v0.8/vendor/BufferChainlink.sol\":9405:9421  add(bufptr, off) */\n      add\n        /* \"@chainlink/contracts@1.2.0/src/v0.8/vendor/BufferChainlink.sol\":9401:9427  add(add(bufptr, off), len) */\n      add\n        /* \"@chainlink/contracts@1.2.0/src/v0.8/vendor/BufferChainlink.sol\":9479:9483  data */\n      dup6\n        /* \"@chainlink/contracts@1.2.0/src/v0.8/vendor/BufferChainlink.sol\":9471:9475  mask */\n      dup4\n        /* \"@chainlink/contracts@1.2.0/src/v0.8/vendor/BufferChainlink.sol\":9467:9476  not(mask) */\n      not\n        /* \"@chainlink/contracts@1.2.0/src/v0.8/vendor/BufferChainlink.sol\":9460:9464  dest */\n      dup3\n        /* \"@chainlink/contracts@1.2.0/src/v0.8/vendor/BufferChainlink.sol\":9454:9465  mload(dest) */\n      mload\n        /* \"@chainlink/contracts@1.2.0/src/v0.8/vendor/BufferChainlink.sol\":9450:9477  and(mload(dest), not(mask)) */\n      and\n        /* \"@chainlink/contracts@1.2.0/src/v0.8/vendor/BufferChainlink.sol\":9447:9484  or(and(mload(dest), not(mask)), data) */\n      or\n        /* \"@chainlink/contracts@1.2.0/src/v0.8/vendor/BufferChainlink.sol\":9441:9445  dest */\n      dup2\n        /* \"@chainlink/contracts@1.2.0/src/v0.8/vendor/BufferChainlink.sol\":9434:9485  mstore(dest, or(and(mload(dest), not(mask)), data)) */\n      mstore\n        /* \"@chainlink/contracts@1.2.0/src/v0.8/vendor/BufferChainlink.sol\":9567:9573  bufptr */\n      dup2\n        /* \"@chainlink/contracts@1.2.0/src/v0.8/vendor/BufferChainlink.sol\":9561:9574  mload(bufptr) */\n      mload\n        /* \"@chainlink/contracts@1.2.0/src/v0.8/vendor/BufferChainlink.sol\":9555:9558  len */\n      dup6\n        /* \"@chainlink/contracts@1.2.0/src/v0.8/vendor/BufferChainlink.sol\":9550:9553  off */\n      dup9\n        /* \"@chainlink/contracts@1.2.0/src/v0.8/vendor/BufferChainlink.sol\":9546:9559  add(off, len) */\n      add\n        /* \"@chainlink/contracts@1.2.0/src/v0.8/vendor/BufferChainlink.sol\":9543:9575  gt(add(off, len), mload(bufptr)) */\n      gt\n        /* \"@chainlink/contracts@1.2.0/src/v0.8/vendor/BufferChainlink.sol\":9540:9623  if gt(add(off, len), mload(bufptr)) {... */\n      iszero\n      tag_266\n      jumpi\n        /* \"@chainlink/contracts@1.2.0/src/v0.8/vendor/BufferChainlink.sol\":9610:9613  len */\n      dup5\n        /* \"@chainlink/contracts@1.2.0/src/v0.8/vendor/BufferChainlink.sol\":9605:9608  off */\n      dup8\n        /* \"@chainlink/contracts@1.2.0/src/v0.8/vendor/BufferChainlink.sol\":9601:9614  add(off, len) */\n      add\n        /* \"@chainlink/contracts@1.2.0/src/v0.8/vendor/BufferChainlink.sol\":9593:9599  bufptr */\n      dup3\n        /* \"@chainlink/contracts@1.2.0/src/v0.8/vendor/BufferChainlink.sol\":9586:9615  mstore(bufptr, add(off, len)) */\n      mstore\n        /* \"@chainlink/contracts@1.2.0/src/v0.8/vendor/BufferChainlink.sol\":9540:9623  if gt(add(off, len), mload(bufptr)) {... */\n    tag_266:\n        /* \"@chainlink/contracts@1.2.0/src/v0.8/vendor/BufferChainlink.sol\":9237:9629  {... */\n      pop\n      pop\n        /* \"@chainlink/contracts@1.2.0/src/v0.8/vendor/BufferChainlink.sol\":9641:9644  buf */\n      dup6\n        /* \"@chainlink/contracts@1.2.0/src/v0.8/vendor/BufferChainlink.sol\":9634:9644  return buf */\n      swap2\n      pop\n      pop\n        /* \"@chainlink/contracts@1.2.0/src/v0.8/vendor/BufferChainlink.sol\":8974:9649  function writeInt(... */\n      swap5\n      swap4\n      pop\n      pop\n      pop\n      pop\n      jump\t// out\n        /* \"@chainlink/contracts@1.2.0/src/v0.8/vendor/BufferChainlink.sol\":1961:2085  function max(uint256 a, uint256 b) private pure returns (uint256) {... */\n    tag_237:\n        /* \"@chainlink/contracts@1.2.0/src/v0.8/vendor/BufferChainlink.sol\":2018:2025  uint256 */\n      0x00\n        /* \"@chainlink/contracts@1.2.0/src/v0.8/vendor/BufferChainlink.sol\":2041:2042  b */\n      dup2\n        /* \"@chainlink/contracts@1.2.0/src/v0.8/vendor/BufferChainlink.sol\":2037:2038  a */\n      dup4\n        /* \"@chainlink/contracts@1.2.0/src/v0.8/vendor/BufferChainlink.sol\":2037:2042  a > b */\n      gt\n        /* \"@chainlink/contracts@1.2.0/src/v0.8/vendor/BufferChainlink.sol\":2033:2067  if (a > b) {... */\n      iszero\n      tag_268\n      jumpi\n        /* \"@chainlink/contracts@1.2.0/src/v0.8/vendor/BufferChainlink.sol\":2059:2060  a */\n      dup3\n        /* \"@chainlink/contracts@1.2.0/src/v0.8/vendor/BufferChainlink.sol\":2052:2060  return a */\n      swap1\n      pop\n      jump(tag_267)\n        /* \"@chainlink/contracts@1.2.0/src/v0.8/vendor/BufferChainlink.sol\":2033:2067  if (a > b) {... */\n    tag_268:\n        /* \"@chainlink/contracts@1.2.0/src/v0.8/vendor/BufferChainlink.sol\":2079:2080  b */\n      dup2\n        /* \"@chainlink/contracts@1.2.0/src/v0.8/vendor/BufferChainlink.sol\":2072:2080  return b */\n      swap1\n      pop\n        /* \"@chainlink/contracts@1.2.0/src/v0.8/vendor/BufferChainlink.sol\":1961:2085  function max(uint256 a, uint256 b) private pure returns (uint256) {... */\n    tag_267:\n      swap3\n      swap2\n      pop\n      pop\n      jump\t// out\n        /* \"@chainlink/contracts@1.2.0/src/v0.8/vendor/BufferChainlink.sol\":1801:1957  function resize(buffer memory buf, uint256 capacity) private pure {... */\n    tag_239:\n        /* \"@chainlink/contracts@1.2.0/src/v0.8/vendor/BufferChainlink.sol\":1873:1892  bytes memory oldbuf */\n      0x00\n        /* \"@chainlink/contracts@1.2.0/src/v0.8/vendor/BufferChainlink.sol\":1895:1898  buf */\n      dup3\n        /* \"@chainlink/contracts@1.2.0/src/v0.8/vendor/BufferChainlink.sol\":1895:1902  buf.buf */\n      0x00\n      add\n      mload\n        /* \"@chainlink/contracts@1.2.0/src/v0.8/vendor/BufferChainlink.sol\":1873:1902  bytes memory oldbuf = buf.buf */\n      swap1\n      pop\n        /* \"@chainlink/contracts@1.2.0/src/v0.8/vendor/BufferChainlink.sol\":1908:1927  init(buf, capacity) */\n      tag_270\n        /* \"@chainlink/contracts@1.2.0/src/v0.8/vendor/BufferChainlink.sol\":1913:1916  buf */\n      dup4\n        /* \"@chainlink/contracts@1.2.0/src/v0.8/vendor/BufferChainlink.sol\":1918:1926  capacity */\n      dup4\n        /* \"@chainlink/contracts@1.2.0/src/v0.8/vendor/BufferChainlink.sol\":1908:1912  init */\n      tag_145\n        /* \"@chainlink/contracts@1.2.0/src/v0.8/vendor/BufferChainlink.sol\":1908:1927  init(buf, capacity) */\n      jump\t// in\n    tag_270:\n      pop\n        /* \"@chainlink/contracts@1.2.0/src/v0.8/vendor/BufferChainlink.sol\":1933:1952  append(buf, oldbuf) */\n      tag_271\n        /* \"@chainlink/contracts@1.2.0/src/v0.8/vendor/BufferChainlink.sol\":1940:1943  buf */\n      dup4\n        /* \"@chainlink/contracts@1.2.0/src/v0.8/vendor/BufferChainlink.sol\":1945:1951  oldbuf */\n      dup3\n        /* \"@chainlink/contracts@1.2.0/src/v0.8/vendor/BufferChainlink.sol\":1933:1939  append */\n      tag_150\n        /* \"@chainlink/contracts@1.2.0/src/v0.8/vendor/BufferChainlink.sol\":1933:1952  append(buf, oldbuf) */\n      jump\t// in\n    tag_271:\n      pop\n        /* \"@chainlink/contracts@1.2.0/src/v0.8/vendor/BufferChainlink.sol\":1867:1957  {... */\n      pop\n        /* \"@chainlink/contracts@1.2.0/src/v0.8/vendor/BufferChainlink.sol\":1801:1957  function resize(buffer memory buf, uint256 capacity) private pure {... */\n      pop\n      pop\n      jump\t// out\n    tag_112:\n      mload(0x40)\n      dup1\n      0xa0\n      add\n      0x40\n      mstore\n      dup1\n      0x00\n      dup1\n      not\n      and\n      dup2\n      mstore\n      0x20\n      add\n      and(0xffffffffffffffffffffffffffffffffffffffff, 0x00)\n      dup2\n      mstore\n      0x20\n      add\n      and(not(0xffffffffffffffffffffffffffffffffffffffffffffffffffffffff), 0x00)\n      dup2\n      mstore\n      0x20\n      add\n      0x00\n      dup2\n      mstore\n      0x20\n      add\n      tag_272\n      tag_178\n      jump\t// in\n    tag_272:\n      dup2\n      mstore\n      pop\n      swap1\n      jump\t// out\n    tag_178:\n      mload(0x40)\n      dup1\n      0x40\n      add\n      0x40\n      mstore\n      dup1\n      0x60\n      dup2\n      mstore\n      0x20\n      add\n      0x00\n      dup2\n      mstore\n      pop\n      swap1\n      jump\t// out\n        /* \"#utility.yul\":7:133   */\n    tag_273:\n        /* \"#utility.yul\":44:51   */\n      0x00\n        /* \"#utility.yul\":84:126   */\n      0xffffffffffffffffffffffffffffffffffffffff\n        /* \"#utility.yul\":77:82   */\n      dup3\n        /* \"#utility.yul\":73:127   */\n      and\n        /* \"#utility.yul\":62:127   */\n      swap1\n      pop\n        /* \"#utility.yul\":7:133   */\n      swap2\n      swap1\n      pop\n      jump\t// out\n        /* \"#utility.yul\":139:235   */\n    tag_274:\n        /* \"#utility.yul\":176:183   */\n      0x00\n        /* \"#utility.yul\":205:229   */\n      tag_343\n        /* \"#utility.yul\":223:228   */\n      dup3\n        /* \"#utility.yul\":205:229   */\n      tag_273\n      jump\t// in\n    tag_343:\n        /* \"#utility.yul\":194:229   */\n      swap1\n      pop\n        /* \"#utility.yul\":139:235   */\n      swap2\n      swap1\n      pop\n      jump\t// out\n        /* \"#utility.yul\":241:359   */\n    tag_275:\n        /* \"#utility.yul\":328:352   */\n      tag_345\n        /* \"#utility.yul\":346:351   */\n      dup2\n        /* \"#utility.yul\":328:352   */\n      tag_274\n      jump\t// in\n    tag_345:\n        /* \"#utility.yul\":323:326   */\n      dup3\n        /* \"#utility.yul\":316:353   */\n      mstore\n        /* \"#utility.yul\":241:359   */\n      pop\n      pop\n      jump\t// out\n        /* \"#utility.yul\":365:587   */\n    tag_16:\n        /* \"#utility.yul\":458:462   */\n      0x00\n        /* \"#utility.yul\":496:498   */\n      0x20\n        /* \"#utility.yul\":485:494   */\n      dup3\n        /* \"#utility.yul\":481:499   */\n      add\n        /* \"#utility.yul\":473:499   */\n      swap1\n      pop\n        /* \"#utility.yul\":509:580   */\n      tag_347\n        /* \"#utility.yul\":577:578   */\n      0x00\n        /* \"#utility.yul\":566:575   */\n      dup4\n        /* \"#utility.yul\":562:579   */\n      add\n        /* \"#utility.yul\":553:559   */\n      dup5\n        /* \"#utility.yul\":509:580   */\n      tag_275\n      jump\t// in\n    tag_347:\n        /* \"#utility.yul\":365:587   */\n      swap3\n      swap2\n      pop\n      pop\n      jump\t// out\n        /* \"#utility.yul\":593:668   */\n    tag_276:\n        /* \"#utility.yul\":626:632   */\n      0x00\n        /* \"#utility.yul\":659:661   */\n      0x40\n        /* \"#utility.yul\":653:662   */\n      mload\n        /* \"#utility.yul\":643:662   */\n      swap1\n      pop\n        /* \"#utility.yul\":593:668   */\n      swap1\n      jump\t// out\n        /* \"#utility.yul\":674:791   */\n    tag_277:\n        /* \"#utility.yul\":783:784   */\n      0x00\n        /* \"#utility.yul\":780:781   */\n      dup1\n        /* \"#utility.yul\":773:785   */\n      revert\n        /* \"#utility.yul\":797:914   */\n    tag_278:\n        /* \"#utility.yul\":906:907   */\n      0x00\n        /* \"#utility.yul\":903:904   */\n      dup1\n        /* \"#utility.yul\":896:908   */\n      revert\n        /* \"#utility.yul\":920:997   */\n    tag_279:\n        /* \"#utility.yul\":957:964   */\n      0x00\n        /* \"#utility.yul\":986:991   */\n      dup2\n        /* \"#utility.yul\":975:991   */\n      swap1\n      pop\n        /* \"#utility.yul\":920:997   */\n      swap2\n      swap1\n      pop\n      jump\t// out\n        /* \"#utility.yul\":1003:1125   */\n    tag_280:\n        /* \"#utility.yul\":1076:1100   */\n      tag_353\n        /* \"#utility.yul\":1094:1099   */\n      dup2\n        /* \"#utility.yul\":1076:1100   */\n      tag_279\n      jump\t// in\n    tag_353:\n        /* \"#utility.yul\":1069:1074   */\n      dup2\n        /* \"#utility.yul\":1066:1101   */\n      eq\n        /* \"#utility.yul\":1056:1119   */\n      tag_354\n      jumpi\n        /* \"#utility.yul\":1115:1116   */\n      0x00\n        /* \"#utility.yul\":1112:1113   */\n      dup1\n        /* \"#utility.yul\":1105:1117   */\n      revert\n        /* \"#utility.yul\":1056:1119   */\n    tag_354:\n        /* \"#utility.yul\":1003:1125   */\n      pop\n      jump\t// out\n        /* \"#utility.yul\":1131:1270   */\n    tag_281:\n        /* \"#utility.yul\":1177:1182   */\n      0x00\n        /* \"#utility.yul\":1215:1221   */\n      dup2\n        /* \"#utility.yul\":1202:1222   */\n      calldataload\n        /* \"#utility.yul\":1193:1222   */\n      swap1\n      pop\n        /* \"#utility.yul\":1231:1264   */\n      tag_356\n        /* \"#utility.yul\":1258:1263   */\n      dup2\n        /* \"#utility.yul\":1231:1264   */\n      tag_280\n      jump\t// in\n    tag_356:\n        /* \"#utility.yul\":1131:1270   */\n      swap3\n      swap2\n      pop\n      pop\n      jump\t// out\n        /* \"#utility.yul\":1276:1353   */\n    tag_282:\n        /* \"#utility.yul\":1313:1320   */\n      0x00\n        /* \"#utility.yul\":1342:1347   */\n      dup2\n        /* \"#utility.yul\":1331:1347   */\n      swap1\n      pop\n        /* \"#utility.yul\":1276:1353   */\n      swap2\n      swap1\n      pop\n      jump\t// out\n        /* \"#utility.yul\":1359:1481   */\n    tag_283:\n        /* \"#utility.yul\":1432:1456   */\n      tag_359\n        /* \"#utility.yul\":1450:1455   */\n      dup2\n        /* \"#utility.yul\":1432:1456   */\n      tag_282\n      jump\t// in\n    tag_359:\n        /* \"#utility.yul\":1425:1430   */\n      dup2\n        /* \"#utility.yul\":1422:1457   */\n      eq\n        /* \"#utility.yul\":1412:1475   */\n      tag_360\n      jumpi\n        /* \"#utility.yul\":1471:1472   */\n      0x00\n        /* \"#utility.yul\":1468:1469   */\n      dup1\n        /* \"#utility.yul\":1461:1473   */\n      revert\n        /* \"#utility.yul\":1412:1475   */\n    tag_360:\n        /* \"#utility.yul\":1359:1481   */\n      pop\n      jump\t// out\n        /* \"#utility.yul\":1487:1626   */\n    tag_284:\n        /* \"#utility.yul\":1533:1538   */\n      0x00\n        /* \"#utility.yul\":1571:1577   */\n      dup2\n        /* \"#utility.yul\":1558:1578   */\n      calldataload\n        /* \"#utility.yul\":1549:1578   */\n      swap1\n      pop\n        /* \"#utility.yul\":1587:1620   */\n      tag_362\n        /* \"#utility.yul\":1614:1619   */\n      dup2\n        /* \"#utility.yul\":1587:1620   */\n      tag_283\n      jump\t// in\n    tag_362:\n        /* \"#utility.yul\":1487:1626   */\n      swap3\n      swap2\n      pop\n      pop\n      jump\t// out\n        /* \"#utility.yul\":1632:2106   */\n    tag_26:\n        /* \"#utility.yul\":1700:1706   */\n      0x00\n        /* \"#utility.yul\":1708:1714   */\n      dup1\n        /* \"#utility.yul\":1757:1759   */\n      0x40\n        /* \"#utility.yul\":1745:1754   */\n      dup4\n        /* \"#utility.yul\":1736:1743   */\n      dup6\n        /* \"#utility.yul\":1732:1755   */\n      sub\n        /* \"#utility.yul\":1728:1760   */\n      slt\n        /* \"#utility.yul\":1725:1844   */\n      iszero\n      tag_364\n      jumpi\n        /* \"#utility.yul\":1763:1842   */\n      tag_365\n      tag_277\n      jump\t// in\n    tag_365:\n        /* \"#utility.yul\":1725:1844   */\n    tag_364:\n        /* \"#utility.yul\":1883:1884   */\n      0x00\n        /* \"#utility.yul\":1908:1961   */\n      tag_366\n        /* \"#utility.yul\":1953:1960   */\n      dup6\n        /* \"#utility.yul\":1944:1950   */\n      dup3\n        /* \"#utility.yul\":1933:1942   */\n      dup7\n        /* \"#utility.yul\":1929:1951   */\n      add\n        /* \"#utility.yul\":1908:1961   */\n      tag_281\n      jump\t// in\n    tag_366:\n        /* \"#utility.yul\":1898:1961   */\n      swap3\n      pop\n        /* \"#utility.yul\":1854:1971   */\n      pop\n        /* \"#utility.yul\":2010:2012   */\n      0x20\n        /* \"#utility.yul\":2036:2089   */\n      tag_367\n        /* \"#utility.yul\":2081:2088   */\n      dup6\n        /* \"#utility.yul\":2072:2078   */\n      dup3\n        /* \"#utility.yul\":2061:2070   */\n      dup7\n        /* \"#utility.yul\":2057:2079   */\n      add\n        /* \"#utility.yul\":2036:2089   */\n      tag_284\n      jump\t// in\n    tag_367:\n        /* \"#utility.yul\":2026:2089   */\n      swap2\n      pop\n        /* \"#utility.yul\":1981:2099   */\n      pop\n        /* \"#utility.yul\":1632:2106   */\n      swap3\n      pop\n      swap3\n      swap1\n      pop\n      jump\t// out\n        /* \"#utility.yul\":2112:2230   */\n    tag_285:\n        /* \"#utility.yul\":2199:2223   */\n      tag_369\n        /* \"#utility.yul\":2217:2222   */\n      dup2\n        /* \"#utility.yul\":2199:2223   */\n      tag_282\n      jump\t// in\n    tag_369:\n        /* \"#utility.yul\":2194:2197   */\n      dup3\n        /* \"#utility.yul\":2187:2224   */\n      mstore\n        /* \"#utility.yul\":2112:2230   */\n      pop\n      pop\n      jump\t// out\n        /* \"#utility.yul\":2236:2458   */\n    tag_31:\n        /* \"#utility.yul\":2329:2333   */\n      0x00\n        /* \"#utility.yul\":2367:2369   */\n      0x20\n        /* \"#utility.yul\":2356:2365   */\n      dup3\n        /* \"#utility.yul\":2352:2370   */\n      add\n        /* \"#utility.yul\":2344:2370   */\n      swap1\n      pop\n        /* \"#utility.yul\":2380:2451   */\n      tag_371\n        /* \"#utility.yul\":2448:2449   */\n      0x00\n        /* \"#utility.yul\":2437:2446   */\n      dup4\n        /* \"#utility.yul\":2433:2450   */\n      add\n        /* \"#utility.yul\":2424:2430   */\n      dup5\n        /* \"#utility.yul\":2380:2451   */\n      tag_285\n      jump\t// in\n    tag_371:\n        /* \"#utility.yul\":2236:2458   */\n      swap3\n      swap2\n      pop\n      pop\n      jump\t// out\n        /* \"#utility.yul\":2464:2586   */\n    tag_286:\n        /* \"#utility.yul\":2537:2561   */\n      tag_373\n        /* \"#utility.yul\":2555:2560   */\n      dup2\n        /* \"#utility.yul\":2537:2561   */\n      tag_274\n      jump\t// in\n    tag_373:\n        /* \"#utility.yul\":2530:2535   */\n      dup2\n        /* \"#utility.yul\":2527:2562   */\n      eq\n        /* \"#utility.yul\":2517:2580   */\n      tag_374\n      jumpi\n        /* \"#utility.yul\":2576:2577   */\n      0x00\n        /* \"#utility.yul\":2573:2574   */\n      dup1\n        /* \"#utility.yul\":2566:2578   */\n      revert\n        /* \"#utility.yul\":2517:2580   */\n    tag_374:\n        /* \"#utility.yul\":2464:2586   */\n      pop\n      jump\t// out\n        /* \"#utility.yul\":2592:2731   */\n    tag_287:\n        /* \"#utility.yul\":2638:2643   */\n      0x00\n        /* \"#utility.yul\":2676:2682   */\n      dup2\n        /* \"#utility.yul\":2663:2683   */\n      calldataload\n        /* \"#utility.yul\":2654:2683   */\n      swap1\n      pop\n        /* \"#utility.yul\":2692:2725   */\n      tag_376\n        /* \"#utility.yul\":2719:2724   */\n      dup2\n        /* \"#utility.yul\":2692:2725   */\n      tag_286\n      jump\t// in\n    tag_376:\n        /* \"#utility.yul\":2592:2731   */\n      swap3\n      swap2\n      pop\n      pop\n      jump\t// out\n        /* \"#utility.yul\":2737:2854   */\n    tag_288:\n        /* \"#utility.yul\":2846:2847   */\n      0x00\n        /* \"#utility.yul\":2843:2844   */\n      dup1\n        /* \"#utility.yul\":2836:2848   */\n      revert\n        /* \"#utility.yul\":2860:2977   */\n    tag_289:\n        /* \"#utility.yul\":2969:2970   */\n      0x00\n        /* \"#utility.yul\":2966:2967   */\n      dup1\n        /* \"#utility.yul\":2959:2971   */\n      revert\n        /* \"#utility.yul\":2983:3085   */\n    tag_290:\n        /* \"#utility.yul\":3024:3030   */\n      0x00\n        /* \"#utility.yul\":3075:3077   */\n      0x1f\n        /* \"#utility.yul\":3071:3078   */\n      not\n        /* \"#utility.yul\":3066:3068   */\n      0x1f\n        /* \"#utility.yul\":3059:3064   */\n      dup4\n        /* \"#utility.yul\":3055:3069   */\n      add\n        /* \"#utility.yul\":3051:3079   */\n      and\n        /* \"#utility.yul\":3041:3079   */\n      swap1\n      pop\n        /* \"#utility.yul\":2983:3085   */\n      swap2\n      swap1\n      pop\n      jump\t// out\n        /* \"#utility.yul\":3091:3271   */\n    tag_291:\n        /* \"#utility.yul\":3139:3216   */\n      0x4e487b7100000000000000000000000000000000000000000000000000000000\n        /* \"#utility.yul\":3136:3137   */\n      0x00\n        /* \"#utility.yul\":3129:3217   */\n      mstore\n        /* \"#utility.yul\":3236:3240   */\n      0x41\n        /* \"#utility.yul\":3233:3234   */\n      0x04\n        /* \"#utility.yul\":3226:3241   */\n      mstore\n        /* \"#utility.yul\":3260:3264   */\n      0x24\n        /* \"#utility.yul\":3257:3258   */\n      0x00\n        /* \"#utility.yul\":3250:3265   */\n      revert\n        /* \"#utility.yul\":3277:3558   */\n    tag_292:\n        /* \"#utility.yul\":3360:3387   */\n      tag_382\n        /* \"#utility.yul\":3382:3386   */\n      dup3\n        /* \"#utility.yul\":3360:3387   */\n      tag_290\n      jump\t// in\n    tag_382:\n        /* \"#utility.yul\":3352:3358   */\n      dup2\n        /* \"#utility.yul\":3348:3388   */\n      add\n        /* \"#utility.yul\":3490:3496   */\n      dup2\n        /* \"#utility.yul\":3478:3488   */\n      dup2\n        /* \"#utility.yul\":3475:3497   */\n      lt\n        /* \"#utility.yul\":3454:3472   */\n      0xffffffffffffffff\n        /* \"#utility.yul\":3442:3452   */\n      dup3\n        /* \"#utility.yul\":3439:3473   */\n      gt\n        /* \"#utility.yul\":3436:3498   */\n      or\n        /* \"#utility.yul\":3433:3521   */\n      iszero\n      tag_383\n      jumpi\n        /* \"#utility.yul\":3501:3519   */\n      tag_384\n      tag_291\n      jump\t// in\n    tag_384:\n        /* \"#utility.yul\":3433:3521   */\n    tag_383:\n        /* \"#utility.yul\":3541:3551   */\n      dup1\n        /* \"#utility.yul\":3537:3539   */\n      0x40\n        /* \"#utility.yul\":3530:3552   */\n      mstore\n        /* \"#utility.yul\":3320:3558   */\n      pop\n        /* \"#utility.yul\":3277:3558   */\n      pop\n      pop\n      jump\t// out\n        /* \"#utility.yul\":3564:3693   */\n    tag_293:\n        /* \"#utility.yul\":3598:3604   */\n      0x00\n        /* \"#utility.yul\":3625:3645   */\n      tag_386\n      tag_276\n      jump\t// in\n    tag_386:\n        /* \"#utility.yul\":3615:3645   */\n      swap1\n      pop\n        /* \"#utility.yul\":3654:3687   */\n      tag_387\n        /* \"#utility.yul\":3682:3686   */\n      dup3\n        /* \"#utility.yul\":3674:3680   */\n      dup3\n        /* \"#utility.yul\":3654:3687   */\n      tag_292\n      jump\t// in\n    tag_387:\n        /* \"#utility.yul\":3564:3693   */\n      swap2\n      swap1\n      pop\n      jump\t// out\n        /* \"#utility.yul\":3699:4007   */\n    tag_294:\n        /* \"#utility.yul\":3761:3765   */\n      0x00\n        /* \"#utility.yul\":3851:3869   */\n      0xffffffffffffffff\n        /* \"#utility.yul\":3843:3849   */\n      dup3\n        /* \"#utility.yul\":3840:3870   */\n      gt\n        /* \"#utility.yul\":3837:3893   */\n      iszero\n      tag_389\n      jumpi\n        /* \"#utility.yul\":3873:3891   */\n      tag_390\n      tag_291\n      jump\t// in\n    tag_390:\n        /* \"#utility.yul\":3837:3893   */\n    tag_389:\n        /* \"#utility.yul\":3911:3940   */\n      tag_391\n        /* \"#utility.yul\":3933:3939   */\n      dup3\n        /* \"#utility.yul\":3911:3940   */\n      tag_290\n      jump\t// in\n    tag_391:\n        /* \"#utility.yul\":3903:3940   */\n      swap1\n      pop\n        /* \"#utility.yul\":3995:3999   */\n      0x20\n        /* \"#utility.yul\":3989:3993   */\n      dup2\n        /* \"#utility.yul\":3985:4000   */\n      add\n        /* \"#utility.yul\":3977:4000   */\n      swap1\n      pop\n        /* \"#utility.yul\":3699:4007   */\n      swap2\n      swap1\n      pop\n      jump\t// out\n        /* \"#utility.yul\":4013:4159   */\n    tag_295:\n        /* \"#utility.yul\":4110:4116   */\n      dup3\n        /* \"#utility.yul\":4105:4108   */\n      dup2\n        /* \"#utility.yul\":4100:4103   */\n      dup4\n        /* \"#utility.yul\":4087:4117   */\n      calldatacopy\n        /* \"#utility.yul\":4151:4152   */\n      0x00\n        /* \"#utility.yul\":4142:4148   */\n      dup4\n        /* \"#utility.yul\":4137:4140   */\n      dup4\n        /* \"#utility.yul\":4133:4149   */\n      add\n        /* \"#utility.yul\":4126:4153   */\n      mstore\n        /* \"#utility.yul\":4013:4159   */\n      pop\n      pop\n      pop\n      jump\t// out\n        /* \"#utility.yul\":4165:4590   */\n    tag_296:\n        /* \"#utility.yul\":4243:4248   */\n      0x00\n        /* \"#utility.yul\":4268:4334   */\n      tag_394\n        /* \"#utility.yul\":4284:4333   */\n      tag_395\n        /* \"#utility.yul\":4326:4332   */\n      dup5\n        /* \"#utility.yul\":4284:4333   */\n      tag_294\n      jump\t// in\n    tag_395:\n        /* \"#utility.yul\":4268:4334   */\n      tag_293\n      jump\t// in\n    tag_394:\n        /* \"#utility.yul\":4259:4334   */\n      swap1\n      pop\n        /* \"#utility.yul\":4357:4363   */\n      dup3\n        /* \"#utility.yul\":4350:4355   */\n      dup2\n        /* \"#utility.yul\":4343:4364   */\n      mstore\n        /* \"#utility.yul\":4395:4399   */\n      0x20\n        /* \"#utility.yul\":4388:4393   */\n      dup2\n        /* \"#utility.yul\":4384:4400   */\n      add\n        /* \"#utility.yul\":4433:4436   */\n      dup5\n        /* \"#utility.yul\":4424:4430   */\n      dup5\n        /* \"#utility.yul\":4419:4422   */\n      dup5\n        /* \"#utility.yul\":4415:4431   */\n      add\n        /* \"#utility.yul\":4412:4437   */\n      gt\n        /* \"#utility.yul\":4409:4521   */\n      iszero\n      tag_396\n      jumpi\n        /* \"#utility.yul\":4440:4519   */\n      tag_397\n      tag_289\n      jump\t// in\n    tag_397:\n        /* \"#utility.yul\":4409:4521   */\n    tag_396:\n        /* \"#utility.yul\":4530:4584   */\n      tag_398\n        /* \"#utility.yul\":4577:4583   */\n      dup5\n        /* \"#utility.yul\":4572:4575   */\n      dup3\n        /* \"#utility.yul\":4567:4570   */\n      dup6\n        /* \"#utility.yul\":4530:4584   */\n      tag_295\n      jump\t// in\n    tag_398:\n        /* \"#utility.yul\":4249:4590   */\n      pop\n        /* \"#utility.yul\":4165:4590   */\n      swap4\n      swap3\n      pop\n      pop\n      pop\n      jump\t// out\n        /* \"#utility.yul\":4610:4950   */\n    tag_297:\n        /* \"#utility.yul\":4666:4671   */\n      0x00\n        /* \"#utility.yul\":4715:4718   */\n      dup3\n        /* \"#utility.yul\":4708:4712   */\n      0x1f\n        /* \"#utility.yul\":4700:4706   */\n      dup4\n        /* \"#utility.yul\":4696:4713   */\n      add\n        /* \"#utility.yul\":4692:4719   */\n      slt\n        /* \"#utility.yul\":4682:4804   */\n      tag_400\n      jumpi\n        /* \"#utility.yul\":4723:4802   */\n      tag_401\n      tag_288\n      jump\t// in\n    tag_401:\n        /* \"#utility.yul\":4682:4804   */\n    tag_400:\n        /* \"#utility.yul\":4840:4846   */\n      dup2\n        /* \"#utility.yul\":4827:4847   */\n      calldataload\n        /* \"#utility.yul\":4865:4944   */\n      tag_402\n        /* \"#utility.yul\":4940:4943   */\n      dup5\n        /* \"#utility.yul\":4932:4938   */\n      dup3\n        /* \"#utility.yul\":4925:4929   */\n      0x20\n        /* \"#utility.yul\":4917:4923   */\n      dup7\n        /* \"#utility.yul\":4913:4930   */\n      add\n        /* \"#utility.yul\":4865:4944   */\n      tag_296\n      jump\t// in\n    tag_402:\n        /* \"#utility.yul\":4856:4944   */\n      swap2\n      pop\n        /* \"#utility.yul\":4672:4950   */\n      pop\n        /* \"#utility.yul\":4610:4950   */\n      swap3\n      swap2\n      pop\n      pop\n      jump\t// out\n        /* \"#utility.yul\":4956:5610   */\n    tag_34:\n        /* \"#utility.yul\":5034:5040   */\n      0x00\n        /* \"#utility.yul\":5042:5048   */\n      dup1\n        /* \"#utility.yul\":5091:5093   */\n      0x40\n        /* \"#utility.yul\":5079:5088   */\n      dup4\n        /* \"#utility.yul\":5070:5077   */\n      dup6\n        /* \"#utility.yul\":5066:5089   */\n      sub\n        /* \"#utility.yul\":5062:5094   */\n      slt\n        /* \"#utility.yul\":5059:5178   */\n      iszero\n      tag_404\n      jumpi\n        /* \"#utility.yul\":5097:5176   */\n      tag_405\n      tag_277\n      jump\t// in\n    tag_405:\n        /* \"#utility.yul\":5059:5178   */\n    tag_404:\n        /* \"#utility.yul\":5217:5218   */\n      0x00\n        /* \"#utility.yul\":5242:5295   */\n      tag_406\n        /* \"#utility.yul\":5287:5294   */\n      dup6\n        /* \"#utility.yul\":5278:5284   */\n      dup3\n        /* \"#utility.yul\":5267:5276   */\n      dup7\n        /* \"#utility.yul\":5263:5285   */\n      add\n        /* \"#utility.yul\":5242:5295   */\n      tag_287\n      jump\t// in\n    tag_406:\n        /* \"#utility.yul\":5232:5295   */\n      swap3\n      pop\n        /* \"#utility.yul\":5188:5305   */\n      pop\n        /* \"#utility.yul\":5372:5374   */\n      0x20\n        /* \"#utility.yul\":5361:5370   */\n      dup4\n        /* \"#utility.yul\":5357:5375   */\n      add\n        /* \"#utility.yul\":5344:5376   */\n      calldataload\n        /* \"#utility.yul\":5403:5421   */\n      0xffffffffffffffff\n        /* \"#utility.yul\":5395:5401   */\n      dup2\n        /* \"#utility.yul\":5392:5422   */\n      gt\n        /* \"#utility.yul\":5389:5506   */\n      iszero\n      tag_407\n      jumpi\n        /* \"#utility.yul\":5425:5504   */\n      tag_408\n      tag_278\n      jump\t// in\n    tag_408:\n        /* \"#utility.yul\":5389:5506   */\n    tag_407:\n        /* \"#utility.yul\":5530:5593   */\n      tag_409\n        /* \"#utility.yul\":5585:5592   */\n      dup6\n        /* \"#utility.yul\":5576:5582   */\n      dup3\n        /* \"#utility.yul\":5565:5574   */\n      dup7\n        /* \"#utility.yul\":5561:5583   */\n      add\n        /* \"#utility.yul\":5530:5593   */\n      tag_297\n      jump\t// in\n    tag_409:\n        /* \"#utility.yul\":5520:5593   */\n      swap2\n      pop\n        /* \"#utility.yul\":5315:5603   */\n      pop\n        /* \"#utility.yul\":4956:5610   */\n      swap3\n      pop\n      swap3\n      swap1\n      pop\n      jump\t// out\n        /* \"#utility.yul\":5616:5765   */\n    tag_298:\n        /* \"#utility.yul\":5652:5659   */\n      0x00\n        /* \"#utility.yul\":5692:5758   */\n      0xffffffff00000000000000000000000000000000000000000000000000000000\n        /* \"#utility.yul\":5685:5690   */\n      dup3\n        /* \"#utility.yul\":5681:5759   */\n      and\n        /* \"#utility.yul\":5670:5759   */\n      swap1\n      pop\n        /* \"#utility.yul\":5616:5765   */\n      swap2\n      swap1\n      pop\n      jump\t// out\n        /* \"#utility.yul\":5771:5891   */\n    tag_299:\n        /* \"#utility.yul\":5843:5866   */\n      tag_412\n        /* \"#utility.yul\":5860:5865   */\n      dup2\n        /* \"#utility.yul\":5843:5866   */\n      tag_298\n      jump\t// in\n    tag_412:\n        /* \"#utility.yul\":5836:5841   */\n      dup2\n        /* \"#utility.yul\":5833:5867   */\n      eq\n        /* \"#utility.yul\":5823:5885   */\n      tag_413\n      jumpi\n        /* \"#utility.yul\":5881:5882   */\n      0x00\n        /* \"#utility.yul\":5878:5879   */\n      dup1\n        /* \"#utility.yul\":5871:5883   */\n      revert\n        /* \"#utility.yul\":5823:5885   */\n    tag_413:\n        /* \"#utility.yul\":5771:5891   */\n      pop\n      jump\t// out\n        /* \"#utility.yul\":5897:6034   */\n    tag_300:\n        /* \"#utility.yul\":5942:5947   */\n      0x00\n        /* \"#utility.yul\":5980:5986   */\n      dup2\n        /* \"#utility.yul\":5967:5987   */\n      calldataload\n        /* \"#utility.yul\":5958:5987   */\n      swap1\n      pop\n        /* \"#utility.yul\":5996:6028   */\n      tag_415\n        /* \"#utility.yul\":6022:6027   */\n      dup2\n        /* \"#utility.yul\":5996:6028   */\n      tag_299\n      jump\t// in\n    tag_415:\n        /* \"#utility.yul\":5897:6034   */\n      swap3\n      swap2\n      pop\n      pop\n      jump\t// out\n        /* \"#utility.yul\":6040:6803   */\n    tag_38:\n        /* \"#utility.yul\":6125:6131   */\n      0x00\n        /* \"#utility.yul\":6133:6139   */\n      dup1\n        /* \"#utility.yul\":6141:6147   */\n      0x00\n        /* \"#utility.yul\":6149:6155   */\n      dup1\n        /* \"#utility.yul\":6198:6201   */\n      0x80\n        /* \"#utility.yul\":6186:6195   */\n      dup6\n        /* \"#utility.yul\":6177:6184   */\n      dup8\n        /* \"#utility.yul\":6173:6196   */\n      sub\n        /* \"#utility.yul\":6169:6202   */\n      slt\n        /* \"#utility.yul\":6166:6286   */\n      iszero\n      tag_417\n      jumpi\n        /* \"#utility.yul\":6205:6284   */\n      tag_418\n      tag_277\n      jump\t// in\n    tag_418:\n        /* \"#utility.yul\":6166:6286   */\n    tag_417:\n        /* \"#utility.yul\":6325:6326   */\n      0x00\n        /* \"#utility.yul\":6350:6403   */\n      tag_419\n        /* \"#utility.yul\":6395:6402   */\n      dup8\n        /* \"#utility.yul\":6386:6392   */\n      dup3\n        /* \"#utility.yul\":6375:6384   */\n      dup9\n        /* \"#utility.yul\":6371:6393   */\n      add\n        /* \"#utility.yul\":6350:6403   */\n      tag_281\n      jump\t// in\n    tag_419:\n        /* \"#utility.yul\":6340:6403   */\n      swap5\n      pop\n        /* \"#utility.yul\":6296:6413   */\n      pop\n        /* \"#utility.yul\":6452:6454   */\n      0x20\n        /* \"#utility.yul\":6478:6531   */\n      tag_420\n        /* \"#utility.yul\":6523:6530   */\n      dup8\n        /* \"#utility.yul\":6514:6520   */\n      dup3\n        /* \"#utility.yul\":6503:6512   */\n      dup9\n        /* \"#utility.yul\":6499:6521   */\n      add\n        /* \"#utility.yul\":6478:6531   */\n      tag_284\n      jump\t// in\n    tag_420:\n        /* \"#utility.yul\":6468:6531   */\n      swap4\n      pop\n        /* \"#utility.yul\":6423:6541   */\n      pop\n        /* \"#utility.yul\":6580:6582   */\n      0x40\n        /* \"#utility.yul\":6606:6658   */\n      tag_421\n        /* \"#utility.yul\":6650:6657   */\n      dup8\n        /* \"#utility.yul\":6641:6647   */\n      dup3\n        /* \"#utility.yul\":6630:6639   */\n      dup9\n        /* \"#utility.yul\":6626:6648   */\n      add\n        /* \"#utility.yul\":6606:6658   */\n      tag_300\n      jump\t// in\n    tag_421:\n        /* \"#utility.yul\":6596:6658   */\n      swap3\n      pop\n        /* \"#utility.yul\":6551:6668   */\n      pop\n        /* \"#utility.yul\":6707:6709   */\n      0x60\n        /* \"#utility.yul\":6733:6786   */\n      tag_422\n        /* \"#utility.yul\":6778:6785   */\n      dup8\n        /* \"#utility.yul\":6769:6775   */\n      dup3\n        /* \"#utility.yul\":6758:6767   */\n      dup9\n        /* \"#utility.yul\":6754:6776   */\n      add\n        /* \"#utility.yul\":6733:6786   */\n      tag_284\n      jump\t// in\n    tag_422:\n        /* \"#utility.yul\":6723:6786   */\n      swap2\n      pop\n        /* \"#utility.yul\":6678:6796   */\n      pop\n        /* \"#utility.yul\":6040:6803   */\n      swap3\n      swap6\n      swap2\n      swap5\n      pop\n      swap3\n      pop\n      jump\t// out\n        /* \"#utility.yul\":6809:7138   */\n    tag_42:\n        /* \"#utility.yul\":6868:6874   */\n      0x00\n        /* \"#utility.yul\":6917:6919   */\n      0x20\n        /* \"#utility.yul\":6905:6914   */\n      dup3\n        /* \"#utility.yul\":6896:6903   */\n      dup5\n        /* \"#utility.yul\":6892:6915   */\n      sub\n        /* \"#utility.yul\":6888:6920   */\n      slt\n        /* \"#utility.yul\":6885:7004   */\n      iszero\n      tag_424\n      jumpi\n        /* \"#utility.yul\":6923:7002   */\n      tag_425\n      tag_277\n      jump\t// in\n    tag_425:\n        /* \"#utility.yul\":6885:7004   */\n    tag_424:\n        /* \"#utility.yul\":7043:7044   */\n      0x00\n        /* \"#utility.yul\":7068:7121   */\n      tag_426\n        /* \"#utility.yul\":7113:7120   */\n      dup5\n        /* \"#utility.yul\":7104:7110   */\n      dup3\n        /* \"#utility.yul\":7093:7102   */\n      dup6\n        /* \"#utility.yul\":7089:7111   */\n      add\n        /* \"#utility.yul\":7068:7121   */\n      tag_287\n      jump\t// in\n    tag_426:\n        /* \"#utility.yul\":7058:7121   */\n      swap2\n      pop\n        /* \"#utility.yul\":7014:7131   */\n      pop\n        /* \"#utility.yul\":6809:7138   */\n      swap3\n      swap2\n      pop\n      pop\n      jump\t// out\n        /* \"#utility.yul\":7144:7313   */\n    tag_301:\n        /* \"#utility.yul\":7228:7239   */\n      0x00\n        /* \"#utility.yul\":7262:7268   */\n      dup3\n        /* \"#utility.yul\":7257:7260   */\n      dup3\n        /* \"#utility.yul\":7250:7269   */\n      mstore\n        /* \"#utility.yul\":7302:7306   */\n      0x20\n        /* \"#utility.yul\":7297:7300   */\n      dup3\n        /* \"#utility.yul\":7293:7307   */\n      add\n        /* \"#utility.yul\":7278:7307   */\n      swap1\n      pop\n        /* \"#utility.yul\":7144:7313   */\n      swap3\n      swap2\n      pop\n      pop\n      jump\t// out\n        /* \"#utility.yul\":7319:7491   */\n    tag_302:\n        /* \"#utility.yul\":7459:7483   */\n      0x4d7573742062652070726f706f736564206f776e657200000000000000000000\n        /* \"#utility.yul\":7455:7456   */\n      0x00\n        /* \"#utility.yul\":7447:7453   */\n      dup3\n        /* \"#utility.yul\":7443:7457   */\n      add\n        /* \"#utility.yul\":7436:7484   */\n      mstore\n        /* \"#utility.yul\":7319:7491   */\n      pop\n      jump\t// out\n        /* \"#utility.yul\":7497:7863   */\n    tag_303:\n        /* \"#utility.yul\":7639:7642   */\n      0x00\n        /* \"#utility.yul\":7660:7727   */\n      tag_430\n        /* \"#utility.yul\":7724:7726   */\n      0x16\n        /* \"#utility.yul\":7719:7722   */\n      dup4\n        /* \"#utility.yul\":7660:7727   */\n      tag_301\n      jump\t// in\n    tag_430:\n        /* \"#utility.yul\":7653:7727   */\n      swap2\n      pop\n        /* \"#utility.yul\":7736:7829   */\n      tag_431\n        /* \"#utility.yul\":7825:7828   */\n      dup3\n        /* \"#utility.yul\":7736:7829   */\n      tag_302\n      jump\t// in\n    tag_431:\n        /* \"#utility.yul\":7854:7856   */\n      0x20\n        /* \"#utility.yul\":7849:7852   */\n      dup3\n        /* \"#utility.yul\":7845:7857   */\n      add\n        /* \"#utility.yul\":7838:7857   */\n      swap1\n      pop\n        /* \"#utility.yul\":7497:7863   */\n      swap2\n      swap1\n      pop\n      jump\t// out\n        /* \"#utility.yul\":7869:8288   */\n    tag_50:\n        /* \"#utility.yul\":8035:8039   */\n      0x00\n        /* \"#utility.yul\":8073:8075   */\n      0x20\n        /* \"#utility.yul\":8062:8071   */\n      dup3\n        /* \"#utility.yul\":8058:8076   */\n      add\n        /* \"#utility.yul\":8050:8076   */\n      swap1\n      pop\n        /* \"#utility.yul\":8122:8131   */\n      dup2\n        /* \"#utility.yul\":8116:8120   */\n      dup2\n        /* \"#utility.yul\":8112:8132   */\n      sub\n        /* \"#utility.yul\":8108:8109   */\n      0x00\n        /* \"#utility.yul\":8097:8106   */\n      dup4\n        /* \"#utility.yul\":8093:8110   */\n      add\n        /* \"#utility.yul\":8086:8133   */\n      mstore\n        /* \"#utility.yul\":8150:8281   */\n      tag_433\n        /* \"#utility.yul\":8276:8280   */\n      dup2\n        /* \"#utility.yul\":8150:8281   */\n      tag_303\n      jump\t// in\n    tag_433:\n        /* \"#utility.yul\":8142:8281   */\n      swap1\n      pop\n        /* \"#utility.yul\":7869:8288   */\n      swap2\n      swap1\n      pop\n      jump\t// out\n        /* \"#utility.yul\":8294:8437   */\n    tag_304:\n        /* \"#utility.yul\":8351:8356   */\n      0x00\n        /* \"#utility.yul\":8382:8388   */\n      dup2\n        /* \"#utility.yul\":8376:8389   */\n      mload\n        /* \"#utility.yul\":8367:8389   */\n      swap1\n      pop\n        /* \"#utility.yul\":8398:8431   */\n      tag_435\n        /* \"#utility.yul\":8425:8430   */\n      dup2\n        /* \"#utility.yul\":8398:8431   */\n      tag_283\n      jump\t// in\n    tag_435:\n        /* \"#utility.yul\":8294:8437   */\n      swap3\n      swap2\n      pop\n      pop\n      jump\t// out\n        /* \"#utility.yul\":8443:8794   */\n    tag_61:\n        /* \"#utility.yul\":8513:8519   */\n      0x00\n        /* \"#utility.yul\":8562:8564   */\n      0x20\n        /* \"#utility.yul\":8550:8559   */\n      dup3\n        /* \"#utility.yul\":8541:8548   */\n      dup5\n        /* \"#utility.yul\":8537:8560   */\n      sub\n        /* \"#utility.yul\":8533:8565   */\n      slt\n        /* \"#utility.yul\":8530:8649   */\n      iszero\n      tag_437\n      jumpi\n        /* \"#utility.yul\":8568:8647   */\n      tag_438\n      tag_277\n      jump\t// in\n    tag_438:\n        /* \"#utility.yul\":8530:8649   */\n    tag_437:\n        /* \"#utility.yul\":8688:8689   */\n      0x00\n        /* \"#utility.yul\":8713:8777   */\n      tag_439\n        /* \"#utility.yul\":8769:8776   */\n      dup5\n        /* \"#utility.yul\":8760:8766   */\n      dup3\n        /* \"#utility.yul\":8749:8758   */\n      dup6\n        /* \"#utility.yul\":8745:8767   */\n      add\n        /* \"#utility.yul\":8713:8777   */\n      tag_304\n      jump\t// in\n    tag_439:\n        /* \"#utility.yul\":8703:8777   */\n      swap2\n      pop\n        /* \"#utility.yul\":8659:8787   */\n      pop\n        /* \"#utility.yul\":8443:8794   */\n      swap3\n      swap2\n      pop\n      pop\n      jump\t// out\n        /* \"#utility.yul\":8800:9132   */\n    tag_63:\n        /* \"#utility.yul\":8921:8925   */\n      0x00\n        /* \"#utility.yul\":8959:8961   */\n      0x40\n        /* \"#utility.yul\":8948:8957   */\n      dup3\n        /* \"#utility.yul\":8944:8962   */\n      add\n        /* \"#utility.yul\":8936:8962   */\n      swap1\n      pop\n        /* \"#utility.yul\":8972:9043   */\n      tag_441\n        /* \"#utility.yul\":9040:9041   */\n      0x00\n        /* \"#utility.yul\":9029:9038   */\n      dup4\n        /* \"#utility.yul\":9025:9042   */\n      add\n        /* \"#utility.yul\":9016:9022   */\n      dup6\n        /* \"#utility.yul\":8972:9043   */\n      tag_275\n      jump\t// in\n    tag_441:\n        /* \"#utility.yul\":9053:9125   */\n      tag_442\n        /* \"#utility.yul\":9121:9123   */\n      0x20\n        /* \"#utility.yul\":9110:9119   */\n      dup4\n        /* \"#utility.yul\":9106:9124   */\n      add\n        /* \"#utility.yul\":9097:9103   */\n      dup5\n        /* \"#utility.yul\":9053:9125   */\n      tag_285\n      jump\t// in\n    tag_442:\n        /* \"#utility.yul\":8800:9132   */\n      swap4\n      swap3\n      pop\n      pop\n      pop\n      jump\t// out\n        /* \"#utility.yul\":9138:9228   */\n    tag_305:\n        /* \"#utility.yul\":9172:9179   */\n      0x00\n        /* \"#utility.yul\":9215:9220   */\n      dup2\n        /* \"#utility.yul\":9208:9221   */\n      iszero\n        /* \"#utility.yul\":9201:9222   */\n      iszero\n        /* \"#utility.yul\":9190:9222   */\n      swap1\n      pop\n        /* \"#utility.yul\":9138:9228   */\n      swap2\n      swap1\n      pop\n      jump\t// out\n        /* \"#utility.yul\":9234:9350   */\n    tag_306:\n        /* \"#utility.yul\":9304:9325   */\n      tag_445\n        /* \"#utility.yul\":9319:9324   */\n      dup2\n        /* \"#utility.yul\":9304:9325   */\n      tag_305\n      jump\t// in\n    tag_445:\n        /* \"#utility.yul\":9297:9302   */\n      dup2\n        /* \"#utility.yul\":9294:9326   */\n      eq\n        /* \"#utility.yul\":9284:9344   */\n      tag_446\n      jumpi\n        /* \"#utility.yul\":9340:9341   */\n      0x00\n        /* \"#utility.yul\":9337:9338   */\n      dup1\n        /* \"#utility.yul\":9330:9342   */\n      revert\n        /* \"#utility.yul\":9284:9344   */\n    tag_446:\n        /* \"#utility.yul\":9234:9350   */\n      pop\n      jump\t// out\n        /* \"#utility.yul\":9356:9493   */\n    tag_307:\n        /* \"#utility.yul\":9410:9415   */\n      0x00\n        /* \"#utility.yul\":9441:9447   */\n      dup2\n        /* \"#utility.yul\":9435:9448   */\n      mload\n        /* \"#utility.yul\":9426:9448   */\n      swap1\n      pop\n        /* \"#utility.yul\":9457:9487   */\n      tag_448\n        /* \"#utility.yul\":9481:9486   */\n      dup2\n        /* \"#utility.yul\":9457:9487   */\n      tag_306\n      jump\t// in\n    tag_448:\n        /* \"#utility.yul\":9356:9493   */\n      swap3\n      swap2\n      pop\n      pop\n      jump\t// out\n        /* \"#utility.yul\":9499:9844   */\n    tag_67:\n        /* \"#utility.yul\":9566:9572   */\n      0x00\n        /* \"#utility.yul\":9615:9617   */\n      0x20\n        /* \"#utility.yul\":9603:9612   */\n      dup3\n        /* \"#utility.yul\":9594:9601   */\n      dup5\n        /* \"#utility.yul\":9590:9613   */\n      sub\n        /* \"#utility.yul\":9586:9618   */\n      slt\n        /* \"#utility.yul\":9583:9702   */\n      iszero\n      tag_450\n      jumpi\n        /* \"#utility.yul\":9621:9700   */\n      tag_451\n      tag_277\n      jump\t// in\n    tag_451:\n        /* \"#utility.yul\":9583:9702   */\n    tag_450:\n        /* \"#utility.yul\":9741:9742   */\n      0x00\n        /* \"#utility.yul\":9766:9827   */\n      tag_452\n        /* \"#utility.yul\":9819:9826   */\n      dup5\n        /* \"#utility.yul\":9810:9816   */\n      dup3\n        /* \"#utility.yul\":9799:9808   */\n      dup6\n        /* \"#utility.yul\":9795:9817   */\n      add\n        /* \"#utility.yul\":9766:9827   */\n      tag_307\n      jump\t// in\n    tag_452:\n        /* \"#utility.yul\":9756:9827   */\n      swap2\n      pop\n        /* \"#utility.yul\":9712:9837   */\n      pop\n        /* \"#utility.yul\":9499:9844   */\n      swap3\n      swap2\n      pop\n      pop\n      jump\t// out\n        /* \"#utility.yul\":9850:10018   */\n    tag_308:\n        /* \"#utility.yul\":9990:10010   */\n      0x556e61626c6520746f207472616e736665720000000000000000000000000000\n        /* \"#utility.yul\":9986:9987   */\n      0x00\n        /* \"#utility.yul\":9978:9984   */\n      dup3\n        /* \"#utility.yul\":9974:9988   */\n      add\n        /* \"#utility.yul\":9967:10011   */\n      mstore\n        /* \"#utility.yul\":9850:10018   */\n      pop\n      jump\t// out\n        /* \"#utility.yul\":10024:10390   */\n    tag_309:\n        /* \"#utility.yul\":10166:10169   */\n      0x00\n        /* \"#utility.yul\":10187:10254   */\n      tag_455\n        /* \"#utility.yul\":10251:10253   */\n      0x12\n        /* \"#utility.yul\":10246:10249   */\n      dup4\n        /* \"#utility.yul\":10187:10254   */\n      tag_301\n      jump\t// in\n    tag_455:\n        /* \"#utility.yul\":10180:10254   */\n      swap2\n      pop\n        /* \"#utility.yul\":10263:10356   */\n      tag_456\n        /* \"#utility.yul\":10352:10355   */\n      dup3\n        /* \"#utility.yul\":10263:10356   */\n      tag_308\n      jump\t// in\n    tag_456:\n        /* \"#utility.yul\":10381:10383   */\n      0x20\n        /* \"#utility.yul\":10376:10379   */\n      dup3\n        /* \"#utility.yul\":10372:10384   */\n      add\n        /* \"#utility.yul\":10365:10384   */\n      swap1\n      pop\n        /* \"#utility.yul\":10024:10390   */\n      swap2\n      swap1\n      pop\n      jump\t// out\n        /* \"#utility.yul\":10396:10815   */\n    tag_70:\n        /* \"#utility.yul\":10562:10566   */\n      0x00\n        /* \"#utility.yul\":10600:10602   */\n      0x20\n        /* \"#utility.yul\":10589:10598   */\n      dup3\n        /* \"#utility.yul\":10585:10603   */\n      add\n        /* \"#utility.yul\":10577:10603   */\n      swap1\n      pop\n        /* \"#utility.yul\":10649:10658   */\n      dup2\n        /* \"#utility.yul\":10643:10647   */\n      dup2\n        /* \"#utility.yul\":10639:10659   */\n      sub\n        /* \"#utility.yul\":10635:10636   */\n      0x00\n        /* \"#utility.yul\":10624:10633   */\n      dup4\n        /* \"#utility.yul\":10620:10637   */\n      add\n        /* \"#utility.yul\":10613:10660   */\n      mstore\n        /* \"#utility.yul\":10677:10808   */\n      tag_458\n        /* \"#utility.yul\":10803:10807   */\n      dup2\n        /* \"#utility.yul\":10677:10808   */\n      tag_309\n      jump\t// in\n    tag_458:\n        /* \"#utility.yul\":10669:10808   */\n      swap1\n      pop\n        /* \"#utility.yul\":10396:10815   */\n      swap2\n      swap1\n      pop\n      jump\t// out\n        /* \"#utility.yul\":10821:11048   */\n    tag_310:\n        /* \"#utility.yul\":10961:10995   */\n      0x536f75726365206d75737420626520746865206f7261636c65206f6620746865\n        /* \"#utility.yul\":10957:10958   */\n      0x00\n        /* \"#utility.yul\":10949:10955   */\n      dup3\n        /* \"#utility.yul\":10945:10959   */\n      add\n        /* \"#utility.yul\":10938:10996   */\n      mstore\n        /* \"#utility.yul\":11030:11040   */\n      0x2072657175657374000000000000000000000000000000000000000000000000\n        /* \"#utility.yul\":11025:11027   */\n      0x20\n        /* \"#utility.yul\":11017:11023   */\n      dup3\n        /* \"#utility.yul\":11013:11028   */\n      add\n        /* \"#utility.yul\":11006:11041   */\n      mstore\n        /* \"#utility.yul\":10821:11048   */\n      pop\n      jump\t// out\n        /* \"#utility.yul\":11054:11420   */\n    tag_311:\n        /* \"#utility.yul\":11196:11199   */\n      0x00\n        /* \"#utility.yul\":11217:11284   */\n      tag_461\n        /* \"#utility.yul\":11281:11283   */\n      0x28\n        /* \"#utility.yul\":11276:11279   */\n      dup4\n        /* \"#utility.yul\":11217:11284   */\n      tag_301\n      jump\t// in\n    tag_461:\n        /* \"#utility.yul\":11210:11284   */\n      swap2\n      pop\n        /* \"#utility.yul\":11293:11386   */\n      tag_462\n        /* \"#utility.yul\":11382:11385   */\n      dup3\n        /* \"#utility.yul\":11293:11386   */\n      tag_310\n      jump\t// in\n    tag_462:\n        /* \"#utility.yul\":11411:11413   */\n      0x40\n        /* \"#utility.yul\":11406:11409   */\n      dup3\n        /* \"#utility.yul\":11402:11414   */\n      add\n        /* \"#utility.yul\":11395:11414   */\n      swap1\n      pop\n        /* \"#utility.yul\":11054:11420   */\n      swap2\n      swap1\n      pop\n      jump\t// out\n        /* \"#utility.yul\":11426:11845   */\n    tag_74:\n        /* \"#utility.yul\":11592:11596   */\n      0x00\n        /* \"#utility.yul\":11630:11632   */\n      0x20\n        /* \"#utility.yul\":11619:11628   */\n      dup3\n        /* \"#utility.yul\":11615:11633   */\n      add\n        /* \"#utility.yul\":11607:11633   */\n      swap1\n      pop\n        /* \"#utility.yul\":11679:11688   */\n      dup2\n        /* \"#utility.yul\":11673:11677   */\n      dup2\n        /* \"#utility.yul\":11669:11689   */\n      sub\n        /* \"#utility.yul\":11665:11666   */\n      0x00\n        /* \"#utility.yul\":11654:11663   */\n      dup4\n        /* \"#utility.yul\":11650:11667   */\n      add\n        /* \"#utility.yul\":11643:11690   */\n      mstore\n        /* \"#utility.yul\":11707:11838   */\n      tag_464\n        /* \"#utility.yul\":11833:11837   */\n      dup2\n        /* \"#utility.yul\":11707:11838   */\n      tag_311\n      jump\t// in\n    tag_464:\n        /* \"#utility.yul\":11699:11838   */\n      swap1\n      pop\n        /* \"#utility.yul\":11426:11845   */\n      swap2\n      swap1\n      pop\n      jump\t// out\n        /* \"#utility.yul\":11851:12031   */\n    tag_312:\n        /* \"#utility.yul\":11899:11976   */\n      0x4e487b7100000000000000000000000000000000000000000000000000000000\n        /* \"#utility.yul\":11896:11897   */\n      0x00\n        /* \"#utility.yul\":11889:11977   */\n      mstore\n        /* \"#utility.yul\":11996:12000   */\n      0x11\n        /* \"#utility.yul\":11993:11994   */\n      0x04\n        /* \"#utility.yul\":11986:12001   */\n      mstore\n        /* \"#utility.yul\":12020:12024   */\n      0x24\n        /* \"#utility.yul\":12017:12018   */\n      0x00\n        /* \"#utility.yul\":12010:12025   */\n      revert\n        /* \"#utility.yul\":12037:12447   */\n    tag_90:\n        /* \"#utility.yul\":12077:12084   */\n      0x00\n        /* \"#utility.yul\":12100:12120   */\n      tag_467\n        /* \"#utility.yul\":12118:12119   */\n      dup3\n        /* \"#utility.yul\":12100:12120   */\n      tag_282\n      jump\t// in\n    tag_467:\n        /* \"#utility.yul\":12095:12120   */\n      swap2\n      pop\n        /* \"#utility.yul\":12134:12154   */\n      tag_468\n        /* \"#utility.yul\":12152:12153   */\n      dup4\n        /* \"#utility.yul\":12134:12154   */\n      tag_282\n      jump\t// in\n    tag_468:\n        /* \"#utility.yul\":12129:12154   */\n      swap3\n      pop\n        /* \"#utility.yul\":12189:12190   */\n      dup3\n        /* \"#utility.yul\":12186:12187   */\n      dup3\n        /* \"#utility.yul\":12182:12191   */\n      mul\n        /* \"#utility.yul\":12211:12241   */\n      tag_469\n        /* \"#utility.yul\":12229:12240   */\n      dup2\n        /* \"#utility.yul\":12211:12241   */\n      tag_282\n      jump\t// in\n    tag_469:\n        /* \"#utility.yul\":12200:12241   */\n      swap2\n      pop\n        /* \"#utility.yul\":12390:12391   */\n      dup3\n        /* \"#utility.yul\":12381:12388   */\n      dup3\n        /* \"#utility.yul\":12377:12392   */\n      div\n        /* \"#utility.yul\":12374:12375   */\n      dup5\n        /* \"#utility.yul\":12371:12393   */\n      eq\n        /* \"#utility.yul\":12351:12352   */\n      dup4\n        /* \"#utility.yul\":12344:12353   */\n      iszero\n        /* \"#utility.yul\":12324:12407   */\n      or\n        /* \"#utility.yul\":12301:12440   */\n      tag_470\n      jumpi\n        /* \"#utility.yul\":12420:12438   */\n      tag_471\n      tag_312\n      jump\t// in\n    tag_471:\n        /* \"#utility.yul\":12301:12440   */\n    tag_470:\n        /* \"#utility.yul\":12085:12447   */\n      pop\n        /* \"#utility.yul\":12037:12447   */\n      swap3\n      swap2\n      pop\n      pop\n      jump\t// out\n        /* \"#utility.yul\":12453:12633   */\n    tag_313:\n        /* \"#utility.yul\":12501:12578   */\n      0x4e487b7100000000000000000000000000000000000000000000000000000000\n        /* \"#utility.yul\":12498:12499   */\n      0x00\n        /* \"#utility.yul\":12491:12579   */\n      mstore\n        /* \"#utility.yul\":12598:12602   */\n      0x12\n        /* \"#utility.yul\":12595:12596   */\n      0x04\n        /* \"#utility.yul\":12588:12603   */\n      mstore\n        /* \"#utility.yul\":12622:12626   */\n      0x24\n        /* \"#utility.yul\":12619:12620   */\n      0x00\n        /* \"#utility.yul\":12612:12627   */\n      revert\n        /* \"#utility.yul\":12639:12824   */\n    tag_92:\n        /* \"#utility.yul\":12679:12680   */\n      0x00\n        /* \"#utility.yul\":12696:12716   */\n      tag_474\n        /* \"#utility.yul\":12714:12715   */\n      dup3\n        /* \"#utility.yul\":12696:12716   */\n      tag_282\n      jump\t// in\n    tag_474:\n        /* \"#utility.yul\":12691:12716   */\n      swap2\n      pop\n        /* \"#utility.yul\":12730:12750   */\n      tag_475\n        /* \"#utility.yul\":12748:12749   */\n      dup4\n        /* \"#utility.yul\":12730:12750   */\n      tag_282\n      jump\t// in\n    tag_475:\n        /* \"#utility.yul\":12725:12750   */\n      swap3\n      pop\n        /* \"#utility.yul\":12769:12770   */\n      dup3\n        /* \"#utility.yul\":12759:12794   */\n      tag_476\n      jumpi\n        /* \"#utility.yul\":12774:12792   */\n      tag_477\n      tag_313\n      jump\t// in\n    tag_477:\n        /* \"#utility.yul\":12759:12794   */\n    tag_476:\n        /* \"#utility.yul\":12816:12817   */\n      dup3\n        /* \"#utility.yul\":12813:12814   */\n      dup3\n        /* \"#utility.yul\":12809:12818   */\n      div\n        /* \"#utility.yul\":12804:12818   */\n      swap1\n      pop\n        /* \"#utility.yul\":12639:12824   */\n      swap3\n      swap2\n      pop\n      pop\n      jump\t// out\n        /* \"#utility.yul\":12830:13002   */\n    tag_314:\n        /* \"#utility.yul\":12970:12994   */\n      0x4f6e6c792063616c6c61626c65206279206f776e657200000000000000000000\n        /* \"#utility.yul\":12966:12967   */\n      0x00\n        /* \"#utility.yul\":12958:12964   */\n      dup3\n        /* \"#utility.yul\":12954:12968   */\n      add\n        /* \"#utility.yul\":12947:12995   */\n      mstore\n        /* \"#utility.yul\":12830:13002   */\n      pop\n      jump\t// out\n        /* \"#utility.yul\":13008:13374   */\n    tag_315:\n        /* \"#utility.yul\":13150:13153   */\n      0x00\n        /* \"#utility.yul\":13171:13238   */\n      tag_480\n        /* \"#utility.yul\":13235:13237   */\n      0x16\n        /* \"#utility.yul\":13230:13233   */\n      dup4\n        /* \"#utility.yul\":13171:13238   */\n      tag_301\n      jump\t// in\n    tag_480:\n        /* \"#utility.yul\":13164:13238   */\n      swap2\n      pop\n        /* \"#utility.yul\":13247:13340   */\n      tag_481\n        /* \"#utility.yul\":13336:13339   */\n      dup3\n        /* \"#utility.yul\":13247:13340   */\n      tag_314\n      jump\t// in\n    tag_481:\n        /* \"#utility.yul\":13365:13367   */\n      0x20\n        /* \"#utility.yul\":13360:13363   */\n      dup3\n        /* \"#utility.yul\":13356:13368   */\n      add\n        /* \"#utility.yul\":13349:13368   */\n      swap1\n      pop\n        /* \"#utility.yul\":13008:13374   */\n      swap2\n      swap1\n      pop\n      jump\t// out\n        /* \"#utility.yul\":13380:13799   */\n    tag_108:\n        /* \"#utility.yul\":13546:13550   */\n      0x00\n        /* \"#utility.yul\":13584:13586   */\n      0x20\n        /* \"#utility.yul\":13573:13582   */\n      dup3\n        /* \"#utility.yul\":13569:13587   */\n      add\n        /* \"#utility.yul\":13561:13587   */\n      swap1\n      pop\n        /* \"#utility.yul\":13633:13642   */\n      dup2\n        /* \"#utility.yul\":13627:13631   */\n      dup2\n        /* \"#utility.yul\":13623:13643   */\n      sub\n        /* \"#utility.yul\":13619:13620   */\n      0x00\n        /* \"#utility.yul\":13608:13617   */\n      dup4\n        /* \"#utility.yul\":13604:13621   */\n      add\n        /* \"#utility.yul\":13597:13644   */\n      mstore\n        /* \"#utility.yul\":13661:13792   */\n      tag_483\n        /* \"#utility.yul\":13787:13791   */\n      dup2\n        /* \"#utility.yul\":13661:13792   */\n      tag_315\n      jump\t// in\n    tag_483:\n        /* \"#utility.yul\":13653:13792   */\n      swap1\n      pop\n        /* \"#utility.yul\":13380:13799   */\n      swap2\n      swap1\n      pop\n      jump\t// out\n        /* \"#utility.yul\":13805:13996   */\n    tag_127:\n        /* \"#utility.yul\":13845:13848   */\n      0x00\n        /* \"#utility.yul\":13864:13884   */\n      tag_485\n        /* \"#utility.yul\":13882:13883   */\n      dup3\n        /* \"#utility.yul\":13864:13884   */\n      tag_282\n      jump\t// in\n    tag_485:\n        /* \"#utility.yul\":13859:13884   */\n      swap2\n      pop\n        /* \"#utility.yul\":13898:13918   */\n      tag_486\n        /* \"#utility.yul\":13916:13917   */\n      dup4\n        /* \"#utility.yul\":13898:13918   */\n      tag_282\n      jump\t// in\n    tag_486:\n        /* \"#utility.yul\":13893:13918   */\n      swap3\n      pop\n        /* \"#utility.yul\":13941:13942   */\n      dup3\n        /* \"#utility.yul\":13938:13939   */\n      dup3\n        /* \"#utility.yul\":13934:13943   */\n      add\n        /* \"#utility.yul\":13927:13943   */\n      swap1\n      pop\n        /* \"#utility.yul\":13962:13965   */\n      dup1\n        /* \"#utility.yul\":13959:13960   */\n      dup3\n        /* \"#utility.yul\":13956:13966   */\n      gt\n        /* \"#utility.yul\":13953:13989   */\n      iszero\n      tag_487\n      jumpi\n        /* \"#utility.yul\":13969:13987   */\n      tag_488\n      tag_312\n      jump\t// in\n    tag_488:\n        /* \"#utility.yul\":13953:13989   */\n    tag_487:\n        /* \"#utility.yul\":13805:13996   */\n      swap3\n      swap2\n      pop\n      pop\n      jump\t// out\n        /* \"#utility.yul\":14002:14120   */\n    tag_316:\n        /* \"#utility.yul\":14089:14113   */\n      tag_490\n        /* \"#utility.yul\":14107:14112   */\n      dup2\n        /* \"#utility.yul\":14089:14113   */\n      tag_279\n      jump\t// in\n    tag_490:\n        /* \"#utility.yul\":14084:14087   */\n      dup3\n        /* \"#utility.yul\":14077:14114   */\n      mstore\n        /* \"#utility.yul\":14002:14120   */\n      pop\n      pop\n      jump\t// out\n        /* \"#utility.yul\":14126:14241   */\n    tag_317:\n        /* \"#utility.yul\":14211:14234   */\n      tag_492\n        /* \"#utility.yul\":14228:14233   */\n      dup2\n        /* \"#utility.yul\":14211:14234   */\n      tag_298\n      jump\t// in\n    tag_492:\n        /* \"#utility.yul\":14206:14209   */\n      dup3\n        /* \"#utility.yul\":14199:14235   */\n      mstore\n        /* \"#utility.yul\":14126:14241   */\n      pop\n      pop\n      jump\t// out\n        /* \"#utility.yul\":14247:14345   */\n    tag_318:\n        /* \"#utility.yul\":14298:14304   */\n      0x00\n        /* \"#utility.yul\":14332:14337   */\n      dup2\n        /* \"#utility.yul\":14326:14338   */\n      mload\n        /* \"#utility.yul\":14316:14338   */\n      swap1\n      pop\n        /* \"#utility.yul\":14247:14345   */\n      swap2\n      swap1\n      pop\n      jump\t// out\n        /* \"#utility.yul\":14351:14519   */\n    tag_319:\n        /* \"#utility.yul\":14434:14445   */\n      0x00\n        /* \"#utility.yul\":14468:14474   */\n      dup3\n        /* \"#utility.yul\":14463:14466   */\n      dup3\n        /* \"#utility.yul\":14456:14475   */\n      mstore\n        /* \"#utility.yul\":14508:14512   */\n      0x20\n        /* \"#utility.yul\":14503:14506   */\n      dup3\n        /* \"#utility.yul\":14499:14513   */\n      add\n        /* \"#utility.yul\":14484:14513   */\n      swap1\n      pop\n        /* \"#utility.yul\":14351:14519   */\n      swap3\n      swap2\n      pop\n      pop\n      jump\t// out\n        /* \"#utility.yul\":14525:14771   */\n    tag_320:\n        /* \"#utility.yul\":14606:14607   */\n      0x00\n        /* \"#utility.yul\":14616:14729   */\n    tag_496:\n        /* \"#utility.yul\":14630:14636   */\n      dup4\n        /* \"#utility.yul\":14627:14628   */\n      dup2\n        /* \"#utility.yul\":14624:14637   */\n      lt\n        /* \"#utility.yul\":14616:14729   */\n      iszero\n      tag_498\n      jumpi\n        /* \"#utility.yul\":14715:14716   */\n      dup1\n        /* \"#utility.yul\":14710:14713   */\n      dup3\n        /* \"#utility.yul\":14706:14717   */\n      add\n        /* \"#utility.yul\":14700:14718   */\n      mload\n        /* \"#utility.yul\":14696:14697   */\n      dup2\n        /* \"#utility.yul\":14691:14694   */\n      dup5\n        /* \"#utility.yul\":14687:14698   */\n      add\n        /* \"#utility.yul\":14680:14719   */\n      mstore\n        /* \"#utility.yul\":14652:14654   */\n      0x20\n        /* \"#utility.yul\":14649:14650   */\n      dup2\n        /* \"#utility.yul\":14645:14655   */\n      add\n        /* \"#utility.yul\":14640:14655   */\n      swap1\n      pop\n        /* \"#utility.yul\":14616:14729   */\n      jump(tag_496)\n    tag_498:\n        /* \"#utility.yul\":14763:14764   */\n      0x00\n        /* \"#utility.yul\":14754:14760   */\n      dup5\n        /* \"#utility.yul\":14749:14752   */\n      dup5\n        /* \"#utility.yul\":14745:14761   */\n      add\n        /* \"#utility.yul\":14738:14765   */\n      mstore\n        /* \"#utility.yul\":14587:14771   */\n      pop\n        /* \"#utility.yul\":14525:14771   */\n      pop\n      pop\n      pop\n      jump\t// out\n        /* \"#utility.yul\":14777:15150   */\n    tag_321:\n        /* \"#utility.yul\":14863:14866   */\n      0x00\n        /* \"#utility.yul\":14891:14929   */\n      tag_500\n        /* \"#utility.yul\":14923:14928   */\n      dup3\n        /* \"#utility.yul\":14891:14929   */\n      tag_318\n      jump\t// in\n    tag_500:\n        /* \"#utility.yul\":14945:15015   */\n      tag_501\n        /* \"#utility.yul\":15008:15014   */\n      dup2\n        /* \"#utility.yul\":15003:15006   */\n      dup6\n        /* \"#utility.yul\":14945:15015   */\n      tag_319\n      jump\t// in\n    tag_501:\n        /* \"#utility.yul\":14938:15015   */\n      swap4\n      pop\n        /* \"#utility.yul\":15024:15089   */\n      tag_502\n        /* \"#utility.yul\":15082:15088   */\n      dup2\n        /* \"#utility.yul\":15077:15080   */\n      dup6\n        /* \"#utility.yul\":15070:15074   */\n      0x20\n        /* \"#utility.yul\":15063:15068   */\n      dup7\n        /* \"#utility.yul\":15059:15075   */\n      add\n        /* \"#utility.yul\":15024:15089   */\n      tag_320\n      jump\t// in\n    tag_502:\n        /* \"#utility.yul\":15114:15143   */\n      tag_503\n        /* \"#utility.yul\":15136:15142   */\n      dup2\n        /* \"#utility.yul\":15114:15143   */\n      tag_290\n      jump\t// in\n    tag_503:\n        /* \"#utility.yul\":15109:15112   */\n      dup5\n        /* \"#utility.yul\":15105:15144   */\n      add\n        /* \"#utility.yul\":15098:15144   */\n      swap2\n      pop\n        /* \"#utility.yul\":14867:15150   */\n      pop\n        /* \"#utility.yul\":14777:15150   */\n      swap3\n      swap2\n      pop\n      pop\n      jump\t// out\n        /* \"#utility.yul\":15156:16236   */\n    tag_129:\n        /* \"#utility.yul\":15461:15465   */\n      0x00\n        /* \"#utility.yul\":15499:15502   */\n      0x0100\n        /* \"#utility.yul\":15488:15497   */\n      dup3\n        /* \"#utility.yul\":15484:15503   */\n      add\n        /* \"#utility.yul\":15476:15503   */\n      swap1\n      pop\n        /* \"#utility.yul\":15513:15584   */\n      tag_505\n        /* \"#utility.yul\":15581:15582   */\n      0x00\n        /* \"#utility.yul\":15570:15579   */\n      dup4\n        /* \"#utility.yul\":15566:15583   */\n      add\n        /* \"#utility.yul\":15557:15563   */\n      dup12\n        /* \"#utility.yul\":15513:15584   */\n      tag_275\n      jump\t// in\n    tag_505:\n        /* \"#utility.yul\":15594:15666   */\n      tag_506\n        /* \"#utility.yul\":15662:15664   */\n      0x20\n        /* \"#utility.yul\":15651:15660   */\n      dup4\n        /* \"#utility.yul\":15647:15665   */\n      add\n        /* \"#utility.yul\":15638:15644   */\n      dup11\n        /* \"#utility.yul\":15594:15666   */\n      tag_285\n      jump\t// in\n    tag_506:\n        /* \"#utility.yul\":15676:15748   */\n      tag_507\n        /* \"#utility.yul\":15744:15746   */\n      0x40\n        /* \"#utility.yul\":15733:15742   */\n      dup4\n        /* \"#utility.yul\":15729:15747   */\n      add\n        /* \"#utility.yul\":15720:15726   */\n      dup10\n        /* \"#utility.yul\":15676:15748   */\n      tag_316\n      jump\t// in\n    tag_507:\n        /* \"#utility.yul\":15758:15830   */\n      tag_508\n        /* \"#utility.yul\":15826:15828   */\n      0x60\n        /* \"#utility.yul\":15815:15824   */\n      dup4\n        /* \"#utility.yul\":15811:15829   */\n      add\n        /* \"#utility.yul\":15802:15808   */\n      dup9\n        /* \"#utility.yul\":15758:15830   */\n      tag_275\n      jump\t// in\n    tag_508:\n        /* \"#utility.yul\":15840:15911   */\n      tag_509\n        /* \"#utility.yul\":15906:15909   */\n      0x80\n        /* \"#utility.yul\":15895:15904   */\n      dup4\n        /* \"#utility.yul\":15891:15910   */\n      add\n        /* \"#utility.yul\":15882:15888   */\n      dup8\n        /* \"#utility.yul\":15840:15911   */\n      tag_317\n      jump\t// in\n    tag_509:\n        /* \"#utility.yul\":15921:15994   */\n      tag_510\n        /* \"#utility.yul\":15989:15992   */\n      0xa0\n        /* \"#utility.yul\":15978:15987   */\n      dup4\n        /* \"#utility.yul\":15974:15993   */\n      add\n        /* \"#utility.yul\":15965:15971   */\n      dup7\n        /* \"#utility.yul\":15921:15994   */\n      tag_285\n      jump\t// in\n    tag_510:\n        /* \"#utility.yul\":16004:16077   */\n      tag_511\n        /* \"#utility.yul\":16072:16075   */\n      0xc0\n        /* \"#utility.yul\":16061:16070   */\n      dup4\n        /* \"#utility.yul\":16057:16076   */\n      add\n        /* \"#utility.yul\":16048:16054   */\n      dup6\n        /* \"#utility.yul\":16004:16077   */\n      tag_285\n      jump\t// in\n    tag_511:\n        /* \"#utility.yul\":16125:16134   */\n      dup2\n        /* \"#utility.yul\":16119:16123   */\n      dup2\n        /* \"#utility.yul\":16115:16135   */\n      sub\n        /* \"#utility.yul\":16109:16112   */\n      0xe0\n        /* \"#utility.yul\":16098:16107   */\n      dup4\n        /* \"#utility.yul\":16094:16113   */\n      add\n        /* \"#utility.yul\":16087:16136   */\n      mstore\n        /* \"#utility.yul\":16153:16229   */\n      tag_512\n        /* \"#utility.yul\":16224:16228   */\n      dup2\n        /* \"#utility.yul\":16215:16221   */\n      dup5\n        /* \"#utility.yul\":16153:16229   */\n      tag_321\n      jump\t// in\n    tag_512:\n        /* \"#utility.yul\":16145:16229   */\n      swap1\n      pop\n        /* \"#utility.yul\":15156:16236   */\n      swap10\n      swap9\n      pop\n      pop\n      pop\n      pop\n      pop\n      pop\n      pop\n      pop\n      pop\n      jump\t// out\n        /* \"#utility.yul\":16242:16791   */\n    tag_134:\n        /* \"#utility.yul\":16417:16421   */\n      0x00\n        /* \"#utility.yul\":16455:16458   */\n      0x80\n        /* \"#utility.yul\":16444:16453   */\n      dup3\n        /* \"#utility.yul\":16440:16459   */\n      add\n        /* \"#utility.yul\":16432:16459   */\n      swap1\n      pop\n        /* \"#utility.yul\":16469:16540   */\n      tag_514\n        /* \"#utility.yul\":16537:16538   */\n      0x00\n        /* \"#utility.yul\":16526:16535   */\n      dup4\n        /* \"#utility.yul\":16522:16539   */\n      add\n        /* \"#utility.yul\":16513:16519   */\n      dup8\n        /* \"#utility.yul\":16469:16540   */\n      tag_316\n      jump\t// in\n    tag_514:\n        /* \"#utility.yul\":16550:16622   */\n      tag_515\n        /* \"#utility.yul\":16618:16620   */\n      0x20\n        /* \"#utility.yul\":16607:16616   */\n      dup4\n        /* \"#utility.yul\":16603:16621   */\n      add\n        /* \"#utility.yul\":16594:16600   */\n      dup7\n        /* \"#utility.yul\":16550:16622   */\n      tag_285\n      jump\t// in\n    tag_515:\n        /* \"#utility.yul\":16632:16702   */\n      tag_516\n        /* \"#utility.yul\":16698:16700   */\n      0x40\n        /* \"#utility.yul\":16687:16696   */\n      dup4\n        /* \"#utility.yul\":16683:16701   */\n      add\n        /* \"#utility.yul\":16674:16680   */\n      dup6\n        /* \"#utility.yul\":16632:16702   */\n      tag_317\n      jump\t// in\n    tag_516:\n        /* \"#utility.yul\":16712:16784   */\n      tag_517\n        /* \"#utility.yul\":16780:16782   */\n      0x60\n        /* \"#utility.yul\":16769:16778   */\n      dup4\n        /* \"#utility.yul\":16765:16783   */\n      add\n        /* \"#utility.yul\":16756:16762   */\n      dup5\n        /* \"#utility.yul\":16712:16784   */\n      tag_285\n      jump\t// in\n    tag_517:\n        /* \"#utility.yul\":16242:16791   */\n      swap6\n      swap5\n      pop\n      pop\n      pop\n      pop\n      pop\n      jump\t// out\n        /* \"#utility.yul\":16797:16970   */\n    tag_322:\n        /* \"#utility.yul\":16937:16962   */\n      0x43616e6e6f74207472616e7366657220746f2073656c66000000000000000000\n        /* \"#utility.yul\":16933:16934   */\n      0x00\n        /* \"#utility.yul\":16925:16931   */\n      dup3\n        /* \"#utility.yul\":16921:16935   */\n      add\n        /* \"#utility.yul\":16914:16963   */\n      mstore\n        /* \"#utility.yul\":16797:16970   */\n      pop\n      jump\t// out\n        /* \"#utility.yul\":16976:17342   */\n    tag_323:\n        /* \"#utility.yul\":17118:17121   */\n      0x00\n        /* \"#utility.yul\":17139:17206   */\n      tag_520\n        /* \"#utility.yul\":17203:17205   */\n      0x17\n        /* \"#utility.yul\":17198:17201   */\n      dup4\n        /* \"#utility.yul\":17139:17206   */\n      tag_301\n      jump\t// in\n    tag_520:\n        /* \"#utility.yul\":17132:17206   */\n      swap2\n      pop\n        /* \"#utility.yul\":17215:17308   */\n      tag_521\n        /* \"#utility.yul\":17304:17307   */\n      dup3\n        /* \"#utility.yul\":17215:17308   */\n      tag_322\n      jump\t// in\n    tag_521:\n        /* \"#utility.yul\":17333:17335   */\n      0x20\n        /* \"#utility.yul\":17328:17331   */\n      dup3\n        /* \"#utility.yul\":17324:17336   */\n      add\n        /* \"#utility.yul\":17317:17336   */\n      swap1\n      pop\n        /* \"#utility.yul\":16976:17342   */\n      swap2\n      swap1\n      pop\n      jump\t// out\n        /* \"#utility.yul\":17348:17767   */\n    tag_141:\n        /* \"#utility.yul\":17514:17518   */\n      0x00\n        /* \"#utility.yul\":17552:17554   */\n      0x20\n        /* \"#utility.yul\":17541:17550   */\n      dup3\n        /* \"#utility.yul\":17537:17555   */\n      add\n        /* \"#utility.yul\":17529:17555   */\n      swap1\n      pop\n        /* \"#utility.yul\":17601:17610   */\n      dup2\n        /* \"#utility.yul\":17595:17599   */\n      dup2\n        /* \"#utility.yul\":17591:17611   */\n      sub\n        /* \"#utility.yul\":17587:17588   */\n      0x00\n        /* \"#utility.yul\":17576:17585   */\n      dup4\n        /* \"#utility.yul\":17572:17589   */\n      add\n        /* \"#utility.yul\":17565:17612   */\n      mstore\n        /* \"#utility.yul\":17629:17760   */\n      tag_523\n        /* \"#utility.yul\":17755:17759   */\n      dup2\n        /* \"#utility.yul\":17629:17760   */\n      tag_323\n      jump\t// in\n    tag_523:\n        /* \"#utility.yul\":17621:17760   */\n      swap1\n      pop\n        /* \"#utility.yul\":17348:17767   */\n      swap2\n      swap1\n      pop\n      jump\t// out\n        /* \"#utility.yul\":17773:17849   */\n    tag_324:\n        /* \"#utility.yul\":17809:17816   */\n      0x00\n        /* \"#utility.yul\":17838:17843   */\n      dup2\n        /* \"#utility.yul\":17827:17843   */\n      swap1\n      pop\n        /* \"#utility.yul\":17773:17849   */\n      swap2\n      swap1\n      pop\n      jump\t// out\n        /* \"#utility.yul\":17855:18227   */\n    tag_165:\n        /* \"#utility.yul\":17894:17898   */\n      0x00\n        /* \"#utility.yul\":17914:17933   */\n      tag_526\n        /* \"#utility.yul\":17931:17932   */\n      dup3\n        /* \"#utility.yul\":17914:17933   */\n      tag_324\n      jump\t// in\n    tag_526:\n        /* \"#utility.yul\":17909:17933   */\n      swap2\n      pop\n        /* \"#utility.yul\":17947:17966   */\n      tag_527\n        /* \"#utility.yul\":17964:17965   */\n      dup4\n        /* \"#utility.yul\":17947:17966   */\n      tag_324\n      jump\t// in\n    tag_527:\n        /* \"#utility.yul\":17942:17966   */\n      swap3\n      pop\n        /* \"#utility.yul\":17990:17991   */\n      dup3\n        /* \"#utility.yul\":17987:17988   */\n      dup3\n        /* \"#utility.yul\":17983:17992   */\n      sub\n        /* \"#utility.yul\":17975:17992   */\n      swap1\n      pop\n        /* \"#utility.yul\":18184:18185   */\n      dup2\n        /* \"#utility.yul\":18178:18182   */\n      dup2\n        /* \"#utility.yul\":18174:18186   */\n      slt\n        /* \"#utility.yul\":18170:18171   */\n      0x00\n        /* \"#utility.yul\":18167:18168   */\n      dup5\n        /* \"#utility.yul\":18163:18172   */\n      slt\n        /* \"#utility.yul\":18159:18187   */\n      and\n        /* \"#utility.yul\":18142:18143   */\n      dup3\n        /* \"#utility.yul\":18136:18140   */\n      dup3\n        /* \"#utility.yul\":18132:18144   */\n      sgt\n        /* \"#utility.yul\":18127:18128   */\n      0x00\n        /* \"#utility.yul\":18124:18125   */\n      dup6\n        /* \"#utility.yul\":18120:18129   */\n      slt\n        /* \"#utility.yul\":18113:18130   */\n      iszero\n        /* \"#utility.yul\":18109:18145   */\n      and\n        /* \"#utility.yul\":18093:18197   */\n      or\n        /* \"#utility.yul\":18090:18220   */\n      iszero\n      tag_528\n      jumpi\n        /* \"#utility.yul\":18200:18218   */\n      tag_529\n      tag_312\n      jump\t// in\n    tag_529:\n        /* \"#utility.yul\":18090:18220   */\n    tag_528:\n        /* \"#utility.yul\":17855:18227   */\n      swap3\n      swap2\n      pop\n      pop\n      jump\t// out\n        /* \"#utility.yul\":18233:18293   */\n    tag_325:\n        /* \"#utility.yul\":18261:18264   */\n      0x00\n        /* \"#utility.yul\":18282:18287   */\n      dup2\n        /* \"#utility.yul\":18275:18287   */\n      swap1\n      pop\n        /* \"#utility.yul\":18233:18293   */\n      swap2\n      swap1\n      pop\n      jump\t// out\n        /* \"#utility.yul\":18299:18441   */\n    tag_326:\n        /* \"#utility.yul\":18349:18358   */\n      0x00\n        /* \"#utility.yul\":18382:18435   */\n      tag_532\n        /* \"#utility.yul\":18400:18434   */\n      tag_533\n        /* \"#utility.yul\":18409:18433   */\n      tag_534\n        /* \"#utility.yul\":18427:18432   */\n      dup5\n        /* \"#utility.yul\":18409:18433   */\n      tag_273\n      jump\t// in\n    tag_534:\n        /* \"#utility.yul\":18400:18434   */\n      tag_325\n      jump\t// in\n    tag_533:\n        /* \"#utility.yul\":18382:18435   */\n      tag_273\n      jump\t// in\n    tag_532:\n        /* \"#utility.yul\":18369:18435   */\n      swap1\n      pop\n        /* \"#utility.yul\":18299:18441   */\n      swap2\n      swap1\n      pop\n      jump\t// out\n        /* \"#utility.yul\":18447:18573   */\n    tag_327:\n        /* \"#utility.yul\":18497:18506   */\n      0x00\n        /* \"#utility.yul\":18530:18567   */\n      tag_536\n        /* \"#utility.yul\":18561:18566   */\n      dup3\n        /* \"#utility.yul\":18530:18567   */\n      tag_326\n      jump\t// in\n    tag_536:\n        /* \"#utility.yul\":18517:18567   */\n      swap1\n      pop\n        /* \"#utility.yul\":18447:18573   */\n      swap2\n      swap1\n      pop\n      jump\t// out\n        /* \"#utility.yul\":18579:18728   */\n    tag_328:\n        /* \"#utility.yul\":18652:18661   */\n      0x00\n        /* \"#utility.yul\":18685:18722   */\n      tag_538\n        /* \"#utility.yul\":18716:18721   */\n      dup3\n        /* \"#utility.yul\":18685:18722   */\n      tag_327\n      jump\t// in\n    tag_538:\n        /* \"#utility.yul\":18672:18722   */\n      swap1\n      pop\n        /* \"#utility.yul\":18579:18728   */\n      swap2\n      swap1\n      pop\n      jump\t// out\n        /* \"#utility.yul\":18734:18828   */\n    tag_329:\n        /* \"#utility.yul\":18767:18775   */\n      0x00\n        /* \"#utility.yul\":18815:18820   */\n      dup2\n        /* \"#utility.yul\":18811:18813   */\n      0x60\n        /* \"#utility.yul\":18807:18821   */\n      shl\n        /* \"#utility.yul\":18786:18821   */\n      swap1\n      pop\n        /* \"#utility.yul\":18734:18828   */\n      swap2\n      swap1\n      pop\n      jump\t// out\n        /* \"#utility.yul\":18834:18928   */\n    tag_330:\n        /* \"#utility.yul\":18873:18880   */\n      0x00\n        /* \"#utility.yul\":18902:18922   */\n      tag_541\n        /* \"#utility.yul\":18916:18921   */\n      dup3\n        /* \"#utility.yul\":18902:18922   */\n      tag_329\n      jump\t// in\n    tag_541:\n        /* \"#utility.yul\":18891:18922   */\n      swap1\n      pop\n        /* \"#utility.yul\":18834:18928   */\n      swap2\n      swap1\n      pop\n      jump\t// out\n        /* \"#utility.yul\":18934:19034   */\n    tag_331:\n        /* \"#utility.yul\":18973:18980   */\n      0x00\n        /* \"#utility.yul\":19002:19028   */\n      tag_543\n        /* \"#utility.yul\":19022:19027   */\n      dup3\n        /* \"#utility.yul\":19002:19028   */\n      tag_330\n      jump\t// in\n    tag_543:\n        /* \"#utility.yul\":18991:19028   */\n      swap1\n      pop\n        /* \"#utility.yul\":18934:19034   */\n      swap2\n      swap1\n      pop\n      jump\t// out\n        /* \"#utility.yul\":19040:19256   */\n    tag_332:\n        /* \"#utility.yul\":19168:19249   */\n      tag_545\n        /* \"#utility.yul\":19188:19248   */\n      tag_546\n        /* \"#utility.yul\":19242:19247   */\n      dup3\n        /* \"#utility.yul\":19188:19248   */\n      tag_328\n      jump\t// in\n    tag_546:\n        /* \"#utility.yul\":19168:19249   */\n      tag_331\n      jump\t// in\n    tag_545:\n        /* \"#utility.yul\":19163:19166   */\n      dup3\n        /* \"#utility.yul\":19156:19250   */\n      mstore\n        /* \"#utility.yul\":19040:19256   */\n      pop\n      pop\n      jump\t// out\n        /* \"#utility.yul\":19262:19341   */\n    tag_333:\n        /* \"#utility.yul\":19301:19308   */\n      0x00\n        /* \"#utility.yul\":19330:19335   */\n      dup2\n        /* \"#utility.yul\":19319:19335   */\n      swap1\n      pop\n        /* \"#utility.yul\":19262:19341   */\n      swap2\n      swap1\n      pop\n      jump\t// out\n        /* \"#utility.yul\":19347:19504   */\n    tag_334:\n        /* \"#utility.yul\":19452:19497   */\n      tag_549\n        /* \"#utility.yul\":19472:19496   */\n      tag_550\n        /* \"#utility.yul\":19490:19495   */\n      dup3\n        /* \"#utility.yul\":19472:19496   */\n      tag_282\n      jump\t// in\n    tag_550:\n        /* \"#utility.yul\":19452:19497   */\n      tag_333\n      jump\t// in\n    tag_549:\n        /* \"#utility.yul\":19447:19450   */\n      dup3\n        /* \"#utility.yul\":19440:19498   */\n      mstore\n        /* \"#utility.yul\":19347:19504   */\n      pop\n      pop\n      jump\t// out\n        /* \"#utility.yul\":19510:19953   */\n    tag_168:\n        /* \"#utility.yul\":19673:19676   */\n      0x00\n        /* \"#utility.yul\":19688:19786   */\n      tag_552\n        /* \"#utility.yul\":19782:19785   */\n      dup3\n        /* \"#utility.yul\":19773:19779   */\n      dup6\n        /* \"#utility.yul\":19688:19786   */\n      tag_332\n      jump\t// in\n    tag_552:\n        /* \"#utility.yul\":19811:19813   */\n      0x14\n        /* \"#utility.yul\":19806:19809   */\n      dup3\n        /* \"#utility.yul\":19802:19814   */\n      add\n        /* \"#utility.yul\":19795:19814   */\n      swap2\n      pop\n        /* \"#utility.yul\":19824:19899   */\n      tag_553\n        /* \"#utility.yul\":19895:19898   */\n      dup3\n        /* \"#utility.yul\":19886:19892   */\n      dup5\n        /* \"#utility.yul\":19824:19899   */\n      tag_334\n      jump\t// in\n    tag_553:\n        /* \"#utility.yul\":19924:19926   */\n      0x20\n        /* \"#utility.yul\":19919:19922   */\n      dup3\n        /* \"#utility.yul\":19915:19927   */\n      add\n        /* \"#utility.yul\":19908:19927   */\n      swap2\n      pop\n        /* \"#utility.yul\":19944:19947   */\n      dup2\n        /* \"#utility.yul\":19937:19947   */\n      swap1\n      pop\n        /* \"#utility.yul\":19510:19953   */\n      swap4\n      swap3\n      pop\n      pop\n      pop\n      jump\t// out\n        /* \"#utility.yul\":19959:20488   */\n    tag_170:\n        /* \"#utility.yul\":20126:20130   */\n      0x00\n        /* \"#utility.yul\":20164:20166   */\n      0x60\n        /* \"#utility.yul\":20153:20162   */\n      dup3\n        /* \"#utility.yul\":20149:20167   */\n      add\n        /* \"#utility.yul\":20141:20167   */\n      swap1\n      pop\n        /* \"#utility.yul\":20177:20248   */\n      tag_555\n        /* \"#utility.yul\":20245:20246   */\n      0x00\n        /* \"#utility.yul\":20234:20243   */\n      dup4\n        /* \"#utility.yul\":20230:20247   */\n      add\n        /* \"#utility.yul\":20221:20227   */\n      dup7\n        /* \"#utility.yul\":20177:20248   */\n      tag_275\n      jump\t// in\n    tag_555:\n        /* \"#utility.yul\":20258:20330   */\n      tag_556\n        /* \"#utility.yul\":20326:20328   */\n      0x20\n        /* \"#utility.yul\":20315:20324   */\n      dup4\n        /* \"#utility.yul\":20311:20329   */\n      add\n        /* \"#utility.yul\":20302:20308   */\n      dup6\n        /* \"#utility.yul\":20258:20330   */\n      tag_285\n      jump\t// in\n    tag_556:\n        /* \"#utility.yul\":20377:20386   */\n      dup2\n        /* \"#utility.yul\":20371:20375   */\n      dup2\n        /* \"#utility.yul\":20367:20387   */\n      sub\n        /* \"#utility.yul\":20362:20364   */\n      0x40\n        /* \"#utility.yul\":20351:20360   */\n      dup4\n        /* \"#utility.yul\":20347:20365   */\n      add\n        /* \"#utility.yul\":20340:20388   */\n      mstore\n        /* \"#utility.yul\":20405:20481   */\n      tag_557\n        /* \"#utility.yul\":20476:20480   */\n      dup2\n        /* \"#utility.yul\":20467:20473   */\n      dup5\n        /* \"#utility.yul\":20405:20481   */\n      tag_321\n      jump\t// in\n    tag_557:\n        /* \"#utility.yul\":20397:20481   */\n      swap1\n      pop\n        /* \"#utility.yul\":19959:20488   */\n      swap5\n      swap4\n      pop\n      pop\n      pop\n      pop\n      jump\t// out\n        /* \"#utility.yul\":20494:20716   */\n    tag_335:\n        /* \"#utility.yul\":20634:20668   */\n      0x756e61626c6520746f207472616e73666572416e6443616c6c20746f206f7261\n        /* \"#utility.yul\":20630:20631   */\n      0x00\n        /* \"#utility.yul\":20622:20628   */\n      dup3\n        /* \"#utility.yul\":20618:20632   */\n      add\n        /* \"#utility.yul\":20611:20669   */\n      mstore\n        /* \"#utility.yul\":20703:20708   */\n      0x636c650000000000000000000000000000000000000000000000000000000000\n        /* \"#utility.yul\":20698:20700   */\n      0x20\n        /* \"#utility.yul\":20690:20696   */\n      dup3\n        /* \"#utility.yul\":20686:20701   */\n      add\n        /* \"#utility.yul\":20679:20709   */\n      mstore\n        /* \"#utility.yul\":20494:20716   */\n      pop\n      jump\t// out\n        /* \"#utility.yul\":20722:21088   */\n    tag_336:\n        /* \"#utility.yul\":20864:20867   */\n      0x00\n        /* \"#utility.yul\":20885:20952   */\n      tag_560\n        /* \"#utility.yul\":20949:20951   */\n      0x23\n        /* \"#utility.yul\":20944:20947   */\n      dup4\n        /* \"#utility.yul\":20885:20952   */\n      tag_301\n      jump\t// in\n    tag_560:\n        /* \"#utility.yul\":20878:20952   */\n      swap2\n      pop\n        /* \"#utility.yul\":20961:21054   */\n      tag_561\n        /* \"#utility.yul\":21050:21053   */\n      dup3\n        /* \"#utility.yul\":20961:21054   */\n      tag_335\n      jump\t// in\n    tag_561:\n        /* \"#utility.yul\":21079:21081   */\n      0x40\n        /* \"#utility.yul\":21074:21077   */\n      dup3\n        /* \"#utility.yul\":21070:21082   */\n      add\n        /* \"#utility.yul\":21063:21082   */\n      swap1\n      pop\n        /* \"#utility.yul\":20722:21088   */\n      swap2\n      swap1\n      pop\n      jump\t// out\n        /* \"#utility.yul\":21094:21513   */\n    tag_176:\n        /* \"#utility.yul\":21260:21264   */\n      0x00\n        /* \"#utility.yul\":21298:21300   */\n      0x20\n        /* \"#utility.yul\":21287:21296   */\n      dup3\n        /* \"#utility.yul\":21283:21301   */\n      add\n        /* \"#utility.yul\":21275:21301   */\n      swap1\n      pop\n        /* \"#utility.yul\":21347:21356   */\n      dup2\n        /* \"#utility.yul\":21341:21345   */\n      dup2\n        /* \"#utility.yul\":21337:21357   */\n      sub\n        /* \"#utility.yul\":21333:21334   */\n      0x00\n        /* \"#utility.yul\":21322:21331   */\n      dup4\n        /* \"#utility.yul\":21318:21335   */\n      add\n        /* \"#utility.yul\":21311:21358   */\n      mstore\n        /* \"#utility.yul\":21375:21506   */\n      tag_563\n        /* \"#utility.yul\":21501:21505   */\n      dup2\n        /* \"#utility.yul\":21375:21506   */\n      tag_336\n      jump\t// in\n    tag_563:\n        /* \"#utility.yul\":21367:21506   */\n      swap1\n      pop\n        /* \"#utility.yul\":21094:21513   */\n      swap2\n      swap1\n      pop\n      jump\t// out\n        /* \"#utility.yul\":21519:21695   */\n    tag_181:\n        /* \"#utility.yul\":21551:21552   */\n      0x00\n        /* \"#utility.yul\":21568:21588   */\n      tag_565\n        /* \"#utility.yul\":21586:21587   */\n      dup3\n        /* \"#utility.yul\":21568:21588   */\n      tag_282\n      jump\t// in\n    tag_565:\n        /* \"#utility.yul\":21563:21588   */\n      swap2\n      pop\n        /* \"#utility.yul\":21602:21622   */\n      tag_566\n        /* \"#utility.yul\":21620:21621   */\n      dup4\n        /* \"#utility.yul\":21602:21622   */\n      tag_282\n      jump\t// in\n    tag_566:\n        /* \"#utility.yul\":21597:21622   */\n      swap3\n      pop\n        /* \"#utility.yul\":21641:21642   */\n      dup3\n        /* \"#utility.yul\":21631:21666   */\n      tag_567\n      jumpi\n        /* \"#utility.yul\":21646:21664   */\n      tag_568\n      tag_313\n      jump\t// in\n    tag_568:\n        /* \"#utility.yul\":21631:21666   */\n    tag_567:\n        /* \"#utility.yul\":21687:21688   */\n      dup3\n        /* \"#utility.yul\":21684:21685   */\n      dup3\n        /* \"#utility.yul\":21680:21689   */\n      mod\n        /* \"#utility.yul\":21675:21689   */\n      swap1\n      pop\n        /* \"#utility.yul\":21519:21695   */\n      swap3\n      swap2\n      pop\n      pop\n      jump\t// out\n        /* \"#utility.yul\":21701:21895   */\n    tag_185:\n        /* \"#utility.yul\":21741:21745   */\n      0x00\n        /* \"#utility.yul\":21761:21781   */\n      tag_570\n        /* \"#utility.yul\":21779:21780   */\n      dup3\n        /* \"#utility.yul\":21761:21781   */\n      tag_282\n      jump\t// in\n    tag_570:\n        /* \"#utility.yul\":21756:21781   */\n      swap2\n      pop\n        /* \"#utility.yul\":21795:21815   */\n      tag_571\n        /* \"#utility.yul\":21813:21814   */\n      dup4\n        /* \"#utility.yul\":21795:21815   */\n      tag_282\n      jump\t// in\n    tag_571:\n        /* \"#utility.yul\":21790:21815   */\n      swap3\n      pop\n        /* \"#utility.yul\":21839:21840   */\n      dup3\n        /* \"#utility.yul\":21836:21837   */\n      dup3\n        /* \"#utility.yul\":21832:21841   */\n      sub\n        /* \"#utility.yul\":21824:21841   */\n      swap1\n      pop\n        /* \"#utility.yul\":21863:21864   */\n      dup2\n        /* \"#utility.yul\":21857:21861   */\n      dup2\n        /* \"#utility.yul\":21854:21865   */\n      gt\n        /* \"#utility.yul\":21851:21888   */\n      iszero\n      tag_572\n      jumpi\n        /* \"#utility.yul\":21868:21886   */\n      tag_573\n      tag_312\n      jump\t// in\n    tag_573:\n        /* \"#utility.yul\":21851:21888   */\n    tag_572:\n        /* \"#utility.yul\":21701:21895   */\n      swap3\n      swap2\n      pop\n      pop\n      jump\t// out\n        /* \"#utility.yul\":21901:22003   */\n    tag_337:\n        /* \"#utility.yul\":21943:21951   */\n      0x00\n        /* \"#utility.yul\":21990:21995   */\n      dup2\n        /* \"#utility.yul\":21987:21988   */\n      0x01\n        /* \"#utility.yul\":21983:21996   */\n      shr\n        /* \"#utility.yul\":21962:21996   */\n      swap1\n      pop\n        /* \"#utility.yul\":21901:22003   */\n      swap2\n      swap1\n      pop\n      jump\t// out\n        /* \"#utility.yul\":22009:22857   */\n    tag_338:\n        /* \"#utility.yul\":22070:22075   */\n      0x00\n        /* \"#utility.yul\":22077:22081   */\n      dup1\n        /* \"#utility.yul\":22101:22107   */\n      dup3\n        /* \"#utility.yul\":22092:22107   */\n      swap2\n      pop\n        /* \"#utility.yul\":22125:22130   */\n      dup4\n        /* \"#utility.yul\":22116:22130   */\n      swap1\n      pop\n        /* \"#utility.yul\":22139:22851   */\n    tag_576:\n        /* \"#utility.yul\":22160:22161   */\n      0x01\n        /* \"#utility.yul\":22150:22158   */\n      dup6\n        /* \"#utility.yul\":22147:22162   */\n      gt\n        /* \"#utility.yul\":22139:22851   */\n      iszero\n      tag_578\n      jumpi\n        /* \"#utility.yul\":22255:22259   */\n      dup1\n        /* \"#utility.yul\":22250:22253   */\n      dup7\n        /* \"#utility.yul\":22246:22260   */\n      div\n        /* \"#utility.yul\":22240:22244   */\n      dup2\n        /* \"#utility.yul\":22237:22261   */\n      gt\n        /* \"#utility.yul\":22234:22284   */\n      iszero\n      tag_579\n      jumpi\n        /* \"#utility.yul\":22264:22282   */\n      tag_580\n      tag_312\n      jump\t// in\n    tag_580:\n        /* \"#utility.yul\":22234:22284   */\n    tag_579:\n        /* \"#utility.yul\":22314:22315   */\n      0x01\n        /* \"#utility.yul\":22304:22312   */\n      dup6\n        /* \"#utility.yul\":22300:22316   */\n      and\n        /* \"#utility.yul\":22297:22748   */\n      iszero\n      tag_581\n      jumpi\n        /* \"#utility.yul\":22729:22733   */\n      dup1\n        /* \"#utility.yul\":22722:22727   */\n      dup3\n        /* \"#utility.yul\":22718:22734   */\n      mul\n        /* \"#utility.yul\":22709:22734   */\n      swap2\n      pop\n        /* \"#utility.yul\":22297:22748   */\n    tag_581:\n        /* \"#utility.yul\":22779:22783   */\n      dup1\n        /* \"#utility.yul\":22773:22777   */\n      dup2\n        /* \"#utility.yul\":22769:22784   */\n      mul\n        /* \"#utility.yul\":22761:22784   */\n      swap1\n      pop\n        /* \"#utility.yul\":22809:22841   */\n      tag_582\n        /* \"#utility.yul\":22832:22840   */\n      dup6\n        /* \"#utility.yul\":22809:22841   */\n      tag_337\n      jump\t// in\n    tag_582:\n        /* \"#utility.yul\":22797:22841   */\n      swap5\n      pop\n        /* \"#utility.yul\":22139:22851   */\n      jump(tag_576)\n    tag_578:\n        /* \"#utility.yul\":22009:22857   */\n      swap5\n      pop\n      swap5\n      swap3\n      pop\n      pop\n      pop\n      jump\t// out\n        /* \"#utility.yul\":22863:23936   */\n    tag_339:\n        /* \"#utility.yul\":22917:22922   */\n      0x00\n        /* \"#utility.yul\":23108:23116   */\n      dup3\n        /* \"#utility.yul\":23098:23138   */\n      tag_584\n      jumpi\n        /* \"#utility.yul\":23129:23130   */\n      0x01\n        /* \"#utility.yul\":23120:23130   */\n      swap1\n      pop\n        /* \"#utility.yul\":23131:23136   */\n      jump(tag_583)\n        /* \"#utility.yul\":23098:23138   */\n    tag_584:\n        /* \"#utility.yul\":23157:23161   */\n      dup2\n        /* \"#utility.yul\":23147:23183   */\n      tag_585\n      jumpi\n        /* \"#utility.yul\":23174:23175   */\n      0x00\n        /* \"#utility.yul\":23165:23175   */\n      swap1\n      pop\n        /* \"#utility.yul\":23176:23181   */\n      jump(tag_583)\n        /* \"#utility.yul\":23147:23183   */\n    tag_585:\n        /* \"#utility.yul\":23243:23247   */\n      dup2\n        /* \"#utility.yul\":23291:23292   */\n      0x01\n        /* \"#utility.yul\":23286:23313   */\n      dup2\n      eq\n      tag_587\n      jumpi\n        /* \"#utility.yul\":23327:23328   */\n      0x02\n        /* \"#utility.yul\":23322:23513   */\n      dup2\n      eq\n      tag_588\n      jumpi\n        /* \"#utility.yul\":23236:23513   */\n      jump(tag_586)\n        /* \"#utility.yul\":23286:23313   */\n    tag_587:\n        /* \"#utility.yul\":23304:23305   */\n      0x01\n        /* \"#utility.yul\":23295:23305   */\n      swap2\n      pop\n        /* \"#utility.yul\":23306:23311   */\n      pop\n      jump(tag_583)\n        /* \"#utility.yul\":23322:23513   */\n    tag_588:\n        /* \"#utility.yul\":23367:23370   */\n      0xff\n        /* \"#utility.yul\":23357:23365   */\n      dup5\n        /* \"#utility.yul\":23354:23371   */\n      gt\n        /* \"#utility.yul\":23351:23394   */\n      iszero\n      tag_589\n      jumpi\n        /* \"#utility.yul\":23374:23392   */\n      tag_590\n      tag_312\n      jump\t// in\n    tag_590:\n        /* \"#utility.yul\":23351:23394   */\n    tag_589:\n        /* \"#utility.yul\":23423:23431   */\n      dup4\n        /* \"#utility.yul\":23420:23421   */\n      0x02\n        /* \"#utility.yul\":23416:23432   */\n      exp\n        /* \"#utility.yul\":23407:23432   */\n      swap2\n      pop\n        /* \"#utility.yul\":23458:23461   */\n      dup5\n        /* \"#utility.yul\":23451:23456   */\n      dup3\n        /* \"#utility.yul\":23448:23462   */\n      gt\n        /* \"#utility.yul\":23445:23485   */\n      iszero\n      tag_591\n      jumpi\n        /* \"#utility.yul\":23465:23483   */\n      tag_592\n      tag_312\n      jump\t// in\n    tag_592:\n        /* \"#utility.yul\":23445:23485   */\n    tag_591:\n        /* \"#utility.yul\":23498:23503   */\n      pop\n      jump(tag_583)\n        /* \"#utility.yul\":23236:23513   */\n    tag_586:\n      pop\n        /* \"#utility.yul\":23622:23624   */\n      0x20\n        /* \"#utility.yul\":23612:23620   */\n      dup4\n        /* \"#utility.yul\":23609:23625   */\n      lt\n        /* \"#utility.yul\":23603:23606   */\n      0x0133\n        /* \"#utility.yul\":23597:23601   */\n      dup4\n        /* \"#utility.yul\":23594:23607   */\n      lt\n        /* \"#utility.yul\":23590:23626   */\n      and\n        /* \"#utility.yul\":23572:23574   */\n      0x4e\n        /* \"#utility.yul\":23562:23570   */\n      dup5\n        /* \"#utility.yul\":23559:23575   */\n      lt\n        /* \"#utility.yul\":23554:23556   */\n      0x0b\n        /* \"#utility.yul\":23548:23552   */\n      dup5\n        /* \"#utility.yul\":23545:23557   */\n      lt\n        /* \"#utility.yul\":23541:23576   */\n      and\n        /* \"#utility.yul\":23525:23636   */\n      or\n        /* \"#utility.yul\":23522:23768   */\n      iszero\n      tag_593\n      jumpi\n        /* \"#utility.yul\":23678:23686   */\n      dup3\n        /* \"#utility.yul\":23672:23676   */\n      dup3\n        /* \"#utility.yul\":23668:23687   */\n      exp\n        /* \"#utility.yul\":23659:23687   */\n      swap1\n      pop\n        /* \"#utility.yul\":23713:23716   */\n      dup4\n        /* \"#utility.yul\":23706:23711   */\n      dup2\n        /* \"#utility.yul\":23703:23717   */\n      gt\n        /* \"#utility.yul\":23700:23740   */\n      iszero\n      tag_594\n      jumpi\n        /* \"#utility.yul\":23720:23738   */\n      tag_595\n      tag_312\n      jump\t// in\n    tag_595:\n        /* \"#utility.yul\":23700:23740   */\n    tag_594:\n        /* \"#utility.yul\":23753:23758   */\n      jump(tag_583)\n        /* \"#utility.yul\":23522:23768   */\n    tag_593:\n        /* \"#utility.yul\":23793:23835   */\n      tag_596\n        /* \"#utility.yul\":23831:23834   */\n      dup5\n        /* \"#utility.yul\":23821:23829   */\n      dup5\n        /* \"#utility.yul\":23815:23819   */\n      dup5\n        /* \"#utility.yul\":23812:23813   */\n      0x01\n        /* \"#utility.yul\":23793:23835   */\n      tag_338\n      jump\t// in\n    tag_596:\n        /* \"#utility.yul\":23778:23835   */\n      swap3\n      pop\n      swap1\n      pop\n        /* \"#utility.yul\":23867:23871   */\n      dup2\n        /* \"#utility.yul\":23862:23865   */\n      dup5\n        /* \"#utility.yul\":23858:23872   */\n      div\n        /* \"#utility.yul\":23851:23856   */\n      dup2\n        /* \"#utility.yul\":23848:23873   */\n      gt\n        /* \"#utility.yul\":23845:23896   */\n      iszero\n      tag_597\n      jumpi\n        /* \"#utility.yul\":23876:23894   */\n      tag_598\n      tag_312\n      jump\t// in\n    tag_598:\n        /* \"#utility.yul\":23845:23896   */\n    tag_597:\n        /* \"#utility.yul\":23925:23929   */\n      dup2\n        /* \"#utility.yul\":23918:23923   */\n      dup2\n        /* \"#utility.yul\":23914:23930   */\n      mul\n        /* \"#utility.yul\":23905:23930   */\n      swap1\n      pop\n        /* \"#utility.yul\":22863:23936   */\n    tag_583:\n      swap4\n      swap3\n      pop\n      pop\n      pop\n      jump\t// out\n        /* \"#utility.yul\":23942:24227   */\n    tag_264:\n        /* \"#utility.yul\":24002:24007   */\n      0x00\n        /* \"#utility.yul\":24026:24049   */\n      tag_600\n        /* \"#utility.yul\":24044:24048   */\n      dup3\n        /* \"#utility.yul\":24026:24049   */\n      tag_282\n      jump\t// in\n    tag_600:\n        /* \"#utility.yul\":24018:24049   */\n      swap2\n      pop\n        /* \"#utility.yul\":24070:24097   */\n      tag_601\n        /* \"#utility.yul\":24088:24096   */\n      dup4\n        /* \"#utility.yul\":24070:24097   */\n      tag_282\n      jump\t// in\n    tag_601:\n        /* \"#utility.yul\":24058:24097   */\n      swap3\n      pop\n        /* \"#utility.yul\":24116:24220   */\n      tag_602\n        /* \"#utility.yul\":24153:24219   */\n      0xffffffffffffffffffffffffffffffffffffffffffffffffffffffffffffffff\n        /* \"#utility.yul\":24143:24151   */\n      dup5\n        /* \"#utility.yul\":24137:24141   */\n      dup5\n        /* \"#utility.yul\":24116:24220   */\n      tag_339\n      jump\t// in\n    tag_602:\n        /* \"#utility.yul\":24107:24220   */\n      swap1\n      pop\n        /* \"#utility.yul\":23942:24227   */\n      swap3\n      swap2\n      pop\n      pop\n      jump\t// out\n    stop\n    data_e40f56f7fa1aa05a509887d91f86ee0b3ba47821e3c25328913bff9d8f16041c 687474703a2f2f686f73742e646f636b65722e696e7465726e616c3a333030302f6d6f6469666965642d747261696e2d696e666f\n\n    auxdata: 0xa2646970667358221220b11e32139cb0e137ff6206d3b504738898eeb9011cac5956d0bef3ba944d067a64736f6c63430008130033\n}\n",
				"bytecode": {
					"linkReferences": {},
					"object": "608060405260016004553480156200001657600080fd5b50338060008073ffffffffffffffffffffffffffffffffffffffff168273ffffffffffffffffffffffffffffffffffffffff16036200008c576040517f08c379a0000000000000000000000000000000000000000000000000000000008152600401620000839062000318565b60405180910390fd5b81600660006101000a81548173ffffffffffffffffffffffffffffffffffffffff021916908373ffffffffffffffffffffffffffffffffffffffff160217905550600073ffffffffffffffffffffffffffffffffffffffff168173ffffffffffffffffffffffffffffffffffffffff1614620001145762000113816200014260201b60201c565b5b5050506200013c730b9d5d9136855f6fec3c0993fee6e9ce8a2978466200027360201b60201c565b620003ac565b3373ffffffffffffffffffffffffffffffffffffffff168173ffffffffffffffffffffffffffffffffffffffff1603620001b3576040517f08c379a0000000000000000000000000000000000000000000000000000000008152600401620001aa906200038a565b60405180910390fd5b80600760006101000a81548173ffffffffffffffffffffffffffffffffffffffff021916908373ffffffffffffffffffffffffffffffffffffffff1602179055508073ffffffffffffffffffffffffffffffffffffffff16600660009054906101000a900473ffffffffffffffffffffffffffffffffffffffff1673ffffffffffffffffffffffffffffffffffffffff167fed8889f560326eb138920d842192f0eb3dd22b4f139c87a2c57538e05bae127860405160405180910390a350565b80600260006101000a81548173ffffffffffffffffffffffffffffffffffffffff021916908373ffffffffffffffffffffffffffffffffffffffff16021790555050565b600082825260208201905092915050565b7f43616e6e6f7420736574206f776e657220746f207a65726f0000000000000000600082015250565b600062000300601883620002b7565b91506200030d82620002c8565b602082019050919050565b600060208201905081810360008301526200033381620002f1565b9050919050565b7f43616e6e6f74207472616e7366657220746f2073656c66000000000000000000600082015250565b600062000372601783620002b7565b91506200037f826200033a565b602082019050919050565b60006020820190508181036000830152620003a58162000363565b9050919050565b6122dc80620003bc6000396000f3fe608060405234801561001057600080fd5b50600436106100935760003560e01c806392cdaaf31161006657806392cdaaf3146100e85780639d1b464a14610104578063ab643c1014610122578063ec65d0f81461013e578063f2fde38b1461015a57610093565b8063165d35e11461009857806379ba5097146100b65780638da5cb5b146100c05780638dc654a2146100de575b600080fd5b6100a0610176565b6040516100ad919061153f565b60405180910390f35b6100be610185565b005b6100c861031c565b6040516100d5919061153f565b60405180910390f35b6100e6610346565b005b61010260048036038101906100fd91906115da565b610493565b005b61010c6105d2565b6040516101199190611629565b60405180910390f35b61013c600480360381019061013791906117b6565b6105d8565b005b6101586004803603810190610153919061186a565b61075b565b005b610174600480360381019061016f91906118d1565b610775565b005b6000610180610789565b905090565b600760009054906101000a900473ffffffffffffffffffffffffffffffffffffffff1673ffffffffffffffffffffffffffffffffffffffff163373ffffffffffffffffffffffffffffffffffffffff1614610215576040517f08c379a000000000000000000000000000000000000000000000000000000000815260040161020c9061195b565b60405180910390fd5b6000600660009054906101000a900473ffffffffffffffffffffffffffffffffffffffff16905033600660006101000a81548173ffffffffffffffffffffffffffffffffffffffff021916908373ffffffffffffffffffffffffffffffffffffffff1602179055506000600760006101000a81548173ffffffffffffffffffffffffffffffffffffffff021916908373ffffffffffffffffffffffffffffffffffffffff1602179055503373ffffffffffffffffffffffffffffffffffffffff168173ffffffffffffffffffffffffffffffffffffffff167f8be0079c531659141344cd1fd0a4f28419497f9722a3daafe3b4186f6b6457e060405160405180910390a350565b6000600660009054906101000a900473ffffffffffffffffffffffffffffffffffffffff16905090565b61034e6107b3565b6000610358610789565b90508073ffffffffffffffffffffffffffffffffffffffff1663a9059cbb338373ffffffffffffffffffffffffffffffffffffffff166370a08231306040518263ffffffff1660e01b81526004016103b0919061153f565b602060405180830381865afa1580156103cd573d6000803e3d6000fd5b505050506040513d601f19601f820116820180604052508101906103f19190611990565b6040518363ffffffff1660e01b815260040161040e9291906119bd565b6020604051808303816000875af115801561042d573d6000803e3d6000fd5b505050506040513d601f19601f820116820180604052508101906104519190611a1e565b610490576040517f08c379a000000000000000000000000000000000000000000000000000000000815260040161048790611a97565b60405180910390fd5b50565b816005600082815260200190815260200160002060009054906101000a900473ffffffffffffffffffffffffffffffffffffffff1673ffffffffffffffffffffffffffffffffffffffff163373ffffffffffffffffffffffffffffffffffffffff1614610535576040517f08c379a000000000000000000000000000000000000000000000000000000000815260040161052c90611b29565b60405180910390fd5b6005600082815260200190815260200160002060006101000a81549073ffffffffffffffffffffffffffffffffffffffff0219169055807f7cc135e0cebb02c3480ae5d74d377283180a2601f8f644edf7987b009316c63a60405160405180910390a281837f794eb9e29f6750ede99e05248d997a9ab9fa23c4a7eaff8afa729080eb7c642860405160405180910390a381600881905550505050565b60085481565b6105e06107b3565b60006105fc6105ee83610845565b306392cdaaf360e01b61086e565b90506106606040518060400160405280600381526020017f6765740000000000000000000000000000000000000000000000000000000000815250604051806060016040528060348152602001612273603491398361089f9092919063ffffffff16565b6106df6040518060400160405280600481526020017f70617468000000000000000000000000000000000000000000000000000000008152506040518060400160405280601b81526020017f302c6f6470743a747261696e496e666f726d6174696f6e5465787400000000008152508361089f9092919063ffffffff16565b61072a6040518060400160405280600581526020017f74696d65730000000000000000000000000000000000000000000000000000008152506001836108d29092919063ffffffff16565b6107558382600a670de0b6b3a764000060016107469190611b78565b6107509190611be9565b610905565b50505050565b6107636107b3565b61076f848484846109d1565b50505050565b61077d6107b3565b61078681610ae4565b50565b6000600260009054906101000a900473ffffffffffffffffffffffffffffffffffffffff16905090565b600660009054906101000a900473ffffffffffffffffffffffffffffffffffffffff1673ffffffffffffffffffffffffffffffffffffffff163373ffffffffffffffffffffffffffffffffffffffff1614610843576040517f08c379a000000000000000000000000000000000000000000000000000000000815260040161083a90611c66565b60405180910390fd5b565b6000808290506000815103610860576000801b915050610869565b60208301519150505b919050565b610876611477565b61087e611477565b61089585858584610c12909392919063ffffffff16565b9150509392505050565b6108b6828460800151610cc290919063ffffffff16565b6108cd818460800151610cc290919063ffffffff16565b505050565b6108e9828460800151610cc290919063ffffffff16565b610900818460800151610ce790919063ffffffff16565b505050565b600080600454905060018161091a9190611c86565b6004819055506000634042994660e01b60008087600001513089604001518760018c608001516000015160405160240161095b989796959493929190611d57565b604051602081830303815290604052907bffffffffffffffffffffffffffffffffffffffffffffffffffffffff19166020820180517bffffffffffffffffffffffffffffffffffffffffffffffffffffffff838183161783525050505090506109c686838684610d94565b925050509392505050565b60006005600086815260200190815260200160002060009054906101000a900473ffffffffffffffffffffffffffffffffffffffff1690506005600086815260200190815260200160002060006101000a81549073ffffffffffffffffffffffffffffffffffffffff0219169055847fe1fe3afa0f7f761ff0a8b89086790efd5140d2907ebd5b7ff6bfcb5e075fd4c560405160405180910390a28073ffffffffffffffffffffffffffffffffffffffff16636ee4d553868686866040518563ffffffff1660e01b8152600401610aab9493929190611ddc565b600060405180830381600087803b158015610ac557600080fd5b505af1158015610ad9573d6000803e3d6000fd5b505050505050505050565b3373ffffffffffffffffffffffffffffffffffffffff168173ffffffffffffffffffffffffffffffffffffffff1603610b52576040517f08c379a0000000000000000000000000000000000000000000000000000000008152600401610b4990611e6d565b60405180910390fd5b80600760006101000a81548173ffffffffffffffffffffffffffffffffffffffff021916908373ffffffffffffffffffffffffffffffffffffffff1602179055508073ffffffffffffffffffffffffffffffffffffffff16600660009054906101000a900473ffffffffffffffffffffffffffffffffffffffff1673ffffffffffffffffffffffffffffffffffffffff167fed8889f560326eb138920d842192f0eb3dd22b4f139c87a2c57538e05bae127860405160405180910390a350565b610c1a611477565b610c2a8560800151610100610f29565b508385600001818152505082856020019073ffffffffffffffffffffffffffffffffffffffff16908173ffffffffffffffffffffffffffffffffffffffff16815250508185604001907bffffffffffffffffffffffffffffffffffffffffffffffffffffffff191690817bffffffffffffffffffffffffffffffffffffffffffffffffffffffff191681525050849050949350505050565b610ccf8260038351610f93565b610ce2818361111890919063ffffffff16565b505050565b7fffffffffffffffffffffffffffffffffffffffffffffffff0000000000000000811215610d1e57610d19828261113a565b610d90565b67ffffffffffffffff811315610d3d57610d3882826111b1565b610d8f565b60008112610d5657610d5182600083610f93565b610d8e565b610d8d826001837fffffffffffffffffffffffffffffffffffffffffffffffffffffffffffffffff610d889190611e97565b610f93565b5b5b5b5050565b60003084604051602001610da9929190611f93565b604051602081830303815290604052805190602001209050846005600083815260200190815260200160002060006101000a81548173ffffffffffffffffffffffffffffffffffffffff021916908373ffffffffffffffffffffffffffffffffffffffff160217905550807fb5e6e01e79f91267dc17b4e6314d5d4d03593d2ceee0fbb452b750bd70ea5af960405160405180910390a2600260009054906101000a900473ffffffffffffffffffffffffffffffffffffffff1673ffffffffffffffffffffffffffffffffffffffff16634000aea08685856040518463ffffffff1660e01b8152600401610e9f93929190611fbf565b6020604051808303816000875af1158015610ebe573d6000803e3d6000fd5b505050506040513d601f19601f82011682018060405250810190610ee29190611a1e565b610f21576040517f08c379a0000000000000000000000000000000000000000000000000000000008152600401610f189061206f565b60405180910390fd5b949350505050565b610f316114e4565b6000602083610f40919061208f565b14610f6c57602082610f52919061208f565b6020610f5e91906120c0565b82610f699190611c86565b91505b81836020018181525050604051808452600081528281016020016040525082905092915050565b60178167ffffffffffffffff1611610fca57610fc48160058460ff16901b60ff1617846111fd90919063ffffffff16565b50611113565b60ff8167ffffffffffffffff161161102057610ff9601860058460ff16901b17846111fd90919063ffffffff16565b5061101a8167ffffffffffffffff1660018561121d9092919063ffffffff16565b50611112565b61ffff8167ffffffffffffffff161161107757611050601960058460ff16901b17846111fd90919063ffffffff16565b506110718167ffffffffffffffff1660028561121d9092919063ffffffff16565b50611111565b63ffffffff8167ffffffffffffffff16116110d0576110a9601a60058460ff16901b17846111fd90919063ffffffff16565b506110ca8167ffffffffffffffff1660048561121d9092919063ffffffff16565b50611110565b6110ed601b60058460ff16901b17846111fd90919063ffffffff16565b5061110e8167ffffffffffffffff1660088561121d9092919063ffffffff16565b505b5b5b5b505050565b6111206114e4565b6111328384600001515184855161123f565b905092915050565b61115860036005600660ff16901b17836111fd90919063ffffffff16565b506111ad82827fffffffffffffffffffffffffffffffffffffffffffffffffffffffffffffffff6111899190611e97565b6040516020016111999190611629565b60405160208183030381529060405261132e565b5050565b6111cf60026005600660ff16901b17836111fd90919063ffffffff16565b506111f982826040516020016111e59190611629565b60405160208183030381529060405261132e565b5050565b6112056114e4565b6112158384600001515184611353565b905092915050565b6112256114e4565b6112368485600001515185856113a9565b90509392505050565b6112476114e4565b825182111561125557600080fd5b846020015182856112669190611c86565b111561129b5761129a85600261128b886020015188876112869190611c86565b611437565b6112959190611b78565b611453565b5b6000808651805187602083010193508088870111156112ba5787860182525b60208701925050505b6020841061130157805182526020826112dc9190611c86565b91506020816112eb9190611c86565b90506020846112fa91906120c0565b93506112c3565b60006001856020036101000a03905080198251168184511681811785525050508692505050949350505050565b61133b8260028351610f93565b61134e818361111890919063ffffffff16565b505050565b61135b6114e4565b8360200151831061138157611380846002866020015161137b9190611b78565b611453565b5b8351805160208583010184815381860361139c576001820183525b5050508390509392505050565b6113b16114e4565b846020015184836113c29190611c86565b11156113ea576113e985600286856113da9190611c86565b6113e49190611b78565b611453565b5b60006001836101006113fc9190612227565b61140691906120c0565b905085518386820101858319825116178152815185880111156114295784870182525b505085915050949350505050565b6000818311156114495782905061144d565b8190505b92915050565b6000826000015190506114668383610f29565b506114718382611118565b50505050565b6040518060a0016040528060008019168152602001600073ffffffffffffffffffffffffffffffffffffffff16815260200160007bffffffffffffffffffffffffffffffffffffffffffffffffffffffff19168152602001600081526020016114de6114e4565b81525090565b604051806040016040528060608152602001600081525090565b600073ffffffffffffffffffffffffffffffffffffffff82169050919050565b6000611529826114fe565b9050919050565b6115398161151e565b82525050565b60006020820190506115546000830184611530565b92915050565b6000604051905090565b600080fd5b600080fd5b6000819050919050565b6115818161156e565b811461158c57600080fd5b50565b60008135905061159e81611578565b92915050565b6000819050919050565b6115b7816115a4565b81146115c257600080fd5b50565b6000813590506115d4816115ae565b92915050565b600080604083850312156115f1576115f0611564565b5b60006115ff8582860161158f565b9250506020611610858286016115c5565b9150509250929050565b611623816115a4565b82525050565b600060208201905061163e600083018461161a565b92915050565b61164d8161151e565b811461165857600080fd5b50565b60008135905061166a81611644565b92915050565b600080fd5b600080fd5b6000601f19601f8301169050919050565b7f4e487b7100000000000000000000000000000000000000000000000000000000600052604160045260246000fd5b6116c38261167a565b810181811067ffffffffffffffff821117156116e2576116e161168b565b5b80604052505050565b60006116f561155a565b905061170182826116ba565b919050565b600067ffffffffffffffff8211156117215761172061168b565b5b61172a8261167a565b9050602081019050919050565b82818337600083830152505050565b600061175961175484611706565b6116eb565b90508281526020810184848401111561177557611774611675565b5b611780848285611737565b509392505050565b600082601f83011261179d5761179c611670565b5b81356117ad848260208601611746565b91505092915050565b600080604083850312156117cd576117cc611564565b5b60006117db8582860161165b565b925050602083013567ffffffffffffffff8111156117fc576117fb611569565b5b61180885828601611788565b9150509250929050565b60007fffffffff0000000000000000000000000000000000000000000000000000000082169050919050565b61184781611812565b811461185257600080fd5b50565b6000813590506118648161183e565b92915050565b6000806000806080858703121561188457611883611564565b5b60006118928782880161158f565b94505060206118a3878288016115c5565b93505060406118b487828801611855565b92505060606118c5878288016115c5565b91505092959194509250565b6000602082840312156118e7576118e6611564565b5b60006118f58482850161165b565b91505092915050565b600082825260208201905092915050565b7f4d7573742062652070726f706f736564206f776e657200000000000000000000600082015250565b60006119456016836118fe565b91506119508261190f565b602082019050919050565b6000602082019050818103600083015261197481611938565b9050919050565b60008151905061198a816115ae565b92915050565b6000602082840312156119a6576119a5611564565b5b60006119b48482850161197b565b91505092915050565b60006040820190506119d26000830185611530565b6119df602083018461161a565b9392505050565b60008115159050919050565b6119fb816119e6565b8114611a0657600080fd5b50565b600081519050611a18816119f2565b92915050565b600060208284031215611a3457611a33611564565b5b6000611a4284828501611a09565b91505092915050565b7f556e61626c6520746f207472616e736665720000000000000000000000000000600082015250565b6000611a816012836118fe565b9150611a8c82611a4b565b602082019050919050565b60006020820190508181036000830152611ab081611a74565b9050919050565b7f536f75726365206d75737420626520746865206f7261636c65206f662074686560008201527f2072657175657374000000000000000000000000000000000000000000000000602082015250565b6000611b136028836118fe565b9150611b1e82611ab7565b604082019050919050565b60006020820190508181036000830152611b4281611b06565b9050919050565b7f4e487b7100000000000000000000000000000000000000000000000000000000600052601160045260246000fd5b6000611b83826115a4565b9150611b8e836115a4565b9250828202611b9c816115a4565b91508282048414831517611bb357611bb2611b49565b5b5092915050565b7f4e487b7100000000000000000000000000000000000000000000000000000000600052601260045260246000fd5b6000611bf4826115a4565b9150611bff836115a4565b925082611c0f57611c0e611bba565b5b828204905092915050565b7f4f6e6c792063616c6c61626c65206279206f776e657200000000000000000000600082015250565b6000611c506016836118fe565b9150611c5b82611c1a565b602082019050919050565b60006020820190508181036000830152611c7f81611c43565b9050919050565b6000611c91826115a4565b9150611c9c836115a4565b9250828201905080821115611cb457611cb3611b49565b5b92915050565b611cc38161156e565b82525050565b611cd281611812565b82525050565b600081519050919050565b600082825260208201905092915050565b60005b83811015611d12578082015181840152602081019050611cf7565b60008484015250505050565b6000611d2982611cd8565b611d338185611ce3565b9350611d43818560208601611cf4565b611d4c8161167a565b840191505092915050565b600061010082019050611d6d600083018b611530565b611d7a602083018a61161a565b611d876040830189611cba565b611d946060830188611530565b611da16080830187611cc9565b611dae60a083018661161a565b611dbb60c083018561161a565b81810360e0830152611dcd8184611d1e565b90509998505050505050505050565b6000608082019050611df16000830187611cba565b611dfe602083018661161a565b611e0b6040830185611cc9565b611e18606083018461161a565b95945050505050565b7f43616e6e6f74207472616e7366657220746f2073656c66000000000000000000600082015250565b6000611e576017836118fe565b9150611e6282611e21565b602082019050919050565b60006020820190508181036000830152611e8681611e4a565b9050919050565b6000819050919050565b6000611ea282611e8d565b9150611ead83611e8d565b9250828203905081811260008412168282136000851215161715611ed457611ed3611b49565b5b92915050565b6000819050919050565b6000611eff611efa611ef5846114fe565b611eda565b6114fe565b9050919050565b6000611f1182611ee4565b9050919050565b6000611f2382611f06565b9050919050565b60008160601b9050919050565b6000611f4282611f2a565b9050919050565b6000611f5482611f37565b9050919050565b611f6c611f6782611f18565b611f49565b82525050565b6000819050919050565b611f8d611f88826115a4565b611f72565b82525050565b6000611f9f8285611f5b565b601482019150611faf8284611f7c565b6020820191508190509392505050565b6000606082019050611fd46000830186611530565b611fe1602083018561161a565b8181036040830152611ff38184611d1e565b9050949350505050565b7f756e61626c6520746f207472616e73666572416e6443616c6c20746f206f726160008201527f636c650000000000000000000000000000000000000000000000000000000000602082015250565b60006120596023836118fe565b915061206482611ffd565b604082019050919050565b600060208201905081810360008301526120888161204c565b9050919050565b600061209a826115a4565b91506120a5836115a4565b9250826120b5576120b4611bba565b5b828206905092915050565b60006120cb826115a4565b91506120d6836115a4565b92508282039050818111156120ee576120ed611b49565b5b92915050565b60008160011c9050919050565b6000808291508390505b600185111561214b5780860481111561212757612126611b49565b5b60018516156121365780820291505b8081029050612144856120f4565b945061210b565b94509492505050565b6000826121645760019050612220565b816121725760009050612220565b81600181146121885760028114612192576121c1565b6001915050612220565b60ff8411156121a4576121a3611b49565b5b8360020a9150848211156121bb576121ba611b49565b5b50612220565b5060208310610133831016604e8410600b84101617156121f65782820a9050838111156121f1576121f0611b49565b5b612220565b6122038484846001612101565b9250905081840481111561221a57612219611b49565b5b81810290505b9392505050565b6000612232826115a4565b915061223d836115a4565b925061226a7fffffffffffffffffffffffffffffffffffffffffffffffffffffffffffffffff8484612154565b90509291505056fe687474703a2f2f686f73742e646f636b65722e696e7465726e616c3a333030302f6d6f6469666965642d747261696e2d696e666fa2646970667358221220b11e32139cb0e137ff6206d3b504738898eeb9011cac5956d0bef3ba944d067a64736f6c63430008130033",
					"opcodes": "PUSH1 0x80 PUSH1 0x40 MSTORE PUSH1 0x1 PUSH1 0x4 SSTORE CALLVALUE DUP1 ISZERO PUSH3 0x16 JUMPI PUSH1 0x0 DUP1 REVERT JUMPDEST POP CALLER DUP1 PUSH1 0x0 DUP1 PUSH20 0xFFFFFFFFFFFFFFFFFFFFFFFFFFFFFFFFFFFFFFFF AND DUP3 PUSH20 0xFFFFFFFFFFFFFFFFFFFFFFFFFFFFFFFFFFFFFFFF AND SUB PUSH3 0x8C JUMPI PUSH1 0x40 MLOAD PUSH32 0x8C379A000000000000000000000000000000000000000000000000000000000 DUP2 MSTORE PUSH1 0x4 ADD PUSH3 0x83 SWAP1 PUSH3 0x318 JUMP JUMPDEST PUSH1 0x40 MLOAD DUP1 SWAP2 SUB SWAP1 REVERT JUMPDEST DUP2 PUSH1 0x6 PUSH1 0x0 PUSH2 0x100 EXP DUP2 SLOAD DUP2 PUSH20 0xFFFFFFFFFFFFFFFFFFFFFFFFFFFFFFFFFFFFFFFF MUL NOT AND SWAP1 DUP4 PUSH20 0xFFFFFFFFFFFFFFFFFFFFFFFFFFFFFFFFFFFFFFFF AND MUL OR SWAP1 SSTORE POP PUSH1 0x0 PUSH20 0xFFFFFFFFFFFFFFFFFFFFFFFFFFFFFFFFFFFFFFFF AND DUP2 PUSH20 0xFFFFFFFFFFFFFFFFFFFFFFFFFFFFFFFFFFFFFFFF AND EQ PUSH3 0x114 JUMPI PUSH3 0x113 DUP2 PUSH3 0x142 PUSH1 0x20 SHL PUSH1 0x20 SHR JUMP JUMPDEST JUMPDEST POP POP POP PUSH3 0x13C PUSH20 0xB9D5D9136855F6FEC3C0993FEE6E9CE8A297846 PUSH3 0x273 PUSH1 0x20 SHL PUSH1 0x20 SHR JUMP JUMPDEST PUSH3 0x3AC JUMP JUMPDEST CALLER PUSH20 0xFFFFFFFFFFFFFFFFFFFFFFFFFFFFFFFFFFFFFFFF AND DUP2 PUSH20 0xFFFFFFFFFFFFFFFFFFFFFFFFFFFFFFFFFFFFFFFF AND SUB PUSH3 0x1B3 JUMPI PUSH1 0x40 MLOAD PUSH32 0x8C379A000000000000000000000000000000000000000000000000000000000 DUP2 MSTORE PUSH1 0x4 ADD PUSH3 0x1AA SWAP1 PUSH3 0x38A JUMP JUMPDEST PUSH1 0x40 MLOAD DUP1 SWAP2 SUB SWAP1 REVERT JUMPDEST DUP1 PUSH1 0x7 PUSH1 0x0 PUSH2 0x100 EXP DUP2 SLOAD DUP2 PUSH20 0xFFFFFFFFFFFFFFFFFFFFFFFFFFFFFFFFFFFFFFFF MUL NOT AND SWAP1 DUP4 PUSH20 0xFFFFFFFFFFFFFFFFFFFFFFFFFFFFFFFFFFFFFFFF AND MUL OR SWAP1 SSTORE POP DUP1 PUSH20 0xFFFFFFFFFFFFFFFFFFFFFFFFFFFFFFFFFFFFFFFF AND PUSH1 0x6 PUSH1 0x0 SWAP1 SLOAD SWAP1 PUSH2 0x100 EXP SWAP1 DIV PUSH20 0xFFFFFFFFFFFFFFFFFFFFFFFFFFFFFFFFFFFFFFFF AND PUSH20 0xFFFFFFFFFFFFFFFFFFFFFFFFFFFFFFFFFFFFFFFF AND PUSH32 0xED8889F560326EB138920D842192F0EB3DD22B4F139C87A2C57538E05BAE1278 PUSH1 0x40 MLOAD PUSH1 0x40 MLOAD DUP1 SWAP2 SUB SWAP1 LOG3 POP JUMP JUMPDEST DUP1 PUSH1 0x2 PUSH1 0x0 PUSH2 0x100 EXP DUP2 SLOAD DUP2 PUSH20 0xFFFFFFFFFFFFFFFFFFFFFFFFFFFFFFFFFFFFFFFF MUL NOT AND SWAP1 DUP4 PUSH20 0xFFFFFFFFFFFFFFFFFFFFFFFFFFFFFFFFFFFFFFFF AND MUL OR SWAP1 SSTORE POP POP JUMP JUMPDEST PUSH1 0x0 DUP3 DUP3 MSTORE PUSH1 0x20 DUP3 ADD SWAP1 POP SWAP3 SWAP2 POP POP JUMP JUMPDEST PUSH32 0x43616E6E6F7420736574206F776E657220746F207A65726F0000000000000000 PUSH1 0x0 DUP3 ADD MSTORE POP JUMP JUMPDEST PUSH1 0x0 PUSH3 0x300 PUSH1 0x18 DUP4 PUSH3 0x2B7 JUMP JUMPDEST SWAP2 POP PUSH3 0x30D DUP3 PUSH3 0x2C8 JUMP JUMPDEST PUSH1 0x20 DUP3 ADD SWAP1 POP SWAP2 SWAP1 POP JUMP JUMPDEST PUSH1 0x0 PUSH1 0x20 DUP3 ADD SWAP1 POP DUP2 DUP2 SUB PUSH1 0x0 DUP4 ADD MSTORE PUSH3 0x333 DUP2 PUSH3 0x2F1 JUMP JUMPDEST SWAP1 POP SWAP2 SWAP1 POP JUMP JUMPDEST PUSH32 0x43616E6E6F74207472616E7366657220746F2073656C66000000000000000000 PUSH1 0x0 DUP3 ADD MSTORE POP JUMP JUMPDEST PUSH1 0x0 PUSH3 0x372 PUSH1 0x17 DUP4 PUSH3 0x2B7 JUMP JUMPDEST SWAP2 POP PUSH3 0x37F DUP3 PUSH3 0x33A JUMP JUMPDEST PUSH1 0x20 DUP3 ADD SWAP1 POP SWAP2 SWAP1 POP JUMP JUMPDEST PUSH1 0x0 PUSH1 0x20 DUP3 ADD SWAP1 POP DUP2 DUP2 SUB PUSH1 0x0 DUP4 ADD MSTORE PUSH3 0x3A5 DUP2 PUSH3 0x363 JUMP JUMPDEST SWAP1 POP SWAP2 SWAP1 POP JUMP JUMPDEST PUSH2 0x22DC DUP1 PUSH3 0x3BC PUSH1 0x0 CODECOPY PUSH1 0x0 RETURN INVALID PUSH1 0x80 PUSH1 0x40 MSTORE CALLVALUE DUP1 ISZERO PUSH2 0x10 JUMPI PUSH1 0x0 DUP1 REVERT JUMPDEST POP PUSH1 0x4 CALLDATASIZE LT PUSH2 0x93 JUMPI PUSH1 0x0 CALLDATALOAD PUSH1 0xE0 SHR DUP1 PUSH4 0x92CDAAF3 GT PUSH2 0x66 JUMPI DUP1 PUSH4 0x92CDAAF3 EQ PUSH2 0xE8 JUMPI DUP1 PUSH4 0x9D1B464A EQ PUSH2 0x104 JUMPI DUP1 PUSH4 0xAB643C10 EQ PUSH2 0x122 JUMPI DUP1 PUSH4 0xEC65D0F8 EQ PUSH2 0x13E JUMPI DUP1 PUSH4 0xF2FDE38B EQ PUSH2 0x15A JUMPI PUSH2 0x93 JUMP JUMPDEST DUP1 PUSH4 0x165D35E1 EQ PUSH2 0x98 JUMPI DUP1 PUSH4 0x79BA5097 EQ PUSH2 0xB6 JUMPI DUP1 PUSH4 0x8DA5CB5B EQ PUSH2 0xC0 JUMPI DUP1 PUSH4 0x8DC654A2 EQ PUSH2 0xDE JUMPI JUMPDEST PUSH1 0x0 DUP1 REVERT JUMPDEST PUSH2 0xA0 PUSH2 0x176 JUMP JUMPDEST PUSH1 0x40 MLOAD PUSH2 0xAD SWAP2 SWAP1 PUSH2 0x153F JUMP JUMPDEST PUSH1 0x40 MLOAD DUP1 SWAP2 SUB SWAP1 RETURN JUMPDEST PUSH2 0xBE PUSH2 0x185 JUMP JUMPDEST STOP JUMPDEST PUSH2 0xC8 PUSH2 0x31C JUMP JUMPDEST PUSH1 0x40 MLOAD PUSH2 0xD5 SWAP2 SWAP1 PUSH2 0x153F JUMP JUMPDEST PUSH1 0x40 MLOAD DUP1 SWAP2 SUB SWAP1 RETURN JUMPDEST PUSH2 0xE6 PUSH2 0x346 JUMP JUMPDEST STOP JUMPDEST PUSH2 0x102 PUSH1 0x4 DUP1 CALLDATASIZE SUB DUP2 ADD SWAP1 PUSH2 0xFD SWAP2 SWAP1 PUSH2 0x15DA JUMP JUMPDEST PUSH2 0x493 JUMP JUMPDEST STOP JUMPDEST PUSH2 0x10C PUSH2 0x5D2 JUMP JUMPDEST PUSH1 0x40 MLOAD PUSH2 0x119 SWAP2 SWAP1 PUSH2 0x1629 JUMP JUMPDEST PUSH1 0x40 MLOAD DUP1 SWAP2 SUB SWAP1 RETURN JUMPDEST PUSH2 0x13C PUSH1 0x4 DUP1 CALLDATASIZE SUB DUP2 ADD SWAP1 PUSH2 0x137 SWAP2 SWAP1 PUSH2 0x17B6 JUMP JUMPDEST PUSH2 0x5D8 JUMP JUMPDEST STOP JUMPDEST PUSH2 0x158 PUSH1 0x4 DUP1 CALLDATASIZE SUB DUP2 ADD SWAP1 PUSH2 0x153 SWAP2 SWAP1 PUSH2 0x186A JUMP JUMPDEST PUSH2 0x75B JUMP JUMPDEST STOP JUMPDEST PUSH2 0x174 PUSH1 0x4 DUP1 CALLDATASIZE SUB DUP2 ADD SWAP1 PUSH2 0x16F SWAP2 SWAP1 PUSH2 0x18D1 JUMP JUMPDEST PUSH2 0x775 JUMP JUMPDEST STOP JUMPDEST PUSH1 0x0 PUSH2 0x180 PUSH2 0x789 JUMP JUMPDEST SWAP1 POP SWAP1 JUMP JUMPDEST PUSH1 0x7 PUSH1 0x0 SWAP1 SLOAD SWAP1 PUSH2 0x100 EXP SWAP1 DIV PUSH20 0xFFFFFFFFFFFFFFFFFFFFFFFFFFFFFFFFFFFFFFFF AND PUSH20 0xFFFFFFFFFFFFFFFFFFFFFFFFFFFFFFFFFFFFFFFF AND CALLER PUSH20 0xFFFFFFFFFFFFFFFFFFFFFFFFFFFFFFFFFFFFFFFF AND EQ PUSH2 0x215 JUMPI PUSH1 0x40 MLOAD PUSH32 0x8C379A000000000000000000000000000000000000000000000000000000000 DUP2 MSTORE PUSH1 0x4 ADD PUSH2 0x20C SWAP1 PUSH2 0x195B JUMP JUMPDEST PUSH1 0x40 MLOAD DUP1 SWAP2 SUB SWAP1 REVERT JUMPDEST PUSH1 0x0 PUSH1 0x6 PUSH1 0x0 SWAP1 SLOAD SWAP1 PUSH2 0x100 EXP SWAP1 DIV PUSH20 0xFFFFFFFFFFFFFFFFFFFFFFFFFFFFFFFFFFFFFFFF AND SWAP1 POP CALLER PUSH1 0x6 PUSH1 0x0 PUSH2 0x100 EXP DUP2 SLOAD DUP2 PUSH20 0xFFFFFFFFFFFFFFFFFFFFFFFFFFFFFFFFFFFFFFFF MUL NOT AND SWAP1 DUP4 PUSH20 0xFFFFFFFFFFFFFFFFFFFFFFFFFFFFFFFFFFFFFFFF AND MUL OR SWAP1 SSTORE POP PUSH1 0x0 PUSH1 0x7 PUSH1 0x0 PUSH2 0x100 EXP DUP2 SLOAD DUP2 PUSH20 0xFFFFFFFFFFFFFFFFFFFFFFFFFFFFFFFFFFFFFFFF MUL NOT AND SWAP1 DUP4 PUSH20 0xFFFFFFFFFFFFFFFFFFFFFFFFFFFFFFFFFFFFFFFF AND MUL OR SWAP1 SSTORE POP CALLER PUSH20 0xFFFFFFFFFFFFFFFFFFFFFFFFFFFFFFFFFFFFFFFF AND DUP2 PUSH20 0xFFFFFFFFFFFFFFFFFFFFFFFFFFFFFFFFFFFFFFFF AND PUSH32 0x8BE0079C531659141344CD1FD0A4F28419497F9722A3DAAFE3B4186F6B6457E0 PUSH1 0x40 MLOAD PUSH1 0x40 MLOAD DUP1 SWAP2 SUB SWAP1 LOG3 POP JUMP JUMPDEST PUSH1 0x0 PUSH1 0x6 PUSH1 0x0 SWAP1 SLOAD SWAP1 PUSH2 0x100 EXP SWAP1 DIV PUSH20 0xFFFFFFFFFFFFFFFFFFFFFFFFFFFFFFFFFFFFFFFF AND SWAP1 POP SWAP1 JUMP JUMPDEST PUSH2 0x34E PUSH2 0x7B3 JUMP JUMPDEST PUSH1 0x0 PUSH2 0x358 PUSH2 0x789 JUMP JUMPDEST SWAP1 POP DUP1 PUSH20 0xFFFFFFFFFFFFFFFFFFFFFFFFFFFFFFFFFFFFFFFF AND PUSH4 0xA9059CBB CALLER DUP4 PUSH20 0xFFFFFFFFFFFFFFFFFFFFFFFFFFFFFFFFFFFFFFFF AND PUSH4 0x70A08231 ADDRESS PUSH1 0x40 MLOAD DUP3 PUSH4 0xFFFFFFFF AND PUSH1 0xE0 SHL DUP2 MSTORE PUSH1 0x4 ADD PUSH2 0x3B0 SWAP2 SWAP1 PUSH2 0x153F JUMP JUMPDEST PUSH1 0x20 PUSH1 0x40 MLOAD DUP1 DUP4 SUB DUP2 DUP7 GAS STATICCALL ISZERO DUP1 ISZERO PUSH2 0x3CD JUMPI RETURNDATASIZE PUSH1 0x0 DUP1 RETURNDATACOPY RETURNDATASIZE PUSH1 0x0 REVERT JUMPDEST POP POP POP POP PUSH1 0x40 MLOAD RETURNDATASIZE PUSH1 0x1F NOT PUSH1 0x1F DUP3 ADD AND DUP3 ADD DUP1 PUSH1 0x40 MSTORE POP DUP2 ADD SWAP1 PUSH2 0x3F1 SWAP2 SWAP1 PUSH2 0x1990 JUMP JUMPDEST PUSH1 0x40 MLOAD DUP4 PUSH4 0xFFFFFFFF AND PUSH1 0xE0 SHL DUP2 MSTORE PUSH1 0x4 ADD PUSH2 0x40E SWAP3 SWAP2 SWAP1 PUSH2 0x19BD JUMP JUMPDEST PUSH1 0x20 PUSH1 0x40 MLOAD DUP1 DUP4 SUB DUP2 PUSH1 0x0 DUP8 GAS CALL ISZERO DUP1 ISZERO PUSH2 0x42D JUMPI RETURNDATASIZE PUSH1 0x0 DUP1 RETURNDATACOPY RETURNDATASIZE PUSH1 0x0 REVERT JUMPDEST POP POP POP POP PUSH1 0x40 MLOAD RETURNDATASIZE PUSH1 0x1F NOT PUSH1 0x1F DUP3 ADD AND DUP3 ADD DUP1 PUSH1 0x40 MSTORE POP DUP2 ADD SWAP1 PUSH2 0x451 SWAP2 SWAP1 PUSH2 0x1A1E JUMP JUMPDEST PUSH2 0x490 JUMPI PUSH1 0x40 MLOAD PUSH32 0x8C379A000000000000000000000000000000000000000000000000000000000 DUP2 MSTORE PUSH1 0x4 ADD PUSH2 0x487 SWAP1 PUSH2 0x1A97 JUMP JUMPDEST PUSH1 0x40 MLOAD DUP1 SWAP2 SUB SWAP1 REVERT JUMPDEST POP JUMP JUMPDEST DUP2 PUSH1 0x5 PUSH1 0x0 DUP3 DUP2 MSTORE PUSH1 0x20 ADD SWAP1 DUP2 MSTORE PUSH1 0x20 ADD PUSH1 0x0 KECCAK256 PUSH1 0x0 SWAP1 SLOAD SWAP1 PUSH2 0x100 EXP SWAP1 DIV PUSH20 0xFFFFFFFFFFFFFFFFFFFFFFFFFFFFFFFFFFFFFFFF AND PUSH20 0xFFFFFFFFFFFFFFFFFFFFFFFFFFFFFFFFFFFFFFFF AND CALLER PUSH20 0xFFFFFFFFFFFFFFFFFFFFFFFFFFFFFFFFFFFFFFFF AND EQ PUSH2 0x535 JUMPI PUSH1 0x40 MLOAD PUSH32 0x8C379A000000000000000000000000000000000000000000000000000000000 DUP2 MSTORE PUSH1 0x4 ADD PUSH2 0x52C SWAP1 PUSH2 0x1B29 JUMP JUMPDEST PUSH1 0x40 MLOAD DUP1 SWAP2 SUB SWAP1 REVERT JUMPDEST PUSH1 0x5 PUSH1 0x0 DUP3 DUP2 MSTORE PUSH1 0x20 ADD SWAP1 DUP2 MSTORE PUSH1 0x20 ADD PUSH1 0x0 KECCAK256 PUSH1 0x0 PUSH2 0x100 EXP DUP2 SLOAD SWAP1 PUSH20 0xFFFFFFFFFFFFFFFFFFFFFFFFFFFFFFFFFFFFFFFF MUL NOT AND SWAP1 SSTORE DUP1 PUSH32 0x7CC135E0CEBB02C3480AE5D74D377283180A2601F8F644EDF7987B009316C63A PUSH1 0x40 MLOAD PUSH1 0x40 MLOAD DUP1 SWAP2 SUB SWAP1 LOG2 DUP2 DUP4 PUSH32 0x794EB9E29F6750EDE99E05248D997A9AB9FA23C4A7EAFF8AFA729080EB7C6428 PUSH1 0x40 MLOAD PUSH1 0x40 MLOAD DUP1 SWAP2 SUB SWAP1 LOG3 DUP2 PUSH1 0x8 DUP2 SWAP1 SSTORE POP POP POP POP JUMP JUMPDEST PUSH1 0x8 SLOAD DUP2 JUMP JUMPDEST PUSH2 0x5E0 PUSH2 0x7B3 JUMP JUMPDEST PUSH1 0x0 PUSH2 0x5FC PUSH2 0x5EE DUP4 PUSH2 0x845 JUMP JUMPDEST ADDRESS PUSH4 0x92CDAAF3 PUSH1 0xE0 SHL PUSH2 0x86E JUMP JUMPDEST SWAP1 POP PUSH2 0x660 PUSH1 0x40 MLOAD DUP1 PUSH1 0x40 ADD PUSH1 0x40 MSTORE DUP1 PUSH1 0x3 DUP2 MSTORE PUSH1 0x20 ADD PUSH32 0x6765740000000000000000000000000000000000000000000000000000000000 DUP2 MSTORE POP PUSH1 0x40 MLOAD DUP1 PUSH1 0x60 ADD PUSH1 0x40 MSTORE DUP1 PUSH1 0x34 DUP2 MSTORE PUSH1 0x20 ADD PUSH2 0x2273 PUSH1 0x34 SWAP2 CODECOPY DUP4 PUSH2 0x89F SWAP1 SWAP3 SWAP2 SWAP1 PUSH4 0xFFFFFFFF AND JUMP JUMPDEST PUSH2 0x6DF PUSH1 0x40 MLOAD DUP1 PUSH1 0x40 ADD PUSH1 0x40 MSTORE DUP1 PUSH1 0x4 DUP2 MSTORE PUSH1 0x20 ADD PUSH32 0x7061746800000000000000000000000000000000000000000000000000000000 DUP2 MSTORE POP PUSH1 0x40 MLOAD DUP1 PUSH1 0x40 ADD PUSH1 0x40 MSTORE DUP1 PUSH1 0x1B DUP2 MSTORE PUSH1 0x20 ADD PUSH32 0x302C6F6470743A747261696E496E666F726D6174696F6E546578740000000000 DUP2 MSTORE POP DUP4 PUSH2 0x89F SWAP1 SWAP3 SWAP2 SWAP1 PUSH4 0xFFFFFFFF AND JUMP JUMPDEST PUSH2 0x72A PUSH1 0x40 MLOAD DUP1 PUSH1 0x40 ADD PUSH1 0x40 MSTORE DUP1 PUSH1 0x5 DUP2 MSTORE PUSH1 0x20 ADD PUSH32 0x74696D6573000000000000000000000000000000000000000000000000000000 DUP2 MSTORE POP PUSH1 0x1 DUP4 PUSH2 0x8D2 SWAP1 SWAP3 SWAP2 SWAP1 PUSH4 0xFFFFFFFF AND JUMP JUMPDEST PUSH2 0x755 DUP4 DUP3 PUSH1 0xA PUSH8 0xDE0B6B3A7640000 PUSH1 0x1 PUSH2 0x746 SWAP2 SWAP1 PUSH2 0x1B78 JUMP JUMPDEST PUSH2 0x750 SWAP2 SWAP1 PUSH2 0x1BE9 JUMP JUMPDEST PUSH2 0x905 JUMP JUMPDEST POP POP POP POP JUMP JUMPDEST PUSH2 0x763 PUSH2 0x7B3 JUMP JUMPDEST PUSH2 0x76F DUP5 DUP5 DUP5 DUP5 PUSH2 0x9D1 JUMP JUMPDEST POP POP POP POP JUMP JUMPDEST PUSH2 0x77D PUSH2 0x7B3 JUMP JUMPDEST PUSH2 0x786 DUP2 PUSH2 0xAE4 JUMP JUMPDEST POP JUMP JUMPDEST PUSH1 0x0 PUSH1 0x2 PUSH1 0x0 SWAP1 SLOAD SWAP1 PUSH2 0x100 EXP SWAP1 DIV PUSH20 0xFFFFFFFFFFFFFFFFFFFFFFFFFFFFFFFFFFFFFFFF AND SWAP1 POP SWAP1 JUMP JUMPDEST PUSH1 0x6 PUSH1 0x0 SWAP1 SLOAD SWAP1 PUSH2 0x100 EXP SWAP1 DIV PUSH20 0xFFFFFFFFFFFFFFFFFFFFFFFFFFFFFFFFFFFFFFFF AND PUSH20 0xFFFFFFFFFFFFFFFFFFFFFFFFFFFFFFFFFFFFFFFF AND CALLER PUSH20 0xFFFFFFFFFFFFFFFFFFFFFFFFFFFFFFFFFFFFFFFF AND EQ PUSH2 0x843 JUMPI PUSH1 0x40 MLOAD PUSH32 0x8C379A000000000000000000000000000000000000000000000000000000000 DUP2 MSTORE PUSH1 0x4 ADD PUSH2 0x83A SWAP1 PUSH2 0x1C66 JUMP JUMPDEST PUSH1 0x40 MLOAD DUP1 SWAP2 SUB SWAP1 REVERT JUMPDEST JUMP JUMPDEST PUSH1 0x0 DUP1 DUP3 SWAP1 POP PUSH1 0x0 DUP2 MLOAD SUB PUSH2 0x860 JUMPI PUSH1 0x0 DUP1 SHL SWAP2 POP POP PUSH2 0x869 JUMP JUMPDEST PUSH1 0x20 DUP4 ADD MLOAD SWAP2 POP POP JUMPDEST SWAP2 SWAP1 POP JUMP JUMPDEST PUSH2 0x876 PUSH2 0x1477 JUMP JUMPDEST PUSH2 0x87E PUSH2 0x1477 JUMP JUMPDEST PUSH2 0x895 DUP6 DUP6 DUP6 DUP5 PUSH2 0xC12 SWAP1 SWAP4 SWAP3 SWAP2 SWAP1 PUSH4 0xFFFFFFFF AND JUMP JUMPDEST SWAP2 POP POP SWAP4 SWAP3 POP POP POP JUMP JUMPDEST PUSH2 0x8B6 DUP3 DUP5 PUSH1 0x80 ADD MLOAD PUSH2 0xCC2 SWAP1 SWAP2 SWAP1 PUSH4 0xFFFFFFFF AND JUMP JUMPDEST PUSH2 0x8CD DUP2 DUP5 PUSH1 0x80 ADD MLOAD PUSH2 0xCC2 SWAP1 SWAP2 SWAP1 PUSH4 0xFFFFFFFF AND JUMP JUMPDEST POP POP POP JUMP JUMPDEST PUSH2 0x8E9 DUP3 DUP5 PUSH1 0x80 ADD MLOAD PUSH2 0xCC2 SWAP1 SWAP2 SWAP1 PUSH4 0xFFFFFFFF AND JUMP JUMPDEST PUSH2 0x900 DUP2 DUP5 PUSH1 0x80 ADD MLOAD PUSH2 0xCE7 SWAP1 SWAP2 SWAP1 PUSH4 0xFFFFFFFF AND JUMP JUMPDEST POP POP POP JUMP JUMPDEST PUSH1 0x0 DUP1 PUSH1 0x4 SLOAD SWAP1 POP PUSH1 0x1 DUP2 PUSH2 0x91A SWAP2 SWAP1 PUSH2 0x1C86 JUMP JUMPDEST PUSH1 0x4 DUP2 SWAP1 SSTORE POP PUSH1 0x0 PUSH4 0x40429946 PUSH1 0xE0 SHL PUSH1 0x0 DUP1 DUP8 PUSH1 0x0 ADD MLOAD ADDRESS DUP10 PUSH1 0x40 ADD MLOAD DUP8 PUSH1 0x1 DUP13 PUSH1 0x80 ADD MLOAD PUSH1 0x0 ADD MLOAD PUSH1 0x40 MLOAD PUSH1 0x24 ADD PUSH2 0x95B SWAP9 SWAP8 SWAP7 SWAP6 SWAP5 SWAP4 SWAP3 SWAP2 SWAP1 PUSH2 0x1D57 JUMP JUMPDEST PUSH1 0x40 MLOAD PUSH1 0x20 DUP2 DUP4 SUB SUB DUP2 MSTORE SWAP1 PUSH1 0x40 MSTORE SWAP1 PUSH28 0xFFFFFFFFFFFFFFFFFFFFFFFFFFFFFFFFFFFFFFFFFFFFFFFFFFFFFFFF NOT AND PUSH1 0x20 DUP3 ADD DUP1 MLOAD PUSH28 0xFFFFFFFFFFFFFFFFFFFFFFFFFFFFFFFFFFFFFFFFFFFFFFFFFFFFFFFF DUP4 DUP2 DUP4 AND OR DUP4 MSTORE POP POP POP POP SWAP1 POP PUSH2 0x9C6 DUP7 DUP4 DUP7 DUP5 PUSH2 0xD94 JUMP JUMPDEST SWAP3 POP POP POP SWAP4 SWAP3 POP POP POP JUMP JUMPDEST PUSH1 0x0 PUSH1 0x5 PUSH1 0x0 DUP7 DUP2 MSTORE PUSH1 0x20 ADD SWAP1 DUP2 MSTORE PUSH1 0x20 ADD PUSH1 0x0 KECCAK256 PUSH1 0x0 SWAP1 SLOAD SWAP1 PUSH2 0x100 EXP SWAP1 DIV PUSH20 0xFFFFFFFFFFFFFFFFFFFFFFFFFFFFFFFFFFFFFFFF AND SWAP1 POP PUSH1 0x5 PUSH1 0x0 DUP7 DUP2 MSTORE PUSH1 0x20 ADD SWAP1 DUP2 MSTORE PUSH1 0x20 ADD PUSH1 0x0 KECCAK256 PUSH1 0x0 PUSH2 0x100 EXP DUP2 SLOAD SWAP1 PUSH20 0xFFFFFFFFFFFFFFFFFFFFFFFFFFFFFFFFFFFFFFFF MUL NOT AND SWAP1 SSTORE DUP5 PUSH32 0xE1FE3AFA0F7F761FF0A8B89086790EFD5140D2907EBD5B7FF6BFCB5E075FD4C5 PUSH1 0x40 MLOAD PUSH1 0x40 MLOAD DUP1 SWAP2 SUB SWAP1 LOG2 DUP1 PUSH20 0xFFFFFFFFFFFFFFFFFFFFFFFFFFFFFFFFFFFFFFFF AND PUSH4 0x6EE4D553 DUP7 DUP7 DUP7 DUP7 PUSH1 0x40 MLOAD DUP6 PUSH4 0xFFFFFFFF AND PUSH1 0xE0 SHL DUP2 MSTORE PUSH1 0x4 ADD PUSH2 0xAAB SWAP5 SWAP4 SWAP3 SWAP2 SWAP1 PUSH2 0x1DDC JUMP JUMPDEST PUSH1 0x0 PUSH1 0x40 MLOAD DUP1 DUP4 SUB DUP2 PUSH1 0x0 DUP8 DUP1 EXTCODESIZE ISZERO DUP1 ISZERO PUSH2 0xAC5 JUMPI PUSH1 0x0 DUP1 REVERT JUMPDEST POP GAS CALL ISZERO DUP1 ISZERO PUSH2 0xAD9 JUMPI RETURNDATASIZE PUSH1 0x0 DUP1 RETURNDATACOPY RETURNDATASIZE PUSH1 0x0 REVERT JUMPDEST POP POP POP POP POP POP POP POP POP JUMP JUMPDEST CALLER PUSH20 0xFFFFFFFFFFFFFFFFFFFFFFFFFFFFFFFFFFFFFFFF AND DUP2 PUSH20 0xFFFFFFFFFFFFFFFFFFFFFFFFFFFFFFFFFFFFFFFF AND SUB PUSH2 0xB52 JUMPI PUSH1 0x40 MLOAD PUSH32 0x8C379A000000000000000000000000000000000000000000000000000000000 DUP2 MSTORE PUSH1 0x4 ADD PUSH2 0xB49 SWAP1 PUSH2 0x1E6D JUMP JUMPDEST PUSH1 0x40 MLOAD DUP1 SWAP2 SUB SWAP1 REVERT JUMPDEST DUP1 PUSH1 0x7 PUSH1 0x0 PUSH2 0x100 EXP DUP2 SLOAD DUP2 PUSH20 0xFFFFFFFFFFFFFFFFFFFFFFFFFFFFFFFFFFFFFFFF MUL NOT AND SWAP1 DUP4 PUSH20 0xFFFFFFFFFFFFFFFFFFFFFFFFFFFFFFFFFFFFFFFF AND MUL OR SWAP1 SSTORE POP DUP1 PUSH20 0xFFFFFFFFFFFFFFFFFFFFFFFFFFFFFFFFFFFFFFFF AND PUSH1 0x6 PUSH1 0x0 SWAP1 SLOAD SWAP1 PUSH2 0x100 EXP SWAP1 DIV PUSH20 0xFFFFFFFFFFFFFFFFFFFFFFFFFFFFFFFFFFFFFFFF AND PUSH20 0xFFFFFFFFFFFFFFFFFFFFFFFFFFFFFFFFFFFFFFFF AND PUSH32 0xED8889F560326EB138920D842192F0EB3DD22B4F139C87A2C57538E05BAE1278 PUSH1 0x40 MLOAD PUSH1 0x40 MLOAD DUP1 SWAP2 SUB SWAP1 LOG3 POP JUMP JUMPDEST PUSH2 0xC1A PUSH2 0x1477 JUMP JUMPDEST PUSH2 0xC2A DUP6 PUSH1 0x80 ADD MLOAD PUSH2 0x100 PUSH2 0xF29 JUMP JUMPDEST POP DUP4 DUP6 PUSH1 0x0 ADD DUP2 DUP2 MSTORE POP POP DUP3 DUP6 PUSH1 0x20 ADD SWAP1 PUSH20 0xFFFFFFFFFFFFFFFFFFFFFFFFFFFFFFFFFFFFFFFF AND SWAP1 DUP2 PUSH20 0xFFFFFFFFFFFFFFFFFFFFFFFFFFFFFFFFFFFFFFFF AND DUP2 MSTORE POP POP DUP2 DUP6 PUSH1 0x40 ADD SWAP1 PUSH28 0xFFFFFFFFFFFFFFFFFFFFFFFFFFFFFFFFFFFFFFFFFFFFFFFFFFFFFFFF NOT AND SWAP1 DUP2 PUSH28 0xFFFFFFFFFFFFFFFFFFFFFFFFFFFFFFFFFFFFFFFFFFFFFFFFFFFFFFFF NOT AND DUP2 MSTORE POP POP DUP5 SWAP1 POP SWAP5 SWAP4 POP POP POP POP JUMP JUMPDEST PUSH2 0xCCF DUP3 PUSH1 0x3 DUP4 MLOAD PUSH2 0xF93 JUMP JUMPDEST PUSH2 0xCE2 DUP2 DUP4 PUSH2 0x1118 SWAP1 SWAP2 SWAP1 PUSH4 0xFFFFFFFF AND JUMP JUMPDEST POP POP POP JUMP JUMPDEST PUSH32 0xFFFFFFFFFFFFFFFFFFFFFFFFFFFFFFFFFFFFFFFFFFFFFFFF0000000000000000 DUP2 SLT ISZERO PUSH2 0xD1E JUMPI PUSH2 0xD19 DUP3 DUP3 PUSH2 0x113A JUMP JUMPDEST PUSH2 0xD90 JUMP JUMPDEST PUSH8 0xFFFFFFFFFFFFFFFF DUP2 SGT ISZERO PUSH2 0xD3D JUMPI PUSH2 0xD38 DUP3 DUP3 PUSH2 0x11B1 JUMP JUMPDEST PUSH2 0xD8F JUMP JUMPDEST PUSH1 0x0 DUP2 SLT PUSH2 0xD56 JUMPI PUSH2 0xD51 DUP3 PUSH1 0x0 DUP4 PUSH2 0xF93 JUMP JUMPDEST PUSH2 0xD8E JUMP JUMPDEST PUSH2 0xD8D DUP3 PUSH1 0x1 DUP4 PUSH32 0xFFFFFFFFFFFFFFFFFFFFFFFFFFFFFFFFFFFFFFFFFFFFFFFFFFFFFFFFFFFFFFFF PUSH2 0xD88 SWAP2 SWAP1 PUSH2 0x1E97 JUMP JUMPDEST PUSH2 0xF93 JUMP JUMPDEST JUMPDEST JUMPDEST JUMPDEST POP POP JUMP JUMPDEST PUSH1 0x0 ADDRESS DUP5 PUSH1 0x40 MLOAD PUSH1 0x20 ADD PUSH2 0xDA9 SWAP3 SWAP2 SWAP1 PUSH2 0x1F93 JUMP JUMPDEST PUSH1 0x40 MLOAD PUSH1 0x20 DUP2 DUP4 SUB SUB DUP2 MSTORE SWAP1 PUSH1 0x40 MSTORE DUP1 MLOAD SWAP1 PUSH1 0x20 ADD KECCAK256 SWAP1 POP DUP5 PUSH1 0x5 PUSH1 0x0 DUP4 DUP2 MSTORE PUSH1 0x20 ADD SWAP1 DUP2 MSTORE PUSH1 0x20 ADD PUSH1 0x0 KECCAK256 PUSH1 0x0 PUSH2 0x100 EXP DUP2 SLOAD DUP2 PUSH20 0xFFFFFFFFFFFFFFFFFFFFFFFFFFFFFFFFFFFFFFFF MUL NOT AND SWAP1 DUP4 PUSH20 0xFFFFFFFFFFFFFFFFFFFFFFFFFFFFFFFFFFFFFFFF AND MUL OR SWAP1 SSTORE POP DUP1 PUSH32 0xB5E6E01E79F91267DC17B4E6314D5D4D03593D2CEEE0FBB452B750BD70EA5AF9 PUSH1 0x40 MLOAD PUSH1 0x40 MLOAD DUP1 SWAP2 SUB SWAP1 LOG2 PUSH1 0x2 PUSH1 0x0 SWAP1 SLOAD SWAP1 PUSH2 0x100 EXP SWAP1 DIV PUSH20 0xFFFFFFFFFFFFFFFFFFFFFFFFFFFFFFFFFFFFFFFF AND PUSH20 0xFFFFFFFFFFFFFFFFFFFFFFFFFFFFFFFFFFFFFFFF AND PUSH4 0x4000AEA0 DUP7 DUP6 DUP6 PUSH1 0x40 MLOAD DUP5 PUSH4 0xFFFFFFFF AND PUSH1 0xE0 SHL DUP2 MSTORE PUSH1 0x4 ADD PUSH2 0xE9F SWAP4 SWAP3 SWAP2 SWAP1 PUSH2 0x1FBF JUMP JUMPDEST PUSH1 0x20 PUSH1 0x40 MLOAD DUP1 DUP4 SUB DUP2 PUSH1 0x0 DUP8 GAS CALL ISZERO DUP1 ISZERO PUSH2 0xEBE JUMPI RETURNDATASIZE PUSH1 0x0 DUP1 RETURNDATACOPY RETURNDATASIZE PUSH1 0x0 REVERT JUMPDEST POP POP POP POP PUSH1 0x40 MLOAD RETURNDATASIZE PUSH1 0x1F NOT PUSH1 0x1F DUP3 ADD AND DUP3 ADD DUP1 PUSH1 0x40 MSTORE POP DUP2 ADD SWAP1 PUSH2 0xEE2 SWAP2 SWAP1 PUSH2 0x1A1E JUMP JUMPDEST PUSH2 0xF21 JUMPI PUSH1 0x40 MLOAD PUSH32 0x8C379A000000000000000000000000000000000000000000000000000000000 DUP2 MSTORE PUSH1 0x4 ADD PUSH2 0xF18 SWAP1 PUSH2 0x206F JUMP JUMPDEST PUSH1 0x40 MLOAD DUP1 SWAP2 SUB SWAP1 REVERT JUMPDEST SWAP5 SWAP4 POP POP POP POP JUMP JUMPDEST PUSH2 0xF31 PUSH2 0x14E4 JUMP JUMPDEST PUSH1 0x0 PUSH1 0x20 DUP4 PUSH2 0xF40 SWAP2 SWAP1 PUSH2 0x208F JUMP JUMPDEST EQ PUSH2 0xF6C JUMPI PUSH1 0x20 DUP3 PUSH2 0xF52 SWAP2 SWAP1 PUSH2 0x208F JUMP JUMPDEST PUSH1 0x20 PUSH2 0xF5E SWAP2 SWAP1 PUSH2 0x20C0 JUMP JUMPDEST DUP3 PUSH2 0xF69 SWAP2 SWAP1 PUSH2 0x1C86 JUMP JUMPDEST SWAP2 POP JUMPDEST DUP2 DUP4 PUSH1 0x20 ADD DUP2 DUP2 MSTORE POP POP PUSH1 0x40 MLOAD DUP1 DUP5 MSTORE PUSH1 0x0 DUP2 MSTORE DUP3 DUP2 ADD PUSH1 0x20 ADD PUSH1 0x40 MSTORE POP DUP3 SWAP1 POP SWAP3 SWAP2 POP POP JUMP JUMPDEST PUSH1 0x17 DUP2 PUSH8 0xFFFFFFFFFFFFFFFF AND GT PUSH2 0xFCA JUMPI PUSH2 0xFC4 DUP2 PUSH1 0x5 DUP5 PUSH1 0xFF AND SWAP1 SHL PUSH1 0xFF AND OR DUP5 PUSH2 0x11FD SWAP1 SWAP2 SWAP1 PUSH4 0xFFFFFFFF AND JUMP JUMPDEST POP PUSH2 0x1113 JUMP JUMPDEST PUSH1 0xFF DUP2 PUSH8 0xFFFFFFFFFFFFFFFF AND GT PUSH2 0x1020 JUMPI PUSH2 0xFF9 PUSH1 0x18 PUSH1 0x5 DUP5 PUSH1 0xFF AND SWAP1 SHL OR DUP5 PUSH2 0x11FD SWAP1 SWAP2 SWAP1 PUSH4 0xFFFFFFFF AND JUMP JUMPDEST POP PUSH2 0x101A DUP2 PUSH8 0xFFFFFFFFFFFFFFFF AND PUSH1 0x1 DUP6 PUSH2 0x121D SWAP1 SWAP3 SWAP2 SWAP1 PUSH4 0xFFFFFFFF AND JUMP JUMPDEST POP PUSH2 0x1112 JUMP JUMPDEST PUSH2 0xFFFF DUP2 PUSH8 0xFFFFFFFFFFFFFFFF AND GT PUSH2 0x1077 JUMPI PUSH2 0x1050 PUSH1 0x19 PUSH1 0x5 DUP5 PUSH1 0xFF AND SWAP1 SHL OR DUP5 PUSH2 0x11FD SWAP1 SWAP2 SWAP1 PUSH4 0xFFFFFFFF AND JUMP JUMPDEST POP PUSH2 0x1071 DUP2 PUSH8 0xFFFFFFFFFFFFFFFF AND PUSH1 0x2 DUP6 PUSH2 0x121D SWAP1 SWAP3 SWAP2 SWAP1 PUSH4 0xFFFFFFFF AND JUMP JUMPDEST POP PUSH2 0x1111 JUMP JUMPDEST PUSH4 0xFFFFFFFF DUP2 PUSH8 0xFFFFFFFFFFFFFFFF AND GT PUSH2 0x10D0 JUMPI PUSH2 0x10A9 PUSH1 0x1A PUSH1 0x5 DUP5 PUSH1 0xFF AND SWAP1 SHL OR DUP5 PUSH2 0x11FD SWAP1 SWAP2 SWAP1 PUSH4 0xFFFFFFFF AND JUMP JUMPDEST POP PUSH2 0x10CA DUP2 PUSH8 0xFFFFFFFFFFFFFFFF AND PUSH1 0x4 DUP6 PUSH2 0x121D SWAP1 SWAP3 SWAP2 SWAP1 PUSH4 0xFFFFFFFF AND JUMP JUMPDEST POP PUSH2 0x1110 JUMP JUMPDEST PUSH2 0x10ED PUSH1 0x1B PUSH1 0x5 DUP5 PUSH1 0xFF AND SWAP1 SHL OR DUP5 PUSH2 0x11FD SWAP1 SWAP2 SWAP1 PUSH4 0xFFFFFFFF AND JUMP JUMPDEST POP PUSH2 0x110E DUP2 PUSH8 0xFFFFFFFFFFFFFFFF AND PUSH1 0x8 DUP6 PUSH2 0x121D SWAP1 SWAP3 SWAP2 SWAP1 PUSH4 0xFFFFFFFF AND JUMP JUMPDEST POP JUMPDEST JUMPDEST JUMPDEST JUMPDEST POP POP POP JUMP JUMPDEST PUSH2 0x1120 PUSH2 0x14E4 JUMP JUMPDEST PUSH2 0x1132 DUP4 DUP5 PUSH1 0x0 ADD MLOAD MLOAD DUP5 DUP6 MLOAD PUSH2 0x123F JUMP JUMPDEST SWAP1 POP SWAP3 SWAP2 POP POP JUMP JUMPDEST PUSH2 0x1158 PUSH1 0x3 PUSH1 0x5 PUSH1 0x6 PUSH1 0xFF AND SWAP1 SHL OR DUP4 PUSH2 0x11FD SWAP1 SWAP2 SWAP1 PUSH4 0xFFFFFFFF AND JUMP JUMPDEST POP PUSH2 0x11AD DUP3 DUP3 PUSH32 0xFFFFFFFFFFFFFFFFFFFFFFFFFFFFFFFFFFFFFFFFFFFFFFFFFFFFFFFFFFFFFFFF PUSH2 0x1189 SWAP2 SWAP1 PUSH2 0x1E97 JUMP JUMPDEST PUSH1 0x40 MLOAD PUSH1 0x20 ADD PUSH2 0x1199 SWAP2 SWAP1 PUSH2 0x1629 JUMP JUMPDEST PUSH1 0x40 MLOAD PUSH1 0x20 DUP2 DUP4 SUB SUB DUP2 MSTORE SWAP1 PUSH1 0x40 MSTORE PUSH2 0x132E JUMP JUMPDEST POP POP JUMP JUMPDEST PUSH2 0x11CF PUSH1 0x2 PUSH1 0x5 PUSH1 0x6 PUSH1 0xFF AND SWAP1 SHL OR DUP4 PUSH2 0x11FD SWAP1 SWAP2 SWAP1 PUSH4 0xFFFFFFFF AND JUMP JUMPDEST POP PUSH2 0x11F9 DUP3 DUP3 PUSH1 0x40 MLOAD PUSH1 0x20 ADD PUSH2 0x11E5 SWAP2 SWAP1 PUSH2 0x1629 JUMP JUMPDEST PUSH1 0x40 MLOAD PUSH1 0x20 DUP2 DUP4 SUB SUB DUP2 MSTORE SWAP1 PUSH1 0x40 MSTORE PUSH2 0x132E JUMP JUMPDEST POP POP JUMP JUMPDEST PUSH2 0x1205 PUSH2 0x14E4 JUMP JUMPDEST PUSH2 0x1215 DUP4 DUP5 PUSH1 0x0 ADD MLOAD MLOAD DUP5 PUSH2 0x1353 JUMP JUMPDEST SWAP1 POP SWAP3 SWAP2 POP POP JUMP JUMPDEST PUSH2 0x1225 PUSH2 0x14E4 JUMP JUMPDEST PUSH2 0x1236 DUP5 DUP6 PUSH1 0x0 ADD MLOAD MLOAD DUP6 DUP6 PUSH2 0x13A9 JUMP JUMPDEST SWAP1 POP SWAP4 SWAP3 POP POP POP JUMP JUMPDEST PUSH2 0x1247 PUSH2 0x14E4 JUMP JUMPDEST DUP3 MLOAD DUP3 GT ISZERO PUSH2 0x1255 JUMPI PUSH1 0x0 DUP1 REVERT JUMPDEST DUP5 PUSH1 0x20 ADD MLOAD DUP3 DUP6 PUSH2 0x1266 SWAP2 SWAP1 PUSH2 0x1C86 JUMP JUMPDEST GT ISZERO PUSH2 0x129B JUMPI PUSH2 0x129A DUP6 PUSH1 0x2 PUSH2 0x128B DUP9 PUSH1 0x20 ADD MLOAD DUP9 DUP8 PUSH2 0x1286 SWAP2 SWAP1 PUSH2 0x1C86 JUMP JUMPDEST PUSH2 0x1437 JUMP JUMPDEST PUSH2 0x1295 SWAP2 SWAP1 PUSH2 0x1B78 JUMP JUMPDEST PUSH2 0x1453 JUMP JUMPDEST JUMPDEST PUSH1 0x0 DUP1 DUP7 MLOAD DUP1 MLOAD DUP8 PUSH1 0x20 DUP4 ADD ADD SWAP4 POP DUP1 DUP9 DUP8 ADD GT ISZERO PUSH2 0x12BA JUMPI DUP8 DUP7 ADD DUP3 MSTORE JUMPDEST PUSH1 0x20 DUP8 ADD SWAP3 POP POP POP JUMPDEST PUSH1 0x20 DUP5 LT PUSH2 0x1301 JUMPI DUP1 MLOAD DUP3 MSTORE PUSH1 0x20 DUP3 PUSH2 0x12DC SWAP2 SWAP1 PUSH2 0x1C86 JUMP JUMPDEST SWAP2 POP PUSH1 0x20 DUP2 PUSH2 0x12EB SWAP2 SWAP1 PUSH2 0x1C86 JUMP JUMPDEST SWAP1 POP PUSH1 0x20 DUP5 PUSH2 0x12FA SWAP2 SWAP1 PUSH2 0x20C0 JUMP JUMPDEST SWAP4 POP PUSH2 0x12C3 JUMP JUMPDEST PUSH1 0x0 PUSH1 0x1 DUP6 PUSH1 0x20 SUB PUSH2 0x100 EXP SUB SWAP1 POP DUP1 NOT DUP3 MLOAD AND DUP2 DUP5 MLOAD AND DUP2 DUP2 OR DUP6 MSTORE POP POP POP DUP7 SWAP3 POP POP POP SWAP5 SWAP4 POP POP POP POP JUMP JUMPDEST PUSH2 0x133B DUP3 PUSH1 0x2 DUP4 MLOAD PUSH2 0xF93 JUMP JUMPDEST PUSH2 0x134E DUP2 DUP4 PUSH2 0x1118 SWAP1 SWAP2 SWAP1 PUSH4 0xFFFFFFFF AND JUMP JUMPDEST POP POP POP JUMP JUMPDEST PUSH2 0x135B PUSH2 0x14E4 JUMP JUMPDEST DUP4 PUSH1 0x20 ADD MLOAD DUP4 LT PUSH2 0x1381 JUMPI PUSH2 0x1380 DUP5 PUSH1 0x2 DUP7 PUSH1 0x20 ADD MLOAD PUSH2 0x137B SWAP2 SWAP1 PUSH2 0x1B78 JUMP JUMPDEST PUSH2 0x1453 JUMP JUMPDEST JUMPDEST DUP4 MLOAD DUP1 MLOAD PUSH1 0x20 DUP6 DUP4 ADD ADD DUP5 DUP2 MSTORE8 DUP2 DUP7 SUB PUSH2 0x139C JUMPI PUSH1 0x1 DUP3 ADD DUP4 MSTORE JUMPDEST POP POP POP DUP4 SWAP1 POP SWAP4 SWAP3 POP POP POP JUMP JUMPDEST PUSH2 0x13B1 PUSH2 0x14E4 JUMP JUMPDEST DUP5 PUSH1 0x20 ADD MLOAD DUP5 DUP4 PUSH2 0x13C2 SWAP2 SWAP1 PUSH2 0x1C86 JUMP JUMPDEST GT ISZERO PUSH2 0x13EA JUMPI PUSH2 0x13E9 DUP6 PUSH1 0x2 DUP7 DUP6 PUSH2 0x13DA SWAP2 SWAP1 PUSH2 0x1C86 JUMP JUMPDEST PUSH2 0x13E4 SWAP2 SWAP1 PUSH2 0x1B78 JUMP JUMPDEST PUSH2 0x1453 JUMP JUMPDEST JUMPDEST PUSH1 0x0 PUSH1 0x1 DUP4 PUSH2 0x100 PUSH2 0x13FC SWAP2 SWAP1 PUSH2 0x2227 JUMP JUMPDEST PUSH2 0x1406 SWAP2 SWAP1 PUSH2 0x20C0 JUMP JUMPDEST SWAP1 POP DUP6 MLOAD DUP4 DUP7 DUP3 ADD ADD DUP6 DUP4 NOT DUP3 MLOAD AND OR DUP2 MSTORE DUP2 MLOAD DUP6 DUP9 ADD GT ISZERO PUSH2 0x1429 JUMPI DUP5 DUP8 ADD DUP3 MSTORE JUMPDEST POP POP DUP6 SWAP2 POP POP SWAP5 SWAP4 POP POP POP POP JUMP JUMPDEST PUSH1 0x0 DUP2 DUP4 GT ISZERO PUSH2 0x1449 JUMPI DUP3 SWAP1 POP PUSH2 0x144D JUMP JUMPDEST DUP2 SWAP1 POP JUMPDEST SWAP3 SWAP2 POP POP JUMP JUMPDEST PUSH1 0x0 DUP3 PUSH1 0x0 ADD MLOAD SWAP1 POP PUSH2 0x1466 DUP4 DUP4 PUSH2 0xF29 JUMP JUMPDEST POP PUSH2 0x1471 DUP4 DUP3 PUSH2 0x1118 JUMP JUMPDEST POP POP POP POP JUMP JUMPDEST PUSH1 0x40 MLOAD DUP1 PUSH1 0xA0 ADD PUSH1 0x40 MSTORE DUP1 PUSH1 0x0 DUP1 NOT AND DUP2 MSTORE PUSH1 0x20 ADD PUSH1 0x0 PUSH20 0xFFFFFFFFFFFFFFFFFFFFFFFFFFFFFFFFFFFFFFFF AND DUP2 MSTORE PUSH1 0x20 ADD PUSH1 0x0 PUSH28 0xFFFFFFFFFFFFFFFFFFFFFFFFFFFFFFFFFFFFFFFFFFFFFFFFFFFFFFFF NOT AND DUP2 MSTORE PUSH1 0x20 ADD PUSH1 0x0 DUP2 MSTORE PUSH1 0x20 ADD PUSH2 0x14DE PUSH2 0x14E4 JUMP JUMPDEST DUP2 MSTORE POP SWAP1 JUMP JUMPDEST PUSH1 0x40 MLOAD DUP1 PUSH1 0x40 ADD PUSH1 0x40 MSTORE DUP1 PUSH1 0x60 DUP2 MSTORE PUSH1 0x20 ADD PUSH1 0x0 DUP2 MSTORE POP SWAP1 JUMP JUMPDEST PUSH1 0x0 PUSH20 0xFFFFFFFFFFFFFFFFFFFFFFFFFFFFFFFFFFFFFFFF DUP3 AND SWAP1 POP SWAP2 SWAP1 POP JUMP JUMPDEST PUSH1 0x0 PUSH2 0x1529 DUP3 PUSH2 0x14FE JUMP JUMPDEST SWAP1 POP SWAP2 SWAP1 POP JUMP JUMPDEST PUSH2 0x1539 DUP2 PUSH2 0x151E JUMP JUMPDEST DUP3 MSTORE POP POP JUMP JUMPDEST PUSH1 0x0 PUSH1 0x20 DUP3 ADD SWAP1 POP PUSH2 0x1554 PUSH1 0x0 DUP4 ADD DUP5 PUSH2 0x1530 JUMP JUMPDEST SWAP3 SWAP2 POP POP JUMP JUMPDEST PUSH1 0x0 PUSH1 0x40 MLOAD SWAP1 POP SWAP1 JUMP JUMPDEST PUSH1 0x0 DUP1 REVERT JUMPDEST PUSH1 0x0 DUP1 REVERT JUMPDEST PUSH1 0x0 DUP2 SWAP1 POP SWAP2 SWAP1 POP JUMP JUMPDEST PUSH2 0x1581 DUP2 PUSH2 0x156E JUMP JUMPDEST DUP2 EQ PUSH2 0x158C JUMPI PUSH1 0x0 DUP1 REVERT JUMPDEST POP JUMP JUMPDEST PUSH1 0x0 DUP2 CALLDATALOAD SWAP1 POP PUSH2 0x159E DUP2 PUSH2 0x1578 JUMP JUMPDEST SWAP3 SWAP2 POP POP JUMP JUMPDEST PUSH1 0x0 DUP2 SWAP1 POP SWAP2 SWAP1 POP JUMP JUMPDEST PUSH2 0x15B7 DUP2 PUSH2 0x15A4 JUMP JUMPDEST DUP2 EQ PUSH2 0x15C2 JUMPI PUSH1 0x0 DUP1 REVERT JUMPDEST POP JUMP JUMPDEST PUSH1 0x0 DUP2 CALLDATALOAD SWAP1 POP PUSH2 0x15D4 DUP2 PUSH2 0x15AE JUMP JUMPDEST SWAP3 SWAP2 POP POP JUMP JUMPDEST PUSH1 0x0 DUP1 PUSH1 0x40 DUP4 DUP6 SUB SLT ISZERO PUSH2 0x15F1 JUMPI PUSH2 0x15F0 PUSH2 0x1564 JUMP JUMPDEST JUMPDEST PUSH1 0x0 PUSH2 0x15FF DUP6 DUP3 DUP7 ADD PUSH2 0x158F JUMP JUMPDEST SWAP3 POP POP PUSH1 0x20 PUSH2 0x1610 DUP6 DUP3 DUP7 ADD PUSH2 0x15C5 JUMP JUMPDEST SWAP2 POP POP SWAP3 POP SWAP3 SWAP1 POP JUMP JUMPDEST PUSH2 0x1623 DUP2 PUSH2 0x15A4 JUMP JUMPDEST DUP3 MSTORE POP POP JUMP JUMPDEST PUSH1 0x0 PUSH1 0x20 DUP3 ADD SWAP1 POP PUSH2 0x163E PUSH1 0x0 DUP4 ADD DUP5 PUSH2 0x161A JUMP JUMPDEST SWAP3 SWAP2 POP POP JUMP JUMPDEST PUSH2 0x164D DUP2 PUSH2 0x151E JUMP JUMPDEST DUP2 EQ PUSH2 0x1658 JUMPI PUSH1 0x0 DUP1 REVERT JUMPDEST POP JUMP JUMPDEST PUSH1 0x0 DUP2 CALLDATALOAD SWAP1 POP PUSH2 0x166A DUP2 PUSH2 0x1644 JUMP JUMPDEST SWAP3 SWAP2 POP POP JUMP JUMPDEST PUSH1 0x0 DUP1 REVERT JUMPDEST PUSH1 0x0 DUP1 REVERT JUMPDEST PUSH1 0x0 PUSH1 0x1F NOT PUSH1 0x1F DUP4 ADD AND SWAP1 POP SWAP2 SWAP1 POP JUMP JUMPDEST PUSH32 0x4E487B7100000000000000000000000000000000000000000000000000000000 PUSH1 0x0 MSTORE PUSH1 0x41 PUSH1 0x4 MSTORE PUSH1 0x24 PUSH1 0x0 REVERT JUMPDEST PUSH2 0x16C3 DUP3 PUSH2 0x167A JUMP JUMPDEST DUP2 ADD DUP2 DUP2 LT PUSH8 0xFFFFFFFFFFFFFFFF DUP3 GT OR ISZERO PUSH2 0x16E2 JUMPI PUSH2 0x16E1 PUSH2 0x168B JUMP JUMPDEST JUMPDEST DUP1 PUSH1 0x40 MSTORE POP POP POP JUMP JUMPDEST PUSH1 0x0 PUSH2 0x16F5 PUSH2 0x155A JUMP JUMPDEST SWAP1 POP PUSH2 0x1701 DUP3 DUP3 PUSH2 0x16BA JUMP JUMPDEST SWAP2 SWAP1 POP JUMP JUMPDEST PUSH1 0x0 PUSH8 0xFFFFFFFFFFFFFFFF DUP3 GT ISZERO PUSH2 0x1721 JUMPI PUSH2 0x1720 PUSH2 0x168B JUMP JUMPDEST JUMPDEST PUSH2 0x172A DUP3 PUSH2 0x167A JUMP JUMPDEST SWAP1 POP PUSH1 0x20 DUP2 ADD SWAP1 POP SWAP2 SWAP1 POP JUMP JUMPDEST DUP3 DUP2 DUP4 CALLDATACOPY PUSH1 0x0 DUP4 DUP4 ADD MSTORE POP POP POP JUMP JUMPDEST PUSH1 0x0 PUSH2 0x1759 PUSH2 0x1754 DUP5 PUSH2 0x1706 JUMP JUMPDEST PUSH2 0x16EB JUMP JUMPDEST SWAP1 POP DUP3 DUP2 MSTORE PUSH1 0x20 DUP2 ADD DUP5 DUP5 DUP5 ADD GT ISZERO PUSH2 0x1775 JUMPI PUSH2 0x1774 PUSH2 0x1675 JUMP JUMPDEST JUMPDEST PUSH2 0x1780 DUP5 DUP3 DUP6 PUSH2 0x1737 JUMP JUMPDEST POP SWAP4 SWAP3 POP POP POP JUMP JUMPDEST PUSH1 0x0 DUP3 PUSH1 0x1F DUP4 ADD SLT PUSH2 0x179D JUMPI PUSH2 0x179C PUSH2 0x1670 JUMP JUMPDEST JUMPDEST DUP2 CALLDATALOAD PUSH2 0x17AD DUP5 DUP3 PUSH1 0x20 DUP7 ADD PUSH2 0x1746 JUMP JUMPDEST SWAP2 POP POP SWAP3 SWAP2 POP POP JUMP JUMPDEST PUSH1 0x0 DUP1 PUSH1 0x40 DUP4 DUP6 SUB SLT ISZERO PUSH2 0x17CD JUMPI PUSH2 0x17CC PUSH2 0x1564 JUMP JUMPDEST JUMPDEST PUSH1 0x0 PUSH2 0x17DB DUP6 DUP3 DUP7 ADD PUSH2 0x165B JUMP JUMPDEST SWAP3 POP POP PUSH1 0x20 DUP4 ADD CALLDATALOAD PUSH8 0xFFFFFFFFFFFFFFFF DUP2 GT ISZERO PUSH2 0x17FC JUMPI PUSH2 0x17FB PUSH2 0x1569 JUMP JUMPDEST JUMPDEST PUSH2 0x1808 DUP6 DUP3 DUP7 ADD PUSH2 0x1788 JUMP JUMPDEST SWAP2 POP POP SWAP3 POP SWAP3 SWAP1 POP JUMP JUMPDEST PUSH1 0x0 PUSH32 0xFFFFFFFF00000000000000000000000000000000000000000000000000000000 DUP3 AND SWAP1 POP SWAP2 SWAP1 POP JUMP JUMPDEST PUSH2 0x1847 DUP2 PUSH2 0x1812 JUMP JUMPDEST DUP2 EQ PUSH2 0x1852 JUMPI PUSH1 0x0 DUP1 REVERT JUMPDEST POP JUMP JUMPDEST PUSH1 0x0 DUP2 CALLDATALOAD SWAP1 POP PUSH2 0x1864 DUP2 PUSH2 0x183E JUMP JUMPDEST SWAP3 SWAP2 POP POP JUMP JUMPDEST PUSH1 0x0 DUP1 PUSH1 0x0 DUP1 PUSH1 0x80 DUP6 DUP8 SUB SLT ISZERO PUSH2 0x1884 JUMPI PUSH2 0x1883 PUSH2 0x1564 JUMP JUMPDEST JUMPDEST PUSH1 0x0 PUSH2 0x1892 DUP8 DUP3 DUP9 ADD PUSH2 0x158F JUMP JUMPDEST SWAP5 POP POP PUSH1 0x20 PUSH2 0x18A3 DUP8 DUP3 DUP9 ADD PUSH2 0x15C5 JUMP JUMPDEST SWAP4 POP POP PUSH1 0x40 PUSH2 0x18B4 DUP8 DUP3 DUP9 ADD PUSH2 0x1855 JUMP JUMPDEST SWAP3 POP POP PUSH1 0x60 PUSH2 0x18C5 DUP8 DUP3 DUP9 ADD PUSH2 0x15C5 JUMP JUMPDEST SWAP2 POP POP SWAP3 SWAP6 SWAP2 SWAP5 POP SWAP3 POP JUMP JUMPDEST PUSH1 0x0 PUSH1 0x20 DUP3 DUP5 SUB SLT ISZERO PUSH2 0x18E7 JUMPI PUSH2 0x18E6 PUSH2 0x1564 JUMP JUMPDEST JUMPDEST PUSH1 0x0 PUSH2 0x18F5 DUP5 DUP3 DUP6 ADD PUSH2 0x165B JUMP JUMPDEST SWAP2 POP POP SWAP3 SWAP2 POP POP JUMP JUMPDEST PUSH1 0x0 DUP3 DUP3 MSTORE PUSH1 0x20 DUP3 ADD SWAP1 POP SWAP3 SWAP2 POP POP JUMP JUMPDEST PUSH32 0x4D7573742062652070726F706F736564206F776E657200000000000000000000 PUSH1 0x0 DUP3 ADD MSTORE POP JUMP JUMPDEST PUSH1 0x0 PUSH2 0x1945 PUSH1 0x16 DUP4 PUSH2 0x18FE JUMP JUMPDEST SWAP2 POP PUSH2 0x1950 DUP3 PUSH2 0x190F JUMP JUMPDEST PUSH1 0x20 DUP3 ADD SWAP1 POP SWAP2 SWAP1 POP JUMP JUMPDEST PUSH1 0x0 PUSH1 0x20 DUP3 ADD SWAP1 POP DUP2 DUP2 SUB PUSH1 0x0 DUP4 ADD MSTORE PUSH2 0x1974 DUP2 PUSH2 0x1938 JUMP JUMPDEST SWAP1 POP SWAP2 SWAP1 POP JUMP JUMPDEST PUSH1 0x0 DUP2 MLOAD SWAP1 POP PUSH2 0x198A DUP2 PUSH2 0x15AE JUMP JUMPDEST SWAP3 SWAP2 POP POP JUMP JUMPDEST PUSH1 0x0 PUSH1 0x20 DUP3 DUP5 SUB SLT ISZERO PUSH2 0x19A6 JUMPI PUSH2 0x19A5 PUSH2 0x1564 JUMP JUMPDEST JUMPDEST PUSH1 0x0 PUSH2 0x19B4 DUP5 DUP3 DUP6 ADD PUSH2 0x197B JUMP JUMPDEST SWAP2 POP POP SWAP3 SWAP2 POP POP JUMP JUMPDEST PUSH1 0x0 PUSH1 0x40 DUP3 ADD SWAP1 POP PUSH2 0x19D2 PUSH1 0x0 DUP4 ADD DUP6 PUSH2 0x1530 JUMP JUMPDEST PUSH2 0x19DF PUSH1 0x20 DUP4 ADD DUP5 PUSH2 0x161A JUMP JUMPDEST SWAP4 SWAP3 POP POP POP JUMP JUMPDEST PUSH1 0x0 DUP2 ISZERO ISZERO SWAP1 POP SWAP2 SWAP1 POP JUMP JUMPDEST PUSH2 0x19FB DUP2 PUSH2 0x19E6 JUMP JUMPDEST DUP2 EQ PUSH2 0x1A06 JUMPI PUSH1 0x0 DUP1 REVERT JUMPDEST POP JUMP JUMPDEST PUSH1 0x0 DUP2 MLOAD SWAP1 POP PUSH2 0x1A18 DUP2 PUSH2 0x19F2 JUMP JUMPDEST SWAP3 SWAP2 POP POP JUMP JUMPDEST PUSH1 0x0 PUSH1 0x20 DUP3 DUP5 SUB SLT ISZERO PUSH2 0x1A34 JUMPI PUSH2 0x1A33 PUSH2 0x1564 JUMP JUMPDEST JUMPDEST PUSH1 0x0 PUSH2 0x1A42 DUP5 DUP3 DUP6 ADD PUSH2 0x1A09 JUMP JUMPDEST SWAP2 POP POP SWAP3 SWAP2 POP POP JUMP JUMPDEST PUSH32 0x556E61626C6520746F207472616E736665720000000000000000000000000000 PUSH1 0x0 DUP3 ADD MSTORE POP JUMP JUMPDEST PUSH1 0x0 PUSH2 0x1A81 PUSH1 0x12 DUP4 PUSH2 0x18FE JUMP JUMPDEST SWAP2 POP PUSH2 0x1A8C DUP3 PUSH2 0x1A4B JUMP JUMPDEST PUSH1 0x20 DUP3 ADD SWAP1 POP SWAP2 SWAP1 POP JUMP JUMPDEST PUSH1 0x0 PUSH1 0x20 DUP3 ADD SWAP1 POP DUP2 DUP2 SUB PUSH1 0x0 DUP4 ADD MSTORE PUSH2 0x1AB0 DUP2 PUSH2 0x1A74 JUMP JUMPDEST SWAP1 POP SWAP2 SWAP1 POP JUMP JUMPDEST PUSH32 0x536F75726365206D75737420626520746865206F7261636C65206F6620746865 PUSH1 0x0 DUP3 ADD MSTORE PUSH32 0x2072657175657374000000000000000000000000000000000000000000000000 PUSH1 0x20 DUP3 ADD MSTORE POP JUMP JUMPDEST PUSH1 0x0 PUSH2 0x1B13 PUSH1 0x28 DUP4 PUSH2 0x18FE JUMP JUMPDEST SWAP2 POP PUSH2 0x1B1E DUP3 PUSH2 0x1AB7 JUMP JUMPDEST PUSH1 0x40 DUP3 ADD SWAP1 POP SWAP2 SWAP1 POP JUMP JUMPDEST PUSH1 0x0 PUSH1 0x20 DUP3 ADD SWAP1 POP DUP2 DUP2 SUB PUSH1 0x0 DUP4 ADD MSTORE PUSH2 0x1B42 DUP2 PUSH2 0x1B06 JUMP JUMPDEST SWAP1 POP SWAP2 SWAP1 POP JUMP JUMPDEST PUSH32 0x4E487B7100000000000000000000000000000000000000000000000000000000 PUSH1 0x0 MSTORE PUSH1 0x11 PUSH1 0x4 MSTORE PUSH1 0x24 PUSH1 0x0 REVERT JUMPDEST PUSH1 0x0 PUSH2 0x1B83 DUP3 PUSH2 0x15A4 JUMP JUMPDEST SWAP2 POP PUSH2 0x1B8E DUP4 PUSH2 0x15A4 JUMP JUMPDEST SWAP3 POP DUP3 DUP3 MUL PUSH2 0x1B9C DUP2 PUSH2 0x15A4 JUMP JUMPDEST SWAP2 POP DUP3 DUP3 DIV DUP5 EQ DUP4 ISZERO OR PUSH2 0x1BB3 JUMPI PUSH2 0x1BB2 PUSH2 0x1B49 JUMP JUMPDEST JUMPDEST POP SWAP3 SWAP2 POP POP JUMP JUMPDEST PUSH32 0x4E487B7100000000000000000000000000000000000000000000000000000000 PUSH1 0x0 MSTORE PUSH1 0x12 PUSH1 0x4 MSTORE PUSH1 0x24 PUSH1 0x0 REVERT JUMPDEST PUSH1 0x0 PUSH2 0x1BF4 DUP3 PUSH2 0x15A4 JUMP JUMPDEST SWAP2 POP PUSH2 0x1BFF DUP4 PUSH2 0x15A4 JUMP JUMPDEST SWAP3 POP DUP3 PUSH2 0x1C0F JUMPI PUSH2 0x1C0E PUSH2 0x1BBA JUMP JUMPDEST JUMPDEST DUP3 DUP3 DIV SWAP1 POP SWAP3 SWAP2 POP POP JUMP JUMPDEST PUSH32 0x4F6E6C792063616C6C61626C65206279206F776E657200000000000000000000 PUSH1 0x0 DUP3 ADD MSTORE POP JUMP JUMPDEST PUSH1 0x0 PUSH2 0x1C50 PUSH1 0x16 DUP4 PUSH2 0x18FE JUMP JUMPDEST SWAP2 POP PUSH2 0x1C5B DUP3 PUSH2 0x1C1A JUMP JUMPDEST PUSH1 0x20 DUP3 ADD SWAP1 POP SWAP2 SWAP1 POP JUMP JUMPDEST PUSH1 0x0 PUSH1 0x20 DUP3 ADD SWAP1 POP DUP2 DUP2 SUB PUSH1 0x0 DUP4 ADD MSTORE PUSH2 0x1C7F DUP2 PUSH2 0x1C43 JUMP JUMPDEST SWAP1 POP SWAP2 SWAP1 POP JUMP JUMPDEST PUSH1 0x0 PUSH2 0x1C91 DUP3 PUSH2 0x15A4 JUMP JUMPDEST SWAP2 POP PUSH2 0x1C9C DUP4 PUSH2 0x15A4 JUMP JUMPDEST SWAP3 POP DUP3 DUP3 ADD SWAP1 POP DUP1 DUP3 GT ISZERO PUSH2 0x1CB4 JUMPI PUSH2 0x1CB3 PUSH2 0x1B49 JUMP JUMPDEST JUMPDEST SWAP3 SWAP2 POP POP JUMP JUMPDEST PUSH2 0x1CC3 DUP2 PUSH2 0x156E JUMP JUMPDEST DUP3 MSTORE POP POP JUMP JUMPDEST PUSH2 0x1CD2 DUP2 PUSH2 0x1812 JUMP JUMPDEST DUP3 MSTORE POP POP JUMP JUMPDEST PUSH1 0x0 DUP2 MLOAD SWAP1 POP SWAP2 SWAP1 POP JUMP JUMPDEST PUSH1 0x0 DUP3 DUP3 MSTORE PUSH1 0x20 DUP3 ADD SWAP1 POP SWAP3 SWAP2 POP POP JUMP JUMPDEST PUSH1 0x0 JUMPDEST DUP4 DUP2 LT ISZERO PUSH2 0x1D12 JUMPI DUP1 DUP3 ADD MLOAD DUP2 DUP5 ADD MSTORE PUSH1 0x20 DUP2 ADD SWAP1 POP PUSH2 0x1CF7 JUMP JUMPDEST PUSH1 0x0 DUP5 DUP5 ADD MSTORE POP POP POP POP JUMP JUMPDEST PUSH1 0x0 PUSH2 0x1D29 DUP3 PUSH2 0x1CD8 JUMP JUMPDEST PUSH2 0x1D33 DUP2 DUP6 PUSH2 0x1CE3 JUMP JUMPDEST SWAP4 POP PUSH2 0x1D43 DUP2 DUP6 PUSH1 0x20 DUP7 ADD PUSH2 0x1CF4 JUMP JUMPDEST PUSH2 0x1D4C DUP2 PUSH2 0x167A JUMP JUMPDEST DUP5 ADD SWAP2 POP POP SWAP3 SWAP2 POP POP JUMP JUMPDEST PUSH1 0x0 PUSH2 0x100 DUP3 ADD SWAP1 POP PUSH2 0x1D6D PUSH1 0x0 DUP4 ADD DUP12 PUSH2 0x1530 JUMP JUMPDEST PUSH2 0x1D7A PUSH1 0x20 DUP4 ADD DUP11 PUSH2 0x161A JUMP JUMPDEST PUSH2 0x1D87 PUSH1 0x40 DUP4 ADD DUP10 PUSH2 0x1CBA JUMP JUMPDEST PUSH2 0x1D94 PUSH1 0x60 DUP4 ADD DUP9 PUSH2 0x1530 JUMP JUMPDEST PUSH2 0x1DA1 PUSH1 0x80 DUP4 ADD DUP8 PUSH2 0x1CC9 JUMP JUMPDEST PUSH2 0x1DAE PUSH1 0xA0 DUP4 ADD DUP7 PUSH2 0x161A JUMP JUMPDEST PUSH2 0x1DBB PUSH1 0xC0 DUP4 ADD DUP6 PUSH2 0x161A JUMP JUMPDEST DUP2 DUP2 SUB PUSH1 0xE0 DUP4 ADD MSTORE PUSH2 0x1DCD DUP2 DUP5 PUSH2 0x1D1E JUMP JUMPDEST SWAP1 POP SWAP10 SWAP9 POP POP POP POP POP POP POP POP POP JUMP JUMPDEST PUSH1 0x0 PUSH1 0x80 DUP3 ADD SWAP1 POP PUSH2 0x1DF1 PUSH1 0x0 DUP4 ADD DUP8 PUSH2 0x1CBA JUMP JUMPDEST PUSH2 0x1DFE PUSH1 0x20 DUP4 ADD DUP7 PUSH2 0x161A JUMP JUMPDEST PUSH2 0x1E0B PUSH1 0x40 DUP4 ADD DUP6 PUSH2 0x1CC9 JUMP JUMPDEST PUSH2 0x1E18 PUSH1 0x60 DUP4 ADD DUP5 PUSH2 0x161A JUMP JUMPDEST SWAP6 SWAP5 POP POP POP POP POP JUMP JUMPDEST PUSH32 0x43616E6E6F74207472616E7366657220746F2073656C66000000000000000000 PUSH1 0x0 DUP3 ADD MSTORE POP JUMP JUMPDEST PUSH1 0x0 PUSH2 0x1E57 PUSH1 0x17 DUP4 PUSH2 0x18FE JUMP JUMPDEST SWAP2 POP PUSH2 0x1E62 DUP3 PUSH2 0x1E21 JUMP JUMPDEST PUSH1 0x20 DUP3 ADD SWAP1 POP SWAP2 SWAP1 POP JUMP JUMPDEST PUSH1 0x0 PUSH1 0x20 DUP3 ADD SWAP1 POP DUP2 DUP2 SUB PUSH1 0x0 DUP4 ADD MSTORE PUSH2 0x1E86 DUP2 PUSH2 0x1E4A JUMP JUMPDEST SWAP1 POP SWAP2 SWAP1 POP JUMP JUMPDEST PUSH1 0x0 DUP2 SWAP1 POP SWAP2 SWAP1 POP JUMP JUMPDEST PUSH1 0x0 PUSH2 0x1EA2 DUP3 PUSH2 0x1E8D JUMP JUMPDEST SWAP2 POP PUSH2 0x1EAD DUP4 PUSH2 0x1E8D JUMP JUMPDEST SWAP3 POP DUP3 DUP3 SUB SWAP1 POP DUP2 DUP2 SLT PUSH1 0x0 DUP5 SLT AND DUP3 DUP3 SGT PUSH1 0x0 DUP6 SLT ISZERO AND OR ISZERO PUSH2 0x1ED4 JUMPI PUSH2 0x1ED3 PUSH2 0x1B49 JUMP JUMPDEST JUMPDEST SWAP3 SWAP2 POP POP JUMP JUMPDEST PUSH1 0x0 DUP2 SWAP1 POP SWAP2 SWAP1 POP JUMP JUMPDEST PUSH1 0x0 PUSH2 0x1EFF PUSH2 0x1EFA PUSH2 0x1EF5 DUP5 PUSH2 0x14FE JUMP JUMPDEST PUSH2 0x1EDA JUMP JUMPDEST PUSH2 0x14FE JUMP JUMPDEST SWAP1 POP SWAP2 SWAP1 POP JUMP JUMPDEST PUSH1 0x0 PUSH2 0x1F11 DUP3 PUSH2 0x1EE4 JUMP JUMPDEST SWAP1 POP SWAP2 SWAP1 POP JUMP JUMPDEST PUSH1 0x0 PUSH2 0x1F23 DUP3 PUSH2 0x1F06 JUMP JUMPDEST SWAP1 POP SWAP2 SWAP1 POP JUMP JUMPDEST PUSH1 0x0 DUP2 PUSH1 0x60 SHL SWAP1 POP SWAP2 SWAP1 POP JUMP JUMPDEST PUSH1 0x0 PUSH2 0x1F42 DUP3 PUSH2 0x1F2A JUMP JUMPDEST SWAP1 POP SWAP2 SWAP1 POP JUMP JUMPDEST PUSH1 0x0 PUSH2 0x1F54 DUP3 PUSH2 0x1F37 JUMP JUMPDEST SWAP1 POP SWAP2 SWAP1 POP JUMP JUMPDEST PUSH2 0x1F6C PUSH2 0x1F67 DUP3 PUSH2 0x1F18 JUMP JUMPDEST PUSH2 0x1F49 JUMP JUMPDEST DUP3 MSTORE POP POP JUMP JUMPDEST PUSH1 0x0 DUP2 SWAP1 POP SWAP2 SWAP1 POP JUMP JUMPDEST PUSH2 0x1F8D PUSH2 0x1F88 DUP3 PUSH2 0x15A4 JUMP JUMPDEST PUSH2 0x1F72 JUMP JUMPDEST DUP3 MSTORE POP POP JUMP JUMPDEST PUSH1 0x0 PUSH2 0x1F9F DUP3 DUP6 PUSH2 0x1F5B JUMP JUMPDEST PUSH1 0x14 DUP3 ADD SWAP2 POP PUSH2 0x1FAF DUP3 DUP5 PUSH2 0x1F7C JUMP JUMPDEST PUSH1 0x20 DUP3 ADD SWAP2 POP DUP2 SWAP1 POP SWAP4 SWAP3 POP POP POP JUMP JUMPDEST PUSH1 0x0 PUSH1 0x60 DUP3 ADD SWAP1 POP PUSH2 0x1FD4 PUSH1 0x0 DUP4 ADD DUP7 PUSH2 0x1530 JUMP JUMPDEST PUSH2 0x1FE1 PUSH1 0x20 DUP4 ADD DUP6 PUSH2 0x161A JUMP JUMPDEST DUP2 DUP2 SUB PUSH1 0x40 DUP4 ADD MSTORE PUSH2 0x1FF3 DUP2 DUP5 PUSH2 0x1D1E JUMP JUMPDEST SWAP1 POP SWAP5 SWAP4 POP POP POP POP JUMP JUMPDEST PUSH32 0x756E61626C6520746F207472616E73666572416E6443616C6C20746F206F7261 PUSH1 0x0 DUP3 ADD MSTORE PUSH32 0x636C650000000000000000000000000000000000000000000000000000000000 PUSH1 0x20 DUP3 ADD MSTORE POP JUMP JUMPDEST PUSH1 0x0 PUSH2 0x2059 PUSH1 0x23 DUP4 PUSH2 0x18FE JUMP JUMPDEST SWAP2 POP PUSH2 0x2064 DUP3 PUSH2 0x1FFD JUMP JUMPDEST PUSH1 0x40 DUP3 ADD SWAP1 POP SWAP2 SWAP1 POP JUMP JUMPDEST PUSH1 0x0 PUSH1 0x20 DUP3 ADD SWAP1 POP DUP2 DUP2 SUB PUSH1 0x0 DUP4 ADD MSTORE PUSH2 0x2088 DUP2 PUSH2 0x204C JUMP JUMPDEST SWAP1 POP SWAP2 SWAP1 POP JUMP JUMPDEST PUSH1 0x0 PUSH2 0x209A DUP3 PUSH2 0x15A4 JUMP JUMPDEST SWAP2 POP PUSH2 0x20A5 DUP4 PUSH2 0x15A4 JUMP JUMPDEST SWAP3 POP DUP3 PUSH2 0x20B5 JUMPI PUSH2 0x20B4 PUSH2 0x1BBA JUMP JUMPDEST JUMPDEST DUP3 DUP3 MOD SWAP1 POP SWAP3 SWAP2 POP POP JUMP JUMPDEST PUSH1 0x0 PUSH2 0x20CB DUP3 PUSH2 0x15A4 JUMP JUMPDEST SWAP2 POP PUSH2 0x20D6 DUP4 PUSH2 0x15A4 JUMP JUMPDEST SWAP3 POP DUP3 DUP3 SUB SWAP1 POP DUP2 DUP2 GT ISZERO PUSH2 0x20EE JUMPI PUSH2 0x20ED PUSH2 0x1B49 JUMP JUMPDEST JUMPDEST SWAP3 SWAP2 POP POP JUMP JUMPDEST PUSH1 0x0 DUP2 PUSH1 0x1 SHR SWAP1 POP SWAP2 SWAP1 POP JUMP JUMPDEST PUSH1 0x0 DUP1 DUP3 SWAP2 POP DUP4 SWAP1 POP JUMPDEST PUSH1 0x1 DUP6 GT ISZERO PUSH2 0x214B JUMPI DUP1 DUP7 DIV DUP2 GT ISZERO PUSH2 0x2127 JUMPI PUSH2 0x2126 PUSH2 0x1B49 JUMP JUMPDEST JUMPDEST PUSH1 0x1 DUP6 AND ISZERO PUSH2 0x2136 JUMPI DUP1 DUP3 MUL SWAP2 POP JUMPDEST DUP1 DUP2 MUL SWAP1 POP PUSH2 0x2144 DUP6 PUSH2 0x20F4 JUMP JUMPDEST SWAP5 POP PUSH2 0x210B JUMP JUMPDEST SWAP5 POP SWAP5 SWAP3 POP POP POP JUMP JUMPDEST PUSH1 0x0 DUP3 PUSH2 0x2164 JUMPI PUSH1 0x1 SWAP1 POP PUSH2 0x2220 JUMP JUMPDEST DUP2 PUSH2 0x2172 JUMPI PUSH1 0x0 SWAP1 POP PUSH2 0x2220 JUMP JUMPDEST DUP2 PUSH1 0x1 DUP2 EQ PUSH2 0x2188 JUMPI PUSH1 0x2 DUP2 EQ PUSH2 0x2192 JUMPI PUSH2 0x21C1 JUMP JUMPDEST PUSH1 0x1 SWAP2 POP POP PUSH2 0x2220 JUMP JUMPDEST PUSH1 0xFF DUP5 GT ISZERO PUSH2 0x21A4 JUMPI PUSH2 0x21A3 PUSH2 0x1B49 JUMP JUMPDEST JUMPDEST DUP4 PUSH1 0x2 EXP SWAP2 POP DUP5 DUP3 GT ISZERO PUSH2 0x21BB JUMPI PUSH2 0x21BA PUSH2 0x1B49 JUMP JUMPDEST JUMPDEST POP PUSH2 0x2220 JUMP JUMPDEST POP PUSH1 0x20 DUP4 LT PUSH2 0x133 DUP4 LT AND PUSH1 0x4E DUP5 LT PUSH1 0xB DUP5 LT AND OR ISZERO PUSH2 0x21F6 JUMPI DUP3 DUP3 EXP SWAP1 POP DUP4 DUP2 GT ISZERO PUSH2 0x21F1 JUMPI PUSH2 0x21F0 PUSH2 0x1B49 JUMP JUMPDEST JUMPDEST PUSH2 0x2220 JUMP JUMPDEST PUSH2 0x2203 DUP5 DUP5 DUP5 PUSH1 0x1 PUSH2 0x2101 JUMP JUMPDEST SWAP3 POP SWAP1 POP DUP2 DUP5 DIV DUP2 GT ISZERO PUSH2 0x221A JUMPI PUSH2 0x2219 PUSH2 0x1B49 JUMP JUMPDEST JUMPDEST DUP2 DUP2 MUL SWAP1 POP JUMPDEST SWAP4 SWAP3 POP POP POP JUMP JUMPDEST PUSH1 0x0 PUSH2 0x2232 DUP3 PUSH2 0x15A4 JUMP JUMPDEST SWAP2 POP PUSH2 0x223D DUP4 PUSH2 0x15A4 JUMP JUMPDEST SWAP3 POP PUSH2 0x226A PUSH32 0xFFFFFFFFFFFFFFFFFFFFFFFFFFFFFFFFFFFFFFFFFFFFFFFFFFFFFFFFFFFFFFFF DUP5 DUP5 PUSH2 0x2154 JUMP JUMPDEST SWAP1 POP SWAP3 SWAP2 POP POP JUMP INVALID PUSH9 0x7474703A2F2F686F73 PUSH21 0x2E646F636B65722E696E7465726E616C3A33303030 0x2F PUSH14 0x6F6469666965642D747261696E2D PUSH10 0x6E666FA2646970667358 0x22 SLT KECCAK256 0xB1 0x1E ORIGIN SGT SWAP13 0xB0 0xE1 CALLDATACOPY SELFDESTRUCT PUSH3 0x6D3B5 DIV PUSH20 0x8898EEB9011CAC5956D0BEF3BA944D067A64736F PUSH13 0x63430008130033000000000000 "
				},
				"gasEstimates": {
					"creation": {
						"codeDepositCost": "1784800",
						"executionCost": "infinite",
						"totalCost": "infinite"
					},
					"external": {
						"acceptOwnership()": "54563",
						"cancelRequest(bytes32,uint256,bytes4,uint256)": "infinite",
						"currentPrice()": "2451",
						"fulfillEthereumPrice(bytes32,uint256)": "51954",
						"getChainlinkToken()": "2558",
						"owner()": "2567",
						"requestEthereumPrice(address,string)": "infinite",
						"transferOwnership(address)": "30748",
						"withdrawLink()": "infinite"
					},
					"internal": {
						"stringToBytes32(string memory)": "infinite"
					}
				},
				"methodIdentifiers": {
					"acceptOwnership()": "79ba5097",
					"cancelRequest(bytes32,uint256,bytes4,uint256)": "ec65d0f8",
					"currentPrice()": "9d1b464a",
					"fulfillEthereumPrice(bytes32,uint256)": "92cdaaf3",
					"getChainlinkToken()": "165d35e1",
					"owner()": "8da5cb5b",
					"requestEthereumPrice(address,string)": "ab643c10",
					"transferOwnership(address)": "f2fde38b",
					"withdrawLink()": "8dc654a2"
				}
			},
			"storageLayout": {
				"storage": [
					{
						"astId": 325,
						"contract": "docs.chain.link/samples/APIRequests/ATestnetConsumer1.sol:ATestnetConsumer",
						"label": "s_ens",
						"offset": 0,
						"slot": "0",
						"type": "t_contract(ENSInterface)982"
					},
					{
						"astId": 327,
						"contract": "docs.chain.link/samples/APIRequests/ATestnetConsumer1.sol:ATestnetConsumer",
						"label": "s_ensNode",
						"offset": 0,
						"slot": "1",
						"type": "t_bytes32"
					},
					{
						"astId": 330,
						"contract": "docs.chain.link/samples/APIRequests/ATestnetConsumer1.sol:ATestnetConsumer",
						"label": "s_link",
						"offset": 0,
						"slot": "2",
						"type": "t_contract(LinkTokenInterface)1382"
					},
					{
						"astId": 333,
						"contract": "docs.chain.link/samples/APIRequests/ATestnetConsumer1.sol:ATestnetConsumer",
						"label": "s_oracle",
						"offset": 0,
						"slot": "3",
						"type": "t_contract(OperatorInterface)1047"
					},
					{
						"astId": 336,
						"contract": "docs.chain.link/samples/APIRequests/ATestnetConsumer1.sol:ATestnetConsumer",
						"label": "s_requestCount",
						"offset": 0,
						"slot": "4",
						"type": "t_uint256"
					},
					{
						"astId": 340,
						"contract": "docs.chain.link/samples/APIRequests/ATestnetConsumer1.sol:ATestnetConsumer",
						"label": "s_pendingRequests",
						"offset": 0,
						"slot": "5",
						"type": "t_mapping(t_bytes32,t_address)"
					},
					{
						"astId": 1117,
						"contract": "docs.chain.link/samples/APIRequests/ATestnetConsumer1.sol:ATestnetConsumer",
						"label": "s_owner",
						"offset": 0,
						"slot": "6",
						"type": "t_address"
					},
					{
						"astId": 1119,
						"contract": "docs.chain.link/samples/APIRequests/ATestnetConsumer1.sol:ATestnetConsumer",
						"label": "s_pendingOwner",
						"offset": 0,
						"slot": "7",
						"type": "t_address"
					},
					{
						"astId": 2389,
						"contract": "docs.chain.link/samples/APIRequests/ATestnetConsumer1.sol:ATestnetConsumer",
						"label": "currentPrice",
						"offset": 0,
						"slot": "8",
						"type": "t_uint256"
					}
				],
				"types": {
					"t_address": {
						"encoding": "inplace",
						"label": "address",
						"numberOfBytes": "20"
					},
					"t_bytes32": {
						"encoding": "inplace",
						"label": "bytes32",
						"numberOfBytes": "32"
					},
					"t_contract(ENSInterface)982": {
						"encoding": "inplace",
						"label": "contract ENSInterface",
						"numberOfBytes": "20"
					},
					"t_contract(LinkTokenInterface)1382": {
						"encoding": "inplace",
						"label": "contract LinkTokenInterface",
						"numberOfBytes": "20"
					},
					"t_contract(OperatorInterface)1047": {
						"encoding": "inplace",
						"label": "contract OperatorInterface",
						"numberOfBytes": "20"
					},
					"t_mapping(t_bytes32,t_address)": {
						"encoding": "mapping",
						"key": "t_bytes32",
						"label": "mapping(bytes32 => address)",
						"numberOfBytes": "32",
						"value": "t_address"
					},
					"t_uint256": {
						"encoding": "inplace",
						"label": "uint256",
						"numberOfBytes": "32"
					}
				}
			},
			"userdoc": {
				"kind": "user",
				"methods": {
					"acceptOwnership()": {
						"notice": "Allows an ownership transfer to be completed by the recipient."
					},
					"constructor": {
						"notice": "Sepolia"
					},
					"owner()": {
						"notice": "Get the current owner"
					},
					"transferOwnership(address)": {
						"notice": "Allows an owner to begin transferring ownership to a new address."
					}
				},
				"notice": "THIS IS AN EXAMPLE CONTRACT THAT USES UN-AUDITED CODE. DO NOT USE THIS CODE IN PRODUCTION.",
				"version": 1
			}
		}
	}
}