{
	"docs.chain.link/samples/APIRequests/TrainApp3.sol": {
		"DelayNFT": {
			"abi": [
				{
					"inputs": [],
					"stateMutability": "nonpayable",
					"type": "constructor"
				},
				{
					"anonymous": false,
					"inputs": [
						{
							"indexed": true,
							"internalType": "bytes32",
							"name": "id",
							"type": "bytes32"
						}
					],
					"name": "ChainlinkCancelled",
					"type": "event"
				},
				{
					"anonymous": false,
					"inputs": [
						{
							"indexed": true,
							"internalType": "bytes32",
							"name": "id",
							"type": "bytes32"
						}
					],
					"name": "ChainlinkFulfilled",
					"type": "event"
				},
				{
					"anonymous": false,
					"inputs": [
						{
							"indexed": true,
							"internalType": "bytes32",
							"name": "id",
							"type": "bytes32"
						}
					],
					"name": "ChainlinkRequested",
					"type": "event"
				},
				{
					"anonymous": false,
					"inputs": [
						{
							"indexed": true,
							"internalType": "address",
							"name": "from",
							"type": "address"
						},
						{
							"indexed": true,
							"internalType": "address",
							"name": "to",
							"type": "address"
						}
					],
					"name": "OwnershipTransferRequested",
					"type": "event"
				},
				{
					"anonymous": false,
					"inputs": [
						{
							"indexed": true,
							"internalType": "address",
							"name": "from",
							"type": "address"
						},
						{
							"indexed": true,
							"internalType": "address",
							"name": "to",
							"type": "address"
						}
					],
					"name": "OwnershipTransferred",
					"type": "event"
				},
				{
					"anonymous": false,
					"inputs": [
						{
							"indexed": true,
							"internalType": "bytes32",
							"name": "requestId",
							"type": "bytes32"
						},
						{
							"indexed": false,
							"internalType": "uint256",
							"name": "volume",
							"type": "uint256"
						}
					],
					"name": "RequestVolume",
					"type": "event"
				},
				{
					"inputs": [],
					"name": "acceptOwnership",
					"outputs": [],
					"stateMutability": "nonpayable",
					"type": "function"
				},
				{
					"inputs": [
						{
							"internalType": "bytes32",
							"name": "_requestId",
							"type": "bytes32"
						},
						{
							"internalType": "uint256",
							"name": "_volume",
							"type": "uint256"
						}
					],
					"name": "fulfill",
					"outputs": [],
					"stateMutability": "nonpayable",
					"type": "function"
				},
				{
					"inputs": [],
					"name": "owner",
					"outputs": [
						{
							"internalType": "address",
							"name": "",
							"type": "address"
						}
					],
					"stateMutability": "view",
					"type": "function"
				},
				{
					"inputs": [],
					"name": "requestDelayInfo",
					"outputs": [
						{
							"internalType": "bytes32",
							"name": "requestId",
							"type": "bytes32"
						}
					],
					"stateMutability": "nonpayable",
					"type": "function"
				},
				{
					"inputs": [
						{
							"internalType": "address",
							"name": "to",
							"type": "address"
						}
					],
					"name": "transferOwnership",
					"outputs": [],
					"stateMutability": "nonpayable",
					"type": "function"
				},
				{
					"inputs": [],
					"name": "volume",
					"outputs": [
						{
							"internalType": "uint256",
							"name": "",
							"type": "uint256"
						}
					],
					"stateMutability": "view",
					"type": "function"
				}
			],
			"devdoc": {
				"kind": "dev",
				"methods": {},
				"version": 1
			},
			"evm": {
				"assembly": "    /* \"docs.chain.link/samples/APIRequests/TrainApp3.sol\":354:1569  contract DelayNFT is ChainlinkClient, ConfirmedOwner {... */\n  mstore(0x40, 0x80)\n    /* \"@chainlink/contracts/src/v0.8/ChainlinkClient.sol\":1482:1483  1 */\n  0x01\n    /* \"@chainlink/contracts/src/v0.8/ChainlinkClient.sol\":1449:1483  uint256 private s_requestCount = 1 */\n  0x04\n  sstore\n    /* \"docs.chain.link/samples/APIRequests/TrainApp3.sol\":606:939  constructor() ConfirmedOwner(msg.sender) {... */\n  callvalue\n  dup1\n  iszero\n  tag_1\n  jumpi\n  0x00\n  dup1\n  revert\ntag_1:\n  pop\n    /* \"docs.chain.link/samples/APIRequests/TrainApp3.sol\":635:645  msg.sender */\n  caller\n    /* \"@chainlink/contracts/src/v0.8/shared/access/ConfirmedOwner.sol\":355:363  newOwner */\n  dup1\n    /* \"@chainlink/contracts/src/v0.8/shared/access/ConfirmedOwner.sol\":373:374  0 */\n  0x00\n    /* \"@chainlink/contracts/src/v0.8/shared/access/ConfirmedOwnerWithProposal.sol\":618:619  0 */\n  dup1\n    /* \"@chainlink/contracts/src/v0.8/shared/access/ConfirmedOwnerWithProposal.sol\":598:620  newOwner != address(0) */\n  0xffffffffffffffffffffffffffffffffffffffff\n  and\n    /* \"@chainlink/contracts/src/v0.8/shared/access/ConfirmedOwnerWithProposal.sol\":598:606  newOwner */\n  dup3\n    /* \"@chainlink/contracts/src/v0.8/shared/access/ConfirmedOwnerWithProposal.sol\":598:620  newOwner != address(0) */\n  0xffffffffffffffffffffffffffffffffffffffff\n  and\n  sub\n    /* \"@chainlink/contracts/src/v0.8/shared/access/ConfirmedOwnerWithProposal.sol\":590:649  require(newOwner != address(0), \"Cannot set owner to zero\") */\n  tag_6\n  jumpi\n  mload(0x40)\n  0x08c379a000000000000000000000000000000000000000000000000000000000\n  dup2\n  mstore\n  0x04\n  add\n  tag_7\n  swap1\n  tag_8\n  jump\t// in\ntag_7:\n  mload(0x40)\n  dup1\n  swap2\n  sub\n  swap1\n  revert\ntag_6:\n    /* \"@chainlink/contracts/src/v0.8/shared/access/ConfirmedOwnerWithProposal.sol\":666:674  newOwner */\n  dup2\n    /* \"@chainlink/contracts/src/v0.8/shared/access/ConfirmedOwnerWithProposal.sol\":656:663  s_owner */\n  0x06\n  0x00\n    /* \"@chainlink/contracts/src/v0.8/shared/access/ConfirmedOwnerWithProposal.sol\":656:674  s_owner = newOwner */\n  0x0100\n  exp\n  dup2\n  sload\n  dup2\n  0xffffffffffffffffffffffffffffffffffffffff\n  mul\n  not\n  and\n  swap1\n  dup4\n  0xffffffffffffffffffffffffffffffffffffffff\n  and\n  mul\n  or\n  swap1\n  sstore\n  pop\n    /* \"@chainlink/contracts/src/v0.8/shared/access/ConfirmedOwnerWithProposal.sol\":708:709  0 */\n  0x00\n    /* \"@chainlink/contracts/src/v0.8/shared/access/ConfirmedOwnerWithProposal.sol\":684:710  pendingOwner != address(0) */\n  0xffffffffffffffffffffffffffffffffffffffff\n  and\n    /* \"@chainlink/contracts/src/v0.8/shared/access/ConfirmedOwnerWithProposal.sol\":684:696  pendingOwner */\n  dup2\n    /* \"@chainlink/contracts/src/v0.8/shared/access/ConfirmedOwnerWithProposal.sol\":684:710  pendingOwner != address(0) */\n  0xffffffffffffffffffffffffffffffffffffffff\n  and\n  eq\n    /* \"@chainlink/contracts/src/v0.8/shared/access/ConfirmedOwnerWithProposal.sol\":680:759  if (pendingOwner != address(0)) {... */\n  tag_9\n  jumpi\n    /* \"@chainlink/contracts/src/v0.8/shared/access/ConfirmedOwnerWithProposal.sol\":720:752  _transferOwnership(pendingOwner) */\n  tag_10\n    /* \"@chainlink/contracts/src/v0.8/shared/access/ConfirmedOwnerWithProposal.sol\":739:751  pendingOwner */\n  dup2\n    /* \"@chainlink/contracts/src/v0.8/shared/access/ConfirmedOwnerWithProposal.sol\":720:738  _transferOwnership */\n  shl(0x20, tag_11)\n    /* \"@chainlink/contracts/src/v0.8/shared/access/ConfirmedOwnerWithProposal.sol\":720:752  _transferOwnership(pendingOwner) */\n  0x20\n  shr\n  jump\t// in\ntag_10:\n    /* \"@chainlink/contracts/src/v0.8/shared/access/ConfirmedOwnerWithProposal.sol\":680:759  if (pendingOwner != address(0)) {... */\ntag_9:\n    /* \"@chainlink/contracts/src/v0.8/shared/access/ConfirmedOwnerWithProposal.sol\":481:763  constructor(address newOwner, address pendingOwner) {... */\n  pop\n  pop\n    /* \"@chainlink/contracts/src/v0.8/shared/access/ConfirmedOwner.sol\":298:379  constructor(address newOwner) ConfirmedOwnerWithProposal(newOwner, address(0)) {} */\n  pop\n    /* \"docs.chain.link/samples/APIRequests/TrainApp3.sol\":657:719  _setChainlinkToken(0x0b9d5D9136855f6FEc3c0993feE6E9CE8a297846) */\n  tag_14\n    /* \"docs.chain.link/samples/APIRequests/TrainApp3.sol\":676:718  0x0b9d5D9136855f6FEc3c0993feE6E9CE8a297846 */\n  0x0b9d5d9136855f6fec3c0993fee6e9ce8a297846\n    /* \"docs.chain.link/samples/APIRequests/TrainApp3.sol\":657:675  _setChainlinkToken */\n  shl(0x20, tag_15)\n    /* \"docs.chain.link/samples/APIRequests/TrainApp3.sol\":657:719  _setChainlinkToken(0x0b9d5D9136855f6FEc3c0993feE6E9CE8a297846) */\n  0x20\n  shr\n  jump\t// in\ntag_14:\n    /* \"docs.chain.link/samples/APIRequests/TrainApp3.sol\":729:792  _setChainlinkOracle(0x5Fc52901fe9D7a64044C248e417e989fa0332D08) */\n  tag_16\n    /* \"docs.chain.link/samples/APIRequests/TrainApp3.sol\":749:791  0x5Fc52901fe9D7a64044C248e417e989fa0332D08 */\n  0x5fc52901fe9d7a64044c248e417e989fa0332d08\n    /* \"docs.chain.link/samples/APIRequests/TrainApp3.sol\":729:748  _setChainlinkOracle */\n  shl(0x20, tag_17)\n    /* \"docs.chain.link/samples/APIRequests/TrainApp3.sol\":729:792  _setChainlinkOracle(0x5Fc52901fe9D7a64044C248e417e989fa0332D08) */\n  0x20\n  shr\n  jump\t// in\ntag_16:\n    /* \"docs.chain.link/samples/APIRequests/TrainApp3.sol\":802:844  jobId = \"bf79a01a5517402c90d2fab0bc497839\" */\n  0x6266373961303161353531373430326339306432666162306263343937383339\n    /* \"docs.chain.link/samples/APIRequests/TrainApp3.sol\":802:807  jobId */\n  0x09\n    /* \"docs.chain.link/samples/APIRequests/TrainApp3.sol\":802:844  jobId = \"bf79a01a5517402c90d2fab0bc497839\" */\n  dup2\n  swap1\n  sstore\n  pop\n    /* \"docs.chain.link/samples/APIRequests/TrainApp3.sol\":886:888  10 */\n  0x0a\n    /* \"@chainlink/contracts/src/v0.8/ChainlinkClient.sol\":864:872  10 ** 18 */\n  0x0de0b6b3a7640000\n    /* \"docs.chain.link/samples/APIRequests/TrainApp3.sol\":861:862  1 */\n  0x01\n    /* \"docs.chain.link/samples/APIRequests/TrainApp3.sol\":861:882  1 * LINK_DIVISIBILITY */\n  tag_18\n  swap2\n  swap1\n  tag_19\n  jump\t// in\ntag_18:\n    /* \"docs.chain.link/samples/APIRequests/TrainApp3.sol\":860:888  (1 * LINK_DIVISIBILITY) / 10 */\n  tag_20\n  swap2\n  swap1\n  tag_21\n  jump\t// in\ntag_20:\n    /* \"docs.chain.link/samples/APIRequests/TrainApp3.sol\":854:857  fee */\n  0x0a\n    /* \"docs.chain.link/samples/APIRequests/TrainApp3.sol\":854:888  fee = (1 * LINK_DIVISIBILITY) / 10 */\n  dup2\n  swap1\n  sstore\n  pop\n    /* \"docs.chain.link/samples/APIRequests/TrainApp3.sol\":354:1569  contract DelayNFT is ChainlinkClient, ConfirmedOwner {... */\n  jump(tag_22)\n    /* \"@chainlink/contracts/src/v0.8/shared/access/ConfirmedOwnerWithProposal.sol\":1536:1775  function _transferOwnership(address to) private {... */\ntag_11:\n    /* \"@chainlink/contracts/src/v0.8/shared/access/ConfirmedOwnerWithProposal.sol\":1655:1665  msg.sender */\n  caller\n    /* \"@chainlink/contracts/src/v0.8/shared/access/ConfirmedOwnerWithProposal.sol\":1649:1665  to != msg.sender */\n  0xffffffffffffffffffffffffffffffffffffffff\n  and\n    /* \"@chainlink/contracts/src/v0.8/shared/access/ConfirmedOwnerWithProposal.sol\":1649:1651  to */\n  dup2\n    /* \"@chainlink/contracts/src/v0.8/shared/access/ConfirmedOwnerWithProposal.sol\":1649:1665  to != msg.sender */\n  0xffffffffffffffffffffffffffffffffffffffff\n  and\n  sub\n    /* \"@chainlink/contracts/src/v0.8/shared/access/ConfirmedOwnerWithProposal.sol\":1641:1693  require(to != msg.sender, \"Cannot transfer to self\") */\n  tag_24\n  jumpi\n  mload(0x40)\n  0x08c379a000000000000000000000000000000000000000000000000000000000\n  dup2\n  mstore\n  0x04\n  add\n  tag_25\n  swap1\n  tag_26\n  jump\t// in\ntag_25:\n  mload(0x40)\n  dup1\n  swap2\n  sub\n  swap1\n  revert\ntag_24:\n    /* \"@chainlink/contracts/src/v0.8/shared/access/ConfirmedOwnerWithProposal.sol\":1717:1719  to */\n  dup1\n    /* \"@chainlink/contracts/src/v0.8/shared/access/ConfirmedOwnerWithProposal.sol\":1700:1714  s_pendingOwner */\n  0x07\n  0x00\n    /* \"@chainlink/contracts/src/v0.8/shared/access/ConfirmedOwnerWithProposal.sol\":1700:1719  s_pendingOwner = to */\n  0x0100\n  exp\n  dup2\n  sload\n  dup2\n  0xffffffffffffffffffffffffffffffffffffffff\n  mul\n  not\n  and\n  swap1\n  dup4\n  0xffffffffffffffffffffffffffffffffffffffff\n  and\n  mul\n  or\n  swap1\n  sstore\n  pop\n    /* \"@chainlink/contracts/src/v0.8/shared/access/ConfirmedOwnerWithProposal.sol\":1767:1769  to */\n  dup1\n    /* \"@chainlink/contracts/src/v0.8/shared/access/ConfirmedOwnerWithProposal.sol\":1731:1770  OwnershipTransferRequested(s_owner, to) */\n  0xffffffffffffffffffffffffffffffffffffffff\n  and\n    /* \"@chainlink/contracts/src/v0.8/shared/access/ConfirmedOwnerWithProposal.sol\":1758:1765  s_owner */\n  0x06\n  0x00\n  swap1\n  sload\n  swap1\n  0x0100\n  exp\n  swap1\n  div\n  0xffffffffffffffffffffffffffffffffffffffff\n  and\n    /* \"@chainlink/contracts/src/v0.8/shared/access/ConfirmedOwnerWithProposal.sol\":1731:1770  OwnershipTransferRequested(s_owner, to) */\n  0xffffffffffffffffffffffffffffffffffffffff\n  and\n  0xed8889f560326eb138920d842192f0eb3dd22b4f139c87a2c57538e05bae1278\n  mload(0x40)\n  mload(0x40)\n  dup1\n  swap2\n  sub\n  swap1\n  log3\n    /* \"@chainlink/contracts/src/v0.8/shared/access/ConfirmedOwnerWithProposal.sol\":1536:1775  function _transferOwnership(address to) private {... */\n  pop\n  jump\t// out\n    /* \"@chainlink/contracts/src/v0.8/ChainlinkClient.sol\":8849:8958  function _setChainlinkToken(address linkAddress) internal {... */\ntag_15:\n    /* \"@chainlink/contracts/src/v0.8/ChainlinkClient.sol\":8941:8952  linkAddress */\n  dup1\n    /* \"@chainlink/contracts/src/v0.8/ChainlinkClient.sol\":8913:8919  s_link */\n  0x02\n  0x00\n    /* \"@chainlink/contracts/src/v0.8/ChainlinkClient.sol\":8913:8953  s_link = LinkTokenInterface(linkAddress) */\n  0x0100\n  exp\n  dup2\n  sload\n  dup2\n  0xffffffffffffffffffffffffffffffffffffffff\n  mul\n  not\n  and\n  swap1\n  dup4\n  0xffffffffffffffffffffffffffffffffffffffff\n  and\n  mul\n  or\n  swap1\n  sstore\n  pop\n    /* \"@chainlink/contracts/src/v0.8/ChainlinkClient.sol\":8849:8958  function _setChainlinkToken(address linkAddress) internal {... */\n  pop\n  jump\t// out\n    /* \"@chainlink/contracts/src/v0.8/ChainlinkClient.sol\":8614:8729  function _setChainlinkOracle(address oracleAddress) internal {... */\ntag_17:\n    /* \"@chainlink/contracts/src/v0.8/ChainlinkClient.sol\":8710:8723  oracleAddress */\n  dup1\n    /* \"@chainlink/contracts/src/v0.8/ChainlinkClient.sol\":8681:8689  s_oracle */\n  0x03\n  0x00\n    /* \"@chainlink/contracts/src/v0.8/ChainlinkClient.sol\":8681:8724  s_oracle = OperatorInterface(oracleAddress) */\n  0x0100\n  exp\n  dup2\n  sload\n  dup2\n  0xffffffffffffffffffffffffffffffffffffffff\n  mul\n  not\n  and\n  swap1\n  dup4\n  0xffffffffffffffffffffffffffffffffffffffff\n  and\n  mul\n  or\n  swap1\n  sstore\n  pop\n    /* \"@chainlink/contracts/src/v0.8/ChainlinkClient.sol\":8614:8729  function _setChainlinkOracle(address oracleAddress) internal {... */\n  pop\n  jump\t// out\n    /* \"#utility.yul\":7:176   */\ntag_29:\n    /* \"#utility.yul\":91:102   */\n  0x00\n    /* \"#utility.yul\":125:131   */\n  dup3\n    /* \"#utility.yul\":120:123   */\n  dup3\n    /* \"#utility.yul\":113:132   */\n  mstore\n    /* \"#utility.yul\":165:169   */\n  0x20\n    /* \"#utility.yul\":160:163   */\n  dup3\n    /* \"#utility.yul\":156:170   */\n  add\n    /* \"#utility.yul\":141:170   */\n  swap1\n  pop\n    /* \"#utility.yul\":7:176   */\n  swap3\n  swap2\n  pop\n  pop\n  jump\t// out\n    /* \"#utility.yul\":182:356   */\ntag_30:\n    /* \"#utility.yul\":322:348   */\n  0x43616e6e6f7420736574206f776e657220746f207a65726f0000000000000000\n    /* \"#utility.yul\":318:319   */\n  0x00\n    /* \"#utility.yul\":310:316   */\n  dup3\n    /* \"#utility.yul\":306:320   */\n  add\n    /* \"#utility.yul\":299:349   */\n  mstore\n    /* \"#utility.yul\":182:356   */\n  pop\n  jump\t// out\n    /* \"#utility.yul\":362:728   */\ntag_31:\n    /* \"#utility.yul\":504:507   */\n  0x00\n    /* \"#utility.yul\":525:592   */\n  tag_41\n    /* \"#utility.yul\":589:591   */\n  0x18\n    /* \"#utility.yul\":584:587   */\n  dup4\n    /* \"#utility.yul\":525:592   */\n  tag_29\n  jump\t// in\ntag_41:\n    /* \"#utility.yul\":518:592   */\n  swap2\n  pop\n    /* \"#utility.yul\":601:694   */\n  tag_42\n    /* \"#utility.yul\":690:693   */\n  dup3\n    /* \"#utility.yul\":601:694   */\n  tag_30\n  jump\t// in\ntag_42:\n    /* \"#utility.yul\":719:721   */\n  0x20\n    /* \"#utility.yul\":714:717   */\n  dup3\n    /* \"#utility.yul\":710:722   */\n  add\n    /* \"#utility.yul\":703:722   */\n  swap1\n  pop\n    /* \"#utility.yul\":362:728   */\n  swap2\n  swap1\n  pop\n  jump\t// out\n    /* \"#utility.yul\":734:1153   */\ntag_8:\n    /* \"#utility.yul\":900:904   */\n  0x00\n    /* \"#utility.yul\":938:940   */\n  0x20\n    /* \"#utility.yul\":927:936   */\n  dup3\n    /* \"#utility.yul\":923:941   */\n  add\n    /* \"#utility.yul\":915:941   */\n  swap1\n  pop\n    /* \"#utility.yul\":987:996   */\n  dup2\n    /* \"#utility.yul\":981:985   */\n  dup2\n    /* \"#utility.yul\":977:997   */\n  sub\n    /* \"#utility.yul\":973:974   */\n  0x00\n    /* \"#utility.yul\":962:971   */\n  dup4\n    /* \"#utility.yul\":958:975   */\n  add\n    /* \"#utility.yul\":951:998   */\n  mstore\n    /* \"#utility.yul\":1015:1146   */\n  tag_44\n    /* \"#utility.yul\":1141:1145   */\n  dup2\n    /* \"#utility.yul\":1015:1146   */\n  tag_31\n  jump\t// in\ntag_44:\n    /* \"#utility.yul\":1007:1146   */\n  swap1\n  pop\n    /* \"#utility.yul\":734:1153   */\n  swap2\n  swap1\n  pop\n  jump\t// out\n    /* \"#utility.yul\":1159:1236   */\ntag_32:\n    /* \"#utility.yul\":1196:1203   */\n  0x00\n    /* \"#utility.yul\":1225:1230   */\n  dup2\n    /* \"#utility.yul\":1214:1230   */\n  swap1\n  pop\n    /* \"#utility.yul\":1159:1236   */\n  swap2\n  swap1\n  pop\n  jump\t// out\n    /* \"#utility.yul\":1242:1422   */\ntag_33:\n    /* \"#utility.yul\":1290:1367   */\n  0x4e487b7100000000000000000000000000000000000000000000000000000000\n    /* \"#utility.yul\":1287:1288   */\n  0x00\n    /* \"#utility.yul\":1280:1368   */\n  mstore\n    /* \"#utility.yul\":1387:1391   */\n  0x11\n    /* \"#utility.yul\":1384:1385   */\n  0x04\n    /* \"#utility.yul\":1377:1392   */\n  mstore\n    /* \"#utility.yul\":1411:1415   */\n  0x24\n    /* \"#utility.yul\":1408:1409   */\n  0x00\n    /* \"#utility.yul\":1401:1416   */\n  revert\n    /* \"#utility.yul\":1428:1838   */\ntag_19:\n    /* \"#utility.yul\":1468:1475   */\n  0x00\n    /* \"#utility.yul\":1491:1511   */\n  tag_48\n    /* \"#utility.yul\":1509:1510   */\n  dup3\n    /* \"#utility.yul\":1491:1511   */\n  tag_32\n  jump\t// in\ntag_48:\n    /* \"#utility.yul\":1486:1511   */\n  swap2\n  pop\n    /* \"#utility.yul\":1525:1545   */\n  tag_49\n    /* \"#utility.yul\":1543:1544   */\n  dup4\n    /* \"#utility.yul\":1525:1545   */\n  tag_32\n  jump\t// in\ntag_49:\n    /* \"#utility.yul\":1520:1545   */\n  swap3\n  pop\n    /* \"#utility.yul\":1580:1581   */\n  dup3\n    /* \"#utility.yul\":1577:1578   */\n  dup3\n    /* \"#utility.yul\":1573:1582   */\n  mul\n    /* \"#utility.yul\":1602:1632   */\n  tag_50\n    /* \"#utility.yul\":1620:1631   */\n  dup2\n    /* \"#utility.yul\":1602:1632   */\n  tag_32\n  jump\t// in\ntag_50:\n    /* \"#utility.yul\":1591:1632   */\n  swap2\n  pop\n    /* \"#utility.yul\":1781:1782   */\n  dup3\n    /* \"#utility.yul\":1772:1779   */\n  dup3\n    /* \"#utility.yul\":1768:1783   */\n  div\n    /* \"#utility.yul\":1765:1766   */\n  dup5\n    /* \"#utility.yul\":1762:1784   */\n  eq\n    /* \"#utility.yul\":1742:1743   */\n  dup4\n    /* \"#utility.yul\":1735:1744   */\n  iszero\n    /* \"#utility.yul\":1715:1798   */\n  or\n    /* \"#utility.yul\":1692:1831   */\n  tag_51\n  jumpi\n    /* \"#utility.yul\":1811:1829   */\n  tag_52\n  tag_33\n  jump\t// in\ntag_52:\n    /* \"#utility.yul\":1692:1831   */\ntag_51:\n    /* \"#utility.yul\":1476:1838   */\n  pop\n    /* \"#utility.yul\":1428:1838   */\n  swap3\n  swap2\n  pop\n  pop\n  jump\t// out\n    /* \"#utility.yul\":1844:2024   */\ntag_34:\n    /* \"#utility.yul\":1892:1969   */\n  0x4e487b7100000000000000000000000000000000000000000000000000000000\n    /* \"#utility.yul\":1889:1890   */\n  0x00\n    /* \"#utility.yul\":1882:1970   */\n  mstore\n    /* \"#utility.yul\":1989:1993   */\n  0x12\n    /* \"#utility.yul\":1986:1987   */\n  0x04\n    /* \"#utility.yul\":1979:1994   */\n  mstore\n    /* \"#utility.yul\":2013:2017   */\n  0x24\n    /* \"#utility.yul\":2010:2011   */\n  0x00\n    /* \"#utility.yul\":2003:2018   */\n  revert\n    /* \"#utility.yul\":2030:2215   */\ntag_21:\n    /* \"#utility.yul\":2070:2071   */\n  0x00\n    /* \"#utility.yul\":2087:2107   */\n  tag_55\n    /* \"#utility.yul\":2105:2106   */\n  dup3\n    /* \"#utility.yul\":2087:2107   */\n  tag_32\n  jump\t// in\ntag_55:\n    /* \"#utility.yul\":2082:2107   */\n  swap2\n  pop\n    /* \"#utility.yul\":2121:2141   */\n  tag_56\n    /* \"#utility.yul\":2139:2140   */\n  dup4\n    /* \"#utility.yul\":2121:2141   */\n  tag_32\n  jump\t// in\ntag_56:\n    /* \"#utility.yul\":2116:2141   */\n  swap3\n  pop\n    /* \"#utility.yul\":2160:2161   */\n  dup3\n    /* \"#utility.yul\":2150:2185   */\n  tag_57\n  jumpi\n    /* \"#utility.yul\":2165:2183   */\n  tag_58\n  tag_34\n  jump\t// in\ntag_58:\n    /* \"#utility.yul\":2150:2185   */\ntag_57:\n    /* \"#utility.yul\":2207:2208   */\n  dup3\n    /* \"#utility.yul\":2204:2205   */\n  dup3\n    /* \"#utility.yul\":2200:2209   */\n  div\n    /* \"#utility.yul\":2195:2209   */\n  swap1\n  pop\n    /* \"#utility.yul\":2030:2215   */\n  swap3\n  swap2\n  pop\n  pop\n  jump\t// out\n    /* \"#utility.yul\":2221:2394   */\ntag_35:\n    /* \"#utility.yul\":2361:2386   */\n  0x43616e6e6f74207472616e7366657220746f2073656c66000000000000000000\n    /* \"#utility.yul\":2357:2358   */\n  0x00\n    /* \"#utility.yul\":2349:2355   */\n  dup3\n    /* \"#utility.yul\":2345:2359   */\n  add\n    /* \"#utility.yul\":2338:2387   */\n  mstore\n    /* \"#utility.yul\":2221:2394   */\n  pop\n  jump\t// out\n    /* \"#utility.yul\":2400:2766   */\ntag_36:\n    /* \"#utility.yul\":2542:2545   */\n  0x00\n    /* \"#utility.yul\":2563:2630   */\n  tag_61\n    /* \"#utility.yul\":2627:2629   */\n  0x17\n    /* \"#utility.yul\":2622:2625   */\n  dup4\n    /* \"#utility.yul\":2563:2630   */\n  tag_29\n  jump\t// in\ntag_61:\n    /* \"#utility.yul\":2556:2630   */\n  swap2\n  pop\n    /* \"#utility.yul\":2639:2732   */\n  tag_62\n    /* \"#utility.yul\":2728:2731   */\n  dup3\n    /* \"#utility.yul\":2639:2732   */\n  tag_35\n  jump\t// in\ntag_62:\n    /* \"#utility.yul\":2757:2759   */\n  0x20\n    /* \"#utility.yul\":2752:2755   */\n  dup3\n    /* \"#utility.yul\":2748:2760   */\n  add\n    /* \"#utility.yul\":2741:2760   */\n  swap1\n  pop\n    /* \"#utility.yul\":2400:2766   */\n  swap2\n  swap1\n  pop\n  jump\t// out\n    /* \"#utility.yul\":2772:3191   */\ntag_26:\n    /* \"#utility.yul\":2938:2942   */\n  0x00\n    /* \"#utility.yul\":2976:2978   */\n  0x20\n    /* \"#utility.yul\":2965:2974   */\n  dup3\n    /* \"#utility.yul\":2961:2979   */\n  add\n    /* \"#utility.yul\":2953:2979   */\n  swap1\n  pop\n    /* \"#utility.yul\":3025:3034   */\n  dup2\n    /* \"#utility.yul\":3019:3023   */\n  dup2\n    /* \"#utility.yul\":3015:3035   */\n  sub\n    /* \"#utility.yul\":3011:3012   */\n  0x00\n    /* \"#utility.yul\":3000:3009   */\n  dup4\n    /* \"#utility.yul\":2996:3013   */\n  add\n    /* \"#utility.yul\":2989:3036   */\n  mstore\n    /* \"#utility.yul\":3053:3184   */\n  tag_64\n    /* \"#utility.yul\":3179:3183   */\n  dup2\n    /* \"#utility.yul\":3053:3184   */\n  tag_36\n  jump\t// in\ntag_64:\n    /* \"#utility.yul\":3045:3184   */\n  swap1\n  pop\n    /* \"#utility.yul\":2772:3191   */\n  swap2\n  swap1\n  pop\n  jump\t// out\n    /* \"docs.chain.link/samples/APIRequests/TrainApp3.sol\":354:1569  contract DelayNFT is ChainlinkClient, ConfirmedOwner {... */\ntag_22:\n  dataSize(sub_0)\n  dup1\n  dataOffset(sub_0)\n  0x00\n  codecopy\n  0x00\n  return\nstop\n\nsub_0: assembly {\n        /* \"docs.chain.link/samples/APIRequests/TrainApp3.sol\":354:1569  contract DelayNFT is ChainlinkClient, ConfirmedOwner {... */\n      mstore(0x40, 0x80)\n      callvalue\n      dup1\n      iszero\n      tag_1\n      jumpi\n      0x00\n      dup1\n      revert\n    tag_1:\n      pop\n      jumpi(tag_2, lt(calldatasize, 0x04))\n      shr(0xe0, calldataload(0x00))\n      dup1\n      0x4357855e\n      eq\n      tag_3\n      jumpi\n      dup1\n      0x79ba5097\n      eq\n      tag_4\n      jumpi\n      dup1\n      0x8da5cb5b\n      eq\n      tag_5\n      jumpi\n      dup1\n      0xc618a1e4\n      eq\n      tag_6\n      jumpi\n      dup1\n      0xf2fde38b\n      eq\n      tag_7\n      jumpi\n      dup1\n      0xf5e52916\n      eq\n      tag_8\n      jumpi\n    tag_2:\n      0x00\n      dup1\n      revert\n        /* \"docs.chain.link/samples/APIRequests/TrainApp3.sol\":1362:1566  function fulfill(... */\n    tag_3:\n      tag_9\n      0x04\n      dup1\n      calldatasize\n      sub\n      dup2\n      add\n      swap1\n      tag_10\n      swap2\n      swap1\n      tag_11\n      jump\t// in\n    tag_10:\n      tag_12\n      jump\t// in\n    tag_9:\n      stop\n        /* \"@chainlink/contracts/src/v0.8/shared/access/ConfirmedOwnerWithProposal.sol\":1026:1342  function acceptOwnership() external override {... */\n    tag_4:\n      tag_13\n      tag_14\n      jump\t// in\n    tag_13:\n      stop\n        /* \"@chainlink/contracts/src/v0.8/shared/access/ConfirmedOwnerWithProposal.sol\":1382:1463  function owner() public view override returns (address) {... */\n    tag_5:\n      tag_15\n      tag_16\n      jump\t// in\n    tag_15:\n      mload(0x40)\n      tag_17\n      swap2\n      swap1\n      tag_18\n      jump\t// in\n    tag_17:\n      mload(0x40)\n      dup1\n      swap2\n      sub\n      swap1\n      return\n        /* \"docs.chain.link/samples/APIRequests/TrainApp3.sol\":457:478  uint256 public volume */\n    tag_6:\n      tag_19\n      tag_20\n      jump\t// in\n    tag_19:\n      mload(0x40)\n      tag_21\n      swap2\n      swap1\n      tag_22\n      jump\t// in\n    tag_21:\n      mload(0x40)\n      dup1\n      swap2\n      sub\n      swap1\n      return\n        /* \"@chainlink/contracts/src/v0.8/shared/access/ConfirmedOwnerWithProposal.sol\":847:945  function transferOwnership(address to) public override onlyOwner {... */\n    tag_7:\n      tag_23\n      0x04\n      dup1\n      calldatasize\n      sub\n      dup2\n      add\n      swap1\n      tag_24\n      swap2\n      swap1\n      tag_25\n      jump\t// in\n    tag_24:\n      tag_26\n      jump\t// in\n    tag_23:\n      stop\n        /* \"docs.chain.link/samples/APIRequests/TrainApp3.sol\":945:1356  function requestDelayInfo() public returns (bytes32 requestId) {... */\n    tag_8:\n      tag_27\n      tag_28\n      jump\t// in\n    tag_27:\n      mload(0x40)\n      tag_29\n      swap2\n      swap1\n      tag_30\n      jump\t// in\n    tag_29:\n      mload(0x40)\n      dup1\n      swap2\n      sub\n      swap1\n      return\n        /* \"docs.chain.link/samples/APIRequests/TrainApp3.sol\":1362:1566  function fulfill(... */\n    tag_12:\n        /* \"docs.chain.link/samples/APIRequests/TrainApp3.sol\":1472:1482  _requestId */\n      dup2\n        /* \"@chainlink/contracts/src/v0.8/ChainlinkClient.sol\":11913:11930  s_pendingRequests */\n      0x05\n        /* \"@chainlink/contracts/src/v0.8/ChainlinkClient.sol\":11913:11941  s_pendingRequests[requestId] */\n      0x00\n        /* \"@chainlink/contracts/src/v0.8/ChainlinkClient.sol\":11931:11940  requestId */\n      dup3\n        /* \"@chainlink/contracts/src/v0.8/ChainlinkClient.sol\":11913:11941  s_pendingRequests[requestId] */\n      dup2\n      mstore\n      0x20\n      add\n      swap1\n      dup2\n      mstore\n      0x20\n      add\n      0x00\n      keccak256\n      0x00\n      swap1\n      sload\n      swap1\n      0x0100\n      exp\n      swap1\n      div\n      0xffffffffffffffffffffffffffffffffffffffff\n      and\n        /* \"@chainlink/contracts/src/v0.8/ChainlinkClient.sol\":11899:11941  msg.sender == s_pendingRequests[requestId] */\n      0xffffffffffffffffffffffffffffffffffffffff\n      and\n        /* \"@chainlink/contracts/src/v0.8/ChainlinkClient.sol\":11899:11909  msg.sender */\n      caller\n        /* \"@chainlink/contracts/src/v0.8/ChainlinkClient.sol\":11899:11941  msg.sender == s_pendingRequests[requestId] */\n      0xffffffffffffffffffffffffffffffffffffffff\n      and\n      eq\n        /* \"@chainlink/contracts/src/v0.8/ChainlinkClient.sol\":11891:11986  require(msg.sender == s_pendingRequests[requestId], \"Source must be the oracle of the request\") */\n      tag_32\n      jumpi\n      mload(0x40)\n      0x08c379a000000000000000000000000000000000000000000000000000000000\n      dup2\n      mstore\n      0x04\n      add\n      tag_33\n      swap1\n      tag_34\n      jump\t// in\n    tag_33:\n      mload(0x40)\n      dup1\n      swap2\n      sub\n      swap1\n      revert\n    tag_32:\n        /* \"@chainlink/contracts/src/v0.8/ChainlinkClient.sol\":11999:12016  s_pendingRequests */\n      0x05\n        /* \"@chainlink/contracts/src/v0.8/ChainlinkClient.sol\":11999:12027  s_pendingRequests[requestId] */\n      0x00\n        /* \"@chainlink/contracts/src/v0.8/ChainlinkClient.sol\":12017:12026  requestId */\n      dup3\n        /* \"@chainlink/contracts/src/v0.8/ChainlinkClient.sol\":11999:12027  s_pendingRequests[requestId] */\n      dup2\n      mstore\n      0x20\n      add\n      swap1\n      dup2\n      mstore\n      0x20\n      add\n      0x00\n      keccak256\n      0x00\n        /* \"@chainlink/contracts/src/v0.8/ChainlinkClient.sol\":11992:12027  delete s_pendingRequests[requestId] */\n      0x0100\n      exp\n      dup2\n      sload\n      swap1\n      0xffffffffffffffffffffffffffffffffffffffff\n      mul\n      not\n      and\n      swap1\n      sstore\n        /* \"@chainlink/contracts/src/v0.8/ChainlinkClient.sol\":12057:12066  requestId */\n      dup1\n        /* \"@chainlink/contracts/src/v0.8/ChainlinkClient.sol\":12038:12067  ChainlinkFulfilled(requestId) */\n      0x7cc135e0cebb02c3480ae5d74d377283180a2601f8f644edf7987b009316c63a\n      mload(0x40)\n      mload(0x40)\n      dup1\n      swap2\n      sub\n      swap1\n      log2\n        /* \"docs.chain.link/samples/APIRequests/TrainApp3.sol\":1513:1523  _requestId */\n      dup3\n        /* \"docs.chain.link/samples/APIRequests/TrainApp3.sol\":1499:1533  RequestVolume(_requestId, _volume) */\n      0x673b38182859a514d734bdfcb49d3a05c4a641dec9311d9894c9717bcb79af76\n        /* \"docs.chain.link/samples/APIRequests/TrainApp3.sol\":1525:1532  _volume */\n      dup4\n        /* \"docs.chain.link/samples/APIRequests/TrainApp3.sol\":1499:1533  RequestVolume(_requestId, _volume) */\n      mload(0x40)\n      tag_36\n      swap2\n      swap1\n      tag_22\n      jump\t// in\n    tag_36:\n      mload(0x40)\n      dup1\n      swap2\n      sub\n      swap1\n      log2\n        /* \"docs.chain.link/samples/APIRequests/TrainApp3.sol\":1552:1559  _volume */\n      dup2\n        /* \"docs.chain.link/samples/APIRequests/TrainApp3.sol\":1543:1549  volume */\n      0x08\n        /* \"docs.chain.link/samples/APIRequests/TrainApp3.sol\":1543:1559  volume = _volume */\n      dup2\n      swap1\n      sstore\n      pop\n        /* \"docs.chain.link/samples/APIRequests/TrainApp3.sol\":1362:1566  function fulfill(... */\n      pop\n      pop\n      pop\n      jump\t// out\n        /* \"@chainlink/contracts/src/v0.8/shared/access/ConfirmedOwnerWithProposal.sol\":1026:1342  function acceptOwnership() external override {... */\n    tag_14:\n        /* \"@chainlink/contracts/src/v0.8/shared/access/ConfirmedOwnerWithProposal.sol\":1150:1164  s_pendingOwner */\n      0x07\n      0x00\n      swap1\n      sload\n      swap1\n      0x0100\n      exp\n      swap1\n      div\n      0xffffffffffffffffffffffffffffffffffffffff\n      and\n        /* \"@chainlink/contracts/src/v0.8/shared/access/ConfirmedOwnerWithProposal.sol\":1136:1164  msg.sender == s_pendingOwner */\n      0xffffffffffffffffffffffffffffffffffffffff\n      and\n        /* \"@chainlink/contracts/src/v0.8/shared/access/ConfirmedOwnerWithProposal.sol\":1136:1146  msg.sender */\n      caller\n        /* \"@chainlink/contracts/src/v0.8/shared/access/ConfirmedOwnerWithProposal.sol\":1136:1164  msg.sender == s_pendingOwner */\n      0xffffffffffffffffffffffffffffffffffffffff\n      and\n      eq\n        /* \"@chainlink/contracts/src/v0.8/shared/access/ConfirmedOwnerWithProposal.sol\":1128:1191  require(msg.sender == s_pendingOwner, \"Must be proposed owner\") */\n      tag_38\n      jumpi\n      mload(0x40)\n      0x08c379a000000000000000000000000000000000000000000000000000000000\n      dup2\n      mstore\n      0x04\n      add\n      tag_39\n      swap1\n      tag_40\n      jump\t// in\n    tag_39:\n      mload(0x40)\n      dup1\n      swap2\n      sub\n      swap1\n      revert\n    tag_38:\n        /* \"@chainlink/contracts/src/v0.8/shared/access/ConfirmedOwnerWithProposal.sol\":1198:1214  address oldOwner */\n      0x00\n        /* \"@chainlink/contracts/src/v0.8/shared/access/ConfirmedOwnerWithProposal.sol\":1217:1224  s_owner */\n      0x06\n      0x00\n      swap1\n      sload\n      swap1\n      0x0100\n      exp\n      swap1\n      div\n      0xffffffffffffffffffffffffffffffffffffffff\n      and\n        /* \"@chainlink/contracts/src/v0.8/shared/access/ConfirmedOwnerWithProposal.sol\":1198:1224  address oldOwner = s_owner */\n      swap1\n      pop\n        /* \"@chainlink/contracts/src/v0.8/shared/access/ConfirmedOwnerWithProposal.sol\":1240:1250  msg.sender */\n      caller\n        /* \"@chainlink/contracts/src/v0.8/shared/access/ConfirmedOwnerWithProposal.sol\":1230:1237  s_owner */\n      0x06\n      0x00\n        /* \"@chainlink/contracts/src/v0.8/shared/access/ConfirmedOwnerWithProposal.sol\":1230:1250  s_owner = msg.sender */\n      0x0100\n      exp\n      dup2\n      sload\n      dup2\n      0xffffffffffffffffffffffffffffffffffffffff\n      mul\n      not\n      and\n      swap1\n      dup4\n      0xffffffffffffffffffffffffffffffffffffffff\n      and\n      mul\n      or\n      swap1\n      sstore\n      pop\n        /* \"@chainlink/contracts/src/v0.8/shared/access/ConfirmedOwnerWithProposal.sol\":1281:1282  0 */\n      0x00\n        /* \"@chainlink/contracts/src/v0.8/shared/access/ConfirmedOwnerWithProposal.sol\":1256:1270  s_pendingOwner */\n      0x07\n      0x00\n        /* \"@chainlink/contracts/src/v0.8/shared/access/ConfirmedOwnerWithProposal.sol\":1256:1283  s_pendingOwner = address(0) */\n      0x0100\n      exp\n      dup2\n      sload\n      dup2\n      0xffffffffffffffffffffffffffffffffffffffff\n      mul\n      not\n      and\n      swap1\n      dup4\n      0xffffffffffffffffffffffffffffffffffffffff\n      and\n      mul\n      or\n      swap1\n      sstore\n      pop\n        /* \"@chainlink/contracts/src/v0.8/shared/access/ConfirmedOwnerWithProposal.sol\":1326:1336  msg.sender */\n      caller\n        /* \"@chainlink/contracts/src/v0.8/shared/access/ConfirmedOwnerWithProposal.sol\":1295:1337  OwnershipTransferred(oldOwner, msg.sender) */\n      0xffffffffffffffffffffffffffffffffffffffff\n      and\n        /* \"@chainlink/contracts/src/v0.8/shared/access/ConfirmedOwnerWithProposal.sol\":1316:1324  oldOwner */\n      dup2\n        /* \"@chainlink/contracts/src/v0.8/shared/access/ConfirmedOwnerWithProposal.sol\":1295:1337  OwnershipTransferred(oldOwner, msg.sender) */\n      0xffffffffffffffffffffffffffffffffffffffff\n      and\n      0x8be0079c531659141344cd1fd0a4f28419497f9722a3daafe3b4186f6b6457e0\n      mload(0x40)\n      mload(0x40)\n      dup1\n      swap2\n      sub\n      swap1\n      log3\n        /* \"@chainlink/contracts/src/v0.8/shared/access/ConfirmedOwnerWithProposal.sol\":1071:1342  {... */\n      pop\n        /* \"@chainlink/contracts/src/v0.8/shared/access/ConfirmedOwnerWithProposal.sol\":1026:1342  function acceptOwnership() external override {... */\n      jump\t// out\n        /* \"@chainlink/contracts/src/v0.8/shared/access/ConfirmedOwnerWithProposal.sol\":1382:1463  function owner() public view override returns (address) {... */\n    tag_16:\n        /* \"@chainlink/contracts/src/v0.8/shared/access/ConfirmedOwnerWithProposal.sol\":1429:1436  address */\n      0x00\n        /* \"@chainlink/contracts/src/v0.8/shared/access/ConfirmedOwnerWithProposal.sol\":1451:1458  s_owner */\n      0x06\n      0x00\n      swap1\n      sload\n      swap1\n      0x0100\n      exp\n      swap1\n      div\n      0xffffffffffffffffffffffffffffffffffffffff\n      and\n        /* \"@chainlink/contracts/src/v0.8/shared/access/ConfirmedOwnerWithProposal.sol\":1444:1458  return s_owner */\n      swap1\n      pop\n        /* \"@chainlink/contracts/src/v0.8/shared/access/ConfirmedOwnerWithProposal.sol\":1382:1463  function owner() public view override returns (address) {... */\n      swap1\n      jump\t// out\n        /* \"docs.chain.link/samples/APIRequests/TrainApp3.sol\":457:478  uint256 public volume */\n    tag_20:\n      sload(0x08)\n      dup2\n      jump\t// out\n        /* \"@chainlink/contracts/src/v0.8/shared/access/ConfirmedOwnerWithProposal.sol\":847:945  function transferOwnership(address to) public override onlyOwner {... */\n    tag_26:\n        /* \"@chainlink/contracts/src/v0.8/shared/access/ConfirmedOwnerWithProposal.sol\":2075:2095  _validateOwnership() */\n      tag_43\n        /* \"@chainlink/contracts/src/v0.8/shared/access/ConfirmedOwnerWithProposal.sol\":2075:2093  _validateOwnership */\n      tag_44\n        /* \"@chainlink/contracts/src/v0.8/shared/access/ConfirmedOwnerWithProposal.sol\":2075:2095  _validateOwnership() */\n      jump\t// in\n    tag_43:\n        /* \"@chainlink/contracts/src/v0.8/shared/access/ConfirmedOwnerWithProposal.sol\":918:940  _transferOwnership(to) */\n      tag_46\n        /* \"@chainlink/contracts/src/v0.8/shared/access/ConfirmedOwnerWithProposal.sol\":937:939  to */\n      dup2\n        /* \"@chainlink/contracts/src/v0.8/shared/access/ConfirmedOwnerWithProposal.sol\":918:936  _transferOwnership */\n      tag_47\n        /* \"@chainlink/contracts/src/v0.8/shared/access/ConfirmedOwnerWithProposal.sol\":918:940  _transferOwnership(to) */\n      jump\t// in\n    tag_46:\n        /* \"@chainlink/contracts/src/v0.8/shared/access/ConfirmedOwnerWithProposal.sol\":847:945  function transferOwnership(address to) public override onlyOwner {... */\n      pop\n      jump\t// out\n        /* \"docs.chain.link/samples/APIRequests/TrainApp3.sol\":945:1356  function requestDelayInfo() public returns (bytes32 requestId) {... */\n    tag_28:\n        /* \"docs.chain.link/samples/APIRequests/TrainApp3.sol\":989:1006  bytes32 requestId */\n      0x00\n        /* \"docs.chain.link/samples/APIRequests/TrainApp3.sol\":1018:1046  Chainlink.Request memory req */\n      dup1\n        /* \"docs.chain.link/samples/APIRequests/TrainApp3.sol\":1049:1162  _buildChainlinkRequest(... */\n      tag_49\n        /* \"docs.chain.link/samples/APIRequests/TrainApp3.sol\":1085:1090  jobId */\n      sload(0x09)\n        /* \"docs.chain.link/samples/APIRequests/TrainApp3.sol\":1112:1116  this */\n      address\n        /* \"docs.chain.link/samples/APIRequests/TrainApp3.sol\":1131:1152  this.fulfill.selector */\n      shl(0xe0, 0x4357855e)\n        /* \"docs.chain.link/samples/APIRequests/TrainApp3.sol\":1049:1071  _buildChainlinkRequest */\n      tag_50\n        /* \"docs.chain.link/samples/APIRequests/TrainApp3.sol\":1049:1162  _buildChainlinkRequest(... */\n      jump\t// in\n    tag_49:\n        /* \"docs.chain.link/samples/APIRequests/TrainApp3.sol\":1018:1162  Chainlink.Request memory req = _buildChainlinkRequest(... */\n      swap1\n      pop\n        /* \"docs.chain.link/samples/APIRequests/TrainApp3.sol\":1173:1243  req._add(\"get\",\"http://host.docker.internal:3000/modified-train-info\") */\n      tag_51\n      mload(0x40)\n      dup1\n      0x40\n      add\n      0x40\n      mstore\n      dup1\n      0x03\n      dup2\n      mstore\n      0x20\n      add\n      0x6765740000000000000000000000000000000000000000000000000000000000\n      dup2\n      mstore\n      pop\n      mload(0x40)\n      dup1\n      0x60\n      add\n      0x40\n      mstore\n      dup1\n      0x34\n      dup2\n      mstore\n      0x20\n      add\n      data_e40f56f7fa1aa05a509887d91f86ee0b3ba47821e3c25328913bff9d8f16041c\n      0x34\n      swap2\n      codecopy\n        /* \"docs.chain.link/samples/APIRequests/TrainApp3.sol\":1173:1176  req */\n      dup4\n        /* \"docs.chain.link/samples/APIRequests/TrainApp3.sol\":1173:1181  req._add */\n      tag_52\n      swap1\n        /* \"docs.chain.link/samples/APIRequests/TrainApp3.sol\":1173:1243  req._add(\"get\",\"http://host.docker.internal:3000/modified-train-info\") */\n      swap3\n      swap2\n      swap1\n      0xffffffff\n      and\n      jump\t// in\n    tag_51:\n        /* \"docs.chain.link/samples/APIRequests/TrainApp3.sol\":1253:1300  req._add(\"path\", \"0,odpt:trainInformationText\") */\n      tag_53\n      mload(0x40)\n      dup1\n      0x40\n      add\n      0x40\n      mstore\n      dup1\n      0x04\n      dup2\n      mstore\n      0x20\n      add\n      0x7061746800000000000000000000000000000000000000000000000000000000\n      dup2\n      mstore\n      pop\n      mload(0x40)\n      dup1\n      0x40\n      add\n      0x40\n      mstore\n      dup1\n      0x1b\n      dup2\n      mstore\n      0x20\n      add\n      0x302c6f6470743a747261696e496e666f726d6174696f6e546578740000000000\n      dup2\n      mstore\n      pop\n        /* \"docs.chain.link/samples/APIRequests/TrainApp3.sol\":1253:1256  req */\n      dup4\n        /* \"docs.chain.link/samples/APIRequests/TrainApp3.sol\":1253:1261  req._add */\n      tag_52\n      swap1\n        /* \"docs.chain.link/samples/APIRequests/TrainApp3.sol\":1253:1300  req._add(\"path\", \"0,odpt:trainInformationText\") */\n      swap3\n      swap2\n      swap1\n      0xffffffff\n      and\n      jump\t// in\n    tag_53:\n        /* \"docs.chain.link/samples/APIRequests/TrainApp3.sol\":1318:1349  _sendChainlinkRequest(req, fee) */\n      tag_54\n        /* \"docs.chain.link/samples/APIRequests/TrainApp3.sol\":1340:1343  req */\n      dup2\n        /* \"docs.chain.link/samples/APIRequests/TrainApp3.sol\":1345:1348  fee */\n      sload(0x0a)\n        /* \"docs.chain.link/samples/APIRequests/TrainApp3.sol\":1318:1339  _sendChainlinkRequest */\n      tag_55\n        /* \"docs.chain.link/samples/APIRequests/TrainApp3.sol\":1318:1349  _sendChainlinkRequest(req, fee) */\n      jump\t// in\n    tag_54:\n        /* \"docs.chain.link/samples/APIRequests/TrainApp3.sol\":1311:1349  return _sendChainlinkRequest(req, fee) */\n      swap2\n      pop\n      pop\n        /* \"docs.chain.link/samples/APIRequests/TrainApp3.sol\":945:1356  function requestDelayInfo() public returns (bytes32 requestId) {... */\n      swap1\n      jump\t// out\n        /* \"@chainlink/contracts/src/v0.8/shared/access/ConfirmedOwnerWithProposal.sol\":1809:1971  function _validateOwnership() internal view {... */\n    tag_44:\n        /* \"@chainlink/contracts/src/v0.8/shared/access/ConfirmedOwnerWithProposal.sol\":1932:1939  s_owner */\n      0x06\n      0x00\n      swap1\n      sload\n      swap1\n      0x0100\n      exp\n      swap1\n      div\n      0xffffffffffffffffffffffffffffffffffffffff\n      and\n        /* \"@chainlink/contracts/src/v0.8/shared/access/ConfirmedOwnerWithProposal.sol\":1918:1939  msg.sender == s_owner */\n      0xffffffffffffffffffffffffffffffffffffffff\n      and\n        /* \"@chainlink/contracts/src/v0.8/shared/access/ConfirmedOwnerWithProposal.sol\":1918:1928  msg.sender */\n      caller\n        /* \"@chainlink/contracts/src/v0.8/shared/access/ConfirmedOwnerWithProposal.sol\":1918:1939  msg.sender == s_owner */\n      0xffffffffffffffffffffffffffffffffffffffff\n      and\n      eq\n        /* \"@chainlink/contracts/src/v0.8/shared/access/ConfirmedOwnerWithProposal.sol\":1910:1966  require(msg.sender == s_owner, \"Only callable by owner\") */\n      tag_57\n      jumpi\n      mload(0x40)\n      0x08c379a000000000000000000000000000000000000000000000000000000000\n      dup2\n      mstore\n      0x04\n      add\n      tag_58\n      swap1\n      tag_59\n      jump\t// in\n    tag_58:\n      mload(0x40)\n      dup1\n      swap2\n      sub\n      swap1\n      revert\n    tag_57:\n        /* \"@chainlink/contracts/src/v0.8/shared/access/ConfirmedOwnerWithProposal.sol\":1809:1971  function _validateOwnership() internal view {... */\n      jump\t// out\n        /* \"@chainlink/contracts/src/v0.8/shared/access/ConfirmedOwnerWithProposal.sol\":1536:1775  function _transferOwnership(address to) private {... */\n    tag_47:\n        /* \"@chainlink/contracts/src/v0.8/shared/access/ConfirmedOwnerWithProposal.sol\":1655:1665  msg.sender */\n      caller\n        /* \"@chainlink/contracts/src/v0.8/shared/access/ConfirmedOwnerWithProposal.sol\":1649:1665  to != msg.sender */\n      0xffffffffffffffffffffffffffffffffffffffff\n      and\n        /* \"@chainlink/contracts/src/v0.8/shared/access/ConfirmedOwnerWithProposal.sol\":1649:1651  to */\n      dup2\n        /* \"@chainlink/contracts/src/v0.8/shared/access/ConfirmedOwnerWithProposal.sol\":1649:1665  to != msg.sender */\n      0xffffffffffffffffffffffffffffffffffffffff\n      and\n      sub\n        /* \"@chainlink/contracts/src/v0.8/shared/access/ConfirmedOwnerWithProposal.sol\":1641:1693  require(to != msg.sender, \"Cannot transfer to self\") */\n      tag_61\n      jumpi\n      mload(0x40)\n      0x08c379a000000000000000000000000000000000000000000000000000000000\n      dup2\n      mstore\n      0x04\n      add\n      tag_62\n      swap1\n      tag_63\n      jump\t// in\n    tag_62:\n      mload(0x40)\n      dup1\n      swap2\n      sub\n      swap1\n      revert\n    tag_61:\n        /* \"@chainlink/contracts/src/v0.8/shared/access/ConfirmedOwnerWithProposal.sol\":1717:1719  to */\n      dup1\n        /* \"@chainlink/contracts/src/v0.8/shared/access/ConfirmedOwnerWithProposal.sol\":1700:1714  s_pendingOwner */\n      0x07\n      0x00\n        /* \"@chainlink/contracts/src/v0.8/shared/access/ConfirmedOwnerWithProposal.sol\":1700:1719  s_pendingOwner = to */\n      0x0100\n      exp\n      dup2\n      sload\n      dup2\n      0xffffffffffffffffffffffffffffffffffffffff\n      mul\n      not\n      and\n      swap1\n      dup4\n      0xffffffffffffffffffffffffffffffffffffffff\n      and\n      mul\n      or\n      swap1\n      sstore\n      pop\n        /* \"@chainlink/contracts/src/v0.8/shared/access/ConfirmedOwnerWithProposal.sol\":1767:1769  to */\n      dup1\n        /* \"@chainlink/contracts/src/v0.8/shared/access/ConfirmedOwnerWithProposal.sol\":1731:1770  OwnershipTransferRequested(s_owner, to) */\n      0xffffffffffffffffffffffffffffffffffffffff\n      and\n        /* \"@chainlink/contracts/src/v0.8/shared/access/ConfirmedOwnerWithProposal.sol\":1758:1765  s_owner */\n      0x06\n      0x00\n      swap1\n      sload\n      swap1\n      0x0100\n      exp\n      swap1\n      div\n      0xffffffffffffffffffffffffffffffffffffffff\n      and\n        /* \"@chainlink/contracts/src/v0.8/shared/access/ConfirmedOwnerWithProposal.sol\":1731:1770  OwnershipTransferRequested(s_owner, to) */\n      0xffffffffffffffffffffffffffffffffffffffff\n      and\n      0xed8889f560326eb138920d842192f0eb3dd22b4f139c87a2c57538e05bae1278\n      mload(0x40)\n      mload(0x40)\n      dup1\n      swap2\n      sub\n      swap1\n      log3\n        /* \"@chainlink/contracts/src/v0.8/shared/access/ConfirmedOwnerWithProposal.sol\":1536:1775  function _transferOwnership(address to) private {... */\n      pop\n      jump\t// out\n        /* \"@chainlink/contracts/src/v0.8/ChainlinkClient.sol\":2041:2326  function _buildChainlinkRequest(... */\n    tag_50:\n        /* \"@chainlink/contracts/src/v0.8/ChainlinkClient.sol\":2184:2208  Chainlink.Request memory */\n      tag_64\n      tag_65\n      jump\t// in\n    tag_64:\n        /* \"@chainlink/contracts/src/v0.8/ChainlinkClient.sol\":2216:2244  Chainlink.Request memory req */\n      tag_67\n      tag_65\n      jump\t// in\n    tag_67:\n        /* \"@chainlink/contracts/src/v0.8/ChainlinkClient.sol\":2257:2321  req._initialize(specId, callbackAddr, callbackFunctionSignature) */\n      tag_68\n        /* \"@chainlink/contracts/src/v0.8/ChainlinkClient.sol\":2273:2279  specId */\n      dup6\n        /* \"@chainlink/contracts/src/v0.8/ChainlinkClient.sol\":2281:2293  callbackAddr */\n      dup6\n        /* \"@chainlink/contracts/src/v0.8/ChainlinkClient.sol\":2295:2320  callbackFunctionSignature */\n      dup6\n        /* \"@chainlink/contracts/src/v0.8/ChainlinkClient.sol\":2257:2260  req */\n      dup5\n        /* \"@chainlink/contracts/src/v0.8/ChainlinkClient.sol\":2257:2272  req._initialize */\n      tag_69\n      swap1\n        /* \"@chainlink/contracts/src/v0.8/ChainlinkClient.sol\":2257:2321  req._initialize(specId, callbackAddr, callbackFunctionSignature) */\n      swap4\n      swap3\n      swap2\n      swap1\n      0xffffffff\n      and\n      jump\t// in\n    tag_68:\n        /* \"@chainlink/contracts/src/v0.8/ChainlinkClient.sol\":2250:2321  return req._initialize(specId, callbackAddr, callbackFunctionSignature) */\n      swap2\n      pop\n      pop\n        /* \"@chainlink/contracts/src/v0.8/ChainlinkClient.sol\":2041:2326  function _buildChainlinkRequest(... */\n      swap4\n      swap3\n      pop\n      pop\n      pop\n      jump\t// out\n        /* \"@chainlink/contracts/src/v0.8/Chainlink.sol\":1994:2154  function _add(Request memory self, string memory key, string memory value) internal pure {... */\n    tag_52:\n        /* \"@chainlink/contracts/src/v0.8/Chainlink.sol\":2089:2115  self.buf.encodeString(key) */\n      tag_71\n        /* \"@chainlink/contracts/src/v0.8/Chainlink.sol\":2111:2114  key */\n      dup3\n        /* \"@chainlink/contracts/src/v0.8/Chainlink.sol\":2089:2093  self */\n      dup5\n        /* \"@chainlink/contracts/src/v0.8/Chainlink.sol\":2089:2097  self.buf */\n      0x80\n      add\n      mload\n        /* \"@chainlink/contracts/src/v0.8/Chainlink.sol\":2089:2110  self.buf.encodeString */\n      tag_72\n      swap1\n        /* \"@chainlink/contracts/src/v0.8/Chainlink.sol\":2089:2115  self.buf.encodeString(key) */\n      swap2\n      swap1\n      0xffffffff\n      and\n      jump\t// in\n    tag_71:\n        /* \"@chainlink/contracts/src/v0.8/Chainlink.sol\":2121:2149  self.buf.encodeString(value) */\n      tag_73\n        /* \"@chainlink/contracts/src/v0.8/Chainlink.sol\":2143:2148  value */\n      dup2\n        /* \"@chainlink/contracts/src/v0.8/Chainlink.sol\":2121:2125  self */\n      dup5\n        /* \"@chainlink/contracts/src/v0.8/Chainlink.sol\":2121:2129  self.buf */\n      0x80\n      add\n      mload\n        /* \"@chainlink/contracts/src/v0.8/Chainlink.sol\":2121:2142  self.buf.encodeString */\n      tag_72\n      swap1\n        /* \"@chainlink/contracts/src/v0.8/Chainlink.sol\":2121:2149  self.buf.encodeString(value) */\n      swap2\n      swap1\n      0xffffffff\n      and\n      jump\t// in\n    tag_73:\n        /* \"@chainlink/contracts/src/v0.8/Chainlink.sol\":1994:2154  function _add(Request memory self, string memory key, string memory value) internal pure {... */\n      pop\n      pop\n      pop\n      jump\t// out\n        /* \"@chainlink/contracts/src/v0.8/ChainlinkClient.sol\":3185:3364  function _sendChainlinkRequest(Chainlink.Request memory req, uint256 payment) internal returns (bytes32) {... */\n    tag_55:\n        /* \"@chainlink/contracts/src/v0.8/ChainlinkClient.sol\":3281:3288  bytes32 */\n      0x00\n        /* \"@chainlink/contracts/src/v0.8/ChainlinkClient.sol\":3303:3359  _sendChainlinkRequestTo(address(s_oracle), req, payment) */\n      tag_75\n        /* \"@chainlink/contracts/src/v0.8/ChainlinkClient.sol\":3335:3343  s_oracle */\n      0x03\n      0x00\n      swap1\n      sload\n      swap1\n      0x0100\n      exp\n      swap1\n      div\n      0xffffffffffffffffffffffffffffffffffffffff\n      and\n        /* \"@chainlink/contracts/src/v0.8/ChainlinkClient.sol\":3346:3349  req */\n      dup5\n        /* \"@chainlink/contracts/src/v0.8/ChainlinkClient.sol\":3351:3358  payment */\n      dup5\n        /* \"@chainlink/contracts/src/v0.8/ChainlinkClient.sol\":3303:3326  _sendChainlinkRequestTo */\n      tag_76\n        /* \"@chainlink/contracts/src/v0.8/ChainlinkClient.sol\":3303:3359  _sendChainlinkRequestTo(address(s_oracle), req, payment) */\n      jump\t// in\n    tag_75:\n        /* \"@chainlink/contracts/src/v0.8/ChainlinkClient.sol\":3296:3359  return _sendChainlinkRequestTo(address(s_oracle), req, payment) */\n      swap1\n      pop\n        /* \"@chainlink/contracts/src/v0.8/ChainlinkClient.sol\":3185:3364  function _sendChainlinkRequest(Chainlink.Request memory req, uint256 payment) internal returns (bytes32) {... */\n      swap3\n      swap2\n      pop\n      pop\n      jump\t// out\n        /* \"@chainlink/contracts/src/v0.8/Chainlink.sol\":1028:1380  function _initialize(... */\n    tag_69:\n        /* \"@chainlink/contracts/src/v0.8/Chainlink.sol\":1171:1195  Chainlink.Request memory */\n      tag_77\n      tag_65\n      jump\t// in\n    tag_77:\n        /* \"@chainlink/contracts/src/v0.8/Chainlink.sol\":1203:1252  BufferChainlink.init(self.buf, defaultBufferSize) */\n      tag_79\n        /* \"@chainlink/contracts/src/v0.8/Chainlink.sol\":1224:1228  self */\n      dup6\n        /* \"@chainlink/contracts/src/v0.8/Chainlink.sol\":1224:1232  self.buf */\n      0x80\n      add\n      mload\n        /* \"@chainlink/contracts/src/v0.8/Chainlink.sol\":447:450  256 */\n      0x0100\n        /* \"@chainlink/contracts/src/v0.8/Chainlink.sol\":1203:1223  BufferChainlink.init */\n      tag_80\n        /* \"@chainlink/contracts/src/v0.8/Chainlink.sol\":1203:1252  BufferChainlink.init(self.buf, defaultBufferSize) */\n      jump\t// in\n    tag_79:\n      pop\n        /* \"@chainlink/contracts/src/v0.8/Chainlink.sol\":1268:1273  jobId */\n      dup4\n        /* \"@chainlink/contracts/src/v0.8/Chainlink.sol\":1258:1262  self */\n      dup6\n        /* \"@chainlink/contracts/src/v0.8/Chainlink.sol\":1258:1265  self.id */\n      0x00\n      add\n        /* \"@chainlink/contracts/src/v0.8/Chainlink.sol\":1258:1273  self.id = jobId */\n      dup2\n      dup2\n      mstore\n      pop\n      pop\n        /* \"@chainlink/contracts/src/v0.8/Chainlink.sol\":1302:1314  callbackAddr */\n      dup3\n        /* \"@chainlink/contracts/src/v0.8/Chainlink.sol\":1279:1283  self */\n      dup6\n        /* \"@chainlink/contracts/src/v0.8/Chainlink.sol\":1279:1299  self.callbackAddress */\n      0x20\n      add\n        /* \"@chainlink/contracts/src/v0.8/Chainlink.sol\":1279:1314  self.callbackAddress = callbackAddr */\n      swap1\n      0xffffffffffffffffffffffffffffffffffffffff\n      and\n      swap1\n      dup2\n      0xffffffffffffffffffffffffffffffffffffffff\n      and\n      dup2\n      mstore\n      pop\n      pop\n        /* \"@chainlink/contracts/src/v0.8/Chainlink.sol\":1346:1358  callbackFunc */\n      dup2\n        /* \"@chainlink/contracts/src/v0.8/Chainlink.sol\":1320:1324  self */\n      dup6\n        /* \"@chainlink/contracts/src/v0.8/Chainlink.sol\":1320:1343  self.callbackFunctionId */\n      0x40\n      add\n        /* \"@chainlink/contracts/src/v0.8/Chainlink.sol\":1320:1358  self.callbackFunctionId = callbackFunc */\n      swap1\n      not(0xffffffffffffffffffffffffffffffffffffffffffffffffffffffff)\n      and\n      swap1\n      dup2\n      not(0xffffffffffffffffffffffffffffffffffffffffffffffffffffffff)\n      and\n      dup2\n      mstore\n      pop\n      pop\n        /* \"@chainlink/contracts/src/v0.8/Chainlink.sol\":1371:1375  self */\n      dup5\n        /* \"@chainlink/contracts/src/v0.8/Chainlink.sol\":1364:1375  return self */\n      swap1\n      pop\n        /* \"@chainlink/contracts/src/v0.8/Chainlink.sol\":1028:1380  function _initialize(... */\n      swap5\n      swap4\n      pop\n      pop\n      pop\n      pop\n      jump\t// out\n        /* \"@chainlink/contracts/src/v0.8/vendor/CBORChainlink.sol\":2777:2981  function encodeString(BufferChainlink.buffer memory buf, string memory value) internal pure {... */\n    tag_72:\n        /* \"@chainlink/contracts/src/v0.8/vendor/CBORChainlink.sol\":2875:2946  encodeFixedNumeric(buf, MAJOR_TYPE_STRING, uint64(bytes(value).length)) */\n      tag_82\n        /* \"@chainlink/contracts/src/v0.8/vendor/CBORChainlink.sol\":2894:2897  buf */\n      dup3\n        /* \"@chainlink/contracts/src/v0.8/vendor/CBORChainlink.sol\":383:384  3 */\n      0x03\n        /* \"@chainlink/contracts/src/v0.8/vendor/CBORChainlink.sol\":2931:2936  value */\n      dup4\n        /* \"@chainlink/contracts/src/v0.8/vendor/CBORChainlink.sol\":2925:2944  bytes(value).length */\n      mload\n        /* \"@chainlink/contracts/src/v0.8/vendor/CBORChainlink.sol\":2875:2893  encodeFixedNumeric */\n      tag_83\n        /* \"@chainlink/contracts/src/v0.8/vendor/CBORChainlink.sol\":2875:2946  encodeFixedNumeric(buf, MAJOR_TYPE_STRING, uint64(bytes(value).length)) */\n      jump\t// in\n    tag_82:\n        /* \"@chainlink/contracts/src/v0.8/vendor/CBORChainlink.sol\":2952:2976  buf.append(bytes(value)) */\n      tag_84\n        /* \"@chainlink/contracts/src/v0.8/vendor/CBORChainlink.sol\":2969:2974  value */\n      dup2\n        /* \"@chainlink/contracts/src/v0.8/vendor/CBORChainlink.sol\":2952:2955  buf */\n      dup4\n        /* \"@chainlink/contracts/src/v0.8/vendor/CBORChainlink.sol\":2952:2962  buf.append */\n      tag_85\n      swap1\n        /* \"@chainlink/contracts/src/v0.8/vendor/CBORChainlink.sol\":2952:2976  buf.append(bytes(value)) */\n      swap2\n      swap1\n      0xffffffff\n      and\n      jump\t// in\n    tag_84:\n      pop\n        /* \"@chainlink/contracts/src/v0.8/vendor/CBORChainlink.sol\":2777:2981  function encodeString(BufferChainlink.buffer memory buf, string memory value) internal pure {... */\n      pop\n      pop\n      jump\t// out\n        /* \"@chainlink/contracts/src/v0.8/ChainlinkClient.sol\":3882:4639  function _sendChainlinkRequestTo(... */\n    tag_76:\n        /* \"@chainlink/contracts/src/v0.8/ChainlinkClient.sol\":4019:4036  bytes32 requestId */\n      0x00\n        /* \"@chainlink/contracts/src/v0.8/ChainlinkClient.sol\":4044:4057  uint256 nonce */\n      dup1\n        /* \"@chainlink/contracts/src/v0.8/ChainlinkClient.sol\":4060:4074  s_requestCount */\n      sload(0x04)\n        /* \"@chainlink/contracts/src/v0.8/ChainlinkClient.sol\":4044:4074  uint256 nonce = s_requestCount */\n      swap1\n      pop\n        /* \"@chainlink/contracts/src/v0.8/ChainlinkClient.sol\":4105:4106  1 */\n      0x01\n        /* \"@chainlink/contracts/src/v0.8/ChainlinkClient.sol\":4097:4102  nonce */\n      dup2\n        /* \"@chainlink/contracts/src/v0.8/ChainlinkClient.sol\":4097:4106  nonce + 1 */\n      tag_87\n      swap2\n      swap1\n      tag_88\n      jump\t// in\n    tag_87:\n        /* \"@chainlink/contracts/src/v0.8/ChainlinkClient.sol\":4080:4094  s_requestCount */\n      0x04\n        /* \"@chainlink/contracts/src/v0.8/ChainlinkClient.sol\":4080:4106  s_requestCount = nonce + 1 */\n      dup2\n      swap1\n      sstore\n      pop\n        /* \"@chainlink/contracts/src/v0.8/ChainlinkClient.sol\":4112:4139  bytes memory encodedRequest */\n      0x00\n        /* \"@chainlink/contracts/src/v0.8/ChainlinkClient.sol\":4172:4220  ChainlinkRequestInterface.oracleRequest.selector */\n      shl(0xe0, 0x40429946)\n        /* \"@chainlink/contracts/src/v0.8/ChainlinkClient.sol\":975:976  0 */\n      0x00\n        /* \"@chainlink/contracts/src/v0.8/ChainlinkClient.sol\":919:920  0 */\n      dup1\n        /* \"@chainlink/contracts/src/v0.8/ChainlinkClient.sol\":4441:4444  req */\n      dup8\n        /* \"@chainlink/contracts/src/v0.8/ChainlinkClient.sol\":4441:4447  req.id */\n      0x00\n      add\n      mload\n        /* \"@chainlink/contracts/src/v0.8/ChainlinkClient.sol\":4463:4467  this */\n      address\n        /* \"@chainlink/contracts/src/v0.8/ChainlinkClient.sol\":4476:4479  req */\n      dup10\n        /* \"@chainlink/contracts/src/v0.8/ChainlinkClient.sol\":4476:4498  req.callbackFunctionId */\n      0x40\n      add\n      mload\n        /* \"@chainlink/contracts/src/v0.8/ChainlinkClient.sol\":4506:4511  nonce */\n      dup8\n        /* \"@chainlink/contracts/src/v0.8/ChainlinkClient.sol\":1028:1029  1 */\n      0x01\n        /* \"@chainlink/contracts/src/v0.8/ChainlinkClient.sol\":4546:4549  req */\n      dup13\n        /* \"@chainlink/contracts/src/v0.8/ChainlinkClient.sol\":4546:4553  req.buf */\n      0x80\n      add\n      mload\n        /* \"@chainlink/contracts/src/v0.8/ChainlinkClient.sol\":4546:4557  req.buf.buf */\n      0x00\n      add\n      mload\n        /* \"@chainlink/contracts/src/v0.8/ChainlinkClient.sol\":4142:4563  abi.encodeWithSelector(... */\n      add(0x24, mload(0x40))\n      tag_89\n      swap9\n      swap8\n      swap7\n      swap6\n      swap5\n      swap4\n      swap3\n      swap2\n      swap1\n      tag_90\n      jump\t// in\n    tag_89:\n      mload(0x40)\n      0x20\n      dup2\n      dup4\n      sub\n      sub\n      dup2\n      mstore\n      swap1\n      0x40\n      mstore\n      swap1\n      not(0xffffffffffffffffffffffffffffffffffffffffffffffffffffffff)\n      and\n      0x20\n      dup3\n      add\n      dup1\n      mload\n      0xffffffffffffffffffffffffffffffffffffffffffffffffffffffff\n      dup4\n      dup2\n      dup4\n      and\n      or\n      dup4\n      mstore\n      pop\n      pop\n      pop\n      pop\n        /* \"@chainlink/contracts/src/v0.8/ChainlinkClient.sol\":4112:4563  bytes memory encodedRequest = abi.encodeWithSelector(... */\n      swap1\n      pop\n        /* \"@chainlink/contracts/src/v0.8/ChainlinkClient.sol\":4576:4634  _rawRequest(oracleAddress, nonce, payment, encodedRequest) */\n      tag_91\n        /* \"@chainlink/contracts/src/v0.8/ChainlinkClient.sol\":4588:4601  oracleAddress */\n      dup7\n        /* \"@chainlink/contracts/src/v0.8/ChainlinkClient.sol\":4603:4608  nonce */\n      dup4\n        /* \"@chainlink/contracts/src/v0.8/ChainlinkClient.sol\":4610:4617  payment */\n      dup7\n        /* \"@chainlink/contracts/src/v0.8/ChainlinkClient.sol\":4619:4633  encodedRequest */\n      dup5\n        /* \"@chainlink/contracts/src/v0.8/ChainlinkClient.sol\":4576:4587  _rawRequest */\n      tag_92\n        /* \"@chainlink/contracts/src/v0.8/ChainlinkClient.sol\":4576:4634  _rawRequest(oracleAddress, nonce, payment, encodedRequest) */\n      jump\t// in\n    tag_91:\n        /* \"@chainlink/contracts/src/v0.8/ChainlinkClient.sol\":4569:4634  return _rawRequest(oracleAddress, nonce, payment, encodedRequest) */\n      swap3\n      pop\n      pop\n      pop\n        /* \"@chainlink/contracts/src/v0.8/ChainlinkClient.sol\":3882:4639  function _sendChainlinkRequestTo(... */\n      swap4\n      swap3\n      pop\n      pop\n      pop\n      jump\t// out\n        /* \"@chainlink/contracts/src/v0.8/vendor/BufferChainlink.sol\":1001:1400  function init(buffer memory buf, uint256 capacity) internal pure returns (buffer memory) {... */\n    tag_80:\n        /* \"@chainlink/contracts/src/v0.8/vendor/BufferChainlink.sol\":1075:1088  buffer memory */\n      tag_93\n      tag_94\n      jump\t// in\n    tag_93:\n        /* \"@chainlink/contracts/src/v0.8/vendor/BufferChainlink.sol\":1117:1118  0 */\n      0x00\n        /* \"@chainlink/contracts/src/v0.8/vendor/BufferChainlink.sol\":1111:1113  32 */\n      0x20\n        /* \"@chainlink/contracts/src/v0.8/vendor/BufferChainlink.sol\":1100:1108  capacity */\n      dup4\n        /* \"@chainlink/contracts/src/v0.8/vendor/BufferChainlink.sol\":1100:1113  capacity % 32 */\n      tag_96\n      swap2\n      swap1\n      tag_97\n      jump\t// in\n    tag_96:\n        /* \"@chainlink/contracts/src/v0.8/vendor/BufferChainlink.sol\":1100:1118  capacity % 32 != 0 */\n      eq\n        /* \"@chainlink/contracts/src/v0.8/vendor/BufferChainlink.sol\":1096:1167  if (capacity % 32 != 0) {... */\n      tag_98\n      jumpi\n        /* \"@chainlink/contracts/src/v0.8/vendor/BufferChainlink.sol\":1157:1159  32 */\n      0x20\n        /* \"@chainlink/contracts/src/v0.8/vendor/BufferChainlink.sol\":1146:1154  capacity */\n      dup3\n        /* \"@chainlink/contracts/src/v0.8/vendor/BufferChainlink.sol\":1146:1159  capacity % 32 */\n      tag_99\n      swap2\n      swap1\n      tag_97\n      jump\t// in\n    tag_99:\n        /* \"@chainlink/contracts/src/v0.8/vendor/BufferChainlink.sol\":1140:1142  32 */\n      0x20\n        /* \"@chainlink/contracts/src/v0.8/vendor/BufferChainlink.sol\":1140:1160  32 - (capacity % 32) */\n      tag_100\n      swap2\n      swap1\n      tag_101\n      jump\t// in\n    tag_100:\n        /* \"@chainlink/contracts/src/v0.8/vendor/BufferChainlink.sol\":1128:1160  capacity += 32 - (capacity % 32) */\n      dup3\n      tag_102\n      swap2\n      swap1\n      tag_88\n      jump\t// in\n    tag_102:\n      swap2\n      pop\n        /* \"@chainlink/contracts/src/v0.8/vendor/BufferChainlink.sol\":1096:1167  if (capacity % 32 != 0) {... */\n    tag_98:\n        /* \"@chainlink/contracts/src/v0.8/vendor/BufferChainlink.sol\":1229:1237  capacity */\n      dup2\n        /* \"@chainlink/contracts/src/v0.8/vendor/BufferChainlink.sol\":1214:1217  buf */\n      dup4\n        /* \"@chainlink/contracts/src/v0.8/vendor/BufferChainlink.sol\":1214:1226  buf.capacity */\n      0x20\n      add\n        /* \"@chainlink/contracts/src/v0.8/vendor/BufferChainlink.sol\":1214:1237  buf.capacity = capacity */\n      dup2\n      dup2\n      mstore\n      pop\n      pop\n        /* \"@chainlink/contracts/src/v0.8/vendor/BufferChainlink.sol\":1277:1281  0x40 */\n      0x40\n        /* \"@chainlink/contracts/src/v0.8/vendor/BufferChainlink.sol\":1271:1282  mload(0x40) */\n      mload\n        /* \"@chainlink/contracts/src/v0.8/vendor/BufferChainlink.sol\":1301:1304  ptr */\n      dup1\n        /* \"@chainlink/contracts/src/v0.8/vendor/BufferChainlink.sol\":1296:1299  buf */\n      dup5\n        /* \"@chainlink/contracts/src/v0.8/vendor/BufferChainlink.sol\":1289:1305  mstore(buf, ptr) */\n      mstore\n        /* \"@chainlink/contracts/src/v0.8/vendor/BufferChainlink.sol\":1324:1325  0 */\n      0x00\n        /* \"@chainlink/contracts/src/v0.8/vendor/BufferChainlink.sol\":1319:1322  ptr */\n      dup2\n        /* \"@chainlink/contracts/src/v0.8/vendor/BufferChainlink.sol\":1312:1326  mstore(ptr, 0) */\n      mstore\n        /* \"@chainlink/contracts/src/v0.8/vendor/BufferChainlink.sol\":1363:1371  capacity */\n      dup3\n        /* \"@chainlink/contracts/src/v0.8/vendor/BufferChainlink.sol\":1358:1361  ptr */\n      dup2\n        /* \"@chainlink/contracts/src/v0.8/vendor/BufferChainlink.sol\":1354:1372  add(ptr, capacity) */\n      add\n        /* \"@chainlink/contracts/src/v0.8/vendor/BufferChainlink.sol\":1350:1352  32 */\n      0x20\n        /* \"@chainlink/contracts/src/v0.8/vendor/BufferChainlink.sol\":1346:1373  add(32, add(ptr, capacity)) */\n      add\n        /* \"@chainlink/contracts/src/v0.8/vendor/BufferChainlink.sol\":1340:1344  0x40 */\n      0x40\n        /* \"@chainlink/contracts/src/v0.8/vendor/BufferChainlink.sol\":1333:1374  mstore(0x40, add(32, add(ptr, capacity))) */\n      mstore\n        /* \"@chainlink/contracts/src/v0.8/vendor/BufferChainlink.sol\":1252:1380  {... */\n      pop\n        /* \"@chainlink/contracts/src/v0.8/vendor/BufferChainlink.sol\":1392:1395  buf */\n      dup3\n        /* \"@chainlink/contracts/src/v0.8/vendor/BufferChainlink.sol\":1385:1395  return buf */\n      swap1\n      pop\n        /* \"@chainlink/contracts/src/v0.8/vendor/BufferChainlink.sol\":1001:1400  function init(buffer memory buf, uint256 capacity) internal pure returns (buffer memory) {... */\n      swap3\n      swap2\n      pop\n      pop\n      jump\t// out\n        /* \"@chainlink/contracts/src/v0.8/vendor/CBORChainlink.sol\":682:1307  function encodeFixedNumeric(BufferChainlink.buffer memory buf, uint8 major, uint64 value) private pure {... */\n    tag_83:\n        /* \"@chainlink/contracts/src/v0.8/vendor/CBORChainlink.sol\":803:805  23 */\n      0x17\n        /* \"@chainlink/contracts/src/v0.8/vendor/CBORChainlink.sol\":794:799  value */\n      dup2\n        /* \"@chainlink/contracts/src/v0.8/vendor/CBORChainlink.sol\":794:805  value <= 23 */\n      0xffffffffffffffff\n      and\n      gt\n        /* \"@chainlink/contracts/src/v0.8/vendor/CBORChainlink.sol\":791:1303  if(value <= 23) {... */\n      tag_104\n      jumpi\n        /* \"@chainlink/contracts/src/v0.8/vendor/CBORChainlink.sol\":815:859  buf.appendUint8(uint8((major << 5) | value)) */\n      tag_105\n        /* \"@chainlink/contracts/src/v0.8/vendor/CBORChainlink.sol\":852:857  value */\n      dup2\n        /* \"@chainlink/contracts/src/v0.8/vendor/CBORChainlink.sol\":847:848  5 */\n      0x05\n        /* \"@chainlink/contracts/src/v0.8/vendor/CBORChainlink.sol\":838:843  major */\n      dup5\n        /* \"@chainlink/contracts/src/v0.8/vendor/CBORChainlink.sol\":838:848  major << 5 */\n      0xff\n      and\n      swap1\n      shl\n        /* \"@chainlink/contracts/src/v0.8/vendor/CBORChainlink.sol\":837:857  (major << 5) | value */\n      0xff\n      and\n      or\n        /* \"@chainlink/contracts/src/v0.8/vendor/CBORChainlink.sol\":815:818  buf */\n      dup5\n        /* \"@chainlink/contracts/src/v0.8/vendor/CBORChainlink.sol\":815:830  buf.appendUint8 */\n      tag_106\n      swap1\n        /* \"@chainlink/contracts/src/v0.8/vendor/CBORChainlink.sol\":815:859  buf.appendUint8(uint8((major << 5) | value)) */\n      swap2\n      swap1\n      0xffffffff\n      and\n      jump\t// in\n    tag_105:\n      pop\n        /* \"@chainlink/contracts/src/v0.8/vendor/CBORChainlink.sol\":791:1303  if(value <= 23) {... */\n      jump(tag_107)\n    tag_104:\n        /* \"@chainlink/contracts/src/v0.8/vendor/CBORChainlink.sol\":885:889  0xFF */\n      0xff\n        /* \"@chainlink/contracts/src/v0.8/vendor/CBORChainlink.sol\":876:881  value */\n      dup2\n        /* \"@chainlink/contracts/src/v0.8/vendor/CBORChainlink.sol\":876:889  value <= 0xFF */\n      0xffffffffffffffff\n      and\n      gt\n        /* \"@chainlink/contracts/src/v0.8/vendor/CBORChainlink.sol\":872:1303  if (value <= 0xFF) {... */\n      tag_108\n      jumpi\n        /* \"@chainlink/contracts/src/v0.8/vendor/CBORChainlink.sol\":899:940  buf.appendUint8(uint8((major << 5) | 24)) */\n      tag_109\n        /* \"@chainlink/contracts/src/v0.8/vendor/CBORChainlink.sol\":936:938  24 */\n      0x18\n        /* \"@chainlink/contracts/src/v0.8/vendor/CBORChainlink.sol\":931:932  5 */\n      0x05\n        /* \"@chainlink/contracts/src/v0.8/vendor/CBORChainlink.sol\":922:927  major */\n      dup5\n        /* \"@chainlink/contracts/src/v0.8/vendor/CBORChainlink.sol\":922:932  major << 5 */\n      0xff\n      and\n      swap1\n      shl\n        /* \"@chainlink/contracts/src/v0.8/vendor/CBORChainlink.sol\":921:938  (major << 5) | 24 */\n      or\n        /* \"@chainlink/contracts/src/v0.8/vendor/CBORChainlink.sol\":899:902  buf */\n      dup5\n        /* \"@chainlink/contracts/src/v0.8/vendor/CBORChainlink.sol\":899:914  buf.appendUint8 */\n      tag_106\n      swap1\n        /* \"@chainlink/contracts/src/v0.8/vendor/CBORChainlink.sol\":899:940  buf.appendUint8(uint8((major << 5) | 24)) */\n      swap2\n      swap1\n      0xffffffff\n      and\n      jump\t// in\n    tag_109:\n      pop\n        /* \"@chainlink/contracts/src/v0.8/vendor/CBORChainlink.sol\":948:971  buf.appendInt(value, 1) */\n      tag_110\n        /* \"@chainlink/contracts/src/v0.8/vendor/CBORChainlink.sol\":962:967  value */\n      dup2\n        /* \"@chainlink/contracts/src/v0.8/vendor/CBORChainlink.sol\":948:971  buf.appendInt(value, 1) */\n      0xffffffffffffffff\n      and\n        /* \"@chainlink/contracts/src/v0.8/vendor/CBORChainlink.sol\":969:970  1 */\n      0x01\n        /* \"@chainlink/contracts/src/v0.8/vendor/CBORChainlink.sol\":948:951  buf */\n      dup6\n        /* \"@chainlink/contracts/src/v0.8/vendor/CBORChainlink.sol\":948:961  buf.appendInt */\n      tag_111\n      swap1\n        /* \"@chainlink/contracts/src/v0.8/vendor/CBORChainlink.sol\":948:971  buf.appendInt(value, 1) */\n      swap3\n      swap2\n      swap1\n      0xffffffff\n      and\n      jump\t// in\n    tag_110:\n      pop\n        /* \"@chainlink/contracts/src/v0.8/vendor/CBORChainlink.sol\":872:1303  if (value <= 0xFF) {... */\n      jump(tag_112)\n    tag_108:\n        /* \"@chainlink/contracts/src/v0.8/vendor/CBORChainlink.sol\":997:1003  0xFFFF */\n      0xffff\n        /* \"@chainlink/contracts/src/v0.8/vendor/CBORChainlink.sol\":988:993  value */\n      dup2\n        /* \"@chainlink/contracts/src/v0.8/vendor/CBORChainlink.sol\":988:1003  value <= 0xFFFF */\n      0xffffffffffffffff\n      and\n      gt\n        /* \"@chainlink/contracts/src/v0.8/vendor/CBORChainlink.sol\":984:1303  if (value <= 0xFFFF) {... */\n      tag_113\n      jumpi\n        /* \"@chainlink/contracts/src/v0.8/vendor/CBORChainlink.sol\":1013:1054  buf.appendUint8(uint8((major << 5) | 25)) */\n      tag_114\n        /* \"@chainlink/contracts/src/v0.8/vendor/CBORChainlink.sol\":1050:1052  25 */\n      0x19\n        /* \"@chainlink/contracts/src/v0.8/vendor/CBORChainlink.sol\":1045:1046  5 */\n      0x05\n        /* \"@chainlink/contracts/src/v0.8/vendor/CBORChainlink.sol\":1036:1041  major */\n      dup5\n        /* \"@chainlink/contracts/src/v0.8/vendor/CBORChainlink.sol\":1036:1046  major << 5 */\n      0xff\n      and\n      swap1\n      shl\n        /* \"@chainlink/contracts/src/v0.8/vendor/CBORChainlink.sol\":1035:1052  (major << 5) | 25 */\n      or\n        /* \"@chainlink/contracts/src/v0.8/vendor/CBORChainlink.sol\":1013:1016  buf */\n      dup5\n        /* \"@chainlink/contracts/src/v0.8/vendor/CBORChainlink.sol\":1013:1028  buf.appendUint8 */\n      tag_106\n      swap1\n        /* \"@chainlink/contracts/src/v0.8/vendor/CBORChainlink.sol\":1013:1054  buf.appendUint8(uint8((major << 5) | 25)) */\n      swap2\n      swap1\n      0xffffffff\n      and\n      jump\t// in\n    tag_114:\n      pop\n        /* \"@chainlink/contracts/src/v0.8/vendor/CBORChainlink.sol\":1062:1085  buf.appendInt(value, 2) */\n      tag_115\n        /* \"@chainlink/contracts/src/v0.8/vendor/CBORChainlink.sol\":1076:1081  value */\n      dup2\n        /* \"@chainlink/contracts/src/v0.8/vendor/CBORChainlink.sol\":1062:1085  buf.appendInt(value, 2) */\n      0xffffffffffffffff\n      and\n        /* \"@chainlink/contracts/src/v0.8/vendor/CBORChainlink.sol\":1083:1084  2 */\n      0x02\n        /* \"@chainlink/contracts/src/v0.8/vendor/CBORChainlink.sol\":1062:1065  buf */\n      dup6\n        /* \"@chainlink/contracts/src/v0.8/vendor/CBORChainlink.sol\":1062:1075  buf.appendInt */\n      tag_111\n      swap1\n        /* \"@chainlink/contracts/src/v0.8/vendor/CBORChainlink.sol\":1062:1085  buf.appendInt(value, 2) */\n      swap3\n      swap2\n      swap1\n      0xffffffff\n      and\n      jump\t// in\n    tag_115:\n      pop\n        /* \"@chainlink/contracts/src/v0.8/vendor/CBORChainlink.sol\":984:1303  if (value <= 0xFFFF) {... */\n      jump(tag_116)\n    tag_113:\n        /* \"@chainlink/contracts/src/v0.8/vendor/CBORChainlink.sol\":1111:1121  0xFFFFFFFF */\n      0xffffffff\n        /* \"@chainlink/contracts/src/v0.8/vendor/CBORChainlink.sol\":1102:1107  value */\n      dup2\n        /* \"@chainlink/contracts/src/v0.8/vendor/CBORChainlink.sol\":1102:1121  value <= 0xFFFFFFFF */\n      0xffffffffffffffff\n      and\n      gt\n        /* \"@chainlink/contracts/src/v0.8/vendor/CBORChainlink.sol\":1098:1303  if (value <= 0xFFFFFFFF) {... */\n      tag_117\n      jumpi\n        /* \"@chainlink/contracts/src/v0.8/vendor/CBORChainlink.sol\":1131:1172  buf.appendUint8(uint8((major << 5) | 26)) */\n      tag_118\n        /* \"@chainlink/contracts/src/v0.8/vendor/CBORChainlink.sol\":1168:1170  26 */\n      0x1a\n        /* \"@chainlink/contracts/src/v0.8/vendor/CBORChainlink.sol\":1163:1164  5 */\n      0x05\n        /* \"@chainlink/contracts/src/v0.8/vendor/CBORChainlink.sol\":1154:1159  major */\n      dup5\n        /* \"@chainlink/contracts/src/v0.8/vendor/CBORChainlink.sol\":1154:1164  major << 5 */\n      0xff\n      and\n      swap1\n      shl\n        /* \"@chainlink/contracts/src/v0.8/vendor/CBORChainlink.sol\":1153:1170  (major << 5) | 26 */\n      or\n        /* \"@chainlink/contracts/src/v0.8/vendor/CBORChainlink.sol\":1131:1134  buf */\n      dup5\n        /* \"@chainlink/contracts/src/v0.8/vendor/CBORChainlink.sol\":1131:1146  buf.appendUint8 */\n      tag_106\n      swap1\n        /* \"@chainlink/contracts/src/v0.8/vendor/CBORChainlink.sol\":1131:1172  buf.appendUint8(uint8((major << 5) | 26)) */\n      swap2\n      swap1\n      0xffffffff\n      and\n      jump\t// in\n    tag_118:\n      pop\n        /* \"@chainlink/contracts/src/v0.8/vendor/CBORChainlink.sol\":1180:1203  buf.appendInt(value, 4) */\n      tag_119\n        /* \"@chainlink/contracts/src/v0.8/vendor/CBORChainlink.sol\":1194:1199  value */\n      dup2\n        /* \"@chainlink/contracts/src/v0.8/vendor/CBORChainlink.sol\":1180:1203  buf.appendInt(value, 4) */\n      0xffffffffffffffff\n      and\n        /* \"@chainlink/contracts/src/v0.8/vendor/CBORChainlink.sol\":1201:1202  4 */\n      0x04\n        /* \"@chainlink/contracts/src/v0.8/vendor/CBORChainlink.sol\":1180:1183  buf */\n      dup6\n        /* \"@chainlink/contracts/src/v0.8/vendor/CBORChainlink.sol\":1180:1193  buf.appendInt */\n      tag_111\n      swap1\n        /* \"@chainlink/contracts/src/v0.8/vendor/CBORChainlink.sol\":1180:1203  buf.appendInt(value, 4) */\n      swap3\n      swap2\n      swap1\n      0xffffffff\n      and\n      jump\t// in\n    tag_119:\n      pop\n        /* \"@chainlink/contracts/src/v0.8/vendor/CBORChainlink.sol\":1098:1303  if (value <= 0xFFFFFFFF) {... */\n      jump(tag_120)\n    tag_117:\n        /* \"@chainlink/contracts/src/v0.8/vendor/CBORChainlink.sol\":1224:1265  buf.appendUint8(uint8((major << 5) | 27)) */\n      tag_121\n        /* \"@chainlink/contracts/src/v0.8/vendor/CBORChainlink.sol\":1261:1263  27 */\n      0x1b\n        /* \"@chainlink/contracts/src/v0.8/vendor/CBORChainlink.sol\":1256:1257  5 */\n      0x05\n        /* \"@chainlink/contracts/src/v0.8/vendor/CBORChainlink.sol\":1247:1252  major */\n      dup5\n        /* \"@chainlink/contracts/src/v0.8/vendor/CBORChainlink.sol\":1247:1257  major << 5 */\n      0xff\n      and\n      swap1\n      shl\n        /* \"@chainlink/contracts/src/v0.8/vendor/CBORChainlink.sol\":1246:1263  (major << 5) | 27 */\n      or\n        /* \"@chainlink/contracts/src/v0.8/vendor/CBORChainlink.sol\":1224:1227  buf */\n      dup5\n        /* \"@chainlink/contracts/src/v0.8/vendor/CBORChainlink.sol\":1224:1239  buf.appendUint8 */\n      tag_106\n      swap1\n        /* \"@chainlink/contracts/src/v0.8/vendor/CBORChainlink.sol\":1224:1265  buf.appendUint8(uint8((major << 5) | 27)) */\n      swap2\n      swap1\n      0xffffffff\n      and\n      jump\t// in\n    tag_121:\n      pop\n        /* \"@chainlink/contracts/src/v0.8/vendor/CBORChainlink.sol\":1273:1296  buf.appendInt(value, 8) */\n      tag_122\n        /* \"@chainlink/contracts/src/v0.8/vendor/CBORChainlink.sol\":1287:1292  value */\n      dup2\n        /* \"@chainlink/contracts/src/v0.8/vendor/CBORChainlink.sol\":1273:1296  buf.appendInt(value, 8) */\n      0xffffffffffffffff\n      and\n        /* \"@chainlink/contracts/src/v0.8/vendor/CBORChainlink.sol\":1294:1295  8 */\n      0x08\n        /* \"@chainlink/contracts/src/v0.8/vendor/CBORChainlink.sol\":1273:1276  buf */\n      dup6\n        /* \"@chainlink/contracts/src/v0.8/vendor/CBORChainlink.sol\":1273:1286  buf.appendInt */\n      tag_111\n      swap1\n        /* \"@chainlink/contracts/src/v0.8/vendor/CBORChainlink.sol\":1273:1296  buf.appendInt(value, 8) */\n      swap3\n      swap2\n      swap1\n      0xffffffff\n      and\n      jump\t// in\n    tag_122:\n      pop\n        /* \"@chainlink/contracts/src/v0.8/vendor/CBORChainlink.sol\":1098:1303  if (value <= 0xFFFFFFFF) {... */\n    tag_120:\n        /* \"@chainlink/contracts/src/v0.8/vendor/CBORChainlink.sol\":984:1303  if (value <= 0xFFFF) {... */\n    tag_116:\n        /* \"@chainlink/contracts/src/v0.8/vendor/CBORChainlink.sol\":872:1303  if (value <= 0xFF) {... */\n    tag_112:\n        /* \"@chainlink/contracts/src/v0.8/vendor/CBORChainlink.sol\":791:1303  if(value <= 23) {... */\n    tag_107:\n        /* \"@chainlink/contracts/src/v0.8/vendor/CBORChainlink.sol\":682:1307  function encodeFixedNumeric(BufferChainlink.buffer memory buf, uint8 major, uint64 value) private pure {... */\n      pop\n      pop\n      pop\n      jump\t// out\n        /* \"@chainlink/contracts/src/v0.8/vendor/BufferChainlink.sol\":4692:4847  function append(buffer memory buf, bytes memory data) internal pure returns (buffer memory) {... */\n    tag_85:\n        /* \"@chainlink/contracts/src/v0.8/vendor/BufferChainlink.sol\":4769:4782  buffer memory */\n      tag_123\n      tag_94\n      jump\t// in\n    tag_123:\n        /* \"@chainlink/contracts/src/v0.8/vendor/BufferChainlink.sol\":4797:4842  write(buf, buf.buf.length, data, data.length) */\n      tag_125\n        /* \"@chainlink/contracts/src/v0.8/vendor/BufferChainlink.sol\":4803:4806  buf */\n      dup4\n        /* \"@chainlink/contracts/src/v0.8/vendor/BufferChainlink.sol\":4808:4811  buf */\n      dup5\n        /* \"@chainlink/contracts/src/v0.8/vendor/BufferChainlink.sol\":4808:4815  buf.buf */\n      0x00\n      add\n      mload\n        /* \"@chainlink/contracts/src/v0.8/vendor/BufferChainlink.sol\":4808:4822  buf.buf.length */\n      mload\n        /* \"@chainlink/contracts/src/v0.8/vendor/BufferChainlink.sol\":4824:4828  data */\n      dup5\n        /* \"@chainlink/contracts/src/v0.8/vendor/BufferChainlink.sol\":4830:4834  data */\n      dup6\n        /* \"@chainlink/contracts/src/v0.8/vendor/BufferChainlink.sol\":4830:4841  data.length */\n      mload\n        /* \"@chainlink/contracts/src/v0.8/vendor/BufferChainlink.sol\":4797:4802  write */\n      tag_126\n        /* \"@chainlink/contracts/src/v0.8/vendor/BufferChainlink.sol\":4797:4842  write(buf, buf.buf.length, data, data.length) */\n      jump\t// in\n    tag_125:\n        /* \"@chainlink/contracts/src/v0.8/vendor/BufferChainlink.sol\":4790:4842  return write(buf, buf.buf.length, data, data.length) */\n      swap1\n      pop\n        /* \"@chainlink/contracts/src/v0.8/vendor/BufferChainlink.sol\":4692:4847  function append(buffer memory buf, bytes memory data) internal pure returns (buffer memory) {... */\n      swap3\n      swap2\n      pop\n      pop\n      jump\t// out\n        /* \"@chainlink/contracts/src/v0.8/ChainlinkClient.sol\":6828:7280  function _rawRequest(... */\n    tag_92:\n        /* \"@chainlink/contracts/src/v0.8/ChainlinkClient.sol\":6970:6987  bytes32 requestId */\n      0x00\n        /* \"@chainlink/contracts/src/v0.8/ChainlinkClient.sol\":7034:7038  this */\n      address\n        /* \"@chainlink/contracts/src/v0.8/ChainlinkClient.sol\":7040:7045  nonce */\n      dup5\n        /* \"@chainlink/contracts/src/v0.8/ChainlinkClient.sol\":7017:7046  abi.encodePacked(this, nonce) */\n      add(0x20, mload(0x40))\n      tag_128\n      swap3\n      swap2\n      swap1\n      tag_129\n      jump\t// in\n    tag_128:\n      mload(0x40)\n      0x20\n      dup2\n      dup4\n      sub\n      sub\n      dup2\n      mstore\n      swap1\n      0x40\n      mstore\n        /* \"@chainlink/contracts/src/v0.8/ChainlinkClient.sol\":7007:7047  keccak256(abi.encodePacked(this, nonce)) */\n      dup1\n      mload\n      swap1\n      0x20\n      add\n      keccak256\n        /* \"@chainlink/contracts/src/v0.8/ChainlinkClient.sol\":6995:7047  requestId = keccak256(abi.encodePacked(this, nonce)) */\n      swap1\n      pop\n        /* \"@chainlink/contracts/src/v0.8/ChainlinkClient.sol\":7084:7097  oracleAddress */\n      dup5\n        /* \"@chainlink/contracts/src/v0.8/ChainlinkClient.sol\":7053:7070  s_pendingRequests */\n      0x05\n        /* \"@chainlink/contracts/src/v0.8/ChainlinkClient.sol\":7053:7081  s_pendingRequests[requestId] */\n      0x00\n        /* \"@chainlink/contracts/src/v0.8/ChainlinkClient.sol\":7071:7080  requestId */\n      dup4\n        /* \"@chainlink/contracts/src/v0.8/ChainlinkClient.sol\":7053:7081  s_pendingRequests[requestId] */\n      dup2\n      mstore\n      0x20\n      add\n      swap1\n      dup2\n      mstore\n      0x20\n      add\n      0x00\n      keccak256\n      0x00\n        /* \"@chainlink/contracts/src/v0.8/ChainlinkClient.sol\":7053:7097  s_pendingRequests[requestId] = oracleAddress */\n      0x0100\n      exp\n      dup2\n      sload\n      dup2\n      0xffffffffffffffffffffffffffffffffffffffff\n      mul\n      not\n      and\n      swap1\n      dup4\n      0xffffffffffffffffffffffffffffffffffffffff\n      and\n      mul\n      or\n      swap1\n      sstore\n      pop\n        /* \"@chainlink/contracts/src/v0.8/ChainlinkClient.sol\":7127:7136  requestId */\n      dup1\n        /* \"@chainlink/contracts/src/v0.8/ChainlinkClient.sol\":7108:7137  ChainlinkRequested(requestId) */\n      0xb5e6e01e79f91267dc17b4e6314d5d4d03593d2ceee0fbb452b750bd70ea5af9\n      mload(0x40)\n      mload(0x40)\n      dup1\n      swap2\n      sub\n      swap1\n      log2\n        /* \"@chainlink/contracts/src/v0.8/ChainlinkClient.sol\":7151:7157  s_link */\n      0x02\n      0x00\n      swap1\n      sload\n      swap1\n      0x0100\n      exp\n      swap1\n      div\n      0xffffffffffffffffffffffffffffffffffffffff\n      and\n        /* \"@chainlink/contracts/src/v0.8/ChainlinkClient.sol\":7151:7173  s_link.transferAndCall */\n      0xffffffffffffffffffffffffffffffffffffffff\n      and\n      0x4000aea0\n        /* \"@chainlink/contracts/src/v0.8/ChainlinkClient.sol\":7174:7187  oracleAddress */\n      dup7\n        /* \"@chainlink/contracts/src/v0.8/ChainlinkClient.sol\":7189:7196  payment */\n      dup6\n        /* \"@chainlink/contracts/src/v0.8/ChainlinkClient.sol\":7198:7212  encodedRequest */\n      dup6\n        /* \"@chainlink/contracts/src/v0.8/ChainlinkClient.sol\":7151:7213  s_link.transferAndCall(oracleAddress, payment, encodedRequest) */\n      mload(0x40)\n      dup5\n      0xffffffff\n      and\n      0xe0\n      shl\n      dup2\n      mstore\n      0x04\n      add\n      tag_130\n      swap4\n      swap3\n      swap2\n      swap1\n      tag_131\n      jump\t// in\n    tag_130:\n      0x20\n      mload(0x40)\n      dup1\n      dup4\n      sub\n      dup2\n      0x00\n      dup8\n      gas\n      call\n      iszero\n      dup1\n      iszero\n      tag_133\n      jumpi\n      returndatasize\n      0x00\n      dup1\n      returndatacopy\n      revert(0x00, returndatasize)\n    tag_133:\n      pop\n      pop\n      pop\n      pop\n      mload(0x40)\n      returndatasize\n      not(0x1f)\n      0x1f\n      dup3\n      add\n      and\n      dup3\n      add\n      dup1\n      0x40\n      mstore\n      pop\n      dup2\n      add\n      swap1\n      tag_134\n      swap2\n      swap1\n      tag_135\n      jump\t// in\n    tag_134:\n        /* \"@chainlink/contracts/src/v0.8/ChainlinkClient.sol\":7143:7253  require(s_link.transferAndCall(oracleAddress, payment, encodedRequest), \"unable to transferAndCall to oracle\") */\n      tag_136\n      jumpi\n      mload(0x40)\n      0x08c379a000000000000000000000000000000000000000000000000000000000\n      dup2\n      mstore\n      0x04\n      add\n      tag_137\n      swap1\n      tag_138\n      jump\t// in\n    tag_137:\n      mload(0x40)\n      dup1\n      swap2\n      sub\n      swap1\n      revert\n    tag_136:\n        /* \"@chainlink/contracts/src/v0.8/ChainlinkClient.sol\":6828:7280  function _rawRequest(... */\n      swap5\n      swap4\n      pop\n      pop\n      pop\n      pop\n      jump\t// out\n        /* \"@chainlink/contracts/src/v0.8/vendor/BufferChainlink.sol\":6040:6185  function appendUint8(buffer memory buf, uint8 data) internal pure returns (buffer memory) {... */\n    tag_106:\n        /* \"@chainlink/contracts/src/v0.8/vendor/BufferChainlink.sol\":6115:6128  buffer memory */\n      tag_139\n      tag_94\n      jump\t// in\n    tag_139:\n        /* \"@chainlink/contracts/src/v0.8/vendor/BufferChainlink.sol\":6143:6180  writeUint8(buf, buf.buf.length, data) */\n      tag_141\n        /* \"@chainlink/contracts/src/v0.8/vendor/BufferChainlink.sol\":6154:6157  buf */\n      dup4\n        /* \"@chainlink/contracts/src/v0.8/vendor/BufferChainlink.sol\":6159:6162  buf */\n      dup5\n        /* \"@chainlink/contracts/src/v0.8/vendor/BufferChainlink.sol\":6159:6166  buf.buf */\n      0x00\n      add\n      mload\n        /* \"@chainlink/contracts/src/v0.8/vendor/BufferChainlink.sol\":6159:6173  buf.buf.length */\n      mload\n        /* \"@chainlink/contracts/src/v0.8/vendor/BufferChainlink.sol\":6175:6179  data */\n      dup5\n        /* \"@chainlink/contracts/src/v0.8/vendor/BufferChainlink.sol\":6143:6153  writeUint8 */\n      tag_142\n        /* \"@chainlink/contracts/src/v0.8/vendor/BufferChainlink.sol\":6143:6180  writeUint8(buf, buf.buf.length, data) */\n      jump\t// in\n    tag_141:\n        /* \"@chainlink/contracts/src/v0.8/vendor/BufferChainlink.sol\":6136:6180  return writeUint8(buf, buf.buf.length, data) */\n      swap1\n      pop\n        /* \"@chainlink/contracts/src/v0.8/vendor/BufferChainlink.sol\":6040:6185  function appendUint8(buffer memory buf, uint8 data) internal pure returns (buffer memory) {... */\n      swap3\n      swap2\n      pop\n      pop\n      jump\t// out\n        /* \"@chainlink/contracts/src/v0.8/vendor/BufferChainlink.sol\":9894:10071  function appendInt(... */\n    tag_111:\n        /* \"@chainlink/contracts/src/v0.8/vendor/BufferChainlink.sol\":9998:10011  buffer memory */\n      tag_143\n      tag_94\n      jump\t// in\n    tag_143:\n        /* \"@chainlink/contracts/src/v0.8/vendor/BufferChainlink.sol\":10026:10066  writeInt(buf, buf.buf.length, data, len) */\n      tag_145\n        /* \"@chainlink/contracts/src/v0.8/vendor/BufferChainlink.sol\":10035:10038  buf */\n      dup5\n        /* \"@chainlink/contracts/src/v0.8/vendor/BufferChainlink.sol\":10040:10043  buf */\n      dup6\n        /* \"@chainlink/contracts/src/v0.8/vendor/BufferChainlink.sol\":10040:10047  buf.buf */\n      0x00\n      add\n      mload\n        /* \"@chainlink/contracts/src/v0.8/vendor/BufferChainlink.sol\":10040:10054  buf.buf.length */\n      mload\n        /* \"@chainlink/contracts/src/v0.8/vendor/BufferChainlink.sol\":10056:10060  data */\n      dup6\n        /* \"@chainlink/contracts/src/v0.8/vendor/BufferChainlink.sol\":10062:10065  len */\n      dup6\n        /* \"@chainlink/contracts/src/v0.8/vendor/BufferChainlink.sol\":10026:10034  writeInt */\n      tag_146\n        /* \"@chainlink/contracts/src/v0.8/vendor/BufferChainlink.sol\":10026:10066  writeInt(buf, buf.buf.length, data, len) */\n      jump\t// in\n    tag_145:\n        /* \"@chainlink/contracts/src/v0.8/vendor/BufferChainlink.sol\":10019:10066  return writeInt(buf, buf.buf.length, data, len) */\n      swap1\n      pop\n        /* \"@chainlink/contracts/src/v0.8/vendor/BufferChainlink.sol\":9894:10071  function appendInt(... */\n      swap4\n      swap3\n      pop\n      pop\n      pop\n      jump\t// out\n        /* \"@chainlink/contracts/src/v0.8/vendor/BufferChainlink.sol\":2745:3955  function write(... */\n    tag_126:\n        /* \"@chainlink/contracts/src/v0.8/vendor/BufferChainlink.sol\":2867:2880  buffer memory */\n      tag_147\n      tag_94\n      jump\t// in\n    tag_147:\n        /* \"@chainlink/contracts/src/v0.8/vendor/BufferChainlink.sol\":2903:2907  data */\n      dup3\n        /* \"@chainlink/contracts/src/v0.8/vendor/BufferChainlink.sol\":2903:2914  data.length */\n      mload\n        /* \"@chainlink/contracts/src/v0.8/vendor/BufferChainlink.sol\":2896:2899  len */\n      dup3\n        /* \"@chainlink/contracts/src/v0.8/vendor/BufferChainlink.sol\":2896:2914  len <= data.length */\n      gt\n      iszero\n        /* \"@chainlink/contracts/src/v0.8/vendor/BufferChainlink.sol\":2888:2915  require(len <= data.length) */\n      tag_149\n      jumpi\n      0x00\n      dup1\n      revert\n    tag_149:\n        /* \"@chainlink/contracts/src/v0.8/vendor/BufferChainlink.sol\":2938:2941  buf */\n      dup5\n        /* \"@chainlink/contracts/src/v0.8/vendor/BufferChainlink.sol\":2938:2950  buf.capacity */\n      0x20\n      add\n      mload\n        /* \"@chainlink/contracts/src/v0.8/vendor/BufferChainlink.sol\":2932:2935  len */\n      dup3\n        /* \"@chainlink/contracts/src/v0.8/vendor/BufferChainlink.sol\":2926:2929  off */\n      dup6\n        /* \"@chainlink/contracts/src/v0.8/vendor/BufferChainlink.sol\":2926:2935  off + len */\n      tag_150\n      swap2\n      swap1\n      tag_88\n      jump\t// in\n    tag_150:\n        /* \"@chainlink/contracts/src/v0.8/vendor/BufferChainlink.sol\":2926:2950  off + len > buf.capacity */\n      gt\n        /* \"@chainlink/contracts/src/v0.8/vendor/BufferChainlink.sol\":2922:3012  if (off + len > buf.capacity) {... */\n      iszero\n      tag_151\n      jumpi\n        /* \"@chainlink/contracts/src/v0.8/vendor/BufferChainlink.sol\":2960:3005  resize(buf, max(buf.capacity, len + off) * 2) */\n      tag_152\n        /* \"@chainlink/contracts/src/v0.8/vendor/BufferChainlink.sol\":2967:2970  buf */\n      dup6\n        /* \"@chainlink/contracts/src/v0.8/vendor/BufferChainlink.sol\":3003:3004  2 */\n      0x02\n        /* \"@chainlink/contracts/src/v0.8/vendor/BufferChainlink.sol\":2972:3000  max(buf.capacity, len + off) */\n      tag_153\n        /* \"@chainlink/contracts/src/v0.8/vendor/BufferChainlink.sol\":2976:2979  buf */\n      dup9\n        /* \"@chainlink/contracts/src/v0.8/vendor/BufferChainlink.sol\":2976:2988  buf.capacity */\n      0x20\n      add\n      mload\n        /* \"@chainlink/contracts/src/v0.8/vendor/BufferChainlink.sol\":2996:2999  off */\n      dup9\n        /* \"@chainlink/contracts/src/v0.8/vendor/BufferChainlink.sol\":2990:2993  len */\n      dup8\n        /* \"@chainlink/contracts/src/v0.8/vendor/BufferChainlink.sol\":2990:2999  len + off */\n      tag_154\n      swap2\n      swap1\n      tag_88\n      jump\t// in\n    tag_154:\n        /* \"@chainlink/contracts/src/v0.8/vendor/BufferChainlink.sol\":2972:2975  max */\n      tag_155\n        /* \"@chainlink/contracts/src/v0.8/vendor/BufferChainlink.sol\":2972:3000  max(buf.capacity, len + off) */\n      jump\t// in\n    tag_153:\n        /* \"@chainlink/contracts/src/v0.8/vendor/BufferChainlink.sol\":2972:3004  max(buf.capacity, len + off) * 2 */\n      tag_156\n      swap2\n      swap1\n      tag_157\n      jump\t// in\n    tag_156:\n        /* \"@chainlink/contracts/src/v0.8/vendor/BufferChainlink.sol\":2960:2966  resize */\n      tag_158\n        /* \"@chainlink/contracts/src/v0.8/vendor/BufferChainlink.sol\":2960:3005  resize(buf, max(buf.capacity, len + off) * 2) */\n      jump\t// in\n    tag_152:\n        /* \"@chainlink/contracts/src/v0.8/vendor/BufferChainlink.sol\":2922:3012  if (off + len > buf.capacity) {... */\n    tag_151:\n        /* \"@chainlink/contracts/src/v0.8/vendor/BufferChainlink.sol\":3018:3030  uint256 dest */\n      0x00\n        /* \"@chainlink/contracts/src/v0.8/vendor/BufferChainlink.sol\":3036:3047  uint256 src */\n      dup1\n        /* \"@chainlink/contracts/src/v0.8/vendor/BufferChainlink.sol\":3133:3136  buf */\n      dup7\n        /* \"@chainlink/contracts/src/v0.8/vendor/BufferChainlink.sol\":3127:3137  mload(buf) */\n      mload\n        /* \"@chainlink/contracts/src/v0.8/vendor/BufferChainlink.sol\":3204:3210  bufptr */\n      dup1\n        /* \"@chainlink/contracts/src/v0.8/vendor/BufferChainlink.sol\":3198:3211  mload(bufptr) */\n      mload\n        /* \"@chainlink/contracts/src/v0.8/vendor/BufferChainlink.sol\":3320:3323  off */\n      dup8\n        /* \"@chainlink/contracts/src/v0.8/vendor/BufferChainlink.sol\":3315:3317  32 */\n      0x20\n        /* \"@chainlink/contracts/src/v0.8/vendor/BufferChainlink.sol\":3307:3313  bufptr */\n      dup4\n        /* \"@chainlink/contracts/src/v0.8/vendor/BufferChainlink.sol\":3303:3318  add(bufptr, 32) */\n      add\n        /* \"@chainlink/contracts/src/v0.8/vendor/BufferChainlink.sol\":3299:3324  add(add(bufptr, 32), off) */\n      add\n        /* \"@chainlink/contracts/src/v0.8/vendor/BufferChainlink.sol\":3291:3324  dest := add(add(bufptr, 32), off) */\n      swap4\n      pop\n        /* \"@chainlink/contracts/src/v0.8/vendor/BufferChainlink.sol\":3404:3410  buflen */\n      dup1\n        /* \"@chainlink/contracts/src/v0.8/vendor/BufferChainlink.sol\":3398:3401  off */\n      dup9\n        /* \"@chainlink/contracts/src/v0.8/vendor/BufferChainlink.sol\":3393:3396  len */\n      dup8\n        /* \"@chainlink/contracts/src/v0.8/vendor/BufferChainlink.sol\":3389:3402  add(len, off) */\n      add\n        /* \"@chainlink/contracts/src/v0.8/vendor/BufferChainlink.sol\":3386:3411  gt(add(len, off), buflen) */\n      gt\n        /* \"@chainlink/contracts/src/v0.8/vendor/BufferChainlink.sol\":3383:3459  if gt(add(len, off), buflen) {... */\n      iszero\n      tag_159\n      jumpi\n        /* \"@chainlink/contracts/src/v0.8/vendor/BufferChainlink.sol\":3446:3449  off */\n      dup8\n        /* \"@chainlink/contracts/src/v0.8/vendor/BufferChainlink.sol\":3441:3444  len */\n      dup7\n        /* \"@chainlink/contracts/src/v0.8/vendor/BufferChainlink.sol\":3437:3450  add(len, off) */\n      add\n        /* \"@chainlink/contracts/src/v0.8/vendor/BufferChainlink.sol\":3429:3435  bufptr */\n      dup3\n        /* \"@chainlink/contracts/src/v0.8/vendor/BufferChainlink.sol\":3422:3451  mstore(bufptr, add(len, off)) */\n      mstore\n        /* \"@chainlink/contracts/src/v0.8/vendor/BufferChainlink.sol\":3383:3459  if gt(add(len, off), buflen) {... */\n    tag_159:\n        /* \"@chainlink/contracts/src/v0.8/vendor/BufferChainlink.sol\":3483:3485  32 */\n      0x20\n        /* \"@chainlink/contracts/src/v0.8/vendor/BufferChainlink.sol\":3477:3481  data */\n      dup8\n        /* \"@chainlink/contracts/src/v0.8/vendor/BufferChainlink.sol\":3473:3486  add(data, 32) */\n      add\n        /* \"@chainlink/contracts/src/v0.8/vendor/BufferChainlink.sol\":3466:3486  src := add(data, 32) */\n      swap3\n      pop\n        /* \"@chainlink/contracts/src/v0.8/vendor/BufferChainlink.sol\":3062:3492  {... */\n      pop\n      pop\n        /* \"@chainlink/contracts/src/v0.8/vendor/BufferChainlink.sol\":3544:3673  for (; len >= 32; len -= 32) {... */\n    tag_160:\n        /* \"@chainlink/contracts/src/v0.8/vendor/BufferChainlink.sol\":3558:3560  32 */\n      0x20\n        /* \"@chainlink/contracts/src/v0.8/vendor/BufferChainlink.sol\":3551:3554  len */\n      dup5\n        /* \"@chainlink/contracts/src/v0.8/vendor/BufferChainlink.sol\":3551:3560  len >= 32 */\n      lt\n        /* \"@chainlink/contracts/src/v0.8/vendor/BufferChainlink.sol\":3544:3673  for (; len >= 32; len -= 32) {... */\n      tag_161\n      jumpi\n        /* \"@chainlink/contracts/src/v0.8/vendor/BufferChainlink.sol\":3619:3622  src */\n      dup1\n        /* \"@chainlink/contracts/src/v0.8/vendor/BufferChainlink.sol\":3613:3623  mload(src) */\n      mload\n        /* \"@chainlink/contracts/src/v0.8/vendor/BufferChainlink.sol\":3607:3611  dest */\n      dup3\n        /* \"@chainlink/contracts/src/v0.8/vendor/BufferChainlink.sol\":3600:3624  mstore(dest, mload(src)) */\n      mstore\n        /* \"@chainlink/contracts/src/v0.8/vendor/BufferChainlink.sol\":3647:3649  32 */\n      0x20\n        /* \"@chainlink/contracts/src/v0.8/vendor/BufferChainlink.sol\":3639:3649  dest += 32 */\n      dup3\n      tag_163\n      swap2\n      swap1\n      tag_88\n      jump\t// in\n    tag_163:\n      swap2\n      pop\n        /* \"@chainlink/contracts/src/v0.8/vendor/BufferChainlink.sol\":3664:3666  32 */\n      0x20\n        /* \"@chainlink/contracts/src/v0.8/vendor/BufferChainlink.sol\":3657:3666  src += 32 */\n      dup2\n      tag_164\n      swap2\n      swap1\n      tag_88\n      jump\t// in\n    tag_164:\n      swap1\n      pop\n        /* \"@chainlink/contracts/src/v0.8/vendor/BufferChainlink.sol\":3569:3571  32 */\n      0x20\n        /* \"@chainlink/contracts/src/v0.8/vendor/BufferChainlink.sol\":3562:3571  len -= 32 */\n      dup5\n      tag_165\n      swap2\n      swap1\n      tag_101\n      jump\t// in\n    tag_165:\n      swap4\n      pop\n        /* \"@chainlink/contracts/src/v0.8/vendor/BufferChainlink.sol\":3544:3673  for (; len >= 32; len -= 32) {... */\n      jump(tag_160)\n    tag_161:\n        /* \"@chainlink/contracts/src/v0.8/vendor/BufferChainlink.sol\":3725:3737  uint256 mask */\n      0x00\n        /* \"@chainlink/contracts/src/v0.8/vendor/BufferChainlink.sol\":3760:3761  1 */\n      0x01\n        /* \"@chainlink/contracts/src/v0.8/vendor/BufferChainlink.sol\":3752:3755  len */\n      dup6\n        /* \"@chainlink/contracts/src/v0.8/vendor/BufferChainlink.sol\":3747:3749  32 */\n      0x20\n        /* \"@chainlink/contracts/src/v0.8/vendor/BufferChainlink.sol\":3747:3755  32 - len */\n      sub\n        /* \"@chainlink/contracts/src/v0.8/vendor/BufferChainlink.sol\":3741:3744  256 */\n      0x0100\n        /* \"@chainlink/contracts/src/v0.8/vendor/BufferChainlink.sol\":3741:3756  256**(32 - len) */\n      exp\n        /* \"@chainlink/contracts/src/v0.8/vendor/BufferChainlink.sol\":3740:3761  (256**(32 - len)) - 1 */\n      sub\n        /* \"@chainlink/contracts/src/v0.8/vendor/BufferChainlink.sol\":3725:3761  uint256 mask = (256**(32 - len)) - 1 */\n      swap1\n      pop\n        /* \"@chainlink/contracts/src/v0.8/vendor/BufferChainlink.sol\":3823:3827  mask */\n      dup1\n        /* \"@chainlink/contracts/src/v0.8/vendor/BufferChainlink.sol\":3819:3828  not(mask) */\n      not\n        /* \"@chainlink/contracts/src/v0.8/vendor/BufferChainlink.sol\":3813:3816  src */\n      dup3\n        /* \"@chainlink/contracts/src/v0.8/vendor/BufferChainlink.sol\":3807:3817  mload(src) */\n      mload\n        /* \"@chainlink/contracts/src/v0.8/vendor/BufferChainlink.sol\":3803:3829  and(mload(src), not(mask)) */\n      and\n        /* \"@chainlink/contracts/src/v0.8/vendor/BufferChainlink.sol\":3871:3875  mask */\n      dup2\n        /* \"@chainlink/contracts/src/v0.8/vendor/BufferChainlink.sol\":3864:3868  dest */\n      dup5\n        /* \"@chainlink/contracts/src/v0.8/vendor/BufferChainlink.sol\":3858:3869  mload(dest) */\n      mload\n        /* \"@chainlink/contracts/src/v0.8/vendor/BufferChainlink.sol\":3854:3876  and(mload(dest), mask) */\n      and\n        /* \"@chainlink/contracts/src/v0.8/vendor/BufferChainlink.sol\":3911:3918  srcpart */\n      dup2\n        /* \"@chainlink/contracts/src/v0.8/vendor/BufferChainlink.sol\":3901:3909  destpart */\n      dup2\n        /* \"@chainlink/contracts/src/v0.8/vendor/BufferChainlink.sol\":3898:3919  or(destpart, srcpart) */\n      or\n        /* \"@chainlink/contracts/src/v0.8/vendor/BufferChainlink.sol\":3892:3896  dest */\n      dup6\n        /* \"@chainlink/contracts/src/v0.8/vendor/BufferChainlink.sol\":3885:3920  mstore(dest, or(destpart, srcpart)) */\n      mstore\n        /* \"@chainlink/contracts/src/v0.8/vendor/BufferChainlink.sol\":3778:3928  {... */\n      pop\n      pop\n      pop\n        /* \"@chainlink/contracts/src/v0.8/vendor/BufferChainlink.sol\":3947:3950  buf */\n      dup7\n        /* \"@chainlink/contracts/src/v0.8/vendor/BufferChainlink.sol\":3940:3950  return buf */\n      swap3\n      pop\n      pop\n      pop\n        /* \"@chainlink/contracts/src/v0.8/vendor/BufferChainlink.sol\":2745:3955  function write(... */\n      swap5\n      swap4\n      pop\n      pop\n      pop\n      pop\n      jump\t// out\n        /* \"@chainlink/contracts/src/v0.8/vendor/BufferChainlink.sol\":5148:5787  function writeUint8(... */\n    tag_142:\n        /* \"@chainlink/contracts/src/v0.8/vendor/BufferChainlink.sol\":5251:5264  buffer memory */\n      tag_166\n      tag_94\n      jump\t// in\n    tag_166:\n        /* \"@chainlink/contracts/src/v0.8/vendor/BufferChainlink.sol\":5283:5286  buf */\n      dup4\n        /* \"@chainlink/contracts/src/v0.8/vendor/BufferChainlink.sol\":5283:5295  buf.capacity */\n      0x20\n      add\n      mload\n        /* \"@chainlink/contracts/src/v0.8/vendor/BufferChainlink.sol\":5276:5279  off */\n      dup4\n        /* \"@chainlink/contracts/src/v0.8/vendor/BufferChainlink.sol\":5276:5295  off >= buf.capacity */\n      lt\n        /* \"@chainlink/contracts/src/v0.8/vendor/BufferChainlink.sol\":5272:5341  if (off >= buf.capacity) {... */\n      tag_168\n      jumpi\n        /* \"@chainlink/contracts/src/v0.8/vendor/BufferChainlink.sol\":5305:5334  resize(buf, buf.capacity * 2) */\n      tag_169\n        /* \"@chainlink/contracts/src/v0.8/vendor/BufferChainlink.sol\":5312:5315  buf */\n      dup5\n        /* \"@chainlink/contracts/src/v0.8/vendor/BufferChainlink.sol\":5332:5333  2 */\n      0x02\n        /* \"@chainlink/contracts/src/v0.8/vendor/BufferChainlink.sol\":5317:5320  buf */\n      dup7\n        /* \"@chainlink/contracts/src/v0.8/vendor/BufferChainlink.sol\":5317:5329  buf.capacity */\n      0x20\n      add\n      mload\n        /* \"@chainlink/contracts/src/v0.8/vendor/BufferChainlink.sol\":5317:5333  buf.capacity * 2 */\n      tag_170\n      swap2\n      swap1\n      tag_157\n      jump\t// in\n    tag_170:\n        /* \"@chainlink/contracts/src/v0.8/vendor/BufferChainlink.sol\":5305:5311  resize */\n      tag_158\n        /* \"@chainlink/contracts/src/v0.8/vendor/BufferChainlink.sol\":5305:5334  resize(buf, buf.capacity * 2) */\n      jump\t// in\n    tag_169:\n        /* \"@chainlink/contracts/src/v0.8/vendor/BufferChainlink.sol\":5272:5341  if (off >= buf.capacity) {... */\n    tag_168:\n        /* \"@chainlink/contracts/src/v0.8/vendor/BufferChainlink.sol\":5427:5430  buf */\n      dup4\n        /* \"@chainlink/contracts/src/v0.8/vendor/BufferChainlink.sol\":5421:5431  mload(buf) */\n      mload\n        /* \"@chainlink/contracts/src/v0.8/vendor/BufferChainlink.sol\":5498:5504  bufptr */\n      dup1\n        /* \"@chainlink/contracts/src/v0.8/vendor/BufferChainlink.sol\":5492:5505  mload(bufptr) */\n      mload\n        /* \"@chainlink/contracts/src/v0.8/vendor/BufferChainlink.sol\":5610:5612  32 */\n      0x20\n        /* \"@chainlink/contracts/src/v0.8/vendor/BufferChainlink.sol\":5604:5607  off */\n      dup6\n        /* \"@chainlink/contracts/src/v0.8/vendor/BufferChainlink.sol\":5596:5602  bufptr */\n      dup4\n        /* \"@chainlink/contracts/src/v0.8/vendor/BufferChainlink.sol\":5592:5608  add(bufptr, off) */\n      add\n        /* \"@chainlink/contracts/src/v0.8/vendor/BufferChainlink.sol\":5588:5613  add(add(bufptr, off), 32) */\n      add\n        /* \"@chainlink/contracts/src/v0.8/vendor/BufferChainlink.sol\":5634:5638  data */\n      dup5\n        /* \"@chainlink/contracts/src/v0.8/vendor/BufferChainlink.sol\":5628:5632  dest */\n      dup2\n        /* \"@chainlink/contracts/src/v0.8/vendor/BufferChainlink.sol\":5620:5639  mstore8(dest, data) */\n      mstore8\n        /* \"@chainlink/contracts/src/v0.8/vendor/BufferChainlink.sol\":5705:5711  buflen */\n      dup2\n        /* \"@chainlink/contracts/src/v0.8/vendor/BufferChainlink.sol\":5700:5703  off */\n      dup7\n        /* \"@chainlink/contracts/src/v0.8/vendor/BufferChainlink.sol\":5697:5712  eq(off, buflen) */\n      sub\n        /* \"@chainlink/contracts/src/v0.8/vendor/BufferChainlink.sol\":5694:5761  if eq(off, buflen) {... */\n      tag_171\n      jumpi\n        /* \"@chainlink/contracts/src/v0.8/vendor/BufferChainlink.sol\":5750:5751  1 */\n      0x01\n        /* \"@chainlink/contracts/src/v0.8/vendor/BufferChainlink.sol\":5742:5748  buflen */\n      dup3\n        /* \"@chainlink/contracts/src/v0.8/vendor/BufferChainlink.sol\":5738:5752  add(buflen, 1) */\n      add\n        /* \"@chainlink/contracts/src/v0.8/vendor/BufferChainlink.sol\":5730:5736  bufptr */\n      dup4\n        /* \"@chainlink/contracts/src/v0.8/vendor/BufferChainlink.sol\":5723:5753  mstore(bufptr, add(buflen, 1)) */\n      mstore\n        /* \"@chainlink/contracts/src/v0.8/vendor/BufferChainlink.sol\":5694:5761  if eq(off, buflen) {... */\n    tag_171:\n        /* \"@chainlink/contracts/src/v0.8/vendor/BufferChainlink.sol\":5356:5767  {... */\n      pop\n      pop\n      pop\n        /* \"@chainlink/contracts/src/v0.8/vendor/BufferChainlink.sol\":5779:5782  buf */\n      dup4\n        /* \"@chainlink/contracts/src/v0.8/vendor/BufferChainlink.sol\":5772:5782  return buf */\n      swap1\n      pop\n        /* \"@chainlink/contracts/src/v0.8/vendor/BufferChainlink.sol\":5148:5787  function writeUint8(... */\n      swap4\n      swap3\n      pop\n      pop\n      pop\n      jump\t// out\n        /* \"@chainlink/contracts/src/v0.8/vendor/BufferChainlink.sol\":8974:9649  function writeInt(... */\n    tag_146:\n        /* \"@chainlink/contracts/src/v0.8/vendor/BufferChainlink.sol\":9093:9106  buffer memory */\n      tag_172\n      tag_94\n      jump\t// in\n    tag_172:\n        /* \"@chainlink/contracts/src/v0.8/vendor/BufferChainlink.sol\":9130:9133  buf */\n      dup5\n        /* \"@chainlink/contracts/src/v0.8/vendor/BufferChainlink.sol\":9130:9142  buf.capacity */\n      0x20\n      add\n      mload\n        /* \"@chainlink/contracts/src/v0.8/vendor/BufferChainlink.sol\":9124:9127  off */\n      dup5\n        /* \"@chainlink/contracts/src/v0.8/vendor/BufferChainlink.sol\":9118:9121  len */\n      dup4\n        /* \"@chainlink/contracts/src/v0.8/vendor/BufferChainlink.sol\":9118:9127  len + off */\n      tag_174\n      swap2\n      swap1\n      tag_88\n      jump\t// in\n    tag_174:\n        /* \"@chainlink/contracts/src/v0.8/vendor/BufferChainlink.sol\":9118:9142  len + off > buf.capacity */\n      gt\n        /* \"@chainlink/contracts/src/v0.8/vendor/BufferChainlink.sol\":9114:9187  if (len + off > buf.capacity) {... */\n      iszero\n      tag_175\n      jumpi\n        /* \"@chainlink/contracts/src/v0.8/vendor/BufferChainlink.sol\":9152:9180  resize(buf, (len + off) * 2) */\n      tag_176\n        /* \"@chainlink/contracts/src/v0.8/vendor/BufferChainlink.sol\":9159:9162  buf */\n      dup6\n        /* \"@chainlink/contracts/src/v0.8/vendor/BufferChainlink.sol\":9178:9179  2 */\n      0x02\n        /* \"@chainlink/contracts/src/v0.8/vendor/BufferChainlink.sol\":9171:9174  off */\n      dup7\n        /* \"@chainlink/contracts/src/v0.8/vendor/BufferChainlink.sol\":9165:9168  len */\n      dup6\n        /* \"@chainlink/contracts/src/v0.8/vendor/BufferChainlink.sol\":9165:9174  len + off */\n      tag_177\n      swap2\n      swap1\n      tag_88\n      jump\t// in\n    tag_177:\n        /* \"@chainlink/contracts/src/v0.8/vendor/BufferChainlink.sol\":9164:9179  (len + off) * 2 */\n      tag_178\n      swap2\n      swap1\n      tag_157\n      jump\t// in\n    tag_178:\n        /* \"@chainlink/contracts/src/v0.8/vendor/BufferChainlink.sol\":9152:9158  resize */\n      tag_158\n        /* \"@chainlink/contracts/src/v0.8/vendor/BufferChainlink.sol\":9152:9180  resize(buf, (len + off) * 2) */\n      jump\t// in\n    tag_176:\n        /* \"@chainlink/contracts/src/v0.8/vendor/BufferChainlink.sol\":9114:9187  if (len + off > buf.capacity) {... */\n    tag_175:\n        /* \"@chainlink/contracts/src/v0.8/vendor/BufferChainlink.sol\":9193:9205  uint256 mask */\n      0x00\n        /* \"@chainlink/contracts/src/v0.8/vendor/BufferChainlink.sol\":9221:9222  1 */\n      0x01\n        /* \"@chainlink/contracts/src/v0.8/vendor/BufferChainlink.sol\":9214:9217  len */\n      dup4\n        /* \"@chainlink/contracts/src/v0.8/vendor/BufferChainlink.sol\":9209:9212  256 */\n      0x0100\n        /* \"@chainlink/contracts/src/v0.8/vendor/BufferChainlink.sol\":9209:9217  256**len */\n      tag_179\n      swap2\n      swap1\n      tag_180\n      jump\t// in\n    tag_179:\n        /* \"@chainlink/contracts/src/v0.8/vendor/BufferChainlink.sol\":9208:9222  (256**len) - 1 */\n      tag_181\n      swap2\n      swap1\n      tag_101\n      jump\t// in\n    tag_181:\n        /* \"@chainlink/contracts/src/v0.8/vendor/BufferChainlink.sol\":9193:9222  uint256 mask = (256**len) - 1 */\n      swap1\n      pop\n        /* \"@chainlink/contracts/src/v0.8/vendor/BufferChainlink.sol\":9308:9311  buf */\n      dup6\n        /* \"@chainlink/contracts/src/v0.8/vendor/BufferChainlink.sol\":9302:9312  mload(buf) */\n      mload\n        /* \"@chainlink/contracts/src/v0.8/vendor/BufferChainlink.sol\":9423:9426  len */\n      dup4\n        /* \"@chainlink/contracts/src/v0.8/vendor/BufferChainlink.sol\":9417:9420  off */\n      dup7\n        /* \"@chainlink/contracts/src/v0.8/vendor/BufferChainlink.sol\":9409:9415  bufptr */\n      dup3\n        /* \"@chainlink/contracts/src/v0.8/vendor/BufferChainlink.sol\":9405:9421  add(bufptr, off) */\n      add\n        /* \"@chainlink/contracts/src/v0.8/vendor/BufferChainlink.sol\":9401:9427  add(add(bufptr, off), len) */\n      add\n        /* \"@chainlink/contracts/src/v0.8/vendor/BufferChainlink.sol\":9479:9483  data */\n      dup6\n        /* \"@chainlink/contracts/src/v0.8/vendor/BufferChainlink.sol\":9471:9475  mask */\n      dup4\n        /* \"@chainlink/contracts/src/v0.8/vendor/BufferChainlink.sol\":9467:9476  not(mask) */\n      not\n        /* \"@chainlink/contracts/src/v0.8/vendor/BufferChainlink.sol\":9460:9464  dest */\n      dup3\n        /* \"@chainlink/contracts/src/v0.8/vendor/BufferChainlink.sol\":9454:9465  mload(dest) */\n      mload\n        /* \"@chainlink/contracts/src/v0.8/vendor/BufferChainlink.sol\":9450:9477  and(mload(dest), not(mask)) */\n      and\n        /* \"@chainlink/contracts/src/v0.8/vendor/BufferChainlink.sol\":9447:9484  or(and(mload(dest), not(mask)), data) */\n      or\n        /* \"@chainlink/contracts/src/v0.8/vendor/BufferChainlink.sol\":9441:9445  dest */\n      dup2\n        /* \"@chainlink/contracts/src/v0.8/vendor/BufferChainlink.sol\":9434:9485  mstore(dest, or(and(mload(dest), not(mask)), data)) */\n      mstore\n        /* \"@chainlink/contracts/src/v0.8/vendor/BufferChainlink.sol\":9567:9573  bufptr */\n      dup2\n        /* \"@chainlink/contracts/src/v0.8/vendor/BufferChainlink.sol\":9561:9574  mload(bufptr) */\n      mload\n        /* \"@chainlink/contracts/src/v0.8/vendor/BufferChainlink.sol\":9555:9558  len */\n      dup6\n        /* \"@chainlink/contracts/src/v0.8/vendor/BufferChainlink.sol\":9550:9553  off */\n      dup9\n        /* \"@chainlink/contracts/src/v0.8/vendor/BufferChainlink.sol\":9546:9559  add(off, len) */\n      add\n        /* \"@chainlink/contracts/src/v0.8/vendor/BufferChainlink.sol\":9543:9575  gt(add(off, len), mload(bufptr)) */\n      gt\n        /* \"@chainlink/contracts/src/v0.8/vendor/BufferChainlink.sol\":9540:9623  if gt(add(off, len), mload(bufptr)) {... */\n      iszero\n      tag_182\n      jumpi\n        /* \"@chainlink/contracts/src/v0.8/vendor/BufferChainlink.sol\":9610:9613  len */\n      dup5\n        /* \"@chainlink/contracts/src/v0.8/vendor/BufferChainlink.sol\":9605:9608  off */\n      dup8\n        /* \"@chainlink/contracts/src/v0.8/vendor/BufferChainlink.sol\":9601:9614  add(off, len) */\n      add\n        /* \"@chainlink/contracts/src/v0.8/vendor/BufferChainlink.sol\":9593:9599  bufptr */\n      dup3\n        /* \"@chainlink/contracts/src/v0.8/vendor/BufferChainlink.sol\":9586:9615  mstore(bufptr, add(off, len)) */\n      mstore\n        /* \"@chainlink/contracts/src/v0.8/vendor/BufferChainlink.sol\":9540:9623  if gt(add(off, len), mload(bufptr)) {... */\n    tag_182:\n        /* \"@chainlink/contracts/src/v0.8/vendor/BufferChainlink.sol\":9237:9629  {... */\n      pop\n      pop\n        /* \"@chainlink/contracts/src/v0.8/vendor/BufferChainlink.sol\":9641:9644  buf */\n      dup6\n        /* \"@chainlink/contracts/src/v0.8/vendor/BufferChainlink.sol\":9634:9644  return buf */\n      swap2\n      pop\n      pop\n        /* \"@chainlink/contracts/src/v0.8/vendor/BufferChainlink.sol\":8974:9649  function writeInt(... */\n      swap5\n      swap4\n      pop\n      pop\n      pop\n      pop\n      jump\t// out\n        /* \"@chainlink/contracts/src/v0.8/vendor/BufferChainlink.sol\":1961:2085  function max(uint256 a, uint256 b) private pure returns (uint256) {... */\n    tag_155:\n        /* \"@chainlink/contracts/src/v0.8/vendor/BufferChainlink.sol\":2018:2025  uint256 */\n      0x00\n        /* \"@chainlink/contracts/src/v0.8/vendor/BufferChainlink.sol\":2041:2042  b */\n      dup2\n        /* \"@chainlink/contracts/src/v0.8/vendor/BufferChainlink.sol\":2037:2038  a */\n      dup4\n        /* \"@chainlink/contracts/src/v0.8/vendor/BufferChainlink.sol\":2037:2042  a > b */\n      gt\n        /* \"@chainlink/contracts/src/v0.8/vendor/BufferChainlink.sol\":2033:2067  if (a > b) {... */\n      iszero\n      tag_184\n      jumpi\n        /* \"@chainlink/contracts/src/v0.8/vendor/BufferChainlink.sol\":2059:2060  a */\n      dup3\n        /* \"@chainlink/contracts/src/v0.8/vendor/BufferChainlink.sol\":2052:2060  return a */\n      swap1\n      pop\n      jump(tag_183)\n        /* \"@chainlink/contracts/src/v0.8/vendor/BufferChainlink.sol\":2033:2067  if (a > b) {... */\n    tag_184:\n        /* \"@chainlink/contracts/src/v0.8/vendor/BufferChainlink.sol\":2079:2080  b */\n      dup2\n        /* \"@chainlink/contracts/src/v0.8/vendor/BufferChainlink.sol\":2072:2080  return b */\n      swap1\n      pop\n        /* \"@chainlink/contracts/src/v0.8/vendor/BufferChainlink.sol\":1961:2085  function max(uint256 a, uint256 b) private pure returns (uint256) {... */\n    tag_183:\n      swap3\n      swap2\n      pop\n      pop\n      jump\t// out\n        /* \"@chainlink/contracts/src/v0.8/vendor/BufferChainlink.sol\":1801:1957  function resize(buffer memory buf, uint256 capacity) private pure {... */\n    tag_158:\n        /* \"@chainlink/contracts/src/v0.8/vendor/BufferChainlink.sol\":1873:1892  bytes memory oldbuf */\n      0x00\n        /* \"@chainlink/contracts/src/v0.8/vendor/BufferChainlink.sol\":1895:1898  buf */\n      dup3\n        /* \"@chainlink/contracts/src/v0.8/vendor/BufferChainlink.sol\":1895:1902  buf.buf */\n      0x00\n      add\n      mload\n        /* \"@chainlink/contracts/src/v0.8/vendor/BufferChainlink.sol\":1873:1902  bytes memory oldbuf = buf.buf */\n      swap1\n      pop\n        /* \"@chainlink/contracts/src/v0.8/vendor/BufferChainlink.sol\":1908:1927  init(buf, capacity) */\n      tag_186\n        /* \"@chainlink/contracts/src/v0.8/vendor/BufferChainlink.sol\":1913:1916  buf */\n      dup4\n        /* \"@chainlink/contracts/src/v0.8/vendor/BufferChainlink.sol\":1918:1926  capacity */\n      dup4\n        /* \"@chainlink/contracts/src/v0.8/vendor/BufferChainlink.sol\":1908:1912  init */\n      tag_80\n        /* \"@chainlink/contracts/src/v0.8/vendor/BufferChainlink.sol\":1908:1927  init(buf, capacity) */\n      jump\t// in\n    tag_186:\n      pop\n        /* \"@chainlink/contracts/src/v0.8/vendor/BufferChainlink.sol\":1933:1952  append(buf, oldbuf) */\n      tag_187\n        /* \"@chainlink/contracts/src/v0.8/vendor/BufferChainlink.sol\":1940:1943  buf */\n      dup4\n        /* \"@chainlink/contracts/src/v0.8/vendor/BufferChainlink.sol\":1945:1951  oldbuf */\n      dup3\n        /* \"@chainlink/contracts/src/v0.8/vendor/BufferChainlink.sol\":1933:1939  append */\n      tag_85\n        /* \"@chainlink/contracts/src/v0.8/vendor/BufferChainlink.sol\":1933:1952  append(buf, oldbuf) */\n      jump\t// in\n    tag_187:\n      pop\n        /* \"@chainlink/contracts/src/v0.8/vendor/BufferChainlink.sol\":1867:1957  {... */\n      pop\n        /* \"@chainlink/contracts/src/v0.8/vendor/BufferChainlink.sol\":1801:1957  function resize(buffer memory buf, uint256 capacity) private pure {... */\n      pop\n      pop\n      jump\t// out\n    tag_65:\n      mload(0x40)\n      dup1\n      0xa0\n      add\n      0x40\n      mstore\n      dup1\n      0x00\n      dup1\n      not\n      and\n      dup2\n      mstore\n      0x20\n      add\n      and(0xffffffffffffffffffffffffffffffffffffffff, 0x00)\n      dup2\n      mstore\n      0x20\n      add\n      and(not(0xffffffffffffffffffffffffffffffffffffffffffffffffffffffff), 0x00)\n      dup2\n      mstore\n      0x20\n      add\n      0x00\n      dup2\n      mstore\n      0x20\n      add\n      tag_188\n      tag_94\n      jump\t// in\n    tag_188:\n      dup2\n      mstore\n      pop\n      swap1\n      jump\t// out\n    tag_94:\n      mload(0x40)\n      dup1\n      0x40\n      add\n      0x40\n      mstore\n      dup1\n      0x60\n      dup2\n      mstore\n      0x20\n      add\n      0x00\n      dup2\n      mstore\n      pop\n      swap1\n      jump\t// out\n        /* \"#utility.yul\":88:205   */\n    tag_190:\n        /* \"#utility.yul\":197:198   */\n      0x00\n        /* \"#utility.yul\":194:195   */\n      dup1\n        /* \"#utility.yul\":187:199   */\n      revert\n        /* \"#utility.yul\":334:411   */\n    tag_192:\n        /* \"#utility.yul\":371:378   */\n      0x00\n        /* \"#utility.yul\":400:405   */\n      dup2\n        /* \"#utility.yul\":389:405   */\n      swap1\n      pop\n        /* \"#utility.yul\":334:411   */\n      swap2\n      swap1\n      pop\n      jump\t// out\n        /* \"#utility.yul\":417:539   */\n    tag_193:\n        /* \"#utility.yul\":490:514   */\n      tag_247\n        /* \"#utility.yul\":508:513   */\n      dup2\n        /* \"#utility.yul\":490:514   */\n      tag_192\n      jump\t// in\n    tag_247:\n        /* \"#utility.yul\":483:488   */\n      dup2\n        /* \"#utility.yul\":480:515   */\n      eq\n        /* \"#utility.yul\":470:533   */\n      tag_248\n      jumpi\n        /* \"#utility.yul\":529:530   */\n      0x00\n        /* \"#utility.yul\":526:527   */\n      dup1\n        /* \"#utility.yul\":519:531   */\n      revert\n        /* \"#utility.yul\":470:533   */\n    tag_248:\n        /* \"#utility.yul\":417:539   */\n      pop\n      jump\t// out\n        /* \"#utility.yul\":545:684   */\n    tag_194:\n        /* \"#utility.yul\":591:596   */\n      0x00\n        /* \"#utility.yul\":629:635   */\n      dup2\n        /* \"#utility.yul\":616:636   */\n      calldataload\n        /* \"#utility.yul\":607:636   */\n      swap1\n      pop\n        /* \"#utility.yul\":645:678   */\n      tag_250\n        /* \"#utility.yul\":672:677   */\n      dup2\n        /* \"#utility.yul\":645:678   */\n      tag_193\n      jump\t// in\n    tag_250:\n        /* \"#utility.yul\":545:684   */\n      swap3\n      swap2\n      pop\n      pop\n      jump\t// out\n        /* \"#utility.yul\":690:767   */\n    tag_195:\n        /* \"#utility.yul\":727:734   */\n      0x00\n        /* \"#utility.yul\":756:761   */\n      dup2\n        /* \"#utility.yul\":745:761   */\n      swap1\n      pop\n        /* \"#utility.yul\":690:767   */\n      swap2\n      swap1\n      pop\n      jump\t// out\n        /* \"#utility.yul\":773:895   */\n    tag_196:\n        /* \"#utility.yul\":846:870   */\n      tag_253\n        /* \"#utility.yul\":864:869   */\n      dup2\n        /* \"#utility.yul\":846:870   */\n      tag_195\n      jump\t// in\n    tag_253:\n        /* \"#utility.yul\":839:844   */\n      dup2\n        /* \"#utility.yul\":836:871   */\n      eq\n        /* \"#utility.yul\":826:889   */\n      tag_254\n      jumpi\n        /* \"#utility.yul\":885:886   */\n      0x00\n        /* \"#utility.yul\":882:883   */\n      dup1\n        /* \"#utility.yul\":875:887   */\n      revert\n        /* \"#utility.yul\":826:889   */\n    tag_254:\n        /* \"#utility.yul\":773:895   */\n      pop\n      jump\t// out\n        /* \"#utility.yul\":901:1040   */\n    tag_197:\n        /* \"#utility.yul\":947:952   */\n      0x00\n        /* \"#utility.yul\":985:991   */\n      dup2\n        /* \"#utility.yul\":972:992   */\n      calldataload\n        /* \"#utility.yul\":963:992   */\n      swap1\n      pop\n        /* \"#utility.yul\":1001:1034   */\n      tag_256\n        /* \"#utility.yul\":1028:1033   */\n      dup2\n        /* \"#utility.yul\":1001:1034   */\n      tag_196\n      jump\t// in\n    tag_256:\n        /* \"#utility.yul\":901:1040   */\n      swap3\n      swap2\n      pop\n      pop\n      jump\t// out\n        /* \"#utility.yul\":1046:1520   */\n    tag_11:\n        /* \"#utility.yul\":1114:1120   */\n      0x00\n        /* \"#utility.yul\":1122:1128   */\n      dup1\n        /* \"#utility.yul\":1171:1173   */\n      0x40\n        /* \"#utility.yul\":1159:1168   */\n      dup4\n        /* \"#utility.yul\":1150:1157   */\n      dup6\n        /* \"#utility.yul\":1146:1169   */\n      sub\n        /* \"#utility.yul\":1142:1174   */\n      slt\n        /* \"#utility.yul\":1139:1258   */\n      iszero\n      tag_258\n      jumpi\n        /* \"#utility.yul\":1177:1256   */\n      tag_259\n      tag_190\n      jump\t// in\n    tag_259:\n        /* \"#utility.yul\":1139:1258   */\n    tag_258:\n        /* \"#utility.yul\":1297:1298   */\n      0x00\n        /* \"#utility.yul\":1322:1375   */\n      tag_260\n        /* \"#utility.yul\":1367:1374   */\n      dup6\n        /* \"#utility.yul\":1358:1364   */\n      dup3\n        /* \"#utility.yul\":1347:1356   */\n      dup7\n        /* \"#utility.yul\":1343:1365   */\n      add\n        /* \"#utility.yul\":1322:1375   */\n      tag_194\n      jump\t// in\n    tag_260:\n        /* \"#utility.yul\":1312:1375   */\n      swap3\n      pop\n        /* \"#utility.yul\":1268:1385   */\n      pop\n        /* \"#utility.yul\":1424:1426   */\n      0x20\n        /* \"#utility.yul\":1450:1503   */\n      tag_261\n        /* \"#utility.yul\":1495:1502   */\n      dup6\n        /* \"#utility.yul\":1486:1492   */\n      dup3\n        /* \"#utility.yul\":1475:1484   */\n      dup7\n        /* \"#utility.yul\":1471:1493   */\n      add\n        /* \"#utility.yul\":1450:1503   */\n      tag_197\n      jump\t// in\n    tag_261:\n        /* \"#utility.yul\":1440:1503   */\n      swap2\n      pop\n        /* \"#utility.yul\":1395:1513   */\n      pop\n        /* \"#utility.yul\":1046:1520   */\n      swap3\n      pop\n      swap3\n      swap1\n      pop\n      jump\t// out\n        /* \"#utility.yul\":1526:1652   */\n    tag_198:\n        /* \"#utility.yul\":1563:1570   */\n      0x00\n        /* \"#utility.yul\":1603:1645   */\n      0xffffffffffffffffffffffffffffffffffffffff\n        /* \"#utility.yul\":1596:1601   */\n      dup3\n        /* \"#utility.yul\":1592:1646   */\n      and\n        /* \"#utility.yul\":1581:1646   */\n      swap1\n      pop\n        /* \"#utility.yul\":1526:1652   */\n      swap2\n      swap1\n      pop\n      jump\t// out\n        /* \"#utility.yul\":1658:1754   */\n    tag_199:\n        /* \"#utility.yul\":1695:1702   */\n      0x00\n        /* \"#utility.yul\":1724:1748   */\n      tag_264\n        /* \"#utility.yul\":1742:1747   */\n      dup3\n        /* \"#utility.yul\":1724:1748   */\n      tag_198\n      jump\t// in\n    tag_264:\n        /* \"#utility.yul\":1713:1748   */\n      swap1\n      pop\n        /* \"#utility.yul\":1658:1754   */\n      swap2\n      swap1\n      pop\n      jump\t// out\n        /* \"#utility.yul\":1760:1878   */\n    tag_200:\n        /* \"#utility.yul\":1847:1871   */\n      tag_266\n        /* \"#utility.yul\":1865:1870   */\n      dup2\n        /* \"#utility.yul\":1847:1871   */\n      tag_199\n      jump\t// in\n    tag_266:\n        /* \"#utility.yul\":1842:1845   */\n      dup3\n        /* \"#utility.yul\":1835:1872   */\n      mstore\n        /* \"#utility.yul\":1760:1878   */\n      pop\n      pop\n      jump\t// out\n        /* \"#utility.yul\":1884:2106   */\n    tag_18:\n        /* \"#utility.yul\":1977:1981   */\n      0x00\n        /* \"#utility.yul\":2015:2017   */\n      0x20\n        /* \"#utility.yul\":2004:2013   */\n      dup3\n        /* \"#utility.yul\":2000:2018   */\n      add\n        /* \"#utility.yul\":1992:2018   */\n      swap1\n      pop\n        /* \"#utility.yul\":2028:2099   */\n      tag_268\n        /* \"#utility.yul\":2096:2097   */\n      0x00\n        /* \"#utility.yul\":2085:2094   */\n      dup4\n        /* \"#utility.yul\":2081:2098   */\n      add\n        /* \"#utility.yul\":2072:2078   */\n      dup5\n        /* \"#utility.yul\":2028:2099   */\n      tag_200\n      jump\t// in\n    tag_268:\n        /* \"#utility.yul\":1884:2106   */\n      swap3\n      swap2\n      pop\n      pop\n      jump\t// out\n        /* \"#utility.yul\":2112:2230   */\n    tag_201:\n        /* \"#utility.yul\":2199:2223   */\n      tag_270\n        /* \"#utility.yul\":2217:2222   */\n      dup2\n        /* \"#utility.yul\":2199:2223   */\n      tag_195\n      jump\t// in\n    tag_270:\n        /* \"#utility.yul\":2194:2197   */\n      dup3\n        /* \"#utility.yul\":2187:2224   */\n      mstore\n        /* \"#utility.yul\":2112:2230   */\n      pop\n      pop\n      jump\t// out\n        /* \"#utility.yul\":2236:2458   */\n    tag_22:\n        /* \"#utility.yul\":2329:2333   */\n      0x00\n        /* \"#utility.yul\":2367:2369   */\n      0x20\n        /* \"#utility.yul\":2356:2365   */\n      dup3\n        /* \"#utility.yul\":2352:2370   */\n      add\n        /* \"#utility.yul\":2344:2370   */\n      swap1\n      pop\n        /* \"#utility.yul\":2380:2451   */\n      tag_272\n        /* \"#utility.yul\":2448:2449   */\n      0x00\n        /* \"#utility.yul\":2437:2446   */\n      dup4\n        /* \"#utility.yul\":2433:2450   */\n      add\n        /* \"#utility.yul\":2424:2430   */\n      dup5\n        /* \"#utility.yul\":2380:2451   */\n      tag_201\n      jump\t// in\n    tag_272:\n        /* \"#utility.yul\":2236:2458   */\n      swap3\n      swap2\n      pop\n      pop\n      jump\t// out\n        /* \"#utility.yul\":2464:2586   */\n    tag_202:\n        /* \"#utility.yul\":2537:2561   */\n      tag_274\n        /* \"#utility.yul\":2555:2560   */\n      dup2\n        /* \"#utility.yul\":2537:2561   */\n      tag_199\n      jump\t// in\n    tag_274:\n        /* \"#utility.yul\":2530:2535   */\n      dup2\n        /* \"#utility.yul\":2527:2562   */\n      eq\n        /* \"#utility.yul\":2517:2580   */\n      tag_275\n      jumpi\n        /* \"#utility.yul\":2576:2577   */\n      0x00\n        /* \"#utility.yul\":2573:2574   */\n      dup1\n        /* \"#utility.yul\":2566:2578   */\n      revert\n        /* \"#utility.yul\":2517:2580   */\n    tag_275:\n        /* \"#utility.yul\":2464:2586   */\n      pop\n      jump\t// out\n        /* \"#utility.yul\":2592:2731   */\n    tag_203:\n        /* \"#utility.yul\":2638:2643   */\n      0x00\n        /* \"#utility.yul\":2676:2682   */\n      dup2\n        /* \"#utility.yul\":2663:2683   */\n      calldataload\n        /* \"#utility.yul\":2654:2683   */\n      swap1\n      pop\n        /* \"#utility.yul\":2692:2725   */\n      tag_277\n        /* \"#utility.yul\":2719:2724   */\n      dup2\n        /* \"#utility.yul\":2692:2725   */\n      tag_202\n      jump\t// in\n    tag_277:\n        /* \"#utility.yul\":2592:2731   */\n      swap3\n      swap2\n      pop\n      pop\n      jump\t// out\n        /* \"#utility.yul\":2737:3066   */\n    tag_25:\n        /* \"#utility.yul\":2796:2802   */\n      0x00\n        /* \"#utility.yul\":2845:2847   */\n      0x20\n        /* \"#utility.yul\":2833:2842   */\n      dup3\n        /* \"#utility.yul\":2824:2831   */\n      dup5\n        /* \"#utility.yul\":2820:2843   */\n      sub\n        /* \"#utility.yul\":2816:2848   */\n      slt\n        /* \"#utility.yul\":2813:2932   */\n      iszero\n      tag_279\n      jumpi\n        /* \"#utility.yul\":2851:2930   */\n      tag_280\n      tag_190\n      jump\t// in\n    tag_280:\n        /* \"#utility.yul\":2813:2932   */\n    tag_279:\n        /* \"#utility.yul\":2971:2972   */\n      0x00\n        /* \"#utility.yul\":2996:3049   */\n      tag_281\n        /* \"#utility.yul\":3041:3048   */\n      dup5\n        /* \"#utility.yul\":3032:3038   */\n      dup3\n        /* \"#utility.yul\":3021:3030   */\n      dup6\n        /* \"#utility.yul\":3017:3039   */\n      add\n        /* \"#utility.yul\":2996:3049   */\n      tag_203\n      jump\t// in\n    tag_281:\n        /* \"#utility.yul\":2986:3049   */\n      swap2\n      pop\n        /* \"#utility.yul\":2942:3059   */\n      pop\n        /* \"#utility.yul\":2737:3066   */\n      swap3\n      swap2\n      pop\n      pop\n      jump\t// out\n        /* \"#utility.yul\":3072:3190   */\n    tag_204:\n        /* \"#utility.yul\":3159:3183   */\n      tag_283\n        /* \"#utility.yul\":3177:3182   */\n      dup2\n        /* \"#utility.yul\":3159:3183   */\n      tag_192\n      jump\t// in\n    tag_283:\n        /* \"#utility.yul\":3154:3157   */\n      dup3\n        /* \"#utility.yul\":3147:3184   */\n      mstore\n        /* \"#utility.yul\":3072:3190   */\n      pop\n      pop\n      jump\t// out\n        /* \"#utility.yul\":3196:3418   */\n    tag_30:\n        /* \"#utility.yul\":3289:3293   */\n      0x00\n        /* \"#utility.yul\":3327:3329   */\n      0x20\n        /* \"#utility.yul\":3316:3325   */\n      dup3\n        /* \"#utility.yul\":3312:3330   */\n      add\n        /* \"#utility.yul\":3304:3330   */\n      swap1\n      pop\n        /* \"#utility.yul\":3340:3411   */\n      tag_285\n        /* \"#utility.yul\":3408:3409   */\n      0x00\n        /* \"#utility.yul\":3397:3406   */\n      dup4\n        /* \"#utility.yul\":3393:3410   */\n      add\n        /* \"#utility.yul\":3384:3390   */\n      dup5\n        /* \"#utility.yul\":3340:3411   */\n      tag_204\n      jump\t// in\n    tag_285:\n        /* \"#utility.yul\":3196:3418   */\n      swap3\n      swap2\n      pop\n      pop\n      jump\t// out\n        /* \"#utility.yul\":3424:3593   */\n    tag_205:\n        /* \"#utility.yul\":3508:3519   */\n      0x00\n        /* \"#utility.yul\":3542:3548   */\n      dup3\n        /* \"#utility.yul\":3537:3540   */\n      dup3\n        /* \"#utility.yul\":3530:3549   */\n      mstore\n        /* \"#utility.yul\":3582:3586   */\n      0x20\n        /* \"#utility.yul\":3577:3580   */\n      dup3\n        /* \"#utility.yul\":3573:3587   */\n      add\n        /* \"#utility.yul\":3558:3587   */\n      swap1\n      pop\n        /* \"#utility.yul\":3424:3593   */\n      swap3\n      swap2\n      pop\n      pop\n      jump\t// out\n        /* \"#utility.yul\":3599:3826   */\n    tag_206:\n        /* \"#utility.yul\":3739:3773   */\n      0x536f75726365206d75737420626520746865206f7261636c65206f6620746865\n        /* \"#utility.yul\":3735:3736   */\n      0x00\n        /* \"#utility.yul\":3727:3733   */\n      dup3\n        /* \"#utility.yul\":3723:3737   */\n      add\n        /* \"#utility.yul\":3716:3774   */\n      mstore\n        /* \"#utility.yul\":3808:3818   */\n      0x2072657175657374000000000000000000000000000000000000000000000000\n        /* \"#utility.yul\":3803:3805   */\n      0x20\n        /* \"#utility.yul\":3795:3801   */\n      dup3\n        /* \"#utility.yul\":3791:3806   */\n      add\n        /* \"#utility.yul\":3784:3819   */\n      mstore\n        /* \"#utility.yul\":3599:3826   */\n      pop\n      jump\t// out\n        /* \"#utility.yul\":3832:4198   */\n    tag_207:\n        /* \"#utility.yul\":3974:3977   */\n      0x00\n        /* \"#utility.yul\":3995:4062   */\n      tag_289\n        /* \"#utility.yul\":4059:4061   */\n      0x28\n        /* \"#utility.yul\":4054:4057   */\n      dup4\n        /* \"#utility.yul\":3995:4062   */\n      tag_205\n      jump\t// in\n    tag_289:\n        /* \"#utility.yul\":3988:4062   */\n      swap2\n      pop\n        /* \"#utility.yul\":4071:4164   */\n      tag_290\n        /* \"#utility.yul\":4160:4163   */\n      dup3\n        /* \"#utility.yul\":4071:4164   */\n      tag_206\n      jump\t// in\n    tag_290:\n        /* \"#utility.yul\":4189:4191   */\n      0x40\n        /* \"#utility.yul\":4184:4187   */\n      dup3\n        /* \"#utility.yul\":4180:4192   */\n      add\n        /* \"#utility.yul\":4173:4192   */\n      swap1\n      pop\n        /* \"#utility.yul\":3832:4198   */\n      swap2\n      swap1\n      pop\n      jump\t// out\n        /* \"#utility.yul\":4204:4623   */\n    tag_34:\n        /* \"#utility.yul\":4370:4374   */\n      0x00\n        /* \"#utility.yul\":4408:4410   */\n      0x20\n        /* \"#utility.yul\":4397:4406   */\n      dup3\n        /* \"#utility.yul\":4393:4411   */\n      add\n        /* \"#utility.yul\":4385:4411   */\n      swap1\n      pop\n        /* \"#utility.yul\":4457:4466   */\n      dup2\n        /* \"#utility.yul\":4451:4455   */\n      dup2\n        /* \"#utility.yul\":4447:4467   */\n      sub\n        /* \"#utility.yul\":4443:4444   */\n      0x00\n        /* \"#utility.yul\":4432:4441   */\n      dup4\n        /* \"#utility.yul\":4428:4445   */\n      add\n        /* \"#utility.yul\":4421:4468   */\n      mstore\n        /* \"#utility.yul\":4485:4616   */\n      tag_292\n        /* \"#utility.yul\":4611:4615   */\n      dup2\n        /* \"#utility.yul\":4485:4616   */\n      tag_207\n      jump\t// in\n    tag_292:\n        /* \"#utility.yul\":4477:4616   */\n      swap1\n      pop\n        /* \"#utility.yul\":4204:4623   */\n      swap2\n      swap1\n      pop\n      jump\t// out\n        /* \"#utility.yul\":4629:4801   */\n    tag_208:\n        /* \"#utility.yul\":4769:4793   */\n      0x4d7573742062652070726f706f736564206f776e657200000000000000000000\n        /* \"#utility.yul\":4765:4766   */\n      0x00\n        /* \"#utility.yul\":4757:4763   */\n      dup3\n        /* \"#utility.yul\":4753:4767   */\n      add\n        /* \"#utility.yul\":4746:4794   */\n      mstore\n        /* \"#utility.yul\":4629:4801   */\n      pop\n      jump\t// out\n        /* \"#utility.yul\":4807:5173   */\n    tag_209:\n        /* \"#utility.yul\":4949:4952   */\n      0x00\n        /* \"#utility.yul\":4970:5037   */\n      tag_295\n        /* \"#utility.yul\":5034:5036   */\n      0x16\n        /* \"#utility.yul\":5029:5032   */\n      dup4\n        /* \"#utility.yul\":4970:5037   */\n      tag_205\n      jump\t// in\n    tag_295:\n        /* \"#utility.yul\":4963:5037   */\n      swap2\n      pop\n        /* \"#utility.yul\":5046:5139   */\n      tag_296\n        /* \"#utility.yul\":5135:5138   */\n      dup3\n        /* \"#utility.yul\":5046:5139   */\n      tag_208\n      jump\t// in\n    tag_296:\n        /* \"#utility.yul\":5164:5166   */\n      0x20\n        /* \"#utility.yul\":5159:5162   */\n      dup3\n        /* \"#utility.yul\":5155:5167   */\n      add\n        /* \"#utility.yul\":5148:5167   */\n      swap1\n      pop\n        /* \"#utility.yul\":4807:5173   */\n      swap2\n      swap1\n      pop\n      jump\t// out\n        /* \"#utility.yul\":5179:5598   */\n    tag_40:\n        /* \"#utility.yul\":5345:5349   */\n      0x00\n        /* \"#utility.yul\":5383:5385   */\n      0x20\n        /* \"#utility.yul\":5372:5381   */\n      dup3\n        /* \"#utility.yul\":5368:5386   */\n      add\n        /* \"#utility.yul\":5360:5386   */\n      swap1\n      pop\n        /* \"#utility.yul\":5432:5441   */\n      dup2\n        /* \"#utility.yul\":5426:5430   */\n      dup2\n        /* \"#utility.yul\":5422:5442   */\n      sub\n        /* \"#utility.yul\":5418:5419   */\n      0x00\n        /* \"#utility.yul\":5407:5416   */\n      dup4\n        /* \"#utility.yul\":5403:5420   */\n      add\n        /* \"#utility.yul\":5396:5443   */\n      mstore\n        /* \"#utility.yul\":5460:5591   */\n      tag_298\n        /* \"#utility.yul\":5586:5590   */\n      dup2\n        /* \"#utility.yul\":5460:5591   */\n      tag_209\n      jump\t// in\n    tag_298:\n        /* \"#utility.yul\":5452:5591   */\n      swap1\n      pop\n        /* \"#utility.yul\":5179:5598   */\n      swap2\n      swap1\n      pop\n      jump\t// out\n        /* \"#utility.yul\":5604:5776   */\n    tag_210:\n        /* \"#utility.yul\":5744:5768   */\n      0x4f6e6c792063616c6c61626c65206279206f776e657200000000000000000000\n        /* \"#utility.yul\":5740:5741   */\n      0x00\n        /* \"#utility.yul\":5732:5738   */\n      dup3\n        /* \"#utility.yul\":5728:5742   */\n      add\n        /* \"#utility.yul\":5721:5769   */\n      mstore\n        /* \"#utility.yul\":5604:5776   */\n      pop\n      jump\t// out\n        /* \"#utility.yul\":5782:6148   */\n    tag_211:\n        /* \"#utility.yul\":5924:5927   */\n      0x00\n        /* \"#utility.yul\":5945:6012   */\n      tag_301\n        /* \"#utility.yul\":6009:6011   */\n      0x16\n        /* \"#utility.yul\":6004:6007   */\n      dup4\n        /* \"#utility.yul\":5945:6012   */\n      tag_205\n      jump\t// in\n    tag_301:\n        /* \"#utility.yul\":5938:6012   */\n      swap2\n      pop\n        /* \"#utility.yul\":6021:6114   */\n      tag_302\n        /* \"#utility.yul\":6110:6113   */\n      dup3\n        /* \"#utility.yul\":6021:6114   */\n      tag_210\n      jump\t// in\n    tag_302:\n        /* \"#utility.yul\":6139:6141   */\n      0x20\n        /* \"#utility.yul\":6134:6137   */\n      dup3\n        /* \"#utility.yul\":6130:6142   */\n      add\n        /* \"#utility.yul\":6123:6142   */\n      swap1\n      pop\n        /* \"#utility.yul\":5782:6148   */\n      swap2\n      swap1\n      pop\n      jump\t// out\n        /* \"#utility.yul\":6154:6573   */\n    tag_59:\n        /* \"#utility.yul\":6320:6324   */\n      0x00\n        /* \"#utility.yul\":6358:6360   */\n      0x20\n        /* \"#utility.yul\":6347:6356   */\n      dup3\n        /* \"#utility.yul\":6343:6361   */\n      add\n        /* \"#utility.yul\":6335:6361   */\n      swap1\n      pop\n        /* \"#utility.yul\":6407:6416   */\n      dup2\n        /* \"#utility.yul\":6401:6405   */\n      dup2\n        /* \"#utility.yul\":6397:6417   */\n      sub\n        /* \"#utility.yul\":6393:6394   */\n      0x00\n        /* \"#utility.yul\":6382:6391   */\n      dup4\n        /* \"#utility.yul\":6378:6395   */\n      add\n        /* \"#utility.yul\":6371:6418   */\n      mstore\n        /* \"#utility.yul\":6435:6566   */\n      tag_304\n        /* \"#utility.yul\":6561:6565   */\n      dup2\n        /* \"#utility.yul\":6435:6566   */\n      tag_211\n      jump\t// in\n    tag_304:\n        /* \"#utility.yul\":6427:6566   */\n      swap1\n      pop\n        /* \"#utility.yul\":6154:6573   */\n      swap2\n      swap1\n      pop\n      jump\t// out\n        /* \"#utility.yul\":6579:6752   */\n    tag_212:\n        /* \"#utility.yul\":6719:6744   */\n      0x43616e6e6f74207472616e7366657220746f2073656c66000000000000000000\n        /* \"#utility.yul\":6715:6716   */\n      0x00\n        /* \"#utility.yul\":6707:6713   */\n      dup3\n        /* \"#utility.yul\":6703:6717   */\n      add\n        /* \"#utility.yul\":6696:6745   */\n      mstore\n        /* \"#utility.yul\":6579:6752   */\n      pop\n      jump\t// out\n        /* \"#utility.yul\":6758:7124   */\n    tag_213:\n        /* \"#utility.yul\":6900:6903   */\n      0x00\n        /* \"#utility.yul\":6921:6988   */\n      tag_307\n        /* \"#utility.yul\":6985:6987   */\n      0x17\n        /* \"#utility.yul\":6980:6983   */\n      dup4\n        /* \"#utility.yul\":6921:6988   */\n      tag_205\n      jump\t// in\n    tag_307:\n        /* \"#utility.yul\":6914:6988   */\n      swap2\n      pop\n        /* \"#utility.yul\":6997:7090   */\n      tag_308\n        /* \"#utility.yul\":7086:7089   */\n      dup3\n        /* \"#utility.yul\":6997:7090   */\n      tag_212\n      jump\t// in\n    tag_308:\n        /* \"#utility.yul\":7115:7117   */\n      0x20\n        /* \"#utility.yul\":7110:7113   */\n      dup3\n        /* \"#utility.yul\":7106:7118   */\n      add\n        /* \"#utility.yul\":7099:7118   */\n      swap1\n      pop\n        /* \"#utility.yul\":6758:7124   */\n      swap2\n      swap1\n      pop\n      jump\t// out\n        /* \"#utility.yul\":7130:7549   */\n    tag_63:\n        /* \"#utility.yul\":7296:7300   */\n      0x00\n        /* \"#utility.yul\":7334:7336   */\n      0x20\n        /* \"#utility.yul\":7323:7332   */\n      dup3\n        /* \"#utility.yul\":7319:7337   */\n      add\n        /* \"#utility.yul\":7311:7337   */\n      swap1\n      pop\n        /* \"#utility.yul\":7383:7392   */\n      dup2\n        /* \"#utility.yul\":7377:7381   */\n      dup2\n        /* \"#utility.yul\":7373:7393   */\n      sub\n        /* \"#utility.yul\":7369:7370   */\n      0x00\n        /* \"#utility.yul\":7358:7367   */\n      dup4\n        /* \"#utility.yul\":7354:7371   */\n      add\n        /* \"#utility.yul\":7347:7394   */\n      mstore\n        /* \"#utility.yul\":7411:7542   */\n      tag_310\n        /* \"#utility.yul\":7537:7541   */\n      dup2\n        /* \"#utility.yul\":7411:7542   */\n      tag_213\n      jump\t// in\n    tag_310:\n        /* \"#utility.yul\":7403:7542   */\n      swap1\n      pop\n        /* \"#utility.yul\":7130:7549   */\n      swap2\n      swap1\n      pop\n      jump\t// out\n        /* \"#utility.yul\":7555:7735   */\n    tag_214:\n        /* \"#utility.yul\":7603:7680   */\n      0x4e487b7100000000000000000000000000000000000000000000000000000000\n        /* \"#utility.yul\":7600:7601   */\n      0x00\n        /* \"#utility.yul\":7593:7681   */\n      mstore\n        /* \"#utility.yul\":7700:7704   */\n      0x11\n        /* \"#utility.yul\":7697:7698   */\n      0x04\n        /* \"#utility.yul\":7690:7705   */\n      mstore\n        /* \"#utility.yul\":7724:7728   */\n      0x24\n        /* \"#utility.yul\":7721:7722   */\n      0x00\n        /* \"#utility.yul\":7714:7729   */\n      revert\n        /* \"#utility.yul\":7741:7932   */\n    tag_88:\n        /* \"#utility.yul\":7781:7784   */\n      0x00\n        /* \"#utility.yul\":7800:7820   */\n      tag_313\n        /* \"#utility.yul\":7818:7819   */\n      dup3\n        /* \"#utility.yul\":7800:7820   */\n      tag_195\n      jump\t// in\n    tag_313:\n        /* \"#utility.yul\":7795:7820   */\n      swap2\n      pop\n        /* \"#utility.yul\":7834:7854   */\n      tag_314\n        /* \"#utility.yul\":7852:7853   */\n      dup4\n        /* \"#utility.yul\":7834:7854   */\n      tag_195\n      jump\t// in\n    tag_314:\n        /* \"#utility.yul\":7829:7854   */\n      swap3\n      pop\n        /* \"#utility.yul\":7877:7878   */\n      dup3\n        /* \"#utility.yul\":7874:7875   */\n      dup3\n        /* \"#utility.yul\":7870:7879   */\n      add\n        /* \"#utility.yul\":7863:7879   */\n      swap1\n      pop\n        /* \"#utility.yul\":7898:7901   */\n      dup1\n        /* \"#utility.yul\":7895:7896   */\n      dup3\n        /* \"#utility.yul\":7892:7902   */\n      gt\n        /* \"#utility.yul\":7889:7925   */\n      iszero\n      tag_315\n      jumpi\n        /* \"#utility.yul\":7905:7923   */\n      tag_316\n      tag_214\n      jump\t// in\n    tag_316:\n        /* \"#utility.yul\":7889:7925   */\n    tag_315:\n        /* \"#utility.yul\":7741:7932   */\n      swap3\n      swap2\n      pop\n      pop\n      jump\t// out\n        /* \"#utility.yul\":7938:8087   */\n    tag_215:\n        /* \"#utility.yul\":7974:7981   */\n      0x00\n        /* \"#utility.yul\":8014:8080   */\n      0xffffffff00000000000000000000000000000000000000000000000000000000\n        /* \"#utility.yul\":8007:8012   */\n      dup3\n        /* \"#utility.yul\":8003:8081   */\n      and\n        /* \"#utility.yul\":7992:8081   */\n      swap1\n      pop\n        /* \"#utility.yul\":7938:8087   */\n      swap2\n      swap1\n      pop\n      jump\t// out\n        /* \"#utility.yul\":8093:8208   */\n    tag_216:\n        /* \"#utility.yul\":8178:8201   */\n      tag_319\n        /* \"#utility.yul\":8195:8200   */\n      dup2\n        /* \"#utility.yul\":8178:8201   */\n      tag_215\n      jump\t// in\n    tag_319:\n        /* \"#utility.yul\":8173:8176   */\n      dup3\n        /* \"#utility.yul\":8166:8202   */\n      mstore\n        /* \"#utility.yul\":8093:8208   */\n      pop\n      pop\n      jump\t// out\n        /* \"#utility.yul\":8214:8312   */\n    tag_217:\n        /* \"#utility.yul\":8265:8271   */\n      0x00\n        /* \"#utility.yul\":8299:8304   */\n      dup2\n        /* \"#utility.yul\":8293:8305   */\n      mload\n        /* \"#utility.yul\":8283:8305   */\n      swap1\n      pop\n        /* \"#utility.yul\":8214:8312   */\n      swap2\n      swap1\n      pop\n      jump\t// out\n        /* \"#utility.yul\":8318:8486   */\n    tag_218:\n        /* \"#utility.yul\":8401:8412   */\n      0x00\n        /* \"#utility.yul\":8435:8441   */\n      dup3\n        /* \"#utility.yul\":8430:8433   */\n      dup3\n        /* \"#utility.yul\":8423:8442   */\n      mstore\n        /* \"#utility.yul\":8475:8479   */\n      0x20\n        /* \"#utility.yul\":8470:8473   */\n      dup3\n        /* \"#utility.yul\":8466:8480   */\n      add\n        /* \"#utility.yul\":8451:8480   */\n      swap1\n      pop\n        /* \"#utility.yul\":8318:8486   */\n      swap3\n      swap2\n      pop\n      pop\n      jump\t// out\n        /* \"#utility.yul\":8492:8738   */\n    tag_219:\n        /* \"#utility.yul\":8573:8574   */\n      0x00\n        /* \"#utility.yul\":8583:8696   */\n    tag_323:\n        /* \"#utility.yul\":8597:8603   */\n      dup4\n        /* \"#utility.yul\":8594:8595   */\n      dup2\n        /* \"#utility.yul\":8591:8604   */\n      lt\n        /* \"#utility.yul\":8583:8696   */\n      iszero\n      tag_325\n      jumpi\n        /* \"#utility.yul\":8682:8683   */\n      dup1\n        /* \"#utility.yul\":8677:8680   */\n      dup3\n        /* \"#utility.yul\":8673:8684   */\n      add\n        /* \"#utility.yul\":8667:8685   */\n      mload\n        /* \"#utility.yul\":8663:8664   */\n      dup2\n        /* \"#utility.yul\":8658:8661   */\n      dup5\n        /* \"#utility.yul\":8654:8665   */\n      add\n        /* \"#utility.yul\":8647:8686   */\n      mstore\n        /* \"#utility.yul\":8619:8621   */\n      0x20\n        /* \"#utility.yul\":8616:8617   */\n      dup2\n        /* \"#utility.yul\":8612:8622   */\n      add\n        /* \"#utility.yul\":8607:8622   */\n      swap1\n      pop\n        /* \"#utility.yul\":8583:8696   */\n      jump(tag_323)\n    tag_325:\n        /* \"#utility.yul\":8730:8731   */\n      0x00\n        /* \"#utility.yul\":8721:8727   */\n      dup5\n        /* \"#utility.yul\":8716:8719   */\n      dup5\n        /* \"#utility.yul\":8712:8728   */\n      add\n        /* \"#utility.yul\":8705:8732   */\n      mstore\n        /* \"#utility.yul\":8554:8738   */\n      pop\n        /* \"#utility.yul\":8492:8738   */\n      pop\n      pop\n      pop\n      jump\t// out\n        /* \"#utility.yul\":8744:8846   */\n    tag_220:\n        /* \"#utility.yul\":8785:8791   */\n      0x00\n        /* \"#utility.yul\":8836:8838   */\n      0x1f\n        /* \"#utility.yul\":8832:8839   */\n      not\n        /* \"#utility.yul\":8827:8829   */\n      0x1f\n        /* \"#utility.yul\":8820:8825   */\n      dup4\n        /* \"#utility.yul\":8816:8830   */\n      add\n        /* \"#utility.yul\":8812:8840   */\n      and\n        /* \"#utility.yul\":8802:8840   */\n      swap1\n      pop\n        /* \"#utility.yul\":8744:8846   */\n      swap2\n      swap1\n      pop\n      jump\t// out\n        /* \"#utility.yul\":8852:9225   */\n    tag_221:\n        /* \"#utility.yul\":8938:8941   */\n      0x00\n        /* \"#utility.yul\":8966:9004   */\n      tag_328\n        /* \"#utility.yul\":8998:9003   */\n      dup3\n        /* \"#utility.yul\":8966:9004   */\n      tag_217\n      jump\t// in\n    tag_328:\n        /* \"#utility.yul\":9020:9090   */\n      tag_329\n        /* \"#utility.yul\":9083:9089   */\n      dup2\n        /* \"#utility.yul\":9078:9081   */\n      dup6\n        /* \"#utility.yul\":9020:9090   */\n      tag_218\n      jump\t// in\n    tag_329:\n        /* \"#utility.yul\":9013:9090   */\n      swap4\n      pop\n        /* \"#utility.yul\":9099:9164   */\n      tag_330\n        /* \"#utility.yul\":9157:9163   */\n      dup2\n        /* \"#utility.yul\":9152:9155   */\n      dup6\n        /* \"#utility.yul\":9145:9149   */\n      0x20\n        /* \"#utility.yul\":9138:9143   */\n      dup7\n        /* \"#utility.yul\":9134:9150   */\n      add\n        /* \"#utility.yul\":9099:9164   */\n      tag_219\n      jump\t// in\n    tag_330:\n        /* \"#utility.yul\":9189:9218   */\n      tag_331\n        /* \"#utility.yul\":9211:9217   */\n      dup2\n        /* \"#utility.yul\":9189:9218   */\n      tag_220\n      jump\t// in\n    tag_331:\n        /* \"#utility.yul\":9184:9187   */\n      dup5\n        /* \"#utility.yul\":9180:9219   */\n      add\n        /* \"#utility.yul\":9173:9219   */\n      swap2\n      pop\n        /* \"#utility.yul\":8942:9225   */\n      pop\n        /* \"#utility.yul\":8852:9225   */\n      swap3\n      swap2\n      pop\n      pop\n      jump\t// out\n        /* \"#utility.yul\":9231:10311   */\n    tag_90:\n        /* \"#utility.yul\":9536:9540   */\n      0x00\n        /* \"#utility.yul\":9574:9577   */\n      0x0100\n        /* \"#utility.yul\":9563:9572   */\n      dup3\n        /* \"#utility.yul\":9559:9578   */\n      add\n        /* \"#utility.yul\":9551:9578   */\n      swap1\n      pop\n        /* \"#utility.yul\":9588:9659   */\n      tag_333\n        /* \"#utility.yul\":9656:9657   */\n      0x00\n        /* \"#utility.yul\":9645:9654   */\n      dup4\n        /* \"#utility.yul\":9641:9658   */\n      add\n        /* \"#utility.yul\":9632:9638   */\n      dup12\n        /* \"#utility.yul\":9588:9659   */\n      tag_200\n      jump\t// in\n    tag_333:\n        /* \"#utility.yul\":9669:9741   */\n      tag_334\n        /* \"#utility.yul\":9737:9739   */\n      0x20\n        /* \"#utility.yul\":9726:9735   */\n      dup4\n        /* \"#utility.yul\":9722:9740   */\n      add\n        /* \"#utility.yul\":9713:9719   */\n      dup11\n        /* \"#utility.yul\":9669:9741   */\n      tag_201\n      jump\t// in\n    tag_334:\n        /* \"#utility.yul\":9751:9823   */\n      tag_335\n        /* \"#utility.yul\":9819:9821   */\n      0x40\n        /* \"#utility.yul\":9808:9817   */\n      dup4\n        /* \"#utility.yul\":9804:9822   */\n      add\n        /* \"#utility.yul\":9795:9801   */\n      dup10\n        /* \"#utility.yul\":9751:9823   */\n      tag_204\n      jump\t// in\n    tag_335:\n        /* \"#utility.yul\":9833:9905   */\n      tag_336\n        /* \"#utility.yul\":9901:9903   */\n      0x60\n        /* \"#utility.yul\":9890:9899   */\n      dup4\n        /* \"#utility.yul\":9886:9904   */\n      add\n        /* \"#utility.yul\":9877:9883   */\n      dup9\n        /* \"#utility.yul\":9833:9905   */\n      tag_200\n      jump\t// in\n    tag_336:\n        /* \"#utility.yul\":9915:9986   */\n      tag_337\n        /* \"#utility.yul\":9981:9984   */\n      0x80\n        /* \"#utility.yul\":9970:9979   */\n      dup4\n        /* \"#utility.yul\":9966:9985   */\n      add\n        /* \"#utility.yul\":9957:9963   */\n      dup8\n        /* \"#utility.yul\":9915:9986   */\n      tag_216\n      jump\t// in\n    tag_337:\n        /* \"#utility.yul\":9996:10069   */\n      tag_338\n        /* \"#utility.yul\":10064:10067   */\n      0xa0\n        /* \"#utility.yul\":10053:10062   */\n      dup4\n        /* \"#utility.yul\":10049:10068   */\n      add\n        /* \"#utility.yul\":10040:10046   */\n      dup7\n        /* \"#utility.yul\":9996:10069   */\n      tag_201\n      jump\t// in\n    tag_338:\n        /* \"#utility.yul\":10079:10152   */\n      tag_339\n        /* \"#utility.yul\":10147:10150   */\n      0xc0\n        /* \"#utility.yul\":10136:10145   */\n      dup4\n        /* \"#utility.yul\":10132:10151   */\n      add\n        /* \"#utility.yul\":10123:10129   */\n      dup6\n        /* \"#utility.yul\":10079:10152   */\n      tag_201\n      jump\t// in\n    tag_339:\n        /* \"#utility.yul\":10200:10209   */\n      dup2\n        /* \"#utility.yul\":10194:10198   */\n      dup2\n        /* \"#utility.yul\":10190:10210   */\n      sub\n        /* \"#utility.yul\":10184:10187   */\n      0xe0\n        /* \"#utility.yul\":10173:10182   */\n      dup4\n        /* \"#utility.yul\":10169:10188   */\n      add\n        /* \"#utility.yul\":10162:10211   */\n      mstore\n        /* \"#utility.yul\":10228:10304   */\n      tag_340\n        /* \"#utility.yul\":10299:10303   */\n      dup2\n        /* \"#utility.yul\":10290:10296   */\n      dup5\n        /* \"#utility.yul\":10228:10304   */\n      tag_221\n      jump\t// in\n    tag_340:\n        /* \"#utility.yul\":10220:10304   */\n      swap1\n      pop\n        /* \"#utility.yul\":9231:10311   */\n      swap10\n      swap9\n      pop\n      pop\n      pop\n      pop\n      pop\n      pop\n      pop\n      pop\n      pop\n      jump\t// out\n        /* \"#utility.yul\":10317:10497   */\n    tag_222:\n        /* \"#utility.yul\":10365:10442   */\n      0x4e487b7100000000000000000000000000000000000000000000000000000000\n        /* \"#utility.yul\":10362:10363   */\n      0x00\n        /* \"#utility.yul\":10355:10443   */\n      mstore\n        /* \"#utility.yul\":10462:10466   */\n      0x12\n        /* \"#utility.yul\":10459:10460   */\n      0x04\n        /* \"#utility.yul\":10452:10467   */\n      mstore\n        /* \"#utility.yul\":10486:10490   */\n      0x24\n        /* \"#utility.yul\":10483:10484   */\n      0x00\n        /* \"#utility.yul\":10476:10491   */\n      revert\n        /* \"#utility.yul\":10503:10679   */\n    tag_97:\n        /* \"#utility.yul\":10535:10536   */\n      0x00\n        /* \"#utility.yul\":10552:10572   */\n      tag_343\n        /* \"#utility.yul\":10570:10571   */\n      dup3\n        /* \"#utility.yul\":10552:10572   */\n      tag_195\n      jump\t// in\n    tag_343:\n        /* \"#utility.yul\":10547:10572   */\n      swap2\n      pop\n        /* \"#utility.yul\":10586:10606   */\n      tag_344\n        /* \"#utility.yul\":10604:10605   */\n      dup4\n        /* \"#utility.yul\":10586:10606   */\n      tag_195\n      jump\t// in\n    tag_344:\n        /* \"#utility.yul\":10581:10606   */\n      swap3\n      pop\n        /* \"#utility.yul\":10625:10626   */\n      dup3\n        /* \"#utility.yul\":10615:10650   */\n      tag_345\n      jumpi\n        /* \"#utility.yul\":10630:10648   */\n      tag_346\n      tag_222\n      jump\t// in\n    tag_346:\n        /* \"#utility.yul\":10615:10650   */\n    tag_345:\n        /* \"#utility.yul\":10671:10672   */\n      dup3\n        /* \"#utility.yul\":10668:10669   */\n      dup3\n        /* \"#utility.yul\":10664:10673   */\n      mod\n        /* \"#utility.yul\":10659:10673   */\n      swap1\n      pop\n        /* \"#utility.yul\":10503:10679   */\n      swap3\n      swap2\n      pop\n      pop\n      jump\t// out\n        /* \"#utility.yul\":10685:10879   */\n    tag_101:\n        /* \"#utility.yul\":10725:10729   */\n      0x00\n        /* \"#utility.yul\":10745:10765   */\n      tag_348\n        /* \"#utility.yul\":10763:10764   */\n      dup3\n        /* \"#utility.yul\":10745:10765   */\n      tag_195\n      jump\t// in\n    tag_348:\n        /* \"#utility.yul\":10740:10765   */\n      swap2\n      pop\n        /* \"#utility.yul\":10779:10799   */\n      tag_349\n        /* \"#utility.yul\":10797:10798   */\n      dup4\n        /* \"#utility.yul\":10779:10799   */\n      tag_195\n      jump\t// in\n    tag_349:\n        /* \"#utility.yul\":10774:10799   */\n      swap3\n      pop\n        /* \"#utility.yul\":10823:10824   */\n      dup3\n        /* \"#utility.yul\":10820:10821   */\n      dup3\n        /* \"#utility.yul\":10816:10825   */\n      sub\n        /* \"#utility.yul\":10808:10825   */\n      swap1\n      pop\n        /* \"#utility.yul\":10847:10848   */\n      dup2\n        /* \"#utility.yul\":10841:10845   */\n      dup2\n        /* \"#utility.yul\":10838:10849   */\n      gt\n        /* \"#utility.yul\":10835:10872   */\n      iszero\n      tag_350\n      jumpi\n        /* \"#utility.yul\":10852:10870   */\n      tag_351\n      tag_214\n      jump\t// in\n    tag_351:\n        /* \"#utility.yul\":10835:10872   */\n    tag_350:\n        /* \"#utility.yul\":10685:10879   */\n      swap3\n      swap2\n      pop\n      pop\n      jump\t// out\n        /* \"#utility.yul\":10885:10945   */\n    tag_223:\n        /* \"#utility.yul\":10913:10916   */\n      0x00\n        /* \"#utility.yul\":10934:10939   */\n      dup2\n        /* \"#utility.yul\":10927:10939   */\n      swap1\n      pop\n        /* \"#utility.yul\":10885:10945   */\n      swap2\n      swap1\n      pop\n      jump\t// out\n        /* \"#utility.yul\":10951:11093   */\n    tag_224:\n        /* \"#utility.yul\":11001:11010   */\n      0x00\n        /* \"#utility.yul\":11034:11087   */\n      tag_354\n        /* \"#utility.yul\":11052:11086   */\n      tag_355\n        /* \"#utility.yul\":11061:11085   */\n      tag_356\n        /* \"#utility.yul\":11079:11084   */\n      dup5\n        /* \"#utility.yul\":11061:11085   */\n      tag_198\n      jump\t// in\n    tag_356:\n        /* \"#utility.yul\":11052:11086   */\n      tag_223\n      jump\t// in\n    tag_355:\n        /* \"#utility.yul\":11034:11087   */\n      tag_198\n      jump\t// in\n    tag_354:\n        /* \"#utility.yul\":11021:11087   */\n      swap1\n      pop\n        /* \"#utility.yul\":10951:11093   */\n      swap2\n      swap1\n      pop\n      jump\t// out\n        /* \"#utility.yul\":11099:11225   */\n    tag_225:\n        /* \"#utility.yul\":11149:11158   */\n      0x00\n        /* \"#utility.yul\":11182:11219   */\n      tag_358\n        /* \"#utility.yul\":11213:11218   */\n      dup3\n        /* \"#utility.yul\":11182:11219   */\n      tag_224\n      jump\t// in\n    tag_358:\n        /* \"#utility.yul\":11169:11219   */\n      swap1\n      pop\n        /* \"#utility.yul\":11099:11225   */\n      swap2\n      swap1\n      pop\n      jump\t// out\n        /* \"#utility.yul\":11231:11380   */\n    tag_226:\n        /* \"#utility.yul\":11304:11313   */\n      0x00\n        /* \"#utility.yul\":11337:11374   */\n      tag_360\n        /* \"#utility.yul\":11368:11373   */\n      dup3\n        /* \"#utility.yul\":11337:11374   */\n      tag_225\n      jump\t// in\n    tag_360:\n        /* \"#utility.yul\":11324:11374   */\n      swap1\n      pop\n        /* \"#utility.yul\":11231:11380   */\n      swap2\n      swap1\n      pop\n      jump\t// out\n        /* \"#utility.yul\":11386:11480   */\n    tag_227:\n        /* \"#utility.yul\":11419:11427   */\n      0x00\n        /* \"#utility.yul\":11467:11472   */\n      dup2\n        /* \"#utility.yul\":11463:11465   */\n      0x60\n        /* \"#utility.yul\":11459:11473   */\n      shl\n        /* \"#utility.yul\":11438:11473   */\n      swap1\n      pop\n        /* \"#utility.yul\":11386:11480   */\n      swap2\n      swap1\n      pop\n      jump\t// out\n        /* \"#utility.yul\":11486:11580   */\n    tag_228:\n        /* \"#utility.yul\":11525:11532   */\n      0x00\n        /* \"#utility.yul\":11554:11574   */\n      tag_363\n        /* \"#utility.yul\":11568:11573   */\n      dup3\n        /* \"#utility.yul\":11554:11574   */\n      tag_227\n      jump\t// in\n    tag_363:\n        /* \"#utility.yul\":11543:11574   */\n      swap1\n      pop\n        /* \"#utility.yul\":11486:11580   */\n      swap2\n      swap1\n      pop\n      jump\t// out\n        /* \"#utility.yul\":11586:11686   */\n    tag_229:\n        /* \"#utility.yul\":11625:11632   */\n      0x00\n        /* \"#utility.yul\":11654:11680   */\n      tag_365\n        /* \"#utility.yul\":11674:11679   */\n      dup3\n        /* \"#utility.yul\":11654:11680   */\n      tag_228\n      jump\t// in\n    tag_365:\n        /* \"#utility.yul\":11643:11680   */\n      swap1\n      pop\n        /* \"#utility.yul\":11586:11686   */\n      swap2\n      swap1\n      pop\n      jump\t// out\n        /* \"#utility.yul\":11692:11908   */\n    tag_230:\n        /* \"#utility.yul\":11820:11901   */\n      tag_367\n        /* \"#utility.yul\":11840:11900   */\n      tag_368\n        /* \"#utility.yul\":11894:11899   */\n      dup3\n        /* \"#utility.yul\":11840:11900   */\n      tag_226\n      jump\t// in\n    tag_368:\n        /* \"#utility.yul\":11820:11901   */\n      tag_229\n      jump\t// in\n    tag_367:\n        /* \"#utility.yul\":11815:11818   */\n      dup3\n        /* \"#utility.yul\":11808:11902   */\n      mstore\n        /* \"#utility.yul\":11692:11908   */\n      pop\n      pop\n      jump\t// out\n        /* \"#utility.yul\":11914:11993   */\n    tag_231:\n        /* \"#utility.yul\":11953:11960   */\n      0x00\n        /* \"#utility.yul\":11982:11987   */\n      dup2\n        /* \"#utility.yul\":11971:11987   */\n      swap1\n      pop\n        /* \"#utility.yul\":11914:11993   */\n      swap2\n      swap1\n      pop\n      jump\t// out\n        /* \"#utility.yul\":11999:12156   */\n    tag_232:\n        /* \"#utility.yul\":12104:12149   */\n      tag_371\n        /* \"#utility.yul\":12124:12148   */\n      tag_372\n        /* \"#utility.yul\":12142:12147   */\n      dup3\n        /* \"#utility.yul\":12124:12148   */\n      tag_195\n      jump\t// in\n    tag_372:\n        /* \"#utility.yul\":12104:12149   */\n      tag_231\n      jump\t// in\n    tag_371:\n        /* \"#utility.yul\":12099:12102   */\n      dup3\n        /* \"#utility.yul\":12092:12150   */\n      mstore\n        /* \"#utility.yul\":11999:12156   */\n      pop\n      pop\n      jump\t// out\n        /* \"#utility.yul\":12162:12605   */\n    tag_129:\n        /* \"#utility.yul\":12325:12328   */\n      0x00\n        /* \"#utility.yul\":12340:12438   */\n      tag_374\n        /* \"#utility.yul\":12434:12437   */\n      dup3\n        /* \"#utility.yul\":12425:12431   */\n      dup6\n        /* \"#utility.yul\":12340:12438   */\n      tag_230\n      jump\t// in\n    tag_374:\n        /* \"#utility.yul\":12463:12465   */\n      0x14\n        /* \"#utility.yul\":12458:12461   */\n      dup3\n        /* \"#utility.yul\":12454:12466   */\n      add\n        /* \"#utility.yul\":12447:12466   */\n      swap2\n      pop\n        /* \"#utility.yul\":12476:12551   */\n      tag_375\n        /* \"#utility.yul\":12547:12550   */\n      dup3\n        /* \"#utility.yul\":12538:12544   */\n      dup5\n        /* \"#utility.yul\":12476:12551   */\n      tag_232\n      jump\t// in\n    tag_375:\n        /* \"#utility.yul\":12576:12578   */\n      0x20\n        /* \"#utility.yul\":12571:12574   */\n      dup3\n        /* \"#utility.yul\":12567:12579   */\n      add\n        /* \"#utility.yul\":12560:12579   */\n      swap2\n      pop\n        /* \"#utility.yul\":12596:12599   */\n      dup2\n        /* \"#utility.yul\":12589:12599   */\n      swap1\n      pop\n        /* \"#utility.yul\":12162:12605   */\n      swap4\n      swap3\n      pop\n      pop\n      pop\n      jump\t// out\n        /* \"#utility.yul\":12611:13140   */\n    tag_131:\n        /* \"#utility.yul\":12778:12782   */\n      0x00\n        /* \"#utility.yul\":12816:12818   */\n      0x60\n        /* \"#utility.yul\":12805:12814   */\n      dup3\n        /* \"#utility.yul\":12801:12819   */\n      add\n        /* \"#utility.yul\":12793:12819   */\n      swap1\n      pop\n        /* \"#utility.yul\":12829:12900   */\n      tag_377\n        /* \"#utility.yul\":12897:12898   */\n      0x00\n        /* \"#utility.yul\":12886:12895   */\n      dup4\n        /* \"#utility.yul\":12882:12899   */\n      add\n        /* \"#utility.yul\":12873:12879   */\n      dup7\n        /* \"#utility.yul\":12829:12900   */\n      tag_200\n      jump\t// in\n    tag_377:\n        /* \"#utility.yul\":12910:12982   */\n      tag_378\n        /* \"#utility.yul\":12978:12980   */\n      0x20\n        /* \"#utility.yul\":12967:12976   */\n      dup4\n        /* \"#utility.yul\":12963:12981   */\n      add\n        /* \"#utility.yul\":12954:12960   */\n      dup6\n        /* \"#utility.yul\":12910:12982   */\n      tag_201\n      jump\t// in\n    tag_378:\n        /* \"#utility.yul\":13029:13038   */\n      dup2\n        /* \"#utility.yul\":13023:13027   */\n      dup2\n        /* \"#utility.yul\":13019:13039   */\n      sub\n        /* \"#utility.yul\":13014:13016   */\n      0x40\n        /* \"#utility.yul\":13003:13012   */\n      dup4\n        /* \"#utility.yul\":12999:13017   */\n      add\n        /* \"#utility.yul\":12992:13040   */\n      mstore\n        /* \"#utility.yul\":13057:13133   */\n      tag_379\n        /* \"#utility.yul\":13128:13132   */\n      dup2\n        /* \"#utility.yul\":13119:13125   */\n      dup5\n        /* \"#utility.yul\":13057:13133   */\n      tag_221\n      jump\t// in\n    tag_379:\n        /* \"#utility.yul\":13049:13133   */\n      swap1\n      pop\n        /* \"#utility.yul\":12611:13140   */\n      swap5\n      swap4\n      pop\n      pop\n      pop\n      pop\n      jump\t// out\n        /* \"#utility.yul\":13146:13236   */\n    tag_233:\n        /* \"#utility.yul\":13180:13187   */\n      0x00\n        /* \"#utility.yul\":13223:13228   */\n      dup2\n        /* \"#utility.yul\":13216:13229   */\n      iszero\n        /* \"#utility.yul\":13209:13230   */\n      iszero\n        /* \"#utility.yul\":13198:13230   */\n      swap1\n      pop\n        /* \"#utility.yul\":13146:13236   */\n      swap2\n      swap1\n      pop\n      jump\t// out\n        /* \"#utility.yul\":13242:13358   */\n    tag_234:\n        /* \"#utility.yul\":13312:13333   */\n      tag_382\n        /* \"#utility.yul\":13327:13332   */\n      dup2\n        /* \"#utility.yul\":13312:13333   */\n      tag_233\n      jump\t// in\n    tag_382:\n        /* \"#utility.yul\":13305:13310   */\n      dup2\n        /* \"#utility.yul\":13302:13334   */\n      eq\n        /* \"#utility.yul\":13292:13352   */\n      tag_383\n      jumpi\n        /* \"#utility.yul\":13348:13349   */\n      0x00\n        /* \"#utility.yul\":13345:13346   */\n      dup1\n        /* \"#utility.yul\":13338:13350   */\n      revert\n        /* \"#utility.yul\":13292:13352   */\n    tag_383:\n        /* \"#utility.yul\":13242:13358   */\n      pop\n      jump\t// out\n        /* \"#utility.yul\":13364:13501   */\n    tag_235:\n        /* \"#utility.yul\":13418:13423   */\n      0x00\n        /* \"#utility.yul\":13449:13455   */\n      dup2\n        /* \"#utility.yul\":13443:13456   */\n      mload\n        /* \"#utility.yul\":13434:13456   */\n      swap1\n      pop\n        /* \"#utility.yul\":13465:13495   */\n      tag_385\n        /* \"#utility.yul\":13489:13494   */\n      dup2\n        /* \"#utility.yul\":13465:13495   */\n      tag_234\n      jump\t// in\n    tag_385:\n        /* \"#utility.yul\":13364:13501   */\n      swap3\n      swap2\n      pop\n      pop\n      jump\t// out\n        /* \"#utility.yul\":13507:13852   */\n    tag_135:\n        /* \"#utility.yul\":13574:13580   */\n      0x00\n        /* \"#utility.yul\":13623:13625   */\n      0x20\n        /* \"#utility.yul\":13611:13620   */\n      dup3\n        /* \"#utility.yul\":13602:13609   */\n      dup5\n        /* \"#utility.yul\":13598:13621   */\n      sub\n        /* \"#utility.yul\":13594:13626   */\n      slt\n        /* \"#utility.yul\":13591:13710   */\n      iszero\n      tag_387\n      jumpi\n        /* \"#utility.yul\":13629:13708   */\n      tag_388\n      tag_190\n      jump\t// in\n    tag_388:\n        /* \"#utility.yul\":13591:13710   */\n    tag_387:\n        /* \"#utility.yul\":13749:13750   */\n      0x00\n        /* \"#utility.yul\":13774:13835   */\n      tag_389\n        /* \"#utility.yul\":13827:13834   */\n      dup5\n        /* \"#utility.yul\":13818:13824   */\n      dup3\n        /* \"#utility.yul\":13807:13816   */\n      dup6\n        /* \"#utility.yul\":13803:13825   */\n      add\n        /* \"#utility.yul\":13774:13835   */\n      tag_235\n      jump\t// in\n    tag_389:\n        /* \"#utility.yul\":13764:13835   */\n      swap2\n      pop\n        /* \"#utility.yul\":13720:13845   */\n      pop\n        /* \"#utility.yul\":13507:13852   */\n      swap3\n      swap2\n      pop\n      pop\n      jump\t// out\n        /* \"#utility.yul\":13858:14080   */\n    tag_236:\n        /* \"#utility.yul\":13998:14032   */\n      0x756e61626c6520746f207472616e73666572416e6443616c6c20746f206f7261\n        /* \"#utility.yul\":13994:13995   */\n      0x00\n        /* \"#utility.yul\":13986:13992   */\n      dup3\n        /* \"#utility.yul\":13982:13996   */\n      add\n        /* \"#utility.yul\":13975:14033   */\n      mstore\n        /* \"#utility.yul\":14067:14072   */\n      0x636c650000000000000000000000000000000000000000000000000000000000\n        /* \"#utility.yul\":14062:14064   */\n      0x20\n        /* \"#utility.yul\":14054:14060   */\n      dup3\n        /* \"#utility.yul\":14050:14065   */\n      add\n        /* \"#utility.yul\":14043:14073   */\n      mstore\n        /* \"#utility.yul\":13858:14080   */\n      pop\n      jump\t// out\n        /* \"#utility.yul\":14086:14452   */\n    tag_237:\n        /* \"#utility.yul\":14228:14231   */\n      0x00\n        /* \"#utility.yul\":14249:14316   */\n      tag_392\n        /* \"#utility.yul\":14313:14315   */\n      0x23\n        /* \"#utility.yul\":14308:14311   */\n      dup4\n        /* \"#utility.yul\":14249:14316   */\n      tag_205\n      jump\t// in\n    tag_392:\n        /* \"#utility.yul\":14242:14316   */\n      swap2\n      pop\n        /* \"#utility.yul\":14325:14418   */\n      tag_393\n        /* \"#utility.yul\":14414:14417   */\n      dup3\n        /* \"#utility.yul\":14325:14418   */\n      tag_236\n      jump\t// in\n    tag_393:\n        /* \"#utility.yul\":14443:14445   */\n      0x40\n        /* \"#utility.yul\":14438:14441   */\n      dup3\n        /* \"#utility.yul\":14434:14446   */\n      add\n        /* \"#utility.yul\":14427:14446   */\n      swap1\n      pop\n        /* \"#utility.yul\":14086:14452   */\n      swap2\n      swap1\n      pop\n      jump\t// out\n        /* \"#utility.yul\":14458:14877   */\n    tag_138:\n        /* \"#utility.yul\":14624:14628   */\n      0x00\n        /* \"#utility.yul\":14662:14664   */\n      0x20\n        /* \"#utility.yul\":14651:14660   */\n      dup3\n        /* \"#utility.yul\":14647:14665   */\n      add\n        /* \"#utility.yul\":14639:14665   */\n      swap1\n      pop\n        /* \"#utility.yul\":14711:14720   */\n      dup2\n        /* \"#utility.yul\":14705:14709   */\n      dup2\n        /* \"#utility.yul\":14701:14721   */\n      sub\n        /* \"#utility.yul\":14697:14698   */\n      0x00\n        /* \"#utility.yul\":14686:14695   */\n      dup4\n        /* \"#utility.yul\":14682:14699   */\n      add\n        /* \"#utility.yul\":14675:14722   */\n      mstore\n        /* \"#utility.yul\":14739:14870   */\n      tag_395\n        /* \"#utility.yul\":14865:14869   */\n      dup2\n        /* \"#utility.yul\":14739:14870   */\n      tag_237\n      jump\t// in\n    tag_395:\n        /* \"#utility.yul\":14731:14870   */\n      swap1\n      pop\n        /* \"#utility.yul\":14458:14877   */\n      swap2\n      swap1\n      pop\n      jump\t// out\n        /* \"#utility.yul\":14883:15293   */\n    tag_157:\n        /* \"#utility.yul\":14923:14930   */\n      0x00\n        /* \"#utility.yul\":14946:14966   */\n      tag_397\n        /* \"#utility.yul\":14964:14965   */\n      dup3\n        /* \"#utility.yul\":14946:14966   */\n      tag_195\n      jump\t// in\n    tag_397:\n        /* \"#utility.yul\":14941:14966   */\n      swap2\n      pop\n        /* \"#utility.yul\":14980:15000   */\n      tag_398\n        /* \"#utility.yul\":14998:14999   */\n      dup4\n        /* \"#utility.yul\":14980:15000   */\n      tag_195\n      jump\t// in\n    tag_398:\n        /* \"#utility.yul\":14975:15000   */\n      swap3\n      pop\n        /* \"#utility.yul\":15035:15036   */\n      dup3\n        /* \"#utility.yul\":15032:15033   */\n      dup3\n        /* \"#utility.yul\":15028:15037   */\n      mul\n        /* \"#utility.yul\":15057:15087   */\n      tag_399\n        /* \"#utility.yul\":15075:15086   */\n      dup2\n        /* \"#utility.yul\":15057:15087   */\n      tag_195\n      jump\t// in\n    tag_399:\n        /* \"#utility.yul\":15046:15087   */\n      swap2\n      pop\n        /* \"#utility.yul\":15236:15237   */\n      dup3\n        /* \"#utility.yul\":15227:15234   */\n      dup3\n        /* \"#utility.yul\":15223:15238   */\n      div\n        /* \"#utility.yul\":15220:15221   */\n      dup5\n        /* \"#utility.yul\":15217:15239   */\n      eq\n        /* \"#utility.yul\":15197:15198   */\n      dup4\n        /* \"#utility.yul\":15190:15199   */\n      iszero\n        /* \"#utility.yul\":15170:15253   */\n      or\n        /* \"#utility.yul\":15147:15286   */\n      tag_400\n      jumpi\n        /* \"#utility.yul\":15266:15284   */\n      tag_401\n      tag_214\n      jump\t// in\n    tag_401:\n        /* \"#utility.yul\":15147:15286   */\n    tag_400:\n        /* \"#utility.yul\":14931:15293   */\n      pop\n        /* \"#utility.yul\":14883:15293   */\n      swap3\n      swap2\n      pop\n      pop\n      jump\t// out\n        /* \"#utility.yul\":15299:15401   */\n    tag_238:\n        /* \"#utility.yul\":15341:15349   */\n      0x00\n        /* \"#utility.yul\":15388:15393   */\n      dup2\n        /* \"#utility.yul\":15385:15386   */\n      0x01\n        /* \"#utility.yul\":15381:15394   */\n      shr\n        /* \"#utility.yul\":15360:15394   */\n      swap1\n      pop\n        /* \"#utility.yul\":15299:15401   */\n      swap2\n      swap1\n      pop\n      jump\t// out\n        /* \"#utility.yul\":15407:16255   */\n    tag_239:\n        /* \"#utility.yul\":15468:15473   */\n      0x00\n        /* \"#utility.yul\":15475:15479   */\n      dup1\n        /* \"#utility.yul\":15499:15505   */\n      dup3\n        /* \"#utility.yul\":15490:15505   */\n      swap2\n      pop\n        /* \"#utility.yul\":15523:15528   */\n      dup4\n        /* \"#utility.yul\":15514:15528   */\n      swap1\n      pop\n        /* \"#utility.yul\":15537:16249   */\n    tag_404:\n        /* \"#utility.yul\":15558:15559   */\n      0x01\n        /* \"#utility.yul\":15548:15556   */\n      dup6\n        /* \"#utility.yul\":15545:15560   */\n      gt\n        /* \"#utility.yul\":15537:16249   */\n      iszero\n      tag_406\n      jumpi\n        /* \"#utility.yul\":15653:15657   */\n      dup1\n        /* \"#utility.yul\":15648:15651   */\n      dup7\n        /* \"#utility.yul\":15644:15658   */\n      div\n        /* \"#utility.yul\":15638:15642   */\n      dup2\n        /* \"#utility.yul\":15635:15659   */\n      gt\n        /* \"#utility.yul\":15632:15682   */\n      iszero\n      tag_407\n      jumpi\n        /* \"#utility.yul\":15662:15680   */\n      tag_408\n      tag_214\n      jump\t// in\n    tag_408:\n        /* \"#utility.yul\":15632:15682   */\n    tag_407:\n        /* \"#utility.yul\":15712:15713   */\n      0x01\n        /* \"#utility.yul\":15702:15710   */\n      dup6\n        /* \"#utility.yul\":15698:15714   */\n      and\n        /* \"#utility.yul\":15695:16146   */\n      iszero\n      tag_409\n      jumpi\n        /* \"#utility.yul\":16127:16131   */\n      dup1\n        /* \"#utility.yul\":16120:16125   */\n      dup3\n        /* \"#utility.yul\":16116:16132   */\n      mul\n        /* \"#utility.yul\":16107:16132   */\n      swap2\n      pop\n        /* \"#utility.yul\":15695:16146   */\n    tag_409:\n        /* \"#utility.yul\":16177:16181   */\n      dup1\n        /* \"#utility.yul\":16171:16175   */\n      dup2\n        /* \"#utility.yul\":16167:16182   */\n      mul\n        /* \"#utility.yul\":16159:16182   */\n      swap1\n      pop\n        /* \"#utility.yul\":16207:16239   */\n      tag_410\n        /* \"#utility.yul\":16230:16238   */\n      dup6\n        /* \"#utility.yul\":16207:16239   */\n      tag_238\n      jump\t// in\n    tag_410:\n        /* \"#utility.yul\":16195:16239   */\n      swap5\n      pop\n        /* \"#utility.yul\":15537:16249   */\n      jump(tag_404)\n    tag_406:\n        /* \"#utility.yul\":15407:16255   */\n      swap5\n      pop\n      swap5\n      swap3\n      pop\n      pop\n      pop\n      jump\t// out\n        /* \"#utility.yul\":16261:17334   */\n    tag_240:\n        /* \"#utility.yul\":16315:16320   */\n      0x00\n        /* \"#utility.yul\":16506:16514   */\n      dup3\n        /* \"#utility.yul\":16496:16536   */\n      tag_412\n      jumpi\n        /* \"#utility.yul\":16527:16528   */\n      0x01\n        /* \"#utility.yul\":16518:16528   */\n      swap1\n      pop\n        /* \"#utility.yul\":16529:16534   */\n      jump(tag_411)\n        /* \"#utility.yul\":16496:16536   */\n    tag_412:\n        /* \"#utility.yul\":16555:16559   */\n      dup2\n        /* \"#utility.yul\":16545:16581   */\n      tag_413\n      jumpi\n        /* \"#utility.yul\":16572:16573   */\n      0x00\n        /* \"#utility.yul\":16563:16573   */\n      swap1\n      pop\n        /* \"#utility.yul\":16574:16579   */\n      jump(tag_411)\n        /* \"#utility.yul\":16545:16581   */\n    tag_413:\n        /* \"#utility.yul\":16641:16645   */\n      dup2\n        /* \"#utility.yul\":16689:16690   */\n      0x01\n        /* \"#utility.yul\":16684:16711   */\n      dup2\n      eq\n      tag_415\n      jumpi\n        /* \"#utility.yul\":16725:16726   */\n      0x02\n        /* \"#utility.yul\":16720:16911   */\n      dup2\n      eq\n      tag_416\n      jumpi\n        /* \"#utility.yul\":16634:16911   */\n      jump(tag_414)\n        /* \"#utility.yul\":16684:16711   */\n    tag_415:\n        /* \"#utility.yul\":16702:16703   */\n      0x01\n        /* \"#utility.yul\":16693:16703   */\n      swap2\n      pop\n        /* \"#utility.yul\":16704:16709   */\n      pop\n      jump(tag_411)\n        /* \"#utility.yul\":16720:16911   */\n    tag_416:\n        /* \"#utility.yul\":16765:16768   */\n      0xff\n        /* \"#utility.yul\":16755:16763   */\n      dup5\n        /* \"#utility.yul\":16752:16769   */\n      gt\n        /* \"#utility.yul\":16749:16792   */\n      iszero\n      tag_417\n      jumpi\n        /* \"#utility.yul\":16772:16790   */\n      tag_418\n      tag_214\n      jump\t// in\n    tag_418:\n        /* \"#utility.yul\":16749:16792   */\n    tag_417:\n        /* \"#utility.yul\":16821:16829   */\n      dup4\n        /* \"#utility.yul\":16818:16819   */\n      0x02\n        /* \"#utility.yul\":16814:16830   */\n      exp\n        /* \"#utility.yul\":16805:16830   */\n      swap2\n      pop\n        /* \"#utility.yul\":16856:16859   */\n      dup5\n        /* \"#utility.yul\":16849:16854   */\n      dup3\n        /* \"#utility.yul\":16846:16860   */\n      gt\n        /* \"#utility.yul\":16843:16883   */\n      iszero\n      tag_419\n      jumpi\n        /* \"#utility.yul\":16863:16881   */\n      tag_420\n      tag_214\n      jump\t// in\n    tag_420:\n        /* \"#utility.yul\":16843:16883   */\n    tag_419:\n        /* \"#utility.yul\":16896:16901   */\n      pop\n      jump(tag_411)\n        /* \"#utility.yul\":16634:16911   */\n    tag_414:\n      pop\n        /* \"#utility.yul\":17020:17022   */\n      0x20\n        /* \"#utility.yul\":17010:17018   */\n      dup4\n        /* \"#utility.yul\":17007:17023   */\n      lt\n        /* \"#utility.yul\":17001:17004   */\n      0x0133\n        /* \"#utility.yul\":16995:16999   */\n      dup4\n        /* \"#utility.yul\":16992:17005   */\n      lt\n        /* \"#utility.yul\":16988:17024   */\n      and\n        /* \"#utility.yul\":16970:16972   */\n      0x4e\n        /* \"#utility.yul\":16960:16968   */\n      dup5\n        /* \"#utility.yul\":16957:16973   */\n      lt\n        /* \"#utility.yul\":16952:16954   */\n      0x0b\n        /* \"#utility.yul\":16946:16950   */\n      dup5\n        /* \"#utility.yul\":16943:16955   */\n      lt\n        /* \"#utility.yul\":16939:16974   */\n      and\n        /* \"#utility.yul\":16923:17034   */\n      or\n        /* \"#utility.yul\":16920:17166   */\n      iszero\n      tag_421\n      jumpi\n        /* \"#utility.yul\":17076:17084   */\n      dup3\n        /* \"#utility.yul\":17070:17074   */\n      dup3\n        /* \"#utility.yul\":17066:17085   */\n      exp\n        /* \"#utility.yul\":17057:17085   */\n      swap1\n      pop\n        /* \"#utility.yul\":17111:17114   */\n      dup4\n        /* \"#utility.yul\":17104:17109   */\n      dup2\n        /* \"#utility.yul\":17101:17115   */\n      gt\n        /* \"#utility.yul\":17098:17138   */\n      iszero\n      tag_422\n      jumpi\n        /* \"#utility.yul\":17118:17136   */\n      tag_423\n      tag_214\n      jump\t// in\n    tag_423:\n        /* \"#utility.yul\":17098:17138   */\n    tag_422:\n        /* \"#utility.yul\":17151:17156   */\n      jump(tag_411)\n        /* \"#utility.yul\":16920:17166   */\n    tag_421:\n        /* \"#utility.yul\":17191:17233   */\n      tag_424\n        /* \"#utility.yul\":17229:17232   */\n      dup5\n        /* \"#utility.yul\":17219:17227   */\n      dup5\n        /* \"#utility.yul\":17213:17217   */\n      dup5\n        /* \"#utility.yul\":17210:17211   */\n      0x01\n        /* \"#utility.yul\":17191:17233   */\n      tag_239\n      jump\t// in\n    tag_424:\n        /* \"#utility.yul\":17176:17233   */\n      swap3\n      pop\n      swap1\n      pop\n        /* \"#utility.yul\":17265:17269   */\n      dup2\n        /* \"#utility.yul\":17260:17263   */\n      dup5\n        /* \"#utility.yul\":17256:17270   */\n      div\n        /* \"#utility.yul\":17249:17254   */\n      dup2\n        /* \"#utility.yul\":17246:17271   */\n      gt\n        /* \"#utility.yul\":17243:17294   */\n      iszero\n      tag_425\n      jumpi\n        /* \"#utility.yul\":17274:17292   */\n      tag_426\n      tag_214\n      jump\t// in\n    tag_426:\n        /* \"#utility.yul\":17243:17294   */\n    tag_425:\n        /* \"#utility.yul\":17323:17327   */\n      dup2\n        /* \"#utility.yul\":17316:17321   */\n      dup2\n        /* \"#utility.yul\":17312:17328   */\n      mul\n        /* \"#utility.yul\":17303:17328   */\n      swap1\n      pop\n        /* \"#utility.yul\":16261:17334   */\n    tag_411:\n      swap4\n      swap3\n      pop\n      pop\n      pop\n      jump\t// out\n        /* \"#utility.yul\":17340:17625   */\n    tag_180:\n        /* \"#utility.yul\":17400:17405   */\n      0x00\n        /* \"#utility.yul\":17424:17447   */\n      tag_428\n        /* \"#utility.yul\":17442:17446   */\n      dup3\n        /* \"#utility.yul\":17424:17447   */\n      tag_195\n      jump\t// in\n    tag_428:\n        /* \"#utility.yul\":17416:17447   */\n      swap2\n      pop\n        /* \"#utility.yul\":17468:17495   */\n      tag_429\n        /* \"#utility.yul\":17486:17494   */\n      dup4\n        /* \"#utility.yul\":17468:17495   */\n      tag_195\n      jump\t// in\n    tag_429:\n        /* \"#utility.yul\":17456:17495   */\n      swap3\n      pop\n        /* \"#utility.yul\":17514:17618   */\n      tag_430\n        /* \"#utility.yul\":17551:17617   */\n      0xffffffffffffffffffffffffffffffffffffffffffffffffffffffffffffffff\n        /* \"#utility.yul\":17541:17549   */\n      dup5\n        /* \"#utility.yul\":17535:17539   */\n      dup5\n        /* \"#utility.yul\":17514:17618   */\n      tag_240\n      jump\t// in\n    tag_430:\n        /* \"#utility.yul\":17505:17618   */\n      swap1\n      pop\n        /* \"#utility.yul\":17340:17625   */\n      swap3\n      swap2\n      pop\n      pop\n      jump\t// out\n    stop\n    data_e40f56f7fa1aa05a509887d91f86ee0b3ba47821e3c25328913bff9d8f16041c 687474703a2f2f686f73742e646f636b65722e696e7465726e616c3a333030302f6d6f6469666965642d747261696e2d696e666f\n\n    auxdata: 0xa2646970667358221220c65a41bae966f4b8afcdc169450d36cfc42891ae0a7fd55c685e95c0332abe2964736f6c63430008130033\n}\n",
				"bytecode": {
					"linkReferences": {},
					"object": "608060405260016004553480156200001657600080fd5b50338060008073ffffffffffffffffffffffffffffffffffffffff168273ffffffffffffffffffffffffffffffffffffffff16036200008c576040517f08c379a00000000000000000000000000000000000000000000000000000000081526004016200008390620003d3565b60405180910390fd5b81600660006101000a81548173ffffffffffffffffffffffffffffffffffffffff021916908373ffffffffffffffffffffffffffffffffffffffff160217905550600073ffffffffffffffffffffffffffffffffffffffff168173ffffffffffffffffffffffffffffffffffffffff161462000114576200011381620001b960201b60201c565b5b5050506200013c730b9d5d9136855f6fec3c0993fee6e9ce8a297846620002ea60201b60201c565b62000161735fc52901fe9d7a64044c248e417e989fa0332d086200032e60201b60201c565b7f6266373961303161353531373430326339306432666162306263343937383339600981905550600a670de0b6b3a76400006001620001a191906200042e565b620001ad9190620004a8565b600a8190555062000552565b3373ffffffffffffffffffffffffffffffffffffffff168173ffffffffffffffffffffffffffffffffffffffff16036200022a576040517f08c379a0000000000000000000000000000000000000000000000000000000008152600401620002219062000530565b60405180910390fd5b80600760006101000a81548173ffffffffffffffffffffffffffffffffffffffff021916908373ffffffffffffffffffffffffffffffffffffffff1602179055508073ffffffffffffffffffffffffffffffffffffffff16600660009054906101000a900473ffffffffffffffffffffffffffffffffffffffff1673ffffffffffffffffffffffffffffffffffffffff167fed8889f560326eb138920d842192f0eb3dd22b4f139c87a2c57538e05bae127860405160405180910390a350565b80600260006101000a81548173ffffffffffffffffffffffffffffffffffffffff021916908373ffffffffffffffffffffffffffffffffffffffff16021790555050565b80600360006101000a81548173ffffffffffffffffffffffffffffffffffffffff021916908373ffffffffffffffffffffffffffffffffffffffff16021790555050565b600082825260208201905092915050565b7f43616e6e6f7420736574206f776e657220746f207a65726f0000000000000000600082015250565b6000620003bb60188362000372565b9150620003c88262000383565b602082019050919050565b60006020820190508181036000830152620003ee81620003ac565b9050919050565b6000819050919050565b7f4e487b7100000000000000000000000000000000000000000000000000000000600052601160045260246000fd5b60006200043b82620003f5565b91506200044883620003f5565b92508282026200045881620003f5565b91508282048414831517620004725762000471620003ff565b5b5092915050565b7f4e487b7100000000000000000000000000000000000000000000000000000000600052601260045260246000fd5b6000620004b582620003f5565b9150620004c283620003f5565b925082620004d557620004d462000479565b5b828204905092915050565b7f43616e6e6f74207472616e7366657220746f2073656c66000000000000000000600082015250565b60006200051860178362000372565b91506200052582620004e0565b602082019050919050565b600060208201905081810360008301526200054b8162000509565b9050919050565b6119dd80620005626000396000f3fe608060405234801561001057600080fd5b50600436106100625760003560e01c80634357855e1461006757806379ba5097146100835780638da5cb5b1461008d578063c618a1e4146100ab578063f2fde38b146100c9578063f5e52916146100e5575b600080fd5b610081600480360381019061007c9190611022565b610103565b005b61008b61024c565b005b6100956103e3565b6040516100a291906110a3565b60405180910390f35b6100b361040d565b6040516100c091906110cd565b60405180910390f35b6100e360048036038101906100de9190611114565b610413565b005b6100ed610427565b6040516100fa9190611150565b60405180910390f35b816005600082815260200190815260200160002060009054906101000a900473ffffffffffffffffffffffffffffffffffffffff1673ffffffffffffffffffffffffffffffffffffffff163373ffffffffffffffffffffffffffffffffffffffff16146101a5576040517f08c379a000000000000000000000000000000000000000000000000000000000815260040161019c906111ee565b60405180910390fd5b6005600082815260200190815260200160002060006101000a81549073ffffffffffffffffffffffffffffffffffffffff0219169055807f7cc135e0cebb02c3480ae5d74d377283180a2601f8f644edf7987b009316c63a60405160405180910390a2827f673b38182859a514d734bdfcb49d3a05c4a641dec9311d9894c9717bcb79af768360405161023891906110cd565b60405180910390a281600881905550505050565b600760009054906101000a900473ffffffffffffffffffffffffffffffffffffffff1673ffffffffffffffffffffffffffffffffffffffff163373ffffffffffffffffffffffffffffffffffffffff16146102dc576040517f08c379a00000000000000000000000000000000000000000000000000000000081526004016102d39061125a565b60405180910390fd5b6000600660009054906101000a900473ffffffffffffffffffffffffffffffffffffffff16905033600660006101000a81548173ffffffffffffffffffffffffffffffffffffffff021916908373ffffffffffffffffffffffffffffffffffffffff1602179055506000600760006101000a81548173ffffffffffffffffffffffffffffffffffffffff021916908373ffffffffffffffffffffffffffffffffffffffff1602179055503373ffffffffffffffffffffffffffffffffffffffff168173ffffffffffffffffffffffffffffffffffffffff167f8be0079c531659141344cd1fd0a4f28419497f9722a3daafe3b4186f6b6457e060405160405180910390a350565b6000600660009054906101000a900473ffffffffffffffffffffffffffffffffffffffff16905090565b60085481565b61041b610533565b610424816105c5565b50565b60008061043e60095430634357855e60e01b6106f3565b90506104a26040518060400160405280600381526020017f676574000000000000000000000000000000000000000000000000000000000081525060405180606001604052806034815260200161197460349139836107249092919063ffffffff16565b6105216040518060400160405280600481526020017f70617468000000000000000000000000000000000000000000000000000000008152506040518060400160405280601b81526020017f302c6f6470743a747261696e496e666f726d6174696f6e546578740000000000815250836107249092919063ffffffff16565b61052d81600a54610757565b91505090565b600660009054906101000a900473ffffffffffffffffffffffffffffffffffffffff1673ffffffffffffffffffffffffffffffffffffffff163373ffffffffffffffffffffffffffffffffffffffff16146105c3576040517f08c379a00000000000000000000000000000000000000000000000000000000081526004016105ba906112c6565b60405180910390fd5b565b3373ffffffffffffffffffffffffffffffffffffffff168173ffffffffffffffffffffffffffffffffffffffff1603610633576040517f08c379a000000000000000000000000000000000000000000000000000000000815260040161062a90611332565b60405180910390fd5b80600760006101000a81548173ffffffffffffffffffffffffffffffffffffffff021916908373ffffffffffffffffffffffffffffffffffffffff1602179055508073ffffffffffffffffffffffffffffffffffffffff16600660009054906101000a900473ffffffffffffffffffffffffffffffffffffffff1673ffffffffffffffffffffffffffffffffffffffff167fed8889f560326eb138920d842192f0eb3dd22b4f139c87a2c57538e05bae127860405160405180910390a350565b6106fb610f2a565b610703610f2a565b61071a8585858461078e909392919063ffffffff16565b9150509392505050565b61073b82846080015161083e90919063ffffffff16565b61075281846080015161083e90919063ffffffff16565b505050565b6000610786600360009054906101000a900473ffffffffffffffffffffffffffffffffffffffff168484610863565b905092915050565b610796610f2a565b6107a6856080015161010061092f565b508385600001818152505082856020019073ffffffffffffffffffffffffffffffffffffffff16908173ffffffffffffffffffffffffffffffffffffffff16815250508185604001907bffffffffffffffffffffffffffffffffffffffffffffffffffffffff191690817bffffffffffffffffffffffffffffffffffffffffffffffffffffffff191681525050849050949350505050565b61084b8260038351610999565b61085e8183610b1e90919063ffffffff16565b505050565b60008060045490506001816108789190611381565b6004819055506000634042994660e01b60008087600001513089604001518760018c60800151600001516040516024016108b9989796959493929190611480565b604051602081830303815290604052907bffffffffffffffffffffffffffffffffffffffffffffffffffffffff19166020820180517bffffffffffffffffffffffffffffffffffffffffffffffffffffffff8381831617835250505050905061092486838684610b40565b925050509392505050565b610937610f97565b60006020836109469190611534565b14610972576020826109589190611534565b60206109649190611565565b8261096f9190611381565b91505b81836020018181525050604051808452600081528281016020016040525082905092915050565b60178167ffffffffffffffff16116109d0576109ca8160058460ff16901b60ff161784610cd590919063ffffffff16565b50610b19565b60ff8167ffffffffffffffff1611610a26576109ff601860058460ff16901b1784610cd590919063ffffffff16565b50610a208167ffffffffffffffff16600185610cf59092919063ffffffff16565b50610b18565b61ffff8167ffffffffffffffff1611610a7d57610a56601960058460ff16901b1784610cd590919063ffffffff16565b50610a778167ffffffffffffffff16600285610cf59092919063ffffffff16565b50610b17565b63ffffffff8167ffffffffffffffff1611610ad657610aaf601a60058460ff16901b1784610cd590919063ffffffff16565b50610ad08167ffffffffffffffff16600485610cf59092919063ffffffff16565b50610b16565b610af3601b60058460ff16901b1784610cd590919063ffffffff16565b50610b148167ffffffffffffffff16600885610cf59092919063ffffffff16565b505b5b5b5b505050565b610b26610f97565b610b3883846000015151848551610d17565b905092915050565b60003084604051602001610b55929190611652565b604051602081830303815290604052805190602001209050846005600083815260200190815260200160002060006101000a81548173ffffffffffffffffffffffffffffffffffffffff021916908373ffffffffffffffffffffffffffffffffffffffff160217905550807fb5e6e01e79f91267dc17b4e6314d5d4d03593d2ceee0fbb452b750bd70ea5af960405160405180910390a2600260009054906101000a900473ffffffffffffffffffffffffffffffffffffffff1673ffffffffffffffffffffffffffffffffffffffff16634000aea08685856040518463ffffffff1660e01b8152600401610c4b9392919061167e565b6020604051808303816000875af1158015610c6a573d6000803e3d6000fd5b505050506040513d601f19601f82011682018060405250810190610c8e91906116f4565b610ccd576040517f08c379a0000000000000000000000000000000000000000000000000000000008152600401610cc490611793565b60405180910390fd5b949350505050565b610cdd610f97565b610ced8384600001515184610e06565b905092915050565b610cfd610f97565b610d0e848560000151518585610e5c565b90509392505050565b610d1f610f97565b8251821115610d2d57600080fd5b84602001518285610d3e9190611381565b1115610d7357610d72856002610d6388602001518887610d5e9190611381565b610eea565b610d6d91906117b3565b610f06565b5b600080865180518760208301019350808887011115610d925787860182525b60208701925050505b60208410610dd95780518252602082610db49190611381565b9150602081610dc39190611381565b9050602084610dd29190611565565b9350610d9b565b60006001856020036101000a03905080198251168184511681811785525050508692505050949350505050565b610e0e610f97565b83602001518310610e3457610e338460028660200151610e2e91906117b3565b610f06565b5b83518051602085830101848153818603610e4f576001820183525b5050508390509392505050565b610e64610f97565b84602001518483610e759190611381565b1115610e9d57610e9c8560028685610e8d9190611381565b610e9791906117b3565b610f06565b5b6000600183610100610eaf9190611928565b610eb99190611565565b90508551838682010185831982511617815281518588011115610edc5784870182525b505085915050949350505050565b600081831115610efc57829050610f00565b8190505b92915050565b600082600001519050610f19838361092f565b50610f248382610b1e565b50505050565b6040518060a0016040528060008019168152602001600073ffffffffffffffffffffffffffffffffffffffff16815260200160007bffffffffffffffffffffffffffffffffffffffffffffffffffffffff1916815260200160008152602001610f91610f97565b81525090565b604051806040016040528060608152602001600081525090565b600080fd5b6000819050919050565b610fc981610fb6565b8114610fd457600080fd5b50565b600081359050610fe681610fc0565b92915050565b6000819050919050565b610fff81610fec565b811461100a57600080fd5b50565b60008135905061101c81610ff6565b92915050565b6000806040838503121561103957611038610fb1565b5b600061104785828601610fd7565b92505060206110588582860161100d565b9150509250929050565b600073ffffffffffffffffffffffffffffffffffffffff82169050919050565b600061108d82611062565b9050919050565b61109d81611082565b82525050565b60006020820190506110b86000830184611094565b92915050565b6110c781610fec565b82525050565b60006020820190506110e260008301846110be565b92915050565b6110f181611082565b81146110fc57600080fd5b50565b60008135905061110e816110e8565b92915050565b60006020828403121561112a57611129610fb1565b5b6000611138848285016110ff565b91505092915050565b61114a81610fb6565b82525050565b60006020820190506111656000830184611141565b92915050565b600082825260208201905092915050565b7f536f75726365206d75737420626520746865206f7261636c65206f662074686560008201527f2072657175657374000000000000000000000000000000000000000000000000602082015250565b60006111d860288361116b565b91506111e38261117c565b604082019050919050565b60006020820190508181036000830152611207816111cb565b9050919050565b7f4d7573742062652070726f706f736564206f776e657200000000000000000000600082015250565b600061124460168361116b565b915061124f8261120e565b602082019050919050565b6000602082019050818103600083015261127381611237565b9050919050565b7f4f6e6c792063616c6c61626c65206279206f776e657200000000000000000000600082015250565b60006112b060168361116b565b91506112bb8261127a565b602082019050919050565b600060208201905081810360008301526112df816112a3565b9050919050565b7f43616e6e6f74207472616e7366657220746f2073656c66000000000000000000600082015250565b600061131c60178361116b565b9150611327826112e6565b602082019050919050565b6000602082019050818103600083015261134b8161130f565b9050919050565b7f4e487b7100000000000000000000000000000000000000000000000000000000600052601160045260246000fd5b600061138c82610fec565b915061139783610fec565b92508282019050808211156113af576113ae611352565b5b92915050565b60007fffffffff0000000000000000000000000000000000000000000000000000000082169050919050565b6113ea816113b5565b82525050565b600081519050919050565b600082825260208201905092915050565b60005b8381101561142a57808201518184015260208101905061140f565b60008484015250505050565b6000601f19601f8301169050919050565b6000611452826113f0565b61145c81856113fb565b935061146c81856020860161140c565b61147581611436565b840191505092915050565b600061010082019050611496600083018b611094565b6114a3602083018a6110be565b6114b06040830189611141565b6114bd6060830188611094565b6114ca60808301876113e1565b6114d760a08301866110be565b6114e460c08301856110be565b81810360e08301526114f68184611447565b90509998505050505050505050565b7f4e487b7100000000000000000000000000000000000000000000000000000000600052601260045260246000fd5b600061153f82610fec565b915061154a83610fec565b92508261155a57611559611505565b5b828206905092915050565b600061157082610fec565b915061157b83610fec565b925082820390508181111561159357611592611352565b5b92915050565b6000819050919050565b60006115be6115b96115b484611062565b611599565b611062565b9050919050565b60006115d0826115a3565b9050919050565b60006115e2826115c5565b9050919050565b60008160601b9050919050565b6000611601826115e9565b9050919050565b6000611613826115f6565b9050919050565b61162b611626826115d7565b611608565b82525050565b6000819050919050565b61164c61164782610fec565b611631565b82525050565b600061165e828561161a565b60148201915061166e828461163b565b6020820191508190509392505050565b60006060820190506116936000830186611094565b6116a060208301856110be565b81810360408301526116b28184611447565b9050949350505050565b60008115159050919050565b6116d1816116bc565b81146116dc57600080fd5b50565b6000815190506116ee816116c8565b92915050565b60006020828403121561170a57611709610fb1565b5b6000611718848285016116df565b91505092915050565b7f756e61626c6520746f207472616e73666572416e6443616c6c20746f206f726160008201527f636c650000000000000000000000000000000000000000000000000000000000602082015250565b600061177d60238361116b565b915061178882611721565b604082019050919050565b600060208201905081810360008301526117ac81611770565b9050919050565b60006117be82610fec565b91506117c983610fec565b92508282026117d781610fec565b915082820484148315176117ee576117ed611352565b5b5092915050565b60008160011c9050919050565b6000808291508390505b600185111561184c5780860481111561182857611827611352565b5b60018516156118375780820291505b8081029050611845856117f5565b945061180c565b94509492505050565b6000826118655760019050611921565b816118735760009050611921565b81600181146118895760028114611893576118c2565b6001915050611921565b60ff8411156118a5576118a4611352565b5b8360020a9150848211156118bc576118bb611352565b5b50611921565b5060208310610133831016604e8410600b84101617156118f75782820a9050838111156118f2576118f1611352565b5b611921565b6119048484846001611802565b9250905081840481111561191b5761191a611352565b5b81810290505b9392505050565b600061193382610fec565b915061193e83610fec565b925061196b7fffffffffffffffffffffffffffffffffffffffffffffffffffffffffffffffff8484611855565b90509291505056fe687474703a2f2f686f73742e646f636b65722e696e7465726e616c3a333030302f6d6f6469666965642d747261696e2d696e666fa2646970667358221220c65a41bae966f4b8afcdc169450d36cfc42891ae0a7fd55c685e95c0332abe2964736f6c63430008130033",
					"opcodes": "PUSH1 0x80 PUSH1 0x40 MSTORE PUSH1 0x1 PUSH1 0x4 SSTORE CALLVALUE DUP1 ISZERO PUSH3 0x16 JUMPI PUSH1 0x0 DUP1 REVERT JUMPDEST POP CALLER DUP1 PUSH1 0x0 DUP1 PUSH20 0xFFFFFFFFFFFFFFFFFFFFFFFFFFFFFFFFFFFFFFFF AND DUP3 PUSH20 0xFFFFFFFFFFFFFFFFFFFFFFFFFFFFFFFFFFFFFFFF AND SUB PUSH3 0x8C JUMPI PUSH1 0x40 MLOAD PUSH32 0x8C379A000000000000000000000000000000000000000000000000000000000 DUP2 MSTORE PUSH1 0x4 ADD PUSH3 0x83 SWAP1 PUSH3 0x3D3 JUMP JUMPDEST PUSH1 0x40 MLOAD DUP1 SWAP2 SUB SWAP1 REVERT JUMPDEST DUP2 PUSH1 0x6 PUSH1 0x0 PUSH2 0x100 EXP DUP2 SLOAD DUP2 PUSH20 0xFFFFFFFFFFFFFFFFFFFFFFFFFFFFFFFFFFFFFFFF MUL NOT AND SWAP1 DUP4 PUSH20 0xFFFFFFFFFFFFFFFFFFFFFFFFFFFFFFFFFFFFFFFF AND MUL OR SWAP1 SSTORE POP PUSH1 0x0 PUSH20 0xFFFFFFFFFFFFFFFFFFFFFFFFFFFFFFFFFFFFFFFF AND DUP2 PUSH20 0xFFFFFFFFFFFFFFFFFFFFFFFFFFFFFFFFFFFFFFFF AND EQ PUSH3 0x114 JUMPI PUSH3 0x113 DUP2 PUSH3 0x1B9 PUSH1 0x20 SHL PUSH1 0x20 SHR JUMP JUMPDEST JUMPDEST POP POP POP PUSH3 0x13C PUSH20 0xB9D5D9136855F6FEC3C0993FEE6E9CE8A297846 PUSH3 0x2EA PUSH1 0x20 SHL PUSH1 0x20 SHR JUMP JUMPDEST PUSH3 0x161 PUSH20 0x5FC52901FE9D7A64044C248E417E989FA0332D08 PUSH3 0x32E PUSH1 0x20 SHL PUSH1 0x20 SHR JUMP JUMPDEST PUSH32 0x6266373961303161353531373430326339306432666162306263343937383339 PUSH1 0x9 DUP2 SWAP1 SSTORE POP PUSH1 0xA PUSH8 0xDE0B6B3A7640000 PUSH1 0x1 PUSH3 0x1A1 SWAP2 SWAP1 PUSH3 0x42E JUMP JUMPDEST PUSH3 0x1AD SWAP2 SWAP1 PUSH3 0x4A8 JUMP JUMPDEST PUSH1 0xA DUP2 SWAP1 SSTORE POP PUSH3 0x552 JUMP JUMPDEST CALLER PUSH20 0xFFFFFFFFFFFFFFFFFFFFFFFFFFFFFFFFFFFFFFFF AND DUP2 PUSH20 0xFFFFFFFFFFFFFFFFFFFFFFFFFFFFFFFFFFFFFFFF AND SUB PUSH3 0x22A JUMPI PUSH1 0x40 MLOAD PUSH32 0x8C379A000000000000000000000000000000000000000000000000000000000 DUP2 MSTORE PUSH1 0x4 ADD PUSH3 0x221 SWAP1 PUSH3 0x530 JUMP JUMPDEST PUSH1 0x40 MLOAD DUP1 SWAP2 SUB SWAP1 REVERT JUMPDEST DUP1 PUSH1 0x7 PUSH1 0x0 PUSH2 0x100 EXP DUP2 SLOAD DUP2 PUSH20 0xFFFFFFFFFFFFFFFFFFFFFFFFFFFFFFFFFFFFFFFF MUL NOT AND SWAP1 DUP4 PUSH20 0xFFFFFFFFFFFFFFFFFFFFFFFFFFFFFFFFFFFFFFFF AND MUL OR SWAP1 SSTORE POP DUP1 PUSH20 0xFFFFFFFFFFFFFFFFFFFFFFFFFFFFFFFFFFFFFFFF AND PUSH1 0x6 PUSH1 0x0 SWAP1 SLOAD SWAP1 PUSH2 0x100 EXP SWAP1 DIV PUSH20 0xFFFFFFFFFFFFFFFFFFFFFFFFFFFFFFFFFFFFFFFF AND PUSH20 0xFFFFFFFFFFFFFFFFFFFFFFFFFFFFFFFFFFFFFFFF AND PUSH32 0xED8889F560326EB138920D842192F0EB3DD22B4F139C87A2C57538E05BAE1278 PUSH1 0x40 MLOAD PUSH1 0x40 MLOAD DUP1 SWAP2 SUB SWAP1 LOG3 POP JUMP JUMPDEST DUP1 PUSH1 0x2 PUSH1 0x0 PUSH2 0x100 EXP DUP2 SLOAD DUP2 PUSH20 0xFFFFFFFFFFFFFFFFFFFFFFFFFFFFFFFFFFFFFFFF MUL NOT AND SWAP1 DUP4 PUSH20 0xFFFFFFFFFFFFFFFFFFFFFFFFFFFFFFFFFFFFFFFF AND MUL OR SWAP1 SSTORE POP POP JUMP JUMPDEST DUP1 PUSH1 0x3 PUSH1 0x0 PUSH2 0x100 EXP DUP2 SLOAD DUP2 PUSH20 0xFFFFFFFFFFFFFFFFFFFFFFFFFFFFFFFFFFFFFFFF MUL NOT AND SWAP1 DUP4 PUSH20 0xFFFFFFFFFFFFFFFFFFFFFFFFFFFFFFFFFFFFFFFF AND MUL OR SWAP1 SSTORE POP POP JUMP JUMPDEST PUSH1 0x0 DUP3 DUP3 MSTORE PUSH1 0x20 DUP3 ADD SWAP1 POP SWAP3 SWAP2 POP POP JUMP JUMPDEST PUSH32 0x43616E6E6F7420736574206F776E657220746F207A65726F0000000000000000 PUSH1 0x0 DUP3 ADD MSTORE POP JUMP JUMPDEST PUSH1 0x0 PUSH3 0x3BB PUSH1 0x18 DUP4 PUSH3 0x372 JUMP JUMPDEST SWAP2 POP PUSH3 0x3C8 DUP3 PUSH3 0x383 JUMP JUMPDEST PUSH1 0x20 DUP3 ADD SWAP1 POP SWAP2 SWAP1 POP JUMP JUMPDEST PUSH1 0x0 PUSH1 0x20 DUP3 ADD SWAP1 POP DUP2 DUP2 SUB PUSH1 0x0 DUP4 ADD MSTORE PUSH3 0x3EE DUP2 PUSH3 0x3AC JUMP JUMPDEST SWAP1 POP SWAP2 SWAP1 POP JUMP JUMPDEST PUSH1 0x0 DUP2 SWAP1 POP SWAP2 SWAP1 POP JUMP JUMPDEST PUSH32 0x4E487B7100000000000000000000000000000000000000000000000000000000 PUSH1 0x0 MSTORE PUSH1 0x11 PUSH1 0x4 MSTORE PUSH1 0x24 PUSH1 0x0 REVERT JUMPDEST PUSH1 0x0 PUSH3 0x43B DUP3 PUSH3 0x3F5 JUMP JUMPDEST SWAP2 POP PUSH3 0x448 DUP4 PUSH3 0x3F5 JUMP JUMPDEST SWAP3 POP DUP3 DUP3 MUL PUSH3 0x458 DUP2 PUSH3 0x3F5 JUMP JUMPDEST SWAP2 POP DUP3 DUP3 DIV DUP5 EQ DUP4 ISZERO OR PUSH3 0x472 JUMPI PUSH3 0x471 PUSH3 0x3FF JUMP JUMPDEST JUMPDEST POP SWAP3 SWAP2 POP POP JUMP JUMPDEST PUSH32 0x4E487B7100000000000000000000000000000000000000000000000000000000 PUSH1 0x0 MSTORE PUSH1 0x12 PUSH1 0x4 MSTORE PUSH1 0x24 PUSH1 0x0 REVERT JUMPDEST PUSH1 0x0 PUSH3 0x4B5 DUP3 PUSH3 0x3F5 JUMP JUMPDEST SWAP2 POP PUSH3 0x4C2 DUP4 PUSH3 0x3F5 JUMP JUMPDEST SWAP3 POP DUP3 PUSH3 0x4D5 JUMPI PUSH3 0x4D4 PUSH3 0x479 JUMP JUMPDEST JUMPDEST DUP3 DUP3 DIV SWAP1 POP SWAP3 SWAP2 POP POP JUMP JUMPDEST PUSH32 0x43616E6E6F74207472616E7366657220746F2073656C66000000000000000000 PUSH1 0x0 DUP3 ADD MSTORE POP JUMP JUMPDEST PUSH1 0x0 PUSH3 0x518 PUSH1 0x17 DUP4 PUSH3 0x372 JUMP JUMPDEST SWAP2 POP PUSH3 0x525 DUP3 PUSH3 0x4E0 JUMP JUMPDEST PUSH1 0x20 DUP3 ADD SWAP1 POP SWAP2 SWAP1 POP JUMP JUMPDEST PUSH1 0x0 PUSH1 0x20 DUP3 ADD SWAP1 POP DUP2 DUP2 SUB PUSH1 0x0 DUP4 ADD MSTORE PUSH3 0x54B DUP2 PUSH3 0x509 JUMP JUMPDEST SWAP1 POP SWAP2 SWAP1 POP JUMP JUMPDEST PUSH2 0x19DD DUP1 PUSH3 0x562 PUSH1 0x0 CODECOPY PUSH1 0x0 RETURN INVALID PUSH1 0x80 PUSH1 0x40 MSTORE CALLVALUE DUP1 ISZERO PUSH2 0x10 JUMPI PUSH1 0x0 DUP1 REVERT JUMPDEST POP PUSH1 0x4 CALLDATASIZE LT PUSH2 0x62 JUMPI PUSH1 0x0 CALLDATALOAD PUSH1 0xE0 SHR DUP1 PUSH4 0x4357855E EQ PUSH2 0x67 JUMPI DUP1 PUSH4 0x79BA5097 EQ PUSH2 0x83 JUMPI DUP1 PUSH4 0x8DA5CB5B EQ PUSH2 0x8D JUMPI DUP1 PUSH4 0xC618A1E4 EQ PUSH2 0xAB JUMPI DUP1 PUSH4 0xF2FDE38B EQ PUSH2 0xC9 JUMPI DUP1 PUSH4 0xF5E52916 EQ PUSH2 0xE5 JUMPI JUMPDEST PUSH1 0x0 DUP1 REVERT JUMPDEST PUSH2 0x81 PUSH1 0x4 DUP1 CALLDATASIZE SUB DUP2 ADD SWAP1 PUSH2 0x7C SWAP2 SWAP1 PUSH2 0x1022 JUMP JUMPDEST PUSH2 0x103 JUMP JUMPDEST STOP JUMPDEST PUSH2 0x8B PUSH2 0x24C JUMP JUMPDEST STOP JUMPDEST PUSH2 0x95 PUSH2 0x3E3 JUMP JUMPDEST PUSH1 0x40 MLOAD PUSH2 0xA2 SWAP2 SWAP1 PUSH2 0x10A3 JUMP JUMPDEST PUSH1 0x40 MLOAD DUP1 SWAP2 SUB SWAP1 RETURN JUMPDEST PUSH2 0xB3 PUSH2 0x40D JUMP JUMPDEST PUSH1 0x40 MLOAD PUSH2 0xC0 SWAP2 SWAP1 PUSH2 0x10CD JUMP JUMPDEST PUSH1 0x40 MLOAD DUP1 SWAP2 SUB SWAP1 RETURN JUMPDEST PUSH2 0xE3 PUSH1 0x4 DUP1 CALLDATASIZE SUB DUP2 ADD SWAP1 PUSH2 0xDE SWAP2 SWAP1 PUSH2 0x1114 JUMP JUMPDEST PUSH2 0x413 JUMP JUMPDEST STOP JUMPDEST PUSH2 0xED PUSH2 0x427 JUMP JUMPDEST PUSH1 0x40 MLOAD PUSH2 0xFA SWAP2 SWAP1 PUSH2 0x1150 JUMP JUMPDEST PUSH1 0x40 MLOAD DUP1 SWAP2 SUB SWAP1 RETURN JUMPDEST DUP2 PUSH1 0x5 PUSH1 0x0 DUP3 DUP2 MSTORE PUSH1 0x20 ADD SWAP1 DUP2 MSTORE PUSH1 0x20 ADD PUSH1 0x0 KECCAK256 PUSH1 0x0 SWAP1 SLOAD SWAP1 PUSH2 0x100 EXP SWAP1 DIV PUSH20 0xFFFFFFFFFFFFFFFFFFFFFFFFFFFFFFFFFFFFFFFF AND PUSH20 0xFFFFFFFFFFFFFFFFFFFFFFFFFFFFFFFFFFFFFFFF AND CALLER PUSH20 0xFFFFFFFFFFFFFFFFFFFFFFFFFFFFFFFFFFFFFFFF AND EQ PUSH2 0x1A5 JUMPI PUSH1 0x40 MLOAD PUSH32 0x8C379A000000000000000000000000000000000000000000000000000000000 DUP2 MSTORE PUSH1 0x4 ADD PUSH2 0x19C SWAP1 PUSH2 0x11EE JUMP JUMPDEST PUSH1 0x40 MLOAD DUP1 SWAP2 SUB SWAP1 REVERT JUMPDEST PUSH1 0x5 PUSH1 0x0 DUP3 DUP2 MSTORE PUSH1 0x20 ADD SWAP1 DUP2 MSTORE PUSH1 0x20 ADD PUSH1 0x0 KECCAK256 PUSH1 0x0 PUSH2 0x100 EXP DUP2 SLOAD SWAP1 PUSH20 0xFFFFFFFFFFFFFFFFFFFFFFFFFFFFFFFFFFFFFFFF MUL NOT AND SWAP1 SSTORE DUP1 PUSH32 0x7CC135E0CEBB02C3480AE5D74D377283180A2601F8F644EDF7987B009316C63A PUSH1 0x40 MLOAD PUSH1 0x40 MLOAD DUP1 SWAP2 SUB SWAP1 LOG2 DUP3 PUSH32 0x673B38182859A514D734BDFCB49D3A05C4A641DEC9311D9894C9717BCB79AF76 DUP4 PUSH1 0x40 MLOAD PUSH2 0x238 SWAP2 SWAP1 PUSH2 0x10CD JUMP JUMPDEST PUSH1 0x40 MLOAD DUP1 SWAP2 SUB SWAP1 LOG2 DUP2 PUSH1 0x8 DUP2 SWAP1 SSTORE POP POP POP POP JUMP JUMPDEST PUSH1 0x7 PUSH1 0x0 SWAP1 SLOAD SWAP1 PUSH2 0x100 EXP SWAP1 DIV PUSH20 0xFFFFFFFFFFFFFFFFFFFFFFFFFFFFFFFFFFFFFFFF AND PUSH20 0xFFFFFFFFFFFFFFFFFFFFFFFFFFFFFFFFFFFFFFFF AND CALLER PUSH20 0xFFFFFFFFFFFFFFFFFFFFFFFFFFFFFFFFFFFFFFFF AND EQ PUSH2 0x2DC JUMPI PUSH1 0x40 MLOAD PUSH32 0x8C379A000000000000000000000000000000000000000000000000000000000 DUP2 MSTORE PUSH1 0x4 ADD PUSH2 0x2D3 SWAP1 PUSH2 0x125A JUMP JUMPDEST PUSH1 0x40 MLOAD DUP1 SWAP2 SUB SWAP1 REVERT JUMPDEST PUSH1 0x0 PUSH1 0x6 PUSH1 0x0 SWAP1 SLOAD SWAP1 PUSH2 0x100 EXP SWAP1 DIV PUSH20 0xFFFFFFFFFFFFFFFFFFFFFFFFFFFFFFFFFFFFFFFF AND SWAP1 POP CALLER PUSH1 0x6 PUSH1 0x0 PUSH2 0x100 EXP DUP2 SLOAD DUP2 PUSH20 0xFFFFFFFFFFFFFFFFFFFFFFFFFFFFFFFFFFFFFFFF MUL NOT AND SWAP1 DUP4 PUSH20 0xFFFFFFFFFFFFFFFFFFFFFFFFFFFFFFFFFFFFFFFF AND MUL OR SWAP1 SSTORE POP PUSH1 0x0 PUSH1 0x7 PUSH1 0x0 PUSH2 0x100 EXP DUP2 SLOAD DUP2 PUSH20 0xFFFFFFFFFFFFFFFFFFFFFFFFFFFFFFFFFFFFFFFF MUL NOT AND SWAP1 DUP4 PUSH20 0xFFFFFFFFFFFFFFFFFFFFFFFFFFFFFFFFFFFFFFFF AND MUL OR SWAP1 SSTORE POP CALLER PUSH20 0xFFFFFFFFFFFFFFFFFFFFFFFFFFFFFFFFFFFFFFFF AND DUP2 PUSH20 0xFFFFFFFFFFFFFFFFFFFFFFFFFFFFFFFFFFFFFFFF AND PUSH32 0x8BE0079C531659141344CD1FD0A4F28419497F9722A3DAAFE3B4186F6B6457E0 PUSH1 0x40 MLOAD PUSH1 0x40 MLOAD DUP1 SWAP2 SUB SWAP1 LOG3 POP JUMP JUMPDEST PUSH1 0x0 PUSH1 0x6 PUSH1 0x0 SWAP1 SLOAD SWAP1 PUSH2 0x100 EXP SWAP1 DIV PUSH20 0xFFFFFFFFFFFFFFFFFFFFFFFFFFFFFFFFFFFFFFFF AND SWAP1 POP SWAP1 JUMP JUMPDEST PUSH1 0x8 SLOAD DUP2 JUMP JUMPDEST PUSH2 0x41B PUSH2 0x533 JUMP JUMPDEST PUSH2 0x424 DUP2 PUSH2 0x5C5 JUMP JUMPDEST POP JUMP JUMPDEST PUSH1 0x0 DUP1 PUSH2 0x43E PUSH1 0x9 SLOAD ADDRESS PUSH4 0x4357855E PUSH1 0xE0 SHL PUSH2 0x6F3 JUMP JUMPDEST SWAP1 POP PUSH2 0x4A2 PUSH1 0x40 MLOAD DUP1 PUSH1 0x40 ADD PUSH1 0x40 MSTORE DUP1 PUSH1 0x3 DUP2 MSTORE PUSH1 0x20 ADD PUSH32 0x6765740000000000000000000000000000000000000000000000000000000000 DUP2 MSTORE POP PUSH1 0x40 MLOAD DUP1 PUSH1 0x60 ADD PUSH1 0x40 MSTORE DUP1 PUSH1 0x34 DUP2 MSTORE PUSH1 0x20 ADD PUSH2 0x1974 PUSH1 0x34 SWAP2 CODECOPY DUP4 PUSH2 0x724 SWAP1 SWAP3 SWAP2 SWAP1 PUSH4 0xFFFFFFFF AND JUMP JUMPDEST PUSH2 0x521 PUSH1 0x40 MLOAD DUP1 PUSH1 0x40 ADD PUSH1 0x40 MSTORE DUP1 PUSH1 0x4 DUP2 MSTORE PUSH1 0x20 ADD PUSH32 0x7061746800000000000000000000000000000000000000000000000000000000 DUP2 MSTORE POP PUSH1 0x40 MLOAD DUP1 PUSH1 0x40 ADD PUSH1 0x40 MSTORE DUP1 PUSH1 0x1B DUP2 MSTORE PUSH1 0x20 ADD PUSH32 0x302C6F6470743A747261696E496E666F726D6174696F6E546578740000000000 DUP2 MSTORE POP DUP4 PUSH2 0x724 SWAP1 SWAP3 SWAP2 SWAP1 PUSH4 0xFFFFFFFF AND JUMP JUMPDEST PUSH2 0x52D DUP2 PUSH1 0xA SLOAD PUSH2 0x757 JUMP JUMPDEST SWAP2 POP POP SWAP1 JUMP JUMPDEST PUSH1 0x6 PUSH1 0x0 SWAP1 SLOAD SWAP1 PUSH2 0x100 EXP SWAP1 DIV PUSH20 0xFFFFFFFFFFFFFFFFFFFFFFFFFFFFFFFFFFFFFFFF AND PUSH20 0xFFFFFFFFFFFFFFFFFFFFFFFFFFFFFFFFFFFFFFFF AND CALLER PUSH20 0xFFFFFFFFFFFFFFFFFFFFFFFFFFFFFFFFFFFFFFFF AND EQ PUSH2 0x5C3 JUMPI PUSH1 0x40 MLOAD PUSH32 0x8C379A000000000000000000000000000000000000000000000000000000000 DUP2 MSTORE PUSH1 0x4 ADD PUSH2 0x5BA SWAP1 PUSH2 0x12C6 JUMP JUMPDEST PUSH1 0x40 MLOAD DUP1 SWAP2 SUB SWAP1 REVERT JUMPDEST JUMP JUMPDEST CALLER PUSH20 0xFFFFFFFFFFFFFFFFFFFFFFFFFFFFFFFFFFFFFFFF AND DUP2 PUSH20 0xFFFFFFFFFFFFFFFFFFFFFFFFFFFFFFFFFFFFFFFF AND SUB PUSH2 0x633 JUMPI PUSH1 0x40 MLOAD PUSH32 0x8C379A000000000000000000000000000000000000000000000000000000000 DUP2 MSTORE PUSH1 0x4 ADD PUSH2 0x62A SWAP1 PUSH2 0x1332 JUMP JUMPDEST PUSH1 0x40 MLOAD DUP1 SWAP2 SUB SWAP1 REVERT JUMPDEST DUP1 PUSH1 0x7 PUSH1 0x0 PUSH2 0x100 EXP DUP2 SLOAD DUP2 PUSH20 0xFFFFFFFFFFFFFFFFFFFFFFFFFFFFFFFFFFFFFFFF MUL NOT AND SWAP1 DUP4 PUSH20 0xFFFFFFFFFFFFFFFFFFFFFFFFFFFFFFFFFFFFFFFF AND MUL OR SWAP1 SSTORE POP DUP1 PUSH20 0xFFFFFFFFFFFFFFFFFFFFFFFFFFFFFFFFFFFFFFFF AND PUSH1 0x6 PUSH1 0x0 SWAP1 SLOAD SWAP1 PUSH2 0x100 EXP SWAP1 DIV PUSH20 0xFFFFFFFFFFFFFFFFFFFFFFFFFFFFFFFFFFFFFFFF AND PUSH20 0xFFFFFFFFFFFFFFFFFFFFFFFFFFFFFFFFFFFFFFFF AND PUSH32 0xED8889F560326EB138920D842192F0EB3DD22B4F139C87A2C57538E05BAE1278 PUSH1 0x40 MLOAD PUSH1 0x40 MLOAD DUP1 SWAP2 SUB SWAP1 LOG3 POP JUMP JUMPDEST PUSH2 0x6FB PUSH2 0xF2A JUMP JUMPDEST PUSH2 0x703 PUSH2 0xF2A JUMP JUMPDEST PUSH2 0x71A DUP6 DUP6 DUP6 DUP5 PUSH2 0x78E SWAP1 SWAP4 SWAP3 SWAP2 SWAP1 PUSH4 0xFFFFFFFF AND JUMP JUMPDEST SWAP2 POP POP SWAP4 SWAP3 POP POP POP JUMP JUMPDEST PUSH2 0x73B DUP3 DUP5 PUSH1 0x80 ADD MLOAD PUSH2 0x83E SWAP1 SWAP2 SWAP1 PUSH4 0xFFFFFFFF AND JUMP JUMPDEST PUSH2 0x752 DUP2 DUP5 PUSH1 0x80 ADD MLOAD PUSH2 0x83E SWAP1 SWAP2 SWAP1 PUSH4 0xFFFFFFFF AND JUMP JUMPDEST POP POP POP JUMP JUMPDEST PUSH1 0x0 PUSH2 0x786 PUSH1 0x3 PUSH1 0x0 SWAP1 SLOAD SWAP1 PUSH2 0x100 EXP SWAP1 DIV PUSH20 0xFFFFFFFFFFFFFFFFFFFFFFFFFFFFFFFFFFFFFFFF AND DUP5 DUP5 PUSH2 0x863 JUMP JUMPDEST SWAP1 POP SWAP3 SWAP2 POP POP JUMP JUMPDEST PUSH2 0x796 PUSH2 0xF2A JUMP JUMPDEST PUSH2 0x7A6 DUP6 PUSH1 0x80 ADD MLOAD PUSH2 0x100 PUSH2 0x92F JUMP JUMPDEST POP DUP4 DUP6 PUSH1 0x0 ADD DUP2 DUP2 MSTORE POP POP DUP3 DUP6 PUSH1 0x20 ADD SWAP1 PUSH20 0xFFFFFFFFFFFFFFFFFFFFFFFFFFFFFFFFFFFFFFFF AND SWAP1 DUP2 PUSH20 0xFFFFFFFFFFFFFFFFFFFFFFFFFFFFFFFFFFFFFFFF AND DUP2 MSTORE POP POP DUP2 DUP6 PUSH1 0x40 ADD SWAP1 PUSH28 0xFFFFFFFFFFFFFFFFFFFFFFFFFFFFFFFFFFFFFFFFFFFFFFFFFFFFFFFF NOT AND SWAP1 DUP2 PUSH28 0xFFFFFFFFFFFFFFFFFFFFFFFFFFFFFFFFFFFFFFFFFFFFFFFFFFFFFFFF NOT AND DUP2 MSTORE POP POP DUP5 SWAP1 POP SWAP5 SWAP4 POP POP POP POP JUMP JUMPDEST PUSH2 0x84B DUP3 PUSH1 0x3 DUP4 MLOAD PUSH2 0x999 JUMP JUMPDEST PUSH2 0x85E DUP2 DUP4 PUSH2 0xB1E SWAP1 SWAP2 SWAP1 PUSH4 0xFFFFFFFF AND JUMP JUMPDEST POP POP POP JUMP JUMPDEST PUSH1 0x0 DUP1 PUSH1 0x4 SLOAD SWAP1 POP PUSH1 0x1 DUP2 PUSH2 0x878 SWAP2 SWAP1 PUSH2 0x1381 JUMP JUMPDEST PUSH1 0x4 DUP2 SWAP1 SSTORE POP PUSH1 0x0 PUSH4 0x40429946 PUSH1 0xE0 SHL PUSH1 0x0 DUP1 DUP8 PUSH1 0x0 ADD MLOAD ADDRESS DUP10 PUSH1 0x40 ADD MLOAD DUP8 PUSH1 0x1 DUP13 PUSH1 0x80 ADD MLOAD PUSH1 0x0 ADD MLOAD PUSH1 0x40 MLOAD PUSH1 0x24 ADD PUSH2 0x8B9 SWAP9 SWAP8 SWAP7 SWAP6 SWAP5 SWAP4 SWAP3 SWAP2 SWAP1 PUSH2 0x1480 JUMP JUMPDEST PUSH1 0x40 MLOAD PUSH1 0x20 DUP2 DUP4 SUB SUB DUP2 MSTORE SWAP1 PUSH1 0x40 MSTORE SWAP1 PUSH28 0xFFFFFFFFFFFFFFFFFFFFFFFFFFFFFFFFFFFFFFFFFFFFFFFFFFFFFFFF NOT AND PUSH1 0x20 DUP3 ADD DUP1 MLOAD PUSH28 0xFFFFFFFFFFFFFFFFFFFFFFFFFFFFFFFFFFFFFFFFFFFFFFFFFFFFFFFF DUP4 DUP2 DUP4 AND OR DUP4 MSTORE POP POP POP POP SWAP1 POP PUSH2 0x924 DUP7 DUP4 DUP7 DUP5 PUSH2 0xB40 JUMP JUMPDEST SWAP3 POP POP POP SWAP4 SWAP3 POP POP POP JUMP JUMPDEST PUSH2 0x937 PUSH2 0xF97 JUMP JUMPDEST PUSH1 0x0 PUSH1 0x20 DUP4 PUSH2 0x946 SWAP2 SWAP1 PUSH2 0x1534 JUMP JUMPDEST EQ PUSH2 0x972 JUMPI PUSH1 0x20 DUP3 PUSH2 0x958 SWAP2 SWAP1 PUSH2 0x1534 JUMP JUMPDEST PUSH1 0x20 PUSH2 0x964 SWAP2 SWAP1 PUSH2 0x1565 JUMP JUMPDEST DUP3 PUSH2 0x96F SWAP2 SWAP1 PUSH2 0x1381 JUMP JUMPDEST SWAP2 POP JUMPDEST DUP2 DUP4 PUSH1 0x20 ADD DUP2 DUP2 MSTORE POP POP PUSH1 0x40 MLOAD DUP1 DUP5 MSTORE PUSH1 0x0 DUP2 MSTORE DUP3 DUP2 ADD PUSH1 0x20 ADD PUSH1 0x40 MSTORE POP DUP3 SWAP1 POP SWAP3 SWAP2 POP POP JUMP JUMPDEST PUSH1 0x17 DUP2 PUSH8 0xFFFFFFFFFFFFFFFF AND GT PUSH2 0x9D0 JUMPI PUSH2 0x9CA DUP2 PUSH1 0x5 DUP5 PUSH1 0xFF AND SWAP1 SHL PUSH1 0xFF AND OR DUP5 PUSH2 0xCD5 SWAP1 SWAP2 SWAP1 PUSH4 0xFFFFFFFF AND JUMP JUMPDEST POP PUSH2 0xB19 JUMP JUMPDEST PUSH1 0xFF DUP2 PUSH8 0xFFFFFFFFFFFFFFFF AND GT PUSH2 0xA26 JUMPI PUSH2 0x9FF PUSH1 0x18 PUSH1 0x5 DUP5 PUSH1 0xFF AND SWAP1 SHL OR DUP5 PUSH2 0xCD5 SWAP1 SWAP2 SWAP1 PUSH4 0xFFFFFFFF AND JUMP JUMPDEST POP PUSH2 0xA20 DUP2 PUSH8 0xFFFFFFFFFFFFFFFF AND PUSH1 0x1 DUP6 PUSH2 0xCF5 SWAP1 SWAP3 SWAP2 SWAP1 PUSH4 0xFFFFFFFF AND JUMP JUMPDEST POP PUSH2 0xB18 JUMP JUMPDEST PUSH2 0xFFFF DUP2 PUSH8 0xFFFFFFFFFFFFFFFF AND GT PUSH2 0xA7D JUMPI PUSH2 0xA56 PUSH1 0x19 PUSH1 0x5 DUP5 PUSH1 0xFF AND SWAP1 SHL OR DUP5 PUSH2 0xCD5 SWAP1 SWAP2 SWAP1 PUSH4 0xFFFFFFFF AND JUMP JUMPDEST POP PUSH2 0xA77 DUP2 PUSH8 0xFFFFFFFFFFFFFFFF AND PUSH1 0x2 DUP6 PUSH2 0xCF5 SWAP1 SWAP3 SWAP2 SWAP1 PUSH4 0xFFFFFFFF AND JUMP JUMPDEST POP PUSH2 0xB17 JUMP JUMPDEST PUSH4 0xFFFFFFFF DUP2 PUSH8 0xFFFFFFFFFFFFFFFF AND GT PUSH2 0xAD6 JUMPI PUSH2 0xAAF PUSH1 0x1A PUSH1 0x5 DUP5 PUSH1 0xFF AND SWAP1 SHL OR DUP5 PUSH2 0xCD5 SWAP1 SWAP2 SWAP1 PUSH4 0xFFFFFFFF AND JUMP JUMPDEST POP PUSH2 0xAD0 DUP2 PUSH8 0xFFFFFFFFFFFFFFFF AND PUSH1 0x4 DUP6 PUSH2 0xCF5 SWAP1 SWAP3 SWAP2 SWAP1 PUSH4 0xFFFFFFFF AND JUMP JUMPDEST POP PUSH2 0xB16 JUMP JUMPDEST PUSH2 0xAF3 PUSH1 0x1B PUSH1 0x5 DUP5 PUSH1 0xFF AND SWAP1 SHL OR DUP5 PUSH2 0xCD5 SWAP1 SWAP2 SWAP1 PUSH4 0xFFFFFFFF AND JUMP JUMPDEST POP PUSH2 0xB14 DUP2 PUSH8 0xFFFFFFFFFFFFFFFF AND PUSH1 0x8 DUP6 PUSH2 0xCF5 SWAP1 SWAP3 SWAP2 SWAP1 PUSH4 0xFFFFFFFF AND JUMP JUMPDEST POP JUMPDEST JUMPDEST JUMPDEST JUMPDEST POP POP POP JUMP JUMPDEST PUSH2 0xB26 PUSH2 0xF97 JUMP JUMPDEST PUSH2 0xB38 DUP4 DUP5 PUSH1 0x0 ADD MLOAD MLOAD DUP5 DUP6 MLOAD PUSH2 0xD17 JUMP JUMPDEST SWAP1 POP SWAP3 SWAP2 POP POP JUMP JUMPDEST PUSH1 0x0 ADDRESS DUP5 PUSH1 0x40 MLOAD PUSH1 0x20 ADD PUSH2 0xB55 SWAP3 SWAP2 SWAP1 PUSH2 0x1652 JUMP JUMPDEST PUSH1 0x40 MLOAD PUSH1 0x20 DUP2 DUP4 SUB SUB DUP2 MSTORE SWAP1 PUSH1 0x40 MSTORE DUP1 MLOAD SWAP1 PUSH1 0x20 ADD KECCAK256 SWAP1 POP DUP5 PUSH1 0x5 PUSH1 0x0 DUP4 DUP2 MSTORE PUSH1 0x20 ADD SWAP1 DUP2 MSTORE PUSH1 0x20 ADD PUSH1 0x0 KECCAK256 PUSH1 0x0 PUSH2 0x100 EXP DUP2 SLOAD DUP2 PUSH20 0xFFFFFFFFFFFFFFFFFFFFFFFFFFFFFFFFFFFFFFFF MUL NOT AND SWAP1 DUP4 PUSH20 0xFFFFFFFFFFFFFFFFFFFFFFFFFFFFFFFFFFFFFFFF AND MUL OR SWAP1 SSTORE POP DUP1 PUSH32 0xB5E6E01E79F91267DC17B4E6314D5D4D03593D2CEEE0FBB452B750BD70EA5AF9 PUSH1 0x40 MLOAD PUSH1 0x40 MLOAD DUP1 SWAP2 SUB SWAP1 LOG2 PUSH1 0x2 PUSH1 0x0 SWAP1 SLOAD SWAP1 PUSH2 0x100 EXP SWAP1 DIV PUSH20 0xFFFFFFFFFFFFFFFFFFFFFFFFFFFFFFFFFFFFFFFF AND PUSH20 0xFFFFFFFFFFFFFFFFFFFFFFFFFFFFFFFFFFFFFFFF AND PUSH4 0x4000AEA0 DUP7 DUP6 DUP6 PUSH1 0x40 MLOAD DUP5 PUSH4 0xFFFFFFFF AND PUSH1 0xE0 SHL DUP2 MSTORE PUSH1 0x4 ADD PUSH2 0xC4B SWAP4 SWAP3 SWAP2 SWAP1 PUSH2 0x167E JUMP JUMPDEST PUSH1 0x20 PUSH1 0x40 MLOAD DUP1 DUP4 SUB DUP2 PUSH1 0x0 DUP8 GAS CALL ISZERO DUP1 ISZERO PUSH2 0xC6A JUMPI RETURNDATASIZE PUSH1 0x0 DUP1 RETURNDATACOPY RETURNDATASIZE PUSH1 0x0 REVERT JUMPDEST POP POP POP POP PUSH1 0x40 MLOAD RETURNDATASIZE PUSH1 0x1F NOT PUSH1 0x1F DUP3 ADD AND DUP3 ADD DUP1 PUSH1 0x40 MSTORE POP DUP2 ADD SWAP1 PUSH2 0xC8E SWAP2 SWAP1 PUSH2 0x16F4 JUMP JUMPDEST PUSH2 0xCCD JUMPI PUSH1 0x40 MLOAD PUSH32 0x8C379A000000000000000000000000000000000000000000000000000000000 DUP2 MSTORE PUSH1 0x4 ADD PUSH2 0xCC4 SWAP1 PUSH2 0x1793 JUMP JUMPDEST PUSH1 0x40 MLOAD DUP1 SWAP2 SUB SWAP1 REVERT JUMPDEST SWAP5 SWAP4 POP POP POP POP JUMP JUMPDEST PUSH2 0xCDD PUSH2 0xF97 JUMP JUMPDEST PUSH2 0xCED DUP4 DUP5 PUSH1 0x0 ADD MLOAD MLOAD DUP5 PUSH2 0xE06 JUMP JUMPDEST SWAP1 POP SWAP3 SWAP2 POP POP JUMP JUMPDEST PUSH2 0xCFD PUSH2 0xF97 JUMP JUMPDEST PUSH2 0xD0E DUP5 DUP6 PUSH1 0x0 ADD MLOAD MLOAD DUP6 DUP6 PUSH2 0xE5C JUMP JUMPDEST SWAP1 POP SWAP4 SWAP3 POP POP POP JUMP JUMPDEST PUSH2 0xD1F PUSH2 0xF97 JUMP JUMPDEST DUP3 MLOAD DUP3 GT ISZERO PUSH2 0xD2D JUMPI PUSH1 0x0 DUP1 REVERT JUMPDEST DUP5 PUSH1 0x20 ADD MLOAD DUP3 DUP6 PUSH2 0xD3E SWAP2 SWAP1 PUSH2 0x1381 JUMP JUMPDEST GT ISZERO PUSH2 0xD73 JUMPI PUSH2 0xD72 DUP6 PUSH1 0x2 PUSH2 0xD63 DUP9 PUSH1 0x20 ADD MLOAD DUP9 DUP8 PUSH2 0xD5E SWAP2 SWAP1 PUSH2 0x1381 JUMP JUMPDEST PUSH2 0xEEA JUMP JUMPDEST PUSH2 0xD6D SWAP2 SWAP1 PUSH2 0x17B3 JUMP JUMPDEST PUSH2 0xF06 JUMP JUMPDEST JUMPDEST PUSH1 0x0 DUP1 DUP7 MLOAD DUP1 MLOAD DUP8 PUSH1 0x20 DUP4 ADD ADD SWAP4 POP DUP1 DUP9 DUP8 ADD GT ISZERO PUSH2 0xD92 JUMPI DUP8 DUP7 ADD DUP3 MSTORE JUMPDEST PUSH1 0x20 DUP8 ADD SWAP3 POP POP POP JUMPDEST PUSH1 0x20 DUP5 LT PUSH2 0xDD9 JUMPI DUP1 MLOAD DUP3 MSTORE PUSH1 0x20 DUP3 PUSH2 0xDB4 SWAP2 SWAP1 PUSH2 0x1381 JUMP JUMPDEST SWAP2 POP PUSH1 0x20 DUP2 PUSH2 0xDC3 SWAP2 SWAP1 PUSH2 0x1381 JUMP JUMPDEST SWAP1 POP PUSH1 0x20 DUP5 PUSH2 0xDD2 SWAP2 SWAP1 PUSH2 0x1565 JUMP JUMPDEST SWAP4 POP PUSH2 0xD9B JUMP JUMPDEST PUSH1 0x0 PUSH1 0x1 DUP6 PUSH1 0x20 SUB PUSH2 0x100 EXP SUB SWAP1 POP DUP1 NOT DUP3 MLOAD AND DUP2 DUP5 MLOAD AND DUP2 DUP2 OR DUP6 MSTORE POP POP POP DUP7 SWAP3 POP POP POP SWAP5 SWAP4 POP POP POP POP JUMP JUMPDEST PUSH2 0xE0E PUSH2 0xF97 JUMP JUMPDEST DUP4 PUSH1 0x20 ADD MLOAD DUP4 LT PUSH2 0xE34 JUMPI PUSH2 0xE33 DUP5 PUSH1 0x2 DUP7 PUSH1 0x20 ADD MLOAD PUSH2 0xE2E SWAP2 SWAP1 PUSH2 0x17B3 JUMP JUMPDEST PUSH2 0xF06 JUMP JUMPDEST JUMPDEST DUP4 MLOAD DUP1 MLOAD PUSH1 0x20 DUP6 DUP4 ADD ADD DUP5 DUP2 MSTORE8 DUP2 DUP7 SUB PUSH2 0xE4F JUMPI PUSH1 0x1 DUP3 ADD DUP4 MSTORE JUMPDEST POP POP POP DUP4 SWAP1 POP SWAP4 SWAP3 POP POP POP JUMP JUMPDEST PUSH2 0xE64 PUSH2 0xF97 JUMP JUMPDEST DUP5 PUSH1 0x20 ADD MLOAD DUP5 DUP4 PUSH2 0xE75 SWAP2 SWAP1 PUSH2 0x1381 JUMP JUMPDEST GT ISZERO PUSH2 0xE9D JUMPI PUSH2 0xE9C DUP6 PUSH1 0x2 DUP7 DUP6 PUSH2 0xE8D SWAP2 SWAP1 PUSH2 0x1381 JUMP JUMPDEST PUSH2 0xE97 SWAP2 SWAP1 PUSH2 0x17B3 JUMP JUMPDEST PUSH2 0xF06 JUMP JUMPDEST JUMPDEST PUSH1 0x0 PUSH1 0x1 DUP4 PUSH2 0x100 PUSH2 0xEAF SWAP2 SWAP1 PUSH2 0x1928 JUMP JUMPDEST PUSH2 0xEB9 SWAP2 SWAP1 PUSH2 0x1565 JUMP JUMPDEST SWAP1 POP DUP6 MLOAD DUP4 DUP7 DUP3 ADD ADD DUP6 DUP4 NOT DUP3 MLOAD AND OR DUP2 MSTORE DUP2 MLOAD DUP6 DUP9 ADD GT ISZERO PUSH2 0xEDC JUMPI DUP5 DUP8 ADD DUP3 MSTORE JUMPDEST POP POP DUP6 SWAP2 POP POP SWAP5 SWAP4 POP POP POP POP JUMP JUMPDEST PUSH1 0x0 DUP2 DUP4 GT ISZERO PUSH2 0xEFC JUMPI DUP3 SWAP1 POP PUSH2 0xF00 JUMP JUMPDEST DUP2 SWAP1 POP JUMPDEST SWAP3 SWAP2 POP POP JUMP JUMPDEST PUSH1 0x0 DUP3 PUSH1 0x0 ADD MLOAD SWAP1 POP PUSH2 0xF19 DUP4 DUP4 PUSH2 0x92F JUMP JUMPDEST POP PUSH2 0xF24 DUP4 DUP3 PUSH2 0xB1E JUMP JUMPDEST POP POP POP POP JUMP JUMPDEST PUSH1 0x40 MLOAD DUP1 PUSH1 0xA0 ADD PUSH1 0x40 MSTORE DUP1 PUSH1 0x0 DUP1 NOT AND DUP2 MSTORE PUSH1 0x20 ADD PUSH1 0x0 PUSH20 0xFFFFFFFFFFFFFFFFFFFFFFFFFFFFFFFFFFFFFFFF AND DUP2 MSTORE PUSH1 0x20 ADD PUSH1 0x0 PUSH28 0xFFFFFFFFFFFFFFFFFFFFFFFFFFFFFFFFFFFFFFFFFFFFFFFFFFFFFFFF NOT AND DUP2 MSTORE PUSH1 0x20 ADD PUSH1 0x0 DUP2 MSTORE PUSH1 0x20 ADD PUSH2 0xF91 PUSH2 0xF97 JUMP JUMPDEST DUP2 MSTORE POP SWAP1 JUMP JUMPDEST PUSH1 0x40 MLOAD DUP1 PUSH1 0x40 ADD PUSH1 0x40 MSTORE DUP1 PUSH1 0x60 DUP2 MSTORE PUSH1 0x20 ADD PUSH1 0x0 DUP2 MSTORE POP SWAP1 JUMP JUMPDEST PUSH1 0x0 DUP1 REVERT JUMPDEST PUSH1 0x0 DUP2 SWAP1 POP SWAP2 SWAP1 POP JUMP JUMPDEST PUSH2 0xFC9 DUP2 PUSH2 0xFB6 JUMP JUMPDEST DUP2 EQ PUSH2 0xFD4 JUMPI PUSH1 0x0 DUP1 REVERT JUMPDEST POP JUMP JUMPDEST PUSH1 0x0 DUP2 CALLDATALOAD SWAP1 POP PUSH2 0xFE6 DUP2 PUSH2 0xFC0 JUMP JUMPDEST SWAP3 SWAP2 POP POP JUMP JUMPDEST PUSH1 0x0 DUP2 SWAP1 POP SWAP2 SWAP1 POP JUMP JUMPDEST PUSH2 0xFFF DUP2 PUSH2 0xFEC JUMP JUMPDEST DUP2 EQ PUSH2 0x100A JUMPI PUSH1 0x0 DUP1 REVERT JUMPDEST POP JUMP JUMPDEST PUSH1 0x0 DUP2 CALLDATALOAD SWAP1 POP PUSH2 0x101C DUP2 PUSH2 0xFF6 JUMP JUMPDEST SWAP3 SWAP2 POP POP JUMP JUMPDEST PUSH1 0x0 DUP1 PUSH1 0x40 DUP4 DUP6 SUB SLT ISZERO PUSH2 0x1039 JUMPI PUSH2 0x1038 PUSH2 0xFB1 JUMP JUMPDEST JUMPDEST PUSH1 0x0 PUSH2 0x1047 DUP6 DUP3 DUP7 ADD PUSH2 0xFD7 JUMP JUMPDEST SWAP3 POP POP PUSH1 0x20 PUSH2 0x1058 DUP6 DUP3 DUP7 ADD PUSH2 0x100D JUMP JUMPDEST SWAP2 POP POP SWAP3 POP SWAP3 SWAP1 POP JUMP JUMPDEST PUSH1 0x0 PUSH20 0xFFFFFFFFFFFFFFFFFFFFFFFFFFFFFFFFFFFFFFFF DUP3 AND SWAP1 POP SWAP2 SWAP1 POP JUMP JUMPDEST PUSH1 0x0 PUSH2 0x108D DUP3 PUSH2 0x1062 JUMP JUMPDEST SWAP1 POP SWAP2 SWAP1 POP JUMP JUMPDEST PUSH2 0x109D DUP2 PUSH2 0x1082 JUMP JUMPDEST DUP3 MSTORE POP POP JUMP JUMPDEST PUSH1 0x0 PUSH1 0x20 DUP3 ADD SWAP1 POP PUSH2 0x10B8 PUSH1 0x0 DUP4 ADD DUP5 PUSH2 0x1094 JUMP JUMPDEST SWAP3 SWAP2 POP POP JUMP JUMPDEST PUSH2 0x10C7 DUP2 PUSH2 0xFEC JUMP JUMPDEST DUP3 MSTORE POP POP JUMP JUMPDEST PUSH1 0x0 PUSH1 0x20 DUP3 ADD SWAP1 POP PUSH2 0x10E2 PUSH1 0x0 DUP4 ADD DUP5 PUSH2 0x10BE JUMP JUMPDEST SWAP3 SWAP2 POP POP JUMP JUMPDEST PUSH2 0x10F1 DUP2 PUSH2 0x1082 JUMP JUMPDEST DUP2 EQ PUSH2 0x10FC JUMPI PUSH1 0x0 DUP1 REVERT JUMPDEST POP JUMP JUMPDEST PUSH1 0x0 DUP2 CALLDATALOAD SWAP1 POP PUSH2 0x110E DUP2 PUSH2 0x10E8 JUMP JUMPDEST SWAP3 SWAP2 POP POP JUMP JUMPDEST PUSH1 0x0 PUSH1 0x20 DUP3 DUP5 SUB SLT ISZERO PUSH2 0x112A JUMPI PUSH2 0x1129 PUSH2 0xFB1 JUMP JUMPDEST JUMPDEST PUSH1 0x0 PUSH2 0x1138 DUP5 DUP3 DUP6 ADD PUSH2 0x10FF JUMP JUMPDEST SWAP2 POP POP SWAP3 SWAP2 POP POP JUMP JUMPDEST PUSH2 0x114A DUP2 PUSH2 0xFB6 JUMP JUMPDEST DUP3 MSTORE POP POP JUMP JUMPDEST PUSH1 0x0 PUSH1 0x20 DUP3 ADD SWAP1 POP PUSH2 0x1165 PUSH1 0x0 DUP4 ADD DUP5 PUSH2 0x1141 JUMP JUMPDEST SWAP3 SWAP2 POP POP JUMP JUMPDEST PUSH1 0x0 DUP3 DUP3 MSTORE PUSH1 0x20 DUP3 ADD SWAP1 POP SWAP3 SWAP2 POP POP JUMP JUMPDEST PUSH32 0x536F75726365206D75737420626520746865206F7261636C65206F6620746865 PUSH1 0x0 DUP3 ADD MSTORE PUSH32 0x2072657175657374000000000000000000000000000000000000000000000000 PUSH1 0x20 DUP3 ADD MSTORE POP JUMP JUMPDEST PUSH1 0x0 PUSH2 0x11D8 PUSH1 0x28 DUP4 PUSH2 0x116B JUMP JUMPDEST SWAP2 POP PUSH2 0x11E3 DUP3 PUSH2 0x117C JUMP JUMPDEST PUSH1 0x40 DUP3 ADD SWAP1 POP SWAP2 SWAP1 POP JUMP JUMPDEST PUSH1 0x0 PUSH1 0x20 DUP3 ADD SWAP1 POP DUP2 DUP2 SUB PUSH1 0x0 DUP4 ADD MSTORE PUSH2 0x1207 DUP2 PUSH2 0x11CB JUMP JUMPDEST SWAP1 POP SWAP2 SWAP1 POP JUMP JUMPDEST PUSH32 0x4D7573742062652070726F706F736564206F776E657200000000000000000000 PUSH1 0x0 DUP3 ADD MSTORE POP JUMP JUMPDEST PUSH1 0x0 PUSH2 0x1244 PUSH1 0x16 DUP4 PUSH2 0x116B JUMP JUMPDEST SWAP2 POP PUSH2 0x124F DUP3 PUSH2 0x120E JUMP JUMPDEST PUSH1 0x20 DUP3 ADD SWAP1 POP SWAP2 SWAP1 POP JUMP JUMPDEST PUSH1 0x0 PUSH1 0x20 DUP3 ADD SWAP1 POP DUP2 DUP2 SUB PUSH1 0x0 DUP4 ADD MSTORE PUSH2 0x1273 DUP2 PUSH2 0x1237 JUMP JUMPDEST SWAP1 POP SWAP2 SWAP1 POP JUMP JUMPDEST PUSH32 0x4F6E6C792063616C6C61626C65206279206F776E657200000000000000000000 PUSH1 0x0 DUP3 ADD MSTORE POP JUMP JUMPDEST PUSH1 0x0 PUSH2 0x12B0 PUSH1 0x16 DUP4 PUSH2 0x116B JUMP JUMPDEST SWAP2 POP PUSH2 0x12BB DUP3 PUSH2 0x127A JUMP JUMPDEST PUSH1 0x20 DUP3 ADD SWAP1 POP SWAP2 SWAP1 POP JUMP JUMPDEST PUSH1 0x0 PUSH1 0x20 DUP3 ADD SWAP1 POP DUP2 DUP2 SUB PUSH1 0x0 DUP4 ADD MSTORE PUSH2 0x12DF DUP2 PUSH2 0x12A3 JUMP JUMPDEST SWAP1 POP SWAP2 SWAP1 POP JUMP JUMPDEST PUSH32 0x43616E6E6F74207472616E7366657220746F2073656C66000000000000000000 PUSH1 0x0 DUP3 ADD MSTORE POP JUMP JUMPDEST PUSH1 0x0 PUSH2 0x131C PUSH1 0x17 DUP4 PUSH2 0x116B JUMP JUMPDEST SWAP2 POP PUSH2 0x1327 DUP3 PUSH2 0x12E6 JUMP JUMPDEST PUSH1 0x20 DUP3 ADD SWAP1 POP SWAP2 SWAP1 POP JUMP JUMPDEST PUSH1 0x0 PUSH1 0x20 DUP3 ADD SWAP1 POP DUP2 DUP2 SUB PUSH1 0x0 DUP4 ADD MSTORE PUSH2 0x134B DUP2 PUSH2 0x130F JUMP JUMPDEST SWAP1 POP SWAP2 SWAP1 POP JUMP JUMPDEST PUSH32 0x4E487B7100000000000000000000000000000000000000000000000000000000 PUSH1 0x0 MSTORE PUSH1 0x11 PUSH1 0x4 MSTORE PUSH1 0x24 PUSH1 0x0 REVERT JUMPDEST PUSH1 0x0 PUSH2 0x138C DUP3 PUSH2 0xFEC JUMP JUMPDEST SWAP2 POP PUSH2 0x1397 DUP4 PUSH2 0xFEC JUMP JUMPDEST SWAP3 POP DUP3 DUP3 ADD SWAP1 POP DUP1 DUP3 GT ISZERO PUSH2 0x13AF JUMPI PUSH2 0x13AE PUSH2 0x1352 JUMP JUMPDEST JUMPDEST SWAP3 SWAP2 POP POP JUMP JUMPDEST PUSH1 0x0 PUSH32 0xFFFFFFFF00000000000000000000000000000000000000000000000000000000 DUP3 AND SWAP1 POP SWAP2 SWAP1 POP JUMP JUMPDEST PUSH2 0x13EA DUP2 PUSH2 0x13B5 JUMP JUMPDEST DUP3 MSTORE POP POP JUMP JUMPDEST PUSH1 0x0 DUP2 MLOAD SWAP1 POP SWAP2 SWAP1 POP JUMP JUMPDEST PUSH1 0x0 DUP3 DUP3 MSTORE PUSH1 0x20 DUP3 ADD SWAP1 POP SWAP3 SWAP2 POP POP JUMP JUMPDEST PUSH1 0x0 JUMPDEST DUP4 DUP2 LT ISZERO PUSH2 0x142A JUMPI DUP1 DUP3 ADD MLOAD DUP2 DUP5 ADD MSTORE PUSH1 0x20 DUP2 ADD SWAP1 POP PUSH2 0x140F JUMP JUMPDEST PUSH1 0x0 DUP5 DUP5 ADD MSTORE POP POP POP POP JUMP JUMPDEST PUSH1 0x0 PUSH1 0x1F NOT PUSH1 0x1F DUP4 ADD AND SWAP1 POP SWAP2 SWAP1 POP JUMP JUMPDEST PUSH1 0x0 PUSH2 0x1452 DUP3 PUSH2 0x13F0 JUMP JUMPDEST PUSH2 0x145C DUP2 DUP6 PUSH2 0x13FB JUMP JUMPDEST SWAP4 POP PUSH2 0x146C DUP2 DUP6 PUSH1 0x20 DUP7 ADD PUSH2 0x140C JUMP JUMPDEST PUSH2 0x1475 DUP2 PUSH2 0x1436 JUMP JUMPDEST DUP5 ADD SWAP2 POP POP SWAP3 SWAP2 POP POP JUMP JUMPDEST PUSH1 0x0 PUSH2 0x100 DUP3 ADD SWAP1 POP PUSH2 0x1496 PUSH1 0x0 DUP4 ADD DUP12 PUSH2 0x1094 JUMP JUMPDEST PUSH2 0x14A3 PUSH1 0x20 DUP4 ADD DUP11 PUSH2 0x10BE JUMP JUMPDEST PUSH2 0x14B0 PUSH1 0x40 DUP4 ADD DUP10 PUSH2 0x1141 JUMP JUMPDEST PUSH2 0x14BD PUSH1 0x60 DUP4 ADD DUP9 PUSH2 0x1094 JUMP JUMPDEST PUSH2 0x14CA PUSH1 0x80 DUP4 ADD DUP8 PUSH2 0x13E1 JUMP JUMPDEST PUSH2 0x14D7 PUSH1 0xA0 DUP4 ADD DUP7 PUSH2 0x10BE JUMP JUMPDEST PUSH2 0x14E4 PUSH1 0xC0 DUP4 ADD DUP6 PUSH2 0x10BE JUMP JUMPDEST DUP2 DUP2 SUB PUSH1 0xE0 DUP4 ADD MSTORE PUSH2 0x14F6 DUP2 DUP5 PUSH2 0x1447 JUMP JUMPDEST SWAP1 POP SWAP10 SWAP9 POP POP POP POP POP POP POP POP POP JUMP JUMPDEST PUSH32 0x4E487B7100000000000000000000000000000000000000000000000000000000 PUSH1 0x0 MSTORE PUSH1 0x12 PUSH1 0x4 MSTORE PUSH1 0x24 PUSH1 0x0 REVERT JUMPDEST PUSH1 0x0 PUSH2 0x153F DUP3 PUSH2 0xFEC JUMP JUMPDEST SWAP2 POP PUSH2 0x154A DUP4 PUSH2 0xFEC JUMP JUMPDEST SWAP3 POP DUP3 PUSH2 0x155A JUMPI PUSH2 0x1559 PUSH2 0x1505 JUMP JUMPDEST JUMPDEST DUP3 DUP3 MOD SWAP1 POP SWAP3 SWAP2 POP POP JUMP JUMPDEST PUSH1 0x0 PUSH2 0x1570 DUP3 PUSH2 0xFEC JUMP JUMPDEST SWAP2 POP PUSH2 0x157B DUP4 PUSH2 0xFEC JUMP JUMPDEST SWAP3 POP DUP3 DUP3 SUB SWAP1 POP DUP2 DUP2 GT ISZERO PUSH2 0x1593 JUMPI PUSH2 0x1592 PUSH2 0x1352 JUMP JUMPDEST JUMPDEST SWAP3 SWAP2 POP POP JUMP JUMPDEST PUSH1 0x0 DUP2 SWAP1 POP SWAP2 SWAP1 POP JUMP JUMPDEST PUSH1 0x0 PUSH2 0x15BE PUSH2 0x15B9 PUSH2 0x15B4 DUP5 PUSH2 0x1062 JUMP JUMPDEST PUSH2 0x1599 JUMP JUMPDEST PUSH2 0x1062 JUMP JUMPDEST SWAP1 POP SWAP2 SWAP1 POP JUMP JUMPDEST PUSH1 0x0 PUSH2 0x15D0 DUP3 PUSH2 0x15A3 JUMP JUMPDEST SWAP1 POP SWAP2 SWAP1 POP JUMP JUMPDEST PUSH1 0x0 PUSH2 0x15E2 DUP3 PUSH2 0x15C5 JUMP JUMPDEST SWAP1 POP SWAP2 SWAP1 POP JUMP JUMPDEST PUSH1 0x0 DUP2 PUSH1 0x60 SHL SWAP1 POP SWAP2 SWAP1 POP JUMP JUMPDEST PUSH1 0x0 PUSH2 0x1601 DUP3 PUSH2 0x15E9 JUMP JUMPDEST SWAP1 POP SWAP2 SWAP1 POP JUMP JUMPDEST PUSH1 0x0 PUSH2 0x1613 DUP3 PUSH2 0x15F6 JUMP JUMPDEST SWAP1 POP SWAP2 SWAP1 POP JUMP JUMPDEST PUSH2 0x162B PUSH2 0x1626 DUP3 PUSH2 0x15D7 JUMP JUMPDEST PUSH2 0x1608 JUMP JUMPDEST DUP3 MSTORE POP POP JUMP JUMPDEST PUSH1 0x0 DUP2 SWAP1 POP SWAP2 SWAP1 POP JUMP JUMPDEST PUSH2 0x164C PUSH2 0x1647 DUP3 PUSH2 0xFEC JUMP JUMPDEST PUSH2 0x1631 JUMP JUMPDEST DUP3 MSTORE POP POP JUMP JUMPDEST PUSH1 0x0 PUSH2 0x165E DUP3 DUP6 PUSH2 0x161A JUMP JUMPDEST PUSH1 0x14 DUP3 ADD SWAP2 POP PUSH2 0x166E DUP3 DUP5 PUSH2 0x163B JUMP JUMPDEST PUSH1 0x20 DUP3 ADD SWAP2 POP DUP2 SWAP1 POP SWAP4 SWAP3 POP POP POP JUMP JUMPDEST PUSH1 0x0 PUSH1 0x60 DUP3 ADD SWAP1 POP PUSH2 0x1693 PUSH1 0x0 DUP4 ADD DUP7 PUSH2 0x1094 JUMP JUMPDEST PUSH2 0x16A0 PUSH1 0x20 DUP4 ADD DUP6 PUSH2 0x10BE JUMP JUMPDEST DUP2 DUP2 SUB PUSH1 0x40 DUP4 ADD MSTORE PUSH2 0x16B2 DUP2 DUP5 PUSH2 0x1447 JUMP JUMPDEST SWAP1 POP SWAP5 SWAP4 POP POP POP POP JUMP JUMPDEST PUSH1 0x0 DUP2 ISZERO ISZERO SWAP1 POP SWAP2 SWAP1 POP JUMP JUMPDEST PUSH2 0x16D1 DUP2 PUSH2 0x16BC JUMP JUMPDEST DUP2 EQ PUSH2 0x16DC JUMPI PUSH1 0x0 DUP1 REVERT JUMPDEST POP JUMP JUMPDEST PUSH1 0x0 DUP2 MLOAD SWAP1 POP PUSH2 0x16EE DUP2 PUSH2 0x16C8 JUMP JUMPDEST SWAP3 SWAP2 POP POP JUMP JUMPDEST PUSH1 0x0 PUSH1 0x20 DUP3 DUP5 SUB SLT ISZERO PUSH2 0x170A JUMPI PUSH2 0x1709 PUSH2 0xFB1 JUMP JUMPDEST JUMPDEST PUSH1 0x0 PUSH2 0x1718 DUP5 DUP3 DUP6 ADD PUSH2 0x16DF JUMP JUMPDEST SWAP2 POP POP SWAP3 SWAP2 POP POP JUMP JUMPDEST PUSH32 0x756E61626C6520746F207472616E73666572416E6443616C6C20746F206F7261 PUSH1 0x0 DUP3 ADD MSTORE PUSH32 0x636C650000000000000000000000000000000000000000000000000000000000 PUSH1 0x20 DUP3 ADD MSTORE POP JUMP JUMPDEST PUSH1 0x0 PUSH2 0x177D PUSH1 0x23 DUP4 PUSH2 0x116B JUMP JUMPDEST SWAP2 POP PUSH2 0x1788 DUP3 PUSH2 0x1721 JUMP JUMPDEST PUSH1 0x40 DUP3 ADD SWAP1 POP SWAP2 SWAP1 POP JUMP JUMPDEST PUSH1 0x0 PUSH1 0x20 DUP3 ADD SWAP1 POP DUP2 DUP2 SUB PUSH1 0x0 DUP4 ADD MSTORE PUSH2 0x17AC DUP2 PUSH2 0x1770 JUMP JUMPDEST SWAP1 POP SWAP2 SWAP1 POP JUMP JUMPDEST PUSH1 0x0 PUSH2 0x17BE DUP3 PUSH2 0xFEC JUMP JUMPDEST SWAP2 POP PUSH2 0x17C9 DUP4 PUSH2 0xFEC JUMP JUMPDEST SWAP3 POP DUP3 DUP3 MUL PUSH2 0x17D7 DUP2 PUSH2 0xFEC JUMP JUMPDEST SWAP2 POP DUP3 DUP3 DIV DUP5 EQ DUP4 ISZERO OR PUSH2 0x17EE JUMPI PUSH2 0x17ED PUSH2 0x1352 JUMP JUMPDEST JUMPDEST POP SWAP3 SWAP2 POP POP JUMP JUMPDEST PUSH1 0x0 DUP2 PUSH1 0x1 SHR SWAP1 POP SWAP2 SWAP1 POP JUMP JUMPDEST PUSH1 0x0 DUP1 DUP3 SWAP2 POP DUP4 SWAP1 POP JUMPDEST PUSH1 0x1 DUP6 GT ISZERO PUSH2 0x184C JUMPI DUP1 DUP7 DIV DUP2 GT ISZERO PUSH2 0x1828 JUMPI PUSH2 0x1827 PUSH2 0x1352 JUMP JUMPDEST JUMPDEST PUSH1 0x1 DUP6 AND ISZERO PUSH2 0x1837 JUMPI DUP1 DUP3 MUL SWAP2 POP JUMPDEST DUP1 DUP2 MUL SWAP1 POP PUSH2 0x1845 DUP6 PUSH2 0x17F5 JUMP JUMPDEST SWAP5 POP PUSH2 0x180C JUMP JUMPDEST SWAP5 POP SWAP5 SWAP3 POP POP POP JUMP JUMPDEST PUSH1 0x0 DUP3 PUSH2 0x1865 JUMPI PUSH1 0x1 SWAP1 POP PUSH2 0x1921 JUMP JUMPDEST DUP2 PUSH2 0x1873 JUMPI PUSH1 0x0 SWAP1 POP PUSH2 0x1921 JUMP JUMPDEST DUP2 PUSH1 0x1 DUP2 EQ PUSH2 0x1889 JUMPI PUSH1 0x2 DUP2 EQ PUSH2 0x1893 JUMPI PUSH2 0x18C2 JUMP JUMPDEST PUSH1 0x1 SWAP2 POP POP PUSH2 0x1921 JUMP JUMPDEST PUSH1 0xFF DUP5 GT ISZERO PUSH2 0x18A5 JUMPI PUSH2 0x18A4 PUSH2 0x1352 JUMP JUMPDEST JUMPDEST DUP4 PUSH1 0x2 EXP SWAP2 POP DUP5 DUP3 GT ISZERO PUSH2 0x18BC JUMPI PUSH2 0x18BB PUSH2 0x1352 JUMP JUMPDEST JUMPDEST POP PUSH2 0x1921 JUMP JUMPDEST POP PUSH1 0x20 DUP4 LT PUSH2 0x133 DUP4 LT AND PUSH1 0x4E DUP5 LT PUSH1 0xB DUP5 LT AND OR ISZERO PUSH2 0x18F7 JUMPI DUP3 DUP3 EXP SWAP1 POP DUP4 DUP2 GT ISZERO PUSH2 0x18F2 JUMPI PUSH2 0x18F1 PUSH2 0x1352 JUMP JUMPDEST JUMPDEST PUSH2 0x1921 JUMP JUMPDEST PUSH2 0x1904 DUP5 DUP5 DUP5 PUSH1 0x1 PUSH2 0x1802 JUMP JUMPDEST SWAP3 POP SWAP1 POP DUP2 DUP5 DIV DUP2 GT ISZERO PUSH2 0x191B JUMPI PUSH2 0x191A PUSH2 0x1352 JUMP JUMPDEST JUMPDEST DUP2 DUP2 MUL SWAP1 POP JUMPDEST SWAP4 SWAP3 POP POP POP JUMP JUMPDEST PUSH1 0x0 PUSH2 0x1933 DUP3 PUSH2 0xFEC JUMP JUMPDEST SWAP2 POP PUSH2 0x193E DUP4 PUSH2 0xFEC JUMP JUMPDEST SWAP3 POP PUSH2 0x196B PUSH32 0xFFFFFFFFFFFFFFFFFFFFFFFFFFFFFFFFFFFFFFFFFFFFFFFFFFFFFFFFFFFFFFFF DUP5 DUP5 PUSH2 0x1855 JUMP JUMPDEST SWAP1 POP SWAP3 SWAP2 POP POP JUMP INVALID PUSH9 0x7474703A2F2F686F73 PUSH21 0x2E646F636B65722E696E7465726E616C3A33303030 0x2F PUSH14 0x6F6469666965642D747261696E2D PUSH10 0x6E666FA2646970667358 0x22 SLT KECCAK256 0xC6 GAS COINBASE 0xBA 0xE9 PUSH7 0xF4B8AFCDC16945 0xD CALLDATASIZE 0xCF 0xC4 0x28 SWAP2 0xAE EXP PUSH32 0xD55C685E95C0332ABE2964736F6C634300081300330000000000000000000000 "
				},
				"gasEstimates": {
					"creation": {
						"codeDepositCost": "1324200",
						"executionCost": "infinite",
						"totalCost": "infinite"
					},
					"external": {
						"acceptOwnership()": "54540",
						"fulfill(bytes32,uint256)": "infinite",
						"owner()": "2544",
						"requestDelayInfo()": "infinite",
						"transferOwnership(address)": "30726",
						"volume()": "2473"
					}
				},
				"methodIdentifiers": {
					"acceptOwnership()": "79ba5097",
					"fulfill(bytes32,uint256)": "4357855e",
					"owner()": "8da5cb5b",
					"requestDelayInfo()": "f5e52916",
					"transferOwnership(address)": "f2fde38b",
					"volume()": "c618a1e4"
				}
			},
			"storageLayout": {
				"storage": [
					{
						"astId": 325,
						"contract": "docs.chain.link/samples/APIRequests/TrainApp3.sol:DelayNFT",
						"label": "s_ens",
						"offset": 0,
						"slot": "0",
						"type": "t_contract(ENSInterface)982"
					},
					{
						"astId": 327,
						"contract": "docs.chain.link/samples/APIRequests/TrainApp3.sol:DelayNFT",
						"label": "s_ensNode",
						"offset": 0,
						"slot": "1",
						"type": "t_bytes32"
					},
					{
						"astId": 330,
						"contract": "docs.chain.link/samples/APIRequests/TrainApp3.sol:DelayNFT",
						"label": "s_link",
						"offset": 0,
						"slot": "2",
						"type": "t_contract(LinkTokenInterface)1382"
					},
					{
						"astId": 333,
						"contract": "docs.chain.link/samples/APIRequests/TrainApp3.sol:DelayNFT",
						"label": "s_oracle",
						"offset": 0,
						"slot": "3",
						"type": "t_contract(OperatorInterface)1047"
					},
					{
						"astId": 336,
						"contract": "docs.chain.link/samples/APIRequests/TrainApp3.sol:DelayNFT",
						"label": "s_requestCount",
						"offset": 0,
						"slot": "4",
						"type": "t_uint256"
					},
					{
						"astId": 340,
						"contract": "docs.chain.link/samples/APIRequests/TrainApp3.sol:DelayNFT",
						"label": "s_pendingRequests",
						"offset": 0,
						"slot": "5",
						"type": "t_mapping(t_bytes32,t_address)"
					},
					{
						"astId": 1117,
						"contract": "docs.chain.link/samples/APIRequests/TrainApp3.sol:DelayNFT",
						"label": "s_owner",
						"offset": 0,
						"slot": "6",
						"type": "t_address"
					},
					{
						"astId": 1119,
						"contract": "docs.chain.link/samples/APIRequests/TrainApp3.sol:DelayNFT",
						"label": "s_pendingOwner",
						"offset": 0,
						"slot": "7",
						"type": "t_address"
					},
					{
						"astId": 2380,
						"contract": "docs.chain.link/samples/APIRequests/TrainApp3.sol:DelayNFT",
						"label": "volume",
						"offset": 0,
						"slot": "8",
						"type": "t_uint256"
					},
					{
						"astId": 2382,
						"contract": "docs.chain.link/samples/APIRequests/TrainApp3.sol:DelayNFT",
						"label": "jobId",
						"offset": 0,
						"slot": "9",
						"type": "t_bytes32"
					},
					{
						"astId": 2384,
						"contract": "docs.chain.link/samples/APIRequests/TrainApp3.sol:DelayNFT",
						"label": "fee",
						"offset": 0,
						"slot": "10",
						"type": "t_uint256"
					}
				],
				"types": {
					"t_address": {
						"encoding": "inplace",
						"label": "address",
						"numberOfBytes": "20"
					},
					"t_bytes32": {
						"encoding": "inplace",
						"label": "bytes32",
						"numberOfBytes": "32"
					},
					"t_contract(ENSInterface)982": {
						"encoding": "inplace",
						"label": "contract ENSInterface",
						"numberOfBytes": "20"
					},
					"t_contract(LinkTokenInterface)1382": {
						"encoding": "inplace",
						"label": "contract LinkTokenInterface",
						"numberOfBytes": "20"
					},
					"t_contract(OperatorInterface)1047": {
						"encoding": "inplace",
						"label": "contract OperatorInterface",
						"numberOfBytes": "20"
					},
					"t_mapping(t_bytes32,t_address)": {
						"encoding": "mapping",
						"key": "t_bytes32",
						"label": "mapping(bytes32 => address)",
						"numberOfBytes": "32",
						"value": "t_address"
					},
					"t_uint256": {
						"encoding": "inplace",
						"label": "uint256",
						"numberOfBytes": "32"
					}
				}
			},
			"userdoc": {
				"kind": "user",
				"methods": {
					"acceptOwnership()": {
						"notice": "Allows an ownership transfer to be completed by the recipient."
					},
					"owner()": {
						"notice": "Get the current owner"
					},
					"transferOwnership(address)": {
						"notice": "Allows an owner to begin transferring ownership to a new address."
					}
				},
				"version": 1
			}
		}
	}
}