{
	"docs.chain.link/samples/APIRequests/StrTest.sol": {
		"FetchFromArray": {
			"abi": [
				{
					"inputs": [],
					"stateMutability": "nonpayable",
					"type": "constructor"
				},
				{
					"anonymous": false,
					"inputs": [
						{
							"indexed": true,
							"internalType": "bytes32",
							"name": "id",
							"type": "bytes32"
						}
					],
					"name": "ChainlinkCancelled",
					"type": "event"
				},
				{
					"anonymous": false,
					"inputs": [
						{
							"indexed": true,
							"internalType": "bytes32",
							"name": "id",
							"type": "bytes32"
						}
					],
					"name": "ChainlinkFulfilled",
					"type": "event"
				},
				{
					"anonymous": false,
					"inputs": [
						{
							"indexed": true,
							"internalType": "bytes32",
							"name": "id",
							"type": "bytes32"
						}
					],
					"name": "ChainlinkRequested",
					"type": "event"
				},
				{
					"anonymous": false,
					"inputs": [
						{
							"indexed": true,
							"internalType": "address",
							"name": "from",
							"type": "address"
						},
						{
							"indexed": true,
							"internalType": "address",
							"name": "to",
							"type": "address"
						}
					],
					"name": "OwnershipTransferRequested",
					"type": "event"
				},
				{
					"anonymous": false,
					"inputs": [
						{
							"indexed": true,
							"internalType": "address",
							"name": "from",
							"type": "address"
						},
						{
							"indexed": true,
							"internalType": "address",
							"name": "to",
							"type": "address"
						}
					],
					"name": "OwnershipTransferred",
					"type": "event"
				},
				{
					"anonymous": false,
					"inputs": [
						{
							"indexed": true,
							"internalType": "bytes32",
							"name": "requestId",
							"type": "bytes32"
						},
						{
							"indexed": false,
							"internalType": "string",
							"name": "id",
							"type": "string"
						}
					],
					"name": "RequestFirstId",
					"type": "event"
				},
				{
					"inputs": [],
					"name": "acceptOwnership",
					"outputs": [],
					"stateMutability": "nonpayable",
					"type": "function"
				},
				{
					"inputs": [
						{
							"internalType": "bytes32",
							"name": "_requestId",
							"type": "bytes32"
						},
						{
							"internalType": "string",
							"name": "_id",
							"type": "string"
						}
					],
					"name": "fulfill",
					"outputs": [],
					"stateMutability": "nonpayable",
					"type": "function"
				},
				{
					"inputs": [],
					"name": "id",
					"outputs": [
						{
							"internalType": "string",
							"name": "",
							"type": "string"
						}
					],
					"stateMutability": "view",
					"type": "function"
				},
				{
					"inputs": [],
					"name": "owner",
					"outputs": [
						{
							"internalType": "address",
							"name": "",
							"type": "address"
						}
					],
					"stateMutability": "view",
					"type": "function"
				},
				{
					"inputs": [],
					"name": "requestFirstId",
					"outputs": [
						{
							"internalType": "bytes32",
							"name": "requestId",
							"type": "bytes32"
						}
					],
					"stateMutability": "nonpayable",
					"type": "function"
				},
				{
					"inputs": [
						{
							"internalType": "address",
							"name": "to",
							"type": "address"
						}
					],
					"name": "transferOwnership",
					"outputs": [],
					"stateMutability": "nonpayable",
					"type": "function"
				},
				{
					"inputs": [],
					"name": "withdrawLink",
					"outputs": [],
					"stateMutability": "nonpayable",
					"type": "function"
				}
			],
			"devdoc": {
				"kind": "dev",
				"methods": {},
				"version": 1
			},
			"evm": {
				"assembly": "    /* \"docs.chain.link/samples/APIRequests/StrTest.sol\":356:1821  contract FetchFromArray is ChainlinkClient, ConfirmedOwner {... */\n  mstore(0x40, 0x80)\n    /* \"@chainlink/contracts/src/v0.8/ChainlinkClient.sol\":1482:1483  1 */\n  0x01\n    /* \"@chainlink/contracts/src/v0.8/ChainlinkClient.sol\":1449:1483  uint256 private s_requestCount = 1 */\n  0x04\n  sstore\n    /* \"docs.chain.link/samples/APIRequests/StrTest.sol\":606:896  constructor() ConfirmedOwner(msg.sender) {... */\n  callvalue\n  dup1\n  iszero\n  tag_1\n  jumpi\n  0x00\n  dup1\n  revert\ntag_1:\n  pop\n    /* \"docs.chain.link/samples/APIRequests/StrTest.sol\":635:645  msg.sender */\n  caller\n    /* \"@chainlink/contracts/src/v0.8/shared/access/ConfirmedOwner.sol\":355:363  newOwner */\n  dup1\n    /* \"@chainlink/contracts/src/v0.8/shared/access/ConfirmedOwner.sol\":373:374  0 */\n  0x00\n    /* \"@chainlink/contracts/src/v0.8/shared/access/ConfirmedOwnerWithProposal.sol\":618:619  0 */\n  dup1\n    /* \"@chainlink/contracts/src/v0.8/shared/access/ConfirmedOwnerWithProposal.sol\":598:620  newOwner != address(0) */\n  0xffffffffffffffffffffffffffffffffffffffff\n  and\n    /* \"@chainlink/contracts/src/v0.8/shared/access/ConfirmedOwnerWithProposal.sol\":598:606  newOwner */\n  dup3\n    /* \"@chainlink/contracts/src/v0.8/shared/access/ConfirmedOwnerWithProposal.sol\":598:620  newOwner != address(0) */\n  0xffffffffffffffffffffffffffffffffffffffff\n  and\n  eq\n  iszero\n    /* \"@chainlink/contracts/src/v0.8/shared/access/ConfirmedOwnerWithProposal.sol\":590:649  require(newOwner != address(0), \"Cannot set owner to zero\") */\n  tag_6\n  jumpi\n  mload(0x40)\n  0x08c379a000000000000000000000000000000000000000000000000000000000\n  dup2\n  mstore\n  0x04\n  add\n  tag_7\n  swap1\n  tag_8\n  jump\t// in\ntag_7:\n  mload(0x40)\n  dup1\n  swap2\n  sub\n  swap1\n  revert\ntag_6:\n    /* \"@chainlink/contracts/src/v0.8/shared/access/ConfirmedOwnerWithProposal.sol\":666:674  newOwner */\n  dup2\n    /* \"@chainlink/contracts/src/v0.8/shared/access/ConfirmedOwnerWithProposal.sol\":656:663  s_owner */\n  0x06\n  0x00\n    /* \"@chainlink/contracts/src/v0.8/shared/access/ConfirmedOwnerWithProposal.sol\":656:674  s_owner = newOwner */\n  0x0100\n  exp\n  dup2\n  sload\n  dup2\n  0xffffffffffffffffffffffffffffffffffffffff\n  mul\n  not\n  and\n  swap1\n  dup4\n  0xffffffffffffffffffffffffffffffffffffffff\n  and\n  mul\n  or\n  swap1\n  sstore\n  pop\n    /* \"@chainlink/contracts/src/v0.8/shared/access/ConfirmedOwnerWithProposal.sol\":708:709  0 */\n  0x00\n    /* \"@chainlink/contracts/src/v0.8/shared/access/ConfirmedOwnerWithProposal.sol\":684:710  pendingOwner != address(0) */\n  0xffffffffffffffffffffffffffffffffffffffff\n  and\n    /* \"@chainlink/contracts/src/v0.8/shared/access/ConfirmedOwnerWithProposal.sol\":684:696  pendingOwner */\n  dup2\n    /* \"@chainlink/contracts/src/v0.8/shared/access/ConfirmedOwnerWithProposal.sol\":684:710  pendingOwner != address(0) */\n  0xffffffffffffffffffffffffffffffffffffffff\n  and\n  eq\n    /* \"@chainlink/contracts/src/v0.8/shared/access/ConfirmedOwnerWithProposal.sol\":680:759  if (pendingOwner != address(0)) {... */\n  tag_9\n  jumpi\n    /* \"@chainlink/contracts/src/v0.8/shared/access/ConfirmedOwnerWithProposal.sol\":720:752  _transferOwnership(pendingOwner) */\n  tag_10\n    /* \"@chainlink/contracts/src/v0.8/shared/access/ConfirmedOwnerWithProposal.sol\":739:751  pendingOwner */\n  dup2\n    /* \"@chainlink/contracts/src/v0.8/shared/access/ConfirmedOwnerWithProposal.sol\":720:738  _transferOwnership */\n  shl(0x20, tag_11)\n    /* \"@chainlink/contracts/src/v0.8/shared/access/ConfirmedOwnerWithProposal.sol\":720:752  _transferOwnership(pendingOwner) */\n  0x20\n  shr\n  jump\t// in\ntag_10:\n    /* \"@chainlink/contracts/src/v0.8/shared/access/ConfirmedOwnerWithProposal.sol\":680:759  if (pendingOwner != address(0)) {... */\ntag_9:\n    /* \"@chainlink/contracts/src/v0.8/shared/access/ConfirmedOwnerWithProposal.sol\":481:763  constructor(address newOwner, address pendingOwner) {... */\n  pop\n  pop\n    /* \"@chainlink/contracts/src/v0.8/shared/access/ConfirmedOwner.sol\":298:379  constructor(address newOwner) ConfirmedOwnerWithProposal(newOwner, address(0)) {} */\n  pop\n    /* \"docs.chain.link/samples/APIRequests/StrTest.sol\":657:719  _setChainlinkToken(0x0b9d5D9136855f6FEc3c0993feE6E9CE8a297846) */\n  tag_14\n    /* \"docs.chain.link/samples/APIRequests/StrTest.sol\":676:718  0x0b9d5D9136855f6FEc3c0993feE6E9CE8a297846 */\n  0x0b9d5d9136855f6fec3c0993fee6e9ce8a297846\n    /* \"docs.chain.link/samples/APIRequests/StrTest.sol\":657:675  _setChainlinkToken */\n  shl(0x20, tag_15)\n    /* \"docs.chain.link/samples/APIRequests/StrTest.sol\":657:719  _setChainlinkToken(0x0b9d5D9136855f6FEc3c0993feE6E9CE8a297846) */\n  0x20\n  shr\n  jump\t// in\ntag_14:\n    /* \"docs.chain.link/samples/APIRequests/StrTest.sol\":729:792  _setChainlinkOracle(0x1C03e89f9ECF4AFf2866DE982311d4A7B3e6eE40) */\n  tag_16\n    /* \"docs.chain.link/samples/APIRequests/StrTest.sol\":749:791  0x1C03e89f9ECF4AFf2866DE982311d4A7B3e6eE40 */\n  0x1c03e89f9ecf4aff2866de982311d4a7b3e6ee40\n    /* \"docs.chain.link/samples/APIRequests/StrTest.sol\":729:748  _setChainlinkOracle */\n  shl(0x20, tag_17)\n    /* \"docs.chain.link/samples/APIRequests/StrTest.sol\":729:792  _setChainlinkOracle(0x1C03e89f9ECF4AFf2866DE982311d4A7B3e6eE40) */\n  0x20\n  shr\n  jump\t// in\ntag_16:\n    /* \"docs.chain.link/samples/APIRequests/StrTest.sol\":802:844  jobId = \"7197644e6cf8414299938628a208cf6d\" */\n  0x3731393736343465366366383431343239393933383632386132303863663664\n    /* \"docs.chain.link/samples/APIRequests/StrTest.sol\":802:807  jobId */\n  0x09\n    /* \"docs.chain.link/samples/APIRequests/StrTest.sol\":802:844  jobId = \"7197644e6cf8414299938628a208cf6d\" */\n  dup2\n  swap1\n  sstore\n  pop\n    /* \"docs.chain.link/samples/APIRequests/StrTest.sol\":886:888  10 */\n  0x0a\n    /* \"@chainlink/contracts/src/v0.8/ChainlinkClient.sol\":864:872  10 ** 18 */\n  0x0de0b6b3a7640000\n    /* \"docs.chain.link/samples/APIRequests/StrTest.sol\":861:862  1 */\n  0x01\n    /* \"docs.chain.link/samples/APIRequests/StrTest.sol\":861:882  1 * LINK_DIVISIBILITY */\n  tag_18\n  swap2\n  swap1\n  tag_19\n  jump\t// in\ntag_18:\n    /* \"docs.chain.link/samples/APIRequests/StrTest.sol\":860:888  (1 * LINK_DIVISIBILITY) / 10 */\n  tag_20\n  swap2\n  swap1\n  tag_21\n  jump\t// in\ntag_20:\n    /* \"docs.chain.link/samples/APIRequests/StrTest.sol\":854:857  fee */\n  0x0a\n    /* \"docs.chain.link/samples/APIRequests/StrTest.sol\":854:888  fee = (1 * LINK_DIVISIBILITY) / 10 */\n  dup2\n  swap1\n  sstore\n  pop\n    /* \"docs.chain.link/samples/APIRequests/StrTest.sol\":356:1821  contract FetchFromArray is ChainlinkClient, ConfirmedOwner {... */\n  jump(tag_22)\n    /* \"@chainlink/contracts/src/v0.8/shared/access/ConfirmedOwnerWithProposal.sol\":1536:1775  function _transferOwnership(address to) private {... */\ntag_11:\n    /* \"@chainlink/contracts/src/v0.8/shared/access/ConfirmedOwnerWithProposal.sol\":1655:1665  msg.sender */\n  caller\n    /* \"@chainlink/contracts/src/v0.8/shared/access/ConfirmedOwnerWithProposal.sol\":1649:1665  to != msg.sender */\n  0xffffffffffffffffffffffffffffffffffffffff\n  and\n    /* \"@chainlink/contracts/src/v0.8/shared/access/ConfirmedOwnerWithProposal.sol\":1649:1651  to */\n  dup2\n    /* \"@chainlink/contracts/src/v0.8/shared/access/ConfirmedOwnerWithProposal.sol\":1649:1665  to != msg.sender */\n  0xffffffffffffffffffffffffffffffffffffffff\n  and\n  eq\n  iszero\n    /* \"@chainlink/contracts/src/v0.8/shared/access/ConfirmedOwnerWithProposal.sol\":1641:1693  require(to != msg.sender, \"Cannot transfer to self\") */\n  tag_24\n  jumpi\n  mload(0x40)\n  0x08c379a000000000000000000000000000000000000000000000000000000000\n  dup2\n  mstore\n  0x04\n  add\n  tag_25\n  swap1\n  tag_26\n  jump\t// in\ntag_25:\n  mload(0x40)\n  dup1\n  swap2\n  sub\n  swap1\n  revert\ntag_24:\n    /* \"@chainlink/contracts/src/v0.8/shared/access/ConfirmedOwnerWithProposal.sol\":1717:1719  to */\n  dup1\n    /* \"@chainlink/contracts/src/v0.8/shared/access/ConfirmedOwnerWithProposal.sol\":1700:1714  s_pendingOwner */\n  0x07\n  0x00\n    /* \"@chainlink/contracts/src/v0.8/shared/access/ConfirmedOwnerWithProposal.sol\":1700:1719  s_pendingOwner = to */\n  0x0100\n  exp\n  dup2\n  sload\n  dup2\n  0xffffffffffffffffffffffffffffffffffffffff\n  mul\n  not\n  and\n  swap1\n  dup4\n  0xffffffffffffffffffffffffffffffffffffffff\n  and\n  mul\n  or\n  swap1\n  sstore\n  pop\n    /* \"@chainlink/contracts/src/v0.8/shared/access/ConfirmedOwnerWithProposal.sol\":1767:1769  to */\n  dup1\n    /* \"@chainlink/contracts/src/v0.8/shared/access/ConfirmedOwnerWithProposal.sol\":1731:1770  OwnershipTransferRequested(s_owner, to) */\n  0xffffffffffffffffffffffffffffffffffffffff\n  and\n    /* \"@chainlink/contracts/src/v0.8/shared/access/ConfirmedOwnerWithProposal.sol\":1758:1765  s_owner */\n  0x06\n  0x00\n  swap1\n  sload\n  swap1\n  0x0100\n  exp\n  swap1\n  div\n  0xffffffffffffffffffffffffffffffffffffffff\n  and\n    /* \"@chainlink/contracts/src/v0.8/shared/access/ConfirmedOwnerWithProposal.sol\":1731:1770  OwnershipTransferRequested(s_owner, to) */\n  0xffffffffffffffffffffffffffffffffffffffff\n  and\n  0xed8889f560326eb138920d842192f0eb3dd22b4f139c87a2c57538e05bae1278\n  mload(0x40)\n  mload(0x40)\n  dup1\n  swap2\n  sub\n  swap1\n  log3\n    /* \"@chainlink/contracts/src/v0.8/shared/access/ConfirmedOwnerWithProposal.sol\":1536:1775  function _transferOwnership(address to) private {... */\n  pop\n  jump\t// out\n    /* \"@chainlink/contracts/src/v0.8/ChainlinkClient.sol\":8849:8958  function _setChainlinkToken(address linkAddress) internal {... */\ntag_15:\n    /* \"@chainlink/contracts/src/v0.8/ChainlinkClient.sol\":8941:8952  linkAddress */\n  dup1\n    /* \"@chainlink/contracts/src/v0.8/ChainlinkClient.sol\":8913:8919  s_link */\n  0x02\n  0x00\n    /* \"@chainlink/contracts/src/v0.8/ChainlinkClient.sol\":8913:8953  s_link = LinkTokenInterface(linkAddress) */\n  0x0100\n  exp\n  dup2\n  sload\n  dup2\n  0xffffffffffffffffffffffffffffffffffffffff\n  mul\n  not\n  and\n  swap1\n  dup4\n  0xffffffffffffffffffffffffffffffffffffffff\n  and\n  mul\n  or\n  swap1\n  sstore\n  pop\n    /* \"@chainlink/contracts/src/v0.8/ChainlinkClient.sol\":8849:8958  function _setChainlinkToken(address linkAddress) internal {... */\n  pop\n  jump\t// out\n    /* \"@chainlink/contracts/src/v0.8/ChainlinkClient.sol\":8614:8729  function _setChainlinkOracle(address oracleAddress) internal {... */\ntag_17:\n    /* \"@chainlink/contracts/src/v0.8/ChainlinkClient.sol\":8710:8723  oracleAddress */\n  dup1\n    /* \"@chainlink/contracts/src/v0.8/ChainlinkClient.sol\":8681:8689  s_oracle */\n  0x03\n  0x00\n    /* \"@chainlink/contracts/src/v0.8/ChainlinkClient.sol\":8681:8724  s_oracle = OperatorInterface(oracleAddress) */\n  0x0100\n  exp\n  dup2\n  sload\n  dup2\n  0xffffffffffffffffffffffffffffffffffffffff\n  mul\n  not\n  and\n  swap1\n  dup4\n  0xffffffffffffffffffffffffffffffffffffffff\n  and\n  mul\n  or\n  swap1\n  sstore\n  pop\n    /* \"@chainlink/contracts/src/v0.8/ChainlinkClient.sol\":8614:8729  function _setChainlinkOracle(address oracleAddress) internal {... */\n  pop\n  jump\t// out\n    /* \"#utility.yul\":7:373   */\ntag_30:\n    /* \"#utility.yul\":149:152   */\n  0x00\n    /* \"#utility.yul\":170:237   */\n  tag_32\n    /* \"#utility.yul\":234:236   */\n  0x18\n    /* \"#utility.yul\":229:232   */\n  dup4\n    /* \"#utility.yul\":170:237   */\n  tag_33\n  jump\t// in\ntag_32:\n    /* \"#utility.yul\":163:237   */\n  swap2\n  pop\n    /* \"#utility.yul\":246:339   */\n  tag_34\n    /* \"#utility.yul\":335:338   */\n  dup3\n    /* \"#utility.yul\":246:339   */\n  tag_35\n  jump\t// in\ntag_34:\n    /* \"#utility.yul\":364:366   */\n  0x20\n    /* \"#utility.yul\":359:362   */\n  dup3\n    /* \"#utility.yul\":355:367   */\n  add\n    /* \"#utility.yul\":348:367   */\n  swap1\n  pop\n    /* \"#utility.yul\":7:373   */\n  swap2\n  swap1\n  pop\n  jump\t// out\n    /* \"#utility.yul\":379:745   */\ntag_36:\n    /* \"#utility.yul\":521:524   */\n  0x00\n    /* \"#utility.yul\":542:609   */\n  tag_38\n    /* \"#utility.yul\":606:608   */\n  0x17\n    /* \"#utility.yul\":601:604   */\n  dup4\n    /* \"#utility.yul\":542:609   */\n  tag_33\n  jump\t// in\ntag_38:\n    /* \"#utility.yul\":535:609   */\n  swap2\n  pop\n    /* \"#utility.yul\":618:711   */\n  tag_39\n    /* \"#utility.yul\":707:710   */\n  dup3\n    /* \"#utility.yul\":618:711   */\n  tag_40\n  jump\t// in\ntag_39:\n    /* \"#utility.yul\":736:738   */\n  0x20\n    /* \"#utility.yul\":731:734   */\n  dup3\n    /* \"#utility.yul\":727:739   */\n  add\n    /* \"#utility.yul\":720:739   */\n  swap1\n  pop\n    /* \"#utility.yul\":379:745   */\n  swap2\n  swap1\n  pop\n  jump\t// out\n    /* \"#utility.yul\":751:1170   */\ntag_8:\n    /* \"#utility.yul\":917:921   */\n  0x00\n    /* \"#utility.yul\":955:957   */\n  0x20\n    /* \"#utility.yul\":944:953   */\n  dup3\n    /* \"#utility.yul\":940:958   */\n  add\n    /* \"#utility.yul\":932:958   */\n  swap1\n  pop\n    /* \"#utility.yul\":1004:1013   */\n  dup2\n    /* \"#utility.yul\":998:1002   */\n  dup2\n    /* \"#utility.yul\":994:1014   */\n  sub\n    /* \"#utility.yul\":990:991   */\n  0x00\n    /* \"#utility.yul\":979:988   */\n  dup4\n    /* \"#utility.yul\":975:992   */\n  add\n    /* \"#utility.yul\":968:1015   */\n  mstore\n    /* \"#utility.yul\":1032:1163   */\n  tag_42\n    /* \"#utility.yul\":1158:1162   */\n  dup2\n    /* \"#utility.yul\":1032:1163   */\n  tag_30\n  jump\t// in\ntag_42:\n    /* \"#utility.yul\":1024:1163   */\n  swap1\n  pop\n    /* \"#utility.yul\":751:1170   */\n  swap2\n  swap1\n  pop\n  jump\t// out\n    /* \"#utility.yul\":1176:1595   */\ntag_26:\n    /* \"#utility.yul\":1342:1346   */\n  0x00\n    /* \"#utility.yul\":1380:1382   */\n  0x20\n    /* \"#utility.yul\":1369:1378   */\n  dup3\n    /* \"#utility.yul\":1365:1383   */\n  add\n    /* \"#utility.yul\":1357:1383   */\n  swap1\n  pop\n    /* \"#utility.yul\":1429:1438   */\n  dup2\n    /* \"#utility.yul\":1423:1427   */\n  dup2\n    /* \"#utility.yul\":1419:1439   */\n  sub\n    /* \"#utility.yul\":1415:1416   */\n  0x00\n    /* \"#utility.yul\":1404:1413   */\n  dup4\n    /* \"#utility.yul\":1400:1417   */\n  add\n    /* \"#utility.yul\":1393:1440   */\n  mstore\n    /* \"#utility.yul\":1457:1588   */\n  tag_44\n    /* \"#utility.yul\":1583:1587   */\n  dup2\n    /* \"#utility.yul\":1457:1588   */\n  tag_36\n  jump\t// in\ntag_44:\n    /* \"#utility.yul\":1449:1588   */\n  swap1\n  pop\n    /* \"#utility.yul\":1176:1595   */\n  swap2\n  swap1\n  pop\n  jump\t// out\n    /* \"#utility.yul\":1601:1770   */\ntag_33:\n    /* \"#utility.yul\":1685:1696   */\n  0x00\n    /* \"#utility.yul\":1719:1725   */\n  dup3\n    /* \"#utility.yul\":1714:1717   */\n  dup3\n    /* \"#utility.yul\":1707:1726   */\n  mstore\n    /* \"#utility.yul\":1759:1763   */\n  0x20\n    /* \"#utility.yul\":1754:1757   */\n  dup3\n    /* \"#utility.yul\":1750:1764   */\n  add\n    /* \"#utility.yul\":1735:1764   */\n  swap1\n  pop\n    /* \"#utility.yul\":1601:1770   */\n  swap3\n  swap2\n  pop\n  pop\n  jump\t// out\n    /* \"#utility.yul\":1776:1961   */\ntag_21:\n    /* \"#utility.yul\":1816:1817   */\n  0x00\n    /* \"#utility.yul\":1833:1853   */\n  tag_47\n    /* \"#utility.yul\":1851:1852   */\n  dup3\n    /* \"#utility.yul\":1833:1853   */\n  tag_48\n  jump\t// in\ntag_47:\n    /* \"#utility.yul\":1828:1853   */\n  swap2\n  pop\n    /* \"#utility.yul\":1867:1887   */\n  tag_49\n    /* \"#utility.yul\":1885:1886   */\n  dup4\n    /* \"#utility.yul\":1867:1887   */\n  tag_48\n  jump\t// in\ntag_49:\n    /* \"#utility.yul\":1862:1887   */\n  swap3\n  pop\n    /* \"#utility.yul\":1906:1907   */\n  dup3\n    /* \"#utility.yul\":1896:1931   */\n  tag_50\n  jumpi\n    /* \"#utility.yul\":1911:1929   */\n  tag_51\n  tag_52\n  jump\t// in\ntag_51:\n    /* \"#utility.yul\":1896:1931   */\ntag_50:\n    /* \"#utility.yul\":1953:1954   */\n  dup3\n    /* \"#utility.yul\":1950:1951   */\n  dup3\n    /* \"#utility.yul\":1946:1955   */\n  div\n    /* \"#utility.yul\":1941:1955   */\n  swap1\n  pop\n    /* \"#utility.yul\":1776:1961   */\n  swap3\n  swap2\n  pop\n  pop\n  jump\t// out\n    /* \"#utility.yul\":1967:2315   */\ntag_19:\n    /* \"#utility.yul\":2007:2014   */\n  0x00\n    /* \"#utility.yul\":2030:2050   */\n  tag_54\n    /* \"#utility.yul\":2048:2049   */\n  dup3\n    /* \"#utility.yul\":2030:2050   */\n  tag_48\n  jump\t// in\ntag_54:\n    /* \"#utility.yul\":2025:2050   */\n  swap2\n  pop\n    /* \"#utility.yul\":2064:2084   */\n  tag_55\n    /* \"#utility.yul\":2082:2083   */\n  dup4\n    /* \"#utility.yul\":2064:2084   */\n  tag_48\n  jump\t// in\ntag_55:\n    /* \"#utility.yul\":2059:2084   */\n  swap3\n  pop\n    /* \"#utility.yul\":2252:2253   */\n  dup2\n    /* \"#utility.yul\":2184:2250   */\n  0xffffffffffffffffffffffffffffffffffffffffffffffffffffffffffffffff\n    /* \"#utility.yul\":2180:2254   */\n  div\n    /* \"#utility.yul\":2177:2178   */\n  dup4\n    /* \"#utility.yul\":2174:2255   */\n  gt\n    /* \"#utility.yul\":2169:2170   */\n  dup3\n    /* \"#utility.yul\":2162:2171   */\n  iszero\n    /* \"#utility.yul\":2155:2172   */\n  iszero\n    /* \"#utility.yul\":2151:2256   */\n  and\n    /* \"#utility.yul\":2148:2279   */\n  iszero\n  tag_56\n  jumpi\n    /* \"#utility.yul\":2259:2277   */\n  tag_57\n  tag_58\n  jump\t// in\ntag_57:\n    /* \"#utility.yul\":2148:2279   */\ntag_56:\n    /* \"#utility.yul\":2307:2308   */\n  dup3\n    /* \"#utility.yul\":2304:2305   */\n  dup3\n    /* \"#utility.yul\":2300:2309   */\n  mul\n    /* \"#utility.yul\":2289:2309   */\n  swap1\n  pop\n    /* \"#utility.yul\":1967:2315   */\n  swap3\n  swap2\n  pop\n  pop\n  jump\t// out\n    /* \"#utility.yul\":2321:2398   */\ntag_48:\n    /* \"#utility.yul\":2358:2365   */\n  0x00\n    /* \"#utility.yul\":2387:2392   */\n  dup2\n    /* \"#utility.yul\":2376:2392   */\n  swap1\n  pop\n    /* \"#utility.yul\":2321:2398   */\n  swap2\n  swap1\n  pop\n  jump\t// out\n    /* \"#utility.yul\":2404:2584   */\ntag_58:\n    /* \"#utility.yul\":2452:2529   */\n  0x4e487b7100000000000000000000000000000000000000000000000000000000\n    /* \"#utility.yul\":2449:2450   */\n  0x00\n    /* \"#utility.yul\":2442:2530   */\n  mstore\n    /* \"#utility.yul\":2549:2553   */\n  0x11\n    /* \"#utility.yul\":2546:2547   */\n  0x04\n    /* \"#utility.yul\":2539:2554   */\n  mstore\n    /* \"#utility.yul\":2573:2577   */\n  0x24\n    /* \"#utility.yul\":2570:2571   */\n  0x00\n    /* \"#utility.yul\":2563:2578   */\n  revert\n    /* \"#utility.yul\":2590:2770   */\ntag_52:\n    /* \"#utility.yul\":2638:2715   */\n  0x4e487b7100000000000000000000000000000000000000000000000000000000\n    /* \"#utility.yul\":2635:2636   */\n  0x00\n    /* \"#utility.yul\":2628:2716   */\n  mstore\n    /* \"#utility.yul\":2735:2739   */\n  0x12\n    /* \"#utility.yul\":2732:2733   */\n  0x04\n    /* \"#utility.yul\":2725:2740   */\n  mstore\n    /* \"#utility.yul\":2759:2763   */\n  0x24\n    /* \"#utility.yul\":2756:2757   */\n  0x00\n    /* \"#utility.yul\":2749:2764   */\n  revert\n    /* \"#utility.yul\":2776:2950   */\ntag_35:\n    /* \"#utility.yul\":2916:2942   */\n  0x43616e6e6f7420736574206f776e657220746f207a65726f0000000000000000\n    /* \"#utility.yul\":2912:2913   */\n  0x00\n    /* \"#utility.yul\":2904:2910   */\n  dup3\n    /* \"#utility.yul\":2900:2914   */\n  add\n    /* \"#utility.yul\":2893:2943   */\n  mstore\n    /* \"#utility.yul\":2776:2950   */\n  pop\n  jump\t// out\n    /* \"#utility.yul\":2956:3129   */\ntag_40:\n    /* \"#utility.yul\":3096:3121   */\n  0x43616e6e6f74207472616e7366657220746f2073656c66000000000000000000\n    /* \"#utility.yul\":3092:3093   */\n  0x00\n    /* \"#utility.yul\":3084:3090   */\n  dup3\n    /* \"#utility.yul\":3080:3094   */\n  add\n    /* \"#utility.yul\":3073:3122   */\n  mstore\n    /* \"#utility.yul\":2956:3129   */\n  pop\n  jump\t// out\n    /* \"docs.chain.link/samples/APIRequests/StrTest.sol\":356:1821  contract FetchFromArray is ChainlinkClient, ConfirmedOwner {... */\ntag_22:\n  dataSize(sub_0)\n  dup1\n  dataOffset(sub_0)\n  0x00\n  codecopy\n  0x00\n  return\nstop\n\nsub_0: assembly {\n        /* \"docs.chain.link/samples/APIRequests/StrTest.sol\":356:1821  contract FetchFromArray is ChainlinkClient, ConfirmedOwner {... */\n      mstore(0x40, 0x80)\n      callvalue\n      dup1\n      iszero\n      tag_1\n      jumpi\n      0x00\n      dup1\n      revert\n    tag_1:\n      pop\n      jumpi(tag_2, lt(calldatasize, 0x04))\n      shr(0xe0, calldataload(0x00))\n      dup1\n      0x8da5cb5b\n      gt\n      tag_10\n      jumpi\n      dup1\n      0x8da5cb5b\n      eq\n      tag_6\n      jumpi\n      dup1\n      0x8dc654a2\n      eq\n      tag_7\n      jumpi\n      dup1\n      0xaf640d0f\n      eq\n      tag_8\n      jumpi\n      dup1\n      0xf2fde38b\n      eq\n      tag_9\n      jumpi\n      jump(tag_2)\n    tag_10:\n      dup1\n      0x09323a6a\n      eq\n      tag_3\n      jumpi\n      dup1\n      0x37441996\n      eq\n      tag_4\n      jumpi\n      dup1\n      0x79ba5097\n      eq\n      tag_5\n      jumpi\n    tag_2:\n      0x00\n      dup1\n      revert\n        /* \"docs.chain.link/samples/APIRequests/StrTest.sol\":902:1348  function requestFirstId() public returns (bytes32 requestId) {... */\n    tag_3:\n      tag_11\n      tag_12\n      jump\t// in\n    tag_11:\n      mload(0x40)\n      tag_13\n      swap2\n      swap1\n      tag_14\n      jump\t// in\n    tag_13:\n      mload(0x40)\n      dup1\n      swap2\n      sub\n      swap1\n      return\n        /* \"docs.chain.link/samples/APIRequests/StrTest.sol\":1359:1554  function fulfill(... */\n    tag_4:\n      tag_15\n      0x04\n      dup1\n      calldatasize\n      sub\n      dup2\n      add\n      swap1\n      tag_16\n      swap2\n      swap1\n      tag_17\n      jump\t// in\n    tag_16:\n      tag_18\n      jump\t// in\n    tag_15:\n      stop\n        /* \"@chainlink/contracts/src/v0.8/shared/access/ConfirmedOwnerWithProposal.sol\":1026:1342  function acceptOwnership() external override {... */\n    tag_5:\n      tag_19\n      tag_20\n      jump\t// in\n    tag_19:\n      stop\n        /* \"@chainlink/contracts/src/v0.8/shared/access/ConfirmedOwnerWithProposal.sol\":1382:1463  function owner() public view override returns (address) {... */\n    tag_6:\n      tag_21\n      tag_22\n      jump\t// in\n    tag_21:\n      mload(0x40)\n      tag_23\n      swap2\n      swap1\n      tag_24\n      jump\t// in\n    tag_23:\n      mload(0x40)\n      dup1\n      swap2\n      sub\n      swap1\n      return\n        /* \"docs.chain.link/samples/APIRequests/StrTest.sol\":1560:1819  function withdrawLink() public onlyOwner {... */\n    tag_7:\n      tag_25\n      tag_26\n      jump\t// in\n    tag_25:\n      stop\n        /* \"docs.chain.link/samples/APIRequests/StrTest.sol\":465:481  string public id */\n    tag_8:\n      tag_27\n      tag_28\n      jump\t// in\n    tag_27:\n      mload(0x40)\n      tag_29\n      swap2\n      swap1\n      tag_30\n      jump\t// in\n    tag_29:\n      mload(0x40)\n      dup1\n      swap2\n      sub\n      swap1\n      return\n        /* \"@chainlink/contracts/src/v0.8/shared/access/ConfirmedOwnerWithProposal.sol\":847:945  function transferOwnership(address to) public override onlyOwner {... */\n    tag_9:\n      tag_31\n      0x04\n      dup1\n      calldatasize\n      sub\n      dup2\n      add\n      swap1\n      tag_32\n      swap2\n      swap1\n      tag_33\n      jump\t// in\n    tag_32:\n      tag_34\n      jump\t// in\n    tag_31:\n      stop\n        /* \"docs.chain.link/samples/APIRequests/StrTest.sol\":902:1348  function requestFirstId() public returns (bytes32 requestId) {... */\n    tag_12:\n        /* \"docs.chain.link/samples/APIRequests/StrTest.sol\":944:961  bytes32 requestId */\n      0x00\n        /* \"docs.chain.link/samples/APIRequests/StrTest.sol\":973:1001  Chainlink.Request memory req */\n      dup1\n        /* \"docs.chain.link/samples/APIRequests/StrTest.sol\":1004:1117  _buildChainlinkRequest(... */\n      tag_36\n        /* \"docs.chain.link/samples/APIRequests/StrTest.sol\":1040:1045  jobId */\n      sload(0x09)\n        /* \"docs.chain.link/samples/APIRequests/StrTest.sol\":1067:1071  this */\n      address\n        /* \"docs.chain.link/samples/APIRequests/StrTest.sol\":1086:1107  this.fulfill.selector */\n      shl(0xe0, 0x37441996)\n        /* \"docs.chain.link/samples/APIRequests/StrTest.sol\":1004:1026  _buildChainlinkRequest */\n      tag_37\n        /* \"docs.chain.link/samples/APIRequests/StrTest.sol\":1004:1117  _buildChainlinkRequest(... */\n      jump\t// in\n    tag_36:\n        /* \"docs.chain.link/samples/APIRequests/StrTest.sol\":973:1117  Chainlink.Request memory req = _buildChainlinkRequest(... */\n      swap1\n      pop\n        /* \"docs.chain.link/samples/APIRequests/StrTest.sol\":1128:1233  req._add(... */\n      tag_38\n      mload(0x40)\n      dup1\n      0x40\n      add\n      0x40\n      mstore\n      dup1\n      0x03\n      dup2\n      mstore\n      0x20\n      add\n      0x6765740000000000000000000000000000000000000000000000000000000000\n      dup2\n      mstore\n      pop\n      mload(0x40)\n      dup1\n      0x60\n      add\n      0x40\n      mstore\n      dup1\n      0x34\n      dup2\n      mstore\n      0x20\n      add\n      data_e40f56f7fa1aa05a509887d91f86ee0b3ba47821e3c25328913bff9d8f16041c\n      0x34\n      swap2\n      codecopy\n        /* \"docs.chain.link/samples/APIRequests/StrTest.sol\":1128:1131  req */\n      dup4\n        /* \"docs.chain.link/samples/APIRequests/StrTest.sol\":1128:1136  req._add */\n      tag_39\n      swap1\n        /* \"docs.chain.link/samples/APIRequests/StrTest.sol\":1128:1233  req._add(... */\n      swap3\n      swap2\n      swap1\n      0xffffffff\n      and\n      jump\t// in\n    tag_38:\n        /* \"docs.chain.link/samples/APIRequests/StrTest.sol\":1244:1291  req._add(\"path\", \"0,odpt:trainInformationText\") */\n      tag_40\n      mload(0x40)\n      dup1\n      0x40\n      add\n      0x40\n      mstore\n      dup1\n      0x04\n      dup2\n      mstore\n      0x20\n      add\n      0x7061746800000000000000000000000000000000000000000000000000000000\n      dup2\n      mstore\n      pop\n      mload(0x40)\n      dup1\n      0x40\n      add\n      0x40\n      mstore\n      dup1\n      0x1b\n      dup2\n      mstore\n      0x20\n      add\n      0x302c6f6470743a747261696e496e666f726d6174696f6e546578740000000000\n      dup2\n      mstore\n      pop\n        /* \"docs.chain.link/samples/APIRequests/StrTest.sol\":1244:1247  req */\n      dup4\n        /* \"docs.chain.link/samples/APIRequests/StrTest.sol\":1244:1252  req._add */\n      tag_39\n      swap1\n        /* \"docs.chain.link/samples/APIRequests/StrTest.sol\":1244:1291  req._add(\"path\", \"0,odpt:trainInformationText\") */\n      swap3\n      swap2\n      swap1\n      0xffffffff\n      and\n      jump\t// in\n    tag_40:\n        /* \"docs.chain.link/samples/APIRequests/StrTest.sol\":1310:1341  _sendChainlinkRequest(req, fee) */\n      tag_41\n        /* \"docs.chain.link/samples/APIRequests/StrTest.sol\":1332:1335  req */\n      dup2\n        /* \"docs.chain.link/samples/APIRequests/StrTest.sol\":1337:1340  fee */\n      sload(0x0a)\n        /* \"docs.chain.link/samples/APIRequests/StrTest.sol\":1310:1331  _sendChainlinkRequest */\n      tag_42\n        /* \"docs.chain.link/samples/APIRequests/StrTest.sol\":1310:1341  _sendChainlinkRequest(req, fee) */\n      jump\t// in\n    tag_41:\n        /* \"docs.chain.link/samples/APIRequests/StrTest.sol\":1303:1341  return _sendChainlinkRequest(req, fee) */\n      swap2\n      pop\n      pop\n        /* \"docs.chain.link/samples/APIRequests/StrTest.sol\":902:1348  function requestFirstId() public returns (bytes32 requestId) {... */\n      swap1\n      jump\t// out\n        /* \"docs.chain.link/samples/APIRequests/StrTest.sol\":1359:1554  function fulfill(... */\n    tag_18:\n        /* \"docs.chain.link/samples/APIRequests/StrTest.sol\":1471:1481  _requestId */\n      dup2\n        /* \"@chainlink/contracts/src/v0.8/ChainlinkClient.sol\":11913:11930  s_pendingRequests */\n      0x05\n        /* \"@chainlink/contracts/src/v0.8/ChainlinkClient.sol\":11913:11941  s_pendingRequests[requestId] */\n      0x00\n        /* \"@chainlink/contracts/src/v0.8/ChainlinkClient.sol\":11931:11940  requestId */\n      dup3\n        /* \"@chainlink/contracts/src/v0.8/ChainlinkClient.sol\":11913:11941  s_pendingRequests[requestId] */\n      dup2\n      mstore\n      0x20\n      add\n      swap1\n      dup2\n      mstore\n      0x20\n      add\n      0x00\n      keccak256\n      0x00\n      swap1\n      sload\n      swap1\n      0x0100\n      exp\n      swap1\n      div\n      0xffffffffffffffffffffffffffffffffffffffff\n      and\n        /* \"@chainlink/contracts/src/v0.8/ChainlinkClient.sol\":11899:11941  msg.sender == s_pendingRequests[requestId] */\n      0xffffffffffffffffffffffffffffffffffffffff\n      and\n        /* \"@chainlink/contracts/src/v0.8/ChainlinkClient.sol\":11899:11909  msg.sender */\n      caller\n        /* \"@chainlink/contracts/src/v0.8/ChainlinkClient.sol\":11899:11941  msg.sender == s_pendingRequests[requestId] */\n      0xffffffffffffffffffffffffffffffffffffffff\n      and\n      eq\n        /* \"@chainlink/contracts/src/v0.8/ChainlinkClient.sol\":11891:11986  require(msg.sender == s_pendingRequests[requestId], \"Source must be the oracle of the request\") */\n      tag_44\n      jumpi\n      mload(0x40)\n      0x08c379a000000000000000000000000000000000000000000000000000000000\n      dup2\n      mstore\n      0x04\n      add\n      tag_45\n      swap1\n      tag_46\n      jump\t// in\n    tag_45:\n      mload(0x40)\n      dup1\n      swap2\n      sub\n      swap1\n      revert\n    tag_44:\n        /* \"@chainlink/contracts/src/v0.8/ChainlinkClient.sol\":11999:12016  s_pendingRequests */\n      0x05\n        /* \"@chainlink/contracts/src/v0.8/ChainlinkClient.sol\":11999:12027  s_pendingRequests[requestId] */\n      0x00\n        /* \"@chainlink/contracts/src/v0.8/ChainlinkClient.sol\":12017:12026  requestId */\n      dup3\n        /* \"@chainlink/contracts/src/v0.8/ChainlinkClient.sol\":11999:12027  s_pendingRequests[requestId] */\n      dup2\n      mstore\n      0x20\n      add\n      swap1\n      dup2\n      mstore\n      0x20\n      add\n      0x00\n      keccak256\n      0x00\n        /* \"@chainlink/contracts/src/v0.8/ChainlinkClient.sol\":11992:12027  delete s_pendingRequests[requestId] */\n      0x0100\n      exp\n      dup2\n      sload\n      swap1\n      0xffffffffffffffffffffffffffffffffffffffff\n      mul\n      not\n      and\n      swap1\n      sstore\n        /* \"@chainlink/contracts/src/v0.8/ChainlinkClient.sol\":12057:12066  requestId */\n      dup1\n        /* \"@chainlink/contracts/src/v0.8/ChainlinkClient.sol\":12038:12067  ChainlinkFulfilled(requestId) */\n      0x7cc135e0cebb02c3480ae5d74d377283180a2601f8f644edf7987b009316c63a\n      mload(0x40)\n      mload(0x40)\n      dup1\n      swap2\n      sub\n      swap1\n      log2\n        /* \"docs.chain.link/samples/APIRequests/StrTest.sol\":1513:1523  _requestId */\n      dup3\n        /* \"docs.chain.link/samples/APIRequests/StrTest.sol\":1498:1529  RequestFirstId(_requestId, _id) */\n      0x5b72487f892feba565865a27f191da8fb1e852651bd966bfb0a41fc272c54aea\n        /* \"docs.chain.link/samples/APIRequests/StrTest.sol\":1525:1528  _id */\n      dup4\n        /* \"docs.chain.link/samples/APIRequests/StrTest.sol\":1498:1529  RequestFirstId(_requestId, _id) */\n      mload(0x40)\n      tag_48\n      swap2\n      swap1\n      tag_30\n      jump\t// in\n    tag_48:\n      mload(0x40)\n      dup1\n      swap2\n      sub\n      swap1\n      log2\n        /* \"docs.chain.link/samples/APIRequests/StrTest.sol\":1544:1547  _id */\n      dup2\n        /* \"docs.chain.link/samples/APIRequests/StrTest.sol\":1539:1541  id */\n      0x08\n        /* \"docs.chain.link/samples/APIRequests/StrTest.sol\":1539:1547  id = _id */\n      swap1\n      dup1\n      mload\n      swap1\n      0x20\n      add\n      swap1\n      tag_49\n      swap3\n      swap2\n      swap1\n      tag_50\n      jump\t// in\n    tag_49:\n      pop\n        /* \"docs.chain.link/samples/APIRequests/StrTest.sol\":1359:1554  function fulfill(... */\n      pop\n      pop\n      pop\n      jump\t// out\n        /* \"@chainlink/contracts/src/v0.8/shared/access/ConfirmedOwnerWithProposal.sol\":1026:1342  function acceptOwnership() external override {... */\n    tag_20:\n        /* \"@chainlink/contracts/src/v0.8/shared/access/ConfirmedOwnerWithProposal.sol\":1150:1164  s_pendingOwner */\n      0x07\n      0x00\n      swap1\n      sload\n      swap1\n      0x0100\n      exp\n      swap1\n      div\n      0xffffffffffffffffffffffffffffffffffffffff\n      and\n        /* \"@chainlink/contracts/src/v0.8/shared/access/ConfirmedOwnerWithProposal.sol\":1136:1164  msg.sender == s_pendingOwner */\n      0xffffffffffffffffffffffffffffffffffffffff\n      and\n        /* \"@chainlink/contracts/src/v0.8/shared/access/ConfirmedOwnerWithProposal.sol\":1136:1146  msg.sender */\n      caller\n        /* \"@chainlink/contracts/src/v0.8/shared/access/ConfirmedOwnerWithProposal.sol\":1136:1164  msg.sender == s_pendingOwner */\n      0xffffffffffffffffffffffffffffffffffffffff\n      and\n      eq\n        /* \"@chainlink/contracts/src/v0.8/shared/access/ConfirmedOwnerWithProposal.sol\":1128:1191  require(msg.sender == s_pendingOwner, \"Must be proposed owner\") */\n      tag_52\n      jumpi\n      mload(0x40)\n      0x08c379a000000000000000000000000000000000000000000000000000000000\n      dup2\n      mstore\n      0x04\n      add\n      tag_53\n      swap1\n      tag_54\n      jump\t// in\n    tag_53:\n      mload(0x40)\n      dup1\n      swap2\n      sub\n      swap1\n      revert\n    tag_52:\n        /* \"@chainlink/contracts/src/v0.8/shared/access/ConfirmedOwnerWithProposal.sol\":1198:1214  address oldOwner */\n      0x00\n        /* \"@chainlink/contracts/src/v0.8/shared/access/ConfirmedOwnerWithProposal.sol\":1217:1224  s_owner */\n      0x06\n      0x00\n      swap1\n      sload\n      swap1\n      0x0100\n      exp\n      swap1\n      div\n      0xffffffffffffffffffffffffffffffffffffffff\n      and\n        /* \"@chainlink/contracts/src/v0.8/shared/access/ConfirmedOwnerWithProposal.sol\":1198:1224  address oldOwner = s_owner */\n      swap1\n      pop\n        /* \"@chainlink/contracts/src/v0.8/shared/access/ConfirmedOwnerWithProposal.sol\":1240:1250  msg.sender */\n      caller\n        /* \"@chainlink/contracts/src/v0.8/shared/access/ConfirmedOwnerWithProposal.sol\":1230:1237  s_owner */\n      0x06\n      0x00\n        /* \"@chainlink/contracts/src/v0.8/shared/access/ConfirmedOwnerWithProposal.sol\":1230:1250  s_owner = msg.sender */\n      0x0100\n      exp\n      dup2\n      sload\n      dup2\n      0xffffffffffffffffffffffffffffffffffffffff\n      mul\n      not\n      and\n      swap1\n      dup4\n      0xffffffffffffffffffffffffffffffffffffffff\n      and\n      mul\n      or\n      swap1\n      sstore\n      pop\n        /* \"@chainlink/contracts/src/v0.8/shared/access/ConfirmedOwnerWithProposal.sol\":1281:1282  0 */\n      0x00\n        /* \"@chainlink/contracts/src/v0.8/shared/access/ConfirmedOwnerWithProposal.sol\":1256:1270  s_pendingOwner */\n      0x07\n      0x00\n        /* \"@chainlink/contracts/src/v0.8/shared/access/ConfirmedOwnerWithProposal.sol\":1256:1283  s_pendingOwner = address(0) */\n      0x0100\n      exp\n      dup2\n      sload\n      dup2\n      0xffffffffffffffffffffffffffffffffffffffff\n      mul\n      not\n      and\n      swap1\n      dup4\n      0xffffffffffffffffffffffffffffffffffffffff\n      and\n      mul\n      or\n      swap1\n      sstore\n      pop\n        /* \"@chainlink/contracts/src/v0.8/shared/access/ConfirmedOwnerWithProposal.sol\":1326:1336  msg.sender */\n      caller\n        /* \"@chainlink/contracts/src/v0.8/shared/access/ConfirmedOwnerWithProposal.sol\":1295:1337  OwnershipTransferred(oldOwner, msg.sender) */\n      0xffffffffffffffffffffffffffffffffffffffff\n      and\n        /* \"@chainlink/contracts/src/v0.8/shared/access/ConfirmedOwnerWithProposal.sol\":1316:1324  oldOwner */\n      dup2\n        /* \"@chainlink/contracts/src/v0.8/shared/access/ConfirmedOwnerWithProposal.sol\":1295:1337  OwnershipTransferred(oldOwner, msg.sender) */\n      0xffffffffffffffffffffffffffffffffffffffff\n      and\n      0x8be0079c531659141344cd1fd0a4f28419497f9722a3daafe3b4186f6b6457e0\n      mload(0x40)\n      mload(0x40)\n      dup1\n      swap2\n      sub\n      swap1\n      log3\n        /* \"@chainlink/contracts/src/v0.8/shared/access/ConfirmedOwnerWithProposal.sol\":1071:1342  {... */\n      pop\n        /* \"@chainlink/contracts/src/v0.8/shared/access/ConfirmedOwnerWithProposal.sol\":1026:1342  function acceptOwnership() external override {... */\n      jump\t// out\n        /* \"@chainlink/contracts/src/v0.8/shared/access/ConfirmedOwnerWithProposal.sol\":1382:1463  function owner() public view override returns (address) {... */\n    tag_22:\n        /* \"@chainlink/contracts/src/v0.8/shared/access/ConfirmedOwnerWithProposal.sol\":1429:1436  address */\n      0x00\n        /* \"@chainlink/contracts/src/v0.8/shared/access/ConfirmedOwnerWithProposal.sol\":1451:1458  s_owner */\n      0x06\n      0x00\n      swap1\n      sload\n      swap1\n      0x0100\n      exp\n      swap1\n      div\n      0xffffffffffffffffffffffffffffffffffffffff\n      and\n        /* \"@chainlink/contracts/src/v0.8/shared/access/ConfirmedOwnerWithProposal.sol\":1444:1458  return s_owner */\n      swap1\n      pop\n        /* \"@chainlink/contracts/src/v0.8/shared/access/ConfirmedOwnerWithProposal.sol\":1382:1463  function owner() public view override returns (address) {... */\n      swap1\n      jump\t// out\n        /* \"docs.chain.link/samples/APIRequests/StrTest.sol\":1560:1819  function withdrawLink() public onlyOwner {... */\n    tag_26:\n        /* \"@chainlink/contracts/src/v0.8/shared/access/ConfirmedOwnerWithProposal.sol\":2075:2095  _validateOwnership() */\n      tag_57\n        /* \"@chainlink/contracts/src/v0.8/shared/access/ConfirmedOwnerWithProposal.sol\":2075:2093  _validateOwnership */\n      tag_58\n        /* \"@chainlink/contracts/src/v0.8/shared/access/ConfirmedOwnerWithProposal.sol\":2075:2095  _validateOwnership() */\n      jump\t// in\n    tag_57:\n        /* \"docs.chain.link/samples/APIRequests/StrTest.sol\":1611:1634  LinkTokenInterface link */\n      0x00\n        /* \"docs.chain.link/samples/APIRequests/StrTest.sol\":1656:1680  _chainlinkTokenAddress() */\n      tag_60\n        /* \"docs.chain.link/samples/APIRequests/StrTest.sol\":1656:1678  _chainlinkTokenAddress */\n      tag_61\n        /* \"docs.chain.link/samples/APIRequests/StrTest.sol\":1656:1680  _chainlinkTokenAddress() */\n      jump\t// in\n    tag_60:\n        /* \"docs.chain.link/samples/APIRequests/StrTest.sol\":1611:1681  LinkTokenInterface link = LinkTokenInterface(_chainlinkTokenAddress()) */\n      swap1\n      pop\n        /* \"docs.chain.link/samples/APIRequests/StrTest.sol\":1712:1716  link */\n      dup1\n        /* \"docs.chain.link/samples/APIRequests/StrTest.sol\":1712:1725  link.transfer */\n      0xffffffffffffffffffffffffffffffffffffffff\n      and\n      0xa9059cbb\n        /* \"docs.chain.link/samples/APIRequests/StrTest.sol\":1726:1736  msg.sender */\n      caller\n        /* \"docs.chain.link/samples/APIRequests/StrTest.sol\":1738:1742  link */\n      dup4\n        /* \"docs.chain.link/samples/APIRequests/StrTest.sol\":1738:1752  link.balanceOf */\n      0xffffffffffffffffffffffffffffffffffffffff\n      and\n      0x70a08231\n        /* \"docs.chain.link/samples/APIRequests/StrTest.sol\":1761:1765  this */\n      address\n        /* \"docs.chain.link/samples/APIRequests/StrTest.sol\":1738:1767  link.balanceOf(address(this)) */\n      mload(0x40)\n      dup3\n      0xffffffff\n      and\n      0xe0\n      shl\n      dup2\n      mstore\n      0x04\n      add\n      tag_62\n      swap2\n      swap1\n      tag_24\n      jump\t// in\n    tag_62:\n      0x20\n      mload(0x40)\n      dup1\n      dup4\n      sub\n      dup2\n      dup7\n      dup1\n      extcodesize\n      iszero\n      dup1\n      iszero\n      tag_63\n      jumpi\n      0x00\n      dup1\n      revert\n    tag_63:\n      pop\n      gas\n      staticcall\n      iszero\n      dup1\n      iszero\n      tag_65\n      jumpi\n      returndatasize\n      0x00\n      dup1\n      returndatacopy\n      revert(0x00, returndatasize)\n    tag_65:\n      pop\n      pop\n      pop\n      pop\n      mload(0x40)\n      returndatasize\n      not(0x1f)\n      0x1f\n      dup3\n      add\n      and\n      dup3\n      add\n      dup1\n      0x40\n      mstore\n      pop\n      dup2\n      add\n      swap1\n      tag_66\n      swap2\n      swap1\n      tag_67\n      jump\t// in\n    tag_66:\n        /* \"docs.chain.link/samples/APIRequests/StrTest.sol\":1712:1768  link.transfer(msg.sender, link.balanceOf(address(this))) */\n      mload(0x40)\n      dup4\n      0xffffffff\n      and\n      0xe0\n      shl\n      dup2\n      mstore\n      0x04\n      add\n      tag_68\n      swap3\n      swap2\n      swap1\n      tag_69\n      jump\t// in\n    tag_68:\n      0x20\n      mload(0x40)\n      dup1\n      dup4\n      sub\n      dup2\n      0x00\n      dup8\n      dup1\n      extcodesize\n      iszero\n      dup1\n      iszero\n      tag_70\n      jumpi\n      0x00\n      dup1\n      revert\n    tag_70:\n      pop\n      gas\n      call\n      iszero\n      dup1\n      iszero\n      tag_72\n      jumpi\n      returndatasize\n      0x00\n      dup1\n      returndatacopy\n      revert(0x00, returndatasize)\n    tag_72:\n      pop\n      pop\n      pop\n      pop\n      mload(0x40)\n      returndatasize\n      not(0x1f)\n      0x1f\n      dup3\n      add\n      and\n      dup3\n      add\n      dup1\n      0x40\n      mstore\n      pop\n      dup2\n      add\n      swap1\n      tag_73\n      swap2\n      swap1\n      tag_74\n      jump\t// in\n    tag_73:\n        /* \"docs.chain.link/samples/APIRequests/StrTest.sol\":1691:1812  require(... */\n      tag_75\n      jumpi\n      mload(0x40)\n      0x08c379a000000000000000000000000000000000000000000000000000000000\n      dup2\n      mstore\n      0x04\n      add\n      tag_76\n      swap1\n      tag_77\n      jump\t// in\n    tag_76:\n      mload(0x40)\n      dup1\n      swap2\n      sub\n      swap1\n      revert\n    tag_75:\n        /* \"docs.chain.link/samples/APIRequests/StrTest.sol\":1601:1819  {... */\n      pop\n        /* \"docs.chain.link/samples/APIRequests/StrTest.sol\":1560:1819  function withdrawLink() public onlyOwner {... */\n      jump\t// out\n        /* \"docs.chain.link/samples/APIRequests/StrTest.sol\":465:481  string public id */\n    tag_28:\n      0x08\n      dup1\n      sload\n      tag_78\n      swap1\n      tag_79\n      jump\t// in\n    tag_78:\n      dup1\n      0x1f\n      add\n      0x20\n      dup1\n      swap2\n      div\n      mul\n      0x20\n      add\n      mload(0x40)\n      swap1\n      dup2\n      add\n      0x40\n      mstore\n      dup1\n      swap3\n      swap2\n      swap1\n      dup2\n      dup2\n      mstore\n      0x20\n      add\n      dup3\n      dup1\n      sload\n      tag_80\n      swap1\n      tag_79\n      jump\t// in\n    tag_80:\n      dup1\n      iszero\n      tag_81\n      jumpi\n      dup1\n      0x1f\n      lt\n      tag_82\n      jumpi\n      0x0100\n      dup1\n      dup4\n      sload\n      div\n      mul\n      dup4\n      mstore\n      swap2\n      0x20\n      add\n      swap2\n      jump(tag_81)\n    tag_82:\n      dup3\n      add\n      swap2\n      swap1\n      0x00\n      mstore\n      keccak256(0x00, 0x20)\n      swap1\n    tag_83:\n      dup2\n      sload\n      dup2\n      mstore\n      swap1\n      0x01\n      add\n      swap1\n      0x20\n      add\n      dup1\n      dup4\n      gt\n      tag_83\n      jumpi\n      dup3\n      swap1\n      sub\n      0x1f\n      and\n      dup3\n      add\n      swap2\n    tag_81:\n      pop\n      pop\n      pop\n      pop\n      pop\n      dup2\n      jump\t// out\n        /* \"@chainlink/contracts/src/v0.8/shared/access/ConfirmedOwnerWithProposal.sol\":847:945  function transferOwnership(address to) public override onlyOwner {... */\n    tag_34:\n        /* \"@chainlink/contracts/src/v0.8/shared/access/ConfirmedOwnerWithProposal.sol\":2075:2095  _validateOwnership() */\n      tag_85\n        /* \"@chainlink/contracts/src/v0.8/shared/access/ConfirmedOwnerWithProposal.sol\":2075:2093  _validateOwnership */\n      tag_58\n        /* \"@chainlink/contracts/src/v0.8/shared/access/ConfirmedOwnerWithProposal.sol\":2075:2095  _validateOwnership() */\n      jump\t// in\n    tag_85:\n        /* \"@chainlink/contracts/src/v0.8/shared/access/ConfirmedOwnerWithProposal.sol\":918:940  _transferOwnership(to) */\n      tag_87\n        /* \"@chainlink/contracts/src/v0.8/shared/access/ConfirmedOwnerWithProposal.sol\":937:939  to */\n      dup2\n        /* \"@chainlink/contracts/src/v0.8/shared/access/ConfirmedOwnerWithProposal.sol\":918:936  _transferOwnership */\n      tag_88\n        /* \"@chainlink/contracts/src/v0.8/shared/access/ConfirmedOwnerWithProposal.sol\":918:940  _transferOwnership(to) */\n      jump\t// in\n    tag_87:\n        /* \"@chainlink/contracts/src/v0.8/shared/access/ConfirmedOwnerWithProposal.sol\":847:945  function transferOwnership(address to) public override onlyOwner {... */\n      pop\n      jump\t// out\n        /* \"@chainlink/contracts/src/v0.8/ChainlinkClient.sol\":2041:2326  function _buildChainlinkRequest(... */\n    tag_37:\n        /* \"@chainlink/contracts/src/v0.8/ChainlinkClient.sol\":2184:2208  Chainlink.Request memory */\n      tag_89\n      tag_90\n      jump\t// in\n    tag_89:\n        /* \"@chainlink/contracts/src/v0.8/ChainlinkClient.sol\":2216:2244  Chainlink.Request memory req */\n      tag_92\n      tag_90\n      jump\t// in\n    tag_92:\n        /* \"@chainlink/contracts/src/v0.8/ChainlinkClient.sol\":2257:2321  req._initialize(specId, callbackAddr, callbackFunctionSignature) */\n      tag_93\n        /* \"@chainlink/contracts/src/v0.8/ChainlinkClient.sol\":2273:2279  specId */\n      dup6\n        /* \"@chainlink/contracts/src/v0.8/ChainlinkClient.sol\":2281:2293  callbackAddr */\n      dup6\n        /* \"@chainlink/contracts/src/v0.8/ChainlinkClient.sol\":2295:2320  callbackFunctionSignature */\n      dup6\n        /* \"@chainlink/contracts/src/v0.8/ChainlinkClient.sol\":2257:2260  req */\n      dup5\n        /* \"@chainlink/contracts/src/v0.8/ChainlinkClient.sol\":2257:2272  req._initialize */\n      tag_94\n      swap1\n        /* \"@chainlink/contracts/src/v0.8/ChainlinkClient.sol\":2257:2321  req._initialize(specId, callbackAddr, callbackFunctionSignature) */\n      swap4\n      swap3\n      swap2\n      swap1\n      0xffffffff\n      and\n      jump\t// in\n    tag_93:\n        /* \"@chainlink/contracts/src/v0.8/ChainlinkClient.sol\":2250:2321  return req._initialize(specId, callbackAddr, callbackFunctionSignature) */\n      swap2\n      pop\n      pop\n        /* \"@chainlink/contracts/src/v0.8/ChainlinkClient.sol\":2041:2326  function _buildChainlinkRequest(... */\n      swap4\n      swap3\n      pop\n      pop\n      pop\n      jump\t// out\n        /* \"@chainlink/contracts/src/v0.8/Chainlink.sol\":1994:2154  function _add(Request memory self, string memory key, string memory value) internal pure {... */\n    tag_39:\n        /* \"@chainlink/contracts/src/v0.8/Chainlink.sol\":2089:2115  self.buf.encodeString(key) */\n      tag_96\n        /* \"@chainlink/contracts/src/v0.8/Chainlink.sol\":2111:2114  key */\n      dup3\n        /* \"@chainlink/contracts/src/v0.8/Chainlink.sol\":2089:2093  self */\n      dup5\n        /* \"@chainlink/contracts/src/v0.8/Chainlink.sol\":2089:2097  self.buf */\n      0x80\n      add\n      mload\n        /* \"@chainlink/contracts/src/v0.8/Chainlink.sol\":2089:2110  self.buf.encodeString */\n      tag_97\n      swap1\n        /* \"@chainlink/contracts/src/v0.8/Chainlink.sol\":2089:2115  self.buf.encodeString(key) */\n      swap2\n      swap1\n      0xffffffff\n      and\n      jump\t// in\n    tag_96:\n        /* \"@chainlink/contracts/src/v0.8/Chainlink.sol\":2121:2149  self.buf.encodeString(value) */\n      tag_98\n        /* \"@chainlink/contracts/src/v0.8/Chainlink.sol\":2143:2148  value */\n      dup2\n        /* \"@chainlink/contracts/src/v0.8/Chainlink.sol\":2121:2125  self */\n      dup5\n        /* \"@chainlink/contracts/src/v0.8/Chainlink.sol\":2121:2129  self.buf */\n      0x80\n      add\n      mload\n        /* \"@chainlink/contracts/src/v0.8/Chainlink.sol\":2121:2142  self.buf.encodeString */\n      tag_97\n      swap1\n        /* \"@chainlink/contracts/src/v0.8/Chainlink.sol\":2121:2149  self.buf.encodeString(value) */\n      swap2\n      swap1\n      0xffffffff\n      and\n      jump\t// in\n    tag_98:\n        /* \"@chainlink/contracts/src/v0.8/Chainlink.sol\":1994:2154  function _add(Request memory self, string memory key, string memory value) internal pure {... */\n      pop\n      pop\n      pop\n      jump\t// out\n        /* \"@chainlink/contracts/src/v0.8/ChainlinkClient.sol\":3185:3364  function _sendChainlinkRequest(Chainlink.Request memory req, uint256 payment) internal returns (bytes32) {... */\n    tag_42:\n        /* \"@chainlink/contracts/src/v0.8/ChainlinkClient.sol\":3281:3288  bytes32 */\n      0x00\n        /* \"@chainlink/contracts/src/v0.8/ChainlinkClient.sol\":3303:3359  _sendChainlinkRequestTo(address(s_oracle), req, payment) */\n      tag_100\n        /* \"@chainlink/contracts/src/v0.8/ChainlinkClient.sol\":3335:3343  s_oracle */\n      0x03\n      0x00\n      swap1\n      sload\n      swap1\n      0x0100\n      exp\n      swap1\n      div\n      0xffffffffffffffffffffffffffffffffffffffff\n      and\n        /* \"@chainlink/contracts/src/v0.8/ChainlinkClient.sol\":3346:3349  req */\n      dup5\n        /* \"@chainlink/contracts/src/v0.8/ChainlinkClient.sol\":3351:3358  payment */\n      dup5\n        /* \"@chainlink/contracts/src/v0.8/ChainlinkClient.sol\":3303:3326  _sendChainlinkRequestTo */\n      tag_101\n        /* \"@chainlink/contracts/src/v0.8/ChainlinkClient.sol\":3303:3359  _sendChainlinkRequestTo(address(s_oracle), req, payment) */\n      jump\t// in\n    tag_100:\n        /* \"@chainlink/contracts/src/v0.8/ChainlinkClient.sol\":3296:3359  return _sendChainlinkRequestTo(address(s_oracle), req, payment) */\n      swap1\n      pop\n        /* \"@chainlink/contracts/src/v0.8/ChainlinkClient.sol\":3185:3364  function _sendChainlinkRequest(Chainlink.Request memory req, uint256 payment) internal returns (bytes32) {... */\n      swap3\n      swap2\n      pop\n      pop\n      jump\t// out\n        /* \"@chainlink/contracts/src/v0.8/shared/access/ConfirmedOwnerWithProposal.sol\":1809:1971  function _validateOwnership() internal view {... */\n    tag_58:\n        /* \"@chainlink/contracts/src/v0.8/shared/access/ConfirmedOwnerWithProposal.sol\":1932:1939  s_owner */\n      0x06\n      0x00\n      swap1\n      sload\n      swap1\n      0x0100\n      exp\n      swap1\n      div\n      0xffffffffffffffffffffffffffffffffffffffff\n      and\n        /* \"@chainlink/contracts/src/v0.8/shared/access/ConfirmedOwnerWithProposal.sol\":1918:1939  msg.sender == s_owner */\n      0xffffffffffffffffffffffffffffffffffffffff\n      and\n        /* \"@chainlink/contracts/src/v0.8/shared/access/ConfirmedOwnerWithProposal.sol\":1918:1928  msg.sender */\n      caller\n        /* \"@chainlink/contracts/src/v0.8/shared/access/ConfirmedOwnerWithProposal.sol\":1918:1939  msg.sender == s_owner */\n      0xffffffffffffffffffffffffffffffffffffffff\n      and\n      eq\n        /* \"@chainlink/contracts/src/v0.8/shared/access/ConfirmedOwnerWithProposal.sol\":1910:1966  require(msg.sender == s_owner, \"Only callable by owner\") */\n      tag_103\n      jumpi\n      mload(0x40)\n      0x08c379a000000000000000000000000000000000000000000000000000000000\n      dup2\n      mstore\n      0x04\n      add\n      tag_104\n      swap1\n      tag_105\n      jump\t// in\n    tag_104:\n      mload(0x40)\n      dup1\n      swap2\n      sub\n      swap1\n      revert\n    tag_103:\n        /* \"@chainlink/contracts/src/v0.8/shared/access/ConfirmedOwnerWithProposal.sol\":1809:1971  function _validateOwnership() internal view {... */\n      jump\t// out\n        /* \"@chainlink/contracts/src/v0.8/ChainlinkClient.sol\":9325:9424  function _chainlinkTokenAddress() internal view returns (address) {... */\n    tag_61:\n        /* \"@chainlink/contracts/src/v0.8/ChainlinkClient.sol\":9382:9389  address */\n      0x00\n        /* \"@chainlink/contracts/src/v0.8/ChainlinkClient.sol\":9412:9418  s_link */\n      0x02\n      0x00\n      swap1\n      sload\n      swap1\n      0x0100\n      exp\n      swap1\n      div\n      0xffffffffffffffffffffffffffffffffffffffff\n      and\n        /* \"@chainlink/contracts/src/v0.8/ChainlinkClient.sol\":9397:9419  return address(s_link) */\n      swap1\n      pop\n        /* \"@chainlink/contracts/src/v0.8/ChainlinkClient.sol\":9325:9424  function _chainlinkTokenAddress() internal view returns (address) {... */\n      swap1\n      jump\t// out\n        /* \"@chainlink/contracts/src/v0.8/shared/access/ConfirmedOwnerWithProposal.sol\":1536:1775  function _transferOwnership(address to) private {... */\n    tag_88:\n        /* \"@chainlink/contracts/src/v0.8/shared/access/ConfirmedOwnerWithProposal.sol\":1655:1665  msg.sender */\n      caller\n        /* \"@chainlink/contracts/src/v0.8/shared/access/ConfirmedOwnerWithProposal.sol\":1649:1665  to != msg.sender */\n      0xffffffffffffffffffffffffffffffffffffffff\n      and\n        /* \"@chainlink/contracts/src/v0.8/shared/access/ConfirmedOwnerWithProposal.sol\":1649:1651  to */\n      dup2\n        /* \"@chainlink/contracts/src/v0.8/shared/access/ConfirmedOwnerWithProposal.sol\":1649:1665  to != msg.sender */\n      0xffffffffffffffffffffffffffffffffffffffff\n      and\n      eq\n      iszero\n        /* \"@chainlink/contracts/src/v0.8/shared/access/ConfirmedOwnerWithProposal.sol\":1641:1693  require(to != msg.sender, \"Cannot transfer to self\") */\n      tag_108\n      jumpi\n      mload(0x40)\n      0x08c379a000000000000000000000000000000000000000000000000000000000\n      dup2\n      mstore\n      0x04\n      add\n      tag_109\n      swap1\n      tag_110\n      jump\t// in\n    tag_109:\n      mload(0x40)\n      dup1\n      swap2\n      sub\n      swap1\n      revert\n    tag_108:\n        /* \"@chainlink/contracts/src/v0.8/shared/access/ConfirmedOwnerWithProposal.sol\":1717:1719  to */\n      dup1\n        /* \"@chainlink/contracts/src/v0.8/shared/access/ConfirmedOwnerWithProposal.sol\":1700:1714  s_pendingOwner */\n      0x07\n      0x00\n        /* \"@chainlink/contracts/src/v0.8/shared/access/ConfirmedOwnerWithProposal.sol\":1700:1719  s_pendingOwner = to */\n      0x0100\n      exp\n      dup2\n      sload\n      dup2\n      0xffffffffffffffffffffffffffffffffffffffff\n      mul\n      not\n      and\n      swap1\n      dup4\n      0xffffffffffffffffffffffffffffffffffffffff\n      and\n      mul\n      or\n      swap1\n      sstore\n      pop\n        /* \"@chainlink/contracts/src/v0.8/shared/access/ConfirmedOwnerWithProposal.sol\":1767:1769  to */\n      dup1\n        /* \"@chainlink/contracts/src/v0.8/shared/access/ConfirmedOwnerWithProposal.sol\":1731:1770  OwnershipTransferRequested(s_owner, to) */\n      0xffffffffffffffffffffffffffffffffffffffff\n      and\n        /* \"@chainlink/contracts/src/v0.8/shared/access/ConfirmedOwnerWithProposal.sol\":1758:1765  s_owner */\n      0x06\n      0x00\n      swap1\n      sload\n      swap1\n      0x0100\n      exp\n      swap1\n      div\n      0xffffffffffffffffffffffffffffffffffffffff\n      and\n        /* \"@chainlink/contracts/src/v0.8/shared/access/ConfirmedOwnerWithProposal.sol\":1731:1770  OwnershipTransferRequested(s_owner, to) */\n      0xffffffffffffffffffffffffffffffffffffffff\n      and\n      0xed8889f560326eb138920d842192f0eb3dd22b4f139c87a2c57538e05bae1278\n      mload(0x40)\n      mload(0x40)\n      dup1\n      swap2\n      sub\n      swap1\n      log3\n        /* \"@chainlink/contracts/src/v0.8/shared/access/ConfirmedOwnerWithProposal.sol\":1536:1775  function _transferOwnership(address to) private {... */\n      pop\n      jump\t// out\n        /* \"@chainlink/contracts/src/v0.8/Chainlink.sol\":1028:1380  function _initialize(... */\n    tag_94:\n        /* \"@chainlink/contracts/src/v0.8/Chainlink.sol\":1171:1195  Chainlink.Request memory */\n      tag_111\n      tag_90\n      jump\t// in\n    tag_111:\n        /* \"@chainlink/contracts/src/v0.8/Chainlink.sol\":1203:1252  BufferChainlink.init(self.buf, defaultBufferSize) */\n      tag_113\n        /* \"@chainlink/contracts/src/v0.8/Chainlink.sol\":1224:1228  self */\n      dup6\n        /* \"@chainlink/contracts/src/v0.8/Chainlink.sol\":1224:1232  self.buf */\n      0x80\n      add\n      mload\n        /* \"@chainlink/contracts/src/v0.8/Chainlink.sol\":447:450  256 */\n      0x0100\n        /* \"@chainlink/contracts/src/v0.8/Chainlink.sol\":1203:1223  BufferChainlink.init */\n      tag_114\n        /* \"@chainlink/contracts/src/v0.8/Chainlink.sol\":1203:1252  BufferChainlink.init(self.buf, defaultBufferSize) */\n      jump\t// in\n    tag_113:\n      pop\n        /* \"@chainlink/contracts/src/v0.8/Chainlink.sol\":1268:1273  jobId */\n      dup4\n        /* \"@chainlink/contracts/src/v0.8/Chainlink.sol\":1258:1262  self */\n      dup6\n        /* \"@chainlink/contracts/src/v0.8/Chainlink.sol\":1258:1265  self.id */\n      0x00\n      add\n        /* \"@chainlink/contracts/src/v0.8/Chainlink.sol\":1258:1273  self.id = jobId */\n      dup2\n      dup2\n      mstore\n      pop\n      pop\n        /* \"@chainlink/contracts/src/v0.8/Chainlink.sol\":1302:1314  callbackAddr */\n      dup3\n        /* \"@chainlink/contracts/src/v0.8/Chainlink.sol\":1279:1283  self */\n      dup6\n        /* \"@chainlink/contracts/src/v0.8/Chainlink.sol\":1279:1299  self.callbackAddress */\n      0x20\n      add\n        /* \"@chainlink/contracts/src/v0.8/Chainlink.sol\":1279:1314  self.callbackAddress = callbackAddr */\n      swap1\n      0xffffffffffffffffffffffffffffffffffffffff\n      and\n      swap1\n      dup2\n      0xffffffffffffffffffffffffffffffffffffffff\n      and\n      dup2\n      mstore\n      pop\n      pop\n        /* \"@chainlink/contracts/src/v0.8/Chainlink.sol\":1346:1358  callbackFunc */\n      dup2\n        /* \"@chainlink/contracts/src/v0.8/Chainlink.sol\":1320:1324  self */\n      dup6\n        /* \"@chainlink/contracts/src/v0.8/Chainlink.sol\":1320:1343  self.callbackFunctionId */\n      0x40\n      add\n        /* \"@chainlink/contracts/src/v0.8/Chainlink.sol\":1320:1358  self.callbackFunctionId = callbackFunc */\n      swap1\n      not(0xffffffffffffffffffffffffffffffffffffffffffffffffffffffff)\n      and\n      swap1\n      dup2\n      not(0xffffffffffffffffffffffffffffffffffffffffffffffffffffffff)\n      and\n      dup2\n      mstore\n      pop\n      pop\n        /* \"@chainlink/contracts/src/v0.8/Chainlink.sol\":1371:1375  self */\n      dup5\n        /* \"@chainlink/contracts/src/v0.8/Chainlink.sol\":1364:1375  return self */\n      swap1\n      pop\n        /* \"@chainlink/contracts/src/v0.8/Chainlink.sol\":1028:1380  function _initialize(... */\n      swap5\n      swap4\n      pop\n      pop\n      pop\n      pop\n      jump\t// out\n        /* \"@chainlink/contracts/src/v0.8/vendor/CBORChainlink.sol\":2777:2981  function encodeString(BufferChainlink.buffer memory buf, string memory value) internal pure {... */\n    tag_97:\n        /* \"@chainlink/contracts/src/v0.8/vendor/CBORChainlink.sol\":2875:2946  encodeFixedNumeric(buf, MAJOR_TYPE_STRING, uint64(bytes(value).length)) */\n      tag_116\n        /* \"@chainlink/contracts/src/v0.8/vendor/CBORChainlink.sol\":2894:2897  buf */\n      dup3\n        /* \"@chainlink/contracts/src/v0.8/vendor/CBORChainlink.sol\":383:384  3 */\n      0x03\n        /* \"@chainlink/contracts/src/v0.8/vendor/CBORChainlink.sol\":2931:2936  value */\n      dup4\n        /* \"@chainlink/contracts/src/v0.8/vendor/CBORChainlink.sol\":2925:2944  bytes(value).length */\n      mload\n        /* \"@chainlink/contracts/src/v0.8/vendor/CBORChainlink.sol\":2875:2893  encodeFixedNumeric */\n      tag_117\n        /* \"@chainlink/contracts/src/v0.8/vendor/CBORChainlink.sol\":2875:2946  encodeFixedNumeric(buf, MAJOR_TYPE_STRING, uint64(bytes(value).length)) */\n      jump\t// in\n    tag_116:\n        /* \"@chainlink/contracts/src/v0.8/vendor/CBORChainlink.sol\":2952:2976  buf.append(bytes(value)) */\n      tag_118\n        /* \"@chainlink/contracts/src/v0.8/vendor/CBORChainlink.sol\":2969:2974  value */\n      dup2\n        /* \"@chainlink/contracts/src/v0.8/vendor/CBORChainlink.sol\":2952:2955  buf */\n      dup4\n        /* \"@chainlink/contracts/src/v0.8/vendor/CBORChainlink.sol\":2952:2962  buf.append */\n      tag_119\n      swap1\n        /* \"@chainlink/contracts/src/v0.8/vendor/CBORChainlink.sol\":2952:2976  buf.append(bytes(value)) */\n      swap2\n      swap1\n      0xffffffff\n      and\n      jump\t// in\n    tag_118:\n      pop\n        /* \"@chainlink/contracts/src/v0.8/vendor/CBORChainlink.sol\":2777:2981  function encodeString(BufferChainlink.buffer memory buf, string memory value) internal pure {... */\n      pop\n      pop\n      jump\t// out\n        /* \"@chainlink/contracts/src/v0.8/ChainlinkClient.sol\":3882:4639  function _sendChainlinkRequestTo(... */\n    tag_101:\n        /* \"@chainlink/contracts/src/v0.8/ChainlinkClient.sol\":4019:4036  bytes32 requestId */\n      0x00\n        /* \"@chainlink/contracts/src/v0.8/ChainlinkClient.sol\":4044:4057  uint256 nonce */\n      dup1\n        /* \"@chainlink/contracts/src/v0.8/ChainlinkClient.sol\":4060:4074  s_requestCount */\n      sload(0x04)\n        /* \"@chainlink/contracts/src/v0.8/ChainlinkClient.sol\":4044:4074  uint256 nonce = s_requestCount */\n      swap1\n      pop\n        /* \"@chainlink/contracts/src/v0.8/ChainlinkClient.sol\":4105:4106  1 */\n      0x01\n        /* \"@chainlink/contracts/src/v0.8/ChainlinkClient.sol\":4097:4102  nonce */\n      dup2\n        /* \"@chainlink/contracts/src/v0.8/ChainlinkClient.sol\":4097:4106  nonce + 1 */\n      tag_121\n      swap2\n      swap1\n      tag_122\n      jump\t// in\n    tag_121:\n        /* \"@chainlink/contracts/src/v0.8/ChainlinkClient.sol\":4080:4094  s_requestCount */\n      0x04\n        /* \"@chainlink/contracts/src/v0.8/ChainlinkClient.sol\":4080:4106  s_requestCount = nonce + 1 */\n      dup2\n      swap1\n      sstore\n      pop\n        /* \"@chainlink/contracts/src/v0.8/ChainlinkClient.sol\":4112:4139  bytes memory encodedRequest */\n      0x00\n        /* \"@chainlink/contracts/src/v0.8/ChainlinkClient.sol\":4172:4220  ChainlinkRequestInterface.oracleRequest.selector */\n      shl(0xe0, 0x40429946)\n        /* \"@chainlink/contracts/src/v0.8/ChainlinkClient.sol\":975:976  0 */\n      0x00\n        /* \"@chainlink/contracts/src/v0.8/ChainlinkClient.sol\":919:920  0 */\n      dup1\n        /* \"@chainlink/contracts/src/v0.8/ChainlinkClient.sol\":4441:4444  req */\n      dup8\n        /* \"@chainlink/contracts/src/v0.8/ChainlinkClient.sol\":4441:4447  req.id */\n      0x00\n      add\n      mload\n        /* \"@chainlink/contracts/src/v0.8/ChainlinkClient.sol\":4463:4467  this */\n      address\n        /* \"@chainlink/contracts/src/v0.8/ChainlinkClient.sol\":4476:4479  req */\n      dup10\n        /* \"@chainlink/contracts/src/v0.8/ChainlinkClient.sol\":4476:4498  req.callbackFunctionId */\n      0x40\n      add\n      mload\n        /* \"@chainlink/contracts/src/v0.8/ChainlinkClient.sol\":4506:4511  nonce */\n      dup8\n        /* \"@chainlink/contracts/src/v0.8/ChainlinkClient.sol\":1028:1029  1 */\n      0x01\n        /* \"@chainlink/contracts/src/v0.8/ChainlinkClient.sol\":4546:4549  req */\n      dup13\n        /* \"@chainlink/contracts/src/v0.8/ChainlinkClient.sol\":4546:4553  req.buf */\n      0x80\n      add\n      mload\n        /* \"@chainlink/contracts/src/v0.8/ChainlinkClient.sol\":4546:4557  req.buf.buf */\n      0x00\n      add\n      mload\n        /* \"@chainlink/contracts/src/v0.8/ChainlinkClient.sol\":4142:4563  abi.encodeWithSelector(... */\n      add(0x24, mload(0x40))\n      tag_123\n      swap9\n      swap8\n      swap7\n      swap6\n      swap5\n      swap4\n      swap3\n      swap2\n      swap1\n      tag_124\n      jump\t// in\n    tag_123:\n      mload(0x40)\n      0x20\n      dup2\n      dup4\n      sub\n      sub\n      dup2\n      mstore\n      swap1\n      0x40\n      mstore\n      swap1\n      not(0xffffffffffffffffffffffffffffffffffffffffffffffffffffffff)\n      and\n      0x20\n      dup3\n      add\n      dup1\n      mload\n      0xffffffffffffffffffffffffffffffffffffffffffffffffffffffff\n      dup4\n      dup2\n      dup4\n      and\n      or\n      dup4\n      mstore\n      pop\n      pop\n      pop\n      pop\n        /* \"@chainlink/contracts/src/v0.8/ChainlinkClient.sol\":4112:4563  bytes memory encodedRequest = abi.encodeWithSelector(... */\n      swap1\n      pop\n        /* \"@chainlink/contracts/src/v0.8/ChainlinkClient.sol\":4576:4634  _rawRequest(oracleAddress, nonce, payment, encodedRequest) */\n      tag_125\n        /* \"@chainlink/contracts/src/v0.8/ChainlinkClient.sol\":4588:4601  oracleAddress */\n      dup7\n        /* \"@chainlink/contracts/src/v0.8/ChainlinkClient.sol\":4603:4608  nonce */\n      dup4\n        /* \"@chainlink/contracts/src/v0.8/ChainlinkClient.sol\":4610:4617  payment */\n      dup7\n        /* \"@chainlink/contracts/src/v0.8/ChainlinkClient.sol\":4619:4633  encodedRequest */\n      dup5\n        /* \"@chainlink/contracts/src/v0.8/ChainlinkClient.sol\":4576:4587  _rawRequest */\n      tag_126\n        /* \"@chainlink/contracts/src/v0.8/ChainlinkClient.sol\":4576:4634  _rawRequest(oracleAddress, nonce, payment, encodedRequest) */\n      jump\t// in\n    tag_125:\n        /* \"@chainlink/contracts/src/v0.8/ChainlinkClient.sol\":4569:4634  return _rawRequest(oracleAddress, nonce, payment, encodedRequest) */\n      swap3\n      pop\n      pop\n      pop\n        /* \"@chainlink/contracts/src/v0.8/ChainlinkClient.sol\":3882:4639  function _sendChainlinkRequestTo(... */\n      swap4\n      swap3\n      pop\n      pop\n      pop\n      jump\t// out\n        /* \"@chainlink/contracts/src/v0.8/vendor/BufferChainlink.sol\":1001:1400  function init(buffer memory buf, uint256 capacity) internal pure returns (buffer memory) {... */\n    tag_114:\n        /* \"@chainlink/contracts/src/v0.8/vendor/BufferChainlink.sol\":1075:1088  buffer memory */\n      tag_127\n      tag_128\n      jump\t// in\n    tag_127:\n        /* \"@chainlink/contracts/src/v0.8/vendor/BufferChainlink.sol\":1117:1118  0 */\n      0x00\n        /* \"@chainlink/contracts/src/v0.8/vendor/BufferChainlink.sol\":1111:1113  32 */\n      0x20\n        /* \"@chainlink/contracts/src/v0.8/vendor/BufferChainlink.sol\":1100:1108  capacity */\n      dup4\n        /* \"@chainlink/contracts/src/v0.8/vendor/BufferChainlink.sol\":1100:1113  capacity % 32 */\n      tag_130\n      swap2\n      swap1\n      tag_131\n      jump\t// in\n    tag_130:\n        /* \"@chainlink/contracts/src/v0.8/vendor/BufferChainlink.sol\":1100:1118  capacity % 32 != 0 */\n      eq\n        /* \"@chainlink/contracts/src/v0.8/vendor/BufferChainlink.sol\":1096:1167  if (capacity % 32 != 0) {... */\n      tag_132\n      jumpi\n        /* \"@chainlink/contracts/src/v0.8/vendor/BufferChainlink.sol\":1157:1159  32 */\n      0x20\n        /* \"@chainlink/contracts/src/v0.8/vendor/BufferChainlink.sol\":1146:1154  capacity */\n      dup3\n        /* \"@chainlink/contracts/src/v0.8/vendor/BufferChainlink.sol\":1146:1159  capacity % 32 */\n      tag_133\n      swap2\n      swap1\n      tag_131\n      jump\t// in\n    tag_133:\n        /* \"@chainlink/contracts/src/v0.8/vendor/BufferChainlink.sol\":1140:1142  32 */\n      0x20\n        /* \"@chainlink/contracts/src/v0.8/vendor/BufferChainlink.sol\":1140:1160  32 - (capacity % 32) */\n      tag_134\n      swap2\n      swap1\n      tag_135\n      jump\t// in\n    tag_134:\n        /* \"@chainlink/contracts/src/v0.8/vendor/BufferChainlink.sol\":1128:1160  capacity += 32 - (capacity % 32) */\n      dup3\n      tag_136\n      swap2\n      swap1\n      tag_122\n      jump\t// in\n    tag_136:\n      swap2\n      pop\n        /* \"@chainlink/contracts/src/v0.8/vendor/BufferChainlink.sol\":1096:1167  if (capacity % 32 != 0) {... */\n    tag_132:\n        /* \"@chainlink/contracts/src/v0.8/vendor/BufferChainlink.sol\":1229:1237  capacity */\n      dup2\n        /* \"@chainlink/contracts/src/v0.8/vendor/BufferChainlink.sol\":1214:1217  buf */\n      dup4\n        /* \"@chainlink/contracts/src/v0.8/vendor/BufferChainlink.sol\":1214:1226  buf.capacity */\n      0x20\n      add\n        /* \"@chainlink/contracts/src/v0.8/vendor/BufferChainlink.sol\":1214:1237  buf.capacity = capacity */\n      dup2\n      dup2\n      mstore\n      pop\n      pop\n        /* \"@chainlink/contracts/src/v0.8/vendor/BufferChainlink.sol\":1277:1281  0x40 */\n      0x40\n        /* \"@chainlink/contracts/src/v0.8/vendor/BufferChainlink.sol\":1271:1282  mload(0x40) */\n      mload\n        /* \"@chainlink/contracts/src/v0.8/vendor/BufferChainlink.sol\":1301:1304  ptr */\n      dup1\n        /* \"@chainlink/contracts/src/v0.8/vendor/BufferChainlink.sol\":1296:1299  buf */\n      dup5\n        /* \"@chainlink/contracts/src/v0.8/vendor/BufferChainlink.sol\":1289:1305  mstore(buf, ptr) */\n      mstore\n        /* \"@chainlink/contracts/src/v0.8/vendor/BufferChainlink.sol\":1324:1325  0 */\n      0x00\n        /* \"@chainlink/contracts/src/v0.8/vendor/BufferChainlink.sol\":1319:1322  ptr */\n      dup2\n        /* \"@chainlink/contracts/src/v0.8/vendor/BufferChainlink.sol\":1312:1326  mstore(ptr, 0) */\n      mstore\n        /* \"@chainlink/contracts/src/v0.8/vendor/BufferChainlink.sol\":1363:1371  capacity */\n      dup3\n        /* \"@chainlink/contracts/src/v0.8/vendor/BufferChainlink.sol\":1358:1361  ptr */\n      dup2\n        /* \"@chainlink/contracts/src/v0.8/vendor/BufferChainlink.sol\":1354:1372  add(ptr, capacity) */\n      add\n        /* \"@chainlink/contracts/src/v0.8/vendor/BufferChainlink.sol\":1350:1352  32 */\n      0x20\n        /* \"@chainlink/contracts/src/v0.8/vendor/BufferChainlink.sol\":1346:1373  add(32, add(ptr, capacity)) */\n      add\n        /* \"@chainlink/contracts/src/v0.8/vendor/BufferChainlink.sol\":1340:1344  0x40 */\n      0x40\n        /* \"@chainlink/contracts/src/v0.8/vendor/BufferChainlink.sol\":1333:1374  mstore(0x40, add(32, add(ptr, capacity))) */\n      mstore\n        /* \"@chainlink/contracts/src/v0.8/vendor/BufferChainlink.sol\":1252:1380  {... */\n      pop\n        /* \"@chainlink/contracts/src/v0.8/vendor/BufferChainlink.sol\":1392:1395  buf */\n      dup3\n        /* \"@chainlink/contracts/src/v0.8/vendor/BufferChainlink.sol\":1385:1395  return buf */\n      swap1\n      pop\n        /* \"@chainlink/contracts/src/v0.8/vendor/BufferChainlink.sol\":1001:1400  function init(buffer memory buf, uint256 capacity) internal pure returns (buffer memory) {... */\n      swap3\n      swap2\n      pop\n      pop\n      jump\t// out\n        /* \"@chainlink/contracts/src/v0.8/vendor/CBORChainlink.sol\":682:1307  function encodeFixedNumeric(BufferChainlink.buffer memory buf, uint8 major, uint64 value) private pure {... */\n    tag_117:\n        /* \"@chainlink/contracts/src/v0.8/vendor/CBORChainlink.sol\":803:805  23 */\n      0x17\n        /* \"@chainlink/contracts/src/v0.8/vendor/CBORChainlink.sol\":794:799  value */\n      dup2\n        /* \"@chainlink/contracts/src/v0.8/vendor/CBORChainlink.sol\":794:805  value <= 23 */\n      0xffffffffffffffff\n      and\n      gt\n        /* \"@chainlink/contracts/src/v0.8/vendor/CBORChainlink.sol\":791:1303  if(value <= 23) {... */\n      tag_138\n      jumpi\n        /* \"@chainlink/contracts/src/v0.8/vendor/CBORChainlink.sol\":815:859  buf.appendUint8(uint8((major << 5) | value)) */\n      tag_139\n        /* \"@chainlink/contracts/src/v0.8/vendor/CBORChainlink.sol\":852:857  value */\n      dup2\n        /* \"@chainlink/contracts/src/v0.8/vendor/CBORChainlink.sol\":847:848  5 */\n      0x05\n        /* \"@chainlink/contracts/src/v0.8/vendor/CBORChainlink.sol\":838:843  major */\n      dup5\n        /* \"@chainlink/contracts/src/v0.8/vendor/CBORChainlink.sol\":838:848  major << 5 */\n      0xff\n      and\n      swap1\n      shl\n        /* \"@chainlink/contracts/src/v0.8/vendor/CBORChainlink.sol\":837:857  (major << 5) | value */\n      0xff\n      and\n      or\n        /* \"@chainlink/contracts/src/v0.8/vendor/CBORChainlink.sol\":815:818  buf */\n      dup5\n        /* \"@chainlink/contracts/src/v0.8/vendor/CBORChainlink.sol\":815:830  buf.appendUint8 */\n      tag_140\n      swap1\n        /* \"@chainlink/contracts/src/v0.8/vendor/CBORChainlink.sol\":815:859  buf.appendUint8(uint8((major << 5) | value)) */\n      swap2\n      swap1\n      0xffffffff\n      and\n      jump\t// in\n    tag_139:\n      pop\n        /* \"@chainlink/contracts/src/v0.8/vendor/CBORChainlink.sol\":791:1303  if(value <= 23) {... */\n      jump(tag_141)\n    tag_138:\n        /* \"@chainlink/contracts/src/v0.8/vendor/CBORChainlink.sol\":885:889  0xFF */\n      0xff\n        /* \"@chainlink/contracts/src/v0.8/vendor/CBORChainlink.sol\":876:881  value */\n      dup2\n        /* \"@chainlink/contracts/src/v0.8/vendor/CBORChainlink.sol\":876:889  value <= 0xFF */\n      0xffffffffffffffff\n      and\n      gt\n        /* \"@chainlink/contracts/src/v0.8/vendor/CBORChainlink.sol\":872:1303  if (value <= 0xFF) {... */\n      tag_142\n      jumpi\n        /* \"@chainlink/contracts/src/v0.8/vendor/CBORChainlink.sol\":899:940  buf.appendUint8(uint8((major << 5) | 24)) */\n      tag_143\n        /* \"@chainlink/contracts/src/v0.8/vendor/CBORChainlink.sol\":936:938  24 */\n      0x18\n        /* \"@chainlink/contracts/src/v0.8/vendor/CBORChainlink.sol\":931:932  5 */\n      0x05\n        /* \"@chainlink/contracts/src/v0.8/vendor/CBORChainlink.sol\":922:927  major */\n      dup5\n        /* \"@chainlink/contracts/src/v0.8/vendor/CBORChainlink.sol\":922:932  major << 5 */\n      0xff\n      and\n      swap1\n      shl\n        /* \"@chainlink/contracts/src/v0.8/vendor/CBORChainlink.sol\":921:938  (major << 5) | 24 */\n      or\n        /* \"@chainlink/contracts/src/v0.8/vendor/CBORChainlink.sol\":899:902  buf */\n      dup5\n        /* \"@chainlink/contracts/src/v0.8/vendor/CBORChainlink.sol\":899:914  buf.appendUint8 */\n      tag_140\n      swap1\n        /* \"@chainlink/contracts/src/v0.8/vendor/CBORChainlink.sol\":899:940  buf.appendUint8(uint8((major << 5) | 24)) */\n      swap2\n      swap1\n      0xffffffff\n      and\n      jump\t// in\n    tag_143:\n      pop\n        /* \"@chainlink/contracts/src/v0.8/vendor/CBORChainlink.sol\":948:971  buf.appendInt(value, 1) */\n      tag_144\n        /* \"@chainlink/contracts/src/v0.8/vendor/CBORChainlink.sol\":962:967  value */\n      dup2\n        /* \"@chainlink/contracts/src/v0.8/vendor/CBORChainlink.sol\":948:971  buf.appendInt(value, 1) */\n      0xffffffffffffffff\n      and\n        /* \"@chainlink/contracts/src/v0.8/vendor/CBORChainlink.sol\":969:970  1 */\n      0x01\n        /* \"@chainlink/contracts/src/v0.8/vendor/CBORChainlink.sol\":948:951  buf */\n      dup6\n        /* \"@chainlink/contracts/src/v0.8/vendor/CBORChainlink.sol\":948:961  buf.appendInt */\n      tag_145\n      swap1\n        /* \"@chainlink/contracts/src/v0.8/vendor/CBORChainlink.sol\":948:971  buf.appendInt(value, 1) */\n      swap3\n      swap2\n      swap1\n      0xffffffff\n      and\n      jump\t// in\n    tag_144:\n      pop\n        /* \"@chainlink/contracts/src/v0.8/vendor/CBORChainlink.sol\":872:1303  if (value <= 0xFF) {... */\n      jump(tag_146)\n    tag_142:\n        /* \"@chainlink/contracts/src/v0.8/vendor/CBORChainlink.sol\":997:1003  0xFFFF */\n      0xffff\n        /* \"@chainlink/contracts/src/v0.8/vendor/CBORChainlink.sol\":988:993  value */\n      dup2\n        /* \"@chainlink/contracts/src/v0.8/vendor/CBORChainlink.sol\":988:1003  value <= 0xFFFF */\n      0xffffffffffffffff\n      and\n      gt\n        /* \"@chainlink/contracts/src/v0.8/vendor/CBORChainlink.sol\":984:1303  if (value <= 0xFFFF) {... */\n      tag_147\n      jumpi\n        /* \"@chainlink/contracts/src/v0.8/vendor/CBORChainlink.sol\":1013:1054  buf.appendUint8(uint8((major << 5) | 25)) */\n      tag_148\n        /* \"@chainlink/contracts/src/v0.8/vendor/CBORChainlink.sol\":1050:1052  25 */\n      0x19\n        /* \"@chainlink/contracts/src/v0.8/vendor/CBORChainlink.sol\":1045:1046  5 */\n      0x05\n        /* \"@chainlink/contracts/src/v0.8/vendor/CBORChainlink.sol\":1036:1041  major */\n      dup5\n        /* \"@chainlink/contracts/src/v0.8/vendor/CBORChainlink.sol\":1036:1046  major << 5 */\n      0xff\n      and\n      swap1\n      shl\n        /* \"@chainlink/contracts/src/v0.8/vendor/CBORChainlink.sol\":1035:1052  (major << 5) | 25 */\n      or\n        /* \"@chainlink/contracts/src/v0.8/vendor/CBORChainlink.sol\":1013:1016  buf */\n      dup5\n        /* \"@chainlink/contracts/src/v0.8/vendor/CBORChainlink.sol\":1013:1028  buf.appendUint8 */\n      tag_140\n      swap1\n        /* \"@chainlink/contracts/src/v0.8/vendor/CBORChainlink.sol\":1013:1054  buf.appendUint8(uint8((major << 5) | 25)) */\n      swap2\n      swap1\n      0xffffffff\n      and\n      jump\t// in\n    tag_148:\n      pop\n        /* \"@chainlink/contracts/src/v0.8/vendor/CBORChainlink.sol\":1062:1085  buf.appendInt(value, 2) */\n      tag_149\n        /* \"@chainlink/contracts/src/v0.8/vendor/CBORChainlink.sol\":1076:1081  value */\n      dup2\n        /* \"@chainlink/contracts/src/v0.8/vendor/CBORChainlink.sol\":1062:1085  buf.appendInt(value, 2) */\n      0xffffffffffffffff\n      and\n        /* \"@chainlink/contracts/src/v0.8/vendor/CBORChainlink.sol\":1083:1084  2 */\n      0x02\n        /* \"@chainlink/contracts/src/v0.8/vendor/CBORChainlink.sol\":1062:1065  buf */\n      dup6\n        /* \"@chainlink/contracts/src/v0.8/vendor/CBORChainlink.sol\":1062:1075  buf.appendInt */\n      tag_145\n      swap1\n        /* \"@chainlink/contracts/src/v0.8/vendor/CBORChainlink.sol\":1062:1085  buf.appendInt(value, 2) */\n      swap3\n      swap2\n      swap1\n      0xffffffff\n      and\n      jump\t// in\n    tag_149:\n      pop\n        /* \"@chainlink/contracts/src/v0.8/vendor/CBORChainlink.sol\":984:1303  if (value <= 0xFFFF) {... */\n      jump(tag_150)\n    tag_147:\n        /* \"@chainlink/contracts/src/v0.8/vendor/CBORChainlink.sol\":1111:1121  0xFFFFFFFF */\n      0xffffffff\n        /* \"@chainlink/contracts/src/v0.8/vendor/CBORChainlink.sol\":1102:1107  value */\n      dup2\n        /* \"@chainlink/contracts/src/v0.8/vendor/CBORChainlink.sol\":1102:1121  value <= 0xFFFFFFFF */\n      0xffffffffffffffff\n      and\n      gt\n        /* \"@chainlink/contracts/src/v0.8/vendor/CBORChainlink.sol\":1098:1303  if (value <= 0xFFFFFFFF) {... */\n      tag_151\n      jumpi\n        /* \"@chainlink/contracts/src/v0.8/vendor/CBORChainlink.sol\":1131:1172  buf.appendUint8(uint8((major << 5) | 26)) */\n      tag_152\n        /* \"@chainlink/contracts/src/v0.8/vendor/CBORChainlink.sol\":1168:1170  26 */\n      0x1a\n        /* \"@chainlink/contracts/src/v0.8/vendor/CBORChainlink.sol\":1163:1164  5 */\n      0x05\n        /* \"@chainlink/contracts/src/v0.8/vendor/CBORChainlink.sol\":1154:1159  major */\n      dup5\n        /* \"@chainlink/contracts/src/v0.8/vendor/CBORChainlink.sol\":1154:1164  major << 5 */\n      0xff\n      and\n      swap1\n      shl\n        /* \"@chainlink/contracts/src/v0.8/vendor/CBORChainlink.sol\":1153:1170  (major << 5) | 26 */\n      or\n        /* \"@chainlink/contracts/src/v0.8/vendor/CBORChainlink.sol\":1131:1134  buf */\n      dup5\n        /* \"@chainlink/contracts/src/v0.8/vendor/CBORChainlink.sol\":1131:1146  buf.appendUint8 */\n      tag_140\n      swap1\n        /* \"@chainlink/contracts/src/v0.8/vendor/CBORChainlink.sol\":1131:1172  buf.appendUint8(uint8((major << 5) | 26)) */\n      swap2\n      swap1\n      0xffffffff\n      and\n      jump\t// in\n    tag_152:\n      pop\n        /* \"@chainlink/contracts/src/v0.8/vendor/CBORChainlink.sol\":1180:1203  buf.appendInt(value, 4) */\n      tag_153\n        /* \"@chainlink/contracts/src/v0.8/vendor/CBORChainlink.sol\":1194:1199  value */\n      dup2\n        /* \"@chainlink/contracts/src/v0.8/vendor/CBORChainlink.sol\":1180:1203  buf.appendInt(value, 4) */\n      0xffffffffffffffff\n      and\n        /* \"@chainlink/contracts/src/v0.8/vendor/CBORChainlink.sol\":1201:1202  4 */\n      0x04\n        /* \"@chainlink/contracts/src/v0.8/vendor/CBORChainlink.sol\":1180:1183  buf */\n      dup6\n        /* \"@chainlink/contracts/src/v0.8/vendor/CBORChainlink.sol\":1180:1193  buf.appendInt */\n      tag_145\n      swap1\n        /* \"@chainlink/contracts/src/v0.8/vendor/CBORChainlink.sol\":1180:1203  buf.appendInt(value, 4) */\n      swap3\n      swap2\n      swap1\n      0xffffffff\n      and\n      jump\t// in\n    tag_153:\n      pop\n        /* \"@chainlink/contracts/src/v0.8/vendor/CBORChainlink.sol\":1098:1303  if (value <= 0xFFFFFFFF) {... */\n      jump(tag_154)\n    tag_151:\n        /* \"@chainlink/contracts/src/v0.8/vendor/CBORChainlink.sol\":1224:1265  buf.appendUint8(uint8((major << 5) | 27)) */\n      tag_155\n        /* \"@chainlink/contracts/src/v0.8/vendor/CBORChainlink.sol\":1261:1263  27 */\n      0x1b\n        /* \"@chainlink/contracts/src/v0.8/vendor/CBORChainlink.sol\":1256:1257  5 */\n      0x05\n        /* \"@chainlink/contracts/src/v0.8/vendor/CBORChainlink.sol\":1247:1252  major */\n      dup5\n        /* \"@chainlink/contracts/src/v0.8/vendor/CBORChainlink.sol\":1247:1257  major << 5 */\n      0xff\n      and\n      swap1\n      shl\n        /* \"@chainlink/contracts/src/v0.8/vendor/CBORChainlink.sol\":1246:1263  (major << 5) | 27 */\n      or\n        /* \"@chainlink/contracts/src/v0.8/vendor/CBORChainlink.sol\":1224:1227  buf */\n      dup5\n        /* \"@chainlink/contracts/src/v0.8/vendor/CBORChainlink.sol\":1224:1239  buf.appendUint8 */\n      tag_140\n      swap1\n        /* \"@chainlink/contracts/src/v0.8/vendor/CBORChainlink.sol\":1224:1265  buf.appendUint8(uint8((major << 5) | 27)) */\n      swap2\n      swap1\n      0xffffffff\n      and\n      jump\t// in\n    tag_155:\n      pop\n        /* \"@chainlink/contracts/src/v0.8/vendor/CBORChainlink.sol\":1273:1296  buf.appendInt(value, 8) */\n      tag_156\n        /* \"@chainlink/contracts/src/v0.8/vendor/CBORChainlink.sol\":1287:1292  value */\n      dup2\n        /* \"@chainlink/contracts/src/v0.8/vendor/CBORChainlink.sol\":1273:1296  buf.appendInt(value, 8) */\n      0xffffffffffffffff\n      and\n        /* \"@chainlink/contracts/src/v0.8/vendor/CBORChainlink.sol\":1294:1295  8 */\n      0x08\n        /* \"@chainlink/contracts/src/v0.8/vendor/CBORChainlink.sol\":1273:1276  buf */\n      dup6\n        /* \"@chainlink/contracts/src/v0.8/vendor/CBORChainlink.sol\":1273:1286  buf.appendInt */\n      tag_145\n      swap1\n        /* \"@chainlink/contracts/src/v0.8/vendor/CBORChainlink.sol\":1273:1296  buf.appendInt(value, 8) */\n      swap3\n      swap2\n      swap1\n      0xffffffff\n      and\n      jump\t// in\n    tag_156:\n      pop\n        /* \"@chainlink/contracts/src/v0.8/vendor/CBORChainlink.sol\":1098:1303  if (value <= 0xFFFFFFFF) {... */\n    tag_154:\n        /* \"@chainlink/contracts/src/v0.8/vendor/CBORChainlink.sol\":984:1303  if (value <= 0xFFFF) {... */\n    tag_150:\n        /* \"@chainlink/contracts/src/v0.8/vendor/CBORChainlink.sol\":872:1303  if (value <= 0xFF) {... */\n    tag_146:\n        /* \"@chainlink/contracts/src/v0.8/vendor/CBORChainlink.sol\":791:1303  if(value <= 23) {... */\n    tag_141:\n        /* \"@chainlink/contracts/src/v0.8/vendor/CBORChainlink.sol\":682:1307  function encodeFixedNumeric(BufferChainlink.buffer memory buf, uint8 major, uint64 value) private pure {... */\n      pop\n      pop\n      pop\n      jump\t// out\n        /* \"@chainlink/contracts/src/v0.8/vendor/BufferChainlink.sol\":4692:4847  function append(buffer memory buf, bytes memory data) internal pure returns (buffer memory) {... */\n    tag_119:\n        /* \"@chainlink/contracts/src/v0.8/vendor/BufferChainlink.sol\":4769:4782  buffer memory */\n      tag_157\n      tag_128\n      jump\t// in\n    tag_157:\n        /* \"@chainlink/contracts/src/v0.8/vendor/BufferChainlink.sol\":4797:4842  write(buf, buf.buf.length, data, data.length) */\n      tag_159\n        /* \"@chainlink/contracts/src/v0.8/vendor/BufferChainlink.sol\":4803:4806  buf */\n      dup4\n        /* \"@chainlink/contracts/src/v0.8/vendor/BufferChainlink.sol\":4808:4811  buf */\n      dup5\n        /* \"@chainlink/contracts/src/v0.8/vendor/BufferChainlink.sol\":4808:4815  buf.buf */\n      0x00\n      add\n      mload\n        /* \"@chainlink/contracts/src/v0.8/vendor/BufferChainlink.sol\":4808:4822  buf.buf.length */\n      mload\n        /* \"@chainlink/contracts/src/v0.8/vendor/BufferChainlink.sol\":4824:4828  data */\n      dup5\n        /* \"@chainlink/contracts/src/v0.8/vendor/BufferChainlink.sol\":4830:4834  data */\n      dup6\n        /* \"@chainlink/contracts/src/v0.8/vendor/BufferChainlink.sol\":4830:4841  data.length */\n      mload\n        /* \"@chainlink/contracts/src/v0.8/vendor/BufferChainlink.sol\":4797:4802  write */\n      tag_160\n        /* \"@chainlink/contracts/src/v0.8/vendor/BufferChainlink.sol\":4797:4842  write(buf, buf.buf.length, data, data.length) */\n      jump\t// in\n    tag_159:\n        /* \"@chainlink/contracts/src/v0.8/vendor/BufferChainlink.sol\":4790:4842  return write(buf, buf.buf.length, data, data.length) */\n      swap1\n      pop\n        /* \"@chainlink/contracts/src/v0.8/vendor/BufferChainlink.sol\":4692:4847  function append(buffer memory buf, bytes memory data) internal pure returns (buffer memory) {... */\n      swap3\n      swap2\n      pop\n      pop\n      jump\t// out\n        /* \"@chainlink/contracts/src/v0.8/ChainlinkClient.sol\":6828:7280  function _rawRequest(... */\n    tag_126:\n        /* \"@chainlink/contracts/src/v0.8/ChainlinkClient.sol\":6970:6987  bytes32 requestId */\n      0x00\n        /* \"@chainlink/contracts/src/v0.8/ChainlinkClient.sol\":7034:7038  this */\n      address\n        /* \"@chainlink/contracts/src/v0.8/ChainlinkClient.sol\":7040:7045  nonce */\n      dup5\n        /* \"@chainlink/contracts/src/v0.8/ChainlinkClient.sol\":7017:7046  abi.encodePacked(this, nonce) */\n      add(0x20, mload(0x40))\n      tag_162\n      swap3\n      swap2\n      swap1\n      tag_163\n      jump\t// in\n    tag_162:\n      mload(0x40)\n      0x20\n      dup2\n      dup4\n      sub\n      sub\n      dup2\n      mstore\n      swap1\n      0x40\n      mstore\n        /* \"@chainlink/contracts/src/v0.8/ChainlinkClient.sol\":7007:7047  keccak256(abi.encodePacked(this, nonce)) */\n      dup1\n      mload\n      swap1\n      0x20\n      add\n      keccak256\n        /* \"@chainlink/contracts/src/v0.8/ChainlinkClient.sol\":6995:7047  requestId = keccak256(abi.encodePacked(this, nonce)) */\n      swap1\n      pop\n        /* \"@chainlink/contracts/src/v0.8/ChainlinkClient.sol\":7084:7097  oracleAddress */\n      dup5\n        /* \"@chainlink/contracts/src/v0.8/ChainlinkClient.sol\":7053:7070  s_pendingRequests */\n      0x05\n        /* \"@chainlink/contracts/src/v0.8/ChainlinkClient.sol\":7053:7081  s_pendingRequests[requestId] */\n      0x00\n        /* \"@chainlink/contracts/src/v0.8/ChainlinkClient.sol\":7071:7080  requestId */\n      dup4\n        /* \"@chainlink/contracts/src/v0.8/ChainlinkClient.sol\":7053:7081  s_pendingRequests[requestId] */\n      dup2\n      mstore\n      0x20\n      add\n      swap1\n      dup2\n      mstore\n      0x20\n      add\n      0x00\n      keccak256\n      0x00\n        /* \"@chainlink/contracts/src/v0.8/ChainlinkClient.sol\":7053:7097  s_pendingRequests[requestId] = oracleAddress */\n      0x0100\n      exp\n      dup2\n      sload\n      dup2\n      0xffffffffffffffffffffffffffffffffffffffff\n      mul\n      not\n      and\n      swap1\n      dup4\n      0xffffffffffffffffffffffffffffffffffffffff\n      and\n      mul\n      or\n      swap1\n      sstore\n      pop\n        /* \"@chainlink/contracts/src/v0.8/ChainlinkClient.sol\":7127:7136  requestId */\n      dup1\n        /* \"@chainlink/contracts/src/v0.8/ChainlinkClient.sol\":7108:7137  ChainlinkRequested(requestId) */\n      0xb5e6e01e79f91267dc17b4e6314d5d4d03593d2ceee0fbb452b750bd70ea5af9\n      mload(0x40)\n      mload(0x40)\n      dup1\n      swap2\n      sub\n      swap1\n      log2\n        /* \"@chainlink/contracts/src/v0.8/ChainlinkClient.sol\":7151:7157  s_link */\n      0x02\n      0x00\n      swap1\n      sload\n      swap1\n      0x0100\n      exp\n      swap1\n      div\n      0xffffffffffffffffffffffffffffffffffffffff\n      and\n        /* \"@chainlink/contracts/src/v0.8/ChainlinkClient.sol\":7151:7173  s_link.transferAndCall */\n      0xffffffffffffffffffffffffffffffffffffffff\n      and\n      0x4000aea0\n        /* \"@chainlink/contracts/src/v0.8/ChainlinkClient.sol\":7174:7187  oracleAddress */\n      dup7\n        /* \"@chainlink/contracts/src/v0.8/ChainlinkClient.sol\":7189:7196  payment */\n      dup6\n        /* \"@chainlink/contracts/src/v0.8/ChainlinkClient.sol\":7198:7212  encodedRequest */\n      dup6\n        /* \"@chainlink/contracts/src/v0.8/ChainlinkClient.sol\":7151:7213  s_link.transferAndCall(oracleAddress, payment, encodedRequest) */\n      mload(0x40)\n      dup5\n      0xffffffff\n      and\n      0xe0\n      shl\n      dup2\n      mstore\n      0x04\n      add\n      tag_164\n      swap4\n      swap3\n      swap2\n      swap1\n      tag_165\n      jump\t// in\n    tag_164:\n      0x20\n      mload(0x40)\n      dup1\n      dup4\n      sub\n      dup2\n      0x00\n      dup8\n      dup1\n      extcodesize\n      iszero\n      dup1\n      iszero\n      tag_166\n      jumpi\n      0x00\n      dup1\n      revert\n    tag_166:\n      pop\n      gas\n      call\n      iszero\n      dup1\n      iszero\n      tag_168\n      jumpi\n      returndatasize\n      0x00\n      dup1\n      returndatacopy\n      revert(0x00, returndatasize)\n    tag_168:\n      pop\n      pop\n      pop\n      pop\n      mload(0x40)\n      returndatasize\n      not(0x1f)\n      0x1f\n      dup3\n      add\n      and\n      dup3\n      add\n      dup1\n      0x40\n      mstore\n      pop\n      dup2\n      add\n      swap1\n      tag_169\n      swap2\n      swap1\n      tag_74\n      jump\t// in\n    tag_169:\n        /* \"@chainlink/contracts/src/v0.8/ChainlinkClient.sol\":7143:7253  require(s_link.transferAndCall(oracleAddress, payment, encodedRequest), \"unable to transferAndCall to oracle\") */\n      tag_170\n      jumpi\n      mload(0x40)\n      0x08c379a000000000000000000000000000000000000000000000000000000000\n      dup2\n      mstore\n      0x04\n      add\n      tag_171\n      swap1\n      tag_172\n      jump\t// in\n    tag_171:\n      mload(0x40)\n      dup1\n      swap2\n      sub\n      swap1\n      revert\n    tag_170:\n        /* \"@chainlink/contracts/src/v0.8/ChainlinkClient.sol\":6828:7280  function _rawRequest(... */\n      swap5\n      swap4\n      pop\n      pop\n      pop\n      pop\n      jump\t// out\n        /* \"@chainlink/contracts/src/v0.8/vendor/BufferChainlink.sol\":6040:6185  function appendUint8(buffer memory buf, uint8 data) internal pure returns (buffer memory) {... */\n    tag_140:\n        /* \"@chainlink/contracts/src/v0.8/vendor/BufferChainlink.sol\":6115:6128  buffer memory */\n      tag_173\n      tag_128\n      jump\t// in\n    tag_173:\n        /* \"@chainlink/contracts/src/v0.8/vendor/BufferChainlink.sol\":6143:6180  writeUint8(buf, buf.buf.length, data) */\n      tag_175\n        /* \"@chainlink/contracts/src/v0.8/vendor/BufferChainlink.sol\":6154:6157  buf */\n      dup4\n        /* \"@chainlink/contracts/src/v0.8/vendor/BufferChainlink.sol\":6159:6162  buf */\n      dup5\n        /* \"@chainlink/contracts/src/v0.8/vendor/BufferChainlink.sol\":6159:6166  buf.buf */\n      0x00\n      add\n      mload\n        /* \"@chainlink/contracts/src/v0.8/vendor/BufferChainlink.sol\":6159:6173  buf.buf.length */\n      mload\n        /* \"@chainlink/contracts/src/v0.8/vendor/BufferChainlink.sol\":6175:6179  data */\n      dup5\n        /* \"@chainlink/contracts/src/v0.8/vendor/BufferChainlink.sol\":6143:6153  writeUint8 */\n      tag_176\n        /* \"@chainlink/contracts/src/v0.8/vendor/BufferChainlink.sol\":6143:6180  writeUint8(buf, buf.buf.length, data) */\n      jump\t// in\n    tag_175:\n        /* \"@chainlink/contracts/src/v0.8/vendor/BufferChainlink.sol\":6136:6180  return writeUint8(buf, buf.buf.length, data) */\n      swap1\n      pop\n        /* \"@chainlink/contracts/src/v0.8/vendor/BufferChainlink.sol\":6040:6185  function appendUint8(buffer memory buf, uint8 data) internal pure returns (buffer memory) {... */\n      swap3\n      swap2\n      pop\n      pop\n      jump\t// out\n        /* \"@chainlink/contracts/src/v0.8/vendor/BufferChainlink.sol\":9894:10071  function appendInt(... */\n    tag_145:\n        /* \"@chainlink/contracts/src/v0.8/vendor/BufferChainlink.sol\":9998:10011  buffer memory */\n      tag_177\n      tag_128\n      jump\t// in\n    tag_177:\n        /* \"@chainlink/contracts/src/v0.8/vendor/BufferChainlink.sol\":10026:10066  writeInt(buf, buf.buf.length, data, len) */\n      tag_179\n        /* \"@chainlink/contracts/src/v0.8/vendor/BufferChainlink.sol\":10035:10038  buf */\n      dup5\n        /* \"@chainlink/contracts/src/v0.8/vendor/BufferChainlink.sol\":10040:10043  buf */\n      dup6\n        /* \"@chainlink/contracts/src/v0.8/vendor/BufferChainlink.sol\":10040:10047  buf.buf */\n      0x00\n      add\n      mload\n        /* \"@chainlink/contracts/src/v0.8/vendor/BufferChainlink.sol\":10040:10054  buf.buf.length */\n      mload\n        /* \"@chainlink/contracts/src/v0.8/vendor/BufferChainlink.sol\":10056:10060  data */\n      dup6\n        /* \"@chainlink/contracts/src/v0.8/vendor/BufferChainlink.sol\":10062:10065  len */\n      dup6\n        /* \"@chainlink/contracts/src/v0.8/vendor/BufferChainlink.sol\":10026:10034  writeInt */\n      tag_180\n        /* \"@chainlink/contracts/src/v0.8/vendor/BufferChainlink.sol\":10026:10066  writeInt(buf, buf.buf.length, data, len) */\n      jump\t// in\n    tag_179:\n        /* \"@chainlink/contracts/src/v0.8/vendor/BufferChainlink.sol\":10019:10066  return writeInt(buf, buf.buf.length, data, len) */\n      swap1\n      pop\n        /* \"@chainlink/contracts/src/v0.8/vendor/BufferChainlink.sol\":9894:10071  function appendInt(... */\n      swap4\n      swap3\n      pop\n      pop\n      pop\n      jump\t// out\n        /* \"@chainlink/contracts/src/v0.8/vendor/BufferChainlink.sol\":2745:3955  function write(... */\n    tag_160:\n        /* \"@chainlink/contracts/src/v0.8/vendor/BufferChainlink.sol\":2867:2880  buffer memory */\n      tag_181\n      tag_128\n      jump\t// in\n    tag_181:\n        /* \"@chainlink/contracts/src/v0.8/vendor/BufferChainlink.sol\":2903:2907  data */\n      dup3\n        /* \"@chainlink/contracts/src/v0.8/vendor/BufferChainlink.sol\":2903:2914  data.length */\n      mload\n        /* \"@chainlink/contracts/src/v0.8/vendor/BufferChainlink.sol\":2896:2899  len */\n      dup3\n        /* \"@chainlink/contracts/src/v0.8/vendor/BufferChainlink.sol\":2896:2914  len <= data.length */\n      gt\n      iszero\n        /* \"@chainlink/contracts/src/v0.8/vendor/BufferChainlink.sol\":2888:2915  require(len <= data.length) */\n      tag_183\n      jumpi\n      0x00\n      dup1\n      revert\n    tag_183:\n        /* \"@chainlink/contracts/src/v0.8/vendor/BufferChainlink.sol\":2938:2941  buf */\n      dup5\n        /* \"@chainlink/contracts/src/v0.8/vendor/BufferChainlink.sol\":2938:2950  buf.capacity */\n      0x20\n      add\n      mload\n        /* \"@chainlink/contracts/src/v0.8/vendor/BufferChainlink.sol\":2932:2935  len */\n      dup3\n        /* \"@chainlink/contracts/src/v0.8/vendor/BufferChainlink.sol\":2926:2929  off */\n      dup6\n        /* \"@chainlink/contracts/src/v0.8/vendor/BufferChainlink.sol\":2926:2935  off + len */\n      tag_184\n      swap2\n      swap1\n      tag_122\n      jump\t// in\n    tag_184:\n        /* \"@chainlink/contracts/src/v0.8/vendor/BufferChainlink.sol\":2926:2950  off + len > buf.capacity */\n      gt\n        /* \"@chainlink/contracts/src/v0.8/vendor/BufferChainlink.sol\":2922:3012  if (off + len > buf.capacity) {... */\n      iszero\n      tag_185\n      jumpi\n        /* \"@chainlink/contracts/src/v0.8/vendor/BufferChainlink.sol\":2960:3005  resize(buf, max(buf.capacity, len + off) * 2) */\n      tag_186\n        /* \"@chainlink/contracts/src/v0.8/vendor/BufferChainlink.sol\":2967:2970  buf */\n      dup6\n        /* \"@chainlink/contracts/src/v0.8/vendor/BufferChainlink.sol\":3003:3004  2 */\n      0x02\n        /* \"@chainlink/contracts/src/v0.8/vendor/BufferChainlink.sol\":2972:3000  max(buf.capacity, len + off) */\n      tag_187\n        /* \"@chainlink/contracts/src/v0.8/vendor/BufferChainlink.sol\":2976:2979  buf */\n      dup9\n        /* \"@chainlink/contracts/src/v0.8/vendor/BufferChainlink.sol\":2976:2988  buf.capacity */\n      0x20\n      add\n      mload\n        /* \"@chainlink/contracts/src/v0.8/vendor/BufferChainlink.sol\":2996:2999  off */\n      dup9\n        /* \"@chainlink/contracts/src/v0.8/vendor/BufferChainlink.sol\":2990:2993  len */\n      dup8\n        /* \"@chainlink/contracts/src/v0.8/vendor/BufferChainlink.sol\":2990:2999  len + off */\n      tag_188\n      swap2\n      swap1\n      tag_122\n      jump\t// in\n    tag_188:\n        /* \"@chainlink/contracts/src/v0.8/vendor/BufferChainlink.sol\":2972:2975  max */\n      tag_189\n        /* \"@chainlink/contracts/src/v0.8/vendor/BufferChainlink.sol\":2972:3000  max(buf.capacity, len + off) */\n      jump\t// in\n    tag_187:\n        /* \"@chainlink/contracts/src/v0.8/vendor/BufferChainlink.sol\":2972:3004  max(buf.capacity, len + off) * 2 */\n      tag_190\n      swap2\n      swap1\n      tag_191\n      jump\t// in\n    tag_190:\n        /* \"@chainlink/contracts/src/v0.8/vendor/BufferChainlink.sol\":2960:2966  resize */\n      tag_192\n        /* \"@chainlink/contracts/src/v0.8/vendor/BufferChainlink.sol\":2960:3005  resize(buf, max(buf.capacity, len + off) * 2) */\n      jump\t// in\n    tag_186:\n        /* \"@chainlink/contracts/src/v0.8/vendor/BufferChainlink.sol\":2922:3012  if (off + len > buf.capacity) {... */\n    tag_185:\n        /* \"@chainlink/contracts/src/v0.8/vendor/BufferChainlink.sol\":3018:3030  uint256 dest */\n      0x00\n        /* \"@chainlink/contracts/src/v0.8/vendor/BufferChainlink.sol\":3036:3047  uint256 src */\n      dup1\n        /* \"@chainlink/contracts/src/v0.8/vendor/BufferChainlink.sol\":3133:3136  buf */\n      dup7\n        /* \"@chainlink/contracts/src/v0.8/vendor/BufferChainlink.sol\":3127:3137  mload(buf) */\n      mload\n        /* \"@chainlink/contracts/src/v0.8/vendor/BufferChainlink.sol\":3204:3210  bufptr */\n      dup1\n        /* \"@chainlink/contracts/src/v0.8/vendor/BufferChainlink.sol\":3198:3211  mload(bufptr) */\n      mload\n        /* \"@chainlink/contracts/src/v0.8/vendor/BufferChainlink.sol\":3320:3323  off */\n      dup8\n        /* \"@chainlink/contracts/src/v0.8/vendor/BufferChainlink.sol\":3315:3317  32 */\n      0x20\n        /* \"@chainlink/contracts/src/v0.8/vendor/BufferChainlink.sol\":3307:3313  bufptr */\n      dup4\n        /* \"@chainlink/contracts/src/v0.8/vendor/BufferChainlink.sol\":3303:3318  add(bufptr, 32) */\n      add\n        /* \"@chainlink/contracts/src/v0.8/vendor/BufferChainlink.sol\":3299:3324  add(add(bufptr, 32), off) */\n      add\n        /* \"@chainlink/contracts/src/v0.8/vendor/BufferChainlink.sol\":3291:3324  dest := add(add(bufptr, 32), off) */\n      swap4\n      pop\n        /* \"@chainlink/contracts/src/v0.8/vendor/BufferChainlink.sol\":3404:3410  buflen */\n      dup1\n        /* \"@chainlink/contracts/src/v0.8/vendor/BufferChainlink.sol\":3398:3401  off */\n      dup9\n        /* \"@chainlink/contracts/src/v0.8/vendor/BufferChainlink.sol\":3393:3396  len */\n      dup8\n        /* \"@chainlink/contracts/src/v0.8/vendor/BufferChainlink.sol\":3389:3402  add(len, off) */\n      add\n        /* \"@chainlink/contracts/src/v0.8/vendor/BufferChainlink.sol\":3386:3411  gt(add(len, off), buflen) */\n      gt\n        /* \"@chainlink/contracts/src/v0.8/vendor/BufferChainlink.sol\":3383:3459  if gt(add(len, off), buflen) {... */\n      iszero\n      tag_193\n      jumpi\n        /* \"@chainlink/contracts/src/v0.8/vendor/BufferChainlink.sol\":3446:3449  off */\n      dup8\n        /* \"@chainlink/contracts/src/v0.8/vendor/BufferChainlink.sol\":3441:3444  len */\n      dup7\n        /* \"@chainlink/contracts/src/v0.8/vendor/BufferChainlink.sol\":3437:3450  add(len, off) */\n      add\n        /* \"@chainlink/contracts/src/v0.8/vendor/BufferChainlink.sol\":3429:3435  bufptr */\n      dup3\n        /* \"@chainlink/contracts/src/v0.8/vendor/BufferChainlink.sol\":3422:3451  mstore(bufptr, add(len, off)) */\n      mstore\n        /* \"@chainlink/contracts/src/v0.8/vendor/BufferChainlink.sol\":3383:3459  if gt(add(len, off), buflen) {... */\n    tag_193:\n        /* \"@chainlink/contracts/src/v0.8/vendor/BufferChainlink.sol\":3483:3485  32 */\n      0x20\n        /* \"@chainlink/contracts/src/v0.8/vendor/BufferChainlink.sol\":3477:3481  data */\n      dup8\n        /* \"@chainlink/contracts/src/v0.8/vendor/BufferChainlink.sol\":3473:3486  add(data, 32) */\n      add\n        /* \"@chainlink/contracts/src/v0.8/vendor/BufferChainlink.sol\":3466:3486  src := add(data, 32) */\n      swap3\n      pop\n        /* \"@chainlink/contracts/src/v0.8/vendor/BufferChainlink.sol\":3062:3492  {... */\n      pop\n      pop\n        /* \"@chainlink/contracts/src/v0.8/vendor/BufferChainlink.sol\":3544:3673  for (; len >= 32; len -= 32) {... */\n    tag_194:\n        /* \"@chainlink/contracts/src/v0.8/vendor/BufferChainlink.sol\":3558:3560  32 */\n      0x20\n        /* \"@chainlink/contracts/src/v0.8/vendor/BufferChainlink.sol\":3551:3554  len */\n      dup5\n        /* \"@chainlink/contracts/src/v0.8/vendor/BufferChainlink.sol\":3551:3560  len >= 32 */\n      lt\n        /* \"@chainlink/contracts/src/v0.8/vendor/BufferChainlink.sol\":3544:3673  for (; len >= 32; len -= 32) {... */\n      tag_195\n      jumpi\n        /* \"@chainlink/contracts/src/v0.8/vendor/BufferChainlink.sol\":3619:3622  src */\n      dup1\n        /* \"@chainlink/contracts/src/v0.8/vendor/BufferChainlink.sol\":3613:3623  mload(src) */\n      mload\n        /* \"@chainlink/contracts/src/v0.8/vendor/BufferChainlink.sol\":3607:3611  dest */\n      dup3\n        /* \"@chainlink/contracts/src/v0.8/vendor/BufferChainlink.sol\":3600:3624  mstore(dest, mload(src)) */\n      mstore\n        /* \"@chainlink/contracts/src/v0.8/vendor/BufferChainlink.sol\":3647:3649  32 */\n      0x20\n        /* \"@chainlink/contracts/src/v0.8/vendor/BufferChainlink.sol\":3639:3649  dest += 32 */\n      dup3\n      tag_197\n      swap2\n      swap1\n      tag_122\n      jump\t// in\n    tag_197:\n      swap2\n      pop\n        /* \"@chainlink/contracts/src/v0.8/vendor/BufferChainlink.sol\":3664:3666  32 */\n      0x20\n        /* \"@chainlink/contracts/src/v0.8/vendor/BufferChainlink.sol\":3657:3666  src += 32 */\n      dup2\n      tag_198\n      swap2\n      swap1\n      tag_122\n      jump\t// in\n    tag_198:\n      swap1\n      pop\n        /* \"@chainlink/contracts/src/v0.8/vendor/BufferChainlink.sol\":3569:3571  32 */\n      0x20\n        /* \"@chainlink/contracts/src/v0.8/vendor/BufferChainlink.sol\":3562:3571  len -= 32 */\n      dup5\n      tag_199\n      swap2\n      swap1\n      tag_135\n      jump\t// in\n    tag_199:\n      swap4\n      pop\n        /* \"@chainlink/contracts/src/v0.8/vendor/BufferChainlink.sol\":3544:3673  for (; len >= 32; len -= 32) {... */\n      jump(tag_194)\n    tag_195:\n        /* \"@chainlink/contracts/src/v0.8/vendor/BufferChainlink.sol\":3725:3737  uint256 mask */\n      0x00\n        /* \"@chainlink/contracts/src/v0.8/vendor/BufferChainlink.sol\":3760:3761  1 */\n      0x01\n        /* \"@chainlink/contracts/src/v0.8/vendor/BufferChainlink.sol\":3752:3755  len */\n      dup6\n        /* \"@chainlink/contracts/src/v0.8/vendor/BufferChainlink.sol\":3747:3749  32 */\n      0x20\n        /* \"@chainlink/contracts/src/v0.8/vendor/BufferChainlink.sol\":3747:3755  32 - len */\n      sub\n        /* \"@chainlink/contracts/src/v0.8/vendor/BufferChainlink.sol\":3741:3744  256 */\n      0x0100\n        /* \"@chainlink/contracts/src/v0.8/vendor/BufferChainlink.sol\":3741:3756  256**(32 - len) */\n      exp\n        /* \"@chainlink/contracts/src/v0.8/vendor/BufferChainlink.sol\":3740:3761  (256**(32 - len)) - 1 */\n      sub\n        /* \"@chainlink/contracts/src/v0.8/vendor/BufferChainlink.sol\":3725:3761  uint256 mask = (256**(32 - len)) - 1 */\n      swap1\n      pop\n        /* \"@chainlink/contracts/src/v0.8/vendor/BufferChainlink.sol\":3823:3827  mask */\n      dup1\n        /* \"@chainlink/contracts/src/v0.8/vendor/BufferChainlink.sol\":3819:3828  not(mask) */\n      not\n        /* \"@chainlink/contracts/src/v0.8/vendor/BufferChainlink.sol\":3813:3816  src */\n      dup3\n        /* \"@chainlink/contracts/src/v0.8/vendor/BufferChainlink.sol\":3807:3817  mload(src) */\n      mload\n        /* \"@chainlink/contracts/src/v0.8/vendor/BufferChainlink.sol\":3803:3829  and(mload(src), not(mask)) */\n      and\n        /* \"@chainlink/contracts/src/v0.8/vendor/BufferChainlink.sol\":3871:3875  mask */\n      dup2\n        /* \"@chainlink/contracts/src/v0.8/vendor/BufferChainlink.sol\":3864:3868  dest */\n      dup5\n        /* \"@chainlink/contracts/src/v0.8/vendor/BufferChainlink.sol\":3858:3869  mload(dest) */\n      mload\n        /* \"@chainlink/contracts/src/v0.8/vendor/BufferChainlink.sol\":3854:3876  and(mload(dest), mask) */\n      and\n        /* \"@chainlink/contracts/src/v0.8/vendor/BufferChainlink.sol\":3911:3918  srcpart */\n      dup2\n        /* \"@chainlink/contracts/src/v0.8/vendor/BufferChainlink.sol\":3901:3909  destpart */\n      dup2\n        /* \"@chainlink/contracts/src/v0.8/vendor/BufferChainlink.sol\":3898:3919  or(destpart, srcpart) */\n      or\n        /* \"@chainlink/contracts/src/v0.8/vendor/BufferChainlink.sol\":3892:3896  dest */\n      dup6\n        /* \"@chainlink/contracts/src/v0.8/vendor/BufferChainlink.sol\":3885:3920  mstore(dest, or(destpart, srcpart)) */\n      mstore\n        /* \"@chainlink/contracts/src/v0.8/vendor/BufferChainlink.sol\":3778:3928  {... */\n      pop\n      pop\n      pop\n        /* \"@chainlink/contracts/src/v0.8/vendor/BufferChainlink.sol\":3947:3950  buf */\n      dup7\n        /* \"@chainlink/contracts/src/v0.8/vendor/BufferChainlink.sol\":3940:3950  return buf */\n      swap3\n      pop\n      pop\n      pop\n        /* \"@chainlink/contracts/src/v0.8/vendor/BufferChainlink.sol\":2745:3955  function write(... */\n      swap5\n      swap4\n      pop\n      pop\n      pop\n      pop\n      jump\t// out\n        /* \"@chainlink/contracts/src/v0.8/vendor/BufferChainlink.sol\":5148:5787  function writeUint8(... */\n    tag_176:\n        /* \"@chainlink/contracts/src/v0.8/vendor/BufferChainlink.sol\":5251:5264  buffer memory */\n      tag_200\n      tag_128\n      jump\t// in\n    tag_200:\n        /* \"@chainlink/contracts/src/v0.8/vendor/BufferChainlink.sol\":5283:5286  buf */\n      dup4\n        /* \"@chainlink/contracts/src/v0.8/vendor/BufferChainlink.sol\":5283:5295  buf.capacity */\n      0x20\n      add\n      mload\n        /* \"@chainlink/contracts/src/v0.8/vendor/BufferChainlink.sol\":5276:5279  off */\n      dup4\n        /* \"@chainlink/contracts/src/v0.8/vendor/BufferChainlink.sol\":5276:5295  off >= buf.capacity */\n      lt\n        /* \"@chainlink/contracts/src/v0.8/vendor/BufferChainlink.sol\":5272:5341  if (off >= buf.capacity) {... */\n      tag_202\n      jumpi\n        /* \"@chainlink/contracts/src/v0.8/vendor/BufferChainlink.sol\":5305:5334  resize(buf, buf.capacity * 2) */\n      tag_203\n        /* \"@chainlink/contracts/src/v0.8/vendor/BufferChainlink.sol\":5312:5315  buf */\n      dup5\n        /* \"@chainlink/contracts/src/v0.8/vendor/BufferChainlink.sol\":5332:5333  2 */\n      0x02\n        /* \"@chainlink/contracts/src/v0.8/vendor/BufferChainlink.sol\":5317:5320  buf */\n      dup7\n        /* \"@chainlink/contracts/src/v0.8/vendor/BufferChainlink.sol\":5317:5329  buf.capacity */\n      0x20\n      add\n      mload\n        /* \"@chainlink/contracts/src/v0.8/vendor/BufferChainlink.sol\":5317:5333  buf.capacity * 2 */\n      tag_204\n      swap2\n      swap1\n      tag_191\n      jump\t// in\n    tag_204:\n        /* \"@chainlink/contracts/src/v0.8/vendor/BufferChainlink.sol\":5305:5311  resize */\n      tag_192\n        /* \"@chainlink/contracts/src/v0.8/vendor/BufferChainlink.sol\":5305:5334  resize(buf, buf.capacity * 2) */\n      jump\t// in\n    tag_203:\n        /* \"@chainlink/contracts/src/v0.8/vendor/BufferChainlink.sol\":5272:5341  if (off >= buf.capacity) {... */\n    tag_202:\n        /* \"@chainlink/contracts/src/v0.8/vendor/BufferChainlink.sol\":5427:5430  buf */\n      dup4\n        /* \"@chainlink/contracts/src/v0.8/vendor/BufferChainlink.sol\":5421:5431  mload(buf) */\n      mload\n        /* \"@chainlink/contracts/src/v0.8/vendor/BufferChainlink.sol\":5498:5504  bufptr */\n      dup1\n        /* \"@chainlink/contracts/src/v0.8/vendor/BufferChainlink.sol\":5492:5505  mload(bufptr) */\n      mload\n        /* \"@chainlink/contracts/src/v0.8/vendor/BufferChainlink.sol\":5610:5612  32 */\n      0x20\n        /* \"@chainlink/contracts/src/v0.8/vendor/BufferChainlink.sol\":5604:5607  off */\n      dup6\n        /* \"@chainlink/contracts/src/v0.8/vendor/BufferChainlink.sol\":5596:5602  bufptr */\n      dup4\n        /* \"@chainlink/contracts/src/v0.8/vendor/BufferChainlink.sol\":5592:5608  add(bufptr, off) */\n      add\n        /* \"@chainlink/contracts/src/v0.8/vendor/BufferChainlink.sol\":5588:5613  add(add(bufptr, off), 32) */\n      add\n        /* \"@chainlink/contracts/src/v0.8/vendor/BufferChainlink.sol\":5634:5638  data */\n      dup5\n        /* \"@chainlink/contracts/src/v0.8/vendor/BufferChainlink.sol\":5628:5632  dest */\n      dup2\n        /* \"@chainlink/contracts/src/v0.8/vendor/BufferChainlink.sol\":5620:5639  mstore8(dest, data) */\n      mstore8\n        /* \"@chainlink/contracts/src/v0.8/vendor/BufferChainlink.sol\":5705:5711  buflen */\n      dup2\n        /* \"@chainlink/contracts/src/v0.8/vendor/BufferChainlink.sol\":5700:5703  off */\n      dup7\n        /* \"@chainlink/contracts/src/v0.8/vendor/BufferChainlink.sol\":5697:5712  eq(off, buflen) */\n      eq\n        /* \"@chainlink/contracts/src/v0.8/vendor/BufferChainlink.sol\":5694:5761  if eq(off, buflen) {... */\n      iszero\n      tag_205\n      jumpi\n        /* \"@chainlink/contracts/src/v0.8/vendor/BufferChainlink.sol\":5750:5751  1 */\n      0x01\n        /* \"@chainlink/contracts/src/v0.8/vendor/BufferChainlink.sol\":5742:5748  buflen */\n      dup3\n        /* \"@chainlink/contracts/src/v0.8/vendor/BufferChainlink.sol\":5738:5752  add(buflen, 1) */\n      add\n        /* \"@chainlink/contracts/src/v0.8/vendor/BufferChainlink.sol\":5730:5736  bufptr */\n      dup4\n        /* \"@chainlink/contracts/src/v0.8/vendor/BufferChainlink.sol\":5723:5753  mstore(bufptr, add(buflen, 1)) */\n      mstore\n        /* \"@chainlink/contracts/src/v0.8/vendor/BufferChainlink.sol\":5694:5761  if eq(off, buflen) {... */\n    tag_205:\n        /* \"@chainlink/contracts/src/v0.8/vendor/BufferChainlink.sol\":5356:5767  {... */\n      pop\n      pop\n      pop\n        /* \"@chainlink/contracts/src/v0.8/vendor/BufferChainlink.sol\":5779:5782  buf */\n      dup4\n        /* \"@chainlink/contracts/src/v0.8/vendor/BufferChainlink.sol\":5772:5782  return buf */\n      swap1\n      pop\n        /* \"@chainlink/contracts/src/v0.8/vendor/BufferChainlink.sol\":5148:5787  function writeUint8(... */\n      swap4\n      swap3\n      pop\n      pop\n      pop\n      jump\t// out\n        /* \"@chainlink/contracts/src/v0.8/vendor/BufferChainlink.sol\":8974:9649  function writeInt(... */\n    tag_180:\n        /* \"@chainlink/contracts/src/v0.8/vendor/BufferChainlink.sol\":9093:9106  buffer memory */\n      tag_206\n      tag_128\n      jump\t// in\n    tag_206:\n        /* \"@chainlink/contracts/src/v0.8/vendor/BufferChainlink.sol\":9130:9133  buf */\n      dup5\n        /* \"@chainlink/contracts/src/v0.8/vendor/BufferChainlink.sol\":9130:9142  buf.capacity */\n      0x20\n      add\n      mload\n        /* \"@chainlink/contracts/src/v0.8/vendor/BufferChainlink.sol\":9124:9127  off */\n      dup5\n        /* \"@chainlink/contracts/src/v0.8/vendor/BufferChainlink.sol\":9118:9121  len */\n      dup4\n        /* \"@chainlink/contracts/src/v0.8/vendor/BufferChainlink.sol\":9118:9127  len + off */\n      tag_208\n      swap2\n      swap1\n      tag_122\n      jump\t// in\n    tag_208:\n        /* \"@chainlink/contracts/src/v0.8/vendor/BufferChainlink.sol\":9118:9142  len + off > buf.capacity */\n      gt\n        /* \"@chainlink/contracts/src/v0.8/vendor/BufferChainlink.sol\":9114:9187  if (len + off > buf.capacity) {... */\n      iszero\n      tag_209\n      jumpi\n        /* \"@chainlink/contracts/src/v0.8/vendor/BufferChainlink.sol\":9152:9180  resize(buf, (len + off) * 2) */\n      tag_210\n        /* \"@chainlink/contracts/src/v0.8/vendor/BufferChainlink.sol\":9159:9162  buf */\n      dup6\n        /* \"@chainlink/contracts/src/v0.8/vendor/BufferChainlink.sol\":9178:9179  2 */\n      0x02\n        /* \"@chainlink/contracts/src/v0.8/vendor/BufferChainlink.sol\":9171:9174  off */\n      dup7\n        /* \"@chainlink/contracts/src/v0.8/vendor/BufferChainlink.sol\":9165:9168  len */\n      dup6\n        /* \"@chainlink/contracts/src/v0.8/vendor/BufferChainlink.sol\":9165:9174  len + off */\n      tag_211\n      swap2\n      swap1\n      tag_122\n      jump\t// in\n    tag_211:\n        /* \"@chainlink/contracts/src/v0.8/vendor/BufferChainlink.sol\":9164:9179  (len + off) * 2 */\n      tag_212\n      swap2\n      swap1\n      tag_191\n      jump\t// in\n    tag_212:\n        /* \"@chainlink/contracts/src/v0.8/vendor/BufferChainlink.sol\":9152:9158  resize */\n      tag_192\n        /* \"@chainlink/contracts/src/v0.8/vendor/BufferChainlink.sol\":9152:9180  resize(buf, (len + off) * 2) */\n      jump\t// in\n    tag_210:\n        /* \"@chainlink/contracts/src/v0.8/vendor/BufferChainlink.sol\":9114:9187  if (len + off > buf.capacity) {... */\n    tag_209:\n        /* \"@chainlink/contracts/src/v0.8/vendor/BufferChainlink.sol\":9193:9205  uint256 mask */\n      0x00\n        /* \"@chainlink/contracts/src/v0.8/vendor/BufferChainlink.sol\":9221:9222  1 */\n      0x01\n        /* \"@chainlink/contracts/src/v0.8/vendor/BufferChainlink.sol\":9214:9217  len */\n      dup4\n        /* \"@chainlink/contracts/src/v0.8/vendor/BufferChainlink.sol\":9209:9212  256 */\n      0x0100\n        /* \"@chainlink/contracts/src/v0.8/vendor/BufferChainlink.sol\":9209:9217  256**len */\n      tag_213\n      swap2\n      swap1\n      tag_214\n      jump\t// in\n    tag_213:\n        /* \"@chainlink/contracts/src/v0.8/vendor/BufferChainlink.sol\":9208:9222  (256**len) - 1 */\n      tag_215\n      swap2\n      swap1\n      tag_135\n      jump\t// in\n    tag_215:\n        /* \"@chainlink/contracts/src/v0.8/vendor/BufferChainlink.sol\":9193:9222  uint256 mask = (256**len) - 1 */\n      swap1\n      pop\n        /* \"@chainlink/contracts/src/v0.8/vendor/BufferChainlink.sol\":9308:9311  buf */\n      dup6\n        /* \"@chainlink/contracts/src/v0.8/vendor/BufferChainlink.sol\":9302:9312  mload(buf) */\n      mload\n        /* \"@chainlink/contracts/src/v0.8/vendor/BufferChainlink.sol\":9423:9426  len */\n      dup4\n        /* \"@chainlink/contracts/src/v0.8/vendor/BufferChainlink.sol\":9417:9420  off */\n      dup7\n        /* \"@chainlink/contracts/src/v0.8/vendor/BufferChainlink.sol\":9409:9415  bufptr */\n      dup3\n        /* \"@chainlink/contracts/src/v0.8/vendor/BufferChainlink.sol\":9405:9421  add(bufptr, off) */\n      add\n        /* \"@chainlink/contracts/src/v0.8/vendor/BufferChainlink.sol\":9401:9427  add(add(bufptr, off), len) */\n      add\n        /* \"@chainlink/contracts/src/v0.8/vendor/BufferChainlink.sol\":9479:9483  data */\n      dup6\n        /* \"@chainlink/contracts/src/v0.8/vendor/BufferChainlink.sol\":9471:9475  mask */\n      dup4\n        /* \"@chainlink/contracts/src/v0.8/vendor/BufferChainlink.sol\":9467:9476  not(mask) */\n      not\n        /* \"@chainlink/contracts/src/v0.8/vendor/BufferChainlink.sol\":9460:9464  dest */\n      dup3\n        /* \"@chainlink/contracts/src/v0.8/vendor/BufferChainlink.sol\":9454:9465  mload(dest) */\n      mload\n        /* \"@chainlink/contracts/src/v0.8/vendor/BufferChainlink.sol\":9450:9477  and(mload(dest), not(mask)) */\n      and\n        /* \"@chainlink/contracts/src/v0.8/vendor/BufferChainlink.sol\":9447:9484  or(and(mload(dest), not(mask)), data) */\n      or\n        /* \"@chainlink/contracts/src/v0.8/vendor/BufferChainlink.sol\":9441:9445  dest */\n      dup2\n        /* \"@chainlink/contracts/src/v0.8/vendor/BufferChainlink.sol\":9434:9485  mstore(dest, or(and(mload(dest), not(mask)), data)) */\n      mstore\n        /* \"@chainlink/contracts/src/v0.8/vendor/BufferChainlink.sol\":9567:9573  bufptr */\n      dup2\n        /* \"@chainlink/contracts/src/v0.8/vendor/BufferChainlink.sol\":9561:9574  mload(bufptr) */\n      mload\n        /* \"@chainlink/contracts/src/v0.8/vendor/BufferChainlink.sol\":9555:9558  len */\n      dup6\n        /* \"@chainlink/contracts/src/v0.8/vendor/BufferChainlink.sol\":9550:9553  off */\n      dup9\n        /* \"@chainlink/contracts/src/v0.8/vendor/BufferChainlink.sol\":9546:9559  add(off, len) */\n      add\n        /* \"@chainlink/contracts/src/v0.8/vendor/BufferChainlink.sol\":9543:9575  gt(add(off, len), mload(bufptr)) */\n      gt\n        /* \"@chainlink/contracts/src/v0.8/vendor/BufferChainlink.sol\":9540:9623  if gt(add(off, len), mload(bufptr)) {... */\n      iszero\n      tag_216\n      jumpi\n        /* \"@chainlink/contracts/src/v0.8/vendor/BufferChainlink.sol\":9610:9613  len */\n      dup5\n        /* \"@chainlink/contracts/src/v0.8/vendor/BufferChainlink.sol\":9605:9608  off */\n      dup8\n        /* \"@chainlink/contracts/src/v0.8/vendor/BufferChainlink.sol\":9601:9614  add(off, len) */\n      add\n        /* \"@chainlink/contracts/src/v0.8/vendor/BufferChainlink.sol\":9593:9599  bufptr */\n      dup3\n        /* \"@chainlink/contracts/src/v0.8/vendor/BufferChainlink.sol\":9586:9615  mstore(bufptr, add(off, len)) */\n      mstore\n        /* \"@chainlink/contracts/src/v0.8/vendor/BufferChainlink.sol\":9540:9623  if gt(add(off, len), mload(bufptr)) {... */\n    tag_216:\n        /* \"@chainlink/contracts/src/v0.8/vendor/BufferChainlink.sol\":9237:9629  {... */\n      pop\n      pop\n        /* \"@chainlink/contracts/src/v0.8/vendor/BufferChainlink.sol\":9641:9644  buf */\n      dup6\n        /* \"@chainlink/contracts/src/v0.8/vendor/BufferChainlink.sol\":9634:9644  return buf */\n      swap2\n      pop\n      pop\n        /* \"@chainlink/contracts/src/v0.8/vendor/BufferChainlink.sol\":8974:9649  function writeInt(... */\n      swap5\n      swap4\n      pop\n      pop\n      pop\n      pop\n      jump\t// out\n        /* \"@chainlink/contracts/src/v0.8/vendor/BufferChainlink.sol\":1961:2085  function max(uint256 a, uint256 b) private pure returns (uint256) {... */\n    tag_189:\n        /* \"@chainlink/contracts/src/v0.8/vendor/BufferChainlink.sol\":2018:2025  uint256 */\n      0x00\n        /* \"@chainlink/contracts/src/v0.8/vendor/BufferChainlink.sol\":2041:2042  b */\n      dup2\n        /* \"@chainlink/contracts/src/v0.8/vendor/BufferChainlink.sol\":2037:2038  a */\n      dup4\n        /* \"@chainlink/contracts/src/v0.8/vendor/BufferChainlink.sol\":2037:2042  a > b */\n      gt\n        /* \"@chainlink/contracts/src/v0.8/vendor/BufferChainlink.sol\":2033:2067  if (a > b) {... */\n      iszero\n      tag_218\n      jumpi\n        /* \"@chainlink/contracts/src/v0.8/vendor/BufferChainlink.sol\":2059:2060  a */\n      dup3\n        /* \"@chainlink/contracts/src/v0.8/vendor/BufferChainlink.sol\":2052:2060  return a */\n      swap1\n      pop\n      jump(tag_217)\n        /* \"@chainlink/contracts/src/v0.8/vendor/BufferChainlink.sol\":2033:2067  if (a > b) {... */\n    tag_218:\n        /* \"@chainlink/contracts/src/v0.8/vendor/BufferChainlink.sol\":2079:2080  b */\n      dup2\n        /* \"@chainlink/contracts/src/v0.8/vendor/BufferChainlink.sol\":2072:2080  return b */\n      swap1\n      pop\n        /* \"@chainlink/contracts/src/v0.8/vendor/BufferChainlink.sol\":1961:2085  function max(uint256 a, uint256 b) private pure returns (uint256) {... */\n    tag_217:\n      swap3\n      swap2\n      pop\n      pop\n      jump\t// out\n        /* \"@chainlink/contracts/src/v0.8/vendor/BufferChainlink.sol\":1801:1957  function resize(buffer memory buf, uint256 capacity) private pure {... */\n    tag_192:\n        /* \"@chainlink/contracts/src/v0.8/vendor/BufferChainlink.sol\":1873:1892  bytes memory oldbuf */\n      0x00\n        /* \"@chainlink/contracts/src/v0.8/vendor/BufferChainlink.sol\":1895:1898  buf */\n      dup3\n        /* \"@chainlink/contracts/src/v0.8/vendor/BufferChainlink.sol\":1895:1902  buf.buf */\n      0x00\n      add\n      mload\n        /* \"@chainlink/contracts/src/v0.8/vendor/BufferChainlink.sol\":1873:1902  bytes memory oldbuf = buf.buf */\n      swap1\n      pop\n        /* \"@chainlink/contracts/src/v0.8/vendor/BufferChainlink.sol\":1908:1927  init(buf, capacity) */\n      tag_220\n        /* \"@chainlink/contracts/src/v0.8/vendor/BufferChainlink.sol\":1913:1916  buf */\n      dup4\n        /* \"@chainlink/contracts/src/v0.8/vendor/BufferChainlink.sol\":1918:1926  capacity */\n      dup4\n        /* \"@chainlink/contracts/src/v0.8/vendor/BufferChainlink.sol\":1908:1912  init */\n      tag_114\n        /* \"@chainlink/contracts/src/v0.8/vendor/BufferChainlink.sol\":1908:1927  init(buf, capacity) */\n      jump\t// in\n    tag_220:\n      pop\n        /* \"@chainlink/contracts/src/v0.8/vendor/BufferChainlink.sol\":1933:1952  append(buf, oldbuf) */\n      tag_221\n        /* \"@chainlink/contracts/src/v0.8/vendor/BufferChainlink.sol\":1940:1943  buf */\n      dup4\n        /* \"@chainlink/contracts/src/v0.8/vendor/BufferChainlink.sol\":1945:1951  oldbuf */\n      dup3\n        /* \"@chainlink/contracts/src/v0.8/vendor/BufferChainlink.sol\":1933:1939  append */\n      tag_119\n        /* \"@chainlink/contracts/src/v0.8/vendor/BufferChainlink.sol\":1933:1952  append(buf, oldbuf) */\n      jump\t// in\n    tag_221:\n      pop\n        /* \"@chainlink/contracts/src/v0.8/vendor/BufferChainlink.sol\":1867:1957  {... */\n      pop\n        /* \"@chainlink/contracts/src/v0.8/vendor/BufferChainlink.sol\":1801:1957  function resize(buffer memory buf, uint256 capacity) private pure {... */\n      pop\n      pop\n      jump\t// out\n    tag_50:\n      dup3\n      dup1\n      sload\n      tag_222\n      swap1\n      tag_79\n      jump\t// in\n    tag_222:\n      swap1\n      0x00\n      mstore\n      keccak256(0x00, 0x20)\n      swap1\n      0x1f\n      add\n      0x20\n      swap1\n      div\n      dup2\n      add\n      swap3\n      dup3\n      tag_224\n      jumpi\n      0x00\n      dup6\n      sstore\n      jump(tag_223)\n    tag_224:\n      dup3\n      0x1f\n      lt\n      tag_225\n      jumpi\n      dup1\n      mload\n      not(0xff)\n      and\n      dup4\n      dup1\n      add\n      or\n      dup6\n      sstore\n      jump(tag_223)\n    tag_225:\n      dup3\n      dup1\n      add\n      0x01\n      add\n      dup6\n      sstore\n      dup3\n      iszero\n      tag_223\n      jumpi\n      swap2\n      dup3\n      add\n    tag_226:\n      dup3\n      dup2\n      gt\n      iszero\n      tag_227\n      jumpi\n      dup3\n      mload\n      dup3\n      sstore\n      swap2\n      0x20\n      add\n      swap2\n      swap1\n      0x01\n      add\n      swap1\n      jump(tag_226)\n    tag_227:\n    tag_223:\n      pop\n      swap1\n      pop\n      tag_228\n      swap2\n      swap1\n      tag_229\n      jump\t// in\n    tag_228:\n      pop\n      swap1\n      jump\t// out\n    tag_90:\n      mload(0x40)\n      dup1\n      0xa0\n      add\n      0x40\n      mstore\n      dup1\n      0x00\n      dup1\n      not\n      and\n      dup2\n      mstore\n      0x20\n      add\n      and(0xffffffffffffffffffffffffffffffffffffffff, 0x00)\n      dup2\n      mstore\n      0x20\n      add\n      and(not(0xffffffffffffffffffffffffffffffffffffffffffffffffffffffff), 0x00)\n      dup2\n      mstore\n      0x20\n      add\n      0x00\n      dup2\n      mstore\n      0x20\n      add\n      tag_230\n      tag_128\n      jump\t// in\n    tag_230:\n      dup2\n      mstore\n      pop\n      swap1\n      jump\t// out\n    tag_128:\n      mload(0x40)\n      dup1\n      0x40\n      add\n      0x40\n      mstore\n      dup1\n      0x60\n      dup2\n      mstore\n      0x20\n      add\n      0x00\n      dup2\n      mstore\n      pop\n      swap1\n      jump\t// out\n    tag_229:\n    tag_231:\n      dup1\n      dup3\n      gt\n      iszero\n      tag_232\n      jumpi\n      0x00\n      dup2\n      0x00\n      swap1\n      sstore\n      pop\n      0x01\n      add\n      jump(tag_231)\n    tag_232:\n      pop\n      swap1\n      jump\t// out\n        /* \"#utility.yul\":7:419   */\n    tag_234:\n        /* \"#utility.yul\":85:90   */\n      0x00\n        /* \"#utility.yul\":110:176   */\n      tag_236\n        /* \"#utility.yul\":126:175   */\n      tag_237\n        /* \"#utility.yul\":168:174   */\n      dup5\n        /* \"#utility.yul\":126:175   */\n      tag_238\n      jump\t// in\n    tag_237:\n        /* \"#utility.yul\":110:176   */\n      tag_239\n      jump\t// in\n    tag_236:\n        /* \"#utility.yul\":101:176   */\n      swap1\n      pop\n        /* \"#utility.yul\":199:205   */\n      dup3\n        /* \"#utility.yul\":192:197   */\n      dup2\n        /* \"#utility.yul\":185:206   */\n      mstore\n        /* \"#utility.yul\":237:241   */\n      0x20\n        /* \"#utility.yul\":230:235   */\n      dup2\n        /* \"#utility.yul\":226:242   */\n      add\n        /* \"#utility.yul\":275:278   */\n      dup5\n        /* \"#utility.yul\":266:272   */\n      dup5\n        /* \"#utility.yul\":261:264   */\n      dup5\n        /* \"#utility.yul\":257:273   */\n      add\n        /* \"#utility.yul\":254:279   */\n      gt\n        /* \"#utility.yul\":251:363   */\n      iszero\n      tag_240\n      jumpi\n        /* \"#utility.yul\":282:361   */\n      tag_241\n      tag_242\n      jump\t// in\n    tag_241:\n        /* \"#utility.yul\":251:363   */\n    tag_240:\n        /* \"#utility.yul\":372:413   */\n      tag_243\n        /* \"#utility.yul\":406:412   */\n      dup5\n        /* \"#utility.yul\":401:404   */\n      dup3\n        /* \"#utility.yul\":396:399   */\n      dup6\n        /* \"#utility.yul\":372:413   */\n      tag_244\n      jump\t// in\n    tag_243:\n        /* \"#utility.yul\":91:419   */\n      pop\n        /* \"#utility.yul\":7:419   */\n      swap4\n      swap3\n      pop\n      pop\n      pop\n      jump\t// out\n        /* \"#utility.yul\":425:564   */\n    tag_245:\n        /* \"#utility.yul\":471:476   */\n      0x00\n        /* \"#utility.yul\":509:515   */\n      dup2\n        /* \"#utility.yul\":496:516   */\n      calldataload\n        /* \"#utility.yul\":487:516   */\n      swap1\n      pop\n        /* \"#utility.yul\":525:558   */\n      tag_247\n        /* \"#utility.yul\":552:557   */\n      dup2\n        /* \"#utility.yul\":525:558   */\n      tag_248\n      jump\t// in\n    tag_247:\n        /* \"#utility.yul\":425:564   */\n      swap3\n      swap2\n      pop\n      pop\n      jump\t// out\n        /* \"#utility.yul\":570:707   */\n    tag_249:\n        /* \"#utility.yul\":624:629   */\n      0x00\n        /* \"#utility.yul\":655:661   */\n      dup2\n        /* \"#utility.yul\":649:662   */\n      mload\n        /* \"#utility.yul\":640:662   */\n      swap1\n      pop\n        /* \"#utility.yul\":671:701   */\n      tag_251\n        /* \"#utility.yul\":695:700   */\n      dup2\n        /* \"#utility.yul\":671:701   */\n      tag_252\n      jump\t// in\n    tag_251:\n        /* \"#utility.yul\":570:707   */\n      swap3\n      swap2\n      pop\n      pop\n      jump\t// out\n        /* \"#utility.yul\":713:852   */\n    tag_253:\n        /* \"#utility.yul\":759:764   */\n      0x00\n        /* \"#utility.yul\":797:803   */\n      dup2\n        /* \"#utility.yul\":784:804   */\n      calldataload\n        /* \"#utility.yul\":775:804   */\n      swap1\n      pop\n        /* \"#utility.yul\":813:846   */\n      tag_255\n        /* \"#utility.yul\":840:845   */\n      dup2\n        /* \"#utility.yul\":813:846   */\n      tag_256\n      jump\t// in\n    tag_255:\n        /* \"#utility.yul\":713:852   */\n      swap3\n      swap2\n      pop\n      pop\n      jump\t// out\n        /* \"#utility.yul\":872:1212   */\n    tag_257:\n        /* \"#utility.yul\":928:933   */\n      0x00\n        /* \"#utility.yul\":977:980   */\n      dup3\n        /* \"#utility.yul\":970:974   */\n      0x1f\n        /* \"#utility.yul\":962:968   */\n      dup4\n        /* \"#utility.yul\":958:975   */\n      add\n        /* \"#utility.yul\":954:981   */\n      slt\n        /* \"#utility.yul\":944:1066   */\n      tag_259\n      jumpi\n        /* \"#utility.yul\":985:1064   */\n      tag_260\n      tag_261\n      jump\t// in\n    tag_260:\n        /* \"#utility.yul\":944:1066   */\n    tag_259:\n        /* \"#utility.yul\":1102:1108   */\n      dup2\n        /* \"#utility.yul\":1089:1109   */\n      calldataload\n        /* \"#utility.yul\":1127:1206   */\n      tag_262\n        /* \"#utility.yul\":1202:1205   */\n      dup5\n        /* \"#utility.yul\":1194:1200   */\n      dup3\n        /* \"#utility.yul\":1187:1191   */\n      0x20\n        /* \"#utility.yul\":1179:1185   */\n      dup7\n        /* \"#utility.yul\":1175:1192   */\n      add\n        /* \"#utility.yul\":1127:1206   */\n      tag_234\n      jump\t// in\n    tag_262:\n        /* \"#utility.yul\":1118:1206   */\n      swap2\n      pop\n        /* \"#utility.yul\":934:1212   */\n      pop\n        /* \"#utility.yul\":872:1212   */\n      swap3\n      swap2\n      pop\n      pop\n      jump\t// out\n        /* \"#utility.yul\":1218:1361   */\n    tag_263:\n        /* \"#utility.yul\":1275:1280   */\n      0x00\n        /* \"#utility.yul\":1306:1312   */\n      dup2\n        /* \"#utility.yul\":1300:1313   */\n      mload\n        /* \"#utility.yul\":1291:1313   */\n      swap1\n      pop\n        /* \"#utility.yul\":1322:1355   */\n      tag_265\n        /* \"#utility.yul\":1349:1354   */\n      dup2\n        /* \"#utility.yul\":1322:1355   */\n      tag_266\n      jump\t// in\n    tag_265:\n        /* \"#utility.yul\":1218:1361   */\n      swap3\n      swap2\n      pop\n      pop\n      jump\t// out\n        /* \"#utility.yul\":1367:1696   */\n    tag_33:\n        /* \"#utility.yul\":1426:1432   */\n      0x00\n        /* \"#utility.yul\":1475:1477   */\n      0x20\n        /* \"#utility.yul\":1463:1472   */\n      dup3\n        /* \"#utility.yul\":1454:1461   */\n      dup5\n        /* \"#utility.yul\":1450:1473   */\n      sub\n        /* \"#utility.yul\":1446:1478   */\n      slt\n        /* \"#utility.yul\":1443:1562   */\n      iszero\n      tag_268\n      jumpi\n        /* \"#utility.yul\":1481:1560   */\n      tag_269\n      tag_270\n      jump\t// in\n    tag_269:\n        /* \"#utility.yul\":1443:1562   */\n    tag_268:\n        /* \"#utility.yul\":1601:1602   */\n      0x00\n        /* \"#utility.yul\":1626:1679   */\n      tag_271\n        /* \"#utility.yul\":1671:1678   */\n      dup5\n        /* \"#utility.yul\":1662:1668   */\n      dup3\n        /* \"#utility.yul\":1651:1660   */\n      dup6\n        /* \"#utility.yul\":1647:1669   */\n      add\n        /* \"#utility.yul\":1626:1679   */\n      tag_245\n      jump\t// in\n    tag_271:\n        /* \"#utility.yul\":1616:1679   */\n      swap2\n      pop\n        /* \"#utility.yul\":1572:1689   */\n      pop\n        /* \"#utility.yul\":1367:1696   */\n      swap3\n      swap2\n      pop\n      pop\n      jump\t// out\n        /* \"#utility.yul\":1702:2047   */\n    tag_74:\n        /* \"#utility.yul\":1769:1775   */\n      0x00\n        /* \"#utility.yul\":1818:1820   */\n      0x20\n        /* \"#utility.yul\":1806:1815   */\n      dup3\n        /* \"#utility.yul\":1797:1804   */\n      dup5\n        /* \"#utility.yul\":1793:1816   */\n      sub\n        /* \"#utility.yul\":1789:1821   */\n      slt\n        /* \"#utility.yul\":1786:1905   */\n      iszero\n      tag_273\n      jumpi\n        /* \"#utility.yul\":1824:1903   */\n      tag_274\n      tag_270\n      jump\t// in\n    tag_274:\n        /* \"#utility.yul\":1786:1905   */\n    tag_273:\n        /* \"#utility.yul\":1944:1945   */\n      0x00\n        /* \"#utility.yul\":1969:2030   */\n      tag_275\n        /* \"#utility.yul\":2022:2029   */\n      dup5\n        /* \"#utility.yul\":2013:2019   */\n      dup3\n        /* \"#utility.yul\":2002:2011   */\n      dup6\n        /* \"#utility.yul\":1998:2020   */\n      add\n        /* \"#utility.yul\":1969:2030   */\n      tag_249\n      jump\t// in\n    tag_275:\n        /* \"#utility.yul\":1959:2030   */\n      swap2\n      pop\n        /* \"#utility.yul\":1915:2040   */\n      pop\n        /* \"#utility.yul\":1702:2047   */\n      swap3\n      swap2\n      pop\n      pop\n      jump\t// out\n        /* \"#utility.yul\":2053:2707   */\n    tag_17:\n        /* \"#utility.yul\":2131:2137   */\n      0x00\n        /* \"#utility.yul\":2139:2145   */\n      dup1\n        /* \"#utility.yul\":2188:2190   */\n      0x40\n        /* \"#utility.yul\":2176:2185   */\n      dup4\n        /* \"#utility.yul\":2167:2174   */\n      dup6\n        /* \"#utility.yul\":2163:2186   */\n      sub\n        /* \"#utility.yul\":2159:2191   */\n      slt\n        /* \"#utility.yul\":2156:2275   */\n      iszero\n      tag_277\n      jumpi\n        /* \"#utility.yul\":2194:2273   */\n      tag_278\n      tag_270\n      jump\t// in\n    tag_278:\n        /* \"#utility.yul\":2156:2275   */\n    tag_277:\n        /* \"#utility.yul\":2314:2315   */\n      0x00\n        /* \"#utility.yul\":2339:2392   */\n      tag_279\n        /* \"#utility.yul\":2384:2391   */\n      dup6\n        /* \"#utility.yul\":2375:2381   */\n      dup3\n        /* \"#utility.yul\":2364:2373   */\n      dup7\n        /* \"#utility.yul\":2360:2382   */\n      add\n        /* \"#utility.yul\":2339:2392   */\n      tag_253\n      jump\t// in\n    tag_279:\n        /* \"#utility.yul\":2329:2392   */\n      swap3\n      pop\n        /* \"#utility.yul\":2285:2402   */\n      pop\n        /* \"#utility.yul\":2469:2471   */\n      0x20\n        /* \"#utility.yul\":2458:2467   */\n      dup4\n        /* \"#utility.yul\":2454:2472   */\n      add\n        /* \"#utility.yul\":2441:2473   */\n      calldataload\n        /* \"#utility.yul\":2500:2518   */\n      0xffffffffffffffff\n        /* \"#utility.yul\":2492:2498   */\n      dup2\n        /* \"#utility.yul\":2489:2519   */\n      gt\n        /* \"#utility.yul\":2486:2603   */\n      iszero\n      tag_280\n      jumpi\n        /* \"#utility.yul\":2522:2601   */\n      tag_281\n      tag_282\n      jump\t// in\n    tag_281:\n        /* \"#utility.yul\":2486:2603   */\n    tag_280:\n        /* \"#utility.yul\":2627:2690   */\n      tag_283\n        /* \"#utility.yul\":2682:2689   */\n      dup6\n        /* \"#utility.yul\":2673:2679   */\n      dup3\n        /* \"#utility.yul\":2662:2671   */\n      dup7\n        /* \"#utility.yul\":2658:2680   */\n      add\n        /* \"#utility.yul\":2627:2690   */\n      tag_257\n      jump\t// in\n    tag_283:\n        /* \"#utility.yul\":2617:2690   */\n      swap2\n      pop\n        /* \"#utility.yul\":2412:2700   */\n      pop\n        /* \"#utility.yul\":2053:2707   */\n      swap3\n      pop\n      swap3\n      swap1\n      pop\n      jump\t// out\n        /* \"#utility.yul\":2713:3064   */\n    tag_67:\n        /* \"#utility.yul\":2783:2789   */\n      0x00\n        /* \"#utility.yul\":2832:2834   */\n      0x20\n        /* \"#utility.yul\":2820:2829   */\n      dup3\n        /* \"#utility.yul\":2811:2818   */\n      dup5\n        /* \"#utility.yul\":2807:2830   */\n      sub\n        /* \"#utility.yul\":2803:2835   */\n      slt\n        /* \"#utility.yul\":2800:2919   */\n      iszero\n      tag_285\n      jumpi\n        /* \"#utility.yul\":2838:2917   */\n      tag_286\n      tag_270\n      jump\t// in\n    tag_286:\n        /* \"#utility.yul\":2800:2919   */\n    tag_285:\n        /* \"#utility.yul\":2958:2959   */\n      0x00\n        /* \"#utility.yul\":2983:3047   */\n      tag_287\n        /* \"#utility.yul\":3039:3046   */\n      dup5\n        /* \"#utility.yul\":3030:3036   */\n      dup3\n        /* \"#utility.yul\":3019:3028   */\n      dup6\n        /* \"#utility.yul\":3015:3037   */\n      add\n        /* \"#utility.yul\":2983:3047   */\n      tag_263\n      jump\t// in\n    tag_287:\n        /* \"#utility.yul\":2973:3047   */\n      swap2\n      pop\n        /* \"#utility.yul\":2929:3057   */\n      pop\n        /* \"#utility.yul\":2713:3064   */\n      swap3\n      swap2\n      pop\n      pop\n      jump\t// out\n        /* \"#utility.yul\":3070:3188   */\n    tag_288:\n        /* \"#utility.yul\":3157:3181   */\n      tag_290\n        /* \"#utility.yul\":3175:3180   */\n      dup2\n        /* \"#utility.yul\":3157:3181   */\n      tag_291\n      jump\t// in\n    tag_290:\n        /* \"#utility.yul\":3152:3155   */\n      dup3\n        /* \"#utility.yul\":3145:3182   */\n      mstore\n        /* \"#utility.yul\":3070:3188   */\n      pop\n      pop\n      jump\t// out\n        /* \"#utility.yul\":3194:3312   */\n    tag_292:\n        /* \"#utility.yul\":3281:3305   */\n      tag_294\n        /* \"#utility.yul\":3299:3304   */\n      dup2\n        /* \"#utility.yul\":3281:3305   */\n      tag_295\n      jump\t// in\n    tag_294:\n        /* \"#utility.yul\":3276:3279   */\n      dup3\n        /* \"#utility.yul\":3269:3306   */\n      mstore\n        /* \"#utility.yul\":3194:3312   */\n      pop\n      pop\n      jump\t// out\n        /* \"#utility.yul\":3318:3433   */\n    tag_296:\n        /* \"#utility.yul\":3403:3426   */\n      tag_298\n        /* \"#utility.yul\":3420:3425   */\n      dup2\n        /* \"#utility.yul\":3403:3426   */\n      tag_299\n      jump\t// in\n    tag_298:\n        /* \"#utility.yul\":3398:3401   */\n      dup3\n        /* \"#utility.yul\":3391:3427   */\n      mstore\n        /* \"#utility.yul\":3318:3433   */\n      pop\n      pop\n      jump\t// out\n        /* \"#utility.yul\":3439:3799   */\n    tag_300:\n        /* \"#utility.yul\":3525:3528   */\n      0x00\n        /* \"#utility.yul\":3553:3591   */\n      tag_302\n        /* \"#utility.yul\":3585:3590   */\n      dup3\n        /* \"#utility.yul\":3553:3591   */\n      tag_303\n      jump\t// in\n    tag_302:\n        /* \"#utility.yul\":3607:3677   */\n      tag_304\n        /* \"#utility.yul\":3670:3676   */\n      dup2\n        /* \"#utility.yul\":3665:3668   */\n      dup6\n        /* \"#utility.yul\":3607:3677   */\n      tag_305\n      jump\t// in\n    tag_304:\n        /* \"#utility.yul\":3600:3677   */\n      swap4\n      pop\n        /* \"#utility.yul\":3686:3738   */\n      tag_306\n        /* \"#utility.yul\":3731:3737   */\n      dup2\n        /* \"#utility.yul\":3726:3729   */\n      dup6\n        /* \"#utility.yul\":3719:3723   */\n      0x20\n        /* \"#utility.yul\":3712:3717   */\n      dup7\n        /* \"#utility.yul\":3708:3724   */\n      add\n        /* \"#utility.yul\":3686:3738   */\n      tag_307\n      jump\t// in\n    tag_306:\n        /* \"#utility.yul\":3763:3792   */\n      tag_308\n        /* \"#utility.yul\":3785:3791   */\n      dup2\n        /* \"#utility.yul\":3763:3792   */\n      tag_309\n      jump\t// in\n    tag_308:\n        /* \"#utility.yul\":3758:3761   */\n      dup5\n        /* \"#utility.yul\":3754:3793   */\n      add\n        /* \"#utility.yul\":3747:3793   */\n      swap2\n      pop\n        /* \"#utility.yul\":3529:3799   */\n      pop\n        /* \"#utility.yul\":3439:3799   */\n      swap3\n      swap2\n      pop\n      pop\n      jump\t// out\n        /* \"#utility.yul\":3805:4021   */\n    tag_310:\n        /* \"#utility.yul\":3933:4014   */\n      tag_312\n        /* \"#utility.yul\":3953:4013   */\n      tag_313\n        /* \"#utility.yul\":4007:4012   */\n      dup3\n        /* \"#utility.yul\":3953:4013   */\n      tag_314\n      jump\t// in\n    tag_313:\n        /* \"#utility.yul\":3933:4014   */\n      tag_315\n      jump\t// in\n    tag_312:\n        /* \"#utility.yul\":3928:3931   */\n      dup3\n        /* \"#utility.yul\":3921:4015   */\n      mstore\n        /* \"#utility.yul\":3805:4021   */\n      pop\n      pop\n      jump\t// out\n        /* \"#utility.yul\":4027:4391   */\n    tag_316:\n        /* \"#utility.yul\":4115:4118   */\n      0x00\n        /* \"#utility.yul\":4143:4182   */\n      tag_318\n        /* \"#utility.yul\":4176:4181   */\n      dup3\n        /* \"#utility.yul\":4143:4182   */\n      tag_319\n      jump\t// in\n    tag_318:\n        /* \"#utility.yul\":4198:4269   */\n      tag_320\n        /* \"#utility.yul\":4262:4268   */\n      dup2\n        /* \"#utility.yul\":4257:4260   */\n      dup6\n        /* \"#utility.yul\":4198:4269   */\n      tag_321\n      jump\t// in\n    tag_320:\n        /* \"#utility.yul\":4191:4269   */\n      swap4\n      pop\n        /* \"#utility.yul\":4278:4330   */\n      tag_322\n        /* \"#utility.yul\":4323:4329   */\n      dup2\n        /* \"#utility.yul\":4318:4321   */\n      dup6\n        /* \"#utility.yul\":4311:4315   */\n      0x20\n        /* \"#utility.yul\":4304:4309   */\n      dup7\n        /* \"#utility.yul\":4300:4316   */\n      add\n        /* \"#utility.yul\":4278:4330   */\n      tag_307\n      jump\t// in\n    tag_322:\n        /* \"#utility.yul\":4355:4384   */\n      tag_323\n        /* \"#utility.yul\":4377:4383   */\n      dup2\n        /* \"#utility.yul\":4355:4384   */\n      tag_309\n      jump\t// in\n    tag_323:\n        /* \"#utility.yul\":4350:4353   */\n      dup5\n        /* \"#utility.yul\":4346:4385   */\n      add\n        /* \"#utility.yul\":4339:4385   */\n      swap2\n      pop\n        /* \"#utility.yul\":4119:4391   */\n      pop\n        /* \"#utility.yul\":4027:4391   */\n      swap3\n      swap2\n      pop\n      pop\n      jump\t// out\n        /* \"#utility.yul\":4397:4763   */\n    tag_324:\n        /* \"#utility.yul\":4539:4542   */\n      0x00\n        /* \"#utility.yul\":4560:4627   */\n      tag_326\n        /* \"#utility.yul\":4624:4626   */\n      0x16\n        /* \"#utility.yul\":4619:4622   */\n      dup4\n        /* \"#utility.yul\":4560:4627   */\n      tag_321\n      jump\t// in\n    tag_326:\n        /* \"#utility.yul\":4553:4627   */\n      swap2\n      pop\n        /* \"#utility.yul\":4636:4729   */\n      tag_327\n        /* \"#utility.yul\":4725:4728   */\n      dup3\n        /* \"#utility.yul\":4636:4729   */\n      tag_328\n      jump\t// in\n    tag_327:\n        /* \"#utility.yul\":4754:4756   */\n      0x20\n        /* \"#utility.yul\":4749:4752   */\n      dup3\n        /* \"#utility.yul\":4745:4757   */\n      add\n        /* \"#utility.yul\":4738:4757   */\n      swap1\n      pop\n        /* \"#utility.yul\":4397:4763   */\n      swap2\n      swap1\n      pop\n      jump\t// out\n        /* \"#utility.yul\":4769:5135   */\n    tag_329:\n        /* \"#utility.yul\":4911:4914   */\n      0x00\n        /* \"#utility.yul\":4932:4999   */\n      tag_331\n        /* \"#utility.yul\":4996:4998   */\n      0x23\n        /* \"#utility.yul\":4991:4994   */\n      dup4\n        /* \"#utility.yul\":4932:4999   */\n      tag_321\n      jump\t// in\n    tag_331:\n        /* \"#utility.yul\":4925:4999   */\n      swap2\n      pop\n        /* \"#utility.yul\":5008:5101   */\n      tag_332\n        /* \"#utility.yul\":5097:5100   */\n      dup3\n        /* \"#utility.yul\":5008:5101   */\n      tag_333\n      jump\t// in\n    tag_332:\n        /* \"#utility.yul\":5126:5128   */\n      0x40\n        /* \"#utility.yul\":5121:5124   */\n      dup3\n        /* \"#utility.yul\":5117:5129   */\n      add\n        /* \"#utility.yul\":5110:5129   */\n      swap1\n      pop\n        /* \"#utility.yul\":4769:5135   */\n      swap2\n      swap1\n      pop\n      jump\t// out\n        /* \"#utility.yul\":5141:5507   */\n    tag_334:\n        /* \"#utility.yul\":5283:5286   */\n      0x00\n        /* \"#utility.yul\":5304:5371   */\n      tag_336\n        /* \"#utility.yul\":5368:5370   */\n      0x16\n        /* \"#utility.yul\":5363:5366   */\n      dup4\n        /* \"#utility.yul\":5304:5371   */\n      tag_321\n      jump\t// in\n    tag_336:\n        /* \"#utility.yul\":5297:5371   */\n      swap2\n      pop\n        /* \"#utility.yul\":5380:5473   */\n      tag_337\n        /* \"#utility.yul\":5469:5472   */\n      dup3\n        /* \"#utility.yul\":5380:5473   */\n      tag_338\n      jump\t// in\n    tag_337:\n        /* \"#utility.yul\":5498:5500   */\n      0x20\n        /* \"#utility.yul\":5493:5496   */\n      dup3\n        /* \"#utility.yul\":5489:5501   */\n      add\n        /* \"#utility.yul\":5482:5501   */\n      swap1\n      pop\n        /* \"#utility.yul\":5141:5507   */\n      swap2\n      swap1\n      pop\n      jump\t// out\n        /* \"#utility.yul\":5513:5879   */\n    tag_339:\n        /* \"#utility.yul\":5655:5658   */\n      0x00\n        /* \"#utility.yul\":5676:5743   */\n      tag_341\n        /* \"#utility.yul\":5740:5742   */\n      0x12\n        /* \"#utility.yul\":5735:5738   */\n      dup4\n        /* \"#utility.yul\":5676:5743   */\n      tag_321\n      jump\t// in\n    tag_341:\n        /* \"#utility.yul\":5669:5743   */\n      swap2\n      pop\n        /* \"#utility.yul\":5752:5845   */\n      tag_342\n        /* \"#utility.yul\":5841:5844   */\n      dup3\n        /* \"#utility.yul\":5752:5845   */\n      tag_343\n      jump\t// in\n    tag_342:\n        /* \"#utility.yul\":5870:5872   */\n      0x20\n        /* \"#utility.yul\":5865:5868   */\n      dup3\n        /* \"#utility.yul\":5861:5873   */\n      add\n        /* \"#utility.yul\":5854:5873   */\n      swap1\n      pop\n        /* \"#utility.yul\":5513:5879   */\n      swap2\n      swap1\n      pop\n      jump\t// out\n        /* \"#utility.yul\":5885:6251   */\n    tag_344:\n        /* \"#utility.yul\":6027:6030   */\n      0x00\n        /* \"#utility.yul\":6048:6115   */\n      tag_346\n        /* \"#utility.yul\":6112:6114   */\n      0x17\n        /* \"#utility.yul\":6107:6110   */\n      dup4\n        /* \"#utility.yul\":6048:6115   */\n      tag_321\n      jump\t// in\n    tag_346:\n        /* \"#utility.yul\":6041:6115   */\n      swap2\n      pop\n        /* \"#utility.yul\":6124:6217   */\n      tag_347\n        /* \"#utility.yul\":6213:6216   */\n      dup3\n        /* \"#utility.yul\":6124:6217   */\n      tag_348\n      jump\t// in\n    tag_347:\n        /* \"#utility.yul\":6242:6244   */\n      0x20\n        /* \"#utility.yul\":6237:6240   */\n      dup3\n        /* \"#utility.yul\":6233:6245   */\n      add\n        /* \"#utility.yul\":6226:6245   */\n      swap1\n      pop\n        /* \"#utility.yul\":5885:6251   */\n      swap2\n      swap1\n      pop\n      jump\t// out\n        /* \"#utility.yul\":6257:6623   */\n    tag_349:\n        /* \"#utility.yul\":6399:6402   */\n      0x00\n        /* \"#utility.yul\":6420:6487   */\n      tag_351\n        /* \"#utility.yul\":6484:6486   */\n      0x28\n        /* \"#utility.yul\":6479:6482   */\n      dup4\n        /* \"#utility.yul\":6420:6487   */\n      tag_321\n      jump\t// in\n    tag_351:\n        /* \"#utility.yul\":6413:6487   */\n      swap2\n      pop\n        /* \"#utility.yul\":6496:6589   */\n      tag_352\n        /* \"#utility.yul\":6585:6588   */\n      dup3\n        /* \"#utility.yul\":6496:6589   */\n      tag_353\n      jump\t// in\n    tag_352:\n        /* \"#utility.yul\":6614:6616   */\n      0x40\n        /* \"#utility.yul\":6609:6612   */\n      dup3\n        /* \"#utility.yul\":6605:6617   */\n      add\n        /* \"#utility.yul\":6598:6617   */\n      swap1\n      pop\n        /* \"#utility.yul\":6257:6623   */\n      swap2\n      swap1\n      pop\n      jump\t// out\n        /* \"#utility.yul\":6629:6747   */\n    tag_354:\n        /* \"#utility.yul\":6716:6740   */\n      tag_356\n        /* \"#utility.yul\":6734:6739   */\n      dup2\n        /* \"#utility.yul\":6716:6740   */\n      tag_357\n      jump\t// in\n    tag_356:\n        /* \"#utility.yul\":6711:6714   */\n      dup3\n        /* \"#utility.yul\":6704:6741   */\n      mstore\n        /* \"#utility.yul\":6629:6747   */\n      pop\n      pop\n      jump\t// out\n        /* \"#utility.yul\":6753:6910   */\n    tag_358:\n        /* \"#utility.yul\":6858:6903   */\n      tag_360\n        /* \"#utility.yul\":6878:6902   */\n      tag_361\n        /* \"#utility.yul\":6896:6901   */\n      dup3\n        /* \"#utility.yul\":6878:6902   */\n      tag_357\n      jump\t// in\n    tag_361:\n        /* \"#utility.yul\":6858:6903   */\n      tag_362\n      jump\t// in\n    tag_360:\n        /* \"#utility.yul\":6853:6856   */\n      dup3\n        /* \"#utility.yul\":6846:6904   */\n      mstore\n        /* \"#utility.yul\":6753:6910   */\n      pop\n      pop\n      jump\t// out\n        /* \"#utility.yul\":6916:7359   */\n    tag_163:\n        /* \"#utility.yul\":7079:7082   */\n      0x00\n        /* \"#utility.yul\":7094:7192   */\n      tag_364\n        /* \"#utility.yul\":7188:7191   */\n      dup3\n        /* \"#utility.yul\":7179:7185   */\n      dup6\n        /* \"#utility.yul\":7094:7192   */\n      tag_310\n      jump\t// in\n    tag_364:\n        /* \"#utility.yul\":7217:7219   */\n      0x14\n        /* \"#utility.yul\":7212:7215   */\n      dup3\n        /* \"#utility.yul\":7208:7220   */\n      add\n        /* \"#utility.yul\":7201:7220   */\n      swap2\n      pop\n        /* \"#utility.yul\":7230:7305   */\n      tag_365\n        /* \"#utility.yul\":7301:7304   */\n      dup3\n        /* \"#utility.yul\":7292:7298   */\n      dup5\n        /* \"#utility.yul\":7230:7305   */\n      tag_358\n      jump\t// in\n    tag_365:\n        /* \"#utility.yul\":7330:7332   */\n      0x20\n        /* \"#utility.yul\":7325:7328   */\n      dup3\n        /* \"#utility.yul\":7321:7333   */\n      add\n        /* \"#utility.yul\":7314:7333   */\n      swap2\n      pop\n        /* \"#utility.yul\":7350:7353   */\n      dup2\n        /* \"#utility.yul\":7343:7353   */\n      swap1\n      pop\n        /* \"#utility.yul\":6916:7359   */\n      swap4\n      swap3\n      pop\n      pop\n      pop\n      jump\t// out\n        /* \"#utility.yul\":7365:7587   */\n    tag_24:\n        /* \"#utility.yul\":7458:7462   */\n      0x00\n        /* \"#utility.yul\":7496:7498   */\n      0x20\n        /* \"#utility.yul\":7485:7494   */\n      dup3\n        /* \"#utility.yul\":7481:7499   */\n      add\n        /* \"#utility.yul\":7473:7499   */\n      swap1\n      pop\n        /* \"#utility.yul\":7509:7580   */\n      tag_367\n        /* \"#utility.yul\":7577:7578   */\n      0x00\n        /* \"#utility.yul\":7566:7575   */\n      dup4\n        /* \"#utility.yul\":7562:7579   */\n      add\n        /* \"#utility.yul\":7553:7559   */\n      dup5\n        /* \"#utility.yul\":7509:7580   */\n      tag_288\n      jump\t// in\n    tag_367:\n        /* \"#utility.yul\":7365:7587   */\n      swap3\n      swap2\n      pop\n      pop\n      jump\t// out\n        /* \"#utility.yul\":7593:7925   */\n    tag_69:\n        /* \"#utility.yul\":7714:7718   */\n      0x00\n        /* \"#utility.yul\":7752:7754   */\n      0x40\n        /* \"#utility.yul\":7741:7750   */\n      dup3\n        /* \"#utility.yul\":7737:7755   */\n      add\n        /* \"#utility.yul\":7729:7755   */\n      swap1\n      pop\n        /* \"#utility.yul\":7765:7836   */\n      tag_369\n        /* \"#utility.yul\":7833:7834   */\n      0x00\n        /* \"#utility.yul\":7822:7831   */\n      dup4\n        /* \"#utility.yul\":7818:7835   */\n      add\n        /* \"#utility.yul\":7809:7815   */\n      dup6\n        /* \"#utility.yul\":7765:7836   */\n      tag_288\n      jump\t// in\n    tag_369:\n        /* \"#utility.yul\":7846:7918   */\n      tag_370\n        /* \"#utility.yul\":7914:7916   */\n      0x20\n        /* \"#utility.yul\":7903:7912   */\n      dup4\n        /* \"#utility.yul\":7899:7917   */\n      add\n        /* \"#utility.yul\":7890:7896   */\n      dup5\n        /* \"#utility.yul\":7846:7918   */\n      tag_354\n      jump\t// in\n    tag_370:\n        /* \"#utility.yul\":7593:7925   */\n      swap4\n      swap3\n      pop\n      pop\n      pop\n      jump\t// out\n        /* \"#utility.yul\":7931:9011   */\n    tag_124:\n        /* \"#utility.yul\":8236:8240   */\n      0x00\n        /* \"#utility.yul\":8274:8277   */\n      0x0100\n        /* \"#utility.yul\":8263:8272   */\n      dup3\n        /* \"#utility.yul\":8259:8278   */\n      add\n        /* \"#utility.yul\":8251:8278   */\n      swap1\n      pop\n        /* \"#utility.yul\":8288:8359   */\n      tag_372\n        /* \"#utility.yul\":8356:8357   */\n      0x00\n        /* \"#utility.yul\":8345:8354   */\n      dup4\n        /* \"#utility.yul\":8341:8358   */\n      add\n        /* \"#utility.yul\":8332:8338   */\n      dup12\n        /* \"#utility.yul\":8288:8359   */\n      tag_288\n      jump\t// in\n    tag_372:\n        /* \"#utility.yul\":8369:8441   */\n      tag_373\n        /* \"#utility.yul\":8437:8439   */\n      0x20\n        /* \"#utility.yul\":8426:8435   */\n      dup4\n        /* \"#utility.yul\":8422:8440   */\n      add\n        /* \"#utility.yul\":8413:8419   */\n      dup11\n        /* \"#utility.yul\":8369:8441   */\n      tag_354\n      jump\t// in\n    tag_373:\n        /* \"#utility.yul\":8451:8523   */\n      tag_374\n        /* \"#utility.yul\":8519:8521   */\n      0x40\n        /* \"#utility.yul\":8508:8517   */\n      dup4\n        /* \"#utility.yul\":8504:8522   */\n      add\n        /* \"#utility.yul\":8495:8501   */\n      dup10\n        /* \"#utility.yul\":8451:8523   */\n      tag_292\n      jump\t// in\n    tag_374:\n        /* \"#utility.yul\":8533:8605   */\n      tag_375\n        /* \"#utility.yul\":8601:8603   */\n      0x60\n        /* \"#utility.yul\":8590:8599   */\n      dup4\n        /* \"#utility.yul\":8586:8604   */\n      add\n        /* \"#utility.yul\":8577:8583   */\n      dup9\n        /* \"#utility.yul\":8533:8605   */\n      tag_288\n      jump\t// in\n    tag_375:\n        /* \"#utility.yul\":8615:8686   */\n      tag_376\n        /* \"#utility.yul\":8681:8684   */\n      0x80\n        /* \"#utility.yul\":8670:8679   */\n      dup4\n        /* \"#utility.yul\":8666:8685   */\n      add\n        /* \"#utility.yul\":8657:8663   */\n      dup8\n        /* \"#utility.yul\":8615:8686   */\n      tag_296\n      jump\t// in\n    tag_376:\n        /* \"#utility.yul\":8696:8769   */\n      tag_377\n        /* \"#utility.yul\":8764:8767   */\n      0xa0\n        /* \"#utility.yul\":8753:8762   */\n      dup4\n        /* \"#utility.yul\":8749:8768   */\n      add\n        /* \"#utility.yul\":8740:8746   */\n      dup7\n        /* \"#utility.yul\":8696:8769   */\n      tag_354\n      jump\t// in\n    tag_377:\n        /* \"#utility.yul\":8779:8852   */\n      tag_378\n        /* \"#utility.yul\":8847:8850   */\n      0xc0\n        /* \"#utility.yul\":8836:8845   */\n      dup4\n        /* \"#utility.yul\":8832:8851   */\n      add\n        /* \"#utility.yul\":8823:8829   */\n      dup6\n        /* \"#utility.yul\":8779:8852   */\n      tag_354\n      jump\t// in\n    tag_378:\n        /* \"#utility.yul\":8900:8909   */\n      dup2\n        /* \"#utility.yul\":8894:8898   */\n      dup2\n        /* \"#utility.yul\":8890:8910   */\n      sub\n        /* \"#utility.yul\":8884:8887   */\n      0xe0\n        /* \"#utility.yul\":8873:8882   */\n      dup4\n        /* \"#utility.yul\":8869:8888   */\n      add\n        /* \"#utility.yul\":8862:8911   */\n      mstore\n        /* \"#utility.yul\":8928:9004   */\n      tag_379\n        /* \"#utility.yul\":8999:9003   */\n      dup2\n        /* \"#utility.yul\":8990:8996   */\n      dup5\n        /* \"#utility.yul\":8928:9004   */\n      tag_300\n      jump\t// in\n    tag_379:\n        /* \"#utility.yul\":8920:9004   */\n      swap1\n      pop\n        /* \"#utility.yul\":7931:9011   */\n      swap10\n      swap9\n      pop\n      pop\n      pop\n      pop\n      pop\n      pop\n      pop\n      pop\n      pop\n      jump\t// out\n        /* \"#utility.yul\":9017:9546   */\n    tag_165:\n        /* \"#utility.yul\":9184:9188   */\n      0x00\n        /* \"#utility.yul\":9222:9224   */\n      0x60\n        /* \"#utility.yul\":9211:9220   */\n      dup3\n        /* \"#utility.yul\":9207:9225   */\n      add\n        /* \"#utility.yul\":9199:9225   */\n      swap1\n      pop\n        /* \"#utility.yul\":9235:9306   */\n      tag_381\n        /* \"#utility.yul\":9303:9304   */\n      0x00\n        /* \"#utility.yul\":9292:9301   */\n      dup4\n        /* \"#utility.yul\":9288:9305   */\n      add\n        /* \"#utility.yul\":9279:9285   */\n      dup7\n        /* \"#utility.yul\":9235:9306   */\n      tag_288\n      jump\t// in\n    tag_381:\n        /* \"#utility.yul\":9316:9388   */\n      tag_382\n        /* \"#utility.yul\":9384:9386   */\n      0x20\n        /* \"#utility.yul\":9373:9382   */\n      dup4\n        /* \"#utility.yul\":9369:9387   */\n      add\n        /* \"#utility.yul\":9360:9366   */\n      dup6\n        /* \"#utility.yul\":9316:9388   */\n      tag_354\n      jump\t// in\n    tag_382:\n        /* \"#utility.yul\":9435:9444   */\n      dup2\n        /* \"#utility.yul\":9429:9433   */\n      dup2\n        /* \"#utility.yul\":9425:9445   */\n      sub\n        /* \"#utility.yul\":9420:9422   */\n      0x40\n        /* \"#utility.yul\":9409:9418   */\n      dup4\n        /* \"#utility.yul\":9405:9423   */\n      add\n        /* \"#utility.yul\":9398:9446   */\n      mstore\n        /* \"#utility.yul\":9463:9539   */\n      tag_383\n        /* \"#utility.yul\":9534:9538   */\n      dup2\n        /* \"#utility.yul\":9525:9531   */\n      dup5\n        /* \"#utility.yul\":9463:9539   */\n      tag_300\n      jump\t// in\n    tag_383:\n        /* \"#utility.yul\":9455:9539   */\n      swap1\n      pop\n        /* \"#utility.yul\":9017:9546   */\n      swap5\n      swap4\n      pop\n      pop\n      pop\n      pop\n      jump\t// out\n        /* \"#utility.yul\":9552:9774   */\n    tag_14:\n        /* \"#utility.yul\":9645:9649   */\n      0x00\n        /* \"#utility.yul\":9683:9685   */\n      0x20\n        /* \"#utility.yul\":9672:9681   */\n      dup3\n        /* \"#utility.yul\":9668:9686   */\n      add\n        /* \"#utility.yul\":9660:9686   */\n      swap1\n      pop\n        /* \"#utility.yul\":9696:9767   */\n      tag_385\n        /* \"#utility.yul\":9764:9765   */\n      0x00\n        /* \"#utility.yul\":9753:9762   */\n      dup4\n        /* \"#utility.yul\":9749:9766   */\n      add\n        /* \"#utility.yul\":9740:9746   */\n      dup5\n        /* \"#utility.yul\":9696:9767   */\n      tag_292\n      jump\t// in\n    tag_385:\n        /* \"#utility.yul\":9552:9774   */\n      swap3\n      swap2\n      pop\n      pop\n      jump\t// out\n        /* \"#utility.yul\":9780:10093   */\n    tag_30:\n        /* \"#utility.yul\":9893:9897   */\n      0x00\n        /* \"#utility.yul\":9931:9933   */\n      0x20\n        /* \"#utility.yul\":9920:9929   */\n      dup3\n        /* \"#utility.yul\":9916:9934   */\n      add\n        /* \"#utility.yul\":9908:9934   */\n      swap1\n      pop\n        /* \"#utility.yul\":9980:9989   */\n      dup2\n        /* \"#utility.yul\":9974:9978   */\n      dup2\n        /* \"#utility.yul\":9970:9990   */\n      sub\n        /* \"#utility.yul\":9966:9967   */\n      0x00\n        /* \"#utility.yul\":9955:9964   */\n      dup4\n        /* \"#utility.yul\":9951:9968   */\n      add\n        /* \"#utility.yul\":9944:9991   */\n      mstore\n        /* \"#utility.yul\":10008:10086   */\n      tag_387\n        /* \"#utility.yul\":10081:10085   */\n      dup2\n        /* \"#utility.yul\":10072:10078   */\n      dup5\n        /* \"#utility.yul\":10008:10086   */\n      tag_316\n      jump\t// in\n    tag_387:\n        /* \"#utility.yul\":10000:10086   */\n      swap1\n      pop\n        /* \"#utility.yul\":9780:10093   */\n      swap3\n      swap2\n      pop\n      pop\n      jump\t// out\n        /* \"#utility.yul\":10099:10518   */\n    tag_54:\n        /* \"#utility.yul\":10265:10269   */\n      0x00\n        /* \"#utility.yul\":10303:10305   */\n      0x20\n        /* \"#utility.yul\":10292:10301   */\n      dup3\n        /* \"#utility.yul\":10288:10306   */\n      add\n        /* \"#utility.yul\":10280:10306   */\n      swap1\n      pop\n        /* \"#utility.yul\":10352:10361   */\n      dup2\n        /* \"#utility.yul\":10346:10350   */\n      dup2\n        /* \"#utility.yul\":10342:10362   */\n      sub\n        /* \"#utility.yul\":10338:10339   */\n      0x00\n        /* \"#utility.yul\":10327:10336   */\n      dup4\n        /* \"#utility.yul\":10323:10340   */\n      add\n        /* \"#utility.yul\":10316:10363   */\n      mstore\n        /* \"#utility.yul\":10380:10511   */\n      tag_389\n        /* \"#utility.yul\":10506:10510   */\n      dup2\n        /* \"#utility.yul\":10380:10511   */\n      tag_324\n      jump\t// in\n    tag_389:\n        /* \"#utility.yul\":10372:10511   */\n      swap1\n      pop\n        /* \"#utility.yul\":10099:10518   */\n      swap2\n      swap1\n      pop\n      jump\t// out\n        /* \"#utility.yul\":10524:10943   */\n    tag_172:\n        /* \"#utility.yul\":10690:10694   */\n      0x00\n        /* \"#utility.yul\":10728:10730   */\n      0x20\n        /* \"#utility.yul\":10717:10726   */\n      dup3\n        /* \"#utility.yul\":10713:10731   */\n      add\n        /* \"#utility.yul\":10705:10731   */\n      swap1\n      pop\n        /* \"#utility.yul\":10777:10786   */\n      dup2\n        /* \"#utility.yul\":10771:10775   */\n      dup2\n        /* \"#utility.yul\":10767:10787   */\n      sub\n        /* \"#utility.yul\":10763:10764   */\n      0x00\n        /* \"#utility.yul\":10752:10761   */\n      dup4\n        /* \"#utility.yul\":10748:10765   */\n      add\n        /* \"#utility.yul\":10741:10788   */\n      mstore\n        /* \"#utility.yul\":10805:10936   */\n      tag_391\n        /* \"#utility.yul\":10931:10935   */\n      dup2\n        /* \"#utility.yul\":10805:10936   */\n      tag_329\n      jump\t// in\n    tag_391:\n        /* \"#utility.yul\":10797:10936   */\n      swap1\n      pop\n        /* \"#utility.yul\":10524:10943   */\n      swap2\n      swap1\n      pop\n      jump\t// out\n        /* \"#utility.yul\":10949:11368   */\n    tag_105:\n        /* \"#utility.yul\":11115:11119   */\n      0x00\n        /* \"#utility.yul\":11153:11155   */\n      0x20\n        /* \"#utility.yul\":11142:11151   */\n      dup3\n        /* \"#utility.yul\":11138:11156   */\n      add\n        /* \"#utility.yul\":11130:11156   */\n      swap1\n      pop\n        /* \"#utility.yul\":11202:11211   */\n      dup2\n        /* \"#utility.yul\":11196:11200   */\n      dup2\n        /* \"#utility.yul\":11192:11212   */\n      sub\n        /* \"#utility.yul\":11188:11189   */\n      0x00\n        /* \"#utility.yul\":11177:11186   */\n      dup4\n        /* \"#utility.yul\":11173:11190   */\n      add\n        /* \"#utility.yul\":11166:11213   */\n      mstore\n        /* \"#utility.yul\":11230:11361   */\n      tag_393\n        /* \"#utility.yul\":11356:11360   */\n      dup2\n        /* \"#utility.yul\":11230:11361   */\n      tag_334\n      jump\t// in\n    tag_393:\n        /* \"#utility.yul\":11222:11361   */\n      swap1\n      pop\n        /* \"#utility.yul\":10949:11368   */\n      swap2\n      swap1\n      pop\n      jump\t// out\n        /* \"#utility.yul\":11374:11793   */\n    tag_77:\n        /* \"#utility.yul\":11540:11544   */\n      0x00\n        /* \"#utility.yul\":11578:11580   */\n      0x20\n        /* \"#utility.yul\":11567:11576   */\n      dup3\n        /* \"#utility.yul\":11563:11581   */\n      add\n        /* \"#utility.yul\":11555:11581   */\n      swap1\n      pop\n        /* \"#utility.yul\":11627:11636   */\n      dup2\n        /* \"#utility.yul\":11621:11625   */\n      dup2\n        /* \"#utility.yul\":11617:11637   */\n      sub\n        /* \"#utility.yul\":11613:11614   */\n      0x00\n        /* \"#utility.yul\":11602:11611   */\n      dup4\n        /* \"#utility.yul\":11598:11615   */\n      add\n        /* \"#utility.yul\":11591:11638   */\n      mstore\n        /* \"#utility.yul\":11655:11786   */\n      tag_395\n        /* \"#utility.yul\":11781:11785   */\n      dup2\n        /* \"#utility.yul\":11655:11786   */\n      tag_339\n      jump\t// in\n    tag_395:\n        /* \"#utility.yul\":11647:11786   */\n      swap1\n      pop\n        /* \"#utility.yul\":11374:11793   */\n      swap2\n      swap1\n      pop\n      jump\t// out\n        /* \"#utility.yul\":11799:12218   */\n    tag_110:\n        /* \"#utility.yul\":11965:11969   */\n      0x00\n        /* \"#utility.yul\":12003:12005   */\n      0x20\n        /* \"#utility.yul\":11992:12001   */\n      dup3\n        /* \"#utility.yul\":11988:12006   */\n      add\n        /* \"#utility.yul\":11980:12006   */\n      swap1\n      pop\n        /* \"#utility.yul\":12052:12061   */\n      dup2\n        /* \"#utility.yul\":12046:12050   */\n      dup2\n        /* \"#utility.yul\":12042:12062   */\n      sub\n        /* \"#utility.yul\":12038:12039   */\n      0x00\n        /* \"#utility.yul\":12027:12036   */\n      dup4\n        /* \"#utility.yul\":12023:12040   */\n      add\n        /* \"#utility.yul\":12016:12063   */\n      mstore\n        /* \"#utility.yul\":12080:12211   */\n      tag_397\n        /* \"#utility.yul\":12206:12210   */\n      dup2\n        /* \"#utility.yul\":12080:12211   */\n      tag_344\n      jump\t// in\n    tag_397:\n        /* \"#utility.yul\":12072:12211   */\n      swap1\n      pop\n        /* \"#utility.yul\":11799:12218   */\n      swap2\n      swap1\n      pop\n      jump\t// out\n        /* \"#utility.yul\":12224:12643   */\n    tag_46:\n        /* \"#utility.yul\":12390:12394   */\n      0x00\n        /* \"#utility.yul\":12428:12430   */\n      0x20\n        /* \"#utility.yul\":12417:12426   */\n      dup3\n        /* \"#utility.yul\":12413:12431   */\n      add\n        /* \"#utility.yul\":12405:12431   */\n      swap1\n      pop\n        /* \"#utility.yul\":12477:12486   */\n      dup2\n        /* \"#utility.yul\":12471:12475   */\n      dup2\n        /* \"#utility.yul\":12467:12487   */\n      sub\n        /* \"#utility.yul\":12463:12464   */\n      0x00\n        /* \"#utility.yul\":12452:12461   */\n      dup4\n        /* \"#utility.yul\":12448:12465   */\n      add\n        /* \"#utility.yul\":12441:12488   */\n      mstore\n        /* \"#utility.yul\":12505:12636   */\n      tag_399\n        /* \"#utility.yul\":12631:12635   */\n      dup2\n        /* \"#utility.yul\":12505:12636   */\n      tag_349\n      jump\t// in\n    tag_399:\n        /* \"#utility.yul\":12497:12636   */\n      swap1\n      pop\n        /* \"#utility.yul\":12224:12643   */\n      swap2\n      swap1\n      pop\n      jump\t// out\n        /* \"#utility.yul\":12649:12778   */\n    tag_239:\n        /* \"#utility.yul\":12683:12689   */\n      0x00\n        /* \"#utility.yul\":12710:12730   */\n      tag_401\n      tag_402\n      jump\t// in\n    tag_401:\n        /* \"#utility.yul\":12700:12730   */\n      swap1\n      pop\n        /* \"#utility.yul\":12739:12772   */\n      tag_403\n        /* \"#utility.yul\":12767:12771   */\n      dup3\n        /* \"#utility.yul\":12759:12765   */\n      dup3\n        /* \"#utility.yul\":12739:12772   */\n      tag_404\n      jump\t// in\n    tag_403:\n        /* \"#utility.yul\":12649:12778   */\n      swap2\n      swap1\n      pop\n      jump\t// out\n        /* \"#utility.yul\":12784:12859   */\n    tag_402:\n        /* \"#utility.yul\":12817:12823   */\n      0x00\n        /* \"#utility.yul\":12850:12852   */\n      0x40\n        /* \"#utility.yul\":12844:12853   */\n      mload\n        /* \"#utility.yul\":12834:12853   */\n      swap1\n      pop\n        /* \"#utility.yul\":12784:12859   */\n      swap1\n      jump\t// out\n        /* \"#utility.yul\":12865:13173   */\n    tag_238:\n        /* \"#utility.yul\":12927:12931   */\n      0x00\n        /* \"#utility.yul\":13017:13035   */\n      0xffffffffffffffff\n        /* \"#utility.yul\":13009:13015   */\n      dup3\n        /* \"#utility.yul\":13006:13036   */\n      gt\n        /* \"#utility.yul\":13003:13059   */\n      iszero\n      tag_407\n      jumpi\n        /* \"#utility.yul\":13039:13057   */\n      tag_408\n      tag_409\n      jump\t// in\n    tag_408:\n        /* \"#utility.yul\":13003:13059   */\n    tag_407:\n        /* \"#utility.yul\":13077:13106   */\n      tag_410\n        /* \"#utility.yul\":13099:13105   */\n      dup3\n        /* \"#utility.yul\":13077:13106   */\n      tag_309\n      jump\t// in\n    tag_410:\n        /* \"#utility.yul\":13069:13106   */\n      swap1\n      pop\n        /* \"#utility.yul\":13161:13165   */\n      0x20\n        /* \"#utility.yul\":13155:13159   */\n      dup2\n        /* \"#utility.yul\":13151:13166   */\n      add\n        /* \"#utility.yul\":13143:13166   */\n      swap1\n      pop\n        /* \"#utility.yul\":12865:13173   */\n      swap2\n      swap1\n      pop\n      jump\t// out\n        /* \"#utility.yul\":13179:13277   */\n    tag_303:\n        /* \"#utility.yul\":13230:13236   */\n      0x00\n        /* \"#utility.yul\":13264:13269   */\n      dup2\n        /* \"#utility.yul\":13258:13270   */\n      mload\n        /* \"#utility.yul\":13248:13270   */\n      swap1\n      pop\n        /* \"#utility.yul\":13179:13277   */\n      swap2\n      swap1\n      pop\n      jump\t// out\n        /* \"#utility.yul\":13283:13382   */\n    tag_319:\n        /* \"#utility.yul\":13335:13341   */\n      0x00\n        /* \"#utility.yul\":13369:13374   */\n      dup2\n        /* \"#utility.yul\":13363:13375   */\n      mload\n        /* \"#utility.yul\":13353:13375   */\n      swap1\n      pop\n        /* \"#utility.yul\":13283:13382   */\n      swap2\n      swap1\n      pop\n      jump\t// out\n        /* \"#utility.yul\":13388:13556   */\n    tag_305:\n        /* \"#utility.yul\":13471:13482   */\n      0x00\n        /* \"#utility.yul\":13505:13511   */\n      dup3\n        /* \"#utility.yul\":13500:13503   */\n      dup3\n        /* \"#utility.yul\":13493:13512   */\n      mstore\n        /* \"#utility.yul\":13545:13549   */\n      0x20\n        /* \"#utility.yul\":13540:13543   */\n      dup3\n        /* \"#utility.yul\":13536:13550   */\n      add\n        /* \"#utility.yul\":13521:13550   */\n      swap1\n      pop\n        /* \"#utility.yul\":13388:13556   */\n      swap3\n      swap2\n      pop\n      pop\n      jump\t// out\n        /* \"#utility.yul\":13562:13731   */\n    tag_321:\n        /* \"#utility.yul\":13646:13657   */\n      0x00\n        /* \"#utility.yul\":13680:13686   */\n      dup3\n        /* \"#utility.yul\":13675:13678   */\n      dup3\n        /* \"#utility.yul\":13668:13687   */\n      mstore\n        /* \"#utility.yul\":13720:13724   */\n      0x20\n        /* \"#utility.yul\":13715:13718   */\n      dup3\n        /* \"#utility.yul\":13711:13725   */\n      add\n        /* \"#utility.yul\":13696:13725   */\n      swap1\n      pop\n        /* \"#utility.yul\":13562:13731   */\n      swap3\n      swap2\n      pop\n      pop\n      jump\t// out\n        /* \"#utility.yul\":13737:14042   */\n    tag_122:\n        /* \"#utility.yul\":13777:13780   */\n      0x00\n        /* \"#utility.yul\":13796:13816   */\n      tag_416\n        /* \"#utility.yul\":13814:13815   */\n      dup3\n        /* \"#utility.yul\":13796:13816   */\n      tag_357\n      jump\t// in\n    tag_416:\n        /* \"#utility.yul\":13791:13816   */\n      swap2\n      pop\n        /* \"#utility.yul\":13830:13850   */\n      tag_417\n        /* \"#utility.yul\":13848:13849   */\n      dup4\n        /* \"#utility.yul\":13830:13850   */\n      tag_357\n      jump\t// in\n    tag_417:\n        /* \"#utility.yul\":13825:13850   */\n      swap3\n      pop\n        /* \"#utility.yul\":13984:13985   */\n      dup3\n        /* \"#utility.yul\":13916:13982   */\n      0xffffffffffffffffffffffffffffffffffffffffffffffffffffffffffffffff\n        /* \"#utility.yul\":13912:13986   */\n      sub\n        /* \"#utility.yul\":13909:13910   */\n      dup3\n        /* \"#utility.yul\":13906:13987   */\n      gt\n        /* \"#utility.yul\":13903:14010   */\n      iszero\n      tag_418\n      jumpi\n        /* \"#utility.yul\":13990:14008   */\n      tag_419\n      tag_420\n      jump\t// in\n    tag_419:\n        /* \"#utility.yul\":13903:14010   */\n    tag_418:\n        /* \"#utility.yul\":14034:14035   */\n      dup3\n        /* \"#utility.yul\":14031:14032   */\n      dup3\n        /* \"#utility.yul\":14027:14036   */\n      add\n        /* \"#utility.yul\":14020:14036   */\n      swap1\n      pop\n        /* \"#utility.yul\":13737:14042   */\n      swap3\n      swap2\n      pop\n      pop\n      jump\t// out\n        /* \"#utility.yul\":14048:14896   */\n    tag_421:\n        /* \"#utility.yul\":14109:14114   */\n      0x00\n        /* \"#utility.yul\":14116:14120   */\n      dup1\n        /* \"#utility.yul\":14140:14146   */\n      dup3\n        /* \"#utility.yul\":14131:14146   */\n      swap2\n      pop\n        /* \"#utility.yul\":14164:14169   */\n      dup4\n        /* \"#utility.yul\":14155:14169   */\n      swap1\n      pop\n        /* \"#utility.yul\":14178:14890   */\n    tag_423:\n        /* \"#utility.yul\":14199:14200   */\n      0x01\n        /* \"#utility.yul\":14189:14197   */\n      dup6\n        /* \"#utility.yul\":14186:14201   */\n      gt\n        /* \"#utility.yul\":14178:14890   */\n      iszero\n      tag_425\n      jumpi\n        /* \"#utility.yul\":14294:14298   */\n      dup1\n        /* \"#utility.yul\":14289:14292   */\n      dup7\n        /* \"#utility.yul\":14285:14299   */\n      div\n        /* \"#utility.yul\":14279:14283   */\n      dup2\n        /* \"#utility.yul\":14276:14300   */\n      gt\n        /* \"#utility.yul\":14273:14323   */\n      iszero\n      tag_426\n      jumpi\n        /* \"#utility.yul\":14303:14321   */\n      tag_427\n      tag_420\n      jump\t// in\n    tag_427:\n        /* \"#utility.yul\":14273:14323   */\n    tag_426:\n        /* \"#utility.yul\":14353:14354   */\n      0x01\n        /* \"#utility.yul\":14343:14351   */\n      dup6\n        /* \"#utility.yul\":14339:14355   */\n      and\n        /* \"#utility.yul\":14336:14787   */\n      iszero\n      tag_428\n      jumpi\n        /* \"#utility.yul\":14768:14772   */\n      dup1\n        /* \"#utility.yul\":14761:14766   */\n      dup3\n        /* \"#utility.yul\":14757:14773   */\n      mul\n        /* \"#utility.yul\":14748:14773   */\n      swap2\n      pop\n        /* \"#utility.yul\":14336:14787   */\n    tag_428:\n        /* \"#utility.yul\":14818:14822   */\n      dup1\n        /* \"#utility.yul\":14812:14816   */\n      dup2\n        /* \"#utility.yul\":14808:14823   */\n      mul\n        /* \"#utility.yul\":14800:14823   */\n      swap1\n      pop\n        /* \"#utility.yul\":14848:14880   */\n      tag_429\n        /* \"#utility.yul\":14871:14879   */\n      dup6\n        /* \"#utility.yul\":14848:14880   */\n      tag_430\n      jump\t// in\n    tag_429:\n        /* \"#utility.yul\":14836:14880   */\n      swap5\n      pop\n        /* \"#utility.yul\":14178:14890   */\n      jump(tag_423)\n    tag_425:\n        /* \"#utility.yul\":14048:14896   */\n      swap5\n      pop\n      swap5\n      swap3\n      pop\n      pop\n      pop\n      jump\t// out\n        /* \"#utility.yul\":14902:15187   */\n    tag_214:\n        /* \"#utility.yul\":14962:14967   */\n      0x00\n        /* \"#utility.yul\":14986:15009   */\n      tag_432\n        /* \"#utility.yul\":15004:15008   */\n      dup3\n        /* \"#utility.yul\":14986:15009   */\n      tag_357\n      jump\t// in\n    tag_432:\n        /* \"#utility.yul\":14978:15009   */\n      swap2\n      pop\n        /* \"#utility.yul\":15030:15057   */\n      tag_433\n        /* \"#utility.yul\":15048:15056   */\n      dup4\n        /* \"#utility.yul\":15030:15057   */\n      tag_357\n      jump\t// in\n    tag_433:\n        /* \"#utility.yul\":15018:15057   */\n      swap3\n      pop\n        /* \"#utility.yul\":15076:15180   */\n      tag_434\n        /* \"#utility.yul\":15113:15179   */\n      0xffffffffffffffffffffffffffffffffffffffffffffffffffffffffffffffff\n        /* \"#utility.yul\":15103:15111   */\n      dup5\n        /* \"#utility.yul\":15097:15101   */\n      dup5\n        /* \"#utility.yul\":15076:15180   */\n      tag_435\n      jump\t// in\n    tag_434:\n        /* \"#utility.yul\":15067:15180   */\n      swap1\n      pop\n        /* \"#utility.yul\":14902:15187   */\n      swap3\n      swap2\n      pop\n      pop\n      jump\t// out\n        /* \"#utility.yul\":15193:16266   */\n    tag_435:\n        /* \"#utility.yul\":15247:15252   */\n      0x00\n        /* \"#utility.yul\":15438:15446   */\n      dup3\n        /* \"#utility.yul\":15428:15468   */\n      tag_437\n      jumpi\n        /* \"#utility.yul\":15459:15460   */\n      0x01\n        /* \"#utility.yul\":15450:15460   */\n      swap1\n      pop\n        /* \"#utility.yul\":15461:15466   */\n      jump(tag_436)\n        /* \"#utility.yul\":15428:15468   */\n    tag_437:\n        /* \"#utility.yul\":15487:15491   */\n      dup2\n        /* \"#utility.yul\":15477:15513   */\n      tag_438\n      jumpi\n        /* \"#utility.yul\":15504:15505   */\n      0x00\n        /* \"#utility.yul\":15495:15505   */\n      swap1\n      pop\n        /* \"#utility.yul\":15506:15511   */\n      jump(tag_436)\n        /* \"#utility.yul\":15477:15513   */\n    tag_438:\n        /* \"#utility.yul\":15573:15577   */\n      dup2\n        /* \"#utility.yul\":15621:15622   */\n      0x01\n        /* \"#utility.yul\":15616:15643   */\n      dup2\n      eq\n      tag_440\n      jumpi\n        /* \"#utility.yul\":15657:15658   */\n      0x02\n        /* \"#utility.yul\":15652:15843   */\n      dup2\n      eq\n      tag_441\n      jumpi\n        /* \"#utility.yul\":15566:15843   */\n      jump(tag_439)\n        /* \"#utility.yul\":15616:15643   */\n    tag_440:\n        /* \"#utility.yul\":15634:15635   */\n      0x01\n        /* \"#utility.yul\":15625:15635   */\n      swap2\n      pop\n        /* \"#utility.yul\":15636:15641   */\n      pop\n      jump(tag_436)\n        /* \"#utility.yul\":15652:15843   */\n    tag_441:\n        /* \"#utility.yul\":15697:15700   */\n      0xff\n        /* \"#utility.yul\":15687:15695   */\n      dup5\n        /* \"#utility.yul\":15684:15701   */\n      gt\n        /* \"#utility.yul\":15681:15724   */\n      iszero\n      tag_442\n      jumpi\n        /* \"#utility.yul\":15704:15722   */\n      tag_443\n      tag_420\n      jump\t// in\n    tag_443:\n        /* \"#utility.yul\":15681:15724   */\n    tag_442:\n        /* \"#utility.yul\":15753:15761   */\n      dup4\n        /* \"#utility.yul\":15750:15751   */\n      0x02\n        /* \"#utility.yul\":15746:15762   */\n      exp\n        /* \"#utility.yul\":15737:15762   */\n      swap2\n      pop\n        /* \"#utility.yul\":15788:15791   */\n      dup5\n        /* \"#utility.yul\":15781:15786   */\n      dup3\n        /* \"#utility.yul\":15778:15792   */\n      gt\n        /* \"#utility.yul\":15775:15815   */\n      iszero\n      tag_444\n      jumpi\n        /* \"#utility.yul\":15795:15813   */\n      tag_445\n      tag_420\n      jump\t// in\n    tag_445:\n        /* \"#utility.yul\":15775:15815   */\n    tag_444:\n        /* \"#utility.yul\":15828:15833   */\n      pop\n      jump(tag_436)\n        /* \"#utility.yul\":15566:15843   */\n    tag_439:\n      pop\n        /* \"#utility.yul\":15952:15954   */\n      0x20\n        /* \"#utility.yul\":15942:15950   */\n      dup4\n        /* \"#utility.yul\":15939:15955   */\n      lt\n        /* \"#utility.yul\":15933:15936   */\n      0x0133\n        /* \"#utility.yul\":15927:15931   */\n      dup4\n        /* \"#utility.yul\":15924:15937   */\n      lt\n        /* \"#utility.yul\":15920:15956   */\n      and\n        /* \"#utility.yul\":15902:15904   */\n      0x4e\n        /* \"#utility.yul\":15892:15900   */\n      dup5\n        /* \"#utility.yul\":15889:15905   */\n      lt\n        /* \"#utility.yul\":15884:15886   */\n      0x0b\n        /* \"#utility.yul\":15878:15882   */\n      dup5\n        /* \"#utility.yul\":15875:15887   */\n      lt\n        /* \"#utility.yul\":15871:15906   */\n      and\n        /* \"#utility.yul\":15855:15966   */\n      or\n        /* \"#utility.yul\":15852:16098   */\n      iszero\n      tag_446\n      jumpi\n        /* \"#utility.yul\":16008:16016   */\n      dup3\n        /* \"#utility.yul\":16002:16006   */\n      dup3\n        /* \"#utility.yul\":15998:16017   */\n      exp\n        /* \"#utility.yul\":15989:16017   */\n      swap1\n      pop\n        /* \"#utility.yul\":16043:16046   */\n      dup4\n        /* \"#utility.yul\":16036:16041   */\n      dup2\n        /* \"#utility.yul\":16033:16047   */\n      gt\n        /* \"#utility.yul\":16030:16070   */\n      iszero\n      tag_447\n      jumpi\n        /* \"#utility.yul\":16050:16068   */\n      tag_448\n      tag_420\n      jump\t// in\n    tag_448:\n        /* \"#utility.yul\":16030:16070   */\n    tag_447:\n        /* \"#utility.yul\":16083:16088   */\n      jump(tag_436)\n        /* \"#utility.yul\":15852:16098   */\n    tag_446:\n        /* \"#utility.yul\":16123:16165   */\n      tag_449\n        /* \"#utility.yul\":16161:16164   */\n      dup5\n        /* \"#utility.yul\":16151:16159   */\n      dup5\n        /* \"#utility.yul\":16145:16149   */\n      dup5\n        /* \"#utility.yul\":16142:16143   */\n      0x01\n        /* \"#utility.yul\":16123:16165   */\n      tag_421\n      jump\t// in\n    tag_449:\n        /* \"#utility.yul\":16108:16165   */\n      swap3\n      pop\n      swap1\n      pop\n        /* \"#utility.yul\":16197:16201   */\n      dup2\n        /* \"#utility.yul\":16192:16195   */\n      dup5\n        /* \"#utility.yul\":16188:16202   */\n      div\n        /* \"#utility.yul\":16181:16186   */\n      dup2\n        /* \"#utility.yul\":16178:16203   */\n      gt\n        /* \"#utility.yul\":16175:16226   */\n      iszero\n      tag_450\n      jumpi\n        /* \"#utility.yul\":16206:16224   */\n      tag_451\n      tag_420\n      jump\t// in\n    tag_451:\n        /* \"#utility.yul\":16175:16226   */\n    tag_450:\n        /* \"#utility.yul\":16255:16259   */\n      dup2\n        /* \"#utility.yul\":16248:16253   */\n      dup2\n        /* \"#utility.yul\":16244:16260   */\n      mul\n        /* \"#utility.yul\":16235:16260   */\n      swap1\n      pop\n        /* \"#utility.yul\":15193:16266   */\n    tag_436:\n      swap4\n      swap3\n      pop\n      pop\n      pop\n      jump\t// out\n        /* \"#utility.yul\":16272:16620   */\n    tag_191:\n        /* \"#utility.yul\":16312:16319   */\n      0x00\n        /* \"#utility.yul\":16335:16355   */\n      tag_453\n        /* \"#utility.yul\":16353:16354   */\n      dup3\n        /* \"#utility.yul\":16335:16355   */\n      tag_357\n      jump\t// in\n    tag_453:\n        /* \"#utility.yul\":16330:16355   */\n      swap2\n      pop\n        /* \"#utility.yul\":16369:16389   */\n      tag_454\n        /* \"#utility.yul\":16387:16388   */\n      dup4\n        /* \"#utility.yul\":16369:16389   */\n      tag_357\n      jump\t// in\n    tag_454:\n        /* \"#utility.yul\":16364:16389   */\n      swap3\n      pop\n        /* \"#utility.yul\":16557:16558   */\n      dup2\n        /* \"#utility.yul\":16489:16555   */\n      0xffffffffffffffffffffffffffffffffffffffffffffffffffffffffffffffff\n        /* \"#utility.yul\":16485:16559   */\n      div\n        /* \"#utility.yul\":16482:16483   */\n      dup4\n        /* \"#utility.yul\":16479:16560   */\n      gt\n        /* \"#utility.yul\":16474:16475   */\n      dup3\n        /* \"#utility.yul\":16467:16476   */\n      iszero\n        /* \"#utility.yul\":16460:16477   */\n      iszero\n        /* \"#utility.yul\":16456:16561   */\n      and\n        /* \"#utility.yul\":16453:16584   */\n      iszero\n      tag_455\n      jumpi\n        /* \"#utility.yul\":16564:16582   */\n      tag_456\n      tag_420\n      jump\t// in\n    tag_456:\n        /* \"#utility.yul\":16453:16584   */\n    tag_455:\n        /* \"#utility.yul\":16612:16613   */\n      dup3\n        /* \"#utility.yul\":16609:16610   */\n      dup3\n        /* \"#utility.yul\":16605:16614   */\n      mul\n        /* \"#utility.yul\":16594:16614   */\n      swap1\n      pop\n        /* \"#utility.yul\":16272:16620   */\n      swap3\n      swap2\n      pop\n      pop\n      jump\t// out\n        /* \"#utility.yul\":16626:16817   */\n    tag_135:\n        /* \"#utility.yul\":16666:16670   */\n      0x00\n        /* \"#utility.yul\":16686:16706   */\n      tag_458\n        /* \"#utility.yul\":16704:16705   */\n      dup3\n        /* \"#utility.yul\":16686:16706   */\n      tag_357\n      jump\t// in\n    tag_458:\n        /* \"#utility.yul\":16681:16706   */\n      swap2\n      pop\n        /* \"#utility.yul\":16720:16740   */\n      tag_459\n        /* \"#utility.yul\":16738:16739   */\n      dup4\n        /* \"#utility.yul\":16720:16740   */\n      tag_357\n      jump\t// in\n    tag_459:\n        /* \"#utility.yul\":16715:16740   */\n      swap3\n      pop\n        /* \"#utility.yul\":16759:16760   */\n      dup3\n        /* \"#utility.yul\":16756:16757   */\n      dup3\n        /* \"#utility.yul\":16753:16761   */\n      lt\n        /* \"#utility.yul\":16750:16784   */\n      iszero\n      tag_460\n      jumpi\n        /* \"#utility.yul\":16764:16782   */\n      tag_461\n      tag_420\n      jump\t// in\n    tag_461:\n        /* \"#utility.yul\":16750:16784   */\n    tag_460:\n        /* \"#utility.yul\":16809:16810   */\n      dup3\n        /* \"#utility.yul\":16806:16807   */\n      dup3\n        /* \"#utility.yul\":16802:16811   */\n      sub\n        /* \"#utility.yul\":16794:16811   */\n      swap1\n      pop\n        /* \"#utility.yul\":16626:16817   */\n      swap3\n      swap2\n      pop\n      pop\n      jump\t// out\n        /* \"#utility.yul\":16823:16919   */\n    tag_291:\n        /* \"#utility.yul\":16860:16867   */\n      0x00\n        /* \"#utility.yul\":16889:16913   */\n      tag_463\n        /* \"#utility.yul\":16907:16912   */\n      dup3\n        /* \"#utility.yul\":16889:16913   */\n      tag_464\n      jump\t// in\n    tag_463:\n        /* \"#utility.yul\":16878:16913   */\n      swap1\n      pop\n        /* \"#utility.yul\":16823:16919   */\n      swap2\n      swap1\n      pop\n      jump\t// out\n        /* \"#utility.yul\":16925:17015   */\n    tag_465:\n        /* \"#utility.yul\":16959:16966   */\n      0x00\n        /* \"#utility.yul\":17002:17007   */\n      dup2\n        /* \"#utility.yul\":16995:17008   */\n      iszero\n        /* \"#utility.yul\":16988:17009   */\n      iszero\n        /* \"#utility.yul\":16977:17009   */\n      swap1\n      pop\n        /* \"#utility.yul\":16925:17015   */\n      swap2\n      swap1\n      pop\n      jump\t// out\n        /* \"#utility.yul\":17021:17098   */\n    tag_295:\n        /* \"#utility.yul\":17058:17065   */\n      0x00\n        /* \"#utility.yul\":17087:17092   */\n      dup2\n        /* \"#utility.yul\":17076:17092   */\n      swap1\n      pop\n        /* \"#utility.yul\":17021:17098   */\n      swap2\n      swap1\n      pop\n      jump\t// out\n        /* \"#utility.yul\":17104:17253   */\n    tag_299:\n        /* \"#utility.yul\":17140:17147   */\n      0x00\n        /* \"#utility.yul\":17180:17246   */\n      0xffffffff00000000000000000000000000000000000000000000000000000000\n        /* \"#utility.yul\":17173:17178   */\n      dup3\n        /* \"#utility.yul\":17169:17247   */\n      and\n        /* \"#utility.yul\":17158:17247   */\n      swap1\n      pop\n        /* \"#utility.yul\":17104:17253   */\n      swap2\n      swap1\n      pop\n      jump\t// out\n        /* \"#utility.yul\":17259:17385   */\n    tag_464:\n        /* \"#utility.yul\":17296:17303   */\n      0x00\n        /* \"#utility.yul\":17336:17378   */\n      0xffffffffffffffffffffffffffffffffffffffff\n        /* \"#utility.yul\":17329:17334   */\n      dup3\n        /* \"#utility.yul\":17325:17379   */\n      and\n        /* \"#utility.yul\":17314:17379   */\n      swap1\n      pop\n        /* \"#utility.yul\":17259:17385   */\n      swap2\n      swap1\n      pop\n      jump\t// out\n        /* \"#utility.yul\":17391:17468   */\n    tag_357:\n        /* \"#utility.yul\":17428:17435   */\n      0x00\n        /* \"#utility.yul\":17457:17462   */\n      dup2\n        /* \"#utility.yul\":17446:17462   */\n      swap1\n      pop\n        /* \"#utility.yul\":17391:17468   */\n      swap2\n      swap1\n      pop\n      jump\t// out\n        /* \"#utility.yul\":17474:17623   */\n    tag_314:\n        /* \"#utility.yul\":17547:17556   */\n      0x00\n        /* \"#utility.yul\":17580:17617   */\n      tag_472\n        /* \"#utility.yul\":17611:17616   */\n      dup3\n        /* \"#utility.yul\":17580:17617   */\n      tag_473\n      jump\t// in\n    tag_472:\n        /* \"#utility.yul\":17567:17617   */\n      swap1\n      pop\n        /* \"#utility.yul\":17474:17623   */\n      swap2\n      swap1\n      pop\n      jump\t// out\n        /* \"#utility.yul\":17629:17755   */\n    tag_473:\n        /* \"#utility.yul\":17679:17688   */\n      0x00\n        /* \"#utility.yul\":17712:17749   */\n      tag_475\n        /* \"#utility.yul\":17743:17748   */\n      dup3\n        /* \"#utility.yul\":17712:17749   */\n      tag_476\n      jump\t// in\n    tag_475:\n        /* \"#utility.yul\":17699:17749   */\n      swap1\n      pop\n        /* \"#utility.yul\":17629:17755   */\n      swap2\n      swap1\n      pop\n      jump\t// out\n        /* \"#utility.yul\":17761:17874   */\n    tag_476:\n        /* \"#utility.yul\":17811:17820   */\n      0x00\n        /* \"#utility.yul\":17844:17868   */\n      tag_478\n        /* \"#utility.yul\":17862:17867   */\n      dup3\n        /* \"#utility.yul\":17844:17868   */\n      tag_464\n      jump\t// in\n    tag_478:\n        /* \"#utility.yul\":17831:17868   */\n      swap1\n      pop\n        /* \"#utility.yul\":17761:17874   */\n      swap2\n      swap1\n      pop\n      jump\t// out\n        /* \"#utility.yul\":17880:18034   */\n    tag_244:\n        /* \"#utility.yul\":17964:17970   */\n      dup3\n        /* \"#utility.yul\":17959:17962   */\n      dup2\n        /* \"#utility.yul\":17954:17957   */\n      dup4\n        /* \"#utility.yul\":17941:17971   */\n      calldatacopy\n        /* \"#utility.yul\":18026:18027   */\n      0x00\n        /* \"#utility.yul\":18017:18023   */\n      dup4\n        /* \"#utility.yul\":18012:18015   */\n      dup4\n        /* \"#utility.yul\":18008:18024   */\n      add\n        /* \"#utility.yul\":18001:18028   */\n      mstore\n        /* \"#utility.yul\":17880:18034   */\n      pop\n      pop\n      pop\n      jump\t// out\n        /* \"#utility.yul\":18040:18347   */\n    tag_307:\n        /* \"#utility.yul\":18108:18109   */\n      0x00\n        /* \"#utility.yul\":18118:18231   */\n    tag_481:\n        /* \"#utility.yul\":18132:18138   */\n      dup4\n        /* \"#utility.yul\":18129:18130   */\n      dup2\n        /* \"#utility.yul\":18126:18139   */\n      lt\n        /* \"#utility.yul\":18118:18231   */\n      iszero\n      tag_483\n      jumpi\n        /* \"#utility.yul\":18217:18218   */\n      dup1\n        /* \"#utility.yul\":18212:18215   */\n      dup3\n        /* \"#utility.yul\":18208:18219   */\n      add\n        /* \"#utility.yul\":18202:18220   */\n      mload\n        /* \"#utility.yul\":18198:18199   */\n      dup2\n        /* \"#utility.yul\":18193:18196   */\n      dup5\n        /* \"#utility.yul\":18189:18200   */\n      add\n        /* \"#utility.yul\":18182:18221   */\n      mstore\n        /* \"#utility.yul\":18154:18156   */\n      0x20\n        /* \"#utility.yul\":18151:18152   */\n      dup2\n        /* \"#utility.yul\":18147:18157   */\n      add\n        /* \"#utility.yul\":18142:18157   */\n      swap1\n      pop\n        /* \"#utility.yul\":18118:18231   */\n      jump(tag_481)\n    tag_483:\n        /* \"#utility.yul\":18249:18255   */\n      dup4\n        /* \"#utility.yul\":18246:18247   */\n      dup2\n        /* \"#utility.yul\":18243:18256   */\n      gt\n        /* \"#utility.yul\":18240:18341   */\n      iszero\n      tag_484\n      jumpi\n        /* \"#utility.yul\":18329:18330   */\n      0x00\n        /* \"#utility.yul\":18320:18326   */\n      dup5\n        /* \"#utility.yul\":18315:18318   */\n      dup5\n        /* \"#utility.yul\":18311:18327   */\n      add\n        /* \"#utility.yul\":18304:18331   */\n      mstore\n        /* \"#utility.yul\":18240:18341   */\n    tag_484:\n        /* \"#utility.yul\":18089:18347   */\n      pop\n        /* \"#utility.yul\":18040:18347   */\n      pop\n      pop\n      pop\n      jump\t// out\n        /* \"#utility.yul\":18353:18673   */\n    tag_79:\n        /* \"#utility.yul\":18397:18403   */\n      0x00\n        /* \"#utility.yul\":18434:18435   */\n      0x02\n        /* \"#utility.yul\":18428:18432   */\n      dup3\n        /* \"#utility.yul\":18424:18436   */\n      div\n        /* \"#utility.yul\":18414:18436   */\n      swap1\n      pop\n        /* \"#utility.yul\":18481:18482   */\n      0x01\n        /* \"#utility.yul\":18475:18479   */\n      dup3\n        /* \"#utility.yul\":18471:18483   */\n      and\n        /* \"#utility.yul\":18502:18520   */\n      dup1\n        /* \"#utility.yul\":18492:18573   */\n      tag_486\n      jumpi\n        /* \"#utility.yul\":18558:18562   */\n      0x7f\n        /* \"#utility.yul\":18550:18556   */\n      dup3\n        /* \"#utility.yul\":18546:18563   */\n      and\n        /* \"#utility.yul\":18536:18563   */\n      swap2\n      pop\n        /* \"#utility.yul\":18492:18573   */\n    tag_486:\n        /* \"#utility.yul\":18620:18622   */\n      0x20\n        /* \"#utility.yul\":18612:18618   */\n      dup3\n        /* \"#utility.yul\":18609:18623   */\n      lt\n        /* \"#utility.yul\":18589:18607   */\n      dup2\n        /* \"#utility.yul\":18586:18624   */\n      eq\n        /* \"#utility.yul\":18583:18667   */\n      iszero\n      tag_487\n      jumpi\n        /* \"#utility.yul\":18639:18657   */\n      tag_488\n      tag_489\n      jump\t// in\n    tag_488:\n        /* \"#utility.yul\":18583:18667   */\n    tag_487:\n        /* \"#utility.yul\":18404:18673   */\n      pop\n        /* \"#utility.yul\":18353:18673   */\n      swap2\n      swap1\n      pop\n      jump\t// out\n        /* \"#utility.yul\":18679:18960   */\n    tag_404:\n        /* \"#utility.yul\":18762:18789   */\n      tag_491\n        /* \"#utility.yul\":18784:18788   */\n      dup3\n        /* \"#utility.yul\":18762:18789   */\n      tag_309\n      jump\t// in\n    tag_491:\n        /* \"#utility.yul\":18754:18760   */\n      dup2\n        /* \"#utility.yul\":18750:18790   */\n      add\n        /* \"#utility.yul\":18892:18898   */\n      dup2\n        /* \"#utility.yul\":18880:18890   */\n      dup2\n        /* \"#utility.yul\":18877:18899   */\n      lt\n        /* \"#utility.yul\":18856:18874   */\n      0xffffffffffffffff\n        /* \"#utility.yul\":18844:18854   */\n      dup3\n        /* \"#utility.yul\":18841:18875   */\n      gt\n        /* \"#utility.yul\":18838:18900   */\n      or\n        /* \"#utility.yul\":18835:18923   */\n      iszero\n      tag_492\n      jumpi\n        /* \"#utility.yul\":18903:18921   */\n      tag_493\n      tag_409\n      jump\t// in\n    tag_493:\n        /* \"#utility.yul\":18835:18923   */\n    tag_492:\n        /* \"#utility.yul\":18943:18953   */\n      dup1\n        /* \"#utility.yul\":18939:18941   */\n      0x40\n        /* \"#utility.yul\":18932:18954   */\n      mstore\n        /* \"#utility.yul\":18722:18960   */\n      pop\n        /* \"#utility.yul\":18679:18960   */\n      pop\n      pop\n      jump\t// out\n        /* \"#utility.yul\":18966:19066   */\n    tag_315:\n        /* \"#utility.yul\":19005:19012   */\n      0x00\n        /* \"#utility.yul\":19034:19060   */\n      tag_495\n        /* \"#utility.yul\":19054:19059   */\n      dup3\n        /* \"#utility.yul\":19034:19060   */\n      tag_496\n      jump\t// in\n    tag_495:\n        /* \"#utility.yul\":19023:19060   */\n      swap1\n      pop\n        /* \"#utility.yul\":18966:19066   */\n      swap2\n      swap1\n      pop\n      jump\t// out\n        /* \"#utility.yul\":19072:19166   */\n    tag_496:\n        /* \"#utility.yul\":19111:19118   */\n      0x00\n        /* \"#utility.yul\":19140:19160   */\n      tag_498\n        /* \"#utility.yul\":19154:19159   */\n      dup3\n        /* \"#utility.yul\":19140:19160   */\n      tag_499\n      jump\t// in\n    tag_498:\n        /* \"#utility.yul\":19129:19160   */\n      swap1\n      pop\n        /* \"#utility.yul\":19072:19166   */\n      swap2\n      swap1\n      pop\n      jump\t// out\n        /* \"#utility.yul\":19172:19251   */\n    tag_362:\n        /* \"#utility.yul\":19211:19218   */\n      0x00\n        /* \"#utility.yul\":19240:19245   */\n      dup2\n        /* \"#utility.yul\":19229:19245   */\n      swap1\n      pop\n        /* \"#utility.yul\":19172:19251   */\n      swap2\n      swap1\n      pop\n      jump\t// out\n        /* \"#utility.yul\":19257:19433   */\n    tag_131:\n        /* \"#utility.yul\":19289:19290   */\n      0x00\n        /* \"#utility.yul\":19306:19326   */\n      tag_502\n        /* \"#utility.yul\":19324:19325   */\n      dup3\n        /* \"#utility.yul\":19306:19326   */\n      tag_357\n      jump\t// in\n    tag_502:\n        /* \"#utility.yul\":19301:19326   */\n      swap2\n      pop\n        /* \"#utility.yul\":19340:19360   */\n      tag_503\n        /* \"#utility.yul\":19358:19359   */\n      dup4\n        /* \"#utility.yul\":19340:19360   */\n      tag_357\n      jump\t// in\n    tag_503:\n        /* \"#utility.yul\":19335:19360   */\n      swap3\n      pop\n        /* \"#utility.yul\":19379:19380   */\n      dup3\n        /* \"#utility.yul\":19369:19404   */\n      tag_504\n      jumpi\n        /* \"#utility.yul\":19384:19402   */\n      tag_505\n      tag_506\n      jump\t// in\n    tag_505:\n        /* \"#utility.yul\":19369:19404   */\n    tag_504:\n        /* \"#utility.yul\":19425:19426   */\n      dup3\n        /* \"#utility.yul\":19422:19423   */\n      dup3\n        /* \"#utility.yul\":19418:19427   */\n      mod\n        /* \"#utility.yul\":19413:19427   */\n      swap1\n      pop\n        /* \"#utility.yul\":19257:19433   */\n      swap3\n      swap2\n      pop\n      pop\n      jump\t// out\n        /* \"#utility.yul\":19439:19619   */\n    tag_420:\n        /* \"#utility.yul\":19487:19564   */\n      0x4e487b7100000000000000000000000000000000000000000000000000000000\n        /* \"#utility.yul\":19484:19485   */\n      0x00\n        /* \"#utility.yul\":19477:19565   */\n      mstore\n        /* \"#utility.yul\":19584:19588   */\n      0x11\n        /* \"#utility.yul\":19581:19582   */\n      0x04\n        /* \"#utility.yul\":19574:19589   */\n      mstore\n        /* \"#utility.yul\":19608:19612   */\n      0x24\n        /* \"#utility.yul\":19605:19606   */\n      0x00\n        /* \"#utility.yul\":19598:19613   */\n      revert\n        /* \"#utility.yul\":19625:19805   */\n    tag_506:\n        /* \"#utility.yul\":19673:19750   */\n      0x4e487b7100000000000000000000000000000000000000000000000000000000\n        /* \"#utility.yul\":19670:19671   */\n      0x00\n        /* \"#utility.yul\":19663:19751   */\n      mstore\n        /* \"#utility.yul\":19770:19774   */\n      0x12\n        /* \"#utility.yul\":19767:19768   */\n      0x04\n        /* \"#utility.yul\":19760:19775   */\n      mstore\n        /* \"#utility.yul\":19794:19798   */\n      0x24\n        /* \"#utility.yul\":19791:19792   */\n      0x00\n        /* \"#utility.yul\":19784:19799   */\n      revert\n        /* \"#utility.yul\":19811:19991   */\n    tag_489:\n        /* \"#utility.yul\":19859:19936   */\n      0x4e487b7100000000000000000000000000000000000000000000000000000000\n        /* \"#utility.yul\":19856:19857   */\n      0x00\n        /* \"#utility.yul\":19849:19937   */\n      mstore\n        /* \"#utility.yul\":19956:19960   */\n      0x22\n        /* \"#utility.yul\":19953:19954   */\n      0x04\n        /* \"#utility.yul\":19946:19961   */\n      mstore\n        /* \"#utility.yul\":19980:19984   */\n      0x24\n        /* \"#utility.yul\":19977:19978   */\n      0x00\n        /* \"#utility.yul\":19970:19985   */\n      revert\n        /* \"#utility.yul\":19997:20177   */\n    tag_409:\n        /* \"#utility.yul\":20045:20122   */\n      0x4e487b7100000000000000000000000000000000000000000000000000000000\n        /* \"#utility.yul\":20042:20043   */\n      0x00\n        /* \"#utility.yul\":20035:20123   */\n      mstore\n        /* \"#utility.yul\":20142:20146   */\n      0x41\n        /* \"#utility.yul\":20139:20140   */\n      0x04\n        /* \"#utility.yul\":20132:20147   */\n      mstore\n        /* \"#utility.yul\":20166:20170   */\n      0x24\n        /* \"#utility.yul\":20163:20164   */\n      0x00\n        /* \"#utility.yul\":20156:20171   */\n      revert\n        /* \"#utility.yul\":20183:20300   */\n    tag_261:\n        /* \"#utility.yul\":20292:20293   */\n      0x00\n        /* \"#utility.yul\":20289:20290   */\n      dup1\n        /* \"#utility.yul\":20282:20294   */\n      revert\n        /* \"#utility.yul\":20306:20423   */\n    tag_242:\n        /* \"#utility.yul\":20415:20416   */\n      0x00\n        /* \"#utility.yul\":20412:20413   */\n      dup1\n        /* \"#utility.yul\":20405:20417   */\n      revert\n        /* \"#utility.yul\":20429:20546   */\n    tag_282:\n        /* \"#utility.yul\":20538:20539   */\n      0x00\n        /* \"#utility.yul\":20535:20536   */\n      dup1\n        /* \"#utility.yul\":20528:20540   */\n      revert\n        /* \"#utility.yul\":20552:20669   */\n    tag_270:\n        /* \"#utility.yul\":20661:20662   */\n      0x00\n        /* \"#utility.yul\":20658:20659   */\n      dup1\n        /* \"#utility.yul\":20651:20663   */\n      revert\n        /* \"#utility.yul\":20675:20777   */\n    tag_309:\n        /* \"#utility.yul\":20716:20722   */\n      0x00\n        /* \"#utility.yul\":20767:20769   */\n      0x1f\n        /* \"#utility.yul\":20763:20770   */\n      not\n        /* \"#utility.yul\":20758:20760   */\n      0x1f\n        /* \"#utility.yul\":20751:20756   */\n      dup4\n        /* \"#utility.yul\":20747:20761   */\n      add\n        /* \"#utility.yul\":20743:20771   */\n      and\n        /* \"#utility.yul\":20733:20771   */\n      swap1\n      pop\n        /* \"#utility.yul\":20675:20777   */\n      swap2\n      swap1\n      pop\n      jump\t// out\n        /* \"#utility.yul\":20783:20877   */\n    tag_499:\n        /* \"#utility.yul\":20816:20824   */\n      0x00\n        /* \"#utility.yul\":20864:20869   */\n      dup2\n        /* \"#utility.yul\":20860:20862   */\n      0x60\n        /* \"#utility.yul\":20856:20870   */\n      shl\n        /* \"#utility.yul\":20835:20870   */\n      swap1\n      pop\n        /* \"#utility.yul\":20783:20877   */\n      swap2\n      swap1\n      pop\n      jump\t// out\n        /* \"#utility.yul\":20883:20985   */\n    tag_430:\n        /* \"#utility.yul\":20925:20933   */\n      0x00\n        /* \"#utility.yul\":20972:20977   */\n      dup2\n        /* \"#utility.yul\":20969:20970   */\n      0x01\n        /* \"#utility.yul\":20965:20978   */\n      shr\n        /* \"#utility.yul\":20944:20978   */\n      swap1\n      pop\n        /* \"#utility.yul\":20883:20985   */\n      swap2\n      swap1\n      pop\n      jump\t// out\n        /* \"#utility.yul\":20991:21163   */\n    tag_328:\n        /* \"#utility.yul\":21131:21155   */\n      0x4d7573742062652070726f706f736564206f776e657200000000000000000000\n        /* \"#utility.yul\":21127:21128   */\n      0x00\n        /* \"#utility.yul\":21119:21125   */\n      dup3\n        /* \"#utility.yul\":21115:21129   */\n      add\n        /* \"#utility.yul\":21108:21156   */\n      mstore\n        /* \"#utility.yul\":20991:21163   */\n      pop\n      jump\t// out\n        /* \"#utility.yul\":21169:21391   */\n    tag_333:\n        /* \"#utility.yul\":21309:21343   */\n      0x756e61626c6520746f207472616e73666572416e6443616c6c20746f206f7261\n        /* \"#utility.yul\":21305:21306   */\n      0x00\n        /* \"#utility.yul\":21297:21303   */\n      dup3\n        /* \"#utility.yul\":21293:21307   */\n      add\n        /* \"#utility.yul\":21286:21344   */\n      mstore\n        /* \"#utility.yul\":21378:21383   */\n      0x636c650000000000000000000000000000000000000000000000000000000000\n        /* \"#utility.yul\":21373:21375   */\n      0x20\n        /* \"#utility.yul\":21365:21371   */\n      dup3\n        /* \"#utility.yul\":21361:21376   */\n      add\n        /* \"#utility.yul\":21354:21384   */\n      mstore\n        /* \"#utility.yul\":21169:21391   */\n      pop\n      jump\t// out\n        /* \"#utility.yul\":21397:21569   */\n    tag_338:\n        /* \"#utility.yul\":21537:21561   */\n      0x4f6e6c792063616c6c61626c65206279206f776e657200000000000000000000\n        /* \"#utility.yul\":21533:21534   */\n      0x00\n        /* \"#utility.yul\":21525:21531   */\n      dup3\n        /* \"#utility.yul\":21521:21535   */\n      add\n        /* \"#utility.yul\":21514:21562   */\n      mstore\n        /* \"#utility.yul\":21397:21569   */\n      pop\n      jump\t// out\n        /* \"#utility.yul\":21575:21743   */\n    tag_343:\n        /* \"#utility.yul\":21715:21735   */\n      0x556e61626c6520746f207472616e736665720000000000000000000000000000\n        /* \"#utility.yul\":21711:21712   */\n      0x00\n        /* \"#utility.yul\":21703:21709   */\n      dup3\n        /* \"#utility.yul\":21699:21713   */\n      add\n        /* \"#utility.yul\":21692:21736   */\n      mstore\n        /* \"#utility.yul\":21575:21743   */\n      pop\n      jump\t// out\n        /* \"#utility.yul\":21749:21922   */\n    tag_348:\n        /* \"#utility.yul\":21889:21914   */\n      0x43616e6e6f74207472616e7366657220746f2073656c66000000000000000000\n        /* \"#utility.yul\":21885:21886   */\n      0x00\n        /* \"#utility.yul\":21877:21883   */\n      dup3\n        /* \"#utility.yul\":21873:21887   */\n      add\n        /* \"#utility.yul\":21866:21915   */\n      mstore\n        /* \"#utility.yul\":21749:21922   */\n      pop\n      jump\t// out\n        /* \"#utility.yul\":21928:22155   */\n    tag_353:\n        /* \"#utility.yul\":22068:22102   */\n      0x536f75726365206d75737420626520746865206f7261636c65206f6620746865\n        /* \"#utility.yul\":22064:22065   */\n      0x00\n        /* \"#utility.yul\":22056:22062   */\n      dup3\n        /* \"#utility.yul\":22052:22066   */\n      add\n        /* \"#utility.yul\":22045:22103   */\n      mstore\n        /* \"#utility.yul\":22137:22147   */\n      0x2072657175657374000000000000000000000000000000000000000000000000\n        /* \"#utility.yul\":22132:22134   */\n      0x20\n        /* \"#utility.yul\":22124:22130   */\n      dup3\n        /* \"#utility.yul\":22120:22135   */\n      add\n        /* \"#utility.yul\":22113:22148   */\n      mstore\n        /* \"#utility.yul\":21928:22155   */\n      pop\n      jump\t// out\n        /* \"#utility.yul\":22161:22283   */\n    tag_248:\n        /* \"#utility.yul\":22234:22258   */\n      tag_525\n        /* \"#utility.yul\":22252:22257   */\n      dup2\n        /* \"#utility.yul\":22234:22258   */\n      tag_291\n      jump\t// in\n    tag_525:\n        /* \"#utility.yul\":22227:22232   */\n      dup2\n        /* \"#utility.yul\":22224:22259   */\n      eq\n        /* \"#utility.yul\":22214:22277   */\n      tag_526\n      jumpi\n        /* \"#utility.yul\":22273:22274   */\n      0x00\n        /* \"#utility.yul\":22270:22271   */\n      dup1\n        /* \"#utility.yul\":22263:22275   */\n      revert\n        /* \"#utility.yul\":22214:22277   */\n    tag_526:\n        /* \"#utility.yul\":22161:22283   */\n      pop\n      jump\t// out\n        /* \"#utility.yul\":22289:22405   */\n    tag_252:\n        /* \"#utility.yul\":22359:22380   */\n      tag_528\n        /* \"#utility.yul\":22374:22379   */\n      dup2\n        /* \"#utility.yul\":22359:22380   */\n      tag_465\n      jump\t// in\n    tag_528:\n        /* \"#utility.yul\":22352:22357   */\n      dup2\n        /* \"#utility.yul\":22349:22381   */\n      eq\n        /* \"#utility.yul\":22339:22399   */\n      tag_529\n      jumpi\n        /* \"#utility.yul\":22395:22396   */\n      0x00\n        /* \"#utility.yul\":22392:22393   */\n      dup1\n        /* \"#utility.yul\":22385:22397   */\n      revert\n        /* \"#utility.yul\":22339:22399   */\n    tag_529:\n        /* \"#utility.yul\":22289:22405   */\n      pop\n      jump\t// out\n        /* \"#utility.yul\":22411:22533   */\n    tag_256:\n        /* \"#utility.yul\":22484:22508   */\n      tag_531\n        /* \"#utility.yul\":22502:22507   */\n      dup2\n        /* \"#utility.yul\":22484:22508   */\n      tag_295\n      jump\t// in\n    tag_531:\n        /* \"#utility.yul\":22477:22482   */\n      dup2\n        /* \"#utility.yul\":22474:22509   */\n      eq\n        /* \"#utility.yul\":22464:22527   */\n      tag_532\n      jumpi\n        /* \"#utility.yul\":22523:22524   */\n      0x00\n        /* \"#utility.yul\":22520:22521   */\n      dup1\n        /* \"#utility.yul\":22513:22525   */\n      revert\n        /* \"#utility.yul\":22464:22527   */\n    tag_532:\n        /* \"#utility.yul\":22411:22533   */\n      pop\n      jump\t// out\n        /* \"#utility.yul\":22539:22661   */\n    tag_266:\n        /* \"#utility.yul\":22612:22636   */\n      tag_534\n        /* \"#utility.yul\":22630:22635   */\n      dup2\n        /* \"#utility.yul\":22612:22636   */\n      tag_357\n      jump\t// in\n    tag_534:\n        /* \"#utility.yul\":22605:22610   */\n      dup2\n        /* \"#utility.yul\":22602:22637   */\n      eq\n        /* \"#utility.yul\":22592:22655   */\n      tag_535\n      jumpi\n        /* \"#utility.yul\":22651:22652   */\n      0x00\n        /* \"#utility.yul\":22648:22649   */\n      dup1\n        /* \"#utility.yul\":22641:22653   */\n      revert\n        /* \"#utility.yul\":22592:22655   */\n    tag_535:\n        /* \"#utility.yul\":22539:22661   */\n      pop\n      jump\t// out\n    stop\n    data_e40f56f7fa1aa05a509887d91f86ee0b3ba47821e3c25328913bff9d8f16041c 687474703a2f2f686f73742e646f636b65722e696e7465726e616c3a333030302f6d6f6469666965642d747261696e2d696e666f\n\n    auxdata: 0xa2646970667358221220956e2af569769b212152c117e361c4e38ec2a5adc18058fe030f03d775545e4164736f6c63430008070033\n}\n",
				"bytecode": {
					"linkReferences": {},
					"object": "608060405260016004553480156200001657600080fd5b50338060008073ffffffffffffffffffffffffffffffffffffffff168273ffffffffffffffffffffffffffffffffffffffff1614156200008d576040517f08c379a00000000000000000000000000000000000000000000000000000000081526004016200008490620003c2565b60405180910390fd5b81600660006101000a81548173ffffffffffffffffffffffffffffffffffffffff021916908373ffffffffffffffffffffffffffffffffffffffff160217905550600073ffffffffffffffffffffffffffffffffffffffff168173ffffffffffffffffffffffffffffffffffffffff161462000115576200011481620001ba60201b60201c565b5b5050506200013d730b9d5d9136855f6fec3c0993fee6e9ce8a297846620002ec60201b60201c565b62000162731c03e89f9ecf4aff2866de982311d4a7b3e6ee406200033060201b60201c565b7f3731393736343465366366383431343239393933383632386132303863663664600981905550600a670de0b6b3a76400006001620001a291906200044f565b620001ae919062000417565b600a819055506200056a565b3373ffffffffffffffffffffffffffffffffffffffff168173ffffffffffffffffffffffffffffffffffffffff1614156200022c576040517f08c379a00000000000000000000000000000000000000000000000000000000081526004016200022390620003e4565b60405180910390fd5b80600760006101000a81548173ffffffffffffffffffffffffffffffffffffffff021916908373ffffffffffffffffffffffffffffffffffffffff1602179055508073ffffffffffffffffffffffffffffffffffffffff16600660009054906101000a900473ffffffffffffffffffffffffffffffffffffffff1673ffffffffffffffffffffffffffffffffffffffff167fed8889f560326eb138920d842192f0eb3dd22b4f139c87a2c57538e05bae127860405160405180910390a350565b80600260006101000a81548173ffffffffffffffffffffffffffffffffffffffff021916908373ffffffffffffffffffffffffffffffffffffffff16021790555050565b80600360006101000a81548173ffffffffffffffffffffffffffffffffffffffff021916908373ffffffffffffffffffffffffffffffffffffffff16021790555050565b60006200038360188362000406565b9150620003908262000518565b602082019050919050565b6000620003aa60178362000406565b9150620003b78262000541565b602082019050919050565b60006020820190508181036000830152620003dd8162000374565b9050919050565b60006020820190508181036000830152620003ff816200039b565b9050919050565b600082825260208201905092915050565b60006200042482620004b0565b91506200043183620004b0565b925082620004445762000443620004e9565b5b828204905092915050565b60006200045c82620004b0565b91506200046983620004b0565b9250817fffffffffffffffffffffffffffffffffffffffffffffffffffffffffffffffff0483118215151615620004a557620004a4620004ba565b5b828202905092915050565b6000819050919050565b7f4e487b7100000000000000000000000000000000000000000000000000000000600052601160045260246000fd5b7f4e487b7100000000000000000000000000000000000000000000000000000000600052601260045260246000fd5b7f43616e6e6f7420736574206f776e657220746f207a65726f0000000000000000600082015250565b7f43616e6e6f74207472616e7366657220746f2073656c66000000000000000000600082015250565b611fda806200057a6000396000f3fe608060405234801561001057600080fd5b506004361061007d5760003560e01c80638da5cb5b1161005b5780638da5cb5b146100c65780638dc654a2146100e4578063af640d0f146100ee578063f2fde38b1461010c5761007d565b806309323a6a1461008257806337441996146100a057806379ba5097146100bc575b600080fd5b61008a610128565b604051610097919061173f565b60405180910390f35b6100ba60048036038101906100b591906113d5565b610234565b005b6100c461038d565b005b6100ce610524565b6040516100db9190611638565b60405180910390f35b6100ec61054e565b005b6100f66106b9565b604051610103919061175a565b60405180910390f35b6101266004803603810190610121919061137b565b610747565b005b60008061013f60095430633744199660e01b61075b565b90506101a36040518060400160405280600381526020017f6765740000000000000000000000000000000000000000000000000000000000815250604051806060016040528060348152602001611f71603491398361078c9092919063ffffffff16565b6102226040518060400160405280600481526020017f70617468000000000000000000000000000000000000000000000000000000008152506040518060400160405280601b81526020017f302c6f6470743a747261696e496e666f726d6174696f6e5465787400000000008152508361078c9092919063ffffffff16565b61022e81600a546107bf565b91505090565b816005600082815260200190815260200160002060009054906101000a900473ffffffffffffffffffffffffffffffffffffffff1673ffffffffffffffffffffffffffffffffffffffff163373ffffffffffffffffffffffffffffffffffffffff16146102d6576040517f08c379a00000000000000000000000000000000000000000000000000000000081526004016102cd9061181c565b60405180910390fd5b6005600082815260200190815260200160002060006101000a81549073ffffffffffffffffffffffffffffffffffffffff0219169055807f7cc135e0cebb02c3480ae5d74d377283180a2601f8f644edf7987b009316c63a60405160405180910390a2827f5b72487f892feba565865a27f191da8fb1e852651bd966bfb0a41fc272c54aea83604051610369919061175a565b60405180910390a2816008908051906020019061038792919061118d565b50505050565b600760009054906101000a900473ffffffffffffffffffffffffffffffffffffffff1673ffffffffffffffffffffffffffffffffffffffff163373ffffffffffffffffffffffffffffffffffffffff161461041d576040517f08c379a00000000000000000000000000000000000000000000000000000000081526004016104149061177c565b60405180910390fd5b6000600660009054906101000a900473ffffffffffffffffffffffffffffffffffffffff16905033600660006101000a81548173ffffffffffffffffffffffffffffffffffffffff021916908373ffffffffffffffffffffffffffffffffffffffff1602179055506000600760006101000a81548173ffffffffffffffffffffffffffffffffffffffff021916908373ffffffffffffffffffffffffffffffffffffffff1602179055503373ffffffffffffffffffffffffffffffffffffffff168173ffffffffffffffffffffffffffffffffffffffff167f8be0079c531659141344cd1fd0a4f28419497f9722a3daafe3b4186f6b6457e060405160405180910390a350565b6000600660009054906101000a900473ffffffffffffffffffffffffffffffffffffffff16905090565b6105566107f6565b6000610560610888565b90508073ffffffffffffffffffffffffffffffffffffffff1663a9059cbb338373ffffffffffffffffffffffffffffffffffffffff166370a08231306040518263ffffffff1660e01b81526004016105b89190611638565b60206040518083038186803b1580156105d057600080fd5b505afa1580156105e4573d6000803e3d6000fd5b505050506040513d601f19601f820116820180604052508101906106089190611431565b6040518363ffffffff1660e01b8152600401610625929190611653565b602060405180830381600087803b15801561063f57600080fd5b505af1158015610653573d6000803e3d6000fd5b505050506040513d601f19601f8201168201806040525081019061067791906113a8565b6106b6576040517f08c379a00000000000000000000000000000000000000000000000000000000081526004016106ad906117dc565b60405180910390fd5b50565b600880546106c690611c15565b80601f01602080910402602001604051908101604052809291908181526020018280546106f290611c15565b801561073f5780601f106107145761010080835404028352916020019161073f565b820191906000526020600020905b81548152906001019060200180831161072257829003601f168201915b505050505081565b61074f6107f6565b610758816108b2565b50565b610763611213565b61076b611213565b610782858585846109e1909392919063ffffffff16565b9150509392505050565b6107a3828460800151610a9190919063ffffffff16565b6107ba818460800151610a9190919063ffffffff16565b505050565b60006107ee600360009054906101000a900473ffffffffffffffffffffffffffffffffffffffff168484610ab6565b905092915050565b600660009054906101000a900473ffffffffffffffffffffffffffffffffffffffff1673ffffffffffffffffffffffffffffffffffffffff163373ffffffffffffffffffffffffffffffffffffffff1614610886576040517f08c379a000000000000000000000000000000000000000000000000000000000815260040161087d906117bc565b60405180910390fd5b565b6000600260009054906101000a900473ffffffffffffffffffffffffffffffffffffffff16905090565b3373ffffffffffffffffffffffffffffffffffffffff168173ffffffffffffffffffffffffffffffffffffffff161415610921576040517f08c379a0000000000000000000000000000000000000000000000000000000008152600401610918906117fc565b60405180910390fd5b80600760006101000a81548173ffffffffffffffffffffffffffffffffffffffff021916908373ffffffffffffffffffffffffffffffffffffffff1602179055508073ffffffffffffffffffffffffffffffffffffffff16600660009054906101000a900473ffffffffffffffffffffffffffffffffffffffff1673ffffffffffffffffffffffffffffffffffffffff167fed8889f560326eb138920d842192f0eb3dd22b4f139c87a2c57538e05bae127860405160405180910390a350565b6109e9611213565b6109f98560800151610100610b82565b508385600001818152505082856020019073ffffffffffffffffffffffffffffffffffffffff16908173ffffffffffffffffffffffffffffffffffffffff16815250508185604001907bffffffffffffffffffffffffffffffffffffffffffffffffffffffff191690817bffffffffffffffffffffffffffffffffffffffffffffffffffffffff191681525050849050949350505050565b610a9e8260038351610bec565b610ab18183610d7190919063ffffffff16565b505050565b6000806004549050600181610acb91906118ca565b6004819055506000634042994660e01b60008087600001513089604001518760018c6080015160000151604051602401610b0c98979695949392919061167c565b604051602081830303815290604052907bffffffffffffffffffffffffffffffffffffffffffffffffffffffff19166020820180517bffffffffffffffffffffffffffffffffffffffffffffffffffffffff83818316178352505050509050610b7786838684610d93565b925050509392505050565b610b8a611280565b6000602083610b999190611ca6565b14610bc557602082610bab9190611ca6565b6020610bb79190611aeb565b82610bc291906118ca565b91505b81836020018181525050604051808452600081528281016020016040525082905092915050565b60178167ffffffffffffffff1611610c2357610c1d8160058460ff16901b60ff161784610f3790919063ffffffff16565b50610d6c565b60ff8167ffffffffffffffff1611610c7957610c52601860058460ff16901b1784610f3790919063ffffffff16565b50610c738167ffffffffffffffff16600185610f579092919063ffffffff16565b50610d6b565b61ffff8167ffffffffffffffff1611610cd057610ca9601960058460ff16901b1784610f3790919063ffffffff16565b50610cca8167ffffffffffffffff16600285610f579092919063ffffffff16565b50610d6a565b63ffffffff8167ffffffffffffffff1611610d2957610d02601a60058460ff16901b1784610f3790919063ffffffff16565b50610d238167ffffffffffffffff16600485610f579092919063ffffffff16565b50610d69565b610d46601b60058460ff16901b1784610f3790919063ffffffff16565b50610d678167ffffffffffffffff16600885610f579092919063ffffffff16565b505b5b5b5b505050565b610d79611280565b610d8b83846000015151848551610f79565b905092915050565b60003084604051602001610da892919061160c565b604051602081830303815290604052805190602001209050846005600083815260200190815260200160002060006101000a81548173ffffffffffffffffffffffffffffffffffffffff021916908373ffffffffffffffffffffffffffffffffffffffff160217905550807fb5e6e01e79f91267dc17b4e6314d5d4d03593d2ceee0fbb452b750bd70ea5af960405160405180910390a2600260009054906101000a900473ffffffffffffffffffffffffffffffffffffffff1673ffffffffffffffffffffffffffffffffffffffff16634000aea08685856040518463ffffffff1660e01b8152600401610e9e93929190611701565b602060405180830381600087803b158015610eb857600080fd5b505af1158015610ecc573d6000803e3d6000fd5b505050506040513d601f19601f82011682018060405250810190610ef091906113a8565b610f2f576040517f08c379a0000000000000000000000000000000000000000000000000000000008152600401610f269061179c565b60405180910390fd5b949350505050565b610f3f611280565b610f4f8384600001515184611068565b905092915050565b610f5f611280565b610f708485600001515185856110bf565b90509392505050565b610f81611280565b8251821115610f8f57600080fd5b84602001518285610fa091906118ca565b1115610fd557610fd4856002610fc588602001518887610fc091906118ca565b61114d565b610fcf9190611a91565b611169565b5b600080865180518760208301019350808887011115610ff45787860182525b60208701925050505b6020841061103b578051825260208261101691906118ca565b915060208161102591906118ca565b90506020846110349190611aeb565b9350610ffd565b60006001856020036101000a03905080198251168184511681811785525050508692505050949350505050565b611070611280565b836020015183106110965761109584600286602001516110909190611a91565b611169565b5b83518051602085830101848153818614156110b2576001820183525b5050508390509392505050565b6110c7611280565b846020015184836110d891906118ca565b1115611100576110ff85600286856110f091906118ca565b6110fa9190611a91565b611169565b5b60006001836101006111129190611973565b61111c9190611aeb565b9050855183868201018583198251161781528151858801111561113f5784870182525b505085915050949350505050565b60008183111561115f57829050611163565b8190505b92915050565b60008260000151905061117c8383610b82565b506111878382610d71565b50505050565b82805461119990611c15565b90600052602060002090601f0160209004810192826111bb5760008555611202565b82601f106111d457805160ff1916838001178555611202565b82800160010185558215611202579182015b828111156112015782518255916020019190600101906111e6565b5b50905061120f919061129a565b5090565b6040518060a0016040528060008019168152602001600073ffffffffffffffffffffffffffffffffffffffff16815260200160007bffffffffffffffffffffffffffffffffffffffffffffffffffffffff191681526020016000815260200161127a611280565b81525090565b604051806040016040528060608152602001600081525090565b5b808211156112b357600081600090555060010161129b565b5090565b60006112ca6112c584611861565b61183c565b9050828152602081018484840111156112e6576112e5611d98565b5b6112f1848285611bd3565b509392505050565b60008135905061130881611f14565b92915050565b60008151905061131d81611f2b565b92915050565b60008135905061133281611f42565b92915050565b600082601f83011261134d5761134c611d93565b5b813561135d8482602086016112b7565b91505092915050565b60008151905061137581611f59565b92915050565b60006020828403121561139157611390611da2565b5b600061139f848285016112f9565b91505092915050565b6000602082840312156113be576113bd611da2565b5b60006113cc8482850161130e565b91505092915050565b600080604083850312156113ec576113eb611da2565b5b60006113fa85828601611323565b925050602083013567ffffffffffffffff81111561141b5761141a611d9d565b5b61142785828601611338565b9150509250929050565b60006020828403121561144757611446611da2565b5b600061145584828501611366565b91505092915050565b61146781611b1f565b82525050565b61147681611b3d565b82525050565b61148581611b47565b82525050565b600061149682611892565b6114a081856118a8565b93506114b0818560208601611be2565b6114b981611da7565b840191505092915050565b6114d56114d082611b9d565b611c78565b82525050565b60006114e68261189d565b6114f081856118b9565b9350611500818560208601611be2565b61150981611da7565b840191505092915050565b60006115216016836118b9565b915061152c82611dd2565b602082019050919050565b60006115446023836118b9565b915061154f82611dfb565b604082019050919050565b60006115676016836118b9565b915061157282611e4a565b602082019050919050565b600061158a6012836118b9565b915061159582611e73565b602082019050919050565b60006115ad6017836118b9565b91506115b882611e9c565b602082019050919050565b60006115d06028836118b9565b91506115db82611ec5565b604082019050919050565b6115ef81611b93565b82525050565b61160661160182611b93565b611c9c565b82525050565b600061161882856114c4565b60148201915061162882846115f5565b6020820191508190509392505050565b600060208201905061164d600083018461145e565b92915050565b6000604082019050611668600083018561145e565b61167560208301846115e6565b9392505050565b600061010082019050611692600083018b61145e565b61169f602083018a6115e6565b6116ac604083018961146d565b6116b9606083018861145e565b6116c6608083018761147c565b6116d360a08301866115e6565b6116e060c08301856115e6565b81810360e08301526116f2818461148b565b90509998505050505050505050565b6000606082019050611716600083018661145e565b61172360208301856115e6565b8181036040830152611735818461148b565b9050949350505050565b6000602082019050611754600083018461146d565b92915050565b6000602082019050818103600083015261177481846114db565b905092915050565b6000602082019050818103600083015261179581611514565b9050919050565b600060208201905081810360008301526117b581611537565b9050919050565b600060208201905081810360008301526117d58161155a565b9050919050565b600060208201905081810360008301526117f58161157d565b9050919050565b60006020820190508181036000830152611815816115a0565b9050919050565b60006020820190508181036000830152611835816115c3565b9050919050565b6000611846611857565b90506118528282611c47565b919050565b6000604051905090565b600067ffffffffffffffff82111561187c5761187b611d64565b5b61188582611da7565b9050602081019050919050565b600081519050919050565b600081519050919050565b600082825260208201905092915050565b600082825260208201905092915050565b60006118d582611b93565b91506118e083611b93565b9250827fffffffffffffffffffffffffffffffffffffffffffffffffffffffffffffffff0382111561191557611914611cd7565b5b828201905092915050565b6000808291508390505b600185111561196a5780860481111561194657611945611cd7565b5b60018516156119555780820291505b808102905061196385611dc5565b945061192a565b94509492505050565b600061197e82611b93565b915061198983611b93565b92506119b67fffffffffffffffffffffffffffffffffffffffffffffffffffffffffffffffff84846119be565b905092915050565b6000826119ce5760019050611a8a565b816119dc5760009050611a8a565b81600181146119f257600281146119fc57611a2b565b6001915050611a8a565b60ff841115611a0e57611a0d611cd7565b5b8360020a915084821115611a2557611a24611cd7565b5b50611a8a565b5060208310610133831016604e8410600b8410161715611a605782820a905083811115611a5b57611a5a611cd7565b5b611a8a565b611a6d8484846001611920565b92509050818404811115611a8457611a83611cd7565b5b81810290505b9392505050565b6000611a9c82611b93565b9150611aa783611b93565b9250817fffffffffffffffffffffffffffffffffffffffffffffffffffffffffffffffff0483118215151615611ae057611adf611cd7565b5b828202905092915050565b6000611af682611b93565b9150611b0183611b93565b925082821015611b1457611b13611cd7565b5b828203905092915050565b6000611b2a82611b73565b9050919050565b60008115159050919050565b6000819050919050565b60007fffffffff0000000000000000000000000000000000000000000000000000000082169050919050565b600073ffffffffffffffffffffffffffffffffffffffff82169050919050565b6000819050919050565b6000611ba882611baf565b9050919050565b6000611bba82611bc1565b9050919050565b6000611bcc82611b73565b9050919050565b82818337600083830152505050565b60005b83811015611c00578082015181840152602081019050611be5565b83811115611c0f576000848401525b50505050565b60006002820490506001821680611c2d57607f821691505b60208210811415611c4157611c40611d35565b5b50919050565b611c5082611da7565b810181811067ffffffffffffffff82111715611c6f57611c6e611d64565b5b80604052505050565b6000611c8382611c8a565b9050919050565b6000611c9582611db8565b9050919050565b6000819050919050565b6000611cb182611b93565b9150611cbc83611b93565b925082611ccc57611ccb611d06565b5b828206905092915050565b7f4e487b7100000000000000000000000000000000000000000000000000000000600052601160045260246000fd5b7f4e487b7100000000000000000000000000000000000000000000000000000000600052601260045260246000fd5b7f4e487b7100000000000000000000000000000000000000000000000000000000600052602260045260246000fd5b7f4e487b7100000000000000000000000000000000000000000000000000000000600052604160045260246000fd5b600080fd5b600080fd5b600080fd5b600080fd5b6000601f19601f8301169050919050565b60008160601b9050919050565b60008160011c9050919050565b7f4d7573742062652070726f706f736564206f776e657200000000000000000000600082015250565b7f756e61626c6520746f207472616e73666572416e6443616c6c20746f206f726160008201527f636c650000000000000000000000000000000000000000000000000000000000602082015250565b7f4f6e6c792063616c6c61626c65206279206f776e657200000000000000000000600082015250565b7f556e61626c6520746f207472616e736665720000000000000000000000000000600082015250565b7f43616e6e6f74207472616e7366657220746f2073656c66000000000000000000600082015250565b7f536f75726365206d75737420626520746865206f7261636c65206f662074686560008201527f2072657175657374000000000000000000000000000000000000000000000000602082015250565b611f1d81611b1f565b8114611f2857600080fd5b50565b611f3481611b31565b8114611f3f57600080fd5b50565b611f4b81611b3d565b8114611f5657600080fd5b50565b611f6281611b93565b8114611f6d57600080fd5b5056fe687474703a2f2f686f73742e646f636b65722e696e7465726e616c3a333030302f6d6f6469666965642d747261696e2d696e666fa2646970667358221220956e2af569769b212152c117e361c4e38ec2a5adc18058fe030f03d775545e4164736f6c63430008070033",
					"opcodes": "PUSH1 0x80 PUSH1 0x40 MSTORE PUSH1 0x1 PUSH1 0x4 SSTORE CALLVALUE DUP1 ISZERO PUSH3 0x16 JUMPI PUSH1 0x0 DUP1 REVERT JUMPDEST POP CALLER DUP1 PUSH1 0x0 DUP1 PUSH20 0xFFFFFFFFFFFFFFFFFFFFFFFFFFFFFFFFFFFFFFFF AND DUP3 PUSH20 0xFFFFFFFFFFFFFFFFFFFFFFFFFFFFFFFFFFFFFFFF AND EQ ISZERO PUSH3 0x8D JUMPI PUSH1 0x40 MLOAD PUSH32 0x8C379A000000000000000000000000000000000000000000000000000000000 DUP2 MSTORE PUSH1 0x4 ADD PUSH3 0x84 SWAP1 PUSH3 0x3C2 JUMP JUMPDEST PUSH1 0x40 MLOAD DUP1 SWAP2 SUB SWAP1 REVERT JUMPDEST DUP2 PUSH1 0x6 PUSH1 0x0 PUSH2 0x100 EXP DUP2 SLOAD DUP2 PUSH20 0xFFFFFFFFFFFFFFFFFFFFFFFFFFFFFFFFFFFFFFFF MUL NOT AND SWAP1 DUP4 PUSH20 0xFFFFFFFFFFFFFFFFFFFFFFFFFFFFFFFFFFFFFFFF AND MUL OR SWAP1 SSTORE POP PUSH1 0x0 PUSH20 0xFFFFFFFFFFFFFFFFFFFFFFFFFFFFFFFFFFFFFFFF AND DUP2 PUSH20 0xFFFFFFFFFFFFFFFFFFFFFFFFFFFFFFFFFFFFFFFF AND EQ PUSH3 0x115 JUMPI PUSH3 0x114 DUP2 PUSH3 0x1BA PUSH1 0x20 SHL PUSH1 0x20 SHR JUMP JUMPDEST JUMPDEST POP POP POP PUSH3 0x13D PUSH20 0xB9D5D9136855F6FEC3C0993FEE6E9CE8A297846 PUSH3 0x2EC PUSH1 0x20 SHL PUSH1 0x20 SHR JUMP JUMPDEST PUSH3 0x162 PUSH20 0x1C03E89F9ECF4AFF2866DE982311D4A7B3E6EE40 PUSH3 0x330 PUSH1 0x20 SHL PUSH1 0x20 SHR JUMP JUMPDEST PUSH32 0x3731393736343465366366383431343239393933383632386132303863663664 PUSH1 0x9 DUP2 SWAP1 SSTORE POP PUSH1 0xA PUSH8 0xDE0B6B3A7640000 PUSH1 0x1 PUSH3 0x1A2 SWAP2 SWAP1 PUSH3 0x44F JUMP JUMPDEST PUSH3 0x1AE SWAP2 SWAP1 PUSH3 0x417 JUMP JUMPDEST PUSH1 0xA DUP2 SWAP1 SSTORE POP PUSH3 0x56A JUMP JUMPDEST CALLER PUSH20 0xFFFFFFFFFFFFFFFFFFFFFFFFFFFFFFFFFFFFFFFF AND DUP2 PUSH20 0xFFFFFFFFFFFFFFFFFFFFFFFFFFFFFFFFFFFFFFFF AND EQ ISZERO PUSH3 0x22C JUMPI PUSH1 0x40 MLOAD PUSH32 0x8C379A000000000000000000000000000000000000000000000000000000000 DUP2 MSTORE PUSH1 0x4 ADD PUSH3 0x223 SWAP1 PUSH3 0x3E4 JUMP JUMPDEST PUSH1 0x40 MLOAD DUP1 SWAP2 SUB SWAP1 REVERT JUMPDEST DUP1 PUSH1 0x7 PUSH1 0x0 PUSH2 0x100 EXP DUP2 SLOAD DUP2 PUSH20 0xFFFFFFFFFFFFFFFFFFFFFFFFFFFFFFFFFFFFFFFF MUL NOT AND SWAP1 DUP4 PUSH20 0xFFFFFFFFFFFFFFFFFFFFFFFFFFFFFFFFFFFFFFFF AND MUL OR SWAP1 SSTORE POP DUP1 PUSH20 0xFFFFFFFFFFFFFFFFFFFFFFFFFFFFFFFFFFFFFFFF AND PUSH1 0x6 PUSH1 0x0 SWAP1 SLOAD SWAP1 PUSH2 0x100 EXP SWAP1 DIV PUSH20 0xFFFFFFFFFFFFFFFFFFFFFFFFFFFFFFFFFFFFFFFF AND PUSH20 0xFFFFFFFFFFFFFFFFFFFFFFFFFFFFFFFFFFFFFFFF AND PUSH32 0xED8889F560326EB138920D842192F0EB3DD22B4F139C87A2C57538E05BAE1278 PUSH1 0x40 MLOAD PUSH1 0x40 MLOAD DUP1 SWAP2 SUB SWAP1 LOG3 POP JUMP JUMPDEST DUP1 PUSH1 0x2 PUSH1 0x0 PUSH2 0x100 EXP DUP2 SLOAD DUP2 PUSH20 0xFFFFFFFFFFFFFFFFFFFFFFFFFFFFFFFFFFFFFFFF MUL NOT AND SWAP1 DUP4 PUSH20 0xFFFFFFFFFFFFFFFFFFFFFFFFFFFFFFFFFFFFFFFF AND MUL OR SWAP1 SSTORE POP POP JUMP JUMPDEST DUP1 PUSH1 0x3 PUSH1 0x0 PUSH2 0x100 EXP DUP2 SLOAD DUP2 PUSH20 0xFFFFFFFFFFFFFFFFFFFFFFFFFFFFFFFFFFFFFFFF MUL NOT AND SWAP1 DUP4 PUSH20 0xFFFFFFFFFFFFFFFFFFFFFFFFFFFFFFFFFFFFFFFF AND MUL OR SWAP1 SSTORE POP POP JUMP JUMPDEST PUSH1 0x0 PUSH3 0x383 PUSH1 0x18 DUP4 PUSH3 0x406 JUMP JUMPDEST SWAP2 POP PUSH3 0x390 DUP3 PUSH3 0x518 JUMP JUMPDEST PUSH1 0x20 DUP3 ADD SWAP1 POP SWAP2 SWAP1 POP JUMP JUMPDEST PUSH1 0x0 PUSH3 0x3AA PUSH1 0x17 DUP4 PUSH3 0x406 JUMP JUMPDEST SWAP2 POP PUSH3 0x3B7 DUP3 PUSH3 0x541 JUMP JUMPDEST PUSH1 0x20 DUP3 ADD SWAP1 POP SWAP2 SWAP1 POP JUMP JUMPDEST PUSH1 0x0 PUSH1 0x20 DUP3 ADD SWAP1 POP DUP2 DUP2 SUB PUSH1 0x0 DUP4 ADD MSTORE PUSH3 0x3DD DUP2 PUSH3 0x374 JUMP JUMPDEST SWAP1 POP SWAP2 SWAP1 POP JUMP JUMPDEST PUSH1 0x0 PUSH1 0x20 DUP3 ADD SWAP1 POP DUP2 DUP2 SUB PUSH1 0x0 DUP4 ADD MSTORE PUSH3 0x3FF DUP2 PUSH3 0x39B JUMP JUMPDEST SWAP1 POP SWAP2 SWAP1 POP JUMP JUMPDEST PUSH1 0x0 DUP3 DUP3 MSTORE PUSH1 0x20 DUP3 ADD SWAP1 POP SWAP3 SWAP2 POP POP JUMP JUMPDEST PUSH1 0x0 PUSH3 0x424 DUP3 PUSH3 0x4B0 JUMP JUMPDEST SWAP2 POP PUSH3 0x431 DUP4 PUSH3 0x4B0 JUMP JUMPDEST SWAP3 POP DUP3 PUSH3 0x444 JUMPI PUSH3 0x443 PUSH3 0x4E9 JUMP JUMPDEST JUMPDEST DUP3 DUP3 DIV SWAP1 POP SWAP3 SWAP2 POP POP JUMP JUMPDEST PUSH1 0x0 PUSH3 0x45C DUP3 PUSH3 0x4B0 JUMP JUMPDEST SWAP2 POP PUSH3 0x469 DUP4 PUSH3 0x4B0 JUMP JUMPDEST SWAP3 POP DUP2 PUSH32 0xFFFFFFFFFFFFFFFFFFFFFFFFFFFFFFFFFFFFFFFFFFFFFFFFFFFFFFFFFFFFFFFF DIV DUP4 GT DUP3 ISZERO ISZERO AND ISZERO PUSH3 0x4A5 JUMPI PUSH3 0x4A4 PUSH3 0x4BA JUMP JUMPDEST JUMPDEST DUP3 DUP3 MUL SWAP1 POP SWAP3 SWAP2 POP POP JUMP JUMPDEST PUSH1 0x0 DUP2 SWAP1 POP SWAP2 SWAP1 POP JUMP JUMPDEST PUSH32 0x4E487B7100000000000000000000000000000000000000000000000000000000 PUSH1 0x0 MSTORE PUSH1 0x11 PUSH1 0x4 MSTORE PUSH1 0x24 PUSH1 0x0 REVERT JUMPDEST PUSH32 0x4E487B7100000000000000000000000000000000000000000000000000000000 PUSH1 0x0 MSTORE PUSH1 0x12 PUSH1 0x4 MSTORE PUSH1 0x24 PUSH1 0x0 REVERT JUMPDEST PUSH32 0x43616E6E6F7420736574206F776E657220746F207A65726F0000000000000000 PUSH1 0x0 DUP3 ADD MSTORE POP JUMP JUMPDEST PUSH32 0x43616E6E6F74207472616E7366657220746F2073656C66000000000000000000 PUSH1 0x0 DUP3 ADD MSTORE POP JUMP JUMPDEST PUSH2 0x1FDA DUP1 PUSH3 0x57A PUSH1 0x0 CODECOPY PUSH1 0x0 RETURN INVALID PUSH1 0x80 PUSH1 0x40 MSTORE CALLVALUE DUP1 ISZERO PUSH2 0x10 JUMPI PUSH1 0x0 DUP1 REVERT JUMPDEST POP PUSH1 0x4 CALLDATASIZE LT PUSH2 0x7D JUMPI PUSH1 0x0 CALLDATALOAD PUSH1 0xE0 SHR DUP1 PUSH4 0x8DA5CB5B GT PUSH2 0x5B JUMPI DUP1 PUSH4 0x8DA5CB5B EQ PUSH2 0xC6 JUMPI DUP1 PUSH4 0x8DC654A2 EQ PUSH2 0xE4 JUMPI DUP1 PUSH4 0xAF640D0F EQ PUSH2 0xEE JUMPI DUP1 PUSH4 0xF2FDE38B EQ PUSH2 0x10C JUMPI PUSH2 0x7D JUMP JUMPDEST DUP1 PUSH4 0x9323A6A EQ PUSH2 0x82 JUMPI DUP1 PUSH4 0x37441996 EQ PUSH2 0xA0 JUMPI DUP1 PUSH4 0x79BA5097 EQ PUSH2 0xBC JUMPI JUMPDEST PUSH1 0x0 DUP1 REVERT JUMPDEST PUSH2 0x8A PUSH2 0x128 JUMP JUMPDEST PUSH1 0x40 MLOAD PUSH2 0x97 SWAP2 SWAP1 PUSH2 0x173F JUMP JUMPDEST PUSH1 0x40 MLOAD DUP1 SWAP2 SUB SWAP1 RETURN JUMPDEST PUSH2 0xBA PUSH1 0x4 DUP1 CALLDATASIZE SUB DUP2 ADD SWAP1 PUSH2 0xB5 SWAP2 SWAP1 PUSH2 0x13D5 JUMP JUMPDEST PUSH2 0x234 JUMP JUMPDEST STOP JUMPDEST PUSH2 0xC4 PUSH2 0x38D JUMP JUMPDEST STOP JUMPDEST PUSH2 0xCE PUSH2 0x524 JUMP JUMPDEST PUSH1 0x40 MLOAD PUSH2 0xDB SWAP2 SWAP1 PUSH2 0x1638 JUMP JUMPDEST PUSH1 0x40 MLOAD DUP1 SWAP2 SUB SWAP1 RETURN JUMPDEST PUSH2 0xEC PUSH2 0x54E JUMP JUMPDEST STOP JUMPDEST PUSH2 0xF6 PUSH2 0x6B9 JUMP JUMPDEST PUSH1 0x40 MLOAD PUSH2 0x103 SWAP2 SWAP1 PUSH2 0x175A JUMP JUMPDEST PUSH1 0x40 MLOAD DUP1 SWAP2 SUB SWAP1 RETURN JUMPDEST PUSH2 0x126 PUSH1 0x4 DUP1 CALLDATASIZE SUB DUP2 ADD SWAP1 PUSH2 0x121 SWAP2 SWAP1 PUSH2 0x137B JUMP JUMPDEST PUSH2 0x747 JUMP JUMPDEST STOP JUMPDEST PUSH1 0x0 DUP1 PUSH2 0x13F PUSH1 0x9 SLOAD ADDRESS PUSH4 0x37441996 PUSH1 0xE0 SHL PUSH2 0x75B JUMP JUMPDEST SWAP1 POP PUSH2 0x1A3 PUSH1 0x40 MLOAD DUP1 PUSH1 0x40 ADD PUSH1 0x40 MSTORE DUP1 PUSH1 0x3 DUP2 MSTORE PUSH1 0x20 ADD PUSH32 0x6765740000000000000000000000000000000000000000000000000000000000 DUP2 MSTORE POP PUSH1 0x40 MLOAD DUP1 PUSH1 0x60 ADD PUSH1 0x40 MSTORE DUP1 PUSH1 0x34 DUP2 MSTORE PUSH1 0x20 ADD PUSH2 0x1F71 PUSH1 0x34 SWAP2 CODECOPY DUP4 PUSH2 0x78C SWAP1 SWAP3 SWAP2 SWAP1 PUSH4 0xFFFFFFFF AND JUMP JUMPDEST PUSH2 0x222 PUSH1 0x40 MLOAD DUP1 PUSH1 0x40 ADD PUSH1 0x40 MSTORE DUP1 PUSH1 0x4 DUP2 MSTORE PUSH1 0x20 ADD PUSH32 0x7061746800000000000000000000000000000000000000000000000000000000 DUP2 MSTORE POP PUSH1 0x40 MLOAD DUP1 PUSH1 0x40 ADD PUSH1 0x40 MSTORE DUP1 PUSH1 0x1B DUP2 MSTORE PUSH1 0x20 ADD PUSH32 0x302C6F6470743A747261696E496E666F726D6174696F6E546578740000000000 DUP2 MSTORE POP DUP4 PUSH2 0x78C SWAP1 SWAP3 SWAP2 SWAP1 PUSH4 0xFFFFFFFF AND JUMP JUMPDEST PUSH2 0x22E DUP2 PUSH1 0xA SLOAD PUSH2 0x7BF JUMP JUMPDEST SWAP2 POP POP SWAP1 JUMP JUMPDEST DUP2 PUSH1 0x5 PUSH1 0x0 DUP3 DUP2 MSTORE PUSH1 0x20 ADD SWAP1 DUP2 MSTORE PUSH1 0x20 ADD PUSH1 0x0 KECCAK256 PUSH1 0x0 SWAP1 SLOAD SWAP1 PUSH2 0x100 EXP SWAP1 DIV PUSH20 0xFFFFFFFFFFFFFFFFFFFFFFFFFFFFFFFFFFFFFFFF AND PUSH20 0xFFFFFFFFFFFFFFFFFFFFFFFFFFFFFFFFFFFFFFFF AND CALLER PUSH20 0xFFFFFFFFFFFFFFFFFFFFFFFFFFFFFFFFFFFFFFFF AND EQ PUSH2 0x2D6 JUMPI PUSH1 0x40 MLOAD PUSH32 0x8C379A000000000000000000000000000000000000000000000000000000000 DUP2 MSTORE PUSH1 0x4 ADD PUSH2 0x2CD SWAP1 PUSH2 0x181C JUMP JUMPDEST PUSH1 0x40 MLOAD DUP1 SWAP2 SUB SWAP1 REVERT JUMPDEST PUSH1 0x5 PUSH1 0x0 DUP3 DUP2 MSTORE PUSH1 0x20 ADD SWAP1 DUP2 MSTORE PUSH1 0x20 ADD PUSH1 0x0 KECCAK256 PUSH1 0x0 PUSH2 0x100 EXP DUP2 SLOAD SWAP1 PUSH20 0xFFFFFFFFFFFFFFFFFFFFFFFFFFFFFFFFFFFFFFFF MUL NOT AND SWAP1 SSTORE DUP1 PUSH32 0x7CC135E0CEBB02C3480AE5D74D377283180A2601F8F644EDF7987B009316C63A PUSH1 0x40 MLOAD PUSH1 0x40 MLOAD DUP1 SWAP2 SUB SWAP1 LOG2 DUP3 PUSH32 0x5B72487F892FEBA565865A27F191DA8FB1E852651BD966BFB0A41FC272C54AEA DUP4 PUSH1 0x40 MLOAD PUSH2 0x369 SWAP2 SWAP1 PUSH2 0x175A JUMP JUMPDEST PUSH1 0x40 MLOAD DUP1 SWAP2 SUB SWAP1 LOG2 DUP2 PUSH1 0x8 SWAP1 DUP1 MLOAD SWAP1 PUSH1 0x20 ADD SWAP1 PUSH2 0x387 SWAP3 SWAP2 SWAP1 PUSH2 0x118D JUMP JUMPDEST POP POP POP POP JUMP JUMPDEST PUSH1 0x7 PUSH1 0x0 SWAP1 SLOAD SWAP1 PUSH2 0x100 EXP SWAP1 DIV PUSH20 0xFFFFFFFFFFFFFFFFFFFFFFFFFFFFFFFFFFFFFFFF AND PUSH20 0xFFFFFFFFFFFFFFFFFFFFFFFFFFFFFFFFFFFFFFFF AND CALLER PUSH20 0xFFFFFFFFFFFFFFFFFFFFFFFFFFFFFFFFFFFFFFFF AND EQ PUSH2 0x41D JUMPI PUSH1 0x40 MLOAD PUSH32 0x8C379A000000000000000000000000000000000000000000000000000000000 DUP2 MSTORE PUSH1 0x4 ADD PUSH2 0x414 SWAP1 PUSH2 0x177C JUMP JUMPDEST PUSH1 0x40 MLOAD DUP1 SWAP2 SUB SWAP1 REVERT JUMPDEST PUSH1 0x0 PUSH1 0x6 PUSH1 0x0 SWAP1 SLOAD SWAP1 PUSH2 0x100 EXP SWAP1 DIV PUSH20 0xFFFFFFFFFFFFFFFFFFFFFFFFFFFFFFFFFFFFFFFF AND SWAP1 POP CALLER PUSH1 0x6 PUSH1 0x0 PUSH2 0x100 EXP DUP2 SLOAD DUP2 PUSH20 0xFFFFFFFFFFFFFFFFFFFFFFFFFFFFFFFFFFFFFFFF MUL NOT AND SWAP1 DUP4 PUSH20 0xFFFFFFFFFFFFFFFFFFFFFFFFFFFFFFFFFFFFFFFF AND MUL OR SWAP1 SSTORE POP PUSH1 0x0 PUSH1 0x7 PUSH1 0x0 PUSH2 0x100 EXP DUP2 SLOAD DUP2 PUSH20 0xFFFFFFFFFFFFFFFFFFFFFFFFFFFFFFFFFFFFFFFF MUL NOT AND SWAP1 DUP4 PUSH20 0xFFFFFFFFFFFFFFFFFFFFFFFFFFFFFFFFFFFFFFFF AND MUL OR SWAP1 SSTORE POP CALLER PUSH20 0xFFFFFFFFFFFFFFFFFFFFFFFFFFFFFFFFFFFFFFFF AND DUP2 PUSH20 0xFFFFFFFFFFFFFFFFFFFFFFFFFFFFFFFFFFFFFFFF AND PUSH32 0x8BE0079C531659141344CD1FD0A4F28419497F9722A3DAAFE3B4186F6B6457E0 PUSH1 0x40 MLOAD PUSH1 0x40 MLOAD DUP1 SWAP2 SUB SWAP1 LOG3 POP JUMP JUMPDEST PUSH1 0x0 PUSH1 0x6 PUSH1 0x0 SWAP1 SLOAD SWAP1 PUSH2 0x100 EXP SWAP1 DIV PUSH20 0xFFFFFFFFFFFFFFFFFFFFFFFFFFFFFFFFFFFFFFFF AND SWAP1 POP SWAP1 JUMP JUMPDEST PUSH2 0x556 PUSH2 0x7F6 JUMP JUMPDEST PUSH1 0x0 PUSH2 0x560 PUSH2 0x888 JUMP JUMPDEST SWAP1 POP DUP1 PUSH20 0xFFFFFFFFFFFFFFFFFFFFFFFFFFFFFFFFFFFFFFFF AND PUSH4 0xA9059CBB CALLER DUP4 PUSH20 0xFFFFFFFFFFFFFFFFFFFFFFFFFFFFFFFFFFFFFFFF AND PUSH4 0x70A08231 ADDRESS PUSH1 0x40 MLOAD DUP3 PUSH4 0xFFFFFFFF AND PUSH1 0xE0 SHL DUP2 MSTORE PUSH1 0x4 ADD PUSH2 0x5B8 SWAP2 SWAP1 PUSH2 0x1638 JUMP JUMPDEST PUSH1 0x20 PUSH1 0x40 MLOAD DUP1 DUP4 SUB DUP2 DUP7 DUP1 EXTCODESIZE ISZERO DUP1 ISZERO PUSH2 0x5D0 JUMPI PUSH1 0x0 DUP1 REVERT JUMPDEST POP GAS STATICCALL ISZERO DUP1 ISZERO PUSH2 0x5E4 JUMPI RETURNDATASIZE PUSH1 0x0 DUP1 RETURNDATACOPY RETURNDATASIZE PUSH1 0x0 REVERT JUMPDEST POP POP POP POP PUSH1 0x40 MLOAD RETURNDATASIZE PUSH1 0x1F NOT PUSH1 0x1F DUP3 ADD AND DUP3 ADD DUP1 PUSH1 0x40 MSTORE POP DUP2 ADD SWAP1 PUSH2 0x608 SWAP2 SWAP1 PUSH2 0x1431 JUMP JUMPDEST PUSH1 0x40 MLOAD DUP4 PUSH4 0xFFFFFFFF AND PUSH1 0xE0 SHL DUP2 MSTORE PUSH1 0x4 ADD PUSH2 0x625 SWAP3 SWAP2 SWAP1 PUSH2 0x1653 JUMP JUMPDEST PUSH1 0x20 PUSH1 0x40 MLOAD DUP1 DUP4 SUB DUP2 PUSH1 0x0 DUP8 DUP1 EXTCODESIZE ISZERO DUP1 ISZERO PUSH2 0x63F JUMPI PUSH1 0x0 DUP1 REVERT JUMPDEST POP GAS CALL ISZERO DUP1 ISZERO PUSH2 0x653 JUMPI RETURNDATASIZE PUSH1 0x0 DUP1 RETURNDATACOPY RETURNDATASIZE PUSH1 0x0 REVERT JUMPDEST POP POP POP POP PUSH1 0x40 MLOAD RETURNDATASIZE PUSH1 0x1F NOT PUSH1 0x1F DUP3 ADD AND DUP3 ADD DUP1 PUSH1 0x40 MSTORE POP DUP2 ADD SWAP1 PUSH2 0x677 SWAP2 SWAP1 PUSH2 0x13A8 JUMP JUMPDEST PUSH2 0x6B6 JUMPI PUSH1 0x40 MLOAD PUSH32 0x8C379A000000000000000000000000000000000000000000000000000000000 DUP2 MSTORE PUSH1 0x4 ADD PUSH2 0x6AD SWAP1 PUSH2 0x17DC JUMP JUMPDEST PUSH1 0x40 MLOAD DUP1 SWAP2 SUB SWAP1 REVERT JUMPDEST POP JUMP JUMPDEST PUSH1 0x8 DUP1 SLOAD PUSH2 0x6C6 SWAP1 PUSH2 0x1C15 JUMP JUMPDEST DUP1 PUSH1 0x1F ADD PUSH1 0x20 DUP1 SWAP2 DIV MUL PUSH1 0x20 ADD PUSH1 0x40 MLOAD SWAP1 DUP2 ADD PUSH1 0x40 MSTORE DUP1 SWAP3 SWAP2 SWAP1 DUP2 DUP2 MSTORE PUSH1 0x20 ADD DUP3 DUP1 SLOAD PUSH2 0x6F2 SWAP1 PUSH2 0x1C15 JUMP JUMPDEST DUP1 ISZERO PUSH2 0x73F JUMPI DUP1 PUSH1 0x1F LT PUSH2 0x714 JUMPI PUSH2 0x100 DUP1 DUP4 SLOAD DIV MUL DUP4 MSTORE SWAP2 PUSH1 0x20 ADD SWAP2 PUSH2 0x73F JUMP JUMPDEST DUP3 ADD SWAP2 SWAP1 PUSH1 0x0 MSTORE PUSH1 0x20 PUSH1 0x0 KECCAK256 SWAP1 JUMPDEST DUP2 SLOAD DUP2 MSTORE SWAP1 PUSH1 0x1 ADD SWAP1 PUSH1 0x20 ADD DUP1 DUP4 GT PUSH2 0x722 JUMPI DUP3 SWAP1 SUB PUSH1 0x1F AND DUP3 ADD SWAP2 JUMPDEST POP POP POP POP POP DUP2 JUMP JUMPDEST PUSH2 0x74F PUSH2 0x7F6 JUMP JUMPDEST PUSH2 0x758 DUP2 PUSH2 0x8B2 JUMP JUMPDEST POP JUMP JUMPDEST PUSH2 0x763 PUSH2 0x1213 JUMP JUMPDEST PUSH2 0x76B PUSH2 0x1213 JUMP JUMPDEST PUSH2 0x782 DUP6 DUP6 DUP6 DUP5 PUSH2 0x9E1 SWAP1 SWAP4 SWAP3 SWAP2 SWAP1 PUSH4 0xFFFFFFFF AND JUMP JUMPDEST SWAP2 POP POP SWAP4 SWAP3 POP POP POP JUMP JUMPDEST PUSH2 0x7A3 DUP3 DUP5 PUSH1 0x80 ADD MLOAD PUSH2 0xA91 SWAP1 SWAP2 SWAP1 PUSH4 0xFFFFFFFF AND JUMP JUMPDEST PUSH2 0x7BA DUP2 DUP5 PUSH1 0x80 ADD MLOAD PUSH2 0xA91 SWAP1 SWAP2 SWAP1 PUSH4 0xFFFFFFFF AND JUMP JUMPDEST POP POP POP JUMP JUMPDEST PUSH1 0x0 PUSH2 0x7EE PUSH1 0x3 PUSH1 0x0 SWAP1 SLOAD SWAP1 PUSH2 0x100 EXP SWAP1 DIV PUSH20 0xFFFFFFFFFFFFFFFFFFFFFFFFFFFFFFFFFFFFFFFF AND DUP5 DUP5 PUSH2 0xAB6 JUMP JUMPDEST SWAP1 POP SWAP3 SWAP2 POP POP JUMP JUMPDEST PUSH1 0x6 PUSH1 0x0 SWAP1 SLOAD SWAP1 PUSH2 0x100 EXP SWAP1 DIV PUSH20 0xFFFFFFFFFFFFFFFFFFFFFFFFFFFFFFFFFFFFFFFF AND PUSH20 0xFFFFFFFFFFFFFFFFFFFFFFFFFFFFFFFFFFFFFFFF AND CALLER PUSH20 0xFFFFFFFFFFFFFFFFFFFFFFFFFFFFFFFFFFFFFFFF AND EQ PUSH2 0x886 JUMPI PUSH1 0x40 MLOAD PUSH32 0x8C379A000000000000000000000000000000000000000000000000000000000 DUP2 MSTORE PUSH1 0x4 ADD PUSH2 0x87D SWAP1 PUSH2 0x17BC JUMP JUMPDEST PUSH1 0x40 MLOAD DUP1 SWAP2 SUB SWAP1 REVERT JUMPDEST JUMP JUMPDEST PUSH1 0x0 PUSH1 0x2 PUSH1 0x0 SWAP1 SLOAD SWAP1 PUSH2 0x100 EXP SWAP1 DIV PUSH20 0xFFFFFFFFFFFFFFFFFFFFFFFFFFFFFFFFFFFFFFFF AND SWAP1 POP SWAP1 JUMP JUMPDEST CALLER PUSH20 0xFFFFFFFFFFFFFFFFFFFFFFFFFFFFFFFFFFFFFFFF AND DUP2 PUSH20 0xFFFFFFFFFFFFFFFFFFFFFFFFFFFFFFFFFFFFFFFF AND EQ ISZERO PUSH2 0x921 JUMPI PUSH1 0x40 MLOAD PUSH32 0x8C379A000000000000000000000000000000000000000000000000000000000 DUP2 MSTORE PUSH1 0x4 ADD PUSH2 0x918 SWAP1 PUSH2 0x17FC JUMP JUMPDEST PUSH1 0x40 MLOAD DUP1 SWAP2 SUB SWAP1 REVERT JUMPDEST DUP1 PUSH1 0x7 PUSH1 0x0 PUSH2 0x100 EXP DUP2 SLOAD DUP2 PUSH20 0xFFFFFFFFFFFFFFFFFFFFFFFFFFFFFFFFFFFFFFFF MUL NOT AND SWAP1 DUP4 PUSH20 0xFFFFFFFFFFFFFFFFFFFFFFFFFFFFFFFFFFFFFFFF AND MUL OR SWAP1 SSTORE POP DUP1 PUSH20 0xFFFFFFFFFFFFFFFFFFFFFFFFFFFFFFFFFFFFFFFF AND PUSH1 0x6 PUSH1 0x0 SWAP1 SLOAD SWAP1 PUSH2 0x100 EXP SWAP1 DIV PUSH20 0xFFFFFFFFFFFFFFFFFFFFFFFFFFFFFFFFFFFFFFFF AND PUSH20 0xFFFFFFFFFFFFFFFFFFFFFFFFFFFFFFFFFFFFFFFF AND PUSH32 0xED8889F560326EB138920D842192F0EB3DD22B4F139C87A2C57538E05BAE1278 PUSH1 0x40 MLOAD PUSH1 0x40 MLOAD DUP1 SWAP2 SUB SWAP1 LOG3 POP JUMP JUMPDEST PUSH2 0x9E9 PUSH2 0x1213 JUMP JUMPDEST PUSH2 0x9F9 DUP6 PUSH1 0x80 ADD MLOAD PUSH2 0x100 PUSH2 0xB82 JUMP JUMPDEST POP DUP4 DUP6 PUSH1 0x0 ADD DUP2 DUP2 MSTORE POP POP DUP3 DUP6 PUSH1 0x20 ADD SWAP1 PUSH20 0xFFFFFFFFFFFFFFFFFFFFFFFFFFFFFFFFFFFFFFFF AND SWAP1 DUP2 PUSH20 0xFFFFFFFFFFFFFFFFFFFFFFFFFFFFFFFFFFFFFFFF AND DUP2 MSTORE POP POP DUP2 DUP6 PUSH1 0x40 ADD SWAP1 PUSH28 0xFFFFFFFFFFFFFFFFFFFFFFFFFFFFFFFFFFFFFFFFFFFFFFFFFFFFFFFF NOT AND SWAP1 DUP2 PUSH28 0xFFFFFFFFFFFFFFFFFFFFFFFFFFFFFFFFFFFFFFFFFFFFFFFFFFFFFFFF NOT AND DUP2 MSTORE POP POP DUP5 SWAP1 POP SWAP5 SWAP4 POP POP POP POP JUMP JUMPDEST PUSH2 0xA9E DUP3 PUSH1 0x3 DUP4 MLOAD PUSH2 0xBEC JUMP JUMPDEST PUSH2 0xAB1 DUP2 DUP4 PUSH2 0xD71 SWAP1 SWAP2 SWAP1 PUSH4 0xFFFFFFFF AND JUMP JUMPDEST POP POP POP JUMP JUMPDEST PUSH1 0x0 DUP1 PUSH1 0x4 SLOAD SWAP1 POP PUSH1 0x1 DUP2 PUSH2 0xACB SWAP2 SWAP1 PUSH2 0x18CA JUMP JUMPDEST PUSH1 0x4 DUP2 SWAP1 SSTORE POP PUSH1 0x0 PUSH4 0x40429946 PUSH1 0xE0 SHL PUSH1 0x0 DUP1 DUP8 PUSH1 0x0 ADD MLOAD ADDRESS DUP10 PUSH1 0x40 ADD MLOAD DUP8 PUSH1 0x1 DUP13 PUSH1 0x80 ADD MLOAD PUSH1 0x0 ADD MLOAD PUSH1 0x40 MLOAD PUSH1 0x24 ADD PUSH2 0xB0C SWAP9 SWAP8 SWAP7 SWAP6 SWAP5 SWAP4 SWAP3 SWAP2 SWAP1 PUSH2 0x167C JUMP JUMPDEST PUSH1 0x40 MLOAD PUSH1 0x20 DUP2 DUP4 SUB SUB DUP2 MSTORE SWAP1 PUSH1 0x40 MSTORE SWAP1 PUSH28 0xFFFFFFFFFFFFFFFFFFFFFFFFFFFFFFFFFFFFFFFFFFFFFFFFFFFFFFFF NOT AND PUSH1 0x20 DUP3 ADD DUP1 MLOAD PUSH28 0xFFFFFFFFFFFFFFFFFFFFFFFFFFFFFFFFFFFFFFFFFFFFFFFFFFFFFFFF DUP4 DUP2 DUP4 AND OR DUP4 MSTORE POP POP POP POP SWAP1 POP PUSH2 0xB77 DUP7 DUP4 DUP7 DUP5 PUSH2 0xD93 JUMP JUMPDEST SWAP3 POP POP POP SWAP4 SWAP3 POP POP POP JUMP JUMPDEST PUSH2 0xB8A PUSH2 0x1280 JUMP JUMPDEST PUSH1 0x0 PUSH1 0x20 DUP4 PUSH2 0xB99 SWAP2 SWAP1 PUSH2 0x1CA6 JUMP JUMPDEST EQ PUSH2 0xBC5 JUMPI PUSH1 0x20 DUP3 PUSH2 0xBAB SWAP2 SWAP1 PUSH2 0x1CA6 JUMP JUMPDEST PUSH1 0x20 PUSH2 0xBB7 SWAP2 SWAP1 PUSH2 0x1AEB JUMP JUMPDEST DUP3 PUSH2 0xBC2 SWAP2 SWAP1 PUSH2 0x18CA JUMP JUMPDEST SWAP2 POP JUMPDEST DUP2 DUP4 PUSH1 0x20 ADD DUP2 DUP2 MSTORE POP POP PUSH1 0x40 MLOAD DUP1 DUP5 MSTORE PUSH1 0x0 DUP2 MSTORE DUP3 DUP2 ADD PUSH1 0x20 ADD PUSH1 0x40 MSTORE POP DUP3 SWAP1 POP SWAP3 SWAP2 POP POP JUMP JUMPDEST PUSH1 0x17 DUP2 PUSH8 0xFFFFFFFFFFFFFFFF AND GT PUSH2 0xC23 JUMPI PUSH2 0xC1D DUP2 PUSH1 0x5 DUP5 PUSH1 0xFF AND SWAP1 SHL PUSH1 0xFF AND OR DUP5 PUSH2 0xF37 SWAP1 SWAP2 SWAP1 PUSH4 0xFFFFFFFF AND JUMP JUMPDEST POP PUSH2 0xD6C JUMP JUMPDEST PUSH1 0xFF DUP2 PUSH8 0xFFFFFFFFFFFFFFFF AND GT PUSH2 0xC79 JUMPI PUSH2 0xC52 PUSH1 0x18 PUSH1 0x5 DUP5 PUSH1 0xFF AND SWAP1 SHL OR DUP5 PUSH2 0xF37 SWAP1 SWAP2 SWAP1 PUSH4 0xFFFFFFFF AND JUMP JUMPDEST POP PUSH2 0xC73 DUP2 PUSH8 0xFFFFFFFFFFFFFFFF AND PUSH1 0x1 DUP6 PUSH2 0xF57 SWAP1 SWAP3 SWAP2 SWAP1 PUSH4 0xFFFFFFFF AND JUMP JUMPDEST POP PUSH2 0xD6B JUMP JUMPDEST PUSH2 0xFFFF DUP2 PUSH8 0xFFFFFFFFFFFFFFFF AND GT PUSH2 0xCD0 JUMPI PUSH2 0xCA9 PUSH1 0x19 PUSH1 0x5 DUP5 PUSH1 0xFF AND SWAP1 SHL OR DUP5 PUSH2 0xF37 SWAP1 SWAP2 SWAP1 PUSH4 0xFFFFFFFF AND JUMP JUMPDEST POP PUSH2 0xCCA DUP2 PUSH8 0xFFFFFFFFFFFFFFFF AND PUSH1 0x2 DUP6 PUSH2 0xF57 SWAP1 SWAP3 SWAP2 SWAP1 PUSH4 0xFFFFFFFF AND JUMP JUMPDEST POP PUSH2 0xD6A JUMP JUMPDEST PUSH4 0xFFFFFFFF DUP2 PUSH8 0xFFFFFFFFFFFFFFFF AND GT PUSH2 0xD29 JUMPI PUSH2 0xD02 PUSH1 0x1A PUSH1 0x5 DUP5 PUSH1 0xFF AND SWAP1 SHL OR DUP5 PUSH2 0xF37 SWAP1 SWAP2 SWAP1 PUSH4 0xFFFFFFFF AND JUMP JUMPDEST POP PUSH2 0xD23 DUP2 PUSH8 0xFFFFFFFFFFFFFFFF AND PUSH1 0x4 DUP6 PUSH2 0xF57 SWAP1 SWAP3 SWAP2 SWAP1 PUSH4 0xFFFFFFFF AND JUMP JUMPDEST POP PUSH2 0xD69 JUMP JUMPDEST PUSH2 0xD46 PUSH1 0x1B PUSH1 0x5 DUP5 PUSH1 0xFF AND SWAP1 SHL OR DUP5 PUSH2 0xF37 SWAP1 SWAP2 SWAP1 PUSH4 0xFFFFFFFF AND JUMP JUMPDEST POP PUSH2 0xD67 DUP2 PUSH8 0xFFFFFFFFFFFFFFFF AND PUSH1 0x8 DUP6 PUSH2 0xF57 SWAP1 SWAP3 SWAP2 SWAP1 PUSH4 0xFFFFFFFF AND JUMP JUMPDEST POP JUMPDEST JUMPDEST JUMPDEST JUMPDEST POP POP POP JUMP JUMPDEST PUSH2 0xD79 PUSH2 0x1280 JUMP JUMPDEST PUSH2 0xD8B DUP4 DUP5 PUSH1 0x0 ADD MLOAD MLOAD DUP5 DUP6 MLOAD PUSH2 0xF79 JUMP JUMPDEST SWAP1 POP SWAP3 SWAP2 POP POP JUMP JUMPDEST PUSH1 0x0 ADDRESS DUP5 PUSH1 0x40 MLOAD PUSH1 0x20 ADD PUSH2 0xDA8 SWAP3 SWAP2 SWAP1 PUSH2 0x160C JUMP JUMPDEST PUSH1 0x40 MLOAD PUSH1 0x20 DUP2 DUP4 SUB SUB DUP2 MSTORE SWAP1 PUSH1 0x40 MSTORE DUP1 MLOAD SWAP1 PUSH1 0x20 ADD KECCAK256 SWAP1 POP DUP5 PUSH1 0x5 PUSH1 0x0 DUP4 DUP2 MSTORE PUSH1 0x20 ADD SWAP1 DUP2 MSTORE PUSH1 0x20 ADD PUSH1 0x0 KECCAK256 PUSH1 0x0 PUSH2 0x100 EXP DUP2 SLOAD DUP2 PUSH20 0xFFFFFFFFFFFFFFFFFFFFFFFFFFFFFFFFFFFFFFFF MUL NOT AND SWAP1 DUP4 PUSH20 0xFFFFFFFFFFFFFFFFFFFFFFFFFFFFFFFFFFFFFFFF AND MUL OR SWAP1 SSTORE POP DUP1 PUSH32 0xB5E6E01E79F91267DC17B4E6314D5D4D03593D2CEEE0FBB452B750BD70EA5AF9 PUSH1 0x40 MLOAD PUSH1 0x40 MLOAD DUP1 SWAP2 SUB SWAP1 LOG2 PUSH1 0x2 PUSH1 0x0 SWAP1 SLOAD SWAP1 PUSH2 0x100 EXP SWAP1 DIV PUSH20 0xFFFFFFFFFFFFFFFFFFFFFFFFFFFFFFFFFFFFFFFF AND PUSH20 0xFFFFFFFFFFFFFFFFFFFFFFFFFFFFFFFFFFFFFFFF AND PUSH4 0x4000AEA0 DUP7 DUP6 DUP6 PUSH1 0x40 MLOAD DUP5 PUSH4 0xFFFFFFFF AND PUSH1 0xE0 SHL DUP2 MSTORE PUSH1 0x4 ADD PUSH2 0xE9E SWAP4 SWAP3 SWAP2 SWAP1 PUSH2 0x1701 JUMP JUMPDEST PUSH1 0x20 PUSH1 0x40 MLOAD DUP1 DUP4 SUB DUP2 PUSH1 0x0 DUP8 DUP1 EXTCODESIZE ISZERO DUP1 ISZERO PUSH2 0xEB8 JUMPI PUSH1 0x0 DUP1 REVERT JUMPDEST POP GAS CALL ISZERO DUP1 ISZERO PUSH2 0xECC JUMPI RETURNDATASIZE PUSH1 0x0 DUP1 RETURNDATACOPY RETURNDATASIZE PUSH1 0x0 REVERT JUMPDEST POP POP POP POP PUSH1 0x40 MLOAD RETURNDATASIZE PUSH1 0x1F NOT PUSH1 0x1F DUP3 ADD AND DUP3 ADD DUP1 PUSH1 0x40 MSTORE POP DUP2 ADD SWAP1 PUSH2 0xEF0 SWAP2 SWAP1 PUSH2 0x13A8 JUMP JUMPDEST PUSH2 0xF2F JUMPI PUSH1 0x40 MLOAD PUSH32 0x8C379A000000000000000000000000000000000000000000000000000000000 DUP2 MSTORE PUSH1 0x4 ADD PUSH2 0xF26 SWAP1 PUSH2 0x179C JUMP JUMPDEST PUSH1 0x40 MLOAD DUP1 SWAP2 SUB SWAP1 REVERT JUMPDEST SWAP5 SWAP4 POP POP POP POP JUMP JUMPDEST PUSH2 0xF3F PUSH2 0x1280 JUMP JUMPDEST PUSH2 0xF4F DUP4 DUP5 PUSH1 0x0 ADD MLOAD MLOAD DUP5 PUSH2 0x1068 JUMP JUMPDEST SWAP1 POP SWAP3 SWAP2 POP POP JUMP JUMPDEST PUSH2 0xF5F PUSH2 0x1280 JUMP JUMPDEST PUSH2 0xF70 DUP5 DUP6 PUSH1 0x0 ADD MLOAD MLOAD DUP6 DUP6 PUSH2 0x10BF JUMP JUMPDEST SWAP1 POP SWAP4 SWAP3 POP POP POP JUMP JUMPDEST PUSH2 0xF81 PUSH2 0x1280 JUMP JUMPDEST DUP3 MLOAD DUP3 GT ISZERO PUSH2 0xF8F JUMPI PUSH1 0x0 DUP1 REVERT JUMPDEST DUP5 PUSH1 0x20 ADD MLOAD DUP3 DUP6 PUSH2 0xFA0 SWAP2 SWAP1 PUSH2 0x18CA JUMP JUMPDEST GT ISZERO PUSH2 0xFD5 JUMPI PUSH2 0xFD4 DUP6 PUSH1 0x2 PUSH2 0xFC5 DUP9 PUSH1 0x20 ADD MLOAD DUP9 DUP8 PUSH2 0xFC0 SWAP2 SWAP1 PUSH2 0x18CA JUMP JUMPDEST PUSH2 0x114D JUMP JUMPDEST PUSH2 0xFCF SWAP2 SWAP1 PUSH2 0x1A91 JUMP JUMPDEST PUSH2 0x1169 JUMP JUMPDEST JUMPDEST PUSH1 0x0 DUP1 DUP7 MLOAD DUP1 MLOAD DUP8 PUSH1 0x20 DUP4 ADD ADD SWAP4 POP DUP1 DUP9 DUP8 ADD GT ISZERO PUSH2 0xFF4 JUMPI DUP8 DUP7 ADD DUP3 MSTORE JUMPDEST PUSH1 0x20 DUP8 ADD SWAP3 POP POP POP JUMPDEST PUSH1 0x20 DUP5 LT PUSH2 0x103B JUMPI DUP1 MLOAD DUP3 MSTORE PUSH1 0x20 DUP3 PUSH2 0x1016 SWAP2 SWAP1 PUSH2 0x18CA JUMP JUMPDEST SWAP2 POP PUSH1 0x20 DUP2 PUSH2 0x1025 SWAP2 SWAP1 PUSH2 0x18CA JUMP JUMPDEST SWAP1 POP PUSH1 0x20 DUP5 PUSH2 0x1034 SWAP2 SWAP1 PUSH2 0x1AEB JUMP JUMPDEST SWAP4 POP PUSH2 0xFFD JUMP JUMPDEST PUSH1 0x0 PUSH1 0x1 DUP6 PUSH1 0x20 SUB PUSH2 0x100 EXP SUB SWAP1 POP DUP1 NOT DUP3 MLOAD AND DUP2 DUP5 MLOAD AND DUP2 DUP2 OR DUP6 MSTORE POP POP POP DUP7 SWAP3 POP POP POP SWAP5 SWAP4 POP POP POP POP JUMP JUMPDEST PUSH2 0x1070 PUSH2 0x1280 JUMP JUMPDEST DUP4 PUSH1 0x20 ADD MLOAD DUP4 LT PUSH2 0x1096 JUMPI PUSH2 0x1095 DUP5 PUSH1 0x2 DUP7 PUSH1 0x20 ADD MLOAD PUSH2 0x1090 SWAP2 SWAP1 PUSH2 0x1A91 JUMP JUMPDEST PUSH2 0x1169 JUMP JUMPDEST JUMPDEST DUP4 MLOAD DUP1 MLOAD PUSH1 0x20 DUP6 DUP4 ADD ADD DUP5 DUP2 MSTORE8 DUP2 DUP7 EQ ISZERO PUSH2 0x10B2 JUMPI PUSH1 0x1 DUP3 ADD DUP4 MSTORE JUMPDEST POP POP POP DUP4 SWAP1 POP SWAP4 SWAP3 POP POP POP JUMP JUMPDEST PUSH2 0x10C7 PUSH2 0x1280 JUMP JUMPDEST DUP5 PUSH1 0x20 ADD MLOAD DUP5 DUP4 PUSH2 0x10D8 SWAP2 SWAP1 PUSH2 0x18CA JUMP JUMPDEST GT ISZERO PUSH2 0x1100 JUMPI PUSH2 0x10FF DUP6 PUSH1 0x2 DUP7 DUP6 PUSH2 0x10F0 SWAP2 SWAP1 PUSH2 0x18CA JUMP JUMPDEST PUSH2 0x10FA SWAP2 SWAP1 PUSH2 0x1A91 JUMP JUMPDEST PUSH2 0x1169 JUMP JUMPDEST JUMPDEST PUSH1 0x0 PUSH1 0x1 DUP4 PUSH2 0x100 PUSH2 0x1112 SWAP2 SWAP1 PUSH2 0x1973 JUMP JUMPDEST PUSH2 0x111C SWAP2 SWAP1 PUSH2 0x1AEB JUMP JUMPDEST SWAP1 POP DUP6 MLOAD DUP4 DUP7 DUP3 ADD ADD DUP6 DUP4 NOT DUP3 MLOAD AND OR DUP2 MSTORE DUP2 MLOAD DUP6 DUP9 ADD GT ISZERO PUSH2 0x113F JUMPI DUP5 DUP8 ADD DUP3 MSTORE JUMPDEST POP POP DUP6 SWAP2 POP POP SWAP5 SWAP4 POP POP POP POP JUMP JUMPDEST PUSH1 0x0 DUP2 DUP4 GT ISZERO PUSH2 0x115F JUMPI DUP3 SWAP1 POP PUSH2 0x1163 JUMP JUMPDEST DUP2 SWAP1 POP JUMPDEST SWAP3 SWAP2 POP POP JUMP JUMPDEST PUSH1 0x0 DUP3 PUSH1 0x0 ADD MLOAD SWAP1 POP PUSH2 0x117C DUP4 DUP4 PUSH2 0xB82 JUMP JUMPDEST POP PUSH2 0x1187 DUP4 DUP3 PUSH2 0xD71 JUMP JUMPDEST POP POP POP POP JUMP JUMPDEST DUP3 DUP1 SLOAD PUSH2 0x1199 SWAP1 PUSH2 0x1C15 JUMP JUMPDEST SWAP1 PUSH1 0x0 MSTORE PUSH1 0x20 PUSH1 0x0 KECCAK256 SWAP1 PUSH1 0x1F ADD PUSH1 0x20 SWAP1 DIV DUP2 ADD SWAP3 DUP3 PUSH2 0x11BB JUMPI PUSH1 0x0 DUP6 SSTORE PUSH2 0x1202 JUMP JUMPDEST DUP3 PUSH1 0x1F LT PUSH2 0x11D4 JUMPI DUP1 MLOAD PUSH1 0xFF NOT AND DUP4 DUP1 ADD OR DUP6 SSTORE PUSH2 0x1202 JUMP JUMPDEST DUP3 DUP1 ADD PUSH1 0x1 ADD DUP6 SSTORE DUP3 ISZERO PUSH2 0x1202 JUMPI SWAP2 DUP3 ADD JUMPDEST DUP3 DUP2 GT ISZERO PUSH2 0x1201 JUMPI DUP3 MLOAD DUP3 SSTORE SWAP2 PUSH1 0x20 ADD SWAP2 SWAP1 PUSH1 0x1 ADD SWAP1 PUSH2 0x11E6 JUMP JUMPDEST JUMPDEST POP SWAP1 POP PUSH2 0x120F SWAP2 SWAP1 PUSH2 0x129A JUMP JUMPDEST POP SWAP1 JUMP JUMPDEST PUSH1 0x40 MLOAD DUP1 PUSH1 0xA0 ADD PUSH1 0x40 MSTORE DUP1 PUSH1 0x0 DUP1 NOT AND DUP2 MSTORE PUSH1 0x20 ADD PUSH1 0x0 PUSH20 0xFFFFFFFFFFFFFFFFFFFFFFFFFFFFFFFFFFFFFFFF AND DUP2 MSTORE PUSH1 0x20 ADD PUSH1 0x0 PUSH28 0xFFFFFFFFFFFFFFFFFFFFFFFFFFFFFFFFFFFFFFFFFFFFFFFFFFFFFFFF NOT AND DUP2 MSTORE PUSH1 0x20 ADD PUSH1 0x0 DUP2 MSTORE PUSH1 0x20 ADD PUSH2 0x127A PUSH2 0x1280 JUMP JUMPDEST DUP2 MSTORE POP SWAP1 JUMP JUMPDEST PUSH1 0x40 MLOAD DUP1 PUSH1 0x40 ADD PUSH1 0x40 MSTORE DUP1 PUSH1 0x60 DUP2 MSTORE PUSH1 0x20 ADD PUSH1 0x0 DUP2 MSTORE POP SWAP1 JUMP JUMPDEST JUMPDEST DUP1 DUP3 GT ISZERO PUSH2 0x12B3 JUMPI PUSH1 0x0 DUP2 PUSH1 0x0 SWAP1 SSTORE POP PUSH1 0x1 ADD PUSH2 0x129B JUMP JUMPDEST POP SWAP1 JUMP JUMPDEST PUSH1 0x0 PUSH2 0x12CA PUSH2 0x12C5 DUP5 PUSH2 0x1861 JUMP JUMPDEST PUSH2 0x183C JUMP JUMPDEST SWAP1 POP DUP3 DUP2 MSTORE PUSH1 0x20 DUP2 ADD DUP5 DUP5 DUP5 ADD GT ISZERO PUSH2 0x12E6 JUMPI PUSH2 0x12E5 PUSH2 0x1D98 JUMP JUMPDEST JUMPDEST PUSH2 0x12F1 DUP5 DUP3 DUP6 PUSH2 0x1BD3 JUMP JUMPDEST POP SWAP4 SWAP3 POP POP POP JUMP JUMPDEST PUSH1 0x0 DUP2 CALLDATALOAD SWAP1 POP PUSH2 0x1308 DUP2 PUSH2 0x1F14 JUMP JUMPDEST SWAP3 SWAP2 POP POP JUMP JUMPDEST PUSH1 0x0 DUP2 MLOAD SWAP1 POP PUSH2 0x131D DUP2 PUSH2 0x1F2B JUMP JUMPDEST SWAP3 SWAP2 POP POP JUMP JUMPDEST PUSH1 0x0 DUP2 CALLDATALOAD SWAP1 POP PUSH2 0x1332 DUP2 PUSH2 0x1F42 JUMP JUMPDEST SWAP3 SWAP2 POP POP JUMP JUMPDEST PUSH1 0x0 DUP3 PUSH1 0x1F DUP4 ADD SLT PUSH2 0x134D JUMPI PUSH2 0x134C PUSH2 0x1D93 JUMP JUMPDEST JUMPDEST DUP2 CALLDATALOAD PUSH2 0x135D DUP5 DUP3 PUSH1 0x20 DUP7 ADD PUSH2 0x12B7 JUMP JUMPDEST SWAP2 POP POP SWAP3 SWAP2 POP POP JUMP JUMPDEST PUSH1 0x0 DUP2 MLOAD SWAP1 POP PUSH2 0x1375 DUP2 PUSH2 0x1F59 JUMP JUMPDEST SWAP3 SWAP2 POP POP JUMP JUMPDEST PUSH1 0x0 PUSH1 0x20 DUP3 DUP5 SUB SLT ISZERO PUSH2 0x1391 JUMPI PUSH2 0x1390 PUSH2 0x1DA2 JUMP JUMPDEST JUMPDEST PUSH1 0x0 PUSH2 0x139F DUP5 DUP3 DUP6 ADD PUSH2 0x12F9 JUMP JUMPDEST SWAP2 POP POP SWAP3 SWAP2 POP POP JUMP JUMPDEST PUSH1 0x0 PUSH1 0x20 DUP3 DUP5 SUB SLT ISZERO PUSH2 0x13BE JUMPI PUSH2 0x13BD PUSH2 0x1DA2 JUMP JUMPDEST JUMPDEST PUSH1 0x0 PUSH2 0x13CC DUP5 DUP3 DUP6 ADD PUSH2 0x130E JUMP JUMPDEST SWAP2 POP POP SWAP3 SWAP2 POP POP JUMP JUMPDEST PUSH1 0x0 DUP1 PUSH1 0x40 DUP4 DUP6 SUB SLT ISZERO PUSH2 0x13EC JUMPI PUSH2 0x13EB PUSH2 0x1DA2 JUMP JUMPDEST JUMPDEST PUSH1 0x0 PUSH2 0x13FA DUP6 DUP3 DUP7 ADD PUSH2 0x1323 JUMP JUMPDEST SWAP3 POP POP PUSH1 0x20 DUP4 ADD CALLDATALOAD PUSH8 0xFFFFFFFFFFFFFFFF DUP2 GT ISZERO PUSH2 0x141B JUMPI PUSH2 0x141A PUSH2 0x1D9D JUMP JUMPDEST JUMPDEST PUSH2 0x1427 DUP6 DUP3 DUP7 ADD PUSH2 0x1338 JUMP JUMPDEST SWAP2 POP POP SWAP3 POP SWAP3 SWAP1 POP JUMP JUMPDEST PUSH1 0x0 PUSH1 0x20 DUP3 DUP5 SUB SLT ISZERO PUSH2 0x1447 JUMPI PUSH2 0x1446 PUSH2 0x1DA2 JUMP JUMPDEST JUMPDEST PUSH1 0x0 PUSH2 0x1455 DUP5 DUP3 DUP6 ADD PUSH2 0x1366 JUMP JUMPDEST SWAP2 POP POP SWAP3 SWAP2 POP POP JUMP JUMPDEST PUSH2 0x1467 DUP2 PUSH2 0x1B1F JUMP JUMPDEST DUP3 MSTORE POP POP JUMP JUMPDEST PUSH2 0x1476 DUP2 PUSH2 0x1B3D JUMP JUMPDEST DUP3 MSTORE POP POP JUMP JUMPDEST PUSH2 0x1485 DUP2 PUSH2 0x1B47 JUMP JUMPDEST DUP3 MSTORE POP POP JUMP JUMPDEST PUSH1 0x0 PUSH2 0x1496 DUP3 PUSH2 0x1892 JUMP JUMPDEST PUSH2 0x14A0 DUP2 DUP6 PUSH2 0x18A8 JUMP JUMPDEST SWAP4 POP PUSH2 0x14B0 DUP2 DUP6 PUSH1 0x20 DUP7 ADD PUSH2 0x1BE2 JUMP JUMPDEST PUSH2 0x14B9 DUP2 PUSH2 0x1DA7 JUMP JUMPDEST DUP5 ADD SWAP2 POP POP SWAP3 SWAP2 POP POP JUMP JUMPDEST PUSH2 0x14D5 PUSH2 0x14D0 DUP3 PUSH2 0x1B9D JUMP JUMPDEST PUSH2 0x1C78 JUMP JUMPDEST DUP3 MSTORE POP POP JUMP JUMPDEST PUSH1 0x0 PUSH2 0x14E6 DUP3 PUSH2 0x189D JUMP JUMPDEST PUSH2 0x14F0 DUP2 DUP6 PUSH2 0x18B9 JUMP JUMPDEST SWAP4 POP PUSH2 0x1500 DUP2 DUP6 PUSH1 0x20 DUP7 ADD PUSH2 0x1BE2 JUMP JUMPDEST PUSH2 0x1509 DUP2 PUSH2 0x1DA7 JUMP JUMPDEST DUP5 ADD SWAP2 POP POP SWAP3 SWAP2 POP POP JUMP JUMPDEST PUSH1 0x0 PUSH2 0x1521 PUSH1 0x16 DUP4 PUSH2 0x18B9 JUMP JUMPDEST SWAP2 POP PUSH2 0x152C DUP3 PUSH2 0x1DD2 JUMP JUMPDEST PUSH1 0x20 DUP3 ADD SWAP1 POP SWAP2 SWAP1 POP JUMP JUMPDEST PUSH1 0x0 PUSH2 0x1544 PUSH1 0x23 DUP4 PUSH2 0x18B9 JUMP JUMPDEST SWAP2 POP PUSH2 0x154F DUP3 PUSH2 0x1DFB JUMP JUMPDEST PUSH1 0x40 DUP3 ADD SWAP1 POP SWAP2 SWAP1 POP JUMP JUMPDEST PUSH1 0x0 PUSH2 0x1567 PUSH1 0x16 DUP4 PUSH2 0x18B9 JUMP JUMPDEST SWAP2 POP PUSH2 0x1572 DUP3 PUSH2 0x1E4A JUMP JUMPDEST PUSH1 0x20 DUP3 ADD SWAP1 POP SWAP2 SWAP1 POP JUMP JUMPDEST PUSH1 0x0 PUSH2 0x158A PUSH1 0x12 DUP4 PUSH2 0x18B9 JUMP JUMPDEST SWAP2 POP PUSH2 0x1595 DUP3 PUSH2 0x1E73 JUMP JUMPDEST PUSH1 0x20 DUP3 ADD SWAP1 POP SWAP2 SWAP1 POP JUMP JUMPDEST PUSH1 0x0 PUSH2 0x15AD PUSH1 0x17 DUP4 PUSH2 0x18B9 JUMP JUMPDEST SWAP2 POP PUSH2 0x15B8 DUP3 PUSH2 0x1E9C JUMP JUMPDEST PUSH1 0x20 DUP3 ADD SWAP1 POP SWAP2 SWAP1 POP JUMP JUMPDEST PUSH1 0x0 PUSH2 0x15D0 PUSH1 0x28 DUP4 PUSH2 0x18B9 JUMP JUMPDEST SWAP2 POP PUSH2 0x15DB DUP3 PUSH2 0x1EC5 JUMP JUMPDEST PUSH1 0x40 DUP3 ADD SWAP1 POP SWAP2 SWAP1 POP JUMP JUMPDEST PUSH2 0x15EF DUP2 PUSH2 0x1B93 JUMP JUMPDEST DUP3 MSTORE POP POP JUMP JUMPDEST PUSH2 0x1606 PUSH2 0x1601 DUP3 PUSH2 0x1B93 JUMP JUMPDEST PUSH2 0x1C9C JUMP JUMPDEST DUP3 MSTORE POP POP JUMP JUMPDEST PUSH1 0x0 PUSH2 0x1618 DUP3 DUP6 PUSH2 0x14C4 JUMP JUMPDEST PUSH1 0x14 DUP3 ADD SWAP2 POP PUSH2 0x1628 DUP3 DUP5 PUSH2 0x15F5 JUMP JUMPDEST PUSH1 0x20 DUP3 ADD SWAP2 POP DUP2 SWAP1 POP SWAP4 SWAP3 POP POP POP JUMP JUMPDEST PUSH1 0x0 PUSH1 0x20 DUP3 ADD SWAP1 POP PUSH2 0x164D PUSH1 0x0 DUP4 ADD DUP5 PUSH2 0x145E JUMP JUMPDEST SWAP3 SWAP2 POP POP JUMP JUMPDEST PUSH1 0x0 PUSH1 0x40 DUP3 ADD SWAP1 POP PUSH2 0x1668 PUSH1 0x0 DUP4 ADD DUP6 PUSH2 0x145E JUMP JUMPDEST PUSH2 0x1675 PUSH1 0x20 DUP4 ADD DUP5 PUSH2 0x15E6 JUMP JUMPDEST SWAP4 SWAP3 POP POP POP JUMP JUMPDEST PUSH1 0x0 PUSH2 0x100 DUP3 ADD SWAP1 POP PUSH2 0x1692 PUSH1 0x0 DUP4 ADD DUP12 PUSH2 0x145E JUMP JUMPDEST PUSH2 0x169F PUSH1 0x20 DUP4 ADD DUP11 PUSH2 0x15E6 JUMP JUMPDEST PUSH2 0x16AC PUSH1 0x40 DUP4 ADD DUP10 PUSH2 0x146D JUMP JUMPDEST PUSH2 0x16B9 PUSH1 0x60 DUP4 ADD DUP9 PUSH2 0x145E JUMP JUMPDEST PUSH2 0x16C6 PUSH1 0x80 DUP4 ADD DUP8 PUSH2 0x147C JUMP JUMPDEST PUSH2 0x16D3 PUSH1 0xA0 DUP4 ADD DUP7 PUSH2 0x15E6 JUMP JUMPDEST PUSH2 0x16E0 PUSH1 0xC0 DUP4 ADD DUP6 PUSH2 0x15E6 JUMP JUMPDEST DUP2 DUP2 SUB PUSH1 0xE0 DUP4 ADD MSTORE PUSH2 0x16F2 DUP2 DUP5 PUSH2 0x148B JUMP JUMPDEST SWAP1 POP SWAP10 SWAP9 POP POP POP POP POP POP POP POP POP JUMP JUMPDEST PUSH1 0x0 PUSH1 0x60 DUP3 ADD SWAP1 POP PUSH2 0x1716 PUSH1 0x0 DUP4 ADD DUP7 PUSH2 0x145E JUMP JUMPDEST PUSH2 0x1723 PUSH1 0x20 DUP4 ADD DUP6 PUSH2 0x15E6 JUMP JUMPDEST DUP2 DUP2 SUB PUSH1 0x40 DUP4 ADD MSTORE PUSH2 0x1735 DUP2 DUP5 PUSH2 0x148B JUMP JUMPDEST SWAP1 POP SWAP5 SWAP4 POP POP POP POP JUMP JUMPDEST PUSH1 0x0 PUSH1 0x20 DUP3 ADD SWAP1 POP PUSH2 0x1754 PUSH1 0x0 DUP4 ADD DUP5 PUSH2 0x146D JUMP JUMPDEST SWAP3 SWAP2 POP POP JUMP JUMPDEST PUSH1 0x0 PUSH1 0x20 DUP3 ADD SWAP1 POP DUP2 DUP2 SUB PUSH1 0x0 DUP4 ADD MSTORE PUSH2 0x1774 DUP2 DUP5 PUSH2 0x14DB JUMP JUMPDEST SWAP1 POP SWAP3 SWAP2 POP POP JUMP JUMPDEST PUSH1 0x0 PUSH1 0x20 DUP3 ADD SWAP1 POP DUP2 DUP2 SUB PUSH1 0x0 DUP4 ADD MSTORE PUSH2 0x1795 DUP2 PUSH2 0x1514 JUMP JUMPDEST SWAP1 POP SWAP2 SWAP1 POP JUMP JUMPDEST PUSH1 0x0 PUSH1 0x20 DUP3 ADD SWAP1 POP DUP2 DUP2 SUB PUSH1 0x0 DUP4 ADD MSTORE PUSH2 0x17B5 DUP2 PUSH2 0x1537 JUMP JUMPDEST SWAP1 POP SWAP2 SWAP1 POP JUMP JUMPDEST PUSH1 0x0 PUSH1 0x20 DUP3 ADD SWAP1 POP DUP2 DUP2 SUB PUSH1 0x0 DUP4 ADD MSTORE PUSH2 0x17D5 DUP2 PUSH2 0x155A JUMP JUMPDEST SWAP1 POP SWAP2 SWAP1 POP JUMP JUMPDEST PUSH1 0x0 PUSH1 0x20 DUP3 ADD SWAP1 POP DUP2 DUP2 SUB PUSH1 0x0 DUP4 ADD MSTORE PUSH2 0x17F5 DUP2 PUSH2 0x157D JUMP JUMPDEST SWAP1 POP SWAP2 SWAP1 POP JUMP JUMPDEST PUSH1 0x0 PUSH1 0x20 DUP3 ADD SWAP1 POP DUP2 DUP2 SUB PUSH1 0x0 DUP4 ADD MSTORE PUSH2 0x1815 DUP2 PUSH2 0x15A0 JUMP JUMPDEST SWAP1 POP SWAP2 SWAP1 POP JUMP JUMPDEST PUSH1 0x0 PUSH1 0x20 DUP3 ADD SWAP1 POP DUP2 DUP2 SUB PUSH1 0x0 DUP4 ADD MSTORE PUSH2 0x1835 DUP2 PUSH2 0x15C3 JUMP JUMPDEST SWAP1 POP SWAP2 SWAP1 POP JUMP JUMPDEST PUSH1 0x0 PUSH2 0x1846 PUSH2 0x1857 JUMP JUMPDEST SWAP1 POP PUSH2 0x1852 DUP3 DUP3 PUSH2 0x1C47 JUMP JUMPDEST SWAP2 SWAP1 POP JUMP JUMPDEST PUSH1 0x0 PUSH1 0x40 MLOAD SWAP1 POP SWAP1 JUMP JUMPDEST PUSH1 0x0 PUSH8 0xFFFFFFFFFFFFFFFF DUP3 GT ISZERO PUSH2 0x187C JUMPI PUSH2 0x187B PUSH2 0x1D64 JUMP JUMPDEST JUMPDEST PUSH2 0x1885 DUP3 PUSH2 0x1DA7 JUMP JUMPDEST SWAP1 POP PUSH1 0x20 DUP2 ADD SWAP1 POP SWAP2 SWAP1 POP JUMP JUMPDEST PUSH1 0x0 DUP2 MLOAD SWAP1 POP SWAP2 SWAP1 POP JUMP JUMPDEST PUSH1 0x0 DUP2 MLOAD SWAP1 POP SWAP2 SWAP1 POP JUMP JUMPDEST PUSH1 0x0 DUP3 DUP3 MSTORE PUSH1 0x20 DUP3 ADD SWAP1 POP SWAP3 SWAP2 POP POP JUMP JUMPDEST PUSH1 0x0 DUP3 DUP3 MSTORE PUSH1 0x20 DUP3 ADD SWAP1 POP SWAP3 SWAP2 POP POP JUMP JUMPDEST PUSH1 0x0 PUSH2 0x18D5 DUP3 PUSH2 0x1B93 JUMP JUMPDEST SWAP2 POP PUSH2 0x18E0 DUP4 PUSH2 0x1B93 JUMP JUMPDEST SWAP3 POP DUP3 PUSH32 0xFFFFFFFFFFFFFFFFFFFFFFFFFFFFFFFFFFFFFFFFFFFFFFFFFFFFFFFFFFFFFFFF SUB DUP3 GT ISZERO PUSH2 0x1915 JUMPI PUSH2 0x1914 PUSH2 0x1CD7 JUMP JUMPDEST JUMPDEST DUP3 DUP3 ADD SWAP1 POP SWAP3 SWAP2 POP POP JUMP JUMPDEST PUSH1 0x0 DUP1 DUP3 SWAP2 POP DUP4 SWAP1 POP JUMPDEST PUSH1 0x1 DUP6 GT ISZERO PUSH2 0x196A JUMPI DUP1 DUP7 DIV DUP2 GT ISZERO PUSH2 0x1946 JUMPI PUSH2 0x1945 PUSH2 0x1CD7 JUMP JUMPDEST JUMPDEST PUSH1 0x1 DUP6 AND ISZERO PUSH2 0x1955 JUMPI DUP1 DUP3 MUL SWAP2 POP JUMPDEST DUP1 DUP2 MUL SWAP1 POP PUSH2 0x1963 DUP6 PUSH2 0x1DC5 JUMP JUMPDEST SWAP5 POP PUSH2 0x192A JUMP JUMPDEST SWAP5 POP SWAP5 SWAP3 POP POP POP JUMP JUMPDEST PUSH1 0x0 PUSH2 0x197E DUP3 PUSH2 0x1B93 JUMP JUMPDEST SWAP2 POP PUSH2 0x1989 DUP4 PUSH2 0x1B93 JUMP JUMPDEST SWAP3 POP PUSH2 0x19B6 PUSH32 0xFFFFFFFFFFFFFFFFFFFFFFFFFFFFFFFFFFFFFFFFFFFFFFFFFFFFFFFFFFFFFFFF DUP5 DUP5 PUSH2 0x19BE JUMP JUMPDEST SWAP1 POP SWAP3 SWAP2 POP POP JUMP JUMPDEST PUSH1 0x0 DUP3 PUSH2 0x19CE JUMPI PUSH1 0x1 SWAP1 POP PUSH2 0x1A8A JUMP JUMPDEST DUP2 PUSH2 0x19DC JUMPI PUSH1 0x0 SWAP1 POP PUSH2 0x1A8A JUMP JUMPDEST DUP2 PUSH1 0x1 DUP2 EQ PUSH2 0x19F2 JUMPI PUSH1 0x2 DUP2 EQ PUSH2 0x19FC JUMPI PUSH2 0x1A2B JUMP JUMPDEST PUSH1 0x1 SWAP2 POP POP PUSH2 0x1A8A JUMP JUMPDEST PUSH1 0xFF DUP5 GT ISZERO PUSH2 0x1A0E JUMPI PUSH2 0x1A0D PUSH2 0x1CD7 JUMP JUMPDEST JUMPDEST DUP4 PUSH1 0x2 EXP SWAP2 POP DUP5 DUP3 GT ISZERO PUSH2 0x1A25 JUMPI PUSH2 0x1A24 PUSH2 0x1CD7 JUMP JUMPDEST JUMPDEST POP PUSH2 0x1A8A JUMP JUMPDEST POP PUSH1 0x20 DUP4 LT PUSH2 0x133 DUP4 LT AND PUSH1 0x4E DUP5 LT PUSH1 0xB DUP5 LT AND OR ISZERO PUSH2 0x1A60 JUMPI DUP3 DUP3 EXP SWAP1 POP DUP4 DUP2 GT ISZERO PUSH2 0x1A5B JUMPI PUSH2 0x1A5A PUSH2 0x1CD7 JUMP JUMPDEST JUMPDEST PUSH2 0x1A8A JUMP JUMPDEST PUSH2 0x1A6D DUP5 DUP5 DUP5 PUSH1 0x1 PUSH2 0x1920 JUMP JUMPDEST SWAP3 POP SWAP1 POP DUP2 DUP5 DIV DUP2 GT ISZERO PUSH2 0x1A84 JUMPI PUSH2 0x1A83 PUSH2 0x1CD7 JUMP JUMPDEST JUMPDEST DUP2 DUP2 MUL SWAP1 POP JUMPDEST SWAP4 SWAP3 POP POP POP JUMP JUMPDEST PUSH1 0x0 PUSH2 0x1A9C DUP3 PUSH2 0x1B93 JUMP JUMPDEST SWAP2 POP PUSH2 0x1AA7 DUP4 PUSH2 0x1B93 JUMP JUMPDEST SWAP3 POP DUP2 PUSH32 0xFFFFFFFFFFFFFFFFFFFFFFFFFFFFFFFFFFFFFFFFFFFFFFFFFFFFFFFFFFFFFFFF DIV DUP4 GT DUP3 ISZERO ISZERO AND ISZERO PUSH2 0x1AE0 JUMPI PUSH2 0x1ADF PUSH2 0x1CD7 JUMP JUMPDEST JUMPDEST DUP3 DUP3 MUL SWAP1 POP SWAP3 SWAP2 POP POP JUMP JUMPDEST PUSH1 0x0 PUSH2 0x1AF6 DUP3 PUSH2 0x1B93 JUMP JUMPDEST SWAP2 POP PUSH2 0x1B01 DUP4 PUSH2 0x1B93 JUMP JUMPDEST SWAP3 POP DUP3 DUP3 LT ISZERO PUSH2 0x1B14 JUMPI PUSH2 0x1B13 PUSH2 0x1CD7 JUMP JUMPDEST JUMPDEST DUP3 DUP3 SUB SWAP1 POP SWAP3 SWAP2 POP POP JUMP JUMPDEST PUSH1 0x0 PUSH2 0x1B2A DUP3 PUSH2 0x1B73 JUMP JUMPDEST SWAP1 POP SWAP2 SWAP1 POP JUMP JUMPDEST PUSH1 0x0 DUP2 ISZERO ISZERO SWAP1 POP SWAP2 SWAP1 POP JUMP JUMPDEST PUSH1 0x0 DUP2 SWAP1 POP SWAP2 SWAP1 POP JUMP JUMPDEST PUSH1 0x0 PUSH32 0xFFFFFFFF00000000000000000000000000000000000000000000000000000000 DUP3 AND SWAP1 POP SWAP2 SWAP1 POP JUMP JUMPDEST PUSH1 0x0 PUSH20 0xFFFFFFFFFFFFFFFFFFFFFFFFFFFFFFFFFFFFFFFF DUP3 AND SWAP1 POP SWAP2 SWAP1 POP JUMP JUMPDEST PUSH1 0x0 DUP2 SWAP1 POP SWAP2 SWAP1 POP JUMP JUMPDEST PUSH1 0x0 PUSH2 0x1BA8 DUP3 PUSH2 0x1BAF JUMP JUMPDEST SWAP1 POP SWAP2 SWAP1 POP JUMP JUMPDEST PUSH1 0x0 PUSH2 0x1BBA DUP3 PUSH2 0x1BC1 JUMP JUMPDEST SWAP1 POP SWAP2 SWAP1 POP JUMP JUMPDEST PUSH1 0x0 PUSH2 0x1BCC DUP3 PUSH2 0x1B73 JUMP JUMPDEST SWAP1 POP SWAP2 SWAP1 POP JUMP JUMPDEST DUP3 DUP2 DUP4 CALLDATACOPY PUSH1 0x0 DUP4 DUP4 ADD MSTORE POP POP POP JUMP JUMPDEST PUSH1 0x0 JUMPDEST DUP4 DUP2 LT ISZERO PUSH2 0x1C00 JUMPI DUP1 DUP3 ADD MLOAD DUP2 DUP5 ADD MSTORE PUSH1 0x20 DUP2 ADD SWAP1 POP PUSH2 0x1BE5 JUMP JUMPDEST DUP4 DUP2 GT ISZERO PUSH2 0x1C0F JUMPI PUSH1 0x0 DUP5 DUP5 ADD MSTORE JUMPDEST POP POP POP POP JUMP JUMPDEST PUSH1 0x0 PUSH1 0x2 DUP3 DIV SWAP1 POP PUSH1 0x1 DUP3 AND DUP1 PUSH2 0x1C2D JUMPI PUSH1 0x7F DUP3 AND SWAP2 POP JUMPDEST PUSH1 0x20 DUP3 LT DUP2 EQ ISZERO PUSH2 0x1C41 JUMPI PUSH2 0x1C40 PUSH2 0x1D35 JUMP JUMPDEST JUMPDEST POP SWAP2 SWAP1 POP JUMP JUMPDEST PUSH2 0x1C50 DUP3 PUSH2 0x1DA7 JUMP JUMPDEST DUP2 ADD DUP2 DUP2 LT PUSH8 0xFFFFFFFFFFFFFFFF DUP3 GT OR ISZERO PUSH2 0x1C6F JUMPI PUSH2 0x1C6E PUSH2 0x1D64 JUMP JUMPDEST JUMPDEST DUP1 PUSH1 0x40 MSTORE POP POP POP JUMP JUMPDEST PUSH1 0x0 PUSH2 0x1C83 DUP3 PUSH2 0x1C8A JUMP JUMPDEST SWAP1 POP SWAP2 SWAP1 POP JUMP JUMPDEST PUSH1 0x0 PUSH2 0x1C95 DUP3 PUSH2 0x1DB8 JUMP JUMPDEST SWAP1 POP SWAP2 SWAP1 POP JUMP JUMPDEST PUSH1 0x0 DUP2 SWAP1 POP SWAP2 SWAP1 POP JUMP JUMPDEST PUSH1 0x0 PUSH2 0x1CB1 DUP3 PUSH2 0x1B93 JUMP JUMPDEST SWAP2 POP PUSH2 0x1CBC DUP4 PUSH2 0x1B93 JUMP JUMPDEST SWAP3 POP DUP3 PUSH2 0x1CCC JUMPI PUSH2 0x1CCB PUSH2 0x1D06 JUMP JUMPDEST JUMPDEST DUP3 DUP3 MOD SWAP1 POP SWAP3 SWAP2 POP POP JUMP JUMPDEST PUSH32 0x4E487B7100000000000000000000000000000000000000000000000000000000 PUSH1 0x0 MSTORE PUSH1 0x11 PUSH1 0x4 MSTORE PUSH1 0x24 PUSH1 0x0 REVERT JUMPDEST PUSH32 0x4E487B7100000000000000000000000000000000000000000000000000000000 PUSH1 0x0 MSTORE PUSH1 0x12 PUSH1 0x4 MSTORE PUSH1 0x24 PUSH1 0x0 REVERT JUMPDEST PUSH32 0x4E487B7100000000000000000000000000000000000000000000000000000000 PUSH1 0x0 MSTORE PUSH1 0x22 PUSH1 0x4 MSTORE PUSH1 0x24 PUSH1 0x0 REVERT JUMPDEST PUSH32 0x4E487B7100000000000000000000000000000000000000000000000000000000 PUSH1 0x0 MSTORE PUSH1 0x41 PUSH1 0x4 MSTORE PUSH1 0x24 PUSH1 0x0 REVERT JUMPDEST PUSH1 0x0 DUP1 REVERT JUMPDEST PUSH1 0x0 DUP1 REVERT JUMPDEST PUSH1 0x0 DUP1 REVERT JUMPDEST PUSH1 0x0 DUP1 REVERT JUMPDEST PUSH1 0x0 PUSH1 0x1F NOT PUSH1 0x1F DUP4 ADD AND SWAP1 POP SWAP2 SWAP1 POP JUMP JUMPDEST PUSH1 0x0 DUP2 PUSH1 0x60 SHL SWAP1 POP SWAP2 SWAP1 POP JUMP JUMPDEST PUSH1 0x0 DUP2 PUSH1 0x1 SHR SWAP1 POP SWAP2 SWAP1 POP JUMP JUMPDEST PUSH32 0x4D7573742062652070726F706F736564206F776E657200000000000000000000 PUSH1 0x0 DUP3 ADD MSTORE POP JUMP JUMPDEST PUSH32 0x756E61626C6520746F207472616E73666572416E6443616C6C20746F206F7261 PUSH1 0x0 DUP3 ADD MSTORE PUSH32 0x636C650000000000000000000000000000000000000000000000000000000000 PUSH1 0x20 DUP3 ADD MSTORE POP JUMP JUMPDEST PUSH32 0x4F6E6C792063616C6C61626C65206279206F776E657200000000000000000000 PUSH1 0x0 DUP3 ADD MSTORE POP JUMP JUMPDEST PUSH32 0x556E61626C6520746F207472616E736665720000000000000000000000000000 PUSH1 0x0 DUP3 ADD MSTORE POP JUMP JUMPDEST PUSH32 0x43616E6E6F74207472616E7366657220746F2073656C66000000000000000000 PUSH1 0x0 DUP3 ADD MSTORE POP JUMP JUMPDEST PUSH32 0x536F75726365206D75737420626520746865206F7261636C65206F6620746865 PUSH1 0x0 DUP3 ADD MSTORE PUSH32 0x2072657175657374000000000000000000000000000000000000000000000000 PUSH1 0x20 DUP3 ADD MSTORE POP JUMP JUMPDEST PUSH2 0x1F1D DUP2 PUSH2 0x1B1F JUMP JUMPDEST DUP2 EQ PUSH2 0x1F28 JUMPI PUSH1 0x0 DUP1 REVERT JUMPDEST POP JUMP JUMPDEST PUSH2 0x1F34 DUP2 PUSH2 0x1B31 JUMP JUMPDEST DUP2 EQ PUSH2 0x1F3F JUMPI PUSH1 0x0 DUP1 REVERT JUMPDEST POP JUMP JUMPDEST PUSH2 0x1F4B DUP2 PUSH2 0x1B3D JUMP JUMPDEST DUP2 EQ PUSH2 0x1F56 JUMPI PUSH1 0x0 DUP1 REVERT JUMPDEST POP JUMP JUMPDEST PUSH2 0x1F62 DUP2 PUSH2 0x1B93 JUMP JUMPDEST DUP2 EQ PUSH2 0x1F6D JUMPI PUSH1 0x0 DUP1 REVERT JUMPDEST POP JUMP INVALID PUSH9 0x7474703A2F2F686F73 PUSH21 0x2E646F636B65722E696E7465726E616C3A33303030 0x2F PUSH14 0x6F6469666965642D747261696E2D PUSH10 0x6E666FA2646970667358 0x22 SLT KECCAK256 SWAP6 PUSH15 0x2AF569769B212152C117E361C4E38E 0xC2 0xA5 0xAD 0xC1 DUP1 PC INVALID SUB 0xF SUB 0xD7 PUSH22 0x545E4164736F6C634300080700330000000000000000 "
				},
				"gasEstimates": {
					"creation": {
						"codeDepositCost": "1630800",
						"executionCost": "infinite",
						"totalCost": "infinite"
					},
					"external": {
						"acceptOwnership()": "54585",
						"fulfill(bytes32,string)": "infinite",
						"id()": "infinite",
						"owner()": "2522",
						"requestFirstId()": "infinite",
						"transferOwnership(address)": "30729",
						"withdrawLink()": "infinite"
					}
				},
				"methodIdentifiers": {
					"acceptOwnership()": "79ba5097",
					"fulfill(bytes32,string)": "37441996",
					"id()": "af640d0f",
					"owner()": "8da5cb5b",
					"requestFirstId()": "09323a6a",
					"transferOwnership(address)": "f2fde38b",
					"withdrawLink()": "8dc654a2"
				}
			},
			"storageLayout": {
				"storage": [
					{
						"astId": 325,
						"contract": "docs.chain.link/samples/APIRequests/StrTest.sol:FetchFromArray",
						"label": "s_ens",
						"offset": 0,
						"slot": "0",
						"type": "t_contract(ENSInterface)982"
					},
					{
						"astId": 327,
						"contract": "docs.chain.link/samples/APIRequests/StrTest.sol:FetchFromArray",
						"label": "s_ensNode",
						"offset": 0,
						"slot": "1",
						"type": "t_bytes32"
					},
					{
						"astId": 330,
						"contract": "docs.chain.link/samples/APIRequests/StrTest.sol:FetchFromArray",
						"label": "s_link",
						"offset": 0,
						"slot": "2",
						"type": "t_contract(LinkTokenInterface)1382"
					},
					{
						"astId": 333,
						"contract": "docs.chain.link/samples/APIRequests/StrTest.sol:FetchFromArray",
						"label": "s_oracle",
						"offset": 0,
						"slot": "3",
						"type": "t_contract(OperatorInterface)1047"
					},
					{
						"astId": 336,
						"contract": "docs.chain.link/samples/APIRequests/StrTest.sol:FetchFromArray",
						"label": "s_requestCount",
						"offset": 0,
						"slot": "4",
						"type": "t_uint256"
					},
					{
						"astId": 340,
						"contract": "docs.chain.link/samples/APIRequests/StrTest.sol:FetchFromArray",
						"label": "s_pendingRequests",
						"offset": 0,
						"slot": "5",
						"type": "t_mapping(t_bytes32,t_address)"
					},
					{
						"astId": 1117,
						"contract": "docs.chain.link/samples/APIRequests/StrTest.sol:FetchFromArray",
						"label": "s_owner",
						"offset": 0,
						"slot": "6",
						"type": "t_address"
					},
					{
						"astId": 1119,
						"contract": "docs.chain.link/samples/APIRequests/StrTest.sol:FetchFromArray",
						"label": "s_pendingOwner",
						"offset": 0,
						"slot": "7",
						"type": "t_address"
					},
					{
						"astId": 2380,
						"contract": "docs.chain.link/samples/APIRequests/StrTest.sol:FetchFromArray",
						"label": "id",
						"offset": 0,
						"slot": "8",
						"type": "t_string_storage"
					},
					{
						"astId": 2382,
						"contract": "docs.chain.link/samples/APIRequests/StrTest.sol:FetchFromArray",
						"label": "jobId",
						"offset": 0,
						"slot": "9",
						"type": "t_bytes32"
					},
					{
						"astId": 2384,
						"contract": "docs.chain.link/samples/APIRequests/StrTest.sol:FetchFromArray",
						"label": "fee",
						"offset": 0,
						"slot": "10",
						"type": "t_uint256"
					}
				],
				"types": {
					"t_address": {
						"encoding": "inplace",
						"label": "address",
						"numberOfBytes": "20"
					},
					"t_bytes32": {
						"encoding": "inplace",
						"label": "bytes32",
						"numberOfBytes": "32"
					},
					"t_contract(ENSInterface)982": {
						"encoding": "inplace",
						"label": "contract ENSInterface",
						"numberOfBytes": "20"
					},
					"t_contract(LinkTokenInterface)1382": {
						"encoding": "inplace",
						"label": "contract LinkTokenInterface",
						"numberOfBytes": "20"
					},
					"t_contract(OperatorInterface)1047": {
						"encoding": "inplace",
						"label": "contract OperatorInterface",
						"numberOfBytes": "20"
					},
					"t_mapping(t_bytes32,t_address)": {
						"encoding": "mapping",
						"key": "t_bytes32",
						"label": "mapping(bytes32 => address)",
						"numberOfBytes": "32",
						"value": "t_address"
					},
					"t_string_storage": {
						"encoding": "bytes",
						"label": "string",
						"numberOfBytes": "32"
					},
					"t_uint256": {
						"encoding": "inplace",
						"label": "uint256",
						"numberOfBytes": "32"
					}
				}
			},
			"userdoc": {
				"kind": "user",
				"methods": {
					"acceptOwnership()": {
						"notice": "Allows an ownership transfer to be completed by the recipient."
					},
					"owner()": {
						"notice": "Get the current owner"
					},
					"transferOwnership(address)": {
						"notice": "Allows an owner to begin transferring ownership to a new address."
					}
				},
				"version": 1
			}
		}
	}
}